:020000040800F2
:1000000000000A20F1020008410300084103000833
:1000100041030008410300084103000800000000FC
:100020000000000000000000000000004103000884
:1000300041030008000000004103000843030008DA
:100040004103000841030008410300084103000880
:100050004103000841030008410300084103000870
:100060004103000841030008410300084103000860
:100070004103000841030008410300084103000850
:100080004103000841030008410300084103000840
:100090004103000841030008410300084103000830
:1000A0004103000841030008410300084103000820
:1000B0004103000841030008410300084103000810
:1000C0004103000841030008410300084103000800
:1000D00041030008410300084103000841030008F0
:1000E00053030008410300084103000841030008CE
:1000F000410300084103000841030008000000001C
:1001000041030008410300084103000841030008BF
:1001100041030008410300084103000841030008AF
:10012000410300084103000841030008410300089F
:10013000410300084103000841030008410300088F
:10014000410300084103000841030008410300087F
:10015000410300084103000841030008410300086F
:10016000410300084103000841030008410300085F
:1001700041030008410300080000000000000000E7
:10018000410300084103000841030008410300083F
:1001900041030008410300080000000000000000C7
:1001A00000000000000000004103000841030008B7
:1001B000410300084103000841030008000000005B
:1001C00053B94AB9002908BF00281CBF4FF0FF31BE
:1001D0004FF0FF3000F00CB8ADF1080C6DE904CE23
:1001E00004F080FADDF804E0DDE9022304B0704792
:1001F000704700BF034613F8012B002AFBD1181AE1
:1002000001387047000000000000000000000000FE
:1002100001F0FF01102A2BDB10F0070F08D010F8B7
:10022000013B013A8B422DD010F0070F42B3F6D1BB
:10023000F0B441EA012141EA014122F007047FF0D4
:1002400000070023F0E80256083C85EA010586EA2B
:10025000010685FA47F5A3FA87F586FA47F6A5FA67
:1002600087F68EB9EED1F0BC01F0FF0102F0070273
:1002700032B110F8013B013A83EA010313B1F8D11E
:100280000020704701387047002D06BF35460338FF
:10029000073815F0010F07D1013015F4807F02BF38
:1002A000013015F4C03F0130F0BC0138704700BF89
:1002B00010B5054C237833B9044B13B10448AFF3A0
:1002C00000800123237010BD70000020000000009A
:1002D0006052000808B5034B1BB103490348AFF354
:1002E000008008BD0000000074000020605200087B
:1002F000DFF834D0002103E00C4B5B58435004314D
:100300000B480C4B42189A42F6D30B4A02E00023EA
:1003100042F8043B094B9A42F9D300F051FB04F038
:1003200047FB00F01FF8FEE700000A20805300089A
:10033000000000207000002070000020C00100209C
:10034000FEE780B500AF00F0B9FB00F01FFD00BF75
:1003500080BD80B500AF4FF4005000F0B5FE00BF87
:1003600080BD000080B500AF00F056FB322000F0E9
:100370008DF800F0A1F900F055F800F02DF900F02B
:100380005BF9422000F0B8FE214B1B6903F4807337
:10039000002B1ED01E4B4FF480729A611C4B1F2203
:1003A0009A611C491C4804F02FFB1B48FFF722FFF1
:1003B00003469AB24FF0FF331749184802F01EFE69
:1003C0000346002B01D000F0B1F94FF4005000F0CB
:1003D000B1F91349104804F017FB0F48FFF70AFF63
:1003E00003469AB24FF0FF330B490C4802F006FE69
:1003F0000346002B01D000F099F94FF4FA7000F099
:1004000079FB034B02229A6100F096FEFEE700BFE3
:1004100000700040785200083C0100208C00002051
:10042000A452000880B500AF154B164A1A60144B51
:10043000154A5A60124B00229A60114B0022DA6072
:100440000F4B00221A610E4B0C225A610C4B0022FA
:100450009A610B4B00221A62094B00225A62084B28
:1004600000229A62064B00225A66054802F076FD89
:100470000346002B01D000F059F900BF80BD00BF3A
:100480008C000020008000402433030080B59AB027
:1004900000AF0346FB71002387F8673007F12003A4
:1004A00044220021184604F0A7FA07F10C03142295
:1004B0000021184604F0A0FA06233B624FF4807333
:1004C000FB620123BB6240233B630223BB64022324
:1004D000FB64FB79782B3AD0782B52DC322B02D09C
:1004E000542B1AD04DE004233B6532237B65042353
:1004F0003B660223FB650223BB650F23FB600323DE
:100500003B6100237B614FF48063BB614FF48063E8
:10051000FB61022387F8673034E004233B652A231C
:100520007B6502233B660223FB650223BB650F2329
:10053000FB6003233B6100237B614FF48063BB615D
:100540004FF48063FB61042387F867301AE00423CB
:100550003B653C237B6502233B660223FB6502234C
:10056000BB650F23FB6003233B6100237B614FF4DA
:10057000A063BB614FF48063FB61052387F867309C
:1005800000E000BF07F12003184600F01BFE034601
:10059000002B01D000F0CAF897F8672007F10C0390
:1005A0001146184601F0FCF90346002B01D000F07B
:1005B000BDF801F0ABFB0346064AA2FB03239B09EF
:1005C000184600F0BAFB042000F0C4FB00BF6837F7
:1005D000BD4680BDD34D621080B500AF144B1B6883
:1005E000DB6803F01003102B20D0114B114A1A6066
:1005F0000F4B7F229A600E4BFF22DA600C4B402299
:100600005A600B4B00221A61094B4FF480129A6119
:10061000074B0022DA61064B00225A61044802F0BF
:1006200085F90346002B01D000F080F800BF80BDA3
:10063000180100200028004080B586B000AF1D4B97
:100640001B68DB6803F01003102B2ED03B1D00222B
:100650001A605A609A60DA601A6100233B600C23CA
:100660003B710B237B710A23BB710123FB713B1D83
:10067000002219460F4802F0D4F90346002B01D09E
:1006800000F054F81223BB7006237B7002233B70EA
:100690001823FB703B4601221946064802F0BAFABD
:1006A0000346002B01D000F041F800BF1837BD46CB
:1006B00080BD00BF1801002080B588B000AF184B86
:1006C0009B6D174A43F080539365154B9B6D03F068
:1006D0008053BB60BB68124BDB6C114A43F00403D0
:1006E000D3640F4BDB6C03F004037B607B684FF437
:1006F0000053FB600B4B3B6100237B6107F10C0354
:100700001946094800F04EFB282000F008FB0022A3
:100710000F21282000F0E7FA00BF2037BD4680BD3A
:1007200000100240000021100008004880B400AF13
:10073000FEE7000080B58AB002AF0346FB80FB886D
:10074000B3F5005F57D107F10C0300221A605A601D
:100750009A60DA601A610023BB6007F10C03002283
:100760001946274802F0FAF90346002B01D0FFF79B
:10077000DDFF07F1080300221946214802F0D1FAF3
:100780000346002B01D0FFF7D1FF3B7B1A467B7B52
:100790001946BB7B00930B461A491B4804F034F9F9
:1007A0001948FFF727FD03469AB24FF0FF33164969
:1007B000164802F023FC0346002B01D0FFF7B6FFDA
:1007C000BB7A1A467B7A1946FB7A00930B4610498E
:1007D0000D4804F019F90C48FFF70CFD03469AB2D6
:1007E0004FF0FF330849094802F008FC0346002B8C
:1007F00001D0FFF79BFF00BF2037BD4680BD00BF83
:1008000018010020BC5200083C0100208C00002090
:10081000D452000880B500AF032000F059FA0D4B08
:100820005B6A0C4A43F4E0235362002200216FF01C
:100830000B0000F058FA002200216FF00A0000F0CF
:1008400052FA002200216FF0090000F04CFA00BFBC
:1008500080BD00BF00ED00E080B58AB000AF7860D9
:100860007B681B68244A934242D1244B9B6D234AE8
:1008700043F080539365214B9B6D03F080533B61A4
:100880003B6900F091FC1D4BDB6D1C4A43F00103FA
:10089000D3651A4BDB6D03F00103FB60FB68174B5C
:1008A000DB6C164A43F04003D364144BDB6C03F05B
:1008B0004003BB60BB684FF4C0737B610223BB6124
:1008C00003233B6208237B6207F1140319460C489B
:1008D00000F068FA07F114031946094800F062FABB
:1008E000462000F01CFA00220F21462000F0FBF900
:1008F00000BF2837BD4680BD008000400010024088
:100900000018004880B5A8B000AF78607B681B680D
:10091000134A93421FD107F10C0394220021184679
:1009200004F06AF84FF40033FB604FF48073C7F8AB
:100930009C3007F10C03184601F0E0FA0346002B47
:1009400001D0FFF7F3FE074BD3F89030054A43F48C
:100950000043C2F8903000BFA037BD4680BD00BF45
:10096000002800400010024080B584B000AF7860DD
:10097000114B1B68002B02D10F4B104A1A600E4B13
:100980001B68FB600C4B1A687B6813446A469342F1
:1009900007D904F007F803460C221A604FF0FF3322
:1009A00006E0054B1A687B681344034A1360FB6832
:1009B00018461037BD4680BDA0010020C0010020B0
:1009C00080B400AF124B1B68114A43F0010313605F
:1009D0000F4B00229A600E4B1B680D4A23F0A85360
:1009E00023F4102313600A4B4FF48052DA60084B53
:1009F0001B68074A23F480231360054B00229A6189
:100A0000044B4FF000629A6000BFBD4680BC704747
:100A10000010024000ED00E080B582B000AF00237E
:100A2000FB71032000F054F9002000F00DF803469C
:100A3000002B02D00123FB7101E0FFF7EBFEFB79F5
:100A400018460837BD4680BD80B584B000AF7860D9
:100A50000023FB73164B1B68002B22D0154B1A6822
:100A6000134B1B684FF47A71B1FBF3F3B2FBF3F352
:100A7000184600F062F90346002B0FD17B680F2B5C
:100A800009D8002279684FF0FF3000F02CF90A4AAB
:100A90007B68136007E00123FB7304E00123FB7311
:100AA00001E00123FB73FB7B18461037BD4680BD78
:100AB00008000020000000200400002080B400AFE7
:100AC000054B1A68054B1B681344034A136000BFAB
:100AD000BD4680BC704700BFAC010020080000206C
:100AE00080B400AF024B1B681846BD4680BC7047FF
:100AF000AC01002080B584B000AF7860FFF7F0FF54
:100B0000B8607B68FB60FB68B3F1FF3F04D0094B22
:100B10001B68FA681344FB6000BFFFF7E1FF024661
:100B2000BB68D31AFA689A42F7D800BF00BF1037E3
:100B3000BD4680BD0800002080B485B000AF78605D
:100B40007B6803F00703FB600C4BDB68BB60BA6893
:100B50004FF6FF031340BB60FB681A02BB681343E8
:100B600043F0BF6343F40033BB60044ABB68D36007
:100B700000BF1437BD4680BC704700BF00ED00E0E9
:100B800080B400AF044BDB681B0A03F00703184670
:100B9000BD4680BC704700BF00ED00E080B483B06C
:100BA00000AF0346FB7197F90730002B0BDBFB7995
:100BB00003F01F02064997F907305B09012000FA8C
:100BC00002F241F8232000BF0C37BD4680BC7047BD
:100BD00000E100E080B483B000AF03463960FB71F0
:100BE00097F90730002B0ADB3B68DAB20C4997F91A
:100BF00007301201D2B20B4483F800230AE03B68AD
:100C0000DAB20849FB7903F00F03043B1201D2B2B8
:100C10000B441A7600BF0C37BD4680BC704700BF3E
:100C200000E100E000ED00E080B489B000AFF860C2
:100C3000B9607A60FB6803F00703FB61FB69C3F1ED
:100C40000703042B28BF0423BB61FB690433062B75
:100C500002D9FB69033B00E000237B614FF0FF32C8
:100C6000BB6902FA03F3DA43BB681A407B699A4016
:100C70004FF0FF317B6901FA03F3D9437B680B40E6
:100C8000134318462437BD4680BC704780B582B0F8
:100C900000AF78607B68013BB3F1807F01D3012313
:100CA0000FE00A4A7B68013B53600F214FF0FF3091
:100CB000FFF790FF054B00229A60044B07221A6051
:100CC000002318460837BD4680BD00BF10E000E095
:100CD00080B582B000AF78607868FFF72DFF00BF65
:100CE0000837BD4680BD80B586B000AF0346B96009
:100CF0007A60FB7300237B61FFF742FF78617A68BB
:100D0000B9687869FFF790FF024697F90F301146EE
:100D10001846FFF75FFF00BF1837BD4680BD80B59E
:100D200082B000AF0346FB7197F907301846FFF712
:100D300035FF00BF0837BD4680BD80B582B000AF2B
:100D400078607868FFF7A2FF034618460837BD466B
:100D500080BD000080B483B000AF78607B68042B56
:100D600006D1094B1B68084A43F00403136005E0F1
:100D7000054B1B68044A23F00403136000BF0C37C3
:100D8000BD4680BC704700BF10E000E080B500AFFA
:100D900000F002F800BF80BD80B400AF00BFBD46C8
:100DA00080BC704780B487B000AF786039600023A2
:100DB0007B6166E13B681A6801217B6901FA03F3F4
:100DC0001340FB60FB68002B00F058813B685B68B8
:100DD000022B03D03B685B68122B23D17B69DA08B6
:100DE0007B68083253F822303B617B6903F00703CC
:100DF0009B000F2202FA03F3DB433A6913403B6185
:100E00003B681A697B6903F007039B0002FA03F34E
:100E10003A6913433B617B69DA087B6808323969B8
:100E200043F822107B681B683B617B695B000322EF
:100E300002FA03F3DB433A6913403B613B685B68AA
:100E400003F003027B695B0002FA03F33A69134380
:100E50003B617B683A691A603B685B68012B0BD089
:100E60003B685B68022B07D03B685B68112B03D0A3
:100E70003B685B68122B30D17B689B683B617B6968
:100E80005B00032202FA03F3DB433A6913403B6140
:100E90003B68DA687B695B0002FA03F33A69134343
:100EA0003B617B683A699A607B685B683B610122C1
:100EB0007B6902FA03F3DB433A6913403B613B6809
:100EC0005B681B0903F001027B6902FA03F33A69CC
:100ED00013433B617B683A695A607B68DB683B611E
:100EE0007B695B00032202FA03F3DB433A69134098
:100EF0003B613B689A687B695B0002FA03F33A69DD
:100F000013433B617B683A69DA603B685B6803F0D6
:100F10008053002B00F0B280614B1B6E604A43F09F
:100F2000010313665E4B1B6E03F00103BB60BB68DD
:100F30005C4A7B699B08023352F823303B617B6932
:100F400003F003039B000F2202FA03F3DB433A6929
:100F500013403B617B68B3F1904F2BD07B68524AC2
:100F6000934225D07B68514A93421FD07B68504AF8
:100F7000934219D07B684F4A934213D07B684E4A04
:100F800093420DD07B684D4A934207D07B684C4A10
:100F9000934201D107230EE008230CE006230AE068
:100FA000052308E0042306E0032304E0022302E013
:100FB000012300E000237A6902F0030292009340CB
:100FC0003A6913433B6137497B699B0802333A69AD
:100FD00041F823203B4B1B683B61FB68DB433A69CC
:100FE00013403B613B685B6803F48033002B03D004
:100FF0003A69FB6813433B61324A3B691360314BEA
:101000005B683B61FB68DB433A6913403B613B68CB
:101010005B6803F40033002B03D03A69FB68134389
:101020003B61284A3B695360264B9B683B61FB68E8
:10103000DB433A6913403B613B685B6803F4801310
:10104000002B03D03A69FB6813433B611D4A3B699F
:1010500093601C4BDB683B61FB68DB433A691340E0
:101060003B613B685B6803F40013002B03D03A69D3
:10107000FB6813433B61134A3B69D3607B690133CF
:101080007B613B681A687B6922FA03F3002B7FF4CB
:1010900091AE00BF00BF1C37BD4680BC704700BF8B
:1010A0000010024000000140000400480008004811
:1010B000000C0048001000480014004800180048C8
:1010C000001C00480004014080B582B000AF034618
:1010D000FB80084B5A69FB881340002B06D0054A59
:1010E000FB885361FB881846FFF724FB00BF0837D5
:1010F000BD4680BD0004014080B483B000AF78607D
:101100000C4BDA687B6803F01F03DB431A407B68F3
:101110005B0908491343CB60064B9A687B6803F070
:101120001F03044913438B6000BF0C37BD4680BCCE
:10113000704700BF0070004080B400AF094B1B68CF
:1011400023F00703074A43F003031360064B1B69B0
:10115000054A43F00403136130BF00BFBD4680BCA5
:10116000704700BF0070004000ED00E080B400AFA9
:101170000C4B1B6803F4C063B3F5806F02D14FF4CE
:1011800080630BE0074BD3F8803003F48073B3F532
:10119000807F02D14FF4007300E000231846BD4663
:1011A00080BC70470070004080B400AF044B5B68A7
:1011B000034A43F40073536000BFBD4680BC7047D0
:1011C0000070004080B588B000AF78607B68002B6D
:1011D00001D10123DBE3A44B9B6803F00C03BB614B
:1011E000A14BDB6803F003037B617B681B6803F0A2
:1011F0001003002B00F0E180BB69002B07D0BB6916
:101200000C2B40F088807B69012B40F08480964B4A
:101210001B6803F00203002B05D07B689B69002B41
:1012200001D10123B3E37B681A6A8F4B1B6803F07B
:101230000803002B04D08C4B1B6803F0F00305E07F
:10124000894BD3F894301B0903F0F003934223D267
:101250007B681B6A184600F08FFD0346002B01D007
:10126000012394E3804B1B687F4A43F0080313601B
:101270007D4B1B6823F0F0027B681B6A7A4913439D
:101280000B60794B5B6823F47F427B68DB691B0250
:10129000754913434B6022E0734B1B68724A43F05D
:1012A00008031360704B1B6823F0F0027B681B6A15
:1012B0006D4913430B606C4B5B6823F47F427B6882
:1012C000DB691B02684913434B607B681B6A184645
:1012D00000F052FD0346002B01D0012357E300F03C
:1012E0008BFC0246604B9B681B0903F00F035F49B0
:1012F000CB5C03F01F0322FA03F35D4A13605D4BDE
:101300001B681846FFF7A0FB0346FB73FB7B002B13
:1013100052D0FB7B3BE37B689B69002B32D0524B66
:101320001B68514A43F001031360FFF7D9FB386192
:1013300008E0FFF7D5FB02463B69D31A022B01D91F
:10134000032324E3484B1B6803F00203002BF0D077
:10135000454B1B68444A43F008031360424B1B682B
:1013600023F0F0027B681B6A3F4913430B603E4B3E
:101370005B6823F47F427B68DB691B023A491343B5
:101380004B601AE0384B1B68374A23F001031360A7
:10139000FFF7A6FB386108E0FFF7A2FB02463B69B6
:1013A000D31A022B01D90323F1E22F4B1B6803F060
:1013B0000203002BF0D100E000BF7B681B6803F044
:1013C0000103002B74D0BB69082B05D0BB690C2B23
:1013D0000ED17B69032B0BD1234B1B6803F4003325
:1013E000002B64D07B685B68002B60D10123CEE2C8
:1013F0007B685B68B3F5803F06D11B4B1B681A4ABC
:1014000043F4803313601DE07B685B68B3F5A02F65
:101410000CD1154B1B68144A43F480231360124B04
:101420001B68114A43F4803313600BE00E4B1B68BA
:101430000D4A23F4803313600B4B1B680A4A23F4D4
:10144000802313607B685B68002B1CD0FFF748FB90
:10145000386111E0FFF744FB02463B69D31A642B65
:101460000AD9032393E200BF00100240EC520008A7
:101470000000002004000020AE4B1B6803F4003382
:10148000002BE7D014E0FFF72BFB386108E0FFF7F3
:1014900027FB02463B69D31A642B01D9032376E26A
:1014A000A44B1B6803F40033002BF0D100E000BF15
:1014B0007B681B6803F00203002B60D0BB69042B20
:1014C00005D0BB690C2B19D17B69022B16D1994B26
:1014D0001B6803F48063002B05D07B68DB68002B5E
:1014E00001D1012353E2934B5B6823F0FE427B68FA
:1014F0001B691B068F4913434B6040E07B68DB6828
:10150000002B23D08B4B1B688A4A43F480731360F3
:10151000FFF7E6FA386108E0FFF7E2FA02463B69B6
:10152000D31A022B01D9032331E2824B1B6803F447
:101530008063002BF0D07F4B5B6823F0FE427B681A
:101540001B691B067B4913434B6018E0794B1B68F2
:10155000784A23F480731360FFF7C2FA386108E019
:10156000FFF7BEFA02463B69D31A022B01D90323C7
:101570000DE2704B1B6803F48063002BF0D17B6895
:101580001B6803F00803002B3CD07B685B69002BD1
:101590001CD0684BD3F89430664A43F00103C2F87C
:1015A0009430FFF79DFA386108E0FFF799FA024698
:1015B0003B69D31A022B01D90323E8E15D4BD3F831
:1015C000943003F00203002BEFD01BE0594BD3F80B
:1015D0009430584A23F00103C2F89430FFF780FAA0
:1015E000386108E0FFF77CFA02463B69D31A022B08
:1015F00001D90323CBE14F4BD3F8943003F002031E
:10160000002BEFD17B681B6803F00403002B00F074
:10161000A5800023FB77474B9B6D03F08053002B85
:101620000DD1444B9B6D434A43F080539365414B2E
:101630009B6D03F08053BB60BB680123FB773E4B7F
:101640001B6803F48073002B18D13B4B1B683A4A8C
:1016500043F480731360FFF743FA386108E0FFF743
:101660003FFA02463B69D31A022B01D903238EE1CC
:10167000314B1B6803F48073002BF0D07B689B68B0
:10168000012B08D12B4BD3F890302A4A43F00103A9
:10169000C2F8903024E07B689B68052B10D1254B65
:1016A000D3F89030234A43F00403C2F89030214B22
:1016B000D3F890301F4A43F00103C2F890300FE096
:1016C0001C4BD3F890301B4A23F00103C2F8903032
:1016D000184BD3F89030174A23F00403C2F8903027
:1016E0007B689B68002B16D0FFF7FAF938610AE097
:1016F000FFF7F6F902463B69D31A41F2883293426A
:1017000001D9032343E10B4BD3F8903003F00203DC
:10171000002BEDD019E0FFF7E3F938610EE0FFF799
:10172000DFF902463B69D31A41F28832934205D968
:1017300003232CE10010024000700040964BD3F8C8
:10174000903003F00203002BE9D1FB7F012B05D180
:10175000914B9B6D904A23F0805393657B681B6887
:1017600003F02003002B3CD07B685B6A002B1CD06D
:10177000894BD3F89830884A43F00103C2F8983077
:10178000FFF7AEF9386108E0FFF7AAF902463B69B6
:10179000D31A022B01D90323F9E07F4BD3F89830F9
:1017A00003F00203002BEFD01BE07B4BD3F8983003
:1017B000794A23F00103C2F89830FFF791F93861B4
:1017C00008E0FFF78DF902463B69D31A022B01D9D5
:1017D0000323DCE0704BD3F8983003F00203002BB6
:1017E000EFD17B689B6A002B00F0D080BB690C2B8B
:1017F00000F08D807B689B6A022B5AD1664B1B6878
:10180000654A23F080731360FFF76AF9386108E0D6
:10181000FFF766F902463B69D31A022B01D903236D
:10182000B5E05D4B1B6803F00073002BF0D15A4B01
:10183000DA685A4B13407A68D16A7A68126B013AB7
:10184000120111437A68526B120211437A68D26B0B
:101850005208013A520511437A68126C5208013A53
:10186000520611437A68926BD2060A434A491343DF
:10187000CB60494B1B68484A43F080731360464B6A
:10188000DB68454A43F08073D360FFF729F938617C
:1018900008E0FFF725F902463B69D31A022B01D96C
:1018A000032374E03C4B1B6803F00073002BF0D063
:1018B0006CE0394B1B68384A23F080731360364B59
:1018C0001B6803F02053002B05D1334BDB68324AF1
:1018D00023F00303D360304BDB682F4A23F0887377
:1018E00023F48033D360FFF7FBF8386108E0FFF79B
:1018F000F7F802463B69D31A022B01D9032346E0CD
:10190000254B1B6803F00073002BF0D13EE07B6891
:101910009B6A012B01D1012339E01F4BDB687B61FE
:101920007B6903F003027B68DB6A9A422CD17B69F6
:1019300003F0F0027B681B6B013B1B019A4223D131
:101940007B6903F4FE427B685B6B1B029A421BD1EE
:101950007B6903F078427B689B6BDB069A4213D16C
:101960007B6903F4C0027B68DB6B5B08013B5B05B2
:101970009A4209D17B6903F0C0627B681B6C5B08EB
:10198000013B5B069A4201D0012300E00023184688
:101990002037BD4680BD00BF001002400C809D0175
:1019A00080B586B000AF7860396000237B617B68CA
:1019B000002B01D101230FE1894B1B6803F00F03BA
:1019C0003A689A4210D9864B1B6823F00F0284496B
:1019D0003B6813430B60824B1B6803F00F033A68AC
:1019E0009A4201D00123F7E07B681B6803F00103F2
:1019F000002B00F089807B685B68032B33D1794B27
:101A00001B6803F00073002B01D10123E4E000F018
:101A10000DFA0346744A934255D9724B9B6803F002
:101A2000F003002B0AD16F4B9B6823F0F0036D4A43
:101A300043F08003936080237B6144E07B681B68F4
:101A400003F00203002B3ED07B689B68002B3AD149
:101A5000644B9B6823F0F003624A43F08003936079
:101A600080237B612FE07B685B68022B07D15D4B95
:101A70001B6803F40033002B15D10123ACE07B6815
:101A80005B68002B07D1574B1B6803F00203002B48
:101A900009D10123A0E0534B1B6803F48063002BA2
:101AA00001D1012398E000F0A7F803464E4A934283
:101AB00009D94C4B9B6823F0F0034A4A43F080035A
:101AC000936080237B61474B9B6823F003027B6814
:101AD0005B68444913438B60FFF702F838610AE002
:101AE000FEF7FEFF02463B69D31A41F28832934269
:101AF00001D9032370E03B4B9B6803F00C027B6829
:101B00005B689B009A42EBD17B681B6803F0020381
:101B1000002B09D0334B9B6823F0F0027B689B6855
:101B2000304913438B6008E07B69802B05D12D4B36
:101B30009B682C4A23F0F0039360294B1B6803F049
:101B40000F033A689A4210D2254B1B6823F00F020C
:101B500023493B6813430B60214B1B6803F00F03C1
:101B60003A689A4201D0012336E07B681B6803F093
:101B70000403002B08D01B4B9B6823F4E0627B68B6
:101B8000DB68184913438B607B681B6803F008030C
:101B9000002B09D0134B9B6823F460527B681B69B0
:101BA000DB00104913438B6000F026F802460D4B12
:101BB0009B681B0903F00F030C49CB5C03F01F0368
:101BC00022FA03F30A4A13600A4B1B681846FEF711
:101BD0003BFF0346FB73FB7B18461837BD4680BDB1
:101BE000002002400010024000B4C404EC5200087F
:101BF000000000200400002080B489B000AF002362
:101C0000FB610023BB613D4B9B6803F00C033B6110
:101C10003A4BDB6803F00303FB603B69002B05D004
:101C20003B690C2B21D1FB68012B1ED1334B1B6868
:101C300003F00803002B07D1304BD3F894301B0A74
:101C400003F00F03FB6105E02C4B1B681B0903F03D
:101C50000F03FB612A4AFB6952F82330FB613B69A1
:101C6000002B0DD1FB69BB610AE03B69042B02D15B
:101C7000244BBB6104E03B69082B01D1224BBB61C3
:101C80003B690C2B34D11D4BDB6803F00303BB60B5
:101C9000BB68022B03D0BB68032B03D005E0194BB4
:101CA0007B6105E0184B7B6102E0FB697B6100BF53
:101CB000124BDB681B0903F00F0301337B600F4BF2
:101CC000DB681B0A03F07F037A6902FB03F27B687F
:101CD000B2FBF3F37B61094BDB685B0E03F003039C
:101CE00001335B003B607A693B68B2FBF3F3BB6195
:101CF000BB6918462437BD4680BC704700100240BF
:101D0000045300080024F40000127A0080B400AFED
:101D1000024B1B681846BD4680BC7047000000207F
:101D200080B500AFFFF7F2FF0246064B9B681B0A27
:101D300003F007030449CB5C03F01F0322FA03F30B
:101D4000184680BD00100240FC52000880B500AF6C
:101D5000FFF7DCFF0246064B9B68DB0A03F0070334
:101D60000449CB5C03F01F0322FA03F3184680BD3D
:101D700000100240FC52000880B586B000AF7860C9
:101D800000233B61274B9B6D03F08053002B03D056
:101D9000FFF7ECF9786114E0224B9B6D214A43F088
:101DA000805393651F4B9B6D03F08053FB60FB6872
:101DB000FFF7DCF978611B4B9B6D1A4A23F08053C7
:101DC00093657B69B3F5007F0BD17B68802B13D9BA
:101DD0007B68A02B02D902233B610DE001233B610C
:101DE0000AE07B687F2B02D902233B6104E07B6819
:101DF000702B01D101233B610B4B1B6823F00F02B9
:101E000009493B6913430B60074B1B6803F00F0341
:101E10003A699A4201D0012300E00023184618379E
:101E2000BD4680BD001002400020024080B487B053
:101E300000AF00237B612D4BDB6803F00303012B14
:101E400018D12A4B1B6803F00803002B07D1274B3E
:101E5000D3F894301B0A03F00F037B6105E0234B9A
:101E60001B681B0903F00F037B61214A7B6952F851
:101E700023307B611D4BDB6803F00303FB60FB68D1
:101E8000022B03D0FB68032B03D005E0194B3B6109
:101E900005E0194B3B6102E07B693B6100BF134BDE
:101EA000DB681B0903F00F030133BB600F4BDB68DA
:101EB0001B0A03F07F033A6902FB03F2BB68B2FB23
:101EC000F3F33B61094BDB685B0E03F00303013363
:101ED0005B007B603A697B68B2FBF3F33B603B6875
:101EE00018461C37BD4680BC704700BF001002403A
:101EF000045300080024F40000127A0080B586B074
:101F000000AF78600023FB740023BB747B681B6800
:101F100003F40063002B40D07B68DB6E802B2AD05B
:101F2000802B25D8602B26D0602B21D8402B06D0C3
:101F3000402B1DD8002B09D0202B10D018E0894B46
:101F4000DB68884A43F48033D36015E07B68043350
:101F50000021184600F002FB0346FB740CE07B688E
:101F600020330021184600F0EDFB0346FB7403E02C
:101F70000123FB7400E000BFFB7C002B0BD1794BED
:101F8000D3F89C3023F0E0027B68DB6E7549134385
:101F9000C1F89C3001E0FB7CBB747B681B6803F4D8
:101FA0008053002B47D07B681B6FB3F5806F30D018
:101FB000B3F5806F2AD8B3F5407F2AD0B3F5407FC0
:101FC00024D8B3F5007F08D0B3F5007F1ED8002BCE
:101FD0000AD0B3F5807F10D018E0624BDB68614A0D
:101FE00043F48033D36015E07B6804330021184646
:101FF00000F0B4FA0346FB740CE07B682033002148
:10200000184600F09FFB0346FB7403E00123FB74BA
:1020100000E000BFFB7C002B0BD1524BD3F89C306F
:1020200023F4E0627B681B6F4E491343C1F89C3078
:1020300001E0FB7CBB747B681B6803F40033002B5E
:1020400000F09F8000237B74464B9B6D03F0805310
:10205000002B01D1012300E00023002B0DD0414BC8
:102060009B6D404A43F0805393653E4B9B6D03F05C
:102070008053BB60BB6801237B743B4B1B683A4AAF
:1020800043F480731360FEF72BFDF86009E0FEF760
:1020900027FD0246FB68D31A022B02D90323FB74E7
:1020A00005E0314B1B6803F48073002BEFD0FB7C01
:1020B000002B5BD12B4BD3F8903003F440737B6142
:1020C0007B69002B1FD07B68D3F890307A699A42E5
:1020D00019D0244BD3F8903023F440737B61214B0B
:1020E000D3F890301F4A43F48033C2F890301D4B30
:1020F000D3F890301B4A23F48033C2F89030194A49
:102100007B69C2F890307B6903F00103002B16D085
:10211000FEF7E6FCF8600BE0FEF7E2FC0246FB6827
:10212000D31A41F28832934202D90323FB7406E0AA
:102130000C4BD3F8903003F00203002BECD0FB7C67
:10214000002B0CD1074BD3F8903023F440727B68FE
:10215000D3F8903003491343C1F8903008E0FB7C7A
:10216000BB7405E00010024000700040FB7CBB74B3
:102170007B7C012B05D1A04B9B6D9F4A23F08053A4
:1021800093657B681B6803F00103002B0AD09A4B10
:10219000D3F8883023F003027B68DB6B9649134346
:1021A000C1F888307B681B6803F00203002B0AD05B
:1021B000914BD3F8883023F00C027B681B6C8E495E
:1021C0001343C1F888307B681B6803F00403002BBD
:1021D0000AD0894BD3F8883023F030027B685B6CDF
:1021E00085491343C1F888307B681B6803F00803F6
:1021F000002B0AD0804BD3F8883023F0C0027B68D4
:102200009B6C7D491343C1F888307B681B6803F0E1
:102210001003002B0AD0784BD3F8883023F4407297
:102220007B68DB6C74491343C1F888307B681B689A
:1022300003F02003002B0AD06F4BD3F8883023F42F
:1022400040627B681B6D6C491343C1F888307B6822
:102250001B6803F40073002B0AD0674BD3F8883057
:1022600023F440227B685B6E63491343C1F88830D6
:102270007B681B6803F48063002B0AD05E4BD3F8A5
:10228000883023F440127B689B6E5B491343C1F88E
:1022900088307B681B6803F04003002B0AD0564B44
:1022A000D3F8883023F440527B685B6D5249134366
:1022B000C1F888307B681B6803F08003002B0AD0CC
:1022C0004D4BD3F8883023F440427B689B6D4A49DC
:1022D0001343C1F888307B681B6803F48073002BBC
:1022E0000AD0454BD3F8883023F440327B68DB6D4D
:1022F00041491343C1F888307B681B6803F480139D
:10230000002B0AD03C4BD3F89C3023F003027B68AF
:102310001B6E39491343C1F89C307B681B6803F47A
:102320000053002B28D0344BD3F8883023F0406280
:102330007B685B6F30491343C1F888307B685B6F03
:10234000B3F1006F06D12C4BDB682B4A43F48013AA
:10235000D36011E07B685B6FB3F1806F0CD17B6859
:1023600004330121184600F0F9F80346FB74FB7CA6
:10237000002B01D0FB7CBB747B681B6803F400233B
:10238000002B4DD07B689B6FB3F5804F08D11A4B63
:10239000D3F89C30184A43F48043C2F89C3012E0D2
:1023A000154BD3F89C30144A23F48043C2F89C3078
:1023B000114BD3F8883023F040627B689B6F0E4945
:1023C0001343C1F888307B689B6FB3F1006F06D16F
:1023D000094BDB68084A43F48013D36020E07B6834
:1023E0009B6FB3F5804F09D1034BDB68024A43F47E
:1023F0008033D36014E000BF001002407B689B6F05
:10240000B3F1806F0CD17B6804330121184600F0D2
:10241000A5F80346FB74FB7C002B01D0FB7CBB744E
:102420007B681B6803F48023002B28D04A4BD3F829
:10243000883023F040627B68DB6F47491343C1F863
:1024400088307B68DB6FB3F1006F06D1424BDB68ED
:10245000414A43F48013D36011E07B68DB6FB3F132
:10246000806F0CD17B6804330121184600F076F8A8
:102470000346FB74FB7C002B01D0FB7CBB747B68A8
:102480001B6803F48043002B1ED0334BD3F88830F5
:1024900023F040527B68D3F880302F491343C1F8B2
:1024A00088307B68D3F88030B3F1805F0CD17B68D3
:1024B00004330221184600F051F80346FB74FB7CFC
:1024C000002B01D0FB7CBB747B681B6803F480335A
:1024D000002B0BD0204BD3F89C3023F004027B68F8
:1024E000D3F884301C491343C1F89C307B681B68C7
:1024F00003F40013002B0BD0174BD3F89C3023F0C0
:1025000018027B68D3F8883013491343C1F89C3014
:102510007B681B6803F08073002B17D00E4BD3F839
:102520009C3023F440127B68D3F88C300A49134363
:10253000C1F89C307B68D3F88C30B3F5001F05D10F
:10254000054BDB68044A43F48013D360BB7C184618
:102550001837BD4680BD00BF0010024080B584B072
:1025600000AF786039600023FB73724BDB6803F0C7
:102570000303002B0ED06F4BDB6803F003027B6874
:102580001B689A4203D17B681B68002B42D1012350
:10259000FB733FE07B681B68032B18D0032B25D807
:1025A000012B02D0022B09D020E0624B1B6803F004
:1025B0000203002B1DD10123FB731AE05D4B1B6846
:1025C00003F48063002B16D10123FB7313E0594BF6
:1025D0001B6803F40033002B0FD1564B1B6803F428
:1025E0008023002B09D10123FB7306E00123FB7339
:1025F00004E000BF02E000BF00E000BFFB7B002B57
:1026000008D14C4BDB6823F003027B681B68494907
:102610001343CB60FB7B002B40F08680454B1B684F
:10262000444A23F080631360FEF75AFAB86009E069
:10263000FEF756FA0246BB68D31A022B02D90323CF
:10264000FB7305E03B4B1B6803F00063002BEFD1ED
:10265000FB7B002B68D13B68002B13D1354B1A69EB
:10266000354B13407A68926811027A68D268D206B4
:1026700011437A685268013A12010A432D49134303
:102680000B612DE03B68012B15D12A4B1A692B4BAE
:1026900013407A68926811027A6812695208013A06
:1026A000520511437A685268013A12010A432149DE
:1026B00013430B6114E01F4B1A69214B13407A68D6
:1026C000926811027A6852695208013A520611431F
:1026D0007A685268013A12010A43164913430B61A2
:1026E000144B1B68134A43F080631360FEF7F8F93C
:1026F000B86009E0FEF7F4F90246BB68D31A022B72
:1027000002D90323FB7305E00A4B1B6803F0006347
:10271000002BEFD0FB7B002B06D1064B1A697B68A0
:102720009B69044913430B61FB7B18461037BD4678
:1027300080BD00BF001002400F80FF070F809FFF89
:102740000F80FFF980B584B000AF78603960002356
:10275000FB73724BDB6803F00303002B0ED06F4B4F
:10276000DB6803F003027B681B689A4203D17B6835
:102770001B68002B42D10123FB733FE07B681B6881
:10278000032B18D0032B25D8012B02D0022B09D004
:1027900020E0624B1B6803F00203002B1DD10123D4
:1027A000FB731AE05D4B1B6803F48063002B16D1AA
:1027B0000123FB7313E0594B1B6803F40033002B18
:1027C0000FD1564B1B6803F48023002B09D1012342
:1027D000FB7306E00123FB7304E000BF02E000BFCF
:1027E00000E000BFFB7B002B08D14C4BDB6823F0E3
:1027F00003027B681B6849491343CB60FB7B002BBA
:1028000040F08680454B1B68444A23F08053136098
:10281000FEF766F9B86009E0FEF762F90246BB68A8
:10282000D31A022B02D90323FB7305E03B4B1B6831
:1028300003F00053002BEFD1FB7B002B68D13B68EA
:10284000002B13D1354B5A69354B13407A68926887
:1028500011027A68D268D20611437A685268013A46
:1028600012010A432D4913434B612DE03B68012BB4
:1028700015D12A4B5A692B4B13407A689268110282
:102880007A6812695208013A520511437A6852680F
:10289000013A12010A43214913434B6114E01F4BD3
:1028A0005A69214B13407A68926811027A6852691A
:1028B0005208013A520611437A685268013A1201ED
:1028C0000A43164913434B61144B1B68134A43F0E8
:1028D00080531360FEF704F9B86009E0FEF700F9D1
:1028E0000246BB68D31A022B02D90323FB7305E00F
:1028F0000A4B1B6803F00053002BEFD0FB7B002B2F
:1029000006D1064B5A697B689B69044913434B61A6
:10291000FB7B18461037BD4680BD00BF001002404B
:102920000F80FF070F809FFF0F80FFF980B584B0F5
:1029300000AF78600123FB737B68002B6CD07B6851
:1029400093F82130DBB2002B06D17B68002283F89C
:1029500020207868FDF7D6FF7B68022283F82120CB
:102960007B681B68CA225A627B681B6853225A62C2
:10297000786800F049FA0346FB73FB7B002B4BD1D0
:102980007B681B689B687A68126823F4E00323F075
:10299000400393607B681B6899687B685A687B6812
:1029A0001B691A437B689B691A437B681B680A434F
:1029B0009A607B681B687A68D2681A617B681B68BA
:1029C00019697B689B681A047B681B680A431A6153
:1029D000786800F04DFA0346FB73FB7B002B1BD19C
:1029E0007B681B68DA6C7B681B6822F00302DA6480
:1029F0007B681B68D96C7B68DA697B685B691A4302
:102A00007B681B680A43DA647B681B68FF225A6292
:102A10007B68012283F82120FB7B18461037BD46D6
:102A200080BD90B587B000AFF860B9607A60FB6890
:102A300093F82030012B01D102238BE0FB680122A7
:102A400083F82020FB68022283F82120FB681B68A2
:102A5000CA225A62FB681B6853225A62F86800F067
:102A6000D3F90346FB74FB7C002B63D17B68002BFE
:102A700026D1FB681B689B6803F04003002B02D142
:102A8000BB680022DA70BB681B78184600F02EFA8B
:102A900003461C04BB685B78184600F027FA03461F
:102AA0001B021C43BB689B78184600F01FFA0346C4
:102AB00044EA0302BB68DB789B0513437B6118E0A3
:102AC000FB681B689B6803F04003002B02D1BB68C6
:102AD0000022DA70BB681B781A04BB685B781B02A3
:102AE0001343BA6892781A43BB68DB789B0513439B
:102AF0007B61FB681A687B6903F07F3323F0FE4338
:102B00001360FB681B689A68FB681B6822F48022CC
:102B10009A60FB681B689968BB68DA68BB681B69C8
:102B20001A43FB681B680A439A60F86800F0A0F932
:102B30000346FB74FB681B68FF225A62FB7C002B78
:102B400003D1FB68012283F82120FB68002283F86F
:102B50002020FB7C18461C37BD4690BD80B586B052
:102B600000AFF860B9607A60FB681B689A6ABB685E
:102B70005A60FB681B681B69C3F30E02BB689A604E
:102B8000FB681B681B6803F07F3323F0FE437B6107
:102B90007B691B0CDBB203F03F03DAB2BB681A702F
:102BA0007B691B0ADBB203F07F03DAB2BB685A70A1
:102BB0007B69DBB203F07F03DAB2BB689A707B6992
:102BC0009B0DDBB203F00103DAB2BB68DA707B68FD
:102BD000002B1AD1BB681B78184600F0A6F90346F3
:102BE0001A46BB681A70BB685B78184600F09DF9FE
:102BF00003461A46BB685A70BB689B78184600F0BB
:102C000094F903461A46BB689A7000231846183791
:102C1000BD4680BD90B587B000AFF860B9607A60FE
:102C2000FB6893F82030012B01D1022375E0FB688B
:102C3000012283F82020FB68022283F821207B6890
:102C4000002B0ED1BB685B7803F01003002B08D07B
:102C5000BB685B7823F01003DBB20A33DAB2BB68DF
:102C60005A707B68002B1CD1BB68DB78184600F0DB
:102C70003DF903461C04BB685B78184600F036F942
:102C800003461B021C43BB689B78184600F02EF9D4
:102C9000034644EA0302BB681B785B0313437B6172
:102CA0000EE0BB68DB781A04BB685B781B02134339
:102CB000BA6892781A43BB681B785B0313437B6145
:102CC000FB681B68CA225A62FB681B6853225A625F
:102CD000F86800F099F80346FB74FB7C002B0CD1DC
:102CE000FB681A687B6923F07F4323F0C0035360BD
:102CF000F86800F0BDF80346FB74FB681B68FF2210
:102D00005A62FB7C002B03D1FB68012283F821204F
:102D1000FB68002283F82020FB7C18461C37BD4648
:102D200090BD80B586B000AFF860B9607A60FB688E
:102D30001B685B6823F07F4323F0C0037B617B69E2
:102D40001B0CDAB2BB68DA707B691B0ADBB203F0DA
:102D50001F03DAB2BB685A707B69DBB203F03F0332
:102D6000DAB2BB689A707B695B0BDBB203F00703D6
:102D7000DAB2BB681A707B68002B1AD1BB68DB78AB
:102D8000184600F0D2F803461A46BB68DA70BB68F2
:102D90005B78184600F0C9F803461A46BB685A70BB
:102DA000BB689B78184600F0C0F803461A46BB681B
:102DB0009A70002318461837BD4680BD80B584B090
:102DC00000AF78607B681B68DA687B681B6822F05C
:102DD000A002DA60FDF784FEF86009E0FDF780FEEE
:102DE0000246FB68D31AB3F57A7F01D9032307E0C3
:102DF0007B681B68DB6803F02003002BEED0002308
:102E000018461037BD4680BD80B584B000AF7860ED
:102E10000023FB737B681B68DB6803F04003002B17
:102E200020D17B681B684FF0FF32DA60FDF758FE57
:102E3000B8600DE0FDF754FE0246BB68D31AB3F547
:102E40007A7F05D90323FB737B68032283F8212053
:102E50007B681B68DB6803F04003002B02D1FB7B1F
:102E6000032BE7D1FB7B18461037BD4680BD000021
:102E700080B584B000AF78600023FB731A4BDB6829
:102E8000194A23F08003D360174B9B6803F020039B
:102E9000002B0CD17868FFF791FF0346002B1ED062
:102EA0007B68032283F821200323FB7317E00E4B7A
:102EB0009B680D4A23F0200393607868FFF77EFF3C
:102EC0000346002B05D07B68032283F821200323CF
:102ED000FB73054B9B68044A43F020039360FB7B24
:102EE00018461037BD4680BD0028004080B485B02C
:102EF00000AF0346FB710023FB60FB79FB7205E02A
:102F0000FB680133FB60FB7A0A3BFB72FB7A092BFF
:102F1000F6D8FB68DBB21B01DAB2FB7A1343DBB2F3
:102F200018461437BD4680BC704780B485B000AFEA
:102F30000346FB71FB791B09DBB21A46920013446E
:102F40005B00FB73FB7903F00F03DAB2FB7B1344E6
:102F5000DBB218461437BD4680BC704780B582B0DE
:102F600000AF78607B68002B01D1012342E07B68D1
:102F7000D3F88030002B06D17B68002283F87C20B8
:102F80007868FDF769FC7B682422C3F880207B68A1
:102F90001B681A687B681B6822F001021A60786857
:102FA00000F0C4F80346012B01D1012322E07B6825
:102FB0009B6A002B02D0786801F060FA7B681B687E
:102FC0005A687B681B6822F490425A607B681B68D1
:102FD0009A687B681B6822F02A029A607B681B68EB
:102FE0001A687B681B6842F001021A60786801F079
:102FF000E6FA034618460837BD4680BD80B58AB05C
:1030000002AFF860B9603B601346FB80FB68D3F801
:103010008030202B40F08480BB68002B02D0FB88DE
:10302000002B01D101237CE0FB6893F87C30012B5D
:1030300001D1022375E0FB68012283F87C20FB6844
:103040000022C3F88820FB682122C3F88020FDF706
:1030500047FD7861FB68FA88A3F85420FB68FA887A
:10306000A3F85620FB689B68B3F5805F08D1FB6826
:103070001B69002B04D10023FB61BB68BB6103E02B
:10308000BB68FB610023BB612DE03B6800937B695B
:1030900000228021F86801F0DAFA0346002B01D003
:1030A00003233EE0FB69002B0BD1BB691A88FB6848
:1030B0001B68C2F3080292B21A85BB690233BB6176
:1030C00008E0FB691A78FB681B6892B21A85FB69F5
:1030D0000133FB61FB68B3F856309BB2013B9AB2F7
:1030E000FB68A3F85620FB68B3F856309BB2002B60
:1030F000CBD13B6800937B6900224021F86801F046
:10310000A6FA0346002B01D003230AE0FB68202225
:10311000C3F88020FB68002283F87C20002300E0B5
:10312000022318462037BD4680BD00002DE9B04F70
:103130008AB000AFF8600023FB610023FB76002318
:103140007B61FB689A68FB681B691A43FB685B69D3
:103150001A43FB68DB6913437B62FB685B6E7A6A28
:1031600013437B62FB681B681A68AA4B1340FA681A
:103170001268796A0B431360FB681B685B6823F471
:103180004051FB68DA68FB681B680A435A60FB68B9
:103190009B697B62FB681B689F4A934204D0FB6873
:1031A0001B6A7A6A13437B62FB681B689B6823F087
:1031B0006E4323F43063FA681268796A0B439360B4
:1031C000FB681B68DB6A23F00F01FB685A6AFB6827
:1031D0001B680A43DA62FB681B68904A934225D158
:1031E0008F4BD3F8883003F00303032B1AD801A2C6
:1031F00052F823F005320008153200080D3200089D
:103200001D320008012387F8233016E1022387F8D6
:10321000233012E1042387F823300EE1082387F8D6
:1032200023300AE1102387F8233006E1FB681B688E
:103230007C4A934238D17A4BD3F8883003F00C03A0
:103240000C2B2DD801A252F823F000BF81320008C8
:10325000A1320008A1320008A13200089132000812
:10326000A1320008A1320008A1320008893200080A
:10327000A1320008A1320008A132000899320008EA
:10328000002387F82330D8E0022387F82330D4E0E6
:10329000042387F82330D0E0082387F82330CCE0DC
:1032A000102387F82330C8E0FB681B685E4A93420E
:1032B00025D15B4BD3F8883003F03003302B16D088
:1032C000302B18D8202B0AD0202B14D8002B02D05A
:1032D000102B08D00FE0002387F82330ADE0022345
:1032E00087F82330A9E0042387F82330A5E00823DA
:1032F00087F82330A1E0102387F823309DE0FB6896
:103300001B684A4A934225D1454BD3F8883003F0D5
:10331000C003C02B16D0C02B18D8802B0AD0802B0E
:1033200014D8002B02D0402B08D00FE0002387F8E0
:10333000233082E0022387F823307EE0042387F8DD
:1033400023307AE0082387F8233076E0102387F8CB
:10335000233072E0FB681B68354A93422AD1304B18
:10336000D3F8883003F44073B3F5407F1AD0B3F537
:10337000407F1BD8B3F5007F0CD0B3F5007F15D884
:10338000002B03D0B3F5807F08D00FE0002387F82F
:10339000233052E0022387F823304EE0042387F8DD
:1033A00023304AE0082387F8233046E0102387F8CB
:1033B000233042E0FB681B68174A93423AD1184B0E
:1033C000D3F8883003F44063B3F5406F1AD0B3F5F7
:1033D000406F1BD8B3F5006F0CD0B3F5006F15D854
:1033E000002B03D0B3F5806F08D00FE0002387F8DF
:1033F000233022E0022387F823301EE0042387F8DD
:1034000023301AE0082387F8233016E0102387F8CA
:10341000233012E0F369FFCF008000400038014004
:10342000001002400044004000480040004C0040B2
:1034300000500040102387F82330FB681B68884A3F
:10344000934240F0158497F82330082B00F25C81FA
:1034500001A252F823F000BF7D34000809370008AC
:103460001F35000809370008BD3500080937000876
:10347000093700080937000869360008FEF750FCD4
:103480000246FB685B6A002B44D0FB685B6A012B39
:103490003ED0FB685B6A022B38D0FB685B6A032B6B
:1034A00032D0FB685B6A042B2CD0FB685B6A052B6F
:1034B00026D0FB685B6A062B20D0FB685B6A072B73
:1034C0001AD0FB685B6A082B14D0FB685B6A092B77
:1034D0000ED0FB685B6A0A2B08D0FB685B6A0B2B7B
:1034E00002D14FF4807316E0012314E0802312E030
:1034F000402310E020230EE010230CE00C230AE010
:103500000A2308E0082306E0062304E0042302E07F
:10351000022300E00123B2FBF3F37B61F7E0FB68D9
:103520005B6A002B44D0FB685B6A012B3ED0FB68D2
:103530005B6A022B38D0FB685B6A032B32D0FB68D6
:103540005B6A042B2CD0FB685B6A052B26D0FB68DA
:103550005B6A062B20D0FB685B6A072B1AD0FB68DE
:103560005B6A082B14D0FB685B6A092B0ED0FB68E2
:103570005B6A0A2B08D0FB685B6A0B2B02D14FF405
:10358000807316E0012314E0802312E0402310E052
:1035900020230EE010230CE00C230AE00A2308E0AD
:1035A000082306E0062304E0042302E0022300E0EF
:1035B00001232C4AB2FBF3F37B61A8E0FEF71CFB6E
:1035C0000246FB685B6A002B44D0FB685B6A012BF8
:1035D0003ED0FB685B6A022B38D0FB685B6A032B2A
:1035E00032D0FB685B6A042B2CD0FB685B6A052B2E
:1035F00026D0FB685B6A062B20D0FB685B6A072B32
:103600001AD0FB685B6A082B14D0FB685B6A092B35
:103610000ED0FB685B6A0A2B08D0FB685B6A0B2B39
:1036200002D14FF4807316E0012314E0802312E0EE
:10363000402310E020230EE010230CE00C230AE0CE
:103640000A2308E0082306E0062304E0042302E03E
:10365000022300E00123B2FBF3F37B6157E000BFDC
:10366000008000400024F400FB685B6A002B44D01B
:10367000FB685B6A012B3ED0FB685B6A022B38D08B
:10368000FB685B6A032B32D0FB685B6A042B2CD08F
:10369000FB685B6A052B26D0FB685B6A062B20D093
:1036A000FB685B6A072B1AD0FB685B6A082B14D097
:1036B000FB685B6A092B0ED0FB685B6A0A2B08D09B
:1036C000FB685B6A0B2B02D14FF4807316E0012379
:1036D00014E0802312E0402310E020230EE01023AA
:1036E0000CE00C230AE00A2308E0082306E0062386
:1036F00004E0042302E0022300E001234FF400422F
:10370000B2FBF3F37B6102E00123FB7600BF7B6930
:10371000002B00F09D86FB685A6813465B0013443B
:103720007A699A4205D3FB685B681B037A699A42FF
:1037300003D90123FB7600F08BBE97F82330082BCA
:1037400000F2808201A252F823F000BF7137000816
:10375000453C0008A9380008453C0008DB39000852
:10376000453C0008453C0008453C0008133B000868
:10377000FEF7D6FA034618464FF00001FB685B6A75
:10378000002B67D0FB685B6A012B5ED0FB685B6A2D
:10379000022B55D0FB685B6A032B4CD0FB685B6A3D
:1037A000042B43D0FB685B6A052B3AD0FB685B6A4D
:1037B000062B31D0FB685B6A072B28D0FB685B6A5D
:1037C000082B1FD0FB685B6A092B16D0FB685B6A6D
:1037D0000A2B0DD0FB685B6A0B2B04D14FF480726F
:1037E0004FF000033AE04FF001024FF0000335E0E4
:1037F0004FF080024FF0000330E04FF040024FF0F6
:1038000000032BE04FF020024FF0000326E04FF0C2
:1038100010024FF0000321E04FF00C024FF00003C4
:103820001CE04FF00A024FF0000317E04FF00802CF
:103830004FF0000312E04FF006024FF000030DE0DE
:103840004FF004024FF0000308E04FF002024FF087
:10385000000303E04FF001024FF00003FCF7B0FC5F
:1038600002460B46104619464FF000024FF0000387
:103870000B0243EA10630202F968496849080846E6
:103880004FF0000114183C604B417B60FB685B68A3
:103890001A464FF00003D7E90001FCF791FC0246FD
:1038A0000B461346FB61D0E1FB685B6A002B67D0D7
:1038B000FB685B6A012B5ED0FB685B6A022B55D00C
:1038C000FB685B6A032B4CD0FB685B6A042B43D01C
:1038D000FB685B6A052B3AD0FB685B6A062B31D02C
:1038E000FB685B6A072B28D0FB685B6A082B1FD03C
:1038F000FB685B6A092B16D0FB685B6A0A2B0DD04C
:10390000FB685B6A0B2B04D14FF480724FF000030D
:103910003AE04FF001024FF0000335E04FF0800233
:103920004FF0000330E04FF040024FF000032BE077
:103930004FF020024FF0000326E04FF010024FF04E
:10394000000321E04FF00C024FF000031CE04FF0A9
:103950000A024FF0000317E04FF008024FF0000397
:1039600012E04FF006024FF000030DE04FF00402AA
:103970004FF0000308E04FF002024FF0000303E0B5
:103980004FF001024FF00003B8484FF00001FCF780
:1039900017FC02460B46104619464FF000024FF046
:1039A00000030B0243EA10630202F9684968490800
:1039B00008464FF0000112EB000A43EB010BFB68D5
:1039C0005B681A464FF0000350465946FCF7F8FB77
:1039D00002460B461346FB6137E1FEF70DF903463D
:1039E00018464FF00001FB685B6A002B67D0FB684C
:1039F0005B6A012B5ED0FB685B6A022B55D0FB68CB
:103A00005B6A032B4CD0FB685B6A042B43D0FB68DA
:103A10005B6A052B3AD0FB685B6A062B31D0FB68EA
:103A20005B6A072B28D0FB685B6A082B1FD0FB68FA
:103A30005B6A092B16D0FB685B6A0A2B0DD0FB680A
:103A40005B6A0B2B04D14FF480724FF000033AE015
:103A50004FF001024FF0000335E04FF080024FF0CD
:103A6000000330E04FF040024FF000032BE04FF036
:103A700020024FF0000326E04FF010024FF0000349
:103A800021E04FF00C024FF000031CE04FF00A025F
:103A90004FF0000317E04FF008024FF0000312E070
:103AA0004FF006024FF000030DE04FF004024FF01C
:103AB000000308E04FF002024FF0000303E04FF074
:103AC00001024FF00003FCF77BFB02460B46104659
:103AD00019464FF000024FF000030B0243EA106357
:103AE0000202F9684968490808464FF0000112EBE4
:103AF000000843EB0109FB685B681A464FF00003BE
:103B000040464946FCF75CFB02460B461346FB6108
:103B10009BE0FB685B6A002B67D0FB685B6A012B4C
:103B20005ED0FB685B6A022B55D0FB685B6A032B97
:103B30004CD0FB685B6A042B43D0FB685B6A052BA7
:103B40003AD0FB685B6A062B31D0FB685B6A072BB7
:103B500028D0FB685B6A082B1FD0FB685B6A092BC7
:103B600016D0FB685B6A0A2B0DD0FB685B6A0B2BD7
:103B700004D14FF480724FF000033AE04FF001029D
:103B80004FF0000335E04FF080024FF0000330E0CB
:103B90004FF040024FF000032BE04FF020024FF0B7
:103BA000000326E04FF010024FF0000321E04FF039
:103BB0000C024FF000031CE04FF00A024FF000032C
:103BC00017E04FF008024FF0000312E04FF006023A
:103BD0004FF000030DE04FF004024FF0000308E047
:103BE0004FF002024FF0000303E04FF001024FF0EC
:103BF00000034FF400404FF00001FCF7E1FA0246E9
:103C00000B46104619464FF000024FF000030B021E
:103C100043EA10630202F9684968490808464FF010
:103C20000001141843EB0105FB685B681A464FF06E
:103C3000000320462946FCF7C3FA02460B4613460A
:103C4000FB6102E00123FB7600BFFB69B3F5407F17
:103C500008D3FB69B3F5801F04D2FB681B68FA69BF
:103C6000DA60F5E30123FB76F2E300BF0024F40001
:103C7000FB68DB69B3F5004F40F0FE8197F8233015
:103C8000082B00F2D98101A252F823F0B13C0008C0
:103C9000673D00081D3E000839400008CF3E00087F
:103CA000394000083940000839400008853F0008C5
:103CB000FEF736F80246FB685B6A002B44D0FB68CF
:103CC0005B6A012B3ED0FB685B6A022B38D0FB6835
:103CD0005B6A032B32D0FB685B6A042B2CD0FB6839
:103CE0005B6A052B26D0FB685B6A062B20D0FB683D
:103CF0005B6A072B1AD0FB685B6A082B14D0FB6841
:103D00005B6A092B0ED0FB685B6A0A2B08D0FB6844
:103D10005B6A0B2B02D14FF4807316E0012314E091
:103D2000802312E0402310E020230EE010230CE05B
:103D30000C230AE00A2308E0082306E0062304E037
:103D4000042302E0022300E00123B2FBF3F35A0054
:103D5000FB685B685B081A44FB685B68B2FBF3F3C3
:103D60009BB2FB616BE1FDF7F1FF0246FB685B6A0A
:103D7000002B44D0FB685B6A012B3ED0FB685B6A7A
:103D8000022B38D0FB685B6A032B32D0FB685B6A7E
:103D9000042B2CD0FB685B6A052B26D0FB685B6A82
:103DA000062B20D0FB685B6A072B1AD0FB685B6A86
:103DB000082B14D0FB685B6A092B0ED0FB685B6A8A
:103DC0000A2B08D0FB685B6A0B2B02D14FF480737F
:103DD00016E0012314E0802312E0402310E02023AA
:103DE0000EE010230CE00C230AE00A2308E008236D
:103DF00006E0062304E0042302E0022300E001239E
:103E0000B2FBF3F35A00FB685B685B081A44FB687B
:103E10005B68B2FBF3F39BB2FB6110E1FB685B6A8A
:103E2000002B44D0FB685B6A012B3ED0FB685B6AC9
:103E3000022B38D0FB685B6A032B32D0FB685B6ACD
:103E4000042B2CD0FB685B6A052B26D0FB685B6AD1
:103E5000062B20D0FB685B6A072B1AD0FB685B6AD5
:103E6000082B14D0FB685B6A092B0ED0FB685B6AD9
:103E70000A2B08D0FB685B6A0B2B02D14FF48073CE
:103E800016E0012314E0802312E0402310E02023F9
:103E90000EE010230CE00C230AE00A2308E00823BC
:103EA00006E0062304E0042302E0022300E00123ED
:103EB000A14AB2FBF3F35A00FB685B685B081A4443
:103EC000FB685B68B2FBF3F39BB2FB61B7E0FDF705
:103ED00093FE0246FB685B6A002B44D0FB685B6A7A
:103EE000012B3ED0FB685B6A022B38D0FB685B6A13
:103EF000032B32D0FB685B6A042B2CD0FB685B6A17
:103F0000052B26D0FB685B6A062B20D0FB685B6A1A
:103F1000072B1AD0FB685B6A082B14D0FB685B6A1E
:103F2000092B0ED0FB685B6A0A2B08D0FB685B6A22
:103F30000B2B02D14FF4807316E0012314E0802391
:103F400012E0402310E020230EE010230CE00C23AD
:103F50000AE00A2308E0082306E0062304E004231D
:103F600002E0022300E00123B2FBF3F35A00FB68F6
:103F70005B685B081A44FB685B68B2FBF3F39BB2B7
:103F8000FB615CE0FB685B6A002B44D0FB685B6A0A
:103F9000012B3ED0FB685B6A022B38D0FB685B6A62
:103FA000032B32D0FB685B6A042B2CD0FB685B6A66
:103FB000052B26D0FB685B6A062B20D0FB685B6A6A
:103FC000072B1AD0FB685B6A082B14D0FB685B6A6E
:103FD000092B0ED0FB685B6A0A2B08D0FB685B6A72
:103FE0000B2B02D14FF4807316E0012314E08023E1
:103FF00012E0402310E020230EE010230CE00C23FD
:104000000AE00A2308E0082306E0062304E004236C
:1040100002E0022300E001234FF40042B2FBF3F37D
:104020005A00FB685B685B081A44FB685B68B2FB7C
:10403000F3F39BB2FB6102E00123FB7600BFFB6957
:104040000F2B16D9FB69B3F5803F12D2FB699BB2E7
:1040500023F00F037B82FB695B089BB203F007032D
:104060009AB27B8A13437B82FB681B687A8ADA6088
:10407000EEE10123FB76EBE197F82330082B00F209
:10408000D68101A252F823F0AD4000086541000836
:10409000194200082F440008C94200082F440008B4
:1040A0002F4400082F4400087D430008FDF738FE28
:1040B0000246FB685B6A002B46D0FB685B6A012BFB
:1040C00040D0FB685B6A022B3AD0FB685B6A032B2B
:1040D00034D0FB685B6A042B2CD0FB685B6A052B31
:1040E00026D0FB685B6A062B20D0FB685B6A072B37
:1040F0001AD0FB685B6A082B14D0FB685B6A092B3B
:104100000ED0FB685B6A0A2B08D0FB685B6A0B2B3E
:1041100002D14FF4807318E0012316E0802314E0ED
:10412000402312E0202310E010230EE00C230CE0CB
:104130000A230AE0082308E00024F400062304E030
:10414000042302E0022300E00123B2FBF3F2FB6848
:104150005B685B081A44FB685B68B2FBF3F39BB2D5
:10416000FB6167E1FDF7F2FD0246FB685B6A002B2D
:1041700044D0FB685B6A012B3ED0FB685B6A022B74
:1041800038D0FB685B6A032B32D0FB685B6A042B78
:104190002CD0FB685B6A052B26D0FB685B6A062B7C
:1041A00020D0FB685B6A072B1AD0FB685B6A082B80
:1041B00014D0FB685B6A092B0ED0FB685B6A0A2B84
:1041C00008D0FB685B6A0B2B02D14FF4807316E0BA
:1041D000012314E0802312E0402310E020230EE0AE
:1041E00010230CE00C230AE00A2308E0082306E071
:1041F000062304E0042302E0022300E00123B2FBD3
:10420000F3F2FB685B685B081A44FB685B68B2FB0F
:10421000F3F39BB2FB610DE1FB685B6A002B44D0BA
:10422000FB685B6A012B3ED0FB685B6A022B38D0CF
:10423000FB685B6A032B32D0FB685B6A042B2CD0D3
:10424000FB685B6A052B26D0FB685B6A062B20D0D7
:10425000FB685B6A072B1AD0FB685B6A082B14D0DB
:10426000FB685B6A092B0ED0FB685B6A0A2B08D0DF
:10427000FB685B6A0B2B02D14FF4807316E00123BD
:1042800014E0802312E0402310E020230EE01023EE
:104290000CE00C230AE00A2308E0082306E00623CA
:1042A00004E0042302E0022300E00123724AB2FB8F
:1042B000F3F2FB685B685B081A44FB685B68B2FB5F
:1042C000F3F39BB2FB61B5E0FDF796FC0246FB6899
:1042D0005B6A002B44D0FB685B6A012B3ED0FB6815
:1042E0005B6A022B38D0FB685B6A032B32D0FB6819
:1042F0005B6A042B2CD0FB685B6A052B26D0FB681D
:104300005B6A062B20D0FB685B6A072B1AD0FB6820
:104310005B6A082B14D0FB685B6A092B0ED0FB6824
:104320005B6A0A2B08D0FB685B6A0B2B02D14FF447
:10433000807316E0012314E0802312E0402310E094
:1043400020230EE010230CE00C230AE00A2308E0EF
:10435000082306E0062304E0042302E0022300E031
:104360000123B2FBF3F2FB685B685B081A44FB684D
:104370005B68B2FBF3F39BB2FB615BE0FB685B6ADB
:10438000002B44D0FB685B6A012B3ED0FB685B6A64
:10439000022B38D0FB685B6A032B32D0FB685B6A68
:1043A000042B2CD0FB685B6A052B26D0FB685B6A6C
:1043B000062B20D0FB685B6A072B1AD0FB685B6A70
:1043C000082B14D0FB685B6A092B0ED0FB685B6A74
:1043D0000A2B08D0FB685B6A0B2B02D14FF4807369
:1043E00016E0012314E0802312E0402310E0202394
:1043F0000EE010230CE00C230AE00A2308E0082357
:1044000006E0062304E0042302E0022300E0012387
:104410004FF40042B2FBF3F2FB685B685B081A449E
:10442000FB685B68B2FBF3F39BB2FB6102E0012324
:10443000FB7600BFFB690F2B08D9FB69B3F5803F02
:1044400004D2FB681B68FA69DA6001E00123FB769D
:10445000FB680122A3F86A20FB680122A3F8682008
:10446000FB680022DA66FB6800221A67FB7E1846AA
:104470002837BD46BDE8B08F0024F40080B483B077
:1044800000AF78607B689B6A03F00103002B0AD0C1
:104490007B681B685B6823F400317B68DA6A7B68A1
:1044A0001B680A435A607B689B6A03F00203002B77
:1044B0000AD07B681B685B6823F480317B681A6BC9
:1044C0007B681B680A435A607B689B6A03F004039D
:1044D000002B0AD07B681B685B6823F480217B6813
:1044E0005A6B7B681B680A435A607B689B6A03F0BF
:1044F0000803002B0AD07B681B685B6823F400412B
:104500007B689A6B7B681B680A435A607B689B6A6E
:1045100003F01003002B0AD07B681B689B6823F410
:1045200080517B68DA6B7B681B680A439A607B6802
:104530009B6A03F02003002B0AD07B681B689B68F2
:1045400023F400517B681A6C7B681B680A439A60ED
:104550007B689B6A03F04003002B1AD07B681B68C2
:104560005B6823F480117B685A6C7B681B680A4384
:104570005A607B685B6CB3F5801F0AD17B681B684F
:104580005B6823F4C0017B689A6C7B681B680A43F4
:104590005A607B689B6A03F08003002B0AD07B681B
:1045A0001B685B6823F400217B68DA6C7B681B68FE
:1045B0000A435A6000BF0C37BD4680BC704780B5C7
:1045C00086B002AF78607B680022C3F88820FCF7D1
:1045D00087FAF8607B681B681B6803F00803082BE8
:1045E0000ED16FF07E430093FB6800224FF4001160
:1045F000786800F02CF80346002B01D0032322E05A
:104600007B681B681B6803F00403042B0ED16FF05A
:104610007E430093FB6800224FF48001786800F02D
:1046200016F80346002B01D003230CE07B68202200
:10463000C3F880207B682022C3F884207B68002296
:1046400083F87C20002318461037BD4680BD80B516
:1046500084B000AFF860B9603B601346FB712CE09A
:10466000BB69B3F1FF3F28D0FCF73AFA02463B683A
:10467000D31ABA699A4202D3BB69002B1DD1FB68D9
:104680001B681A68FB681B6822F4D0721A60FB680A
:104690001B689A68FB681B6822F001029A60FB683D
:1046A0002022C3F88020FB682022C3F88420FB6806
:1046B000002283F87C2003230FE0FB681B68DA6983
:1046C000BB681340BA689A420CBF01230023DBB2D7
:1046D0001A46FB799A42C3D0002318461037BD46CC
:1046E00080BD00002DE9F047089E0D4604468E4629
:1046F000002B40F082808A42174646D9B2FA82F2F5
:104700004AB1C2F1200105FA02F320FA01F1974003
:1047100041EA030E94404FEA1748230CBEFBF8FC15
:10472000B9B208FB1CEE43EA0E430CFB01F09842C1
:104730000AD9FB180CF1FF3580F01681984240F23F
:104740001381ACF1020C3B441B1AA4B2B3FBF8F08A
:1047500008FB103344EA034400FB01F1A14209D9EC
:104760003C1900F1FF3380F00181A14240F2FE804C
:1047700002383C44641A40EA0C4000211EB1D44087
:104780000023C6E90043BDE8F08702B9FFDEB2FAB4
:1047900082F2002A4FD1CB1B4FEA174E1FFA87F83F
:1047A0000121B3FBFEFC250C0EFB1C3345EA03453F
:1047B00008FB0CF3AB4207D97D190CF1FF3002D294
:1047C000AB4200F2E7808446ED1AA3B2B5FBFEF0DF
:1047D0000EFB105543EA054408FB00F8A04507D935
:1047E0003C1900F1FF3302D2A04500F2D7801846F1
:1047F000A4EB080440EA0C40C0E78B4208D9002E25
:1048000000F0AF800021C6E900050846BDE8F0874A
:10481000B3FA83F100294BD1AB4202D3824200F2BA
:10482000B780841A65EB030301209E46002EAAD0B0
:10483000C6E9004EA7E7C2F1200C01FA02F3974047
:1048400020FA0CF04FEA174E21FA0CFC1843BCFB7F
:10485000FEF1050C0EFB11CC1FFA87F845EA0C455A
:1048600001FB08F3AB4204FA02F409D97D1901F106
:10487000FF3C80F08B80AB4240F2888002393D449F
:10488000EB1A85B2B3FBFEF00EFB103345EA03458D
:1048900000FB08F3AB4207D97D1900F1FF3C71D250
:1048A000AB426FD902383D44EB1A40EA014178E748
:1048B000C1F1200C8B4022FA0CF71F4320FA0CF4B4
:1048C00005FA01F34FEA174E25FA0CF51C43230CA9
:1048D000B5FBFEF91FFA87F80EFB195543EA0545AB
:1048E00009FB08FAAA4502FA01F200FA01F308D915
:1048F0007D1909F1FF3047D2AA4545D9A9F102092E
:104900003D44A5EB0A05A4B2B5FBFEF00EFB105525
:1049100044EA054400FB08F8A04507D93C1900F11A
:10492000FF352DD2A0452BD902383C4440EA09403E
:10493000A4EB0804A0FB02894C45C6464D4619D39A
:1049400016D05EB1B3EB0E0264EB050404FA0CFC66
:10495000CA404CEA0202CC40C6E900240021BDE86E
:10496000F087314630460EE7AC46EDE6184601E7E3
:104970004345E6D2B8EB020E69EB07050138E0E7E4
:104980002846D3E760468FE78146BAE7614677E776
:1049900008464BE7ACF1020C3D4415E702383C44B5
:1049A00026E700BF014B1868704700BF0C000020CD
:1049B00070B50D4D0D4C641BA4100026A64209D104
:1049C0000B4D0C4C00F04CFC641BA4100026A642BE
:1049D00005D170BD55F8043B98470136EEE755F810
:1049E000043B98470136F2E7705300087053000803
:1049F000705300087453000802440346934200D1E8
:104A0000704703F8011BF9E70EB400B59CB01DAB6D
:104A1000029006906FF000410948079104910949FE
:104A200053F8042B05910068019302A900F068F87F
:104A3000029B00221A701CB05DF804EB03B07047B3
:104A40000C0000200802FFFF2DE9F0478E689E420F
:104A500082460C4690461F4638D88A8912F4906FD9
:104A600032D025680969A5EB0109656905EB4505A3
:104A700005EBD57501334B446D109D4238BF1D4683
:104A8000530531D5294600F045FB064650B90C23A5
:104A9000CAF80030A38943F04003A3814FF0FF30F0
:104AA000BDE8F08721694A4600F0BEFAA38923F4E5
:104AB000906343F08003A381266165614E44A5EBBA
:104AC00009052660A5603E46BE4200D93E463246F4
:104AD0002068414600F0B6FAA36822689B1B324466
:104AE000A36022600020DBE72A4600F06DFB06464B
:104AF0000028E1D12169504600F0BEFAC7E7000066
:104B00002DE9F04F98468B891B069DB007460D4650
:104B100014460ED50B6963B9402100F0FBFA2860FA
:104B2000286120B90C233B604FF0FF30D1E04023D7
:104B30006B610023099320238DF82930CDF80C8078
:104B40003023DFF8A8818DF82A304FF00109234681
:104B50009A4613F8012B0AB1252AF9D1BAEB040BB6
:104B60000BD05B46224629463846FFF76DFF0130E1
:104B700000F0AA80099A5A4409929AF80030002B52
:104B800000F0A28000234FF0FF32CDE905230AF1A7
:104B9000010A049307938DF853301A935446052263
:104BA00014F8011B5148FBF733FB049AD8B9D0061F
:104BB00044BF20238DF85330110744BF2B238DF8B9
:104BC00053309AF800302A2B15D0079A544600200B
:104BD0004FF00A0C214611F8013B303B092B4ED90E
:104BE000B0B1079214E0A0EB080309FA03F31343F2
:104BF0000493A246D2E7039B191D1B680391002B67
:104C0000BBBF5B4242F0020207930793B8BF049216
:104C100023782E2B0CD163782A2B35D1039B1A1DB8
:104C20001B680392002BB8BF4FF0FF33023405938B
:104C3000DFF8C8A0217803225046FBF7E9FA40B11B
:104C40004023A0EB0A0003FA00F0049B0343013465
:104C5000049314F8011B26488DF828100622FBF750
:104C6000D7FA002838D0234B1BBB039B073323F014
:104C7000070308330393099B3344099367E70CFB4D
:104C800002320C460120A5E70023013405931946A2
:104C90004FF00A0C204610F8012B303A092A03D9AC
:104CA000002BC5D00591C3E70CFB0121044601236D
:104CB000F0E703AB00932A460F4B04A93846AFF345
:104CC0000080421C0646D6D1AB895B063FF52CAF6F
:104CD00009981DB0BDE8F08F03AB00932A46064B40
:104CE00004A9384600F07AF8EBE700BF3453000817
:104CF0003E53000800000000494A00083A530008EB
:104D00002DE9F047164699468A680B69DDF8208040
:104D10009342B8BF1346336091F8432007460C46D0
:104D20000AB1013333602368990642BF3368023306
:104D30003360256815F0060506D104F1190AE36809
:104D400032689B1AAB4226DC94F84320131E22687B
:104D500018BF012392062BD404F14302494638467A
:104D6000C04701301ED02368E568326803F00603AF
:104D7000042B08BFAD1AA36822690CBF25EAE575AC
:104D800000259342C4BF9B1AED1800261A34B54281
:104D90001AD1002008E00123524649463846C04750
:104DA000013003D14FF0FF30BDE8F0870135C6E791
:104DB000E1185A1C302081F84300224494F8451031
:104DC00082F843100233C7E701232246494638469A
:104DD000C0470130E6D00136D9E700002DE9FF4792
:104DE0000C469146277E0C99782F80469A4604F10E
:104DF000430207D8622F0AD8002F00F0D880582F1E
:104E000000F0A38004F1420684F842703AE0A7F172
:104E10006303152BF6D801A050F823F0754E000857
:104E2000894E0008054E0008054E0008054E000892
:104E3000054E0008894E0008054E0008054E000882
:104E4000054E0008054E0008954F0008B94E0008B1
:104E5000774F0008054E0008054E0008B74F0008C0
:104E6000054E0008B94E0008054E0008054E000822
:104E70007F4F00080B681A1D1B680A6004F1420688
:104E800084F842300123A3E0256808682E0600F16B
:104E900004030AD505680B60002D03DA2D236D424B
:104EA00084F843305E480A2319E015F0400F056886
:104EB0000B6018BF2DB2EFE70B682568181D08605E
:104EC000280601D51D6802E06906FBD51D885448F7
:104ED0006F2F0CBF08230A23002184F84310666853
:104EE000A660002EA2BF216821F0040121600DB947
:104EF000002E4DD01646B5FBF3F103FB1157C75DED
:104F000006F8017D2F46BB420D46F4D9082B0BD184
:104F10002368DF0708D5236961689942DEBF302323
:104F200006F8013C06F1FF36921B2261CDF800A085
:104F30004B4603AA21464046FFF7E2FE01304CD122
:104F40004FF0FF3004B0BDE8F087354884F8457075
:104F500023680E681F0656F8045B0E6014D5D90747
:104F600044BF43F0200323601DB9236823F02003CE
:104F700023601023B0E7236843F0200323607823E5
:104F8000284884F84530E3E75E0648BFADB2E6E75F
:104F90001646BBE70B68266860691D1D0D60350667
:104FA0001B6801D5186002E07106FBD5188000234C
:104FB00023611646BAE70B681A1D0A601E6862680C
:104FC00000213046FBF724F908B1801B606063685C
:104FD0002361002384F84330A8E723693246494619
:104FE0004046D0470130ABD023689B0713D4E0681C
:104FF000039B9842B8BF1846A4E7012332464946AE
:105000004046D04701309BD00135E36803995B1AD5
:10501000AB42F2DCEBE7002504F11906F5E700BF2F
:1050200045530008565300080A44914200F1FF33EB
:1050300000D1704710B511F8014B03F8014F9142B0
:10504000F9D110BD884210B501EB020402D98442A7
:10505000234607D8431EA14208D011F8012B03F8BC
:10506000012FF8E7024401468A4200D110BD13F82F
:10507000014D02F8014DF7E738B50546002945D046
:1050800051F8043C0C1F002BB8BFE41800F0D2F814
:105090001F4A1368104633B9636014602846BDE8A0
:1050A000384000F0CDB8A3420BD921686218934272
:1050B00004BF1A685B68636004BF52182260046012
:1050C000ECE71A465B680BB1A342FAD91168501895
:1050D000A0420BD120680144501883421160DDD1F9
:1050E00018685B68536001441160D7E702D90C234C
:1050F0002B60D3E7206821188B4204BF19685B68D6
:10510000636004BF091821605460C7E738BD00BF61
:10511000A4010020F8B5CD1C25F0030508350C2DA1
:1051200038BF0C25002D064601DBA94203D90C230C
:1051300033600020F8BD00F07DF821490A6814466C
:105140009CB9204F3B6823B92146304600F062F8F5
:1051500038602946304600F05DF8431C23D10C230B
:105160003360304600F06CF8E3E723685B1B17D42C
:105170000B2B03D923601C44256004E06368A24222
:105180000CBF0B605360304600F05AF804F10B007E
:10519000231D20F00700C21ACCD01B1AA350C9E768
:1051A00022466468CCE7C41C24F00304A042E3D088
:1051B000211A304600F02EF80130DDD1CFE700BFD4
:1051C000A4010020A8010020F8B5074614460E46A9
:1051D00021B9BDE8F8401146FFF79CBF22B9FFF79F
:1051E0004BFF25462846F8BD00F030F8A0420FD20C
:1051F00021463846FFF78EFF05460028F2D031469B
:105200002246FFF711FF31463846FFF735FFE9E741
:105210003546E7E738B5064D0023044608462B60BF
:10522000FBF7A2FB431C02D12B6803B1236038BDFE
:10523000B0010020014800F011B800BFB801002003
:10524000014800F00CB800BFB801002051F8043C40
:10525000181F002BBCBF0B58C01870477047704711
:10526000F8B500BFF8BC08BC9E467047F8B500BF53
:08527000F8BC08BC9E46704723
:1052780045786974205374616E646279206D6F6437
:10528800652062792068697474696E672052535486
:1052980020627574746F6E200D0A0000456E746587
:1052A80072205374616E646279206D6F6465200D9D
:1052B8000A00000054494D453A20253032642D2516
:1052C8003032642D25303264200D0A0044415445A3
:1052D8003A20253032642D253032642D2530326451
:1052E800200D0A0000000000000000000102030475
:1052F800060708090000000001020304A086010057
:10530800400D0300801A060000350C0040420F00D3
:1053180080841E0000093D0000127A000024F40079
:1053280000366E010048E801006CDC02232D302BAA
:105338002000686C4C00656667454647003031328E
:1053480033343536373839414243444546003031E5
:105358003233343536373839616263646566000044
:085368007CF3FF7F010000004F
:08537000D50200080000000056
:08537800B10200080000000072
:1053800000093D0010000000010000001000002096
:10539000000000000000000000000000000000000D
:1053A00000000000000000000000000000000000FD
:1053B00000000000000000000000000000000000ED
:1053C00000000000000000000000000000000000DD
:1053D00000000000000000000000000000000000CD
:1053E00000000000000000000000000000000000BD
:04000005080002F1FC
:00000001FF
