:020000040800F2
:1000000000000A20590C0008A90C0008A90C0008DF
:10001000A90C0008A90C0008A90C000800000000A9
:10002000000000000000000000000000A90C000813
:10003000A90C000800000000A90C0008AB0C000887
:10004000A90C0008A90C0008A90C0008A90C0008BC
:10005000A90C0008A90C0008A90C0008A90C0008AC
:10006000A90C0008A90C0008A90C0008A90C00089C
:10007000A90C0008A90C0008A90C0008A90C00088C
:10008000A90C0008A90C0008A90C0008A90C00087C
:10009000A90C0008A90C0008A90C0008A90C00086C
:1000A000A90C0008A90C0008A90C0008A90C00085C
:1000B000BD0C0008A90C0008A90C0008A90C000838
:1000C000A90C0008A90C0008A90C0008A90C00083C
:1000D000A90C0008A90C0008A90C0008A90C00082C
:1000E000A90C0008A90C0008A90C0008A90C00081C
:1000F000A90C0008A90C0008A90C000800000000C9
:10010000A90C0008A90C0008A90C0008A90C0008FB
:10011000A90C0008A90C0008A90C0008A90C0008EB
:10012000A90C0008A90C0008A90C0008A90C0008DB
:10013000A90C0008A90C0008A90C0008A90C0008CB
:10014000A90C0008A90C0008A90C0008A90C0008BB
:10015000A90C0008A90C0008A90C0008A90C0008AB
:10016000A90C0008A90C0008A90C0008A90C00089B
:10017000A90C0008A90C0008000000000000000005
:10018000A90C0008A90C0008A90C0008A90C00087B
:10019000A90C0008A90C00080000000000000000E5
:1001A0000000000000000000A90C0008A90C0008D5
:1001B000A90C0008A90C0008A90C00080000000008
:1001C00081F0004102E000BF83F0004330B54FEA08
:1001D00041044FEA430594EA050F08BF90EA020F75
:1001E0001FBF54EA000C55EA020C7FEA645C7FEA08
:1001F000655C00F0E2804FEA5454D4EB5555B8BF2B
:100200006D420CDD2C4480EA020281EA030382EA9B
:10021000000083EA010180EA020281EA0303362D2D
:1002200088BF30BD11F0004F4FEA01314FF4801C00
:100230004CEA113102D0404261EB410113F0004F12
:100240004FEA03334CEA133302D0524263EB4303C9
:1002500094EA050F00F0A780A4F10104D5F1200E67
:100260000DDB02FA0EFC22FA05F2801841F10001C2
:1002700003FA0EF2801843FA05F359410EE0A5F196
:1002800020050EF1200E012A03FA0EFC28BF4CF0C7
:10029000020C43FA05F3C01851EBE37101F000457D
:1002A00007D54FF0000EDCF1000C7EEB00006EEB8A
:1002B0000101B1F5801F1BD3B1F5001F0CD3490814
:1002C0005FEA30004FEA3C0C04F101044FEA44526B
:1002D00012F5800F80F09A80BCF1004F08BF5FEAF2
:1002E000500C50F1000041EB045141EA050130BDD2
:1002F0005FEA4C0C404141EB010111F4801FA4F175
:100300000104E9D191F0000F04BF01460020B1FAC9
:1003100081F308BF2033A3F10B03B3F120020CDA01
:100320000C3208DD02F1140CC2F10C0201FA0CF0DF
:1003300021FA02F10CE002F11402D8BFC2F1200C44
:1003400001FA02F120FA0CFCDCBF41EA0C019040FA
:10035000E41AA2BF01EB0451294330BD6FEA040443
:100360001F3C1CDA0C340EDC04F11404C4F120022E
:1003700020FA04F001FA02F340EA030021FA04F340
:1003800045EA030130BDC4F10C04C4F1200220FA97
:1003900002F001FA04F340EA0300294630BD21FAD5
:1003A00004F0294630BD94F0000F83F4801306BF9B
:1003B00081F480110134013D4EE77FEA645C18BF8F
:1003C0007FEA655C29D094EA050F08BF90EA020F26
:1003D00005D054EA000C04BF1946104630BD91EA1E
:1003E000030F1EBF0021002030BD5FEA545C05D121
:1003F0004000494128BF41F0004130BD14F5800460
:100400003CBF01F5801130BD01F0004545F0FE41D3
:1004100041F470014FF0000030BD7FEA645C1ABF08
:10042000194610467FEA655C1CBF0B46024650EA3F
:10043000013406BF52EA033591EA030F41F400216B
:1004400030BD00BF90F0000F04BF0021704730B5F1
:100450004FF4806404F132044FF000054FF00001C6
:1004600050E700BF90F0000F04BF0021704730B587
:100470004FF4806404F1320410F0004548BF40425C
:100480004FF000013EE700BF42004FEAE2014FEAB1
:1004900031014FEA02701FBF12F07F4393F07F4F8C
:1004A00081F06051704732F07F4208BF704793F08F
:1004B0007F4F04BF41F40021704730B54FF46074A2
:1004C00001F0004521F000411CE700BF50EA0102A5
:1004D00008BF704730B54FF000050AE050EA01024E
:1004E00008BF704730B511F0004502D5404261EBBE
:1004F00041014FF4806404F132045FEA915C3FF4FF
:10050000D8AE4FF003025FEADC0C18BF03325FEA9B
:10051000DC0C18BF033202EBDC02C2F1200300FA4C
:1005200003FC20FA02F001FA03FE40EA0E0021FA71
:1005300002F11444BDE600BF70B54FF0FF0C4CF45F
:10054000E06C1CEA11541DBF1CEA135594EA0C0F11
:1005500095EA0C0F00F0DEF82C4481EA030621EA4C
:100560004C5123EA4C5350EA013518BF52EA033587
:1005700041F4801143F4801338D0A0FB02CE4FF039
:100580000005E1FB02E506F00042E0FB03E54FF069
:100590000006E1FB03569CF0000F18BF4EF0010E61
:1005A000A4F1FF04B6F5007F64F5407404D25FEA5D
:1005B0004E0E6D4146EB060642EAC62141EA555110
:1005C0004FEAC52040EA5E504FEACE2EB4F1FD0C52
:1005D00088BFBCF5E06F1ED8BEF1004F08BF5FEAD0
:1005E000500E50F1000041EB045170BD06F0004682
:1005F00046EA010140EA020081EA0301B4EB5C042F
:10060000C2BFD4EB0C0541EA045170BD41F4801126
:100610004FF0000E013C00F3AB8014F1360FDEBF4B
:10062000002001F0004170BDC4F10004203C35DA27
:100630000C341BDC04F11404C4F1200500FA05F3AA
:1006400020FA04F001FA05F240EA020001F000424B
:1006500021F0004110EBD37021FA04F642EB0601C1
:100660005EEA430E08BF20EAD37070BDC4F10C04EB
:10067000C4F1200500FA04F320FA05F001FA04F2AF
:1006800040EA020001F0004110EBD37041F100019B
:100690005EEA430E08BF20EAD37070BDC4F12005A6
:1006A00000FA05F24EEA020E20FA04F301FA05F20E
:1006B00043EA020321FA04F001F0004121FA04F2B6
:1006C00020EA020000EBD3705EEA430E08BF20EA86
:1006D000D37070BD94F0000F0FD101F000464000C0
:1006E00041EB010111F4801F08BF013CF7D041EA42
:1006F000060195F0000F18BF704703F00046520046
:1007000043EB030313F4801F08BF013DF7D043EA16
:100710000603704794EA0C0F0CEA135518BF95EACC
:100720000C0F0CD050EA410618BF52EA4306D1D153
:1007300081EA030101F000414FF0000070BD50EA72
:10074000410606BF1046194652EA430619D094EAFC
:100750000C0F02D150EA013613D195EA0C0F05D1E6
:1007600052EA03361CBF104619460AD181EA03013A
:1007700001F0004141F0FE4141F470014FF00000F2
:1007800070BD41F0FE4141F4780170BD70B54FF08D
:10079000FF0C4CF4E06C1CEA11541DBF1CEA13550D
:1007A00094EA0C0F95EA0C0F00F0A7F8A4EB0504EF
:1007B00081EA030E52EA03354FEA013100F08880E6
:1007C0004FEA03334FF0805545EA131343EA1263AF
:1007D0004FEA022245EA111545EA10654FEA002664
:1007E0000EF000419D4208BF964244F1FD0404F51D
:1007F000407402D25B084FEA3202B61A65EB030579
:100800005B084FEA32024FF480104FF4002CB6EB35
:10081000020E75EB030E22BFB61A754640EA0C00B5
:100820005B084FEA3202B6EB020E75EB030E22BFF5
:10083000B61A754640EA5C005B084FEA3202B6EB36
:10084000020E75EB030E22BFB61A754640EA9C00F5
:100850005B084FEA3202B6EB020E75EB030E22BFC5
:10086000B61A754640EADC0055EA060E18D04FEA83
:10087000051545EA16754FEA06164FEAC30343EA23
:1008800052734FEAC2025FEA1C1CC0D111F4801FF0
:100890000BD141EA00014FF000004FF0004CB6E7E9
:1008A00011F4801F04BF01430020B4F1FD0C88BF88
:1008B000BCF5E06F3FF6AFAEB5EB030C04BFB6EB93
:1008C000020C5FEA500C50F1000041EB045170BD86
:1008D0000EF0004E4EEA113114EB5C04C2BFD4EBB3
:1008E0000C0541EA045170BD41F480114FF0000E37
:1008F000013C90E645EA060E8DE60CEA135594EAB3
:100900000C0F08BF95EA0C0F3FF43BAF94EA0C0FB5
:100910000AD150EA01347FF434AF95EA0C0F7FF42A
:1009200025AF104619462CE795EA0C0F06D152EA7E
:1009300003353FF4FDAE1046194622E750EA410662
:1009400018BF52EA43067FF4C5AE50EA41047FF473
:100950000DAF52EA43057FF4EBAE12E753B94AB943
:10096000002908BF00281CBF4FF0FF314FF0FF30B7
:1009700000F00CB8ADF1080C6DE904CE03F084FF73
:10098000DDF804E0DDE9022304B07047704700BFE2
:10099000034613F8012B002AFBD1181A01387047BF
:1009A00001F0FF01102A2BDB10F0070F08D010F820
:1009B000013B013A8B422DD010F0070F42B3F6D124
:1009C000F0B441EA012141EA014122F007047FF03D
:1009D00000070023F0E80256083C85EA010586EA94
:1009E000010685FA47F5A3FA87F586FA47F6A5FAD0
:1009F00087F68EB9EED1F0BC01F0FF0102F00702DC
:100A000032B110F8013B013A83EA010313B1F8D186
:100A10000020704701387047002D06BF3546033867
:100A2000073815F0010F07D1013015F4807F02BFA0
:100A3000013015F4C03F0130F0BC0138704700BFF1
:100A40004FF0FF3C06E000BF4FF0010C02E000BF9A
:100A50004FF0010C4DF804CD4FEA410C7FEA6C5C7D
:100A60004FEA430C18BF7FEA6C5C1BD001B050EA20
:100A7000410C0CBF52EA430C91EA030F02BF90EA0B
:100A8000020F0020704710F1000F91EA030F58BFCA
:100A9000994208BF90422CBFD8176FEAE37040F02C
:100AA000010070474FEA410C7FEA6C5C02D150EACA
:100AB000013C07D14FEA430C7FEA6C5CD6D152EA85
:100AC000033CD3D05DF8040B704700BF844610464A
:100AD00062468C461946634600E000BF01B5FFF749
:100AE000B7FF002848BF10F1000F01BD4DF808ED19
:100AF000FFF7F4FF0CBF012000205DF808FB00BFEA
:100B00004DF808EDFFF7EAFF34BF012000205DF843
:100B100008FB00BF4DF808EDFFF7E0FF94BF012090
:100B200000205DF808FB00BF4DF808EDFFF7CEFF91
:100B300094BF012000205DF808FB00BF4DF808EDD0
:100B4000FFF7C4FF34BF012000205DF808FB00BFA1
:100B50004FEA410C7FEA6C5C02D150EA013C0AD1B9
:100B60004FEA430C7FEA6C5C02D152EA033C02D1AB
:100B70004FF0000070474FF0010070474FEA41020C
:100B800012F5001215D211D56FF47873B3EB6252DF
:100B900012D94FEAC12343F0004343EA505311F006
:100BA000004F23FA02F018BF404270474FF0000098
:100BB000704750EA013005D111F0004008BF6FF0D6
:100BC000004070474FF00000704700BF0348044BDF
:100BD000834202D0034B03B118477047E001002065
:100BE000E00100200000000005480649091A8910AC
:100BF00001EBD171491002D0034B03B11847704784
:100C0000E0010020E00100200000000010B5064CCB
:100C1000237843B9FFF7DAFF044B13B10448AFF36D
:100C200000800123237010BDE001002000000000BF
:100C3000E46B000808B5054B1BB105490548AFF347
:100C40000080BDE80840FFF7CFBF00BF00000000F4
:100C5000E4010020E46B0008DFF834D0002103E059
:100C60000C4B5B58435004310B480C4B42189A42D2
:100C7000F6D30B4A02E0002342F8043B094B9A42A8
:100C8000F9D300F0C3FA03F06DFF00F021F8FEE79E
:100C900000000A20D86E000800000020E0010020BB
:100CA000E001002080030020FEE780B500AF00F0E7
:100CB0002BFB00F06FFC00BF80BD000080B500AFD3
:100CC000024801F0C3FD00BF80BD00BF2C0300201F
:100CD00098B500AF00F0C6FA322000F097F800F0A7
:100CE00041F900F0A3F900213C4801F041FD6422E4
:100CF00000213B4803F05AFF3A4B1B78012BFBD1F4
:100D0000394B5A68384B1B689A4207D9364B5A6898
:100D1000354B1B68D31A354A136007E0324B5A68CB
:100D2000314B1B68D31A013B304A136001F006FCBB
:100D300003465A00294B5B680133B2FBF3F31846B4
:100D4000FFF780FB03460C46294AC2E90034284BD2
:100D5000D3E900341A4623464FF000002549FFF737
:100D600015FD03460C46244AC2E900341F4B1B689C
:100D70001846FFF767FB204BD3E900341A46234699
:100D8000FFF7DAFB03460C461C4AC2E900341B4B52
:100D9000D3E900341A4623464FF000001549FFF707
:100DA000F5FC03460C46164AC2E90034144BD3E95D
:100DB00000341A4623461349094804F03BFB08480F
:100DC000FFF7E6FD03469AB24FF0FF3304490E48A1
:100DD00002F062F9034B00221A708DE72C03002009
:100DE000C802002004020020FC01002008020020AC
:100DF000100200200000F03F180200202002002016
:100E000028020020006C00083C02002080B59AB047
:100E100000AF0346FB71002387F8673007F120031A
:100E200044220021184603F0C1FE07F10C031422EE
:100E30000021184603F0BAFE06233B620123BB6281
:100E40004FF48073FB6240233B630223BB640223A5
:100E5000FB64FB79542B1CD0782B34D0322B4CD133
:100E600004233B6532237B6504233B660223FB6539
:100E70000223BB650F23FB6003233B6100237B61DF
:100E80004FF48063BB610023FB61022387F8673066
:100E900034E004233B652A237B6502233B6602235F
:100EA000FB650223BB650F23FB6003233B6100232B
:100EB0007B614FF48063BB614FF48063FB6104236B
:100EC00087F867301AE004233B653C237B650223E7
:100ED0003B660223FB650223BB650F23FB600323F4
:100EE0003B6100237B614FF4A063BB614FF48063DF
:100EF000FB61052387F8673000E000BF07F120039E
:100F0000184600F001FD0346002B01D000F026F842
:100F100000224FF0E061002001F048FA97F86720C6
:100F200007F10C031146184601F014F90346002B93
:100F300001D000F013F801F0F7FA0246064BA3FBCC
:100F400002239B09184600F0FCFA042000F006FB7F
:100F500000BF6837BD4680BDD34D621080B400AF7E
:100F6000FEE7000080B584B000AF164B4FF0804222
:100F70001A60144B00229A60124B01225A60114BE6
:100F80004FF0FF32DA600F4801F0C6FB0346002B3A
:100F900001D0FFF7E3FF00233B6001237B600023C8
:100FA000FB600023BB603B4600221946054801F068
:100FB0006CFD0346002B01D0FFF7D0FF00BF1037B8
:100FC000BD4680BD2C03002080B483B000AF7860A4
:100FD000134B1B78002B1ED1124B1B78012B0BD10E
:100FE0007B681B685B6B104A13600E4B1B780133E8
:100FF000DAB20C4B1A700EE00A4B1B78022B0AD1A6
:101000007B681B685B6B084A5360064B01221A70B1
:10101000034B01221A7000BF0C37BD4680BC7047DD
:101020000402002000000020FC01002080B500AF79
:101030000F4B104A1A600E4B4FF416525A600C4B6D
:1010400000229A600A4B0022DA60094B00221A61E2
:10105000074B00229A61064B0C225A61044801F0AA
:10106000CBFF0346002B01D0FFF778FF00BF80BD08
:101070003C0200200048004080B500AF032000F093
:101080002BFA0D4B5B6A0C4A43F4E02353620022B7
:1010900000216FF00B0000F02AFA002200216FF00F
:1010A0000A0000F024FA002200216FF0090000F08D
:1010B0001EFA00BF80BD00BF00ED00E080B58AB021
:1010C00000AF7860184B9B6D174A43F0010393659E
:1010D000154B9B6D03F001033B613B69124BDB6CCD
:1010E000114A43F00103D3640F4BDB6C03F001039F
:1010F000FB60FB6801237B610223BB6101237B62F0
:1011000007F1140319464FF0904000F04FFA1C20ED
:1011100000F009FA00220F211C2000F0E8F900BFBE
:101120002837BD4680BD00BF0010024080B58AB0A0
:1011300000AF78601D4B9B6D1C4A43F48023936580
:101140001A4B9B6D03F480233B613B69174BDB6CAF
:10115000164A43F00803D364144BDB6C03F0080316
:10116000FB60FB684FF480737B610223BB6100234B
:101170003B6207237B6207F1140319460C4800F019
:1011800015FA4FF400737B6107F114031946084800
:1011900000F00CFA272000F0C6F900220F212720CA
:1011A00000F0A5F900BF2837BD4680BD0010024001
:1011B000000C004880B584B000AF7860114B1B680C
:1011C000002B02D10F4B104A1A600E4B1B68FB60BC
:1011D0000C4B1A687B6813446A46934207D903F0A4
:1011E000BBFC02460C2313604FF0FF3306E0054BB7
:1011F0001A687B681344034A1360FB68184610376B
:10120000BD4680BD300200208003002080B400AFC6
:10121000124B1B68114A43F0010313600F4B00226D
:101220009A600E4B1B680D4A23F0A85323F4102339
:1012300013600A4B4FF48052DA60084B1B68074A70
:1012400023F480231360054B00229A61044B4FF076
:1012500000629A6000BFBD4680BC7047001002402B
:1012600000ED00E080B582B000AF0023FB710320E9
:1012700000F032F9002000F00DF80346002B02D0F8
:101280000123FB7101E0FFF7F7FEFB7918460837F1
:10129000BD4680BD80B584B000AF78600023FB738D
:1012A000164B1B68002B22D0154B1A68134B1B687A
:1012B0004FF47A71B1FBF3F3B2FBF3F3184600F08D
:1012C00040F90346002B0FD17B680F2B09D8002271
:1012D00079684FF0FF3000F00AF90A4A7B68136022
:1012E00007E00123FB7304E00123FB7301E001230A
:1012F000FB73FB7B18461037BD4680BD0C000020F9
:10130000040000200800002080B400AF054B1A68DC
:10131000054B1B681344034A136000BFBD4680BCE5
:10132000704700BF6C0300200C00002080B400AFA9
:10133000024B1B681846BD4680BC70476C030020FA
:1013400080B485B000AF78607B6803F00703FB6072
:101350000C4BDB68BB60BA684FF6FF031340BB6001
:10136000FB681A02BB68134343F0BF6343F40033C6
:10137000BB60044ABB68D36000BF1437BD4680BC65
:10138000704700BF00ED00E080B400AF044BDB68A5
:101390001B0A03F007031846BD4680BC704700BF18
:1013A00000ED00E080B483B000AF0346FB7197F915
:1013B0000730002B0BDBFB7903F01F02064997F97E
:1013C00007305B09012000FA02F241F8232000BF38
:1013D0000C37BD4680BC704700E100E080B483B0AC
:1013E00000AF03463960FB7197F90730002B0ADB29
:1013F0003B68DAB20C4997F907301201D2B20B44BC
:1014000083F800230AE03B68DAB20849FB7903F06D
:101410000F03043B1201D2B20B441A7600BF0C3703
:10142000BD4680BC704700BF00E100E000ED00E079
:1014300080B489B000AFF860B9607A60FB6803F0EF
:101440000703FB61FB69C3F10703042B28BF0423D7
:10145000BB61FB690433062B02D9FB69033B00E047
:1014600000237B614FF0FF32BB6902FA03F3DA43DA
:10147000BB681A407B699A404FF0FF317B6901FAE3
:1014800003F3D9437B680B40134318462437BD460A
:1014900080BC704780B582B000AF78607B68013B4C
:1014A000B3F1807F01D301230FE00A4A7B68013B3F
:1014B00053600F214FF0FF30FFF790FF054B0022E4
:1014C0009A60044B07221A60002318460837BD466D
:1014D00080BD00BF10E000E080B582B000AF786052
:1014E0007868FFF72DFF00BF0837BD4680BD80B587
:1014F00086B000AF0346B9607A60FB7300237B615E
:10150000FFF742FF78617A68B9687869FFF790FF62
:10151000024697F90F3011461846FFF75FFF00BFEC
:101520001837BD4680BD80B582B000AF0346FB7161
:1015300097F907301846FFF735FF00BF0837BD465B
:1015400080BD80B582B000AF78607868FFF7A2FFF9
:10155000034618460837BD4680BD000080B483B0FE
:1015600000AF78607B68042B06D1094B1B68084AE2
:1015700043F00403136005E0054B1B68044A23F0A5
:101580000403136000BF0C37BD4680BC704700BF2A
:1015900010E000E080B500AF00F002F800BF80BDB1
:1015A00080B400AF00BFBD4680BC704780B487B038
:1015B00000AF7860396000237B6166E13B681A68A0
:1015C00001217B6901FA03F31340FB60FB68002BE8
:1015D00000F058813B685B68012B0BD03B685B686F
:1015E000022B07D03B685B68112B03D03B685B681C
:1015F000122B30D17B689B683B617B695B000322C7
:1016000002FA03F3DB433A6913403B613B68DA6853
:101610007B695B0002FA03F33A6913433B617B6821
:101620003A699A607B685B683B6101227B6902FAD8
:1016300003F3DB433A6913403B613B685B681B097A
:1016400003F001027B6902FA03F33A6913433B6139
:101650007B683A695A607B68DB683B617B695B0049
:10166000032202FA03F3DB433A6913403B613B6810
:101670009A687B695B0002FA03F33A6913433B61A2
:101680007B683A69DA603B685B68022B03D03B6891
:101690005B68122B23D17B69DA087B68083253F828
:1016A00022303B617B6903F007039B000F2202FAA3
:1016B00003F3DB433A6913403B613B681A697B697A
:1016C00003F007039B0002FA03F33A6913433B61FB
:1016D0007B69DA087B680832396943F822107B6835
:1016E0001B683B617B695B00032202FA03F3DB4367
:1016F0003A6913403B613B685B6803F003027B6916
:101700005B0002FA03F33A6913433B617B683A6971
:101710001A603B685B6803F08053002B00F0B280D6
:10172000604B1B6E5F4A43F0010313665D4B1B6EFB
:1017300003F00103BB60BB685B4A7B699B08023313
:1017400052F823303B617B6903F003039B000F22B7
:1017500002FA03F3DB433A6913403B617B68B3F160
:10176000904F2BD07B68514A934225D07B68504ADA
:1017700093421FD07B684F4A934219D07B684E4AF0
:10178000934213D07B684D4A93420DD07B684C4AFC
:10179000934207D07B684B4A934201D107230EE066
:1017A00008230CE006230AE0052308E0042306E0F2
:1017B000032304E0022302E0012300E000237A690E
:1017C00002F00302920093403A6913433B613649A9
:1017D0007B699B0802333A6941F823203A4B1B6826
:1017E0003B61FB68DB433A6913403B613B685B68E4
:1017F00003F48033002B03D03A69FB6813433B6149
:10180000314A3B691360304B5B683B61FB68DB43EB
:101810003A6913403B613B685B6803F40033002B7B
:1018200003D03A69FB6813433B61274A3B69536025
:10183000254B9B683B61FB68DB433A6913403B6186
:101840003B685B6803F48013002B03D03A69FB68A4
:1018500013433B611C4A3B6993601B4BDB683B6154
:10186000FB68DB433A6913403B613B685B6803F408
:101870000013002B03D03A69FB6813433B61124A03
:101880003B69D3607B6901337B613B681A687B6984
:1018900022FA03F3002B7FF491AE00BF1C37BD4644
:1018A00080BC704700100240000001400004004866
:1018B00000080048000C00480010004800140048D0
:1018C00000180048001C00480004014080B400AF2C
:1018D0000C4B1B6803F4C063B3F5806F02D14FF467
:1018E00080630BE0074BD3F8803003F48073B3F5CB
:1018F000807F02D14FF4007300E000231846BD46FC
:1019000080BC70470070004080B588B000AF786040
:101910007B68002B02D1012300F016BCA04B9B6812
:1019200003F00C03BB619E4BDB6803F003037B6198
:101930007B681B6803F01003002B00F0E480BB6998
:10194000002B07D0BB690C2B40F08B807B69012BEF
:1019500040F08780924B1B6803F00203002B05D0F8
:101960007B689B69002B01D10123EDE37B681A6A38
:101970008B4B1B6803F00803002B04D0884B1B68BB
:1019800003F0F00305E0864BD3F894301B0903F015
:10199000F003934223D27B681B6A184600F0FAFDDD
:1019A0000346002B01D00123CEE37D4B1B687C4A0C
:1019B00043F0080313607A4B1B6823F0F0027B6846
:1019C0001B6A774913430B60754B5B6823F47F42B6
:1019D0007B68DB691B02724913434B6025E0704B47
:1019E0001B686F4A43F0080313606D4B1B6823F0BC
:1019F000F0027B681B6A6A4913430B60684B5B68A3
:101A000023F47F427B68DB691B02654913434B600B
:101A1000BB69002B09D17B681B6A184600F0BAFD30
:101A20000346002B01D001238EE300F0F3FC0146B6
:101A30005B4B9B681B0903F00F035A4AD35C03F00E
:101A40001F0321FA03F3584A1360584B1B681846CA
:101A5000FFF720FC0346FB73FB7B002B52D0FB7B84
:101A600072E37B689B69002B32D04D4B1B684C4A5C
:101A700043F001031360FFF759FC386108E0FFF7FA
:101A800055FC02463B69D31A022B01D903235BE3C1
:101A9000434B1B6803F00203002BF0D0404B1B6844
:101AA0003F4A43F0080313603D4B1B6823F0F002EC
:101AB0007B681B6A3A4913430B60394B5B6823F41C
:101AC0007F427B68DB691B02354913434B601AE098
:101AD000334B1B68324A23F001031360FFF726FCE7
:101AE000386108E0FFF722FC02463B69D31A022B5B
:101AF00001D9032328E32A4B1B6803F00203002BC0
:101B0000F0D100E000BF7B681B6803F00103002BED
:101B100073D0BB69082B05D0BB690C2B0ED17B6938
:101B2000032B0BD11E4B1B6803F40033002B63D037
:101B30007B685B68002B5FD1012305E37B685B68F2
:101B4000B3F5803F06D1164B1B68154A43F480332A
:101B500013601DE07B685B68B3F5A02F0CD1104BC0
:101B60001B680F4A43F4802313600D4B1B680C4A1B
:101B700043F4803313600BE0094B1B68084A23F4DD
:101B800080331360064B1B68054A23F480231360DF
:101B90007B685B68002B1BD0FFF7C8FB386110E047
:101BA000001002401C6C0008040000200800002007
:101BB000FFF7BCFB02463B69D31A642B01D9032310
:101BC000C2E2AF4B1B6803F40033002BF0D014E0EB
:101BD000FFF7ACFB386108E0FFF7A8FB02463B6962
:101BE000D31A642B01D90323AEE2A54B1B6803F47F
:101BF0000033002BF0D100E000BF7B681B6803F0CE
:101C00000203002B60D0BB69042B05D0BB690C2BF1
:101C100019D17B69022B16D1994B1B6803F48063A1
:101C2000002B05D07B68DB68002B01D101238BE200
:101C3000934B5B6823F0FE427B681B691B0690494F
:101C400013434B6040E07B68DB68002B23D08C4B58
:101C50001B688B4A43F480731360FFF767FB38619E
:101C600008E0FFF763FB02463B69D31A022B01D958
:101C7000032369E2824B1B6803F48063002BF0D0DE
:101C80007F4B5B6823F0FE427B681B691B067C4927
:101C900013434B6018E07A4B1B68794A23F4807336
:101CA0001360FFF743FB386108E0FFF73FFB024694
:101CB0003B69D31A022B01D9032345E2704B1B6801
:101CC00003F48063002BF0D17B681B6803F00803EA
:101CD000002B3CD07B685B69002B1CD0684BD3F891
:101CE0009430674A43F00103C2F89430FFF71EFBBB
:101CF000386108E0FFF71AFB02463B69D31A022B52
:101D000001D9032320E25E4BD3F8943003F00203A1
:101D1000002BEFD01BE05A4BD3F89430584A23F0F5
:101D20000103C2F89430FFF701FB386108E0FFF7C8
:101D3000FDFA02463B69D31A022B01D9032303E2C1
:101D40004F4BD3F8943003F00203002BEFD17B68A4
:101D50001B6803F00403002B00F0A6800023FB7730
:101D6000474B9B6D03F08053002B0DD1444B9B6D73
:101D7000434A43F080539365414B9B6D03F080537E
:101D8000BB60BB680123FB773E4B1B6803F4807389
:101D9000002B18D13B4B1B683A4A43F48073136005
:101DA000FFF7C4FA386108E0FFF7C0FA02463B6962
:101DB000D31A022B01D90323C6E1324B1B6803F46B
:101DC0008073002BF0D07B689B68012B08D12C4BD3
:101DD000D3F890302A4A43F00103C2F8903024E04F
:101DE0007B689B68052B10D1254BD3F89030244A93
:101DF00043F00403C2F89030214BD3F89030204ACE
:101E000043F00103C2F890300FE01D4BD3F890303F
:101E10001B4A23F00103C2F89030194BD3F89030DD
:101E2000174A23F00403C2F890307B689B68002BAC
:101E300016D0FFF77BFA38610AE0FFF777FA02461F
:101E40003B69D31A41F28832934201D903237BE1E3
:101E50000B4BD3F8903003F00203002BEDD01AE0C7
:101E6000FFF764FA38610FE0FFF760FA02463B695A
:101E7000D31A41F28832934206D9032364E100BFAA
:101E80000010024000700040A84BD3F8903003F0DF
:101E90000203002BE8D1FB7F012B05D1A34B9B6DE7
:101EA000A24A23F0805393657B681B6803F02003EC
:101EB000002B3CD07B685B6A002B1CD09B4BD3F87B
:101EC00098309A4A43F00103C2F89830FFF72EFA8F
:101ED000386108E0FFF72AFA02463B69D31A022B61
:101EE00001D9032330E1914BD3F8983003F002037A
:101EF000002BEFD01BE08D4BD3F898308B4A23F0AA
:101F00000103C2F89830FFF711FA386108E0FFF7D3
:101F10000DFA02463B69D31A022B01D9032313E1C0
:101F2000824BD3F8983003F00203002BEFD17B688B
:101F30009B6A002B00F007817B689B6A022B40F0B4
:101F4000CB807A4BDB687B617B6903F003027B68A3
:101F5000DB6A9A422CD17B6903F0F0027B681B6B31
:101F6000013B1B019A4223D17B6903F4FE427B684B
:101F70005B6B1B029A421BD17B6903F078427B6842
:101F80009B6BDB069A4213D17B6903F4C0027B682A
:101F9000DB6B5B08013B5B059A4209D17B6903F06F
:101FA000C0627B681B6C5B08013B5B069A426DD08C
:101FB000BB690C2B68D05D4B1B6803F08063002B62
:101FC00005D15A4B1B6803F08053002B01D001232D
:101FD000BAE0564B1B68554A23F080731360FFF735
:101FE000A5F9386108E0FFF7A1F902463B69D31A69
:101FF000022B01D90323A7E04C4B1B6803F00073AD
:10200000002BF0D1494BDA68494B13407A68D16A0A
:102010007A68126B013A120111437A68526B12020C
:1020200011437A68D26B5208013A520511437A681B
:10203000126C5208013A520611437A68926BD2062A
:102040000A433A491343CB60384B1B68374A43F085
:1020500080731360354BDB68344A43F08073D36080
:10206000FFF764F9386108E0FFF760F902463B6961
:10207000D31A022B01D9032366E02C4B1B6803F013
:102080000073002BF0D05EE001235DE0274B1B685E
:1020900003F00073002B56D1244B1B68234A43F0F6
:1020A00080731360214BDB68204A43F08073D36058
:1020B000FFF73CF9386108E0FFF738F902463B6961
:1020C000D31A022B01D903233EE0184B1B6803F0FF
:1020D0000073002BF0D036E0BB690C2B31D0134BD2
:1020E0001B68124A23F080731360104B1B6803F0C7
:1020F0002053002B05D10D4BDB680C4A23F0030362
:10210000D3600A4BDB68094A23F0887323F48033D9
:10211000D360FFF70BF938610CE0FFF707F90246CF
:102120003B69D31A022B05D903230DE000100240AE
:102130000C809D01064B1B6803F00073002BECD153
:1021400001E0012300E0002318462037BD4680BD92
:102150000010024080B586B000AF7860396000237F
:102160007B617B68002B01D101230FE1894B1B6848
:1021700003F00F033A689A4210D9864B1B6823F08C
:102180000F0284493B6813430B60824B1B6803F0CA
:102190000F033A689A4201D00123F7E07B681B687D
:1021A00003F00103002B00F089807B685B68032B40
:1021B00033D1794B1B6803F00073002B01D101234D
:1021C000E4E000F041FA0246744B9A4255D9724B52
:1021D0009B6803F0F003002B0AD16F4B9B6823F040
:1021E000F0036D4A43F08003936080237B6144E0F9
:1021F0007B681B6803F00203002B3ED07B689B6862
:10220000002B3AD1644B9B6823F0F003624A43F001
:102210008003936080237B612FE07B685B68022BE7
:1022200007D15D4B1B6803F40033002B15D101234C
:10223000ACE07B685B68002B07D1574B1B6803F051
:102240000203002B09D10123A0E0534B1B6803F4C8
:102250008063002B01D1012398E000F0DBF80246F7
:102260004E4B9A4209D94C4B9B6823F0F0034A4AE3
:1022700043F08003936080237B61474B9B6823F08E
:1022800003027B685B68444913438B60FFF74EF899
:1022900038610AE0FFF74AF802463B69D31A41F277
:1022A0008832934201D9032370E03B4B9B6803F0D3
:1022B0000C027B685B689B009A42EBD17B681B68D1
:1022C00003F00203002B09D0334B9B6823F0F0028C
:1022D0007B689B68304913438B6008E07B69802BE7
:1022E00005D12D4B9B682C4A23F0F0039360294BBA
:1022F0001B6803F00F033A689A4210D2254B1B6803
:1023000023F00F0223493B6813430B60214B1B68EA
:1023100003F00F033A689A4201D0012336E07B684C
:102320001B6803F00403002B08D01B4B9B6823F4AD
:10233000E0627B68DB68184913438B607B681B682D
:1023400003F00803002B09D0134B9B6823F4605261
:102350007B681B69DB00104913438B6000F05AF85F
:1023600001460D4B9B681B0903F00F030C4AD35C1D
:1023700003F01F0321FA03F30A4A13600A4B1B6898
:102380001846FEF787FF0346FB73FB7B184618379A
:10239000BD4680BD002002400010024000B4C404CD
:1023A0001C6C0008040000200800002080B58AB0E2
:1023B00000AFF860B9607A60154BDB6C144A43F0EB
:1023C0000103D364124BDB6C03F001033B613B69F7
:1023D0004FF480737B610223BB6102233B620023C5
:1023E000FB6100237B6207F1140319464FF0904014
:1023F000FFF7DCF8064B9B6823F0FE42B9687B6868
:102400000B43034913438B6000BF2837BD4680BD93
:102410000010024080B489B000AF0023FB610023AC
:10242000BB613D4B9B6803F00C033B613A4BDB689F
:1024300003F00303FB603B69002B05D03B690C2BC9
:1024400021D1FB68012B1ED1334B1B6803F008031D
:10245000002B07D1304BD3F894301B0A03F00F0345
:10246000FB6105E02C4B1B681B0903F00F03FB61AC
:102470002A4AFB6952F82330FB613B69002B0DD1DE
:10248000FB69BB610AE03B69042B02D1244BBB61B1
:1024900004E03B69082B01D1224BBB613B690C2B4B
:1024A00034D11D4BDB6803F00303BB60BB68022B18
:1024B00003D0BB68032B03D005E0194B7B6105E01B
:1024C000184B7B6102E0FB697B6100BF124BDB684C
:1024D0001B0903F00F0301337B600F4BDB681B0A02
:1024E00003F07F037A6902FB03F27B68B2FBF3F32C
:1024F0007B61094BDB685B0E03F0030301335B0078
:102500003B607A693B68B2FBF3F3BB61BB69184679
:102510002437BD4680BC704700100240346C000870
:102520000024F40000127A0080B400AF024B1B6854
:102530001846BD4680BC70470400002080B500AF3F
:10254000FFF7F2FF0146064B9B681B0A03F00703E7
:10255000044AD35C03F01F0321FA03F3184680BD3D
:10256000001002402C6C000880B500AFFFF7DCFFC4
:102570000146064B9B68DB0A03F00703044AD35C61
:1025800003F01F0321FA03F3184680BD0010024038
:102590002C6C000880B586B000AF786000233B61EA
:1025A000274B9B6D03F08053002B03D0FFF78EF970
:1025B000786114E0224B9B6D214A43F08053936570
:1025C0001F4B9B6D03F08053FB60FB68FFF77EF9A8
:1025D00078611B4B9B6D1A4A23F0805393657B698E
:1025E000B3F5007F0BD17B68802B13D97B68A02BC0
:1025F00002D902233B610DE001233B610AE07B68C5
:102600007F2B02D902233B6104E07B68702B01D150
:1026100001233B610B4B1B6823F00F0209493B6907
:1026200013430B60074B1B6803F00F033A699A4290
:1026300001D0012300E0002318461837BD4680BDB5
:10264000001002400020024080B487B000AF002399
:102650007B612D4BDB6803F00303012B18D12A4B60
:102660001B6803F00803002B07D1274BD3F89430E5
:102670001B0A03F00F037B6105E0234B1B681B095A
:1026800003F00F037B61214A7B6952F823307B61A1
:102690001D4BDB6803F00303FB60FB68022B03D0D8
:1026A000FB68032B03D005E0194B3B6105E0194B98
:1026B0003B6102E07B693B6100BF134BDB681B0998
:1026C00003F00F030133BB600F4BDB681B0A03F001
:1026D0007F033A6902FB03F2BB68B2FBF3F33B6191
:1026E000094BDB685B0E03F0030301335B007B6087
:1026F0003A697B68B2FBF3F33B603B6818461C37D2
:10270000BD4680BC704700BF00100240346C00081A
:102710000024F40000127A0080B582B000AF786027
:102720007B68002B01D101231DE07B6893F83D30CD
:10273000DBB2002B06D17B68002283F83C2078684E
:10274000FEF7BCFC7B68022283F83D207B681A6898
:102750007B6804331946104600F058FA7B68012262
:1027600083F83D20002318460837BD4680BD000091
:1027700080B584B000AF786039603B680C2B41D8DD
:1027800001A252F823F000BFBD2700080528000869
:102790000528000805280008CF270008052800089C
:1027A0000528000805280008E1270008052800087A
:1027B0000528000805280008F32700087B681B6827
:1027C000DA687B681B6842F00202DA601BE07B6813
:1027D0001B68DA687B681B6842F00402DA6012E06A
:1027E0007B681B68DA687B681B6842F00802DA6065
:1027F00009E07B681B68DA687B681B6842F010029E
:10280000DA6000E000BF7B681B6801223968184667
:1028100000F0B3FB7B681B689A680B4B1340FB60AE
:10282000FB68062B0BD0FB68B3F5803F07D07B68B5
:102830001B681A687B681B6842F001021A6000235B
:1028400018461037BD4680BD0700010080B582B034
:1028500000AF78607B681B681B6903F00203022BE2
:1028600022D17B681B68DB6803F00203022B1BD1BB
:102870007B681B686FF002021A617B6801221A777D
:102880007B681B689B6903F00303002B03D0786807
:10289000FEF79AFB05E0786800F09CF9786800F094
:1028A000A2F97B6800221A777B681B681B6903F01A
:1028B0000403042B22D17B681B68DB6803F004034C
:1028C000042B1BD17B681B686FF004021A617B68C4
:1028D00002221A777B681B689B6903F44073002B04
:1028E00003D07868FEF770FB05E0786800F072F9B5
:1028F000786800F078F97B6800221A777B681B689B
:102900001B6903F00803082B22D17B681B68DB6876
:1029100003F00803082B1BD17B681B686FF00802CB
:102920001A617B6804221A777B681B68DB6903F0F5
:102930000303002B03D07868FEF746FB05E07868B8
:1029400000F048F9786800F04EF97B6800221A77A9
:102950007B681B681B6903F01003102B22D17B6876
:102960001B68DB6803F01003102B1BD17B681B680E
:102970006FF010021A617B6808221A777B681B6867
:10298000DB6903F44073002B03D07868FEF71CFB6F
:1029900005E0786800F01EF9786800F024F97B689B
:1029A00000221A777B681B681B6903F00103012B67
:1029B0000ED17B681B68DB6803F00103012B07D194
:1029C0007B681B686FF001021A61786800F0F9F803
:1029D0007B681B681B6903F08003802B0ED17B682A
:1029E0001B68DB6803F08003802B07D17B681B68C2
:1029F0006FF080021A61786800F0ECFA7B681B685F
:102A00001B6903F48073B3F5807F0ED17B681B686C
:102A1000DB6803F08003802B07D17B681B686FF4B1
:102A200080721A61786800F0DEFA7B681B681B69A7
:102A300003F04003402B0ED17B681B68DB6803F07A
:102A40004003402B07D17B681B686FF040021A617E
:102A5000786800F0D1F87B681B681B6903F02003DD
:102A6000202B0ED17B681B68DB6803F02003202B32
:102A700007D17B681B686FF020021A61786800F04C
:102A8000A0FA00BF0837BD4680BD80B584B000AF56
:102A9000F860B9607A60FB6893F83C30012B01D193
:102AA00002238AE0FB68012283F83C20FB680222B3
:102AB00083F83D207B68002B1BD1FB681868BB683E
:102AC0001968BB685A68BB68DB6800F037F9FB68B7
:102AD0001B689A69FB681B6822F00C029A61FB680C
:102AE0001B689969BB689A68FB681B680A439A610E
:102AF0005AE07B68042B1CD1FB681868BB68196816
:102B0000BB685A68BB68DB6800F084F9FB681B6827
:102B10009A69FB681B6822F440629A61FB681B6833
:102B20009969BB689B681A02FB681B680A439A6133
:102B30003AE07B68082B1BD1FB681868BB681968F2
:102B4000BB685A68BB68DB6800F0A0F9FB681B68CB
:102B5000DA69FB681B6822F00C02DA61FB681B680B
:102B6000D969BB689A68FB681B680A43DA611BE095
:102B7000FB681868BB681968BB685A68BB68DB6883
:102B800000F0BFF9FB681B68DA69FB681B6822F478
:102B90004062DA61FB681B68D969BB689B681A02EE
:102BA000FB681B680A43DA61FB68012283F83D2059
:102BB000FB68002283F83C20002318461037BD46EE
:102BC00080BD80B483B000AF786000BF0C37BD46D5
:102BD00080BC704780B483B000AF786000BF0C3712
:102BE000BD4680BC704780B483B000AF786000BF42
:102BF0000C37BD4680BC704780B483B000AF7860AE
:102C000000BF0C37BD4680BC7047000080B485B063
:102C100000AF786039607B681B68FB607B683F4A67
:102C2000934213D07B68B3F1804F0FD07B683C4A4E
:102C300093420BD07B683B4A934207D07B683A4A69
:102C4000934203D07B68394A934208D1FB6823F052
:102C50007003FB603B685B68FA681343FB607B684A
:102C60002E4A93421FD07B68B3F1804F1BD07B6804
:102C70002B4A934217D07B682A4A934213D07B6831
:102C8000294A93420FD07B68284A93420BD07B6835
:102C9000274A934207D07B68264A934203D07B6839
:102CA000254A934208D1FB6823F44073FB603B68DC
:102CB000DB68FA681343FB60FB6823F080023B6823
:102CC0005B691343FB607B68FA681A603B689A682B
:102CD0007B68DA623B681A687B689A627B680F4A95
:102CE00093420FD07B68114A93420BD07B68104A05
:102CF000934207D07B680F4A934203D07B680E4A09
:102D0000934203D13B681A697B681A637B6801228E
:102D10005A6100BF1437BD4680BC7047002C01408B
:102D20000004004000080040000C00400034014056
:102D300000400140004401400048014080B487B099
:102D400000AFF860B9607A603B60FB681B6A23F0F3
:102D50000102FB681A62FB689B697B61FB681B6A66
:102D60003B61FB68254A934217D0FB68B3F1804F63
:102D700013D0FB68224A93420FD0FB68214A93424A
:102D80000BD0FB68204A934207D0FB681F4A93424E
:102D900003D0FB681E4A934201D1012300E00023C7
:102DA000002B08D07B6923F003037B617A697B6881
:102DB00013437B6103E07B6943F001037B617B6923
:102DC00023F0F0037B613B681B01DBB27A6913439C
:102DD0007B613B6923F00A033B61BB6803F00A0394
:102DE0003A6913433B61FB687A699A61FB683A6907
:102DF0001A6200BF1C37BD4680BC7047002C0140E2
:102E00000004004000080040000C00400034014075
:102E10000040014080B487B000AFF860B9607A60CC
:102E20003B60FB681B6A23F01002FB681A62FB68B8
:102E30009B697B61FB681B6A3B617B6923F4407380
:102E40007B617B681B027A6913437B617B6923F496
:102E500070437B613B681B039BB27A6913437B61C0
:102E60003B6923F0A0033B61BB681B0103F0A00397
:102E70003A6913433B61FB687A699A61FB683A6976
:102E80001A6200BF1C37BD4680BC704780B487B053
:102E900000AFF860B9607A603B60FB681B6A23F49E
:102EA0008072FB681A62FB68DB697B61FB681B6AE6
:102EB0003B617B6923F003037B617A697B68134381
:102EC0007B617B6923F0F0037B613B681B01DBB214
:102ED0007A6913437B613B6923F420633B61BB68E0
:102EE0001B0203F420633A6913433B61FB687A6970
:102EF000DA61FB683A691A6200BF1C37BD4680BCC4
:102F0000704780B487B000AFF860B9607A603B600A
:102F1000FB681B6A23F48052FB681A62FB68DB695A
:102F20007B61FB681B6A3B617B6923F440737B61B7
:102F30007B681B027A6913437B617B6923F47043CE
:102F40007B613B681B039BB27A6913437B613B69DE
:102F500023F420433B61BB681B0303F420433A691D
:102F600013433B61FB687A69DA61FB683A691A626C
:102F700000BF1C37BD4680BC704780B487B000AF2F
:102F8000F860B9607A60BB6803F01F03012202FA9F
:102F900003F37B61FB681A6A7B69DB431A40FB68B9
:102FA0001A62FB681A6ABB6803F01F03796801FAAA
:102FB00003F31A43FB681A6200BF1C37BD4680BC8E
:102FC000704780B483B000AF786000BF0C37BD4657
:102FD00080BC704780B483B000AF786000BF0C370E
:102FE000BD4680BC704780B483B000AF786000BF3E
:102FF0000C37BD4680BC704780B582B000AF7860AA
:103000007B68002B01D1012342E07B68D3F880303C
:10301000002B06D17B68002283F87C207868FEF7BD
:1030200085F87B682422C3F880207B681B681A68B7
:103030007B681B6822F001021A60786800F0C4F80F
:103040000346012B01D1012322E07B689B6A002B00
:1030500002D0786801F0AEFA7B681B685A687B681A
:103060001B6822F490425A607B681B689A687B68F0
:103070001B6822F02A029A607B681B681A687B68CA
:103080001B6842F001021A60786801F034FB0346C5
:1030900018460837BD4680BD80B58AB002AFF860DB
:1030A000B9603B601346FB80FB68D3F88030202B6F
:1030B00040F08480BB68002B02D0FB88002B01D13C
:1030C00001237CE0FB6893F87C30012B01D10223C3
:1030D00075E0FB68012283F87C20FB680022C3F8BE
:1030E0008820FB682122C3F88020FEF71FF9786151
:1030F000FB68FA88A3F85420FB68FA88A3F85620E6
:10310000FB689B68B3F5805F08D1FB681B69002BE7
:1031100004D10023FB61BB68BB6103E0BB68FB61BA
:103120000023BB61FB68002283F87C202DE03B6814
:1031300000937B6900228021F86801F024FB03469C
:10314000002B01D003233AE0FB69002B0BD1BB69B4
:103150001A88FB681B68C2F3080292B21A85BB6921
:103160000233BB6108E0FB691A78FB681B6892B206
:103170001A85FB690133FB61FB68B3F856309BB2DB
:10318000013B9AB2FB68A3F85620FB68B3F85630AF
:103190009BB2002BCBD13B6800937B69002240217E
:1031A000F86801F0F0FA0346002B01D0032306E093
:1031B000FB682022C3F88020002300E00223184689
:1031C0002037BD4680BD00002DE9F04F8DB000AF27
:1031D000F86000237B62002387F823300023FB6123
:1031E000FB689A68FB681B691A43FB685B691A43B2
:1031F000FB68DB691343FB62FB685B6EFA6A13438F
:10320000FB62FB681B681A68AA4B1340FA681268D5
:10321000F96A0B431360FB681B685B6823F4405139
:10322000FB68DA68FB681B680A435A60FB689B69A5
:10323000FB62FB681B68A04A934204D0FB681B6AD0
:10324000FA6A1343FB62FB681B689B6823F06E43BA
:1032500023F43063FA681268F96A0B439360FB68E1
:103260001B68DB6A23F00F01FB685A6AFB681B6866
:103270000A43DA62FB681B68904A934227D1904B5D
:10328000D3F8883003F00303032B1BD801A252F8B4
:1032900023F000BFA5320008B5320008AD320008A7
:1032A000BD320008012387F82B3016E1022387F88E
:1032B0002B3012E1042387F82B300EE1082387F826
:1032C0002B300AE1102387F82B3000BF05E1FB68A3
:1032D0001B687C4A934238D1794BD3F8883003F08D
:1032E0000C030C2B2CD801A252F823F02133000838
:1032F00041330008413300084133000831330008EE
:1033000041330008413300084133000829330008E5
:1033100041330008413300084133000839330008C5
:10332000002387F82B30D8E0022387F82B30D4E035
:10333000042387F82B30D0E0082387F82B30CCE02B
:10334000102387F82B3000BFC7E0FB681B685E4A7C
:10335000934225D15A4BD3F8883003F03003102B19
:1033600011D0102B02D8002B05D014E0202B06D052
:10337000302B0CD00FE0002387F82B30ADE0022378
:1033800087F82B30A9E0042387F82B30A5E0082329
:1033900087F82B30A1E0102387F82B3000BF9CE08A
:1033A000FB681B68494A934225D1454BD3F88830C6
:1033B00003F0C003402B11D0402B02D8002B05D0C6
:1033C00014E0802B06D0C02B0CD00FE0002387F830
:1033D0002B3082E0022387F82B307EE0042387F82D
:1033E0002B307AE0082387F82B3076E0102387F81B
:1033F0002B3000BF71E0FB681B68354A934229D12E
:103400002F4BD3F8883003F44073B3F5807F14D08A
:10341000B3F5807F02D8002B07D016E0B3F5007F0C
:1034200007D0B3F5407F0CD00FE0002387F82B3096
:1034300053E0022387F82B304FE0042387F82B302A
:103440004BE0082387F82B3047E0102387F82B3018
:1034500000BF42E0FB681B68174A93423AD1184B01
:10346000D3F8883003F44063B3F5806F14D0B3F51C
:10347000806F02D8002B07D016E0B3F5006F07D09D
:10348000B3F5406F0CD00FE0002387F82B3024E019
:10349000022387F82B3020E0042387F82B301CE030
:1034A000082387F82B3018E0102387F82B3000BF53
:1034B00013E000BFF369FFCF0080004000380140F7
:1034C000001002400044004000480040004C004012
:1034D00000500040102387F82B30FB681B68864A99
:1034E000934240F0258497F82B30082B00F273812B
:1034F00001A252F823F000BF1D350008D73700089D
:10350000BF350008D737000857360008D7370008FE
:10351000D7370008D737000829370008FFF70EF81B
:103520000246FB685B6A002B44D0FB685B6A012B98
:103530003ED0FB685B6A022B38D0FB685B6A032BCA
:1035400032D0FB685B6A042B2CD0FB685B6A052BCE
:1035500026D0FB685B6A062B20D0FB685B6A072BD2
:103560001AD0FB685B6A082B14D0FB685B6A092BD6
:103570000ED0FB685B6A0A2B08D0FB685B6A0B2BDA
:1035800002D14FF4807316E0012314E0802312E08F
:10359000402310E020230EE010230CE00C230AE06F
:1035A0000A2308E0082306E0062304E0042302E0DF
:1035B000022300E00123B2FBF3F3FB610FE1FB68A0
:1035C0005B6A002B44D0FB685B6A012B3ED0FB6832
:1035D0005B6A022B38D0FB685B6A032B32D0FB6836
:1035E0005B6A042B2CD0FB685B6A052B26D0FB683A
:1035F0005B6A062B20D0FB685B6A072B1AD0FB683E
:103600005B6A082B14D0FB685B6A092B0ED0FB6841
:103610005B6A0A2B08D0FB685B6A0B2B02D14FF266
:10362000244316E0354B14E0354B12E0354B10E0E7
:10363000354B0EE0354B0CE0354B0AE0354B08E0DE
:10364000354B06E0354B04E0354B02E0354B00E0EE
:103650002A4BFB61C3E0FEF7DDFE0246FB685B6AB6
:10366000002B44D0FB685B6A012B3ED0FB685B6A91
:10367000022B38D0FB685B6A032B32D0FB685B6A95
:10368000042B2CD0FB685B6A052B26D0FB685B6A99
:10369000062B20D0FB685B6A072B1AD0FB685B6A9D
:1036A000082B14D0FB685B6A092B0ED0FB685B6AA1
:1036B0000A2B08D0FB685B6A0B2B02D14FF4807396
:1036C00016E0012314E0802312E0402310E02023C1
:1036D0000EE010230CE00C230AE00A2308E0082384
:1036E00006E0062304E0042302E0022300E00123B5
:1036F000B2FBF3F3FB6172E0008000400024F400B1
:1037000048E8010090D0030020A1070040420F00CC
:1037100055581400006A180080841E00AAB02800C2
:1037200000093D0000127A00FB685B6A002B4ED056
:10373000FB685B6A012B47D0FB685B6A022B40D0B9
:10374000FB685B6A032B39D0FB685B6A042B32D0C1
:10375000FB685B6A052B2BD0FB685B6A062B24D0C9
:10376000FB685B6A072B1DD0FB685B6A082B16D0D1
:10377000FB685B6A092B0FD0FB685B6A0A2B08D0D9
:10378000FB685B6A0B2B01D1802322E04FF40043DE
:103790001FE04FF480731CE04FF4007319E04FF406
:1037A000806316E04FF4006313E040F6AA2310E0B4
:1037B00040F6CC430DE04FF480530AE041F25553FC
:1037C00007E04FF4005304E04FF4804301E04FF46E
:1037D0000043FB6103E0012387F8233000BFFB694E
:1037E000002B00F0BC86FB685A6813465B0013444C
:1037F000FA699A4205D3FB685B681B03FA699A422F
:1038000004D9012387F8233000F0A9BE97F82B30A4
:10381000082B00F2768201A252F823F0413800080A
:10382000033D000881390008033D0008773A00088D
:10383000033D0008033D0008033D0008B53B0008B8
:10384000FEF77CFEB861BB6918464FF00001FB68CB
:103850005B6A002B67D0FB685B6A012B5ED0FB685C
:103860005B6A022B55D0FB685B6A032B4CD0FB686C
:103870005B6A042B43D0FB685B6A052B3AD0FB687C
:103880005B6A062B31D0FB685B6A072B28D0FB688C
:103890005B6A082B1FD0FB685B6A092B16D0FB689C
:1038A0005B6A0A2B0DD0FB685B6A0B2B04D14FF4CB
:1038B00080734FF000043AE04FF001034FF0000432
:1038C00035E04FF080034FF0000430E04FF040034C
:1038D0004FF000042BE04FF020034FF0000426E0EF
:1038E0004FF010034FF0000421E04FF00C034FF0B5
:1038F00000041CE04FF00A034FF0000417E04FF003
:1039000008034FF0000412E04FF006034FF00004EC
:103910000DE04FF004034FF0000408E04FF0020305
:103920004FF0000403E04FF001034FF000041A468B
:103930002346FDF713F803460C46194622464FF07E
:1039400000034FF00004140244EA11640B02FA6809
:103950005268520811464FF000025818386044EB84
:1039600002037B60FB685B684FF000041A46234645
:10397000D7E90001FCF7F2FF03460C467B62C4E185
:10398000FB685B6A002B5BD0FB685B6A012B53D042
:10399000FB685B6A022B4BD0FB685B6A032B43D04E
:1039A000FB685B6A042B3BD0FB685B6A052B33D05A
:1039B000FB685B6A062B2BD0FB685B6A072B23D066
:1039C000FB685B6A082B1BD0FB685B6A092B13D072
:1039D000FB685B6A0A2B0BD0FB685B6A0B2B03D17D
:1039E000AD4B4FF000042EE0AC4B4FF000042AE04A
:1039F000AB4B4FF0000426E0AA4B4FF0000422E04E
:103A0000A94B4FF000041EE0A84B4FF000041AE051
:103A10009DA4D4E9003416E0A54B4FF0000412E059
:103A2000A44B4FF000040EE099A4D4E900340AE05E
:103A3000A14B4FF0000406E0A04B4FF0000402E061
:103A4000964B4FF00004FA685268520811464FF046
:103A5000000213EB010A44EB020BFB685B684FF0BA
:103A600000041A46234650465946FCF777FF0346A2
:103A70000C467B6249E1FEF7CDFCB861BB69184694
:103A80004FF00001FB685B6A002B67D0FB685B6A44
:103A9000012B5ED0FB685B6A022B55D0FB685B6A2A
:103AA000032B4CD0FB685B6A042B43D0FB685B6A3A
:103AB000052B3AD0FB685B6A062B31D0FB685B6A4A
:103AC000072B28D0FB685B6A082B1FD0FB685B6A5A
:103AD000092B16D0FB685B6A0A2B0DD0FB685B6A6A
:103AE0000B2B04D14FF480734FF000043AE04FF0F9
:103AF00001034FF0000435E04FF080034FF0000465
:103B000030E04FF040034FF000042BE04FF0200373
:103B10004FF0000426E04FF010034FF0000421E0C6
:103B20004FF00C034FF000041CE04FF00A034FF07D
:103B3000000417E04FF008034FF0000412E04FF0CC
:103B400006034FF000040DE04FF004034FF00004B3
:103B500008E04FF002034FF0000403E04FF00103D0
:103B60004FF000041A462346FCF7F8FE03460C46C5
:103B7000194622464FF000034FF00004140244EAB5
:103B800011640B02FA685268520811464FF00002A5
:103B900013EB010844EB0209FB685B684FF000047B
:103BA0001A46234640464946FCF7D8FE03460C46D3
:103BB0007B62AAE0FB685B6A002B00F08780FB68F1
:103BC0005B6A012B5BD0FB685B6A022B52D0FB68FF
:103BD0005B6A032B4AD0FB685B6A042B41D0FB680D
:103BE0005B6A052B39D0FB685B6A062B31D0FB681A
:103BF0005B6A072B28D0FB685B6A082B1FD0FB6829
:103C00005B6A092B16D0FB685B6A0A2B0DD0FB6838
:103C10005B6A0B2B04D14FF400434FF0000459E0D2
:103C20004FF400034FF0000454E04FF480334FF0A2
:103C300000044FE04FF400334FF000044AE04FF42B
:103C400080234FF0000445E04FF400234FF00004C0
:103C500040E01B4B4FF000043CE01A4B4FF00004D7
:103C600038E04FF480134FF0000433E0164B4FF070
:103C700000042FE04FF400134FF000042AE04FF44B
:103C800080034FF0000425E00055581400000000A8
:103C900000AAB028000000000024F400000024F472
:103CA0000048E8010090D0030020A1070040420F27
:103CB00000006A180080841E0000093D0000127A8E
:103CC00000AA0A0000CC0C00005515004FF40003B8
:103CD0004FF00004FA685268520811464FF0000293
:103CE0005D1844EB0206FB685B684FF000041A465F
:103CF000234628463146FCF731FE03460C467B62DC
:103D000003E0012387F8233000BF7B6AB3F5407FCF
:103D100009D37B6AB3F5801F05D2FB681B687A6AFA
:103D2000DA6000F01CBC012387F8233000F017BCD8
:103D3000FB68DB69B3F5004F40F0058297F82B3044
:103D4000082B00F2DE8101A252F823F0713D000839
:103D5000293E0008E13E000803410008893F0008B1
:103D600003410008034100080341000841400008E6
:103D7000FEF7E4FBB861FB685B6A002B44D0FB688C
:103D80005B6A012B3ED0FB685B6A022B38D0FB6874
:103D90005B6A032B32D0FB685B6A042B2CD0FB6878
:103DA0005B6A052B26D0FB685B6A062B20D0FB687C
:103DB0005B6A072B1AD0FB685B6A082B14D0FB6880
:103DC0005B6A092B0ED0FB685B6A0A2B08D0FB6884
:103DD0005B6A0B2B02D14FF4807316E0012314E0D1
:103DE000802312E0402310E020230EE010230CE09B
:103DF0000C230AE00A2308E0082306E0062304E077
:103E0000042302E0022300E00123BA69B2FBF3F3CA
:103E10005A00FB685B685B081A44FB685B68B2FB8E
:103E2000F3F39BB27B6270E1FEF79EFBB861FB6827
:103E30005B6A002B44D0FB685B6A012B3ED0FB68B9
:103E40005B6A022B38D0FB685B6A032B32D0FB68BD
:103E50005B6A042B2CD0FB685B6A052B26D0FB68C1
:103E60005B6A062B20D0FB685B6A072B1AD0FB68C5
:103E70005B6A082B14D0FB685B6A092B0ED0FB68C9
:103E80005B6A0A2B08D0FB685B6A0B2B02D14FF4EC
:103E9000807316E0012314E0802312E0402310E039
:103EA00020230EE010230CE00C230AE00A2308E094
:103EB000082306E0062304E0042302E0022300E0D6
:103EC0000123BA69B2FBF3F35A00FB685B685B0835
:103ED0001A44FB685B68B2FBF3F39BB27B6214E1AC
:103EE000FB685B6A002B43D0FB685B6A012B3DD00B
:103EF000FB685B6A022B37D0FB685B6A032B31D00F
:103F0000FB685B6A042B2BD0FB685B6A052B25D012
:103F1000FB685B6A062B1FD0FB685B6A072B19D016
:103F2000FB685B6A082B13D0FB685B6A092B0DD01A
:103F3000FB685B6A0A2B07D0FB685B6A0B2B01D11D
:103F40008E4B16E08E4B14E08E4B12E08E4B10E041
:103F50008E4B0EE08E4B0CE08E4B0AE08E4B08E051
:103F60008E4B06E08E4B04E08E4B02E08E4B00E061
:103F7000834BFA68526852081A44FB685B68B2FBCC
:103F8000F3F39BB27B62C0E0FEF744FAB861FB68D2
:103F90005B6A002B44D0FB685B6A012B3ED0FB6858
:103FA0005B6A022B38D0FB685B6A032B32D0FB685C
:103FB0005B6A042B2CD0FB685B6A052B26D0FB6860
:103FC0005B6A062B20D0FB685B6A072B1AD0FB6864
:103FD0005B6A082B14D0FB685B6A092B0ED0FB6868
:103FE0005B6A0A2B08D0FB685B6A0B2B02D14FF48B
:103FF000807316E0012314E0802312E0402310E0D8
:1040000020230EE010230CE00C230AE00A2308E032
:10401000082306E0062304E0042302E0022300E074
:104020000123BA69B2FBF3F35A00FB685B685B08D3
:104030001A44FB685B68B2FBF3F39BB27B6264E0FB
:10404000FB685B6A002B4FD0FB685B6A012B48D092
:10405000FB685B6A022B41D0FB685B6A032B3AD09A
:10406000FB685B6A042B33D0FB685B6A052B2CD0A2
:10407000FB685B6A062B25D0FB685B6A072B1ED0AA
:10408000FB685B6A082B17D0FB685B6A092B10D0B2
:10409000FB685B6A0A2B09D0FB685B6A0B2B02D1B9
:1040A0004FF4807322E04FF480331FE04FF400732D
:1040B0001CE04FF4806319E04FF4006316E04FF406
:1040C000805313E041F2545310E041F698130DE091
:1040D0004FF400530AE042F6AA2307E04FF480436E
:1040E00004E04FF4004301E04FF48033FA68526873
:1040F00052081A44FB685B68B2FBF3F39BB27B6225
:1041000003E0012387F8233000BF7B6A0F2B16D909
:104110007B6AB3F5803F12D27B6A9BB223F00F0318
:10412000FB827B6A5B089BB203F007039AB2FB8AAF
:104130001343FB82FB681B68FA8ADA600FE20123F3
:1041400087F823300BE297F82B30082B00F2F4812C
:1041500001A252F823F000BFAD41000863420008FD
:104160001943000839450008C343000839450008D1
:1041700039450008394500087944000848E801003D
:104180000048E80190D0030020A1070040420F0042
:1041900080841E00AAB0280000D4300000093D0031
:1041A0005461510000127A000024F400FEF7C6F9B1
:1041B000B861FB685B6A002B44D0FB685B6A012B2B
:1041C0003ED0FB685B6A022B38D0FB685B6A032B2E
:1041D00032D0FB685B6A042B2CD0FB685B6A052B32
:1041E00026D0FB685B6A062B20D0FB685B6A072B36
:1041F0001AD0FB685B6A082B14D0FB685B6A092B3A
:104200000ED0FB685B6A0A2B08D0FB685B6A0B2B3D
:1042100002D14FF4807316E0012314E0802312E0F2
:10422000402310E020230EE010230CE00C230AE0D2
:104230000A2308E0082306E0062304E0042302E042
:10424000022300E00123BA69B2FBF3F2FB685B686A
:104250005B081A44FB685B68B2FBF3F39BB27B62BA
:104260006EE1FEF781F9B861FB685B6A002B44D010
:10427000FB685B6A012B3ED0FB685B6A022B38D07F
:10428000FB685B6A032B32D0FB685B6A042B2CD083
:10429000FB685B6A052B26D0FB685B6A062B20D087
:1042A000FB685B6A072B1AD0FB685B6A082B14D08B
:1042B000FB685B6A092B0ED0FB685B6A0A2B08D08F
:1042C000FB685B6A0B2B02D14FF4807316E001236D
:1042D00014E0802312E0402310E020230EE010239E
:1042E0000CE00C230AE00A2308E0082306E006237A
:1042F00004E0042302E0022300E00123BA69B2FBD8
:10430000F3F2FB685B685B081A44FB685B68B2FB0E
:10431000F3F39BB27B6213E1FB685B6A002B44D032
:10432000FB685B6A012B3ED0FB685B6A022B38D0CE
:10433000FB685B6A032B32D0FB685B6A042B2CD0D2
:10434000FB685B6A052B26D0FB685B6A062B20D0D6
:10435000FB685B6A072B1AD0FB685B6A082B14D0DA
:10436000FB685B6A092B0ED0FB685B6A0A2B08D0DE
:10437000FB685B6A0B2B02D14FF2244316E0824BA1
:1043800014E0824B12E0824B10E0824B0EE0824B35
:104390000CE0824B0AE0824B08E0824B06E0824B45
:1043A00004E0824B02E0824B00E0774BFA685268EF
:1043B00052081A44FB685B68B2FBF3F39BB27B6262
:1043C000BEE0FEF727F8B861FB685B6A002B44D0BB
:1043D000FB685B6A012B3ED0FB685B6A022B38D01E
:1043E000FB685B6A032B32D0FB685B6A042B2CD022
:1043F000FB685B6A052B26D0FB685B6A062B20D026
:10440000FB685B6A072B1AD0FB685B6A082B14D029
:10441000FB685B6A092B0ED0FB685B6A0A2B08D02D
:10442000FB685B6A0B2B02D14FF4807316E001230B
:1044300014E0802312E0402310E020230EE010233C
:104440000CE00C230AE00A2308E0082306E0062318
:1044500004E0042302E0022300E00123BA69B2FB76
:10446000F3F2FB685B685B081A44FB685B68B2FBAD
:10447000F3F39BB27B6263E0FB685B6A002B4ED078
:10448000FB685B6A012B47D0FB685B6A022B40D05C
:10449000FB685B6A032B39D0FB685B6A042B32D064
:1044A000FB685B6A052B2BD0FB685B6A062B24D06C
:1044B000FB685B6A072B1DD0FB685B6A082B16D074
:1044C000FB685B6A092B0FD0FB685B6A0A2B08D07C
:1044D000FB685B6A0B2B01D1802322E04FF4004381
:1044E0001FE04FF480731CE04FF4007319E04FF4A9
:1044F000806316E04FF4006313E040F6AA2310E057
:1045000040F6CC430DE04FF480530AE041F255539E
:1045100007E04FF4005304E04FF4804301E04FF410
:104520000043FA68526852081A44FB685B68B2FBA1
:10453000F3F39BB27B6203E0012387F8233000BFD3
:104540007B6A0F2B08D97B6AB3F5803F04D2FB68E6
:104550001B687A6ADA6002E0012387F82330FB687F
:104560000122A3F86A20FB680122A3F86820FB68F7
:104570000022DA66FB6800221A6797F82330184693
:104580003437BD46BDE8F08F0024F40048E8010050
:1045900090D0030020A1070040420F00555814009E
:1045A000006A180080841E00AAB0280000093D009F
:1045B00000127A0080B483B000AF78607B689B6A99
:1045C00003F00103002B0AD07B681B685B6823F4AF
:1045D00000317B68DA6A7B681B680A435A607B6833
:1045E0009B6A03F00203002B0AD07B681B685B68A0
:1045F00023F480317B681A6B7B681B680A435A601E
:104600007B689B6A03F00403002B0AD07B681B685D
:104610005B6823F480217B685A6B7B681B680A43C4
:104620005A607B689B6A03F00803002B0AD07B6802
:104630001B685B6823F400417B689A6B7B681B688E
:104640000A435A607B689B6A03F01003002B0AD070
:104650007B681B689B6823F480517B68DA6B7B68FE
:104660001B680A439A607B689B6A03F02003002B57
:104670000AD07B681B689B6823F400517B681A6C26
:104680007B681B680A439A607B689B6A03F040035F
:10469000002B1AD07B681B685B6823F480117B6851
:1046A0005A6C7B681B680A435A607B685B6CB3F585
:1046B000801F0AD17B681B685B6823F4C0017B689C
:1046C0009A6C7B681B680A435A607B689B6A03F09C
:1046D0008003002B0AD07B681B685B6823F40021F1
:1046E0007B68DA6C7B681B680A435A6000BF0C3732
:1046F000BD4680BC704780B586B002AF78607B68ED
:104700000022C3F88820FCF711FEF8607B681B6864
:104710001B6803F00803082B0ED16FF07E43009353
:10472000FB6800224FF40011786800F02CF8034673
:10473000002B01D0032322E07B681B681B6803F079
:104740000403042B0ED16FF07E430093FB6800221C
:104750004FF48001786800F016F80346002B01D072
:1047600003230CE07B682022C3F880207B68202292
:10477000C3F884207B68002283F87C20002318463D
:104780001037BD4680BD80B584B000AFF860B96019
:104790003B601346FB7162E0BB69B3F1FF3F5ED043
:1047A000FCF7C4FD02463B68D31ABA699A4202D3A9
:1047B000BB69002B1DD1FB681B681A68FB681B686E
:1047C00022F4D0721A60FB681B689A68FB681B6849
:1047D00022F001029A60FB682022C3F88020FB6867
:1047E0002022C3F88420FB68002283F87C20032366
:1047F00045E0FB681B681B6803F00403002B2ED008
:10480000FB681B68DB6903F40063B3F5006F26D116
:10481000FB681B684FF400621A62FB681B681A6829
:10482000FB681B6822F4D0721A60FB681B689A68E8
:10483000FB681B6822F001029A60FB682022C3F823
:104840008020FB682022C3F88420FB682022C3F864
:104850008820FB68002283F87C2003230FE0FB689C
:104860001B68DA69BB681340BA689A420CBF01231F
:104870000023DBB21A46FB799A428DD000231846FA
:104880001037BD4680BD00002DE9F047089E044664
:104890008846002B40F085808A42154648D9B2FAF6
:1048A00082F24AB1C2F1200701FA02F320FA07F7B7
:1048B000954047EA030894404FEA154E230CB8FB95
:1048C000FEF71FFA85FC0EFB178843EA084307FB37
:1048D0000CF1994209D9EB1807F1FF3080F0E38021
:1048E000994240F2E080023F2B445B1AA4B2B3FB32
:1048F000FEF00EFB103344EA034400FB0CFCA4451D
:1049000009D92C1900F1FF3380F0CB80A44540F287
:10491000C88002382C4440EA0740A4EB0C0400276E
:104920001EB1D4400023C6E900433946BDE8F087F4
:10493000002A53D0B2FA82F2002A40F0B680491B16
:104940004FEA154E1FFA85F80127B1FBFEFC230C38
:104950000EFB1C1143EA014308FB0CF1994207D9F5
:10496000EB180CF1FF3002D2994200F2EC80844641
:10497000591AA3B2B1FBFEF00EFB101443EA044433
:1049800008FB00F8A04507D92C1900F1FF3302D22B
:10499000A04500F2DC801846A4EB080440EA0C4075
:1049A000BEE78B4208D9002E78D00027C6E9000167
:1049B00038463946BDE8F087B3FA83F77FB98B42B2
:1049C00002D3824200F2BD80841A61EB030301200E
:1049D0009846002EA9D0C6E90048A6E7FFDEC7F139
:1049E0002005BB4022FA05FC4CEA030C01FA07F44F
:1049F00020FA05F821FA05F34FEA1C4E48EA0404B0
:104A0000B3FBFEF9210C0EFB19331FFA8CF841EAB7
:104A1000034309FB08FA9A4502FA07F200FA07F184
:104A20000BD91CEB030309F1FF3080F088809A4515
:104A300040F28580A9F102096344A3EB0A03A4B202
:104A4000B3FBFEF00EFB103344EA034400FB08F80E
:104A5000A04508D91CEB040400F1FF336BD2A0453C
:104A600069D90238644440EA0940A4EB0804A0FB79
:104A700002894C45C6464B4654D351D0002E69D0CE
:104A8000B1EB0E0264EB030404FA05F522FA07F316
:104A9000FC401D43C6E90054002746E73746304630
:104AA00043E7184637E707461FE7C2F1200320FA1D
:104AB00003F7954001FA02F021FA03F34FEA154E8D
:104AC0003843010CB3FBFEF71FFA85F80EFB1733D2
:104AD00041EA034107FB08F38B4204FA02F407D9C9
:104AE000691807F1FF3C28D28B4226D9023F29449E
:104AF000CB1A81B2B3FBFEF00EFB103341EA034147
:104B000000FB08F38B4207D9691800F1FF3C10D273
:104B10008B420ED902382944C91A40EA074714E7E4
:104B20004145ABD2B8EB020E69EB0C0201381346DB
:104B3000A4E76046F0E7184695E76746D8E7814660
:104B40007BE7384645E7ACF1020C2B4410E702380E
:104B50002C4421E73746E8E6014B1868704700BF50
:104B60001000002070B50D4D0D4C641BA4100026E4
:104B7000A64209D10B4D0C4C02F034F8641BA41072
:104B80000026A64205D170BD55F8043B9847013672
:104B9000EEE755F8043B98470136F2E7C86E000887
:104BA000C86E0008C86E0008CC6E000802440346B8
:104BB000934200D1704703F8011BF9E72DE9F04754
:104BC00088B0002B149F109DDDF84CA01E461446A3
:104BD000B8BF03F10043129A27F02007B6BF1E4664
:104BE00000232D23462F137004D0452F00D101350B
:104BF000022300E0032307AA049206AACDE902A239
:104C0000CDE900352246334600F0BEFC472F8046F2
:104C100002D1119BDB0722D5462F08EB050911D1E4
:104C200098F80030302B0AD100220023204631466C
:104C3000FBF75CFF18B9C5F10105CAF80050DAF8B6
:104C4000003099440022002320463146FBF74EFFF6
:104C500008B1CDF81C903022079B4B4508D3079B29
:104C6000159AA3EB08034046136008B0BDE8F0872F
:104C7000591C07911A70EFE7F7B50029BABF4942EE
:104C80002D232B2309290270437021DD0DF1070329
:104C90001F460A2691FBF6F206FB121430346329F4
:104CA00003F1FF3503F8014C0ADC303205F8012C22
:104CB000023B821CBB42144605D3201A03B0F0BD50
:104CC0002B461146E6E713F8011B02F8011BF1E73A
:104CD000302319448370041DC170EEE72DE9F04FB5
:104CE00091B00C461A9F93461E46054601F0FAF90C
:104CF000036809931846FBF74BFE00230E933B68AD
:104D00000A90073323F0070303F1080294F8188090
:104D1000D4F800A03A60D3E90023C4E91223D4E90F
:104D2000127929F000430B934FF0FF32A84B0B99F7
:104D30003846FBF70DFF68BB4FF0FF32A44B0B99D1
:104D40003846FBF7E7FE28BB0022002338464946D9
:104D5000FBF7D6FE10B12D2384F843309D4F9E4BB8
:104D6000B8F1470F88BF1F46032323612AF00403CD
:104D700023604FF0000900965B460FAA21462846A3
:104D800000F0CEF9013040F093804FF0FF3011B0C9
:104D9000BDE8F08F3A464B4638464946FBF7D8FE09
:104DA00060B10022002338464946FBF7A9FE10B146
:104DB0002D2384F84330894F894BD1E763685A1C0F
:104DC00008F0DF0142D106236360002206920EAA9A
:104DD000CDE904820DAA4AF4806303920DF13302F7
:104DE000CDE901322360636800933A464B4628467A
:104DF0000B91FFF7E3FE0B99472907460D9908D160
:104E0000C81C02DB6368994240DDA8F102085FFA22
:104E100088F8B8F1650F1FD80139424604F15000F7
:104E20000D91FFF729FF0E9A1318012A814623617D
:104E300002DC2268D20701D5013323619DF83330AB
:104E4000002B98D02D2384F8433094E74729BCD118
:104E5000002BBAD10123B7E7B8F1660F18D10029AA
:104E600063680BDD216113B92268D00702D50133D5
:104E70000B442361A1654FF00009DFE713B92268F5
:104E8000D20701D50233F4E70123F2E74FF06708B8
:104E90000E9B994205DB23682161D807EAD54B1C9C
:104EA000E7E70029D4BFC1F1020201221344E0E781
:104EB00023685A0507D423693A4659462846B0471D
:104EC000013029D161E7B8F1650F40F2D8800022A6
:104ED0000023D4E91201FBF709FE88B30123414AFC
:104EE00059462846B04701303FF44FAFDDE90D2366
:104EF0009A4202DB2368D8070ED5DDE9092359461B
:104F00002846B04701303FF440AF002704F11A08AB
:104F10000E9B013BBB4209DC23689F0700F1FB802D
:104F2000E0680F9B9842B8BF184630E7012342461D
:104F300059462846B04701303FF427AF0137E7E72D
:104F40000D9B002B2BDC0123264A59462846B047EF
:104F500001303FF41AAFDDE90D23134302D123687A
:104F6000D907D9D5DDE9092359462846B04701308C
:104F70003FF40BAF4FF0000804F11A090D9B5B42A0
:104F8000434501DC0E9B97E701234A4659462846D4
:104F9000B04701303FF4F9AE08F10108EEE70E9A90
:104FA000A36D9A42A8BF1A46002A904607DD134611
:104FB00059463A462846B04701303FF4E6AE04F180
:104FC0001A034FF0000A28EAE8780B9316E000BFB6
:104FD000FFFFEF7F646C0008686C00086C6C0008D1
:104FE000706C0008746C000801230B9A594628461F
:104FF000B04701303FF4C9AE0AF1010AD4F8589025
:10500000A9EB08035345EFDCDDE90D239A421ADBD7
:105010002368DA0717D4DDE90D2391451BDBA3EBE9
:105020000908B8F1000F08DD434607EB09025946AD
:105030002846B04701303FF4A8AE002728EAE878B8
:1050400004F11A0913E0DDE9092359462846B0475F
:105050000130E0D199E6A3EB0208E2E701234A46DA
:1050600059462846B04701303FF48FAE0137DDE99D
:105070000D239B1AA3EB0803BB42EFDC4CE70E9A0F
:10508000012A01DCDB0734D501233A46594628467C
:10509000B04701303FF479AEDDE90923594628468F
:1050A000B04701303FF471AE00220023D4E9120171
:1050B000FBF71CFDC8B90E9B7A1C013B59462846DC
:1050C000B04701300DD160E60123424659462846DB
:1050D000B04701303FF459AE01370E9B013BBB4254
:1050E000F2DC4B4604F15002E7E6002704F11A080F
:1050F000F3E701233A46E1E70123424659462846B1
:10510000B04701303FF441AE0137E3680F9A9B1A74
:10511000BB42F1DC04E7002704F11908F5E700BF02
:105120002DE9F04791461F468A680B69DDF820801B
:105130009342B8BF1346C9F8003091F843200646A1
:105140000C4612B10133C9F800302368990642BFFA
:10515000D9F800300233C9F80030256815F006058B
:1051600007D104F1190AE368D9F800209B1AAB4271
:1051700028DC94F843302268003318BF01239206DC
:105180002DD404F1430239463046C047013020D0C7
:105190002368E568D9F8002003F00603042B08BF54
:1051A000AD1AA36822690CBF25EAE5750025934274
:1051B000C4BF9B1AED184FF000091A344D451AD19F
:1051C000002008E00123524639463046C0470130EE
:1051D00003D14FF0FF30BDE8F0870135C3E7E11898
:1051E0005A1C302081F84300224494F8451082F87C
:1051F00043100233C5E70123224639463046C047F3
:105200000130E6D009F10109D8E700002DE9F043AB
:1052100006460C4601F14300097E85B06E2998468A
:1052200017460C9B00F0BA8024D8632939D00AD8DD
:10523000002900F0C380582900F0918004F1420554
:1052400084F8421035E0642901D06929F6D1256837
:105250001A6815F0800F02F104012CD01268196051
:10526000002A03DA2D23524284F84330DFF8BCC110
:105270000A233FE0732900F0A58008D86F2921D0C8
:105280007029DBD1226842F02002226003E07529F8
:1052900018D07829D2D1782284F84520DFF890C13F
:1052A00061E01A68111D1960136884F8423004F136
:1052B0004205012393E01268196015F0400F18BFF2
:1052C00012B2CDE7D4F800C01A681CF0800F02F1CA
:1052D00004051D6001D0126803E01CF0400FFAD0F5
:1052E0001288DFF848C16F290CBF08230A23002168
:1052F00084F843106568A560002DA2BF216821F0E5
:10530000040121600AB9002D46D00546B2FBF3F135
:1053100003FB112E93421CF80EE005F801ED39D97C
:10532000082B0BD12368DA0708D5236962689A42F3
:10533000DEBF302305F8013C05F1FF35401B20613D
:10534000CDF800803B4603AA21463046FFF7E8FE31
:10535000013049D14FF0FF3005B0BDE8F083DFF8F0
:10536000CCC084F845101D68216855F8042B1D60D9
:105370000D060BD5CD0744BF41F0200121601AB9BD
:10538000236823F0200323601023B0E74B0648BFB7
:1053900092B2EFE70A46B9E70546C1E71A68D4F8C2
:1053A00000C06169151D1D601CF0800F136801D0DD
:1053B000196003E01CF0400FFAD01980002323612C
:1053C0000546BDE71A68111D19601568626800215D
:1053D0002846FBF7E5FA08B1401B6060636823616B
:1053E000002384F84330ABE723692A463946304628
:1053F000C0470130AED023689B0713D4E068039BFD
:105400009842B8BF1846A7E701234A4639463046B6
:10541000C04701309ED00135E368039A9B1AAB4226
:10542000F2DCEBE7002504F11909F5E7766C0008DA
:10543000876C00080EB400B59CB01DAB02900690BE
:105440006FF00041094807910491094953F8042B72
:1054500005910068019302A901F046FA029B00221F
:105460001A701CB05DF804EB03B070471000002008
:105470000802FFFF2DE9F74F03690C69A34280463C
:105480007FDB013C01F11407A00008F114052B1883
:10549000019357F8243055F8242001339A4207EB42
:1054A0000009B2FBF3F631D34FF0000ABC46AE461A
:1054B000D3465CF8042B93B206FB03A34FEA134ACE
:1054C0009BB2ABEB0303120CDEF800B006FB02A2AA
:1054D00013FA8BF34FEA124A1FFA82FBDEF8002020
:1054E000CBEB124202EB23429BB243EA0243E1457B
:1054F0004FEA224B4EF8043BDBD22B5833B9019BC9
:10550000043B9D421A4630D3C8F81040404601F093
:1055100014F8002825DB013628464FF0000C57F818
:10552000042BD0F800E093B2ACEB0303120C13FA97
:105530008EF3C2EB1E4202EB23429BB243EA0243CC
:10554000B9454FEA224C40F8043BE8D255F82420F4
:1055500005EB84032AB9043B9D421A460BD3C8F8D5
:105560001040304603B0BDE8F08F1268043B002ABB
:10557000CAD1013CC5E71268043B002AEFD1013CC7
:10558000EAE70020EEE700002DE9F04F476A97B008
:1055900080461D46239E92469B4647B9102000F048
:1055A000A5FDC0E90177C8F824000760C760D8F8F6
:1055B0002430196859B15A684A60012393408B60BE
:1055C000404600F0DDFDD8F8243000221A602B1E82
:1055D000AABF002323F0004B3360A74BBCBF0122BE
:1055E000326033EA0B035C461AD1229A42F20F73FF
:1055F0001360CBF3130353EA0A0300F05E85249B88
:1056000053B99E4B21E09E4B05930833249A1360B7
:10561000059817B0BDE8F08F984B05930333F5E775
:105620000022002350465946CDE90CABFBF75EFA49
:10563000074660B1229A01231360249B002B00F0DF
:105640003985904B249A1360013B0593E0E714AB36
:10565000019315AB00934046DDE90C2300F0E4FF15
:10566000CBF30A560390002E7FD00D9B1297C3F305
:105670001303DDE90C4543F07F5545F44015A6F2D0
:10568000FF360022804B20462946FAF79DFD74A381
:10569000D3E90023FAF750FF73A3D3E90023FAF705
:1056A00095FD044630460D46FAF7DCFE70A3D3E9BB
:1056B0000023FAF741FF02460B4620462946FAF737
:1056C00085FD04460D46FBF759FA0022814600236A
:1056D00020462946FBF714FA48B14846FAF7C2FEBD
:1056E00022462B46FBF702FA08B909F1FF39B9F156
:1056F000160F57D8654B03EBC903D3E90023DDE947
:105700000C01FBF7FDF900284ED009F1FF39002309
:105710001193149B9E1B731E099345BFC6F1010391
:105720000893002300234CBF09930893B9F1000F9D
:105730003CDB099BCDF840904B44099300230A932E
:10574000209B092B00F2A680052BC4BF043B2093AD
:10575000209BA3F10203CCBF00240124032B00F201
:10576000A480DFE803F02D3A387BDDE914631E44A2
:1057700006F232402028C1BFC0F14000844006F24A
:1057800012402AFA00F0D6BFC0F1200020430AFAE6
:1057900000F0FAF757FE01230446A1F1F875013E27
:1057A00012936EE70123B3E71190B2E7089BA3EBD6
:1057B00009030893C9F100030A9300231093BFE77C
:1057C00000230B93219B002B72DC0123069304938F
:1057D0001A4621920BE00123F3E700230B93219B50
:1057E0004B4406930133012B0493B8BF0123D8F82F
:1057F000245000226A60042202F114009842696871
:105800005AD9404600F088FCD8F8243028601B683C
:105810000593049B0E2B00F2D280002C00F0CF8069
:10582000B9F1000F66DD194A09F00F0302EBC3035B
:10583000D3E90034CDE90E344FEA2914E00657D5F8
:10584000134BDDE90C01D3E90823FAF79FFF04F0BD
:105850000F0482468B4603270D4D3EE00123BDE732
:1058600061436F63A787D23FB3C8608B288AC63F66
:10587000FB799F501344D33F0000F07FA16C0008D8
:10588000986C0008756C00080000F83FD06C0008A8
:10589000A86C00080124002320930B944FF0FF33E1
:1058A000069304930022122393E701230B93F5E759
:1058B000219B069304939AE70131696052009BE7AC
:1058C000E10708D5DDE90E01D5E90023FAF734FE3A
:1058D000CDE90E01013764100835002CF0D1DDE967
:1058E0000E2350465946FAF751FF82468B461AE07E
:1058F0000227B1E700F09D80C9F100049C4B9D4D4B
:1059000004F00F0203EBC203D3E90023DDE90C012D
:10591000FAF712FE241182468B4600230227002C40
:105920007CD1002BE1D1119B002B00F08480002260
:10593000914B504659465D46FBF7E2F800287AD075
:10594000049B002B77D0069B002B36DD5046594632
:1059500000228A4BFAF7F0FD069C09F1FF368246D9
:105960008B4601373846FAF77DFD52465B46FAF71B
:10597000E3FD0022824BFAF729FCA1F15075CDE935
:105980000E010F95002C59D100227E4B50465946EE
:10599000FAF71AFC0E9A2B4682468B46FBF7CEF896
:1059A000002840F088820E9A05F10043504659467F
:1059B000FBF7A6F8002840F07C82DDE90CAB159BD4
:1059C000002BC0F24D81B9F10E0F00F34981684BF5
:1059D00003EBC903D3E90034CDE90634219B002B46
:1059E00080F2D480049B002B00F3D08040F06082D2
:1059F0000022644BDDE90601FAF79EFD52465B4644
:105A0000FBF792F8049C2646002840F03982059D59
:105A1000312305F8013B09F1010935E2E20705D51B
:105A2000D5E90023FAF788FD013701236410083512
:105A300075E7022777E74E46049C93E74C4B03EB50
:105A4000C40353E90201059B1C440B9B002B44D06B
:105A500002460B4600204C49FAF798FEDDE90E237A
:105A6000FAF7B2FBCDE90E01059D59465046FBF70A
:105A700085F80746FAF7F6FC02460B4650465946AB
:105A8000FAF7A2FB303705F8017BDDE90E238246E9
:105A90008B46FBF735F8002860D152465B46002064
:105AA0003549FAF791FBDDE90E23FBF729F80028C9
:105AB00040F0B680A54280D00022304BDDE90E01D7
:105AC000FAF73AFD0022CDE90E012C4B504659461B
:105AD000FAF732FD82468B46C7E7DDE90E23FAF777
