:020000040800F2
:1000000000000A20F1020008410300084103000833
:1000100041030008410300084103000800000000FC
:100020000000000000000000000000004103000884
:10003000410300080000000041030008FD0800081B
:100040004103000841030008410300084103000880
:100050004103000841030008410300084103000870
:100060004103000841030008410300084103000860
:100070004103000841030008410300084103000850
:100080004103000841030008410300084103000840
:100090004103000841030008410300084103000830
:1000A0004103000841030008410300084103000820
:1000B0004103000841030008410300084103000810
:1000C0004103000841030008410300084103000800
:1000D00041030008410300084103000841030008F0
:1000E00041030008410300084103000841030008E0
:1000F000410300084103000841030008000000001C
:1001000041030008410300084103000841030008BF
:1001100041030008410300084103000841030008AF
:10012000410300084103000841030008410300089F
:10013000410300084103000841030008410300088F
:10014000410300084103000841030008410300087F
:10015000410300084103000841030008410300086F
:10016000410300084103000841030008410300085F
:1001700041030008410300080000000000000000E7
:10018000410300084103000841030008410300083F
:1001900041030008410300080000000000000000C7
:1001A00000000000000000004103000841030008B7
:1001B000410300084103000841030008000000005B
:1001C00053B94AB9002908BF00281CBF4FF0FF31BE
:1001D0004FF0FF3000F00CB8ADF1080C6DE904CE23
:1001E00003F0ACFCDDF804E0DDE9022304B0704765
:1001F000704700BF034613F8012B002AFBD1181AE1
:1002000001387047000000000000000000000000FE
:1002100001F0FF01102A2BDB10F0070F08D010F8B7
:10022000013B013A8B422DD010F0070F42B3F6D1BB
:10023000F0B441EA012141EA014122F007047FF0D4
:1002400000070023F0E80256083C85EA010586EA2B
:10025000010685FA47F5A3FA87F586FA47F6A5FA67
:1002600087F68EB9EED1F0BC01F0FF0102F0070273
:1002700032B110F8013B013A83EA010313B1F8D11E
:100280000020704701387047002D06BF35460338FF
:10029000073815F0010F07D1013015F4807F02BF38
:1002A000013015F4C03F0130F0BC0138704700BF89
:1002B00010B5054C237833B9044B13B10448AFF3A0
:1002C00000800123237010BDA0000020000000006A
:1002D000B846000808B5034B1BB103490348AFF308
:1002E000008008BD00000000A4000020B8460008FF
:1002F000DFF834D0002103E00C4B5B58435004314D
:100300000B480C4B42189A42F6D30B4A02E00023EA
:1003100042F8043B094B9A42F9D300F02FFD03F059
:1003200073FD00F0F3FAFEE700000A20C848000859
:1003300000000020A0000020A000002004060020F3
:10034000FEE780B584B000AF78600123FB737B6863
:100350001B79BB73786800F019F803461A46FB7BDB
:100360001340FB73BB7B002B01D0012B09E0002164
:10037000786800F075F803461A46FB7B1340FB7360
:1003800000BFFB7B18461037BD4680BD80B58CB0E2
:1003900000AF7860052387F82F300023FB6007F15A
:1003A000100300221A605A609A60DA601A615A617A
:1003B0009A617B6818684FF0FF330722264901F0E5
:1003C00079FF7B681B681B680C221A627B681B68BC
:1003D0001B681B8B9AB27B681B681B6842F0080283
:1003E00092B21A837B681B681B681B8B9AB27B686E
:1003F0001B681B6842F0100292B21A837B6818686F
:1004000007F10C0141F28833202201F0EAFF97F84E
:100410002F30013B87F82F3007F10C0320211846BD
:1004200000F008FA0346002B04D197F82F30002B78
:1004300000D0B2E797F82F30002B07D07B6801225D
:100440001A71064B00221A70012300E0002318469F
:100450003037BD4680BD00BF28000020D2040020F8
:1004600080B588B000AF78600B46FB707B681B7965
:10047000FA789A4200F0A080524B1B78002B40F093
:100480009B800523FB77FB78002B44D0012B40F0A9
:10049000848000237B610023BB617B6818684FF078
:1004A000FF330722484901F005FF7B681B681B6882
:1004B0000C221A627B681B681B681B8B9AB27B68D4
:1004C0001B681B6842F0080292B21A837B681B68A3
:1004D0001B681B8B9AB27B681B681B6842F010027A
:1004E00092B21A837B68186807F11401322308223C
:1004F00001F077FFFB7F013BFB7707F11403082234
:100500003249184600F0D7F90346002B47D1FB7F4C
:10051000002B44D0BDE70023FB6000233B617B68D8
:1005200018684FF0FF330722294901F0C3FE7B68AA
:100530001B681B680C221A627B681B681B681B8B7C
:100540009AB27B681B681B6842F0080292B21A8359
:100550007B681B681B681B8B9AB27B681B681B68D7
:1005600042F0100292B21A837B68186807F10C01FE
:100570003223082201F035FFFB7F013BFB7707F1B7
:100580000C0308221349184600F095F90346002B86
:1005900007D1FB7F002B04D0BDE700BF02E000BF06
:1005A00000E000BFFB7F002B04D07B68FA781A7153
:1005B000012302E0002300E0012318462037BD4656
:1005C00080BD00BFD20400201800002020000020C1
:1005D000080000201000002080B58CB000AF7860CB
:1005E000924B1B78002B40F01B810023FB6007F12E
:1005F000100300221A605A609A60DA601A615A6128
:100600009A61022387F82F307B681B79002B02D078
:10061000012B40D07BE07B6818684FF0FF33072246
:10062000834901F047FE7B681B681B680C221A6235
:100630007B681B681B681B8B9AB27B681B681B68F6
:1006400042F0080292B21A837B681B681B681B8BFE
:100650009AB27B681B681B6842F0100292B21A8340
:100660007B68186807F10C016423202201F0B9FEB1
:1006700097F82F30013B87F82F3007F10C0320212A
:10068000184600F0D7F80346002B3DD197F82F30DD
:10069000002B39D0BFE77B681B681B680C221A62ED
:1006A0007B681B681B681B8B9AB27B681B681B6886
:1006B00042F0080292B21A837B681B681B681B8B8E
:1006C0009AB27B681B681B6842F0100292B21A83D0
:1006D0007B68186807F10C0140F2DC53202201F01E
:1006E00080FE97F82F30013B87F82F3007F10C037D
:1006F0002021184600F09EF80346002B06D197F8FB
:100700002F30002B02D0C6E700BF00E000BF97F8F3
:100710002F30002B00F082803B7C9BB21B029AB2F0
:100720007B7C9BB213449AB27B68DA80BB7C9BB221
:100730001B029AB2FB7C9BB213449AB27B681A816B
:100740003B7D9BB21B029AB27B7D9BB213449AB253
:100750007B685A81BB7D9BB21B029AB2FB7D9BB228
:1007600013449AB27B689A813B7E9BB21B029AB279
:100770007B7E9BB213449AB27B68DA81BB7E9BB2CC
:100780001B029AB2FB7E9BB213449AB27B681A8218
:100790003B7F9BB21B029AB27B7F9BB213449AB2FF
:1007A0007B685A82BB7F9BB21B029AB2FB7F9BB2D3
:1007B00013449AB27B689A8297F820309BB21B024E
:1007C0009AB297F821309BB213449AB27B68DA82CE
:1007D00097F822309BB21B029AB297F823309BB253
:1007E00013449AB27B681A8397F824309BB21B0299
:1007F0009AB297F825309BB213449AB27B685A8319
:1008000097F826309BB21B029AB297F827309BB21A
:1008100013449AB27B689A83012302E0002300E02C
:10082000002318463037BD4680BD00BFD2040020EB
:100830000000002080B485B000AF78600B46FB70EC
:100840007B681B78422B30D10023FB8100237B8106
:1008500000237B730AE07B7B7A6813441B789AB28F
:10086000FB891344FB817B7B01337B737A7BFB78B1
:10087000033B9A42EFDBFB78023B7A6813441B7818
:100880007B817B891B027B81FB78013B7A68134467
:100890001B789AB27B8913437B81FA897B899A42C0
:1008A00001D1012302E0002300E0002318461437A1
:1008B000BD4680BC704780B487B000AFF860B960B7
:1008C0001346FB710023FB750EE0FB7DFA681344B1
:1008D0001A78FB7DB9680B441B789A4201D000233B
:1008E00007E0FB7D0133FB75FA7DFB799A42ECD37F
:1008F000012318461C37BD4680BC704780B500AF49
:1009000000F0BAFA00F020FC00BF80BDF0B58FB057
:100910000AAF00F05FFA00F091F800F0D9F800F0AB
:1009200009F900F02DF900F063F82C48FFF754FEA8
:100930000346012B41D1294BDB889C46274B1B8961
:100940009E46264B5B891A46244B9B891946234BAE
:10095000DB891846214B1B8A1C46204B5B8A1D46AF
:100960001E4B9B8A1E461D4BDB8AFB601B4B1B8B61
:10097000BB601A4B5B8B7B60184B9B8B09937B682E
:100980000893BB680793FB68069305960495039448
:10099000029001910092734662461149114803F09A
:1009A0005FFA1048FFF726FC03469AB24FF0FF3378
:1009B0000C490D4801F07EFC0AE00C48FFF71AFCD8
:1009C00003469AB24FF0FF330849074801F072FC22
:1009D00041F2883000F06CFAA7E700BFBC000020AD
:1009E000D0460008DC000020D8040020144800088D
:1009F00080B500AF0D4B0E4A1A600C4B00221A71E5
:100A00000A48FFF79EFC0346012B0CD00948FFF76C
:100A1000F1FB03469AB24FF0FF330649064801F056
:100A200049FC00F0D1F800BF80BD00BFBC00002031
:100A30006405002020480008D804002080B596B046
:100A400000AF07F1140344220021184603F000FA16
:100A50003B4600221A605A609A60DA601A610223EB
:100A60007B614FF480733B6240237B6207F1140388
:100A7000184600F033FD0346002B01D000F0A4F827
:100A800001237B600F233B600023BB600023FB60DE
:100A900000233B613B460021184601F00DF9034657
:100AA000002B01D000F090F801F0BCFA0346074A91
:100AB000A2FB03239B09184600F01DFB042000F055
:100AC00027FB00BF5837BD4680BD00BFD34D621025
:100AD00080B500AF154B164A1A60144B4FF41652EE
:100AE0005A60124B00229A60104B0022DA600F4BC2
:100AF00000221A610D4B0C225A610C4B00229A61A4
:100B00000A4B00221A62094B00225A62074B00224C
:100B10009A62064B00225A66044801F07BFB0346AA
:100B2000002B01D000F050F800BF80BDD804002099
:100B30000080004080B500AF0F4B104A1A600E4B8A
:100B40004FF416525A600C4B00229A600A4B002256
:100B5000DA60094B00221A61074B00229A61064BAA
:100B60000C225A61044801F055FB0346002B01D0CA
:100B700000F02AF800BF80BD64050020004400405A
:100B800080B586B000AF0E4BDB6C0D4A43F002031C
:100B9000D3640B4BDB6C03F002033B603B684FF408
:100BA00080437B600123BB600023FB603B1D194633
:100BB000044800F0D5FA00BF1837BD4680BD00BF1D
:100BC000001002400004004880B400AFFEE70000BF
:100BD00080B500AF032000F059FA0D4B5B6A0C4A58
:100BE00043F4E0235362002200216FF00B0000F079
:100BF00058FA002200216FF00A0000F052FA002299
:100C000000216FF0090000F04CFA00BF80BD00BF6A
:100C100000ED00E080B592B000AF78607B681B68A3
:100C20003C4A93423CD13C4B9B6D3B4A43F0805342
:100C30009365394B9B6D03F080533B633B6B00F036
:100C40003FFC354BDB6D344A43F00103D365324B37
:100C5000DB6D03F00103FB62FB6A2F4BDB6C2E4A5A
:100C600043F04003D3642C4BDB6C03F04003BB62C6
:100C7000BB6A4FF4C0737B630223BB6301233B64F5
:100C800008237B6407F134031946244800F068FA0E
:100C9000462000F022FA00220F21462000F001FA3F
:100CA0007B681B681E4A934230D11B4B9B6D1A4ACE
:100CB00043F400339365184B9B6D03F400333B61A1
:100CC0003B69154BDB6C144A43F00103D364124BB0
:100CD000DB6C03F00103FB60FB680C237B610223E8
:100CE000BB610023FB6102233B6207237B6207F1A8
:100CF000140319464FF0904000F032FA262000F01D
:100D0000ECF900220F21262000F0CBF900BF483774
:100D1000BD4680BD00800040001002400018004821
:100D20000044004080B584B000AF7860114B1B6870
:100D3000002B02D10F4B104A1A600E4B1B68FB6050
:100D40000C4B1A687B6813446A46934207D903F038
:100D500055F803460C221A604FF0FF3306E0054BAE
:100D60001A687B681344034A1360FB6818461037FF
:100D7000BD4680BDC40400200806002080B400AF3A
:100D8000124B1B68114A43F0010313600F4B002202
:100D90009A600E4B1B680D4A23F0A85323F41023CE
:100DA00013600A4B4FF48052DA60084B1B68074A05
:100DB00023F480231360054B00229A61044B4FF00B
:100DC00000629A6000BFBD4680BC704700100240C0
:100DD00000ED00E080B582B000AF0023FB7103207E
:100DE00000F054F9002000F00DF80346002B02D06B
:100DF0000123FB7101E0FFF7EBFEFB791846083792
:100E0000BD4680BD80B584B000AF78600023FB7321
:100E1000164B1B68002B22D0154B1A68134B1B680E
:100E20004FF47A71B1FBF3F3B2FBF3F3184600F021
:100E300062F90346002B0FD17B680F2B09D80022E3
:100E400079684FF0FF3000F02CF90A4A7B68136094
:100E500007E00123FB7304E00123FB7301E001239E
:100E6000FB73FB7B18461037BD4680BD3800002061
:100E7000300000203400002080B400AF054B1A6819
:100E8000054B1B681344034A136000BFBD4680BC7A
:100E9000704700BFF00500203800002080B400AF8C
:100EA000024B1B681846BD4680BC7047F005002009
:100EB00080B584B000AF7860FFF7F0FFB8607B6862
:100EC000FB60FB68B3F1FF3F04D0094B1B68FA6875
:100ED0001344FB6000BFFFF7E1FF0246BB68D31A73
:100EE000FA689A42F7D800BF00BF1037BD4680BDF0
:100EF0003800002080B485B000AF78607B6803F0D4
:100F00000703FB600C4BDB68BB60BA684FF6FF035E
:100F10001340BB60FB681A02BB68134343F0BF6316
:100F200043F40033BB60044ABB68D36000BF14378E
:100F3000BD4680BC704700BF00ED00E080B400AF4C
:100F4000044BDB681B0A03F007031846BD4680BC50
:100F5000704700BF00ED00E080B483B000AF0346EF
:100F6000FB7197F90730002B0BDBFB7903F01F02B5
:100F7000064997F907305B09012000FA02F241F8AF
:100F8000232000BF0C37BD4680BC704700E100E065
:100F900080B483B000AF03463960FB7197F9073026
:100FA000002B0ADB3B68DAB20C4997F907301201D3
:100FB000D2B20B4483F800230AE03B68DAB2084956
:100FC000FB7903F00F03043B1201D2B20B441A76F3
:100FD00000BF0C37BD4680BC704700BF00E100E099
:100FE00000ED00E080B489B000AFF860B9607A60CD
:100FF000FB6803F00703FB61FB69C3F10703042BE4
:1010000028BF0423BB61FB690433062B02D9FB69AB
:10101000033B00E000237B614FF0FF32BB6902FA23
:1010200003F3DA43BB681A407B699A404FF0FF3103
:101030007B6901FA03F3D9437B680B4013431846DD
:101040002437BD4680BC704780B582B000AF786061
:101050007B68013BB3F1807F01D301230FE00A4A93
:101060007B68013B53600F214FF0FF30FFF790FF8B
:10107000054B00229A60044B07221A600023184691
:101080000837BD4680BD00BF10E000E080B582B0EB
:1010900000AF78607868FFF72DFF00BF0837BD46C6
:1010A00080BD80B586B000AF0346B9607A60FB733F
:1010B00000237B61FFF742FF78617A68B96878693D
:1010C000FFF790FF024697F90F3011461846FFF7D9
:1010D0005FFF00BF1837BD4680BD80B582B000AF4E
:1010E0000346FB7197F907301846FFF735FF00BF3D
:1010F0000837BD4680BD80B582B000AF78607868A3
:10110000FFF7A2FF034618460837BD4680BD000022
:1011100080B483B000AF78607B68042B06D1094BA4
:101120001B68084A43F00403136005E0054B1B6885
:10113000044A23F00403136000BF0C37BD4680BC93
:10114000704700BF10E000E080B500AF00F002F88B
:1011500000BF80BD80B400AF00BFBD4680BC7047FB
:1011600080B487B000AF7860396000237B6166E1AE
:101170003B681A6801217B6901FA03F31340FB60A5
:10118000FB68002B00F058813B685B68022B03D0A2
:101190003B685B68122B23D17B69DA087B680832D5
:1011A00053F822303B617B6903F007039B000F2259
:1011B00002FA03F3DB433A6913403B613B681A6967
:1011C0007B6903F007039B0002FA03F33A691343B8
:1011D0003B617B69DA087B680832396943F8221081
:1011E0007B681B683B617B695B00032202FA03F3A7
:1011F000DB433A6913403B613B685B6803F00302E1
:101200007B695B0002FA03F33A6913433B617B6835
:101210003A691A603B685B68012B0BD03B685B68DE
:10122000022B07D03B685B68112B03D03B685B68DF
:10123000122B30D17B689B683B617B695B0003228A
:1012400002FA03F3DB433A6913403B613B68DA6817
:101250007B695B0002FA03F33A6913433B617B68E5
:101260003A699A607B685B683B6101227B6902FA9C
:1012700003F3DB433A6913403B613B685B681B093E
:1012800003F001027B6902FA03F33A6913433B61FD
:101290007B683A695A607B68DB683B617B695B000D
:1012A000032202FA03F3DB433A6913403B613B68D4
:1012B0009A687B695B0002FA03F33A6913433B6166
:1012C0007B683A69DA603B685B6803F08053002B07
:1012D00000F0B280614B1B6E604A43F0010313665D
:1012E0005E4B1B6E03F00103BB60BB685C4A7B690D
:1012F0009B08023352F823303B617B6903F0030300
:101300009B000F2202FA03F3DB433A6913403B616F
:101310007B68B3F1904F2BD07B68524A934225D023
:101320007B68514A93421FD07B68504A934219D040
:101330007B684F4A934213D07B684E4A93420DD04C
:101340007B684D4A934207D07B684C4A934201D157
:1013500007230EE008230CE006230AE0052308E03B
:10136000042306E0032304E0022302E0012300E05B
:1013700000237A6902F00302920093403A69134312
:101380003B6137497B699B0802333A6941F8232066
:101390003B4B1B683B61FB68DB433A6913403B6195
:1013A0003B685B6803F48033002B03D03A69FB6829
:1013B00013433B61324A3B691360314B5B683B61CD
:1013C000FB68DB433A6913403B613B685B6803F4AD
:1013D0000033002B03D03A69FB6813433B61284A72
:1013E0003B695360264B9B683B61FB68DB433A6972
:1013F00013403B613B685B6803F48013002B03D010
:101400003A69FB6813433B611D4A3B6993601C4B7F
:10141000DB683B61FB68DB433A6913403B613B6837
:101420005B6803F40013002B03D03A69FB68134395
:101430003B61134A3B69D3607B6901337B613B6845
:101440001A687B6922FA03F3002B7FF491AE00BF88
:1014500000BF1C37BD4680BC704700BF0010024073
:10146000000001400004004800080048000C00484B
:10147000001000480014004800180048001C0048F4
:101480000004014080B400AF0C4B1B6803F4C06340
:10149000B3F5806F02D14FF480630BE0074BD3F8B4
:1014A000803003F48073B3F5807F02D14FF4007372
:1014B00000E000231846BD4680BC70470070004025
:1014C00080B400AF044B5B68034A43F4007353607D
:1014D00000BFBD4680BC70470070004080B588B03A
:1014E00000AF78607B68002B01D10123DBE3A44BC4
:1014F0009B6803F00C03BB61A14BDB6803F00303A3
:101500007B617B681B6803F01003002B00F0E18017
:10151000BB69002B07D0BB690C2B40F088807B692E
:10152000012B40F08480964B1B6803F00203002BD4
:1015300005D07B689B69002B01D10123B3E37B6855
:101540001A6A8F4B1B6803F00803002B04D08C4BE6
:101550001B6803F0F00305E0894BD3F894301B09B6
:1015600003F0F003934223D27B681B6A184600F015
:101570008FFD0346002B01D0012394E3804B1B68B1
:101580007F4A43F0080313607D4B1B6823F0F00291
:101590007B681B6A7A4913430B60794B5B6823F4C1
:1015A0007F427B68DB691B02754913434B6022E075
:1015B000734B1B68724A43F008031360704B1B683F
:1015C00023F0F0027B681B6A6D4913430B606C4B80
:1015D0005B6823F47F427B68DB691B026849134325
:1015E0004B607B681B6A184600F052FD0346002BD7
:1015F00001D0012357E300F08BFC0246604B9B684F
:101600001B0903F00F035F49CB5C03F01F0322FAB1
:1016100003F35D4A13605D4B1B681846FFF7F2FB4E
:101620000346FB73FB7B002B52D0FB7B3BE37B68C9
:101630009B69002B32D0524B1B68514A43F0010387
:101640001360FFF72BFC386108E0FFF727FC024628
:101650003B69D31A022B01D9032324E3484B1B68AF
:1016600003F00203002BF0D0454B1B68444A43F0C3
:1016700008031360424B1B6823F0F0027B681B6A6F
:101680003F4913430B603E4B5B6823F47F427B680A
:10169000DB691B023A4913434B601AE0384B1B6865
:1016A000374A23F001031360FFF7F8FB386108E0C5
:1016B000FFF7F4FB02463B69D31A022B01D903233F
:1016C000F1E22F4B1B6803F00203002BF0D100E086
:1016D00000BF7B681B6803F00103002B74D0BB695B
:1016E000082B05D0BB690C2B0ED17B69032B0BD1CA
:1016F000234B1B6803F40033002B64D07B685B68CA
:10170000002B60D10123CEE27B685B68B3F5803F9C
:1017100006D11B4B1B681A4A43F4803313601DE04B
:101720007B685B68B3F5A02F0CD1154B1B68144A7E
:1017300043F480231360124B1B68114A43F4803337
:1017400013600BE00E4B1B680D4A23F480331360CB
:101750000B4B1B680A4A23F4802313607B685B6889
:10176000002B1CD0FFF79AFB386111E0FFF796FBC6
:1017700002463B69D31A642B0AD9032393E200BFC4
:1017800000100240304800083000002034000020E3
:10179000AE4B1B6803F40033002BE7D014E0FFF7D7
:1017A0007DFB386108E0FFF779FB02463B69D31AFD
:1017B000642B01D9032376E2A44B1B6803F40033A6
:1017C000002BF0D100E000BF7B681B6803F0020330
:1017D000002B60D0BB69042B05D0BB690C2B19D141
:1017E0007B69022B16D1994B1B6803F48063002B95
:1017F00005D07B68DB68002B01D1012353E2934BBA
:101800005B6823F0FE427B681B691B068F4913430C
:101810004B6040E07B68DB68002B23D08B4B1B6860
:101820008A4A43F480731360FFF738FB386108E09D
:10183000FFF734FB02463B69D31A022B01D903237D
:1018400031E2824B1B6803F48063002BF0D07F4BA6
:101850005B6823F0FE427B681B691B067B491343D0
:101860004B6018E0794B1B68784A23F4807313604F
:10187000FFF714FB386108E0FFF710FB02463B69F5
:10188000D31A022B01D903230DE2704B1B6803F41A
:101890008063002BF0D17B681B6803F00803002BEA
:1018A0003CD07B685B69002B1CD0684BD3F894302C
:1018B000664A43F00103C2F89430FFF7EFFA38614B
:1018C00008E0FFF7EBFA02463B69D31A022B01D975
:1018D0000323E8E15D4BD3F8943003F00203002BBF
:1018E000EFD01BE0594BD3F89430584A23F0010352
:1018F000C2F89430FFF7D2FA386108E0FFF7CEFA69
:1019000002463B69D31A022B01D90323CBE14F4B8B
:10191000D3F8943003F00203002BEFD17B681B68EF
:1019200003F00403002B00F0A5800023FB77474B56
:101930009B6D03F08053002B0DD1444B9B6D434AAC
:1019400043F080539365414B9B6D03F08053BB6024
:10195000BB680123FB773E4B1B6803F48073002BAD
:1019600018D13B4B1B683A4A43F480731360FFF76E
:1019700095FA386108E0FFF791FA02463B69D31AFD
:10198000022B01D903238EE1314B1B6803F48073D2
:10199000002BF0D07B689B68012B08D12B4BD3F830
:1019A00090302A4A43F00103C2F8903024E07B686B
:1019B0009B68052B10D1254BD3F89030234A43F078
:1019C0000403C2F89030214BD3F890301F4A43F003
:1019D0000103C2F890300FE01C4BD3F890301B4A43
:1019E00023F00103C2F89030184BD3F89030174A17
:1019F00023F00403C2F890307B689B68002B16D05C
:101A0000FFF74CFA38610AE0FFF748FA02463B69F3
:101A1000D31A41F28832934201D9032343E10B4B9D
:101A2000D3F8903003F00203002BEDD019E0FFF75C
:101A300035FA38610EE0FFF731FA02463B69D31AF6
:101A400041F28832934205D903232CE10010024071
:101A500000700040964BD3F8903003F00203002B47
:101A6000E9D1FB7F012B05D1914B9B6D904A23F06F
:101A7000805393657B681B6803F02003002B3CD0E8
:101A80007B685B6A002B1CD0894BD3F89830884A5E
:101A900043F00103C2F89830FFF700FA386108E01C
:101AA000FFF7FCF902463B69D31A022B01D9032345
:101AB000F9E07F4BD3F8983003F00203002BEFD00E
:101AC0001BE07B4BD3F89830794A23F00103C2F82E
:101AD0009830FFF7E3F9386108E0FFF7DFF90246D5
:101AE0003B69D31A022B01D90323DCE0704BD3F8F6
:101AF000983003F00203002BEFD17B689B6A002B28
:101B000000F0D080BB690C2B00F08D807B689B6A55
:101B1000022B5AD1664B1B68654A23F08073136011
:101B2000FFF7BCF9386108E0FFF7B8F902463B69F6
:101B3000D31A022B01D90323B5E05D4B1B6803F0D8
:101B40000073002BF0D15A4BDA685A4B13407A6875
:101B5000D16A7A68126B013A120111437A68526BAA
:101B6000120211437A68D26B5208013A52051143AE
:101B70007A68126C5208013A520611437A68926BE5
:101B8000D2060A434A491343CB60494B1B68484A73
:101B900043F080731360464BDB68454A43F0807323
:101BA000D360FFF77BF9386108E0FFF777F9024669
:101BB0003B69D31A022B01D9032374E03C4B1B6809
:101BC00003F00073002BF0D06CE0394B1B68384AEF
:101BD00023F080731360364B1B6803F02053002BF7
:101BE00005D1334BDB68324A23F00303D360304B1B
:101BF000DB682F4A23F0887323F48033D360FFF728
:101C00004DF9386108E0FFF749F902463B69D31AFC
:101C1000022B01D9032346E0254B1B6803F0007318
:101C2000002BF0D13EE07B689B6A012B01D10123A0
:101C300039E01F4BDB687B617B6903F003027B6843
:101C4000DB6A9A422CD17B6903F0F0027B681B6B44
:101C5000013B1B019A4223D17B6903F4FE427B685E
:101C60005B6B1B029A421BD17B6903F078427B6855
:101C70009B6BDB069A4213D17B6903F4C0027B683D
:101C8000DB6B5B08013B5B059A4209D17B6903F082
:101C9000C0627B681B6C5B08013B5B069A4201D00B
:101CA000012300E0002318462037BD4680BD00BF59
:101CB000001002400C809D0180B586B000AF7860B6
:101CC000396000237B617B68002B01D101230FE188
:101CD000894B1B6803F00F033A689A4210D9864B70
:101CE0001B6823F00F0284493B6813430B60824B4F
:101CF0001B6803F00F033A689A4201D00123F7E012
:101D00007B681B6803F00103002B00F089807B686F
:101D10005B68032B33D1794B1B6803F00073002BF6
:101D200001D10123E4E000F00DFA0346744A934226
:101D300055D9724B9B6803F0F003002B0AD16F4B0F
:101D40009B6823F0F0036D4A43F080039360802387
:101D50007B6144E07B681B6803F00203002B3ED0EC
:101D60007B689B68002B3AD1644B9B6823F0F0039F
:101D7000624A43F08003936080237B612FE07B689D
:101D80005B68022B07D15D4B1B6803F40033002B0B
:101D900015D10123ACE07B685B68002B07D1574B62
:101DA0001B6803F00203002B09D10123A0E0534B71
:101DB0001B6803F48063002B01D1012398E000F03D
:101DC000A7F803464E4A934209D94C4B9B6823F02F
:101DD000F0034A4A43F08003936080237B61474BC2
:101DE0009B6823F003027B685B68444913438B6064
:101DF000FFF754F838610AE0FFF750F802463B69F4
:101E0000D31A41F28832934201D9032370E03B4B4D
:101E10009B6803F00C027B685B689B009A42EBD1E5
:101E20007B681B6803F00203002B09D0334B9B68CF
:101E300023F0F0027B689B68304913438B6008E015
:101E40007B69802B05D12D4B9B682C4A23F0F00336
:101E50009360294B1B6803F00F033A689A4210D233
:101E6000254B1B6823F00F0223493B6813430B608B
:101E7000214B1B6803F00F033A689A4201D00123FB
:101E800036E07B681B6803F00403002B08D01B4B73
:101E90009B6823F4E0627B68DB68184913438B601E
:101EA0007B681B6803F00803002B09D0134B9B6869
:101EB00023F460527B681B69DB00104913438B607D
:101EC00000F026F802460D4B9B681B0903F00F0338
:101ED0000C49CB5C03F01F0322FA03F30A4A136098
:101EE0000A4B1B681846FEF78DFF0346FB73FB7B0E
:101EF00018461837BD4680BD002002400010024041
:101F000000B4C40430480008300000203400002031
:101F100080B489B000AF0023FB610023BB613D4B5F
:101F20009B6803F00C033B613A4BDB6803F003034F
:101F3000FB603B69002B05D03B690C2B21D1FB6872
:101F4000012B1ED1334B1B6803F00803002B07D174
:101F5000304BD3F894301B0A03F00F03FB6105E00C
:101F60002C4B1B681B0903F00F03FB612A4AFB691A
:101F700052F82330FB613B69002B0DD1FB69BB613B
:101F80000AE03B69042B02D1244BBB6104E03B69AE
:101F9000082B01D1224BBB613B690C2B34D11D4B6B
:101FA000DB6803F00303BB60BB68022B03D0BB6894
:101FB000032B03D005E0194B7B6105E0184B7B61D7
:101FC00002E0FB697B6100BF124BDB681B0903F079
:101FD0000F0301337B600F4BDB681B0A03F07F03A9
:101FE0007A6902FB03F27B68B2FBF3F37B61094B76
:101FF000DB685B0E03F0030301335B003B607A692F
:102000003B68B2FBF3F3BB61BB6918462437BD469E
:1020100080BC704700100240484800080024F400CB
:1020200000127A0080B400AF024B1B681846BD4610
:1020300080BC70473000002080B500AFFFF7F2FF92
:102040000246064B9B681B0A03F007030449CB5C5E
:1020500003F01F0322FA03F3184680BD001002406C
:102060004048000880B500AFFFF7DCFF0246064B92
:102070009B68DB0A03F007030449CB5C03F01F03F2
:1020800022FA03F3184680BD0010024040480008C1
:1020900080B586B000AF786000233B61274B9B6D15
:1020A00003F08053002B03D0FFF7ECF9786114E0C4
:1020B000224B9B6D214A43F0805393651F4B9B6DD0
:1020C00003F08053FB60FB68FFF7DCF978611B4B82
:1020D0009B6D1A4A23F0805393657B69B3F5007FAB
:1020E0000BD17B68802B13D97B68A02B02D90223EC
:1020F0003B610DE001233B610AE07B687F2B02D945
:1021000002233B6104E07B68702B01D101233B611A
:102110000B4B1B6823F00F0209493B6913430B600B
:10212000074B1B6803F00F033A699A4201D0012361
:1021300000E0002318461837BD4680BD001002405D
:102140000020024080B487B000AF00237B612D4B9C
:10215000DB6803F00303012B18D12A4B1B6803F043
:102160000803002B07D1274BD3F894301B0A03F048
:102170000F037B6105E0234B1B681B0903F00F0372
:102180007B61214A7B6952F823307B611D4BDB6800
:1021900003F00303FB60FB68022B03D0FB68032BF7
:1021A00003D005E0194B3B6105E0194B3B6102E0B0
:1021B0007B693B6100BF134BDB681B0903F00F0316
:1021C0000133BB600F4BDB681B0A03F07F033A69E6
:1021D00002FB03F2BB68B2FBF3F33B61094BDB6824
:1021E0005B0E03F0030301335B007B603A697B689D
:1021F000B2FBF3F33B603B6818461C37BD4680BC1E
:10220000704700BF00100240484800080024F40056
:1022100000127A0080B582B000AF78607B68002B36
:1022200001D1012342E07B68D3F88030002B06D136
:102230007B68002283F87C207868FEF7EBFC7B68E3
:102240002422C3F880207B681B681A687B681B689F
:1022500022F001021A60786800F094F90346012B1D
:1022600001D1012322E07B689B6A002B02D07868B1
:1022700001F030FB7B681B685A687B681B6822F49E
:1022800090425A607B681B689A687B681B6822F0E2
:102290002A029A607B681B681A687B681B6842F098
:1022A00001021A60786801F0B6FB03461846083749
:1022B000BD4680BD80B58AB002AFF860B9603B60B2
:1022C0001346FB80FB68D3F88030202B40F08480DD
:1022D000BB68002B02D0FB88002B01D101237CE0DE
:1022E000FB6893F87C30012B01D1022375E0FB6879
:1022F000012283F87C20FB680022C3F88820FB6859
:102300002122C3F88020FEF7C9FD7861FB68FA88B6
:10231000A3F85420FB68FA88A3F85620FB689B6852
:10232000B3F5805F08D1FB681B69002B04D1002343
:10233000FB61BB68BB6103E0BB68FB610023BB6161
:102340002DE03B6800937B6900228021F86801F052
:10235000AAFB0346002B01D003233EE0FB69002BC0
:102360000BD1BB691A88FB681B68C2F3080292B2E2
:102370001A85BB690233BB6108E0FB691A78FB6808
:102380001B6892B21A85FB690133FB61FB68B3F8E5
:1023900056309BB2013B9AB2FB68A3F85620FB680B
:1023A000B3F856309BB2002BCBD13B6800937B69CE
:1023B00000224021F86801F076FB0346002B01D093
:1023C00003230AE0FB682022C3F88020FB68002278
:1023D00083F87C20002300E0022318462037BD4606
:1023E00080BD80B58AB002AFF860B9603B6013462B
:1023F000FB80FB68D3F88430202B40F0BE80BB68A4
:10240000002B02D0FB88002B01D10123B6E0FB6832
:1024100093F87C30012B01D10223AFE0FB6801224D
:1024200083F87C20FB680022C3F88820FB68222206
:10243000C3F88420FEF732FD7861FB68FA88A3F8C0
:102440005C20FB68FA88A3F85E20FB689B68B3F504
:10245000805F0ED1FB681B69002B05D1FB6840F241
:10246000FF12A3F860202DE0FB68FF22A3F8602094
:1024700028E0FB689B68002B0DD1FB681B69002BD3
:1024800004D1FB68FF22A3F860201BE0FB687F22D9
:10249000A3F8602016E0FB689B68B3F1805F0DD164
:1024A000FB681B69002B04D1FB687F22A3F8602026
:1024B00008E0FB683F22A3F8602003E0FB680022ED
:1024C000A3F86020FB68B3F860307B82FB689B68F0
:1024D000B3F5805F08D1FB681B69002B04D1002392
:1024E000FB61BB68BB6103E0BB68FB610023BB61B0
:1024F00033E03B6800937B6900222021F86801F0FB
:10250000D2FA0346002B01D0032337E0FB69002BEE
:102510000CD1FB681B689B8C9AB27B8A13409AB2E1
:10252000BB691A80BB690233BB610DE0FB681B68A5
:102530009B8C9BB2DAB27B8ADBB21340DAB2FB69C6
:102540001A70FB690133FB61FB68B3F85E309BB224
:10255000013B9AB2FB68A3F85E20FB68B3F85E30DB
:102560009BB2002BC5D1FB682022C3F88420FB68F6
:10257000002283F87C20002300E002231846203745
:10258000BD4680BD2DE9B04F8AB000AFF860002392
:10259000FB610023FB7600237B61FB689A68FB6884
:1025A0001B691A43FB685B691A43FB68DB691343C9
:1025B0007B62FB685B6E7A6A13437B62FB681B6815
:1025C0001A68AA4B1340FA681268796A0B431360C1
:1025D000FB681B685B6823F44051FB68DA68FB68A2
:1025E0001B680A435A60FB689B697B62FB681B6837
:1025F0009F4A934204D0FB681B6A7A6A13437B624A
:10260000FB681B689B6823F06E4323F43063FA6811
:102610001268796A0B439360FB681B68DB6A23F0DE
:102620000F01FB685A6AFB681B680A43DA62FB68A1
:102630001B68904A934225D18F4BD3F8883003F022
:102640000303032B1AD801A252F823F05D260008D9
:102650006D2600086526000875260008012387F806
:10266000233016E1022387F8233012E1042387F890
:1026700023300EE1082387F823300AE1102387F87E
:10268000233006E1FB681B687C4A934238D17A4BC1
:10269000D3F8883003F00C030C2B2DD801A252F88C
:1026A00023F000BFD9260008F9260008F926000803
:1026B000F9260008E9260008F9260008F92600088E
:1026C000F9260008E1260008F9260008F926000886
:1026D000F9260008F1260008002387F82330D8E007
:1026E000022387F82330D4E0042387F82330D0E096
:1026F000082387F82330CCE0102387F82330C8E084
:10270000FB681B685E4A934225D15B4BD3F8883047
:1027100003F03003302B16D0302B18D8202B0AD0E2
:10272000202B14D8002B02D0102B08D00FE0002350
:1027300087F82330ADE0022387F82330A9E0042393
:1027400087F82330A5E0082387F82330A1E0102381
:1027500087F823309DE0FB681B684A4A934225D1E5
:10276000454BD3F8883003F0C003C02B16D0C02BE4
:1027700018D8802B0AD0802B14D8002B02D0402BE5
:1027800008D00FE0002387F8233082E0022387F887
:1027900023307EE0042387F823307AE0082387F88B
:1027A000233076E0102387F8233072E0FB681B6843
:1027B000354A93422AD1304BD3F8883003F4407322
:1027C000B3F5407F1AD0B3F5407F1BD8B3F5007F37
:1027D0000CD0B3F5007F15D8002B03D0B3F5807F64
:1027E00008D00FE0002387F8233052E0022387F857
:1027F00023304EE0042387F823304AE0082387F88B
:10280000233046E0102387F8233042E0FB681B6842
:10281000174A93423AD1184BD3F8883003F44063F7
:10282000B3F5406F1AD0B3F5406F1BD8B3F5006F06
:102830000CD0B3F5006F15D8002B03D0B3F5806F23
:1028400008D00FE0002387F8233022E0022387F826
:1028500023301EE0042387F823301AE0082387F88A
:10286000233016E0102387F8233012E0F369FFCFFE
:102870000080004000380140001002400044004049
:1028800000480040004C004000500040102387F8F2
:102890002330FB681B68884A934240F0158497F800
:1028A0002330082B00F25C8101A252F823F000BF14
:1028B000D5280008612B000877290008612B000843
:1028C000152A0008612B0008612B0008612B000805
:1028D000C12A0008FFF7B0FB0246FB685B6A002BC9
:1028E00044D0FB685B6A012B3ED0FB685B6A022B1D
:1028F00038D0FB685B6A032B32D0FB685B6A042B21
:102900002CD0FB685B6A052B26D0FB685B6A062B24
:1029100020D0FB685B6A072B1AD0FB685B6A082B28
:1029200014D0FB685B6A092B0ED0FB685B6A0A2B2C
:1029300008D0FB685B6A0B2B02D14FF4807316E062
:10294000012314E0802312E0402310E020230EE056
:1029500010230CE00C230AE00A2308E0082306E019
:10296000062304E0042302E0022300E00123B2FB7B
:10297000F3F37B61F7E0FB685B6A002B44D0FB68F4
:102980005B6A012B3ED0FB685B6A022B38D0FB6888
:102990005B6A032B32D0FB685B6A042B2CD0FB688C
:1029A0005B6A052B26D0FB685B6A062B20D0FB6890
:1029B0005B6A072B1AD0FB685B6A082B14D0FB6894
:1029C0005B6A092B0ED0FB685B6A0A2B08D0FB6898
:1029D0005B6A0B2B02D14FF4807316E0012314E0E5
:1029E000802312E0402310E020230EE010230CE0AF
:1029F0000C230AE00A2308E0082306E0062304E08B
:102A0000042302E0022300E001232C4AB2FBF3F38B
:102A10007B61A8E0FFF77CFA0246FB685B6A002B4B
:102A200044D0FB685B6A012B3ED0FB685B6A022BDB
:102A300038D0FB685B6A032B32D0FB685B6A042BDF
:102A40002CD0FB685B6A052B26D0FB685B6A062BE3
:102A500020D0FB685B6A072B1AD0FB685B6A082BE7
:102A600014D0FB685B6A092B0ED0FB685B6A0A2BEB
:102A700008D0FB685B6A0B2B02D14FF4807316E021
:102A8000012314E0802312E0402310E020230EE015
:102A900010230CE00C230AE00A2308E0082306E0D8
:102AA000062304E0042302E0022300E00123B2FB3A
:102AB000F3F37B6157E000BF008000400024F40086
:102AC000FB685B6A002B44D0FB685B6A012B3ED03D
:102AD000FB685B6A022B38D0FB685B6A032B32D041
:102AE000FB685B6A042B2CD0FB685B6A052B26D045
:102AF000FB685B6A062B20D0FB685B6A072B1AD049
:102B0000FB685B6A082B14D0FB685B6A092B0ED04C
:102B1000FB685B6A0A2B08D0FB685B6A0B2B02D14F
:102B20004FF4807316E0012314E0802312E0402369
:102B300010E020230EE010230CE00C230AE00A230F
:102B400008E0082306E0062304E0042302E0022351
:102B500000E001234FF40042B2FBF3F37B6102E09B
:102B60000123FB7600BF7B69002B00F09D86FB688C
:102B70005A6813465B0013447A699A4205D3FB688E
:102B80005B681B037A699A4203D90123FB7600F044
:102B90008BBE97F82330082B00F2808201A252F8F6
:102BA00023F000BFC92B00089D300008012D00084C
:102BB0009D300008332E00089D3000089D3000082D
:102BC0009D3000086B2F0008FFF736FA03461846C1
:102BD0004FF00001FB685B6A002B67D0FB685B6A03
:102BE000012B5ED0FB685B6A022B55D0FB685B6AE9
:102BF000032B4CD0FB685B6A042B43D0FB685B6AF9
:102C0000052B3AD0FB685B6A062B31D0FB685B6A08
:102C1000072B28D0FB685B6A082B1FD0FB685B6A18
:102C2000092B16D0FB685B6A0A2B0DD0FB685B6A28
:102C30000B2B04D14FF480724FF000033AE04FF0B9
:102C400001024FF0000335E04FF080024FF0000327
:102C500030E04FF040024FF000032BE04FF0200235
:102C60004FF0000326E04FF010024FF0000321E088
:102C70004FF00C024FF000031CE04FF00A024FF03F
:102C8000000317E04FF008024FF0000312E04FF08E
:102C900006024FF000030DE04FF004024FF0000376
:102CA00008E04FF002024FF0000303E04FF0010292
:102CB0004FF00003FDF784FA02460B461046194612
:102CC0004FF000024FF000030B0243EA10630202D0
:102CD000F9684968490808464FF0000114183C603B
:102CE0004B417B60FB685B681A464FF00003D7E9F5
:102CF0000001FDF765FA02460B461346FB61D0E181
:102D0000FB685B6A002B67D0FB685B6A012B5ED0B7
:102D1000FB685B6A022B55D0FB685B6A032B4CD0C7
:102D2000FB685B6A042B43D0FB685B6A052B3AD0D7
:102D3000FB685B6A062B31D0FB685B6A072B28D0E7
:102D4000FB685B6A082B1FD0FB685B6A092B16D0F7
:102D5000FB685B6A0A2B0DD0FB685B6A0B2B04D106
:102D60004FF480724FF000033AE04FF001024FF051
:102D7000000335E04FF080024FF0000330E04FF0E9
:102D800040024FF000032BE04FF020024FF0000311
:102D900026E04FF010024FF0000321E04FF00C024C
:102DA0004FF000031CE04FF00A024FF0000317E061
:102DB0004FF008024FF0000312E04FF006024FF010
:102DC00000030DE04FF004024FF0000308E04FF065
:102DD00002024FF0000303E04FF001024FF0000346
:102DE000B8484FF00001FDF7EBF902460B461046DC
:102DF00019464FF000024FF000030B0243EA106344
:102E00000202F9684968490808464FF0000112EBD0
:102E1000000A43EB010BFB685B681A464FF00003A6
:102E200050465946FDF7CCF902460B461346FB6166
:102E300037E1FFF76DF8034618464FF00001FB68D5
:102E40005B6A002B67D0FB685B6A012B5ED0FB6876
:102E50005B6A022B55D0FB685B6A032B4CD0FB6886
:102E60005B6A042B43D0FB685B6A052B3AD0FB6896
:102E70005B6A062B31D0FB685B6A072B28D0FB68A6
:102E80005B6A082B1FD0FB685B6A092B16D0FB68B6
:102E90005B6A0A2B0DD0FB685B6A0B2B04D14FF4E5
:102EA00080724FF000033AE04FF001024FF0000350
:102EB00035E04FF080024FF0000330E04FF0400269
:102EC0004FF000032BE04FF020024FF0000326E00C
:102ED0004FF010024FF0000321E04FF00C024FF0D2
:102EE00000031CE04FF00A024FF0000317E04FF020
:102EF00008024FF0000312E04FF006024FF000030B
:102F00000DE04FF004024FF0000308E04FF0020222
:102F10004FF0000303E04FF001024FF00003FDF714
:102F20004FF902460B46104619464FF000024FF08B
:102F300000030B0243EA10630202F968496849087A
:102F400008464FF0000112EB000843EB0109FB6853
:102F50005B681A464FF0000340464946FDF730F9DA
:102F600002460B461346FB619BE0FB685B6A002B45
:102F700067D0FB685B6A012B5ED0FB685B6A022B43
:102F800055D0FB685B6A032B4CD0FB685B6A042B53
:102F900043D0FB685B6A052B3AD0FB685B6A062B63
:102FA00031D0FB685B6A072B28D0FB685B6A082B73
:102FB0001FD0FB685B6A092B16D0FB685B6A0A2B83
:102FC0000DD0FB685B6A0B2B04D14FF480724FF07D
:102FD00000033AE04FF001024FF0000335E04FF0FC
:102FE00080024FF0000330E04FF040024FF000034A
:102FF0002BE04FF020024FF0000326E04FF01002CC
:103000004FF0000321E04FF00C024FF000031CE0F2
:103010004FF00A024FF0000317E04FF008024FF0A4
:10302000000312E04FF006024FF000030DE04FF0F6
:1030300004024FF0000308E04FF002024FF00003DB
:1030400003E04FF001024FF000034FF400404FF057
:103050000001FDF7B5F802460B46104619464FF041
:1030600000024FF000030B0243EA10630202F9680A
:103070004968490808464FF00001141843EB010560
:10308000FB685B681A464FF0000320462946FDF7AF
:1030900097F802460B461346FB6102E00123FB76DC
:1030A00000BFFB69B3F5407F08D3FB69B3F5801F10
:1030B00004D2FB681B68FA69DA60F5E30123FB764A
:1030C000F2E300BF0024F400FB68DB69B3F5004FB6
:1030D00040F0FE8197F82330082B00F2D98101A23D
:1030E00052F823F009310008BF310008753200089A
:1030F0009134000827330008913400089134000807
:1031000091340008DD330008FEF796FF0246FB68A5
:103110005B6A002B44D0FB685B6A012B3ED0FB68E6
:103120005B6A022B38D0FB685B6A032B32D0FB68EA
:103130005B6A042B2CD0FB685B6A052B26D0FB68EE
:103140005B6A062B20D0FB685B6A072B1AD0FB68F2
:103150005B6A082B14D0FB685B6A092B0ED0FB68F6
:103160005B6A0A2B08D0FB685B6A0B2B02D14FF419
:10317000807316E0012314E0802312E0402310E066
:1031800020230EE010230CE00C230AE00A2308E0C1
:10319000082306E0062304E0042302E0022300E003
:1031A0000123B2FBF3F35A00FB685B685B081A4427
:1031B000FB685B68B2FBF3F39BB2FB616BE1FEF76C
:1031C00051FF0246FB685B6A002B44D0FB685B6AD8
:1031D000012B3ED0FB685B6A022B38D0FB685B6A30
:1031E000032B32D0FB685B6A042B2CD0FB685B6A34
:1031F000052B26D0FB685B6A062B20D0FB685B6A38
:10320000072B1AD0FB685B6A082B14D0FB685B6A3B
:10321000092B0ED0FB685B6A0A2B08D0FB685B6A3F
:103220000B2B02D14FF4807316E0012314E08023AE
:1032300012E0402310E020230EE010230CE00C23CA
:103240000AE00A2308E0082306E0062304E004233A
:1032500002E0022300E00123B2FBF3F35A00FB6813
:103260005B685B081A44FB685B68B2FBF3F39BB2D4
:10327000FB6110E1FB685B6A002B44D0FB685B6A72
:10328000012B3ED0FB685B6A022B38D0FB685B6A7F
:10329000032B32D0FB685B6A042B2CD0FB685B6A83
:1032A000052B26D0FB685B6A062B20D0FB685B6A87
:1032B000072B1AD0FB685B6A082B14D0FB685B6A8B
:1032C000092B0ED0FB685B6A0A2B08D0FB685B6A8F
:1032D0000B2B02D14FF4807316E0012314E08023FE
:1032E00012E0402310E020230EE010230CE00C231A
:1032F0000AE00A2308E0082306E0062304E004238A
:1033000002E0022300E00123A14AB2FBF3F35A00DA
:10331000FB685B685B081A44FB685B68B2FBF3F30D
:103320009BB2FB61B7E0FEF7F3FD0246FB685B6A08
:10333000002B44D0FB685B6A012B3ED0FB685B6AC4
:10334000022B38D0FB685B6A032B32D0FB685B6AC8
:10335000042B2CD0FB685B6A052B26D0FB685B6ACC
:10336000062B20D0FB685B6A072B1AD0FB685B6AD0
:10337000082B14D0FB685B6A092B0ED0FB685B6AD4
:103380000A2B08D0FB685B6A0B2B02D14FF48073C9
:1033900016E0012314E0802312E0402310E02023F4
:1033A0000EE010230CE00C230AE00A2308E00823B7
:1033B00006E0062304E0042302E0022300E00123E8
:1033C000B2FBF3F35A00FB685B685B081A44FB68C6
:1033D0005B68B2FBF3F39BB2FB615CE0FB685B6A8A
:1033E000002B44D0FB685B6A012B3ED0FB685B6A14
:1033F000022B38D0FB685B6A032B32D0FB685B6A18
:10340000042B2CD0FB685B6A052B26D0FB685B6A1B
:10341000062B20D0FB685B6A072B1AD0FB685B6A1F
:10342000082B14D0FB685B6A092B0ED0FB685B6A23
:103430000A2B08D0FB685B6A0B2B02D14FF4807318
:1034400016E0012314E0802312E0402310E0202343
:103450000EE010230CE00C230AE00A2308E0082306
:1034600006E0062304E0042302E0022300E0012337
:103470004FF40042B2FBF3F35A00FB685B685B0851
:103480001A44FB685B68B2FBF3F39BB2FB6102E09A
:103490000123FB7600BFFB690F2B16D9FB69B3F53F
:1034A000803F12D2FB699BB223F00F037B82FB6942
:1034B0005B089BB203F007039AB27B8A13437B82BB
:1034C000FB681B687A8ADA60EEE10123FB76EBE1A8
:1034D00097F82330082B00F2D68101A252F823F08E
:1034E00005350008BD35000871360008873800082A
:1034F0002137000887380008873800088738000817
:10350000D5370008FEF798FD0246FB685B6A002B82
:1035100046D0FB685B6A012B40D0FB685B6A022BDC
:103520003AD0FB685B6A032B34D0FB685B6A042BE0
:103530002CD0FB685B6A052B26D0FB685B6A062BE8
:1035400020D0FB685B6A072B1AD0FB685B6A082BEC
:1035500014D0FB685B6A092B0ED0FB685B6A0A2BF0
:1035600008D0FB685B6A0B2B02D14FF4807318E024
:10357000012316E0802314E0402312E0202310E012
:1035800010230EE00C230CE00A230AE0082308E0D5
:103590000024F400062304E0042302E0022300E0F8
:1035A0000123B2FBF3F2FB685B685B081A44FB681B
:1035B0005B68B2FBF3F39BB2FB6167E1FEF752FD80
:1035C0000246FB685B6A002B44D0FB685B6A012BF8
:1035D0003ED0FB685B6A022B38D0FB685B6A032B2A
:1035E00032D0FB685B6A042B2CD0FB685B6A052B2E
:1035F00026D0FB685B6A062B20D0FB685B6A072B32
:103600001AD0FB685B6A082B14D0FB685B6A092B35
:103610000ED0FB685B6A0A2B08D0FB685B6A0B2B39
:1036200002D14FF4807316E0012314E0802312E0EE
:10363000402310E020230EE010230CE00C230AE0CE
:103640000A2308E0082306E0062304E0042302E03E
:10365000022300E00123B2FBF3F2FB685B685B0826
:103660001A44FB685B68B2FBF3F39BB2FB610DE1AC
:10367000FB685B6A002B44D0FB685B6A012B3ED081
:10368000FB685B6A022B38D0FB685B6A032B32D085
:10369000FB685B6A042B2CD0FB685B6A052B26D089
:1036A000FB685B6A062B20D0FB685B6A072B1AD08D
:1036B000FB685B6A082B14D0FB685B6A092B0ED091
:1036C000FB685B6A0A2B08D0FB685B6A0B2B02D194
:1036D0004FF4807316E0012314E0802312E04023AE
:1036E00010E020230EE010230CE00C230AE00A2354
:1036F00008E0082306E0062304E0042302E0022396
:1037000000E00123724AB2FBF3F2FB685B685B08DE
:103710001A44FB685B68B2FBF3F39BB2FB61B5E054
:10372000FEF7F6FB0246FB685B6A002B44D0FB68A1
:103730005B6A012B3ED0FB685B6A022B38D0FB68CA
:103740005B6A032B32D0FB685B6A042B2CD0FB68CE
:103750005B6A052B26D0FB685B6A062B20D0FB68D2
:103760005B6A072B1AD0FB685B6A082B14D0FB68D6
:103770005B6A092B0ED0FB685B6A0A2B08D0FB68DA
:103780005B6A0B2B02D14FF4807316E0012314E027
:10379000802312E0402310E020230EE010230CE0F1
:1037A0000C230AE00A2308E0082306E0062304E0CD
:1037B000042302E0022300E00123B2FBF3F2FB68E2
:1037C0005B685B081A44FB685B68B2FBF3F39BB26F
:1037D000FB615BE0FB685B6A002B44D0FB685B6AC3
:1037E000012B3ED0FB685B6A022B38D0FB685B6A1A
:1037F000032B32D0FB685B6A042B2CD0FB685B6A1E
:10380000052B26D0FB685B6A062B20D0FB685B6A21
:10381000072B1AD0FB685B6A082B14D0FB685B6A25
:10382000092B0ED0FB685B6A0A2B08D0FB685B6A29
:103830000B2B02D14FF4807316E0012314E0802398
:1038400012E0402310E020230EE010230CE00C23B4
:103850000AE00A2308E0082306E0062304E0042324
:1038600002E0022300E001234FF40042B2FBF3F236
:10387000FB685B685B081A44FB685B68B2FBF3F3A8
:103880009BB2FB6102E00123FB7600BFFB690F2BBB
:1038900008D9FB69B3F5803F04D2FB681B68FA695D
:1038A000DA6001E00123FB76FB680122A3F86A20BD
:1038B000FB680122A3F86820FB680022DA66FB6837
:1038C00000221A67FB7E18462837BD46BDE8B08F38
:1038D0000024F40080B483B000AF78607B689B6AFA
:1038E00003F00103002B0AD07B681B685B6823F49C
:1038F00000317B68DA6A7B681B680A435A607B6820
:103900009B6A03F00203002B0AD07B681B685B688C
:1039100023F480317B681A6B7B681B680A435A600A
:103920007B689B6A03F00403002B0AD07B681B684A
:103930005B6823F480217B685A6B7B681B680A43B1
:103940005A607B689B6A03F00803002B0AD07B68EF
:103950001B685B6823F400417B689A6B7B681B687B
:103960000A435A607B689B6A03F01003002B0AD05D
:103970007B681B689B6823F480517B68DA6B7B68EB
:103980001B680A439A607B689B6A03F02003002B44
:103990000AD07B681B689B6823F400517B681A6C13
:1039A0007B681B680A439A607B689B6A03F040034C
:1039B000002B1AD07B681B685B6823F480117B683E
:1039C0005A6C7B681B680A435A607B685B6CB3F572
:1039D000801F0AD17B681B685B6823F4C0017B6889
:1039E0009A6C7B681B680A435A607B689B6A03F089
:1039F0008003002B0AD07B681B685B6823F40021DE
:103A00007B68DA6C7B681B680A435A6000BF0C371E
:103A1000BD4680BC704780B586B002AF78607B68D9
:103A20000022C3F88820FDF739FAF8607B681B682C
:103A30001B6803F00803082B0ED16FF07E43009340
:103A4000FB6800224FF40011786800F02CF8034660
:103A5000002B01D0032322E07B681B681B6803F066
:103A60000403042B0ED16FF07E430093FB68002209
:103A70004FF48001786800F016F80346002B01D05F
:103A800003230CE07B682022C3F880207B6820227F
:103A9000C3F884207B68002283F87C20002318462A
:103AA0001037BD4680BD80B584B000AFF860B96006
:103AB0003B601346FB712CE0BB69B3F1FF3F28D09C
:103AC000FDF7ECF902463B68D31ABA699A4202D371
:103AD000BB69002B1DD1FB681B681A68FB681B685B
:103AE00022F4D0721A60FB681B689A68FB681B6836
:103AF00022F001029A60FB682022C3F88020FB6854
:103B00002022C3F88420FB68002283F87C20032352
:103B10000FE0FB681B68DA69BB681340BA689A4219
:103B20000CBF01230023DBB21A46FB799A42C3D0B3
:103B3000002318461037BD4680BD00002DE9F04730
:103B4000089E0D4604468E46002B40F082808A4235
:103B5000174646D9B2FA82F24AB1C2F1200105FAFB
:103B600002F320FA01F1974041EA030E94404FEA34
:103B70001748230CBEFBF8FCB9B208FB1CEE43EA65
:103B80000E430CFB01F098420AD9FB180CF1FF35EB
:103B900080F01681984240F21381ACF1020C3B4454
:103BA0001B1AA4B2B3FBF8F008FB103344EA034439
:103BB00000FB01F1A14209D93C1900F1FF3380F06B
:103BC0000181A14240F2FE8002383C44641A40EA7E
:103BD0000C4000211EB1D4400023C6E90043BDE8DB
:103BE000F08702B9FFDEB2FA82F2002A4FD1CB1B76
:103BF0004FEA174E1FFA87F80121B3FBFEFC250C94
:103C00000EFB1C3345EA034508FB0CF3AB4207D916
:103C10007D190CF1FF3002D2AB4200F2E7808446FE
:103C2000ED1AA3B2B5FBFEF00EFB105543EA0544B6
:103C300008FB00F8A04507D93C1900F1FF3302D278
:103C4000A04500F2D7801846A4EB080440EA0C40D7
:103C5000C0E78B4208D9002E00F0AF800021C6E9F2
:103C600000050846BDE8F087B3FA83F100294BD17F
:103C7000AB4202D3824200F2B780841A65EB0303A1
:103C800001209E46002EAAD0C6E9004EA7E7C2F149
:103C9000200C01FA02F3974020FA0CF04FEA174E7D
:103CA00021FA0CFC1843BCFBFEF1050C0EFB11CCF9
:103CB0001FFA87F845EA0C4501FB08F3AB4204FA0A
:103CC00002F409D97D1901F1FF3C80F08B80AB42F1
:103CD00040F2888002393D44EB1A85B2B3FBFEF016
:103CE0000EFB103345EA034500FB08F3AB4207D94E
:103CF0007D1900F1FF3C71D2AB426FD902383D44CF
:103D0000EB1A40EA014178E7C1F1200C8B4022FA1E
:103D10000CF71F4320FA0CF405FA01F34FEA174E93
:103D200025FA0CF51C43230CB5FBFEF91FFA87F8A6
:103D30000EFB195543EA054509FB08FAAA4502FAA4
:103D400001F200FA01F308D97D1909F1FF3047D2D9
:103D5000AA4545D9A9F102093D44A5EB0A05A4B23B
:103D6000B5FBFEF00EFB105544EA054400FB08F8D5
:103D7000A04507D93C1900F1FF352DD2A0452BD91C
:103D800002383C4440EA0940A4EB0804A0FB028945
:103D90004C45C6464D4619D316D05EB1B3EB0E0264
:103DA00064EB050404FA0CFCCA404CEA0202CC4065
:103DB000C6E900240021BDE8F087314630460EE711
:103DC000AC46EDE6184601E74345E6D2B8EB020EF5
:103DD00069EB07050138E0E72846D3E760468FE73F
:103DE0008146BAE7614677E708464BE7ACF1020C3B
:103DF0003D4415E702383C4426E700BF014B1868F4
:103E0000704700BF3C00002070B50D4D0D4C641B89
:103E1000A4100026A64209D10B4D0C4C00F04CFC1E
:103E2000641BA4100026A64205D170BD55F8043BC2
:103E300098470136EEE755F8043B98470136F2E71C
:103E4000B8480008B8480008B8480008BC4800084E
:103E500002440346934200D1704703F8011BF9E77F
:103E60000EB400B59CB01DAB029006906FF00041FF
:103E7000094807910491094953F8042B05910068FA
:103E8000019302A900F068F8029B00221A701CB08E
:103E90005DF804EB03B070473C0000200802FFFF10
:103EA0002DE9F0478E689E4282460C4690461F469A
:103EB00038D88A8912F4906F32D025680969A5EB49
:103EC0000109656905EB450505EBD57501334B44E3
:103ED0006D109D4238BF1D46530531D5294600F06F
:103EE00045FB064650B90C23CAF80030A38943F0BD
:103EF0004003A3814FF0FF30BDE8F08721694A46B7
:103F000000F0BEFAA38923F4906343F08003A381F9
:103F1000266165614E44A5EB09052660A5603E4615
:103F2000BE4200D93E4632462068414600F0B6FA0D
:103F3000A36822689B1B3244A36022600020DBE759
:103F40002A4600F06DFB06460028E1D12169504663
:103F500000F0BEFAC7E700002DE9F04F98468B89C4
:103F60001B069DB007460D4614460ED50B6963B976
:103F7000402100F0FBFA2860286120B90C233B6047
:103F80004FF0FF30D1E040236B61002309932023E1
:103F90008DF82930CDF80C803023DFF8A8818DF81A
:103FA0002A304FF0010923469A4613F8012B0AB133
:103FB000252AF9D1BAEB040B0BD05B4622462946E1
:103FC0003846FFF76DFF013000F0AA80099A5A4485
:103FD00009929AF80030002B00F0A28000234FF0E5
:103FE000FF32CDE905230AF1010A049307938DF806
:103FF00053301A935446052214F8011B5148FCF71C
:1040000007F9049AD8B9D00644BF20238DF853305D
:10401000110744BF2B238DF853309AF800302A2B18
:1040200015D0079A544600204FF00A0C214611F88B
:10403000013B303B092B4ED9B0B1079214E0A0EB05
:10404000080309FA03F313430493A246D2E7039B40
:10405000191D1B680391002BBBBF5B4242F002029B
:1040600007930793B8BF049223782E2B0CD1637863
:104070002A2B35D1039B1A1D1B680392002BB8BF56
:104080004FF0FF3302340593DFF8C8A021780322F4
:104090005046FCF7BDF840B14023A0EB0A0003FAFC
:1040A00000F0049B03430134049314F8011B2648D9
:1040B0008DF828100622FCF7ABF8002838D0234BE7
:1040C0001BBB039B073323F0070308330393099BB0
:1040D0003344099367E70CFB02320C460120A5E745
:1040E00000230134059319464FF00A0C204610F8BE
:1040F000012B303A092A03D9002BC5D00591C3E71B
:104100000CFB012104460123F0E703AB00932A4690
:104110000F4B04A93846AFF30080421C0646D6D1A7
:10412000AB895B063FF52CAF09981DB0BDE8F08F59
:1041300003AB00932A46064B04A9384600F07AF8F0
:10414000EBE700BF78480008824800080000000044
:10415000A13E00087E4800082DE9F0471646994622
:104160008A680B69DDF820809342B8BF134633603C
:1041700091F8432007460C460AB1013333602368A7
:10418000990642BF336802333360256815F006058F
:1041900006D104F1190AE36832689B1AAB4226DCA7
:1041A00094F84320131E226818BF012392062BD4D3
:1041B00004F1430249463846C04701301ED0236807
:1041C000E568326803F00603042B08BFAD1AA36844
:1041D00022690CBF25EAE57500259342C4BF9B1AEE
:1041E000ED1800261A34B5421AD1002008E0012348
:1041F000524649463846C047013003D14FF0FF30A0
:10420000BDE8F0870135C6E7E1185A1C302081F877
:104210004300224494F8451082F843100233C7E764
:104220000123224649463846C0470130E6D00136D0
:10423000D9E700002DE9FF470C469146277E0C99EF
:10424000782F80469A4604F1430207D8622F0AD895
:10425000002F00F0D880582F00F0A38004F1420610
:1042600084F842703AE0A7F16303152BF6D801A059
:1042700050F823F0CD420008E14200085D420008FA
:104280005D4200085D4200085D420008E14200080E
:104290005D4200085D4200085D4200085D42000882
:1042A000ED43000811430008CF4300085D420008B9
:1042B0005D4200080F4400085D42000811430008F9
:1042C0005D4200085D420008D74300080B681A1DD4
:1042D0001B680A6004F1420684F842300123A3E01F
:1042E000256808682E0600F104030AD505680B60EE
:1042F000002D03DA2D236D4284F843305E480A23F3
:1043000019E015F0400F05680B6018BF2DB2EFE7FC
:104310000B682568181D0860280601D51D6802E095
:104320006906FBD51D8854486F2F0CBF08230A234C
:10433000002184F843106668A660002EA2BF2168A1
:1043400021F0040121600DB9002E4DD01646B5FBB9
:10435000F3F103FB1157C75D06F8017D2F46BB4201
:104360000D46F4D9082B0BD12368DF0708D5236944
:1043700061689942DEBF302306F8013C06F1FF3642
:10438000921B2261CDF800A04B4603AA214640466D
:10439000FFF7E2FE01304CD14FF0FF3004B0BDE832
:1043A000F087354884F8457023680E681F0656F874
:1043B000045B0E6014D5D90744BF43F0200323608B
:1043C0001DB9236823F0200323601023B0E723687E
:1043D00043F0200323607823284884F84530E3E73E
:1043E0005E0648BFADB2E6E71646BBE70B68266837
:1043F00060691D1D0D6035061B6801D5186002E05F
:104400007106FBD51880002323611646BAE70B68B6
:104410001A1D0A601E68626800213046FBF7F8FE2C
:1044200008B1801B606063682361002384F8433017
:10443000A8E72369324649464046D0470130ABD011
:1044400023689B0713D4E068039B9842B8BF1846C3
:10445000A4E70123324649464046D04701309BD06D
:104460000135E36803995B1AAB42F2DCEBE7002508
:1044700004F11906F5E700BF894800089A480008CA
:104480000A44914200F1FF3300D1704710B511F892
:10449000014B03F8014F9142F9D110BD884210B58C
:1044A00001EB020402D98442234607D8431EA142ED
:1044B00008D011F8012B03F8012FF8E70244014658
:1044C0008A4200D110BD13F8014D02F8014DF7E703
:1044D00038B50546002945D051F8043C0C1F002B87
:1044E000B8BFE41800F0D2F81F4A1368104633B979
:1044F000636014602846BDE8384000F0CDB8A342A0
:104500000BD921686218934204BF1A685B68636024
:1045100004BF521822600460ECE71A465B680BB1D6
:10452000A342FAD911685018A0420BD12068014467
:10453000501883421160DDD118685B6853600144F4
:104540001160D7E702D90C232B60D3E7206821182C
:104550008B4204BF19685B68636004BF091821605F
:104560005460C7E738BD00BFC8040020F8B5CD1CB3
:1045700025F0030508350C2D38BF0C25002D064607
:1045800001DBA94203D90C2333600020F8BD00F001
:104590007DF821490A6814469CB9204F3B6823B92D
:1045A0002146304600F062F838602946304600F077
:1045B0005DF8431C23D10C233360304600F06CF8C7
:1045C000E3E723685B1B17D40B2B03D923601C4440
:1045D000256004E06368A2420CBF0B605360304664
:1045E00000F05AF804F10B00231D20F00700C21A56
:1045F000CCD01B1AA350C9E722466468CCE7C41C80
:1046000024F00304A042E3D0211A304600F02EF833
:104610000130DDD1CFE700BFC8040020CC0400206A
:10462000F8B5074614460E4621B9BDE8F8401146D4
:10463000FFF79CBF22B9FFF74BFF25462846F8BD80
:1046400000F030F8A0420FD221463846FFF78EFF27
:1046500005460028F2D031462246FFF711FF3146C9
:104660003846FFF735FFE9E73546E7E738B5064D49
:104670000023044608462B60FCF754FB431C02D180
:104680002B6803B1236038BDF4050020014800F019
:1046900011B800BFFC050020014800F00CB800BFB5
:1046A000FC05002051F8043C181F002BBCBF0B5820
:1046B000C018704770477047F8B500BFF8BC08BC19
:1046C0009E467047F8B500BFF8BC08BC9E467047D0
:1046D0000D0A504D312E3020666163746F72790976
:1046E00020206973203A202564200D0A504D322E77
:1046F0003520666163746F72790920206973203AEE
:10470000202564200D0A504D3130202066616374ED
:104710006F72790920206973203A202564200D0AE0
:10472000504D312E302061746D6F73706865726901
:1047300063206973203A202564200D0A504D322EE3
:10474000352061746D6F7370686572696320697379
:10475000203A202564200D0A504D3130202061740C
:104760006D6F73706865726963206973203A2025E4
:1047700064200D0A302E33756D2064656E73697484
:10478000790920206973203A202564200D0A302EF3
:1047900035756D2064656E736974790920206973BD
:1047A000203A202564200D0A312E30756D20646575
:1047B0006E73697479200920206973203A2025647A
:1047C000200D0A322E35756D2064656E736974791B
:1047D000200920206973203A202564200D0A352EF7
:1047E00030756D2064656E736974792009202069C5
:1047F00073203A202564200D0A3130756D20206425
:10480000656E736974790920206973203A202564E4
:10481000200D0A0052656164206661696C0D0A0012
:10482000504D535F496E6974206661696C000000E9
:104830000000000000000000010203040607080950
:104840000000000001020304A0860100400D0300E7
:10485000801A060000350C0040420F0080841E00C4
:1048600000093D0000127A000024F40000366E01B9
:104870000048E801006CDC02232D302B2000686C1E
:104880004C00656667454647003031323334353673
:1048900037383941424344454600303132333435AC
:1048A00036373839616263646566000000000000D5
:0848B0008CF2FF7F0100000003
:0848B800D50200080000000019
:0848C000B10200080000000035
:1048C800424DE2FFFF036F00424DE1FF00026F001F
:1048D800424D0004E1000174424DE1FF0102700005
:1048E800424D0004E1010175424DE4FF01027300ED
:1048F80000093D00100000000100000040000020F9
:10490800000000000000000000000000000000009F
:10491800000000000000000000000000000000008F
:10492800000000000000000000000000000000007F
:10493800000000000000000000000000000000006F
:10494800000000000000000000000000000000005F
:10495800000000000000000000000000000000004F
:04000005080002F1FC
:00000001FF
