:020000040800F2
:1000000000000A20BD0300080D0400081953000871
:100010001F530008255300082B5300080000000060
:100020000000000000000000000000002125000882
:100030000D0400080000000091270008F9270008BF
:100040000D0400080D0400080D0400080D0400084C
:100050000D0400080D0400080D0400080D0400083C
:100060000D0400080D0400080D0400080D0400082C
:100070000D0400080D0400080D0400080D0400081C
:100080000D0400080D0400080D0400080D0400080C
:100090000D0400080D0400080D0400080D040008FC
:1000A0000D0400080D0400080D0400080D040008EC
:1000B000315300080D0400080D0400080D04000869
:1000C0000D0400080D0400080D0400080D040008CC
:1000D0000D0400080D0400080D0400080D040008BC
:1000E0000D0400080D0400080D0400080D040008AC
:1000F0000D0400080D0400080D04000800000000B5
:100100000D0400080D0400080D0400080D0400088B
:100110000D0400080D0400080D0400080D0400087B
:100120000D0400080D0400080D0400080D0400086B
:100130000D0400080D0400080D0400080D0400085B
:100140000D0400080D0400080D0400080D0400084B
:100150000D0400080D040008455300080D040008B4
:100160000D0400080D0400080D0400080D0400082B
:100170000D0400080D04000800000000000000004D
:100180000D0400080D0400080D0400080D0400080B
:100190000D0400080D04000800000000000000002D
:1001A00000000000000000000D0400080D0400081D
:1001B0000D0400080D0400080D04000800000000F4
:1001C000F0B400EB4003DFF8800000EBC30000F167
:1001D00018063069F768756887422ED3B368DC1B50
:1001E000631E934212D37D19D01900BF11F8013B51
:1001F00005F8013B013A05D011F8013B05F8013B38
:10020000013AF3D1F0600120F0BC7047C018904271
:1002100017D37819121B11F8013B00F8013B013C80
:10022000F9D1141C05D011F8013B05F8013B013A46
:10023000F9D1F4600120F0BC7047C01B0138904236
:10024000D1D20020F0BC704780890020034613F80B
:10025000012B002AFBD1181A01387047000000005A
:1002600001F0FF01102A2BDB10F0070F08D010F867
:10027000013B013A8B422DD010F0070F42B3F6D16B
:10028000F0B441EA012141EA014122F007047FF084
:1002900000070023F0E80256083C85EA010586EADB
:1002A000010685FA47F5A3FA87F586FA47F6A5FA17
:1002B00087F68EB9EED1F0BC01F0FF0102F0070223
:1002C00032B110F8013B013A83EA010313B1F8D1CE
:1002D0000020704701387047002D06BF35460338AF
:1002E000073815F0010F07D1013015F4807F02BFE8
:1002F000013015F4C03F0130F0BC0138704700BF39
:1003000053B94AB9002908BF00281CBF4FF0FF317C
:100310004FF0FF3000F00CB8ADF1080C6DE904CEE1
:100320000AF0C6FDDDF804E0DDE9022304B0704701
:10033000704700BF10B5054C237833B9044B13B197
:100340000448AFF300800123237010BD400100205A
:100350000000000070B1000808B5034B1BB1034951
:100360000348AFF3008008BD0000000044010020F6
:1003700070B100080D4A116810B5034609B90C495F
:1003800011601068694603448B4206D809490A4C3B
:100390000968A14208D08B4206D90AF015F90C234E
:1003A00003604FF0FF3010BD1360FCE75C010020DC
:1003B000A88A002000000020ADDEFECADFF834D09D
:1003C000002103E00C4B5B58435004310B480C4BAD
:1003D00042189A42F6D30B4A02E0002342F8043B4B
:1003E000094B9A42F9D305F0F3FC0AF0F3F804F054
:1003F000B3FFFEE700000A2070B4000800000020F0
:100400004001002040010020A88A0020FEE70000F3
:1004100080B582B000AF1F4B7B607B6803221A61FE
:100420007B6803225A617B681B4A9A617B681B4A7E
:10043000DA617B684FF480621A627B6800229A62FC
:100440007B6800225A627B680022DA627B68124A6B
:100450001A667B68124A5A667B6810229A667B6825
:1004600000221A677B680022DA667B6800225A67DE
:100470007B6807330B4918460AF080F97B680A4904
:1004800018460AF07BF97B6820229A7100BF083772
:10049000BD4680BD8089002088B100086001002031
:1004A0006005002094B1000898B1000880B58AB0BA
:1004B00000AFF860B9607A603C4B93F90030002BD4
:1004C00001D1FFF7A5FFFA6813465B001344DB0078
:1004D0006033364A1344BB61BB68FB61BB691B696F
:1004E0003B62BB69DB687B6100237B623A6A7B69A4
:1004F0009A422AD9BB699A683B6AD31A3B613A6926
:100500007B68934228BF13463B61BB695A683B6ACC
:1005100013443A691946F8690AF090F87A6A3B6917
:1005200013447B62FA693B691344FB617A683B6957
:10053000D31A7B603A6A3B6913443B62BB699B6890
:100540003A6A9A4201D100233B627A693B6AD31A24
:100550003B613A697B68934228BF13463B613B6924
:10056000002B18D0BB695A683B6A13443A69194694
:10057000F8690AF063F87A6A3B6913447B62FA69A6
:100580003B691344FB617A683B69D31A7B603A6A22
:100590003B6913443B627B6A002B02D0BB693A6A19
:1005A0001A617B6A18462837BD4680BD80890020C5
:1005B00080B586B000AFF860B9607A603B60314BBF
:1005C00093F90030002B01D1FFF722FF2D4B1B695F
:1005D0001A46FB6893424CD2EFF311834FF020018F
:1005E00081F311883B61FB68002B32D02549FB6801
:1005F0005A1C13465B001344DB000B44BA681A60B4
:100600002049FB685A1C13465B001344DB000B4473
:1006100004337A681A601B49FA6813465B00134476
:10062000DB000B4420333A681A601649FA68134617
:100630005B001344DB000B44283300221A6011498D
:10064000FA6813465B001344DB000B44243300229A
:100650001A600C49FA6813465B001344DB000B4434
:100660002C333A6A1A603B6983F3118800237B615B
:1006700002E04FF0FF337B617B6918461837BD46B7
:1006800080BD00BF8089002080B586B000AFF860D3
:10069000B9607A603B60304B93F90030002B01D198
:1006A000FFF7B6FE2C4B5B691A46FB6893424BD2B0
:1006B000EFF311834FF0200181F311883B61FB6858
:1006C000002B31D02449FA6813465B001344DB0049
:1006D0000B446033BA681A601F49FA6813465B001E
:1006E0001344DB000B4464337A681A601A49FA68D1
:1006F00013465B001344DB000B4468333A681A600E
:100700001549FA6813465B001344DB000B44703351
:1007100000221A601049FA6813465B001344DB009C
:100720000B446C3300221A600B49FA6813465B00D5
:100730001344DB000B4474333A6A1A603B6983F359
:10074000118800237B6102E04FF0FF337B617B69FE
:1007500018461837BD4680BD8089002080B487B018
:1007600000AFF860B9607A6000233B6102E03B694A
:1007700001333B61BA683B69134493F90030002BA5
:10078000F5D13A697B689A4201D97B683B613B6944
:10079000FE2B06D8FB685A1CFA603A69D2B21A706E
:1007A00011E0FB685A1CFA60FF221A70FB685A1CA1
:1007B000FA603A69D2B21A703B69190AFB685A1C8E
:1007C000FA60CAB21A7000237B610CE0BB685A1C45
:1007D000BA6093F90010FB685A1CFA60CAB21A702A
:1007E0007B6901337B617A693B699A42EED3FB688E
:1007F00018461C37BD465DF8047B704780B483B053
:1008000000AF78607B68043318460C37BD465DF84E
:10081000047B704780B582B000AFFB1C01221946F3
:100820000120FFF743FE03467B607B68002B4CDD15
:10083000FB78072B16DC002B3CDD013B062B39D85F
:1008400001A252F823F000BF6B08000871080008ED
:10085000770800087D080008830800088908000858
:100860008F080008802B15D024E000F033FC31E025
:1008700000F0E8FC2EE000F0C3FE2BE000F088FE64
:1008800028E000F005FD25E001F05EF922E001F02E
:100890003DF91FE0FB1C012219460120FFF706FE6F
:1008A00003467B607B68002B11DDFB78184601F066
:1008B000ADF80CE0FB785BB2002B0ADAFB1C0122DE
:1008C00019460120FFF7F2FD03E000BF02E000BF80
:1008D00000E000BF00BF0837BD4680BD80B58CB0CA
:1008E00000AF01233B713B1D0133FB61FB69FB62E0
:1008F000304B5B69BB620BE0BB6ADAB2FB6A591C26
:10090000F96262F07F02D2B21A70BB6ADB09BB6285
:10091000BB6A7F2BF0D8FB6A5A1CFA62BA6AD2B261
:100920001A70FB6AFB61244B1B68BB61214BDB68BF
:10093000BA69D31A7B61FB697B627B693B620BE01E
:100940003B6ADAB27B6A591C796262F07F02D2B2EA
:100950001A703B6ADB093B623B6A7F2BF0D87B6AEB
:100960005A1C7A623A6AD2B21A707B6AFB613B1DEA
:10097000FA69D31A1A463B1D19460120FFF720FCDD
:1009800003463B613B69002B09D00A4ABB69D3602F
:10099000084B1B78013BDAB2064B1A7004E0054B9A
:1009A0005B690133034A53613B6918463037BD46E2
:1009B00080BD00BF78450020041000E080B58AB0FB
:1009C00000AFF860B9607A60634B1B78012B10D0E0
:1009D000614B1B78002B00F0A1805F4B1B78022B32
:1009E00009D1FFF77BFF5C4B1B78012B40F098800F
:1009F00001E000BF00E000BF7B681F2B09D8564B09
:100A0000DA697B6822FA03F303F00103002B40F05C
:100A100089807B68172B07D8FB68013BFB607B68EC
:100A2000DAB2FB681A703DE0BA68FB68D31AFB6162
:100A3000FB697F2B12D9FB69DA09FB68013BFB607C
:100A4000D2B2FB681A70FB69DBB2FA68013AFA604D
:100A500063F07F03DAB2FB681A7006E0FB68013BC3
:100A6000FB60FB69DAB2FB681A707B687F2B12D9D6
:100A70007B68DA09FB68013BFB60D2B2FB681A7045
:100A80007B68DBB2FA68013AFA6063F07F03DAB29E
:100A9000FB681A7006E0FB68013BFB607B68DAB21A
:100AA000FB681A702D4B1B68BB612B4BDB68BA6966
:100AB000D31A7B61BB687B627B693B620BE03B6A5C
:100AC000DAB27B6A591C796262F07F02D2B21A7084
:100AD0003B6ADB093B623B6A7F2BF0D87B6A5A1C7E
:100AE0007A623A6AD2B21A707B6ABB60BA68FB68F3
:100AF000D31A1A46F9680120FFF762FB03463B61EF
:100B00003B69002B03D0144ABB69D3600BE0124B46
:100B10001B780133DAB2104B1A7004E000BF02E018
:100B200000BF00E000BF0E4BD3F884200C4BD3F87D
:100B300088309A420BD0084B9B78002B07D1064B8C
:100B400001229A70FFF766FE034B00229A7000BFE5
:100B50002837BD4680BD00BF78450020041000E066
:100B60008089002080B586B002AFF860B9607A60F5
:100B70003B60002300934FF48043144A1449012042
:100B8000FFF716FD002300930823124A10490120A5
:100B9000FFF77AFD104B4FF080521A610F4B1B6824
:100BA0000D4AD3600C4A7B6813620B4AFB685360A2
:100BB000094ABB689360084A3B685362064B0022AF
:100BC0001A7000BF1037BD4680BD00BF7005002001
:100BD000A0B100087045002078450020041000E016
:100BE00080B483B000AF7860044A7B68136100BFB3
:100BF0000C37BD465DF8047B704700BF7845002088
:100C000080B584B000AF7860EFF311834FF020011E
:100C100081F31188FB600848FFF7F0FDB8607A683F
:100C2000B968B868FFF7CAFEFB6883F3118800BF94
:100C30001037BD4680BD00BFA845002080B588B0F4
:100C400000AF78603960EFF311834FF0200181F33A
:100C500011887B611648FFF7D1FD38613B69FB6065
:100C6000FB68FB613B68BB610BE0BB69DAB2FB6907
:100C7000591CF96162F07F02D2B21A70BB69DB09BC
:100C8000BB61BB697F2BF0D8FB695A1CFA61BA695A
:100C9000D2B21A70FB69FB607A68F9683869FFF7AD
:100CA0008DFE7B6983F3118800BF2037BD4680BD70
:100CB000A845002080B58CB000AFF860B9607A60BC
:100CC000EFF311834FF0200181F31188FB61254878
:100CD000FFF794FDB861BB697B617B69FB62BB6810
:100CE000BB620BE0BB6ADAB2FB6A591CF96262F0C4
:100CF0007F02D2B21A70BB6ADB09BB62BB6A7F2B70
:100D0000F0D8FB6A5A1CFA62BA6AD2B21A70FB6A4D
:100D10007B617B697B627B683B620BE03B6ADAB29A
:100D20007B6A591C796262F07F02D2B21A703B6A08
:100D3000DB093B623B6A7F2BF0D87B6A5A1C7A62E4
:100D40003A6AD2B21A707B6A7B61FA687969B869CB
:100D5000FFF734FEFB6983F3118800BF3037BD46CF
:100D600080BD00BFA845002080B58EB000AFF86000
:100D7000B9607A603B60EFF311834FF0200181F39B
:100D80001188FB613248FFF739FDB861BB697B61AF
:100D90007B697B63BB683B630BE03B6BDAB27B6BCD
:100DA000591C796362F07F02D2B21A703B6BDB0987
:100DB0003B633B6B7F2BF0D87B6B5A1C7A633A6B9F
:100DC000D2B21A707B6B7B617B69FB627B68BB6212
:100DD0000BE0BB6ADAB2FB6A591CF96262F07F026F
:100DE000D2B21A70BB6ADB09BB62BB6A7F2BF0D838
:100DF000FB6A5A1CFA62BA6AD2B21A70FB6A7B6149
:100E00007B697B623B683B620BE03B6ADAB27B6AE0
:100E1000591C796262F07F02D2B21A703B6ADB0918
:100E20003B623B6A7F2BF0D87B6A5A1C7A623A6A33
:100E3000D2B21A707B6A7B61FA687969B869FFF788
:100E4000BDFDFB6983F3118800BF3837BD4680BD07
:100E5000A845002080B590B000AFF860B9607A6016
:100E60003B60EFF311834FF0200181F31188FB61A8
:100E70004048FFF7C3FCB861BB697B617B69FB63DA
:100E8000BB68BB630BE0BB6BDAB2FB6B591CF9634D
:100E900062F07F02D2B21A70BB6BDB09BB63BB6B23
:100EA0007F2BF0D8FB6B5A1CFA63BA6BD2B21A7064
:100EB000FB6B7B617B697B637B683B630BE03B6B1C
:100EC000DAB27B6B591C796362F07F02D2B21A707E
:100ED0003B6BDB093B633B6B7F2BF0D87B6B5A1C76
:100EE0007A633A6BD2B21A707B6B7B617B69FB626F
:100EF0003B68BB620BE0BB6ADAB2FB6A591CF96261
:100F000062F07F02D2B21A70BB6ADB09BB62BB6AB5
:100F10007F2BF0D8FB6A5A1CFA62BA6AD2B21A70F6
:100F2000FB6A7B617B697B62BB6C3B620BE03B6A6B
:100F3000DAB27B6A591C796262F07F02D2B21A700F
:100F40003B6ADB093B623B6A7F2BF0D87B6A5A1C09
:100F50007A623A6AD2B21A707B6A7B61FA687969FE
:100F6000B869FFF72BFDFB6983F3118800BF403799
:100F7000BD4680BDA845002080B592B000AFF860A6
:100F8000B9607A603B60EFF311834FF0200181F389
:100F90001188FB614E48FFF731FCB861BB697B618A
:100FA0007B697B64BB683B640BE03B6CDAB27B6CB7
:100FB000591C796462F07F02D2B21A703B6CDB0973
:100FC0003B643B6C7F2BF0D87B6C5A1C7A643A6C88
:100FD000D2B21A707B6C7B617B69FB637B68BB63FD
:100FE0000BE0BB6BDAB2FB6B591CF96362F07F025A
:100FF000D2B21A70BB6BDB09BB63BB6B7F2BF0D823
:10100000FB6B5A1CFA63BA6BD2B21A70FB6B7B6132
:101010007B697B633B683B630BE03B6BDAB27B6BCA
:10102000591C796362F07F02D2B21A703B6BDB0904
:101030003B633B6B7F2BF0D87B6B5A1C7A633A6B1C
:10104000D2B21A707B6B7B617B69FB623B6DBB62CA
:101050000BE0BB6ADAB2FB6A591CF96262F07F02EC
:10106000D2B21A70BB6ADB09BB62BB6A7F2BF0D8B5
:10107000FB6A5A1CFA62BA6AD2B21A70FB6A7B61C6
:101080007B697B627B6D3B620BE03B6ADAB27B6A19
:10109000591C796262F07F02D2B21A703B6ADB0996
:1010A0003B623B6A7F2BF0D87B6A5A1C7A623A6AB1
:1010B000D2B21A707B6A7B61FA687969B869FFF706
:1010C0007DFCFB6983F3118800BF4837BD4680BDB6
:1010D000A845002080B58CB000AF574B01221A7094
:1010E000EFF311834FF0200181F31188FB600A2296
:1010F00052490120FFF764F8FB6883F311880A2046
:10110000FFF77EFDEFF311834FF0200181F311888B
:10111000BB604B48FFF772FB78607B683B603B68C5
:10112000FB62454B5B68BB620BE0BB6ADAB2FB6AF1
:10113000591CF96262F07F02D2B21A70BB6ADB09F5
:10114000BB62BB6A7F2BF0D8FB6A5A1CFA62BA6A90
:10115000D2B21A70FB6A3B603B687B62364B9B687D
:101160003B620BE03B6ADAB27B6A591C796262F03F
:101170007F02D2B21A703B6ADB093B623B6A7F2B6B
:10118000F0D87B6A5A1C7A623A6AD2B21A707B6AC9
:101190003B603B68FB61284B1B69BB610BE0BB6993
:1011A000DAB2FB69591CF96162F07F02D2B21A709F
:1011B000BB69DB09BB61BB697F2BF0D8FB695A1C9B
:1011C000FA61BA69D2B21A70FB693B603B687B6115
:1011D00002233B610BE03B69DAB27B69591C796100
:1011E00062F07F02D2B21A703B69DB093B613B6956
:1011F0007F2BF0D87B695A1C7A613A69D2B21A7097
:101200007B693B60182239687868FFF7D7FBBB68B9
:1012100083F31188084B5B6A002B02D0064B5B6A94
:10122000984700F0EDF900F0B3F900F08DFC00BF35
:101230003037BD4680BD00BF7845002064B300084C
:10124000A845002080B582B000AFEFF311834FF0C6
:10125000200181F311887B600B48FFF7CFFA3860DB
:101260000A4B1B78002B07D00B2239683868FFF730
:10127000A5FB064B00221A707B6883F3118800BF20
:101280000837BD4680BD00BFA84500207845002036
:1012900080B58CB000AFEFF311834FF0200181F3E4
:1012A0001188FB604548FFF7A9FAB860BB687B600E
:1012B0007B68FB62424B5B68BB620BE0BB6ADAB2E5
:1012C000FB6A591CF96262F07F02D2B21A70BB6AE3
:1012D000DB09BB62BB6A7F2BF0D8FB6A5A1CFA623F
:1012E000BA6AD2B21A70FB6A7B607B687B62344B4D
:1012F0009B683B620BE03B6ADAB27B6A591C7962FD
:1013000062F07F02D2B21A703B6ADB093B623B6A31
:101310007F2BF0D87B6A5A1C7A623A6AD2B21A7072
:101320007B6A7B607B68FB61254B1B69BB610BE0C3
:10133000BB69DAB2FB69591CF96162F07F02D2B273
:101340001A70BB69DB09BB61BB697F2BF0D8FB69F5
:101350005A1CFA61BA69D2B21A70FB697B607B6869
:101360007B6102233B610BE03B69DAB27B69591C6C
:10137000796162F07F02D2B21A703B69DB093B618E
:101380003B697F2BF0D87B695A1C7A613A69D2B2EB
:101390001A707B697B6018227968B868FFF70EFBCA
:1013A000FB6883F31188064B5B6A002B02D0044B69
:1013B0005B6A984700BF3037BD4680BDA845002016
:1013C0007845002080B592B000AF7860EFF31183CC
:1013D0004FF0200181F311887B616B48FFF70EFA13
:1013E00038613B69FB60FB687B647B681A68674B0C
:1013F0001B69D31A9B083B640BE03B6CDAB27B6C35
:10140000591C796462F07F02D2B21A703B6CDB091E
:101410003B643B6C7F2BF0D87B6C5A1C7A643A6C33
:10142000D2B21A707B6CFB60FB68FB637B689B68C5
:10143000BB630BE0BB6BDAB2FB6B591CF96362F068
:101440007F02D2B21A70BB6BDB09BB63BB6B7F2B15
:10145000F0D8FB6B5A1CFA63BA6BD2B21A70FB6BF2
:10146000FB607B685B6820221946F868FFF776F915
:10147000F8600922F9683869FFF7A0FA3B69FB6058
:10148000FB687B637B681A68404B1B69D31A9B0817
:101490003B630BE03B6BDAB27B6B591C796362F008
:1014A0007F02D2B21A703B6BDB093B633B6B7F2B35
:1014B000F0D87B6B5A1C7A633A6BD2B21A707B6B92
:1014C000FB60FB68FB627B68DB68BB620BE0BB6AAE
:1014D000DAB2FB6A591CF96262F07F02D2B21A706A
:1014E000BB6ADB09BB62BB6A7F2BF0D8FB6A5A1C64
:1014F000FA62BA6AD2B21A70FB6AFB60FB687B625E
:101500007B681B693B620BE03B6ADAB27B6A591C61
:10151000796262F07F02D2B21A703B6ADB093B62E9
:101520003B6A7F2BF0D87B6A5A1C7A623A6AD2B245
:101530001A707B6AFB60FB68FB610023BB610BE0F8
:10154000BB69DAB2FB69591CF96162F07F02D2B261
:101550001A70BB69DB09BB61BB697F2BF0D8FB69E3
:101560005A1CFA61BA69D2B21A70FB69FB60152283
:10157000F9683869FFF722FA7B6983F3118800BFA5
:101580004837BD4680BD00BFA845002078450020F3
:1015900080B500AF074B1B6A002B08D0054B1B6AB8
:1015A0005B68002B03D0034B1B6A5B68984700BF46
:1015B00080BD00BF7845002080B586B000AF786060
:1015C000EFF311834FF0200181F311887B610B4809
:1015D000FFF714F93861802279683869FFF7BEF89F
:1015E000F8600E22F9683869FFF7E8F97B6983F340
:1015F000118800BF1837BD4680BD00BFA845002038
:1016000090B583B000AF154B1B6A002B1AD0134B5B
:101610001B6A1B68002B15D0104B1B6A1B68984770
:10162000C7E900013C68D7E900014FF000024FF024
:1016300000030A00002313461A4621460D20FFF737
:1016400039FB06E0064B1B6819460C20FFF7F6FA3B
:1016500000BF00BF0C37BD4690BD00BF78450020DD
:10166000041000E080B586B000AFEFF311834FF0B7
:10167000200181F31188FB601948FFF7BFF8B860BB
:10168000BB687B60174B1B68C3F308033B607B6838
:101690007B613B683B610BE03B69DAB27B69591CBB
:1016A000796162F07F02D2B21A703B69DB093B615B
:1016B0003B697F2BF0D87B695A1C7A613A69D2B2B8
:1016C0001A707B697B6002227968B868FFF776F947
:1016D000FB6883F3118800BF1837BD4680BD00BF8B
:1016E000A845002004ED00E080B582B000AFEFF324
:1016F00011834FF0200181F311887B600748FFF7C9
:101700007DF83860032239683868FFF757F97B683D
:1017100083F3118800BF0837BD4680BDA84500206F
:1017200080B582B000AFEFF311834FF0200181F359
:1017300011887B600748FFF761F83860122239682A
:101740003868FFF73BF97B6883F3118800BF0837DF
:10175000BD4680BDA845002080B582B000AFEFF344
:1017600011834FF0200181F311887B600748FFF758
:1017700045F83860112239683868FFF71FF97B682F
:1017800083F3118800BF0837BD4680BDA8450020FF
:1017900080B588B000AF7860EFF311834FF020017F
:1017A00081F311887B611A48FFF728F838613B699B
:1017B000FB60184B1B697A68D31A9B087B60FB6837
:1017C000FB617B68BB610BE0BB69DAB2FB69591C4A
:1017D000F96162F07F02D2B21A70BB69DB09BB61AA
:1017E000BB697F2BF0D8FB695A1CFA61BA69D2B287
:1017F0001A70FB69FB600822F9683869FFF7DEF8A8
:101800007B6983F3118800BF2037BD4680BD00BFD0
:10181000A84500207845002080B588B000AF7860EA
:10182000EFF311834FF0200181F311887B611A4897
:10183000FEF7E4FF38613B69FB60184B1B697A686F
:10184000D31A9B087B60FB68FB617B68BB610BE084
:10185000BB69DAB2FB69591CF96162F07F02D2B24E
:101860001A70BB69DB09BB61BB697F2BF0D8FB69D0
:101870005A1CFA61BA69D2B21A70FB69FB60042281
:10188000F9683869FFF79AF87B6983F3118800BF1C
:101890002037BD4680BD00BFA84500207845002008
:1018A00080B588B000AF7860EFF311834FF020016E
:1018B00081F311887B611A48FEF7A0FF38613B690C
:1018C000FB60184B1B697A68D31A9B087B60FB6826
:1018D000FB617B68BB610BE0BB69DAB2FB69591C39
:1018E000F96162F07F02D2B21A70BB69DB09BB6199
:1018F000BB697F2BF0D8FB695A1CFA61BA69D2B276
:101900001A70FB69FB600622F9683869FFF756F820
:101910007B6983F3118800BF2037BD4680BD00BFBF
:10192000A84500207845002080B58AB000AF7860D7
:101930003960EFF311834FF0200181F311887B614F
:101940002748FEF75BFF38613B69FB60254B1B694D
:101950007A68D31A9B087B60FB687B627B683B627A
:101960000BE03B6ADAB27B6A591C796262F07F0253
:10197000D2B21A703B6ADB093B623B6A7F2BF0D81C
:101980007B6A5A1C7A623A6AD2B21A707B6AFB602E
:10199000FB68FB613B68BB610BE0BB69DAB2FB69CA
:1019A000591CF96162F07F02D2B21A70BB69DB097F
:1019B000BB61BB697F2BF0D8FB695A1CFA61BA691D
:1019C000D2B21A70FB69FB600722F9683869FEF72A
:1019D000F5FF7B6983F3118800BF2837BD4680BDC2
:1019E000A84500207845002080B483B000AF78601F
:1019F000054B1B697A68D31A9B0818460C37BD46FD
:101A00005DF8047B704700BF7845002080B58CB03E
:101A100000AF0346FB713B4B1B68002B6DD0394B6D
:101A20001B68FB620023BB6208E0FB6A1B69FB6268
:101A3000FB6A002B07D0BB6A0133BB62FB79BA6A31
:101A40009A42F2D300E000BFFB6A002B55D0EFF3BF
:101A500011834FF0200181F311887B612A48FEF742
:101A6000CDFE38613B69FB60FB687B62FB793B62C2
:101A70000BE03B6ADAB27B6A591C796262F07F0242
:101A8000D2B21A703B6ADB093B623B6A7F2BF0D80B
:101A90007B6A5A1C7A623A6AD2B21A707B6AFB601D
:101AA000FB68FB61FB6A9B68BB610BE0BB69DAB258
:101AB000FB69591CF96162F07F02D2B21A70BB69EE
:101AC000DB09BB61BB697F2BF0D8FB695A1CFA614B
:101AD000BA69D2B21A70FB69FB60FB6A1B6880228C
:101AE0001946F868FEF73AFEF8601622F968386978
:101AF000FEF764FF7B6983F3118800BF3037BD4672
:101B000080BD00BFA0450020A845002080B582B060
:101B100000AF0C4B1B68002B0FD00A4B1B687B607F
:101B20007B68DB68002B02D07B68DB6898477B68AA
:101B30001B697B607B68002BF2D100BF0837BD4674
:101B400080BD00BFA045002080B586B000AFEFF398
:101B500011834FF0200181F31188FB601748FEF7D5
:101B60004DFEB860BB687B607B687B61144B1B7863
:101B70003B610BE03B69DAB27B69591C796162F029
:101B80007F02D2B21A703B69DB093B613B697F2B54
:101B9000F0D87B695A1C7A613A69D2B21A707B69B3
:101BA0007B601B227968B868FEF708FFFB6883F347
:101BB000118800BF1837BD4680BD00BFA845002072
:101BC000A445002080B58AB000AF7860EFF31183A0
:101BD0004FF0200181F311887B612748FEF70EFE4C
:101BE0003861802279683869FEF7B8FDF860FB68D3
:101BF0007B6201233B620BE03B6ADAB27B6A591CD1
:101C0000796262F07F02D2B21A703B6ADB093B62F2
:101C10003B6A7F2BF0D87B6A5A1C7A623A6AD2B24E
:101C20001A707B6AFB60FB68FB610023BB610BE001
:101C3000BB69DAB2FB69591CF96162F07F02D2B26A
:101C40001A70BB69DB09BB61BB697F2BF0D8FB69EC
:101C50005A1CFA61BA69D2B21A70FB69FB601A2287
:101C6000F9683869FEF7AAFE7B6983F3118800BF23
:101C70002837BD4680BD00BFA8450020F0B585B01F
:101C800002AF00237B6048E029497A6813469B0035
:101C900013449B000B441B68184602F0E7FB014607
:101CA00023487A6813469B0013449B000344103377
:101CB00019601F497A6813469B0013449B000B442C
:101CC00018681B497A6813469B0013449B000B4419
:101CD00004331968164C7A6813469B0013449B0022
:101CE000234408331C68124D7A6813469B00134442
:101CF0009B002B440C331D680D4E7A6813469B00E5
:101D000013449B00334410331B6800932B46224638
:101D100000F072F97B6801337B60064B1B687A68C0
:101D20009A42B1D300BF00BF0C37BD46F0BD00BF23
:101D30008C4600202C470020B0B582B000AF02F0E6
:101D400053F803461A464FF00003C7E90023D7E9CA
:101D5000000102460B464FF000044FF000055D0104
:101D600045EAD265540122462B46121A63EB010361
:101D70004FF000044FF000059D0045EA9275940075
:101D800022462B46121841EB03034FF000004FF0A0
:101D90000001D90041EA5271D00002460B46C7E962
:101DA0000023D7E90023104619460837BD46B0BDC9
:101DB00080B586B002AFF860B9607A603B600522FA
:101DC0002B49B86808F02CFC0346002B4BD0294B5C
:101DD0001B68072B03D92848FFF7F4FE44E0254B86
:101DE0001A68264913469B0013449B000B44FA686B
:101DF0001A60204B1A68214913469B0013449B002C
:101E00000B440433BA681A601A4B1A681B4913460C
:101E10009B0013449B000B4408337A681A60154BEF
:101E20001A68164913469B0013449B000B440C335D
:101E30003A681A600F4B1A68104913469B00134406
:101E40009B000B441033BA691A600A4B1B680133BC
:101E5000084A1360BB6900933B687A68B968F86800
:101E600000F0CAF800E000BF1037BD4680BD00BFDB
:101E7000A8B100082C470020B0B100088C46002013
:101E800080B584B000AF7860594B1B68002B00F020
:101E9000AB800023FB600DE05649FA6813469B00B7
:101EA00013449B000B441B687A689A4208D0FB6875
:101EB0000133FB604E4B1B68FA689A42ECD300E09A
:101EC00000BF4B4B1B68013BFA689A4211D1FA687C
:101ED00013469B0013449B00464A134414220021DE
:101EE000184608F0B9FB424B1B68013B404A13609F
:101EF0007BE03F4B1B68FA689A4276D23C4B1B68EA
:101F00005A1E3C4913469B0013449B000B4419681E
:101F10003848FA6813469B0013449B000344196039
:101F2000334B1B685A1E334913469B0013449B00D6
:101F30000B44043319682F48FA6813469B00134476
:101F40009B00034404331960294B1B685A1E29491E
:101F500013469B0013449B000B4408331968254823
:101F6000FA6813469B0013449B000344083319602E
:101F70001F4B1B685A1E1F4913469B0013449B00AE
:101F80000B440C3319681B48FA6813469B00134432
:101F90009B0003440C331960154B1B685A1E1549EE
:101FA00013469B0013449B000B44103319681148DF
:101FB000FA6813469B0013449B00034410331960D6
:101FC0000B4B1B685A1E13469B0013449B00094A87
:101FD000134414220021184608F03EFB044B1B68F2
:101FE000013B034A136000E000BF1037BD4680BDCF
:101FF0002C4700208C46002080B58AB000AFF860E6
:10200000B9607A603B6007F114031422002118467E
:1020100008F022FBFB687B61BB68BB617B68FB61EE
:102020003B683B623B6B7B6207F114031846FFF78A
:10203000C9F900BF2837BD4680BD000080B500AF9C
:102040000348FFF7B9FA0348FFF7B6FA00BF80BDAF
:1020500000B2000844B2000880B500AF054B064A44
:1020600006490648FEF77EFD4FF00050FEF7B8FD2A
:1020700000BF80BD3D20000870B3000800093D008E
:1020800080B58AB000AF78600023FB6101F0EEFDFF
:102090005B4B1B68002B01D100F020F9594B1A68EB
:1020A0007B681340002B40F093807B68002B1DD091
:1020B00008227B6813447B607B6803F00703002BD6
:1020C00014D07B6823F0070308337B607B6803F040
:1020D0000703002B0AD04FF0500383F31188BFF39E
:1020E0006F8FBFF34F8F7B6100BFFEE77B68002BD4
:1020F0006ED0454B1B687A689A4269D8434B3B6265
:10210000424B1B687B6204E07B6A3B627B6A1B6814
:102110007B627B6A5B687A689A4203D97B6A1B6838
:10212000002BF1D1364B1B687A6A9A4250D03B6A39
:102130001B6808221344FB617B6A1A683B6A1A60B9
:102140007B6A5A687B68D21A08235B009A421FD9BF
:102150007A6A7B681344BB61BB6903F00703002BF9
:102160000AD04FF0500383F31188BFF36F8FBFF392
:102170004F8F3B6100BFFEE77B6A5A687B68D21ACB
:10218000BB695A607B6A7A685A60B86900F008F9DE
:102190001D4B1A687B6A5B68D31A1B4A13601A4B83
:1021A0001A681B4B1B689A4203D2174B1B68184ACC
:1021B00013607B6A5A68134B1B681A437B6A5A6028
:1021C0007B6A00221A60134B1B680133114A1360AB
:1021D00001F05AFDFB6903F00703002B0AD04FF012
:1021E000500383F31188BFF36F8FBFF34F8FFB60F2
:1021F00000BFFEE7FB6918462837BD4680BD00BF1B
:10220000388700204C8700203C8700203087002042
:10221000408700204487002080B586B000AF7860FA
:102220007B687B617B68002B4DD008235B427A6919
:1022300013447B617B693B613B695A68244B1B6893
:102240001340002B0AD14FF0500383F31188BFF3E2
:102250006F8FBFF34F8FFB6000BFFEE73B691B68CA
:10226000002B0AD04FF0500383F31188BFF36F8F18
:10227000BFF34F8FBB6000BFFEE73B695A68144B4A
:102280001B681340002B1ED03B691B68002B1AD122
:102290003B695A680E4B1B68DB431A403B695A6026
:1022A00001F0E4FC3B695A680A4B1B681344094A75
:1022B0001360386900F074F8074B1B680133064A55
:1022C000136001F0E1FC00BF1837BD4680BD00BFC0
:1022D0004C8700203C8700204887002080B485B0D0
:1022E00000AF4FF48043BB60274BFB60FB6803F0FB
:1022F0000703002B0CD0FB680733FB60FB6823F05F
:102300000703FB60BA68FB68D31A1F4A1344BB601B
:10231000FB687B601D4A7B6813601C4B00225A607F
:102320007B68BA681344FB600822FB689B1AFB6059
:10233000FB6823F00703FB60FB68154A1360144B2E
:102340001B6800225A60124B1B6800221A607B68CF
:102350003B603B68FA68D21A3B685A600C4B1A68BB
:102360003B681A603B685B680A4A13603B685B68BD
:10237000094A1360094B4FF000421A6000BF14373E
:10238000BD465DF8047B7047304700203087002051
:1023900038870020408700203C8700204C870020A1
:1023A00080B485B000AF7860284BFB6002E0FB682A
:1023B0001B68FB60FB681B687A689A42F7D8FB6869
:1023C000BB60FB685B68BA6813447A689A4208D1BC
:1023D000FB685A687B685B681A44FB685A60FB6854
:1023E0007B607B68BB607B685B68BA681A44FB688B
:1023F0001B689A4218D1FB681A68154B1B689A42F1
:102400000DD07B685A68FB681B685B681A447B6860
:102410005A60FB681B681A687B681A6008E00C4BFE
:102420001A687B681A6003E0FB681A687B681A60A8
:10243000FA687B689A4202D0FB687A681A6000BF2B
:102440001437BD465DF8047B704700BF308700201D
:102450003887002080B485B000AFF860B9607A603A
:10246000FB68043BFB60FB684FF080721A60FB68FE
:10247000043BFB60BB6823F00102FB681A60FB6849
:10248000043BFB600C4AFB681A60FB68143BFB6072
:102490007A68FB681A60FB68043BFB60FB686FF0BE
:1024A00002021A60FB68203BFB60FB681846143789
:1024B000BD465DF8047B7047BD24000880B485B03C
:1024C00000AF00237B60124B1B68B3F1FF3F0AD0C3
:1024D0004FF0500383F31188BFF36F8FBFF34F8F1B
:1024E000FB6000BFFEE74FF0500383F31188BFF39A
:1024F0006F8FBFF34F8FBB6000BF00BF7B68002BA7
:10250000FCD000BF00BF1437BD465DF8047B7047A8
:102510000400002000000000000000000000000097
:10252000074B19680868B0E8F04F80F30988BFF3DB
:102530006F8F4FF0000080F311887047AFF3008079
:102540005887002000BF00BF08480068006880F37B
:1025500008884FF0000080F3148862B661B6BFF3BC
:102560004F8FBFF36F8F00DF00BF00BF08ED00E0AB
:1025700080B588B000AF4E4B1B684E4A93420AD1DB
:102580004FF0500383F31188BFF36F8FBFF34F8F6A
:10259000BB6100BFFEE7464B1B68474A93420AD126
:1025A0004FF0500383F31188BFF36F8FBFF34F8F4A
:1025B0007B6100BFFEE7414BFB61FB691B78DBB22F
:1025C000BB60FB69FF221A70FB691B78DBB2FB71F1
:1025D000FB79DBB203F05003DAB2394B1A70394B96
:1025E00007221A6009E0374B1B68013B354A13602C
:1025F000FB79DBB25B00DBB2FB71FB79DBB203F092
:102600008003802BEFD02F4B1B68C3F10703042BF3
:102610000AD04FF0500383F31188BFF36F8FBFF3DD
:102620004F8F3B6100BFFEE7264B1B68C3F10703DA
:10263000042B0AD04FF0500383F31188BFF36F8F40
:10264000BFF34F8FFB6000BFFEE71E4B1B681B02F2
:102650001C4A13601B4B1B6803F4E063194A1360A8
:10266000BB68DAB2FB691A70174B1B68164A43F451
:1026700070031360144B1B68134A43F070431360DC
:1026800000F0E4F8114B00221A6000F0F9F8104B4A
:102690001B680F4A43F040431360FFF755FF01F0FA
:1026A00071FCFFF70BFF002318462037BD4680BDA5
:1026B00000ED00E071C20F4170C20F4100E400E084
:1026C000508700205487002020ED00E00400002007
:1026D00034EF00E080B483B000AF4FF0500383F3D9
:1026E0001188BFF36F8FBFF34F8F7B6000BF0F4B1D
:1026F0001B6801330D4A13600C4B1B68012B0FD173
:102700000B4B1B68DBB2002B0AD04FF0500383F356
:102710001188BFF36F8FBFF34F8F3B6000BFFEE7A1
:1027200000BF0C37BD465DF8047B704704000020F5
:1027300004ED00E080B483B000AF124B1B68002BA7
:102740000AD14FF0500383F31188BFF36F8FBFF3AB
:102750004F8F7B6000BFFEE70A4B1B68013B094AB5
:102760001360084B1B68002B05D100233B603B68BE
:1027700083F3118800BF00BF0C37BD465DF8047BB2
:10278000704700BF040000200000000000000000AF
:10279000EFF30980BFF36F8F154B1A681EF0100F0F
:1027A00008BF20ED108A20E9F04F10602DE90900E4
:1027B0004FF0500080F31188BFF34F8FBFF36F8F3E
:1027C00001F0E0FB4FF0000080F3118809BC1968AC
:1027D0000868B0E8F04F1EF0100F08BFB0EC108A88
:1027E00080F30988BFF36F8F704700BFAFF300809D
:1027F0005887002000BF00BF80B582B000AF4FF007
:10280000500383F31188BFF36F8FBFF34F8F7B604B
:1028100000BFFEF727FF01F0F9FA0346002B06D0B0
:10282000FEF77EFF084B4FF080521A6001E0FEF782
:102830005BFF00233B603B6883F3118800BF00BF50
:102840000837BD4680BD00BF04ED00E080B400AF96
:10285000084B00221A60084B00221A60074B40F612
:102860009F721A60034B07221A6000BFBD465DF8D5
:10287000047B704710E000E018E000E014E000E0A6
:10288000DFF80C00016841F470010160704700BF7F
:1028900088ED00E080B485B000AFEFF30583FB6006
:1028A000FB680F2B14D9174AFB6813441B78FB7283
:1028B000154B1B78FA7A9A420AD24FF0500383F3F1
:1028C0001188BFF36F8FBFF34F8F7B6000BFFEE7B0
:1028D0000E4B1B6803F4E0620D4B1B689A420AD949
:1028E0004FF0500383F31188BFF36F8FBFF34F8F07
:1028F0003B6000BFFEE700BF1437BD465DF8047BB8
:10290000704700BFF0E300E0508700200CED00E0CE
:102910005487002080B483B000AF78607B6803F1F7
:1029200008027B685A607B684FF0FF329A607B68D0
:1029300003F108027B68DA607B6803F108027B68B8
:102940001A617B6800221A6000BF0C37BD465DF833
:10295000047B704780B483B000AF78607B6800224E
:102960001A6100BF0C37BD465DF8047B704780B428
:1029700085B000AF786039607B685B68FB603B685E
:10298000FA685A60FB689A683B689A60FB689B68C3
:102990003A685A60FB683A689A603B687A681A61DC
:1029A0007B681B685A1C7B681A6000BF1437BD46E1
:1029B0005DF8047B704780B485B000AF7860396003
:1029C0003B681B68BB60BB68B3F1FF3F03D17B680A
:1029D0001B69FB600CE07B680833FB6002E0FB686E
:1029E0005B68FB60FB685B681B68BA689A42F6D25A
:1029F000FB685A683B685A603B685B683A689A6053
:102A00003B68FA689A60FB683A685A603B687A6883
:102A10001A617B681B685A1C7B681A6000BF1437F8
:102A2000BD465DF8047B704780B485B000AF786028
:102A30007B681B69FB607B685B687A6892689A6058
:102A40007B689B687A6852685A60FB685B687A6842
:102A50009A4203D17B689A68FB685A607B680022BF
:102A60001A61FB681B685A1EFB681A60FB681B68CA
:102A700018461437BD465DF8047B704780B584B0B6
:102A800000AF786039607B68FB60FB68002B0AD17F
:102A90004FF0500383F31188BFF36F8FBFF34F8F55
:102AA000BB6000BFFEE7FFF715FEFB681A68FB6816
:102AB000DB6BF968096C01FB03F31A44FB689A604D
:102AC000FB6800229A63FB681A68FB685A60FB681F
:102AD0001A68FB68DB6B013BF968096C01FB03F3C7
:102AE0001A44FB68DA60FB68FF2283F84420FB6825
:102AF000FF2283F845203B68002B14D1FB681B693B
:102B0000002B1AD0FB681033184601F011FB034666
:102B1000002B12D00C4B4FF080521A60BFF34F8F36
:102B2000BFF36F8F09E0FB6810331846FFF7F2FE22
:102B3000FB6824331846FFF7EDFEFFF7FBFD01238A
:102B400018461037BD4680BD04ED00E080B58AB060
:102B500002AFF860B9601346FB71FB68002B0AD125
:102B60004FF0500383F31188BFF36F8FBFF34F8F84
:102B70003B6100BFFEE7FB68BA6802FB03F3FB6141
:102B8000FB6950331846FFF77BFAB861BB69002B2D
:102B90000DD0BB697B617B6950337B61FA79BB697E
:102BA000009313467A69B968F86800F005F8BB69C4
:102BB00018462037BD4680BD80B584B000AFF860B0
:102BC000B9607A60FB70BB68002B03D1BB69BA693E
:102BD0001A6002E0BB697A681A60BB69FA68DA6356
:102BE000BB69BA681A640121B869FFF747FFBB697E
:102BF000FA7883F84C20FB78BA68F9687320FEF7FE
:102C0000B3F800BF1037BD4680BD000080B590B05E
:102C100002AFF860B9607A603B6000237B63FB68B9
:102C20003B633B6B002B0AD14FF0500383F31188B9
:102C3000BFF36F8FBFF34F8FBB6200BFFEE7BB6870
:102C4000002B03D13B6B1B6C002B01D1012300E057
:102C50000023002B0AD14FF0500383F31188BFF3F8
:102C60006F8FBFF34F8F7B6200BFFEE73B68022B85
:102C700003D13B6BDB6B012B01D1012300E000236F
:102C8000002B0AD14FF0500383F31188BFF36F8FED
:102C9000BFF34F8F3B6200BFFEE701F033FC0346FA
:102CA000002B02D17B68002B01D1012300E000231F
:102CB000002B0AD14FF0500383F31188BFF36F8FBD
:102CC000BFF34F8FFB6100BFFEE7FFF703FD3B6BD8
:102CD0009A6B3B6BDB6B9A4202D33B68022B36D17B
:102CE0003B6B1846FEF780FEBA6879683B68009334
:102CF0000B4601465A20FEF7ADF83A68B968386BC2
:102D000000F0BEFBF8623B6B5B6A002B10D03B6BA4
:102D10002433184601F00CFA0346002B13D04D4B18
:102D20004FF080521A60BFF34F8FBFF36F8F0AE0EE
:102D3000FB6A002B07D0474B4FF080521A60BFF35D
:102D40004F8FBFF36F8FFFF7F5FC01237DE07B68AA
:102D5000002B10D1FFF7EEFC3B6B1846FEF744FE4C
:102D6000BA6879683B6800930B4601465A20FEF723
:102D700071F8002369E07B6B002B06D107F1140387
:102D8000184601F03BFA01237B63FFF7D3FC00F008
:102D90006DFFFFF79FFC3B6B93F844305BB2B3F1E0
:102DA000FF3F03D13B6B002283F844203B6B93F839
:102DB00045305BB2B3F1FF3F03D13B6B002283F898
:102DC0004520FFF7B7FC3A1D07F1140311461846DA
:102DD00001F02AFA0346002B24D1386B00F048FC9E
:102DE0000346002B18D03B6B10337A681146184607
:102DF00001F04CF9386B00F0D3FB00F045FF0346BF
:102E0000002B7FF462AF134B4FF080521A60BFF378
:102E10004F8FBFF36F8F58E7386B00F0C1FB00F0A6
:102E200033FF52E7386B00F0BBFB00F02DFF3B6B2C
:102E30001846FEF7D9FDBA6879683B6800930B46DF
:102E400001465A20FEF706F8002318463837BD46DB
:102E500080BD00BF04ED00E080B590B000AFF86029
:102E6000B9607A603B60FB68BB63BB6B002B0AD127
:102E70004FF0500383F31188BFF36F8FBFF34F8F71
:102E8000BB6200BFFEE7BB68002B03D1BB6B1B6CB2
:102E9000002B01D1012300E00023002B0AD14FF0C9
:102EA000500383F31188BFF36F8FBFF34F8F7B62A3
:102EB00000BFFEE73B68022B03D1BB6BDB6B012B32
:102EC00001D1012300E00023002B0AD14FF0500371
:102ED00083F31188BFF36F8FBFF34F8F3B6200BF47
:102EE000FEE7FFF7D7FCEFF311824FF0500383F3B7
:102EF0001188BFF36F8FBFF34F8FFA61BB61FB691E
:102F00007B63BB6B9A6BBB6BDB6B9A4202D33B68F8
:102F1000022B39D1BB6B93F8453087F83330BB6B4C
:102F20009B6BFB62BB6B1846FEF75EFD01467B6840
:102F30001A466020FDF7BEFE3A68B968B86B00F02B
:102F40009FFA97F93330B3F1FF3F12D1BB6B5B6A45
:102F5000002B16D0BB6B2433184601F0E9F803466A
:102F6000002B0ED07B68002B0BD07B6801221A60EF
:102F700007E097F833300133DBB25AB2BB6B83F80A
:102F800045200123FB630BE0BB6B1846FEF72CFDCD
:102F900001467B681A466020FDF78CFE0023FB6328
:102FA0007B6B7B617B6983F3118800BFFB6B1846E9
:102FB0004037BD4680BD000090B58FB002AFF860CD
:102FC000B9607A600023FB62FB68BB62BB6A002BBE
:102FD0000AD14FF0500383F31188BFF36F8FBFF313
:102FE0004F8F3B6200BFFEE7BB68002B03D1BB6A7B
:102FF0001B6C002B01D1012300E00023002B0AD120
:103000004FF0500383F31188BFF36F8FBFF34F8FDF
:10301000FB6100BFFEE701F075FA0346002B02D109
:103020007B68002B01D1012300E00023002B0AD193
:103030004FF0500383F31188BFF36F8FBFF34F8FAF
:10304000BB6100BFFEE7FFF745FBBB6A9B6B7B6282
:103050007B6A002B2FD0B968B86A00F07BFABB6A94
:103060001846FEF7C1FC04460020FEF7BDFC0246F0
:103070007B680121009121465C20FDF7EBFE7B6A15
:103080005A1EBB6A9A63BB6A1B69002B0FD0BB6ACE
:103090001033184601F04CF80346002B07D04D4B77
:1030A0004FF080521A60BFF34F8FBFF36F8FFFF75F
:1030B00041FB01238AE07B68002B13D1FFF73AFB29
:1030C000BB6A1846FEF790FC04460020FEF78CFC15
:1030D00002467B680121009121465C20FDF7BAFE83
:1030E000002373E0FB6A002B06D107F1100318469A
:1030F00001F084F80123FB62FFF71CFB00F0B6FD32
:10310000FFF7E8FABB6A93F844305BB2B3F1FF3FD4
:1031100003D1BB6A002283F84420BB6A93F8453090
:103120005BB2B3F1FF3F03D1BB6A002283F84520B5
:10313000FFF700FB3A1D07F110031146184601F096
:1031400073F80346002B24D1B86A00F07BFA0346DB
:10315000002B18D0BB6A24337A681146184600F059
:1031600095FFB86A00F01CFA00F08EFD0346002BB4
:103170007FF469AF174B4FF080521A60BFF34F8F47
:10318000BFF36F8F5FE7B86A00F00AFA00F07CFDCA
:1031900059E7B86A00F004FA00F076FDB86A00F06A
:1031A00051FA0346002B3FF44EAFBB6A1846FEF7B8
:1031B0001BFC04460020FEF717FC02467B68012139
:1031C000009121465C20FDF745FE00231846343768
:1031D000BD4690BD04ED00E090B591B002AF7860BF
:1031E000396000237B637B68FB6200233B63FB6ADF
:1031F000002B0AD14FF0500383F31188BFF36F8F78
:10320000BFF34F8F3B6200BFFEE7FB6A1B6C002BD6
:103210000AD04FF0500383F31188BFF36F8FBFF3D1
:103220004F8FFB6100BFFEE701F06CF90346002BF6
:1032300002D13B68002B01D1012300E00023002BC9
:103240000AD14FF0500383F31188BFF36F8FBFF3A0
:103250004F8FBB6100BFFEE7FFF73CFAFB6A9B6B39
:10326000BB62BB6A002B34D0FB6A1846FEF7BCFB7E
:1032700004460020FEF7B8FB02463B68012100919E
:1032800021465C20FDF7E6FDBB6A5A1EFB6A9A6385
:10329000FB6A1B68002B04D101F0EEFA0246FB6AC0
:1032A0009A60FB6A1B69002B0FD0FB6A103318462B
:1032B00000F03EFF0346002B07D0644B4FF08052D6
:1032C0001A60BFF34F8FBFF36F8FFFF733FA0123FD
:1032D000B7E03B68002B21D13B6B002B0AD04FF0AD
:1032E000500383F31188BFF36F8FBFF34F8F7B6160
:1032F00000BFFEE7FFF71EFAFB6A1846FEF774FBF5
:1033000004460020FEF770FB02463B680121009155
:1033100021465C20FDF79EFD002392E07B6B002B95
:1033200006D107F10C03184600F068FF01237B6308
:10333000FFF700FA00F09AFCFFF7CCF9FB6A93F86C
:1033400044305BB2B3F1FF3F03D1FB6A002283F844
:103350004420FB6A93F845305BB2B3F1FF3F03D1E1
:10336000FB6A002283F84520FFF7E4F93A4607F1AB
:103370000C031146184600F057FF0346002B32D1CC
:10338000F86A00F05FF90346002B26D0FB6A1B6841
:10339000002B09D1FFF79EF9FB6A9B68184601F0E4
:1033A000CFF83863FFF7C6F9FB6A24333A68114651
:1033B000184600F06BFEF86A00F0F2F800F064FCCA
:1033C0000346002B7FF448AF204B4FF080521A6029
:1033D000BFF34F8FBFF36F8F3EE7F86A00F0E0F85E
:1033E00000F052FC38E7F86A00F0DAF800F04CFC24
:1033F000F86A00F027F90346002B3FF42DAF3B6B32
:10340000002B0DD0FFF766F9F86A00F021F878621A
:10341000FB6A9B68796A184601F096F9FFF78AF90A
:10342000FB6A1846FEF7E0FA04460020FEF7DCFAD5
:1034300002463B680121009121465C20FDF70AFD10
:10344000002318463C37BD4690BD00BF04ED00E0A8
:1034500080B485B000AF78607B685B6A002B06D0D3
:103460007B681B6B1B68C3F10503FB6001E0002355
:10347000FB60FB6818461437BD465DF8047B704757
:1034800080B586B000AFF860B9607A6000237B61D8
:10349000FB689B6B3B61FB681B6C002B0DD1FB68D1
:1034A0001B68002B4DD1FB689B68184601F0C2F8E1
:1034B0007861FB6800229A6043E07B68002B19D199
:1034C000FB685868FB681B6C1A46B96807F0B6F8C9
:1034D000FB685A68FB681B6C1A44FB685A60FB68FF
:1034E0005A68FB689B689A422BD3FB681A68FB6892
:1034F0005A6026E0FB68D868FB681B6C1A46B968FE
:1035000007F09CF8FB68DA68FB681B6C5B421A44A6
:10351000FB68DA60FB68DA68FB681B689A4207D2CE
:10352000FB689A68FB681B6C5B421A44FB68DA60B4
:103530007B68022B05D13B69002B02D03B69013B24
:103540003B613B695A1CFB689A637B6918461837D4
:10355000BD4680BD80B582B000AF786039607B68C1
:103560001B6C002B18D07B68DA687B681B6C1A44D4
:103570007B68DA607B68DA687B689B689A4203D371
:103580007B681A687B68DA607B68D9687B681B6C2B
:103590001A46386807F052F800BF0837BD4680BDAC
:1035A00080B584B000AF7860FFF794F87B6893F83B
:1035B0004530FB7311E07B685B6A002B12D07B689F
:1035C0002433184600F0B4FD0346002B01D000F070
:1035D0009DFEFB7B013BDBB2FB7397F90F30002BA9
:1035E000E9DC00E000BF7B68FF2283F84520FFF79D
:1035F000A1F8FFF76FF87B6893F84430BB7311E0D4
:103600007B681B69002B12D07B681033184600F0D2
:103610008FFD0346002B01D000F078FEBB7B013B01
:10362000DBB2BB7397F90E30002BE9DC00E000BF82
:103630007B68FF2283F84420FFF77CF800BF103737
:10364000BD4680BD80B584B000AF7860FFF742F81A
:103650007B689B6B002B02D10123FB6001E0002300
:10366000FB60FFF767F8FB6818461037BD4680BD62
:1036700080B584B000AF7860FFF72CF87B689A6B58
:103680007B68DB6B9A4202D10123FB6001E00023DF
:10369000FB60FFF74FF8FB6818461037BD4680BD4A
:1036A00080B584B000AF786039600023FB601EE015
:1036B000134AFB6852F83330002B15D11049FB68D0
:1036C0003A6841F833200E4AFB68DB0013447A68FD
:1036D0005A607B681846FEF787F901463B681A4630
:1036E0007120FDF7E7FA06E0FB680133FB60FB6839
:1036F000042BDDD900BF00BF1037BD4680BD00BF21
:10370000288A002080B586B000AFF860B9607A6082
:10371000FB687B61FEF7DEFF7B6993F844305BB2A8
:10372000B3F1FF3F03D17B69002283F844207B691A
:1037300093F845305BB2B3F1FF3F03D17B690022C0
:1037400083F84520FEF7F6FF7B699B6B002B06D1C3
:103750007B6924337A68B968184600F0BBFC786945
:10376000FFF71EFF00BF1837BD4680BD80B58CB087
:1037700004AFF860B9603B601346FB80FB889B0098
:103780001846FEF77DFC78617B69002B0ED068201F
:10379000FEF776FCF861FB69002B03D0FB697A69C0
:1037A0001A6305E07869FEF737FD01E00023FB614D
:1037B000FB69002B13D0FA8800230393FB69029363
:1037C000FB6A0193BB6A00933B68B968F86800F034
:1037D0000EF8F86900F0B6F80123BB6102E04FF083
:1037E000FF33BB61BB6918462037BD4680BD80B53D
:1037F00088B000AFF860B9607A603B603B6B186BD3
:103800007B689B001A46A52106F026FF3B6B1A6BCE
:103810007B6803F18043013B9B001344BB61BB69A0
:1038200023F00703BB61BB6903F00703002B0AD039
:103830004FF0500383F31188BFF36F8FBFF34F8FA7
:103840007B6100BFFEE7BB68002B21D00023FB613A
:1038500014E0BA68FB69134493F900103A6BFB69F2
:10386000134434330A461A70BA68FB69134493F957
:103870000030002B06D0FB690133FB61FB69092B8B
:10388000E7D900E000BF3B6B002283F83D2003E056
:103890003B6B002283F83420BB6A042B01D904233C
:1038A000BB623B6BBA6ADA623B6BBA6A9A643B6B87
:1038B0000022DA643B6B04331846FFF74BF83B6B8E
:1038C00018331846FFF746F83B6B3A6B1A61BB6A30
:1038D000C3F105023B6B9A613B6B3A6B5A623B6BDF
:1038E00000221A653B6B0022DA650023FB6109E0C8
:1038F0003A6BFB6914339B00134400225A60FB6946
:103900000133FB61FB69012BF2D93B6B00221A6684
:103910003B6B002283F864203B6B002283F8652018
:103920003A68F968B869FEF795FD02463B6B1A6084
:10393000FB6A002B02D0FB6A3A6B1A6000BF20378B
:10394000BD4680BDB0B584B002AF7860FEF7C2FE60
:103950003B4B1B6801333A4A13603A4B1B68002B00
:1039600009D1384A7B681360354B1B68012B10D195
:1039700000F0F2FC0DE0344B1B68002B09D1314BF9
:103980001B68DA6A7B68DB6A9A4202D82D4A7B6838
:1039900013602E4B1B6801332C4A13602B4B1A68A3
:1039A0007B681A647B68002B16D07B681846FDF78D
:1039B000EFFE78687B6803F134017B68DA6A7B6824
:1039C0001B6B1D467B681B681C467B681B6BE31AE0
:1039D00000932B46FEF7ECF97B681846FDF760FF75
:1039E0007B68DB6A01229A40194B1B681343184A13
:1039F00013607B68DA6A13469B0013449B00154AE8
:103A00001A447B68043319461046FEF7B0FFFEF7F0
:103A100091FE0D4B1B68002B0ED00A4B1B68DA6A17
:103A20007B68DB6A9A4207D20B4B4FF080521A60D8
:103A3000BFF34F8FBFF36F8F00BF0837BD46B0BDD8
:103A400030880020588700203C8800204C880020C7
:103A5000388800205C87002004ED00E080B584B049
:103A600000AF7860FEF736FE7B68002B02D1464B34
:103A70001B6800E07B68FB60FB6804331846FEF7B8
:103A8000D3FF0346002B15D1FB68DA6A3F49134682
:103A90009B0013449B000B441B68002B0AD1FB685E
:103AA000DB6A012202FA03F3DA43394B1B68134045
:103AB000374A1360FB689B6A002B04D0FB681833FD
:103AC0001846FEF7B1FF334B1B680133314A1360D0
:103AD0002D4B1B68FA689A4218D1FB6804331946CB
:103AE0002D48FEF744FF2D4B1B6801332B4A136012
:103AF000FB681846FDF778FF034619462220FDF7BC
:103B00009DF8FB681846FEF7BBF916E0244B1B68CE
:103B1000013B234A1360FB681846FDF765FF034627
:103B200019462220FDF78AF8FB681846FEF7A8F927
:103B3000F86800F0B7FC00F0C5FCFEF7FBFD194B80
:103B40001B68002B1BD0104B1B68FA689A4216D1D9
:103B5000154B1B68002B0AD04FF0500383F31188DC
:103B6000BFF36F8FBFF34F8FBB6000BFFEE70F4BFC
:103B70004FF080521A60BFF34F8FBFF36F8F00BFBB
:103B80001037BD4680BD00BF588700205C870020ED
:103B9000388800204C8800200488002018880020E5
:103BA000308800203C8800205888002004ED00E088
:103BB00080B586B002AF264B01930023009300230B
:103BC0004FF4807223492448FFF7D0FDF860FB686A
:103BD000012B02D101F032F8F860FB68012B24D1EF
:103BE0004FF0500383F31188BFF36F8FBFF34F8FF4
:103BF000BB6000BF194B4FF0FF321A60184B012217
:103C00001A60184B00221A60174B1A68104B1B6879
:103C10009A4202D1FDF7A0FD04E0134B1B68184641
:103C2000FDF7FAFDFEF7A4FC0EE0FB68B3F1FF3FE1
:103C30000AD14FF0500383F31188BFF36F8FBFF3A6
:103C40004F8F7B6000BFFEE700BF1037BD4680BDD1
:103C50005488002054B200082543000850880020F2
:103C60003C880020348800205887002080B400AFB2
:103C7000044B1B680133034A136000BFBD465DF867
:103C8000047B70475888002080B584B000AF0023C3
:103C9000FB600023BB60434B1B68002B0AD14FF035
:103CA000500383F31188BFF36F8FBFF34F8F3B60D7
:103CB00000BFFEE7FEF70EFD3A4B1B68013B394A99
:103CC0001360384B1B68002B65D1374B1B68002BEA
:103CD00061D032E0354BDB68DB68FB60FB68183392
:103CE0001846FEF7A1FEFB6804331846FEF79CFE5B
:103CF000FB681846FDF7D4FDFB68DB6A01229A4099
:103D00002B4B1B6813432A4A1360FB68DA6A13467D
:103D10009B0013449B00274A1A44FB68043319464E
:103D20001046FEF724FEFB68DA6A234B1B68DB6A49
:103D30009A4202D3214B01221A601C4B1B68002BB4
:103D4000C8D1FB68002B01D000F0BCFB1C4B1B68EA
:103D50007B607B68002B10D000F058F80346002BE6
:103D600002D0164B01221A607B68013B7B607B68A6
:103D7000002BF1D1124B00221A60104B1B68002B54
:103D800009D00123BB600F4B4FF080521A60BFF384
:103D90004F8FBFF36F8FFEF7CDFCBB68184610370F
:103DA000BD4680BD5888002030880020F087002064
:103DB000388800205C870020588700204488002035
:103DC0004088002004ED00E080B483B000AF054BD4
:103DD0001B687B607B6818460C37BD465DF8047B2A
:103DE000704700BF3488002080B582B000AFFEF776
:103DF00051FD00237B60044B1B683B603B68184609
:103E00000837BD4680BD00BF3488002080B586B02D
:103E100000AF00237B61504B1B68002B40F0928069
:103E20004E4B1B6801333B614C4A3B6913603B6955
:103E3000002B20D14A4B1B681B68002B0AD04FF087
:103E4000500383F31188BFF36F8FBFF34F8F3B6035
:103E500000BFFEE7424B1B68FB60424B1B68404AB9
:103E60001360404AFB6813603F4B1B6801333E4AB6
:103E7000136000F027FB3D4B1B683A699A424CD314
:103E8000374B1B681B68002B04D1384B4FF0FF32B7
:103E90001A6042E0324B1B68DB68DB68BB60BB68C2
:103EA0005B687B603A697B689A4203D22F4A7B68E1
:103EB000136032E0BB6804331846FEF7B5FDBB68FB
:103EC0009B6A002B04D0BB6818331846FEF7ACFD84
:103ED000BB681846FDF7E4FCBB68DB6A01229A4028
:103EE000234B1B681343224A1360BB68DA6A1346EC
:103EF0009B0013449B001F4A1A44BB6804331946B5
:103F00001046FEF734FDBB68DA6A1B4B1B68DB6AA0
:103F10009A42B5D301237B61B2E7174B1B68DA6A7B
:103F2000144913469B0013449B000B441B68012B50
:103F300001D901237B61114B1B68002B07D00123A2
:103F40007B6104E00E4B1B6801330D4A13607B69F3
:103F500018461837BD4680BD588800203488002098
:103F6000E8870020EC870020488800205088002047
:103F7000388800205C870020588700204488002073
:103F80004088002080B586B000AF384B1B68002BFE
:103F900003D0374B01221A6064E0354B00221A60CF
:103FA000344B00221A60334B1A68334B1B689A4219
:103FB00009D9324B1B68D96D2E4A10682E4A1268F7
:103FC000821A0A44DA652B4B1B682B4A13602C4B70
:103FD0001B68FB60FB68B3FA83F3FB72FB7AC3F1E7
:103FE0001F037B6127497A6913469B0013449B009A
:103FF0000B441B68002B0AD14FF0500383F3118848
:10400000BFF36F8FBFF34F8F7B6000BFFEE77A690E
:1040100013469B0013449B001A4A13443B613B69BF
:104020005B685A683B695A603B695A683B69083368
:104030009A4204D13B695B685A683B695A603B69A4
:104040005B68DB680D4A13600C4B1A680E4B1B68EB
:104050009A4202D1FDF780FB04E0084B1B6818462A
:10406000FDF7DAFB00BF1837BD4680BD5888002039
:1040700044880020608800205C8800205887002049
:10408000388800205C8700205488002080B584B0E8
:1040900000AF786039607B68002B0AD14FF0500385
:1040A00083F31188BFF36F8FBFF34F8FFB6000BFA7
:1040B000FEE7074B1B68183319467868FEF77BFC50
:1040C0000121386800F03EFD00BF1037BD4680BDBD
:1040D0005887002080B586B000AFF860B9607A607C
:1040E000FB68002B0AD14FF0500383F31188BFF314
:1040F0006F8FBFF34F8F7B6100BFFEE70B4B1B68D9
:1041000018331946F868FEF732FC7B68002B02D0A2
:104110004FF0FF33BB602420FCF772FD7968B8686C
:1041200000F010FD00BF1837BD4680BD5887002045
:1041300080B586B000AF78607B68DB68DB683B6188
:104140003B69002B0AD14FF0500383F31188BFF372
:104150006F8FBFF34F8FFB6000BFFEE73B691833E3
:104160001846FEF761FC1F4B1B68002B20D13B69F2
:1041700004331846FEF758FC3B691846FDF790FBE0
:104180003B69DB6A01229A40174B1B681343164AAE
:1041900013603B69DA6A13469B0013449B00134A81
:1041A0001A443B69043319461046FEF7E0FB05E06C
:1041B0003B69183319460E48FEF7D9FB3B69DA6AAA
:1041C0000C4B1B68DB6A9A4205D901237B610A4BC1
:1041D00001221A6001E000237B617B6918461837D1
:1041E000BD4680BD58880020388800205C870020AC
:1041F000F0870020588700204488002080B483B0D6
:1042000000AF7860064B1A687B681A60054B1A6825
:104210007B685A6000BF0C37BD465DF8047B704771
:10422000488800203488002080B588B000AF7860CE
:1042300039607B68002B0AD14FF0500383F311885B
:10424000BFF36F8FBFF34F8F3B6100BFFEE73B684B
:10425000002B0AD14FF0500383F31188BFF36F8F07
:10426000BFF34F8FFB6000BFFEE7FEF733FA244B2E
:104270001B68BB617B685B68BA69D31A7B61214BA1
:104280001B6893F86530002B07D01E4B1B6800227B
:1042900083F865200123FB612BE03B681B68B3F1C9
:1042A000FF3F02D10023FB6123E07B681A68164BB5
:1042B0001B689A4207D07B685B68BA699A4202D34E
:1042C0000123FB6115E03B681B687A699A420BD2B7
:1042D0003B681A687B69D21A3B681A607868FFF7F6
:1042E0008DFF0023FB6104E03B6800221A6001237C
:1042F000FB61FEF71FFAFB6918462037BD4680BDFB
:1043000034880020588700204888002080B400AFFF
:10431000034B01221A6000BFBD465DF8047B704765
:104320004488002080B582B000AF786000F054F877
:10433000074B1B68012B07D9064B4FF080521A60C0
:10434000BFF34F8FBFF36F8F01F038FCEEE700BF74
:104350005C87002004ED00E080B582B000AF002350
:104360007B600CE07A6813469B0013449B00124A62
:1043700013441846FEF7CEFA7B6801337B607B68F6
:10438000042BEFD90D48FEF7C5FA0D48FEF7C2FA27
:104390000C48FEF7BFFA0C48FEF7BCFA0B48FEF7D4
:1043A000B9FA0B4B054A1A600A4B054A1A6000BF5E
:1043B0000837BD4680BD00BF5C870020C087002055
:1043C000D4870020F0870020048800201C8800206B
:1043D000E8870020EC87002080B582B000AF19E0AC
:1043E000FEF778F9104BDB68DB687B607B68043391
:1043F0001846FEF719FB0D4B1B68013B0B4A136077
:104400000B4B1B68013B0A4A1360FEF793F978686F
:1044100000F048F8064B1B68002BE1D100BF00BF3D
:104420000837BD4680BD00BF0488002030880020CA
:104430001888002080B485B000AF78600023FB604E
:1044400005E07B6801337B60FB680133FB607B68C0
:104450001B78A52BF5D0FB689B08FB60FB689BB223
:1044600018461437BD465DF8047B704780B586B0AA
:1044700000AF78607B68002B02D1094B1B6800E01D
:104480007B687B617B691B6B3B613869FFF7D2FFFF
:104490000346FB60FB6818461837BD4680BD00BF69
:1044A0005887002080B582B000AF78607B681B6BB6
:1044B0001846FDF7B1FE7868FDF7AEFE00BF08377D
:1044C000BD4680BD80B483B000AF0C4B1B681B6839
:1044D000002B04D10A4B4FF0FF321A6008E0074B63
:1044E0001B68DB68DB687B607B685B68044A136081
:1044F00000BF0C37BD465DF8047B7047E88700209D
:104500005088002080B483B000AF0B4B1B68002B99
:1045100002D101237B6008E0084B1B68002B02D10D
:1045200002237B6001E000237B607B6818460C3728
:10453000BD465DF8047B70473C8800205888002009
:1045400080B584B000AF78607B68BB600023FB60FF
:104550007B68002B63D0BB68DA6A334B1B68DB6A6D
:104560009A4253D2BB689B69002B06DB2E4B1B681B
:10457000DB6AC3F10502BB689A61BB685969BB6815
:10458000DA6A13469B0013449B00284A134499425D
:104590002FD1BB6804331846FEF746FA0346002BBA
:1045A0000AD1BB68DB6A012202FA03F3DA43204B2B
:1045B0001B6813401E4A13601B4B1B68DA6ABB68FA
:1045C000DA62BB68DB6A01229A40194B1B6813430D
:1045D000174A1360BB68DA6A13469B0013449B00BA
:1045E000124A1A44BB68043319461046FEF7BFF955
:1045F00004E00D4B1B68DA6ABB68DA627B68194617
:104600004920FCF71BFB0123FB6008E0BB689A6CA8
:10461000054B1B68DB6A9A4201D20123FB60FB68F1
:1046200018461037BD4680BD588700205C870020A3
:104630003888002080B586B000AF78607B683B6129
:1046400000237B617B68002B73D03C4B1B683A696D
:104650009A420AD04FF0500383F31188BFF36F8F53
:10466000BFF34F8FFB6000BFFEE73B69DB6C002BA5
:104670000AD14FF0500383F31188BFF36F8FBFF35C
:104680004F8FBB6000BFFEE73B69DB6C5A1E3B6986
:10469000DA643B69DA6A3B699B6C9A4249D03B69B0
:1046A000DB6C002B45D13B6904331846FEF7BCF99F
:1046B0000346002B15D13B69DA6A214913469B005A
:1046C00013449B000B441B68002B0AD13B69DB6A37
:1046D000012202FA03F3DA431A4B1B681340194A0A
:1046E00013607B6819464A20FCF7A8FA3B699A6C6C
:1046F0003B69DA623B69DB6AC3F105023B699A6197
:104700003B69DB6A01229A400E4B1B6813430D4A3A
:1047100013603B69DA6A13469B0013449B00084A06
:104720001A443B69043319461046FEF720F9012369
:104730007B617B6918461837BD4680BD58870020CD
:104740005C8700203888002080B588B000AF786092
:1047500039607B68BB6101237B617B68002B00F0C3
:104760008180BB69DB6C002B0AD14FF0500383F3CF
:104770001188BFF36F8FBFF34F8FFB6000BFFEE761
:10478000BB699B6C3A689A4202D93B68FB6102E0C4
:10479000BB699B6CFB61BB69DB6AFA699A4261D0B9
:1047A000BB69DB6C7A699A425CD1304B1B68BA6991
:1047B0009A420AD14FF0500383F31188BFF36F8FF1
:1047C000BFF34F8FBB6000BFFEE77B6819464A20EE
:1047D000FCF734FABB69DB6A3B61BB69FA69DA62F0
:1047E000BB699B69002B04DBFB69C3F10502BB6954
:1047F0009A61BB6959693A6913469B0013449B004F
:104800001B4A134499422DD1BB6904331846FEF765
:104810000BF90346002B0AD1BB69DB6A012202FABD
:1048200003F3DA43134B1B681340124A1360BB694E
:104830001846FDF735F8BB69DB6A01229A400D4B3B
:104840001B6813430B4A1360BB69DA6A13469B006B
:1048500013449B00064A1A44BB69043319461046A8
:10486000FEF785F800BF2037BD4680BD5887002081
:104870005C8700203888002080B400AF074B1B689D
:10488000002B04D0054B1B68DA6C0132DA64034B51
:104890001B681846BD465DF8047B704758870020AA
:1048A00080B588B002AFF860B9607A603B60FDF710
:1048B00011FF2B4B1B6893F86430DBB2022B1AD02C
:1048C000274B1B68196EFA68D2430A401A66244BBC
:1048D0001B68012283F864203B68002B0BD0012168
:1048E000386800F02FF91F4B4FF080521A60BFF369
:1048F0004F8FBFF36F8FFDF71DFFFDF7EBFE7A685B
:104900003B6800931346BA68F9684020FCF7A2FAA6
:104910007B68002B04D0124B1B681A6E7B681A60F0
:104920000F4B1B6893F86430DBB2022B02D00023DC
:104930007B6108E00A4B1B68196EBA68D2430A40D3
:104940001A6601237B61064B1B68002283F86420F2
:10495000FDF7F0FE7B6918461837BD4680BD00BFE5
:104960005887002004ED00E080B590B002AFF860F9
:10497000B9603B601346FB7101237B63FB68002B2E
:104980000AD14FF0500383F31188BFF36F8FBFF349
:104990004F8F7B6200BFFEE7FDF77CFFFB683B6348
:1049A000EFF311824FF0500383F31188BFF36F8F41
:1049B000BFF34F8F3A62FB613B6AFB623B68002B9F
:1049C00003D03B6B1A6E3B681A603B6B93F8643004
:1049D00087F82B303B6B022283F86420FB79042B91
:1049E00028D801A252F823F0554A0008FD490008D2
:1049F0000B4A0008174A00081F4A00083B6B1A6E52
:104A0000BB681A433B6B1A6627E03B6B1B6E5A1C54
:104A10003B6B1A6621E03B6BBA681A661DE097F89B
:104A20002B30022B03D03B6BBA681A6615E00023CB
:104A30007B6312E03B6B1B6EB3F1FF3F0CD04FF07A
:104A4000500383F31188BFF36F8FBFF34F8FBB61A8
:104A500000BFFEE700BF00E000BF3B6B1846FCF75D
:104A6000C3FFF9793B683A6C019200930B46BA6830
:104A700001463F20FCF780FA97F82B30012B49D1F3
:104A80003B6B9B6A002B0AD04FF0500383F31188D5
:104A9000BFF36F8FBFF34F8F7B6100BFFEE7234BE8
:104AA0001B68002B20D13B6B04331846FDF7BCFF7D
:104AB0003B6B1846FCF7F4FE3B6BDB6A01229A4025
:104AC0001B4B1B6813431A4A13603B6BDA6A13468D
:104AD0009B0013449B00174A1A443B6B043319464E
:104AE0001046FDF744FF05E03B6B183319461248AA
:104AF000FDF73DFF3B6BDA6A104B1B68DB6A9A429D
:104B000008D93B6C002B02D03B6C01221A600C4B85
:104B100001221A60FB6A3B613B6983F3118800BF85
:104B20007B6B18463837BD4680BD00BF58880020D3
:104B3000388800205C870020F087002058870020FC
:104B40004488002080B584B000AF78603960344B71
:104B50001B68FB60334B1B68002283F86520314BD8
:104B60001B6804331846FDF75FFF0346002B0BD18B
:104B70002C4B1B68DB6A012202FA03F3DA432A4B4F
:104B80001B681340284A13607B68B3F1FF3F10D1C4
:104B90003B68002B0DD0234B1B681B211846FCF7EC
:104BA000C3FE204B1B68043319462048FDF7DFFE87
:104BB00032E0FA687B681344BB601A4B1B68BA6822
:104BC0005A60BA68FB689A420FD2164B1B680421E0
:104BD0001846FCF7A9FE164B1A68124B1B680433E3
:104BE00019461046FDF7E7FE16E00E4B1B68042140
:104BF0001846FCF799FE0F4B1A680A4B1B680433E2
:104C000019461046FDF7D7FE0B4B1B68BA689A424F
:104C100002D2094ABB68136000BF1037BD4680BD91
:104C20003488002058870020388800201C88002005
:104C3000EC870020E88700205088002080B584B0F1
:104C400002AF00237B6000F031FB114B1B68002B8F
:104C50000BD0104B01930223009300234FF480727A
:104C60000D490E48FEF782FD78607B68002B0AD163
:104C70004FF0500383F31188BFF36F8FBFF34F8F53
:104C80003B6000BFFEE77B6818460837BD4680BD25
:104C900094880020988800205CB200088D4E00089F
:104CA00080B588B002AFF860B9607A603B602C20B4
:104CB000FDF7E6F978617B69002B0DD07B69002256
:104CC00083F828207B6901933B6A00933B687A68EC
:104CD000B968F86800F005F87B6918461837BD46D2
:104CE00080BD80B586B000AFF860B9607A603B6087
:104CF000BB68002B0AD14FF0500383F31188BFF338
:104D00006F8FBFF34F8F7B6100BFFEE77B6A002B85
:104D10001ED000F0CBFA7B6AFA681A607B6ABA6828
:104D20009A617B6A3A68DA617B6A3A6A1A627B6ADC
:104D300004331846FDF70EFE7B68002B08D07B6A13
:104D400093F8283043F00403DAB27B6A83F8282012
:104D500000BF1837BD4680BD80B58AB000AFF8608F
:104D6000B9607A603B6000237B62FB68002B0AD14C
:104D70004FF0500383F31188BFF36F8FBFF34F8F52
:104D80003B6200BFFEE71A4B1B68002B2AD0BB68B2
:104D90007B617B68BB61FB68FB61BB68052B18DC32
:104DA000FFF7B0FB0346022B09D1114B186807F13E
:104DB000140100233A6BFDF729FF786212E00C4BD7
:104DC000186807F1140100230022FDF71FFF786225
:104DD00008E0074B186807F1140100233A68FEF752
:104DE0003BF878627B6A18462837BD4680BD00BF15
:104DF0009488002080B588B002AF78603960224B7B
:104E00001B68DB68DB687B617B6904331846FDF750
:104E10000BFE7B6993F8283003F00403002B22D0AB
:104E20007B699A697B68D1187B683A68786900F079
:104E3000D1F80346002B1FD00023009300237A688B
:104E400000217869FFF788FF38613B69002B13D197
:104E50004FF0500383F31188BFF36F8FBFF34F8F71
:104E6000FB6000BFFEE77B6993F8283023F0010365
:104E7000DAB27B6983F828207B691B6A78699847D6
:104E800000BF1837BD4680BD8C88002080B584B037
:104E900000AF786007F10803184600F057F8F86093
:104EA000BB681946F86800F003F800F0D5F8F1E7A0
:104EB00080B584B000AF78603960FEF7D7FE07F1A7
:104EC0000803184600F066F8F860BB68002B30D184
:104ED0003B68002B0AD17A68FB689A4206D8FEF735
:104EE000D3FEF9687868FFF785FF24E03B68002B64
:104EF00008D0134B1B681B68002B01D1012300E075
:104F000000233B600F4B18687A68FB68D31A3A6835
:104F10001946FEF7F7FBFEF7B7FE0346002B0AD152
:104F2000094B4FF080521A60BFF34F8FBFF36F8F62
:104F300001E0FEF7A9FE00BF1037BD4680BD00BFEF
:104F4000908800209488002004ED00E080B485B0B3
:104F500000AF78600E4B1B681B68002B01D101224B
:104F600000E000227B681A607B681B68002B05D17B
:104F7000074B1B68DB681B68FB6001E00023FB60DC
:104F8000FB6818461437BD465DF8047B704700BFC8
:104F90008C88002080B584B000AF7860FEF714FFE5
:104FA000F8600B4B1B68FA689A4205D200F01AF9B8
:104FB0007B6801221A6002E07B6800221A60044AC2
:104FC000FB681360FB6818461037BD4680BD00BF04
:104FD0009C88002080B586B000AFF860B9607A6028
:104FE0003B6000237B61FB68BA685A60FB68FA6823
:104FF0001A61BA687B689A4212D87A683B68D21AFA
:10500000FB689B699A4202D301237B611BE0104B32
:105010001A68FB68043319461046FDF7CCFC12E011
:105020007A683B689A4206D2BA683B689A4202D3D1
:1050300001237B6107E0074B1A68FB6804331946BC
:105040001046FDF7B8FC7B6918461837BD4680BD91
:10505000908800208C88002080B58CB002AFAEE034
:10506000BB68002BC0F2AA803B697B627B6A5B69EC
:10507000002B04D07B6A04331846FDF7D5FC3B1D9A
:105080001846FFF787FF3862BB68092B00F297804C
:1050900001A252F823F000BFC1500008C15000081F
:1050A000C1500008355100084951000893510008CB
:1050B000C1500008C150000835510008495100088E
:1050C0007B6A93F8283043F00103DAB27B6A83F8F5
:1050D0002820FA687B6A9B69D118FB683A6A786A6B
:1050E000FFF778FF0346002B69D07B6A1B6A786A5A
:1050F00098477B6A93F8283003F00403002B5ED0B6
:10510000FA687B6A9B691A440023009300230021FC
:10511000786AFFF721FEF861FB69002B4FD14FF051
:10512000500383F31188BFF36F8FBFF34F8FBB61C1
:1051300000BFFEE77B6A93F8283023F00103DAB260
:105140007B6A83F828203AE07B6A93F8283043F0A2
:105150000103DAB27B6A83F82820FA687B6A9A61D5
:105160007B6A9B69002B0AD14FF0500383F31188AF
:10517000BFF36F8FBFF34F8F7B6100BFFEE77B6A8A
:105180009A693B6AD1183B6A3A6A786AFFF722FF4C
:1051900015E07B6A93F8283003F00203002B03D15B
:1051A000786AFDF739F80AE07B6A93F8283023F033
:1051B0000103DAB27B6A83F8282000E000BF084BC5
:1051C0001B6807F1080100221846FDF7F5FE0346AB
:1051D000002B7FF445AF00BF00BF2837BD4680BD20
:1051E0009488002080B588B002AF48E02D4B1B6842
:1051F000DB681B683B612B4B1B68DB68DB68FB6073
:10520000FB6804331846FDF70FFCFB681B6AF8685F
:105210009847FB6893F8283003F00403002B2ED046
:10522000FB689B693A691344BB60BA683B699A4260
:105230000ED9FB68BA685A60FB68FA681A61194BA4
:105240001A68FB68043319461046FDF7B4FB16E0F4
:105250000023009300233A690021F868FFF77CFDE2
:1052600078607B68002B0AD14FF0500383F31188DC
:10527000BFF36F8FBFF34F8F3B6000BFFEE7094B5B
:105280001B681B68002BB1D1064B1B687B61064B6A
:105290001B68044A1360044A7B69136000BF183717
:1052A000BD4680BD8C8800209088002080B500AF6E
:1052B000FDF710FA124B1B68002B1DD11148FDF7AA
:1052C00029FB1148FDF726FB104B0E4A1A60104BC4
:1052D0000D4A1A6000220C210520FDF737FC034619
:1052E000074A1360064B1B68002B05D0044B1B6854
:1052F00008491846FEF7D4F9FDF71CFA00BF80BD37
:105300009488002064880020788800208C88002001
:105310009088002064B2000880B400AFFEE780B43B
:1053200000AFFEE780B400AFFEE780B400AFFEE759
:1053300080B500AF024802F007FF00BF80BD00BF8C
:10534000548A002080B500AF024803F0BDFA00BFC8
:1053500080BD00BFA088002080B590B002AF454B53
:105360001B68444A43F001031360FCF775FEFBF72A
:10537000B1FE00F0ECF901223F49404803F0CCF9BE
:10538000032200210120FDF7E1FB03463C4A1360A4
:105390003B4B1B68002B06D0394B186800230022BA
:1053A0000021FDF733FC002204210A20FDF7CEFB8B
:1053B0000346344A1360002204210A20FDF7C6FB8D
:1053C0000346314A1360304B1B68002B36D02D4BFF
:1053D0001B68002B32D02A4B1B68002B2ED02B4B86
:1053E00001930123009300234FF4FA7228492948BE
:1053F000FEF7BCF9284B01930223009300234FF4DE
:10540000FA7226492648FEF7B1F9264B019302238A
:10541000009300234FF4FA7223492448FEF7A6F9BB
:10542000234B01930223009300234FF4FA72214986
:105430002148FEF79BF9FEF7BBFB19E000237B60D8
:1054400007F108032E220021184605F005F93B1D3F
:105450001A49184605F072F93B1D1846FAF7F6FE90
:1054600003469AB2391D4FF0FF33044803F0BCF8ED
:10547000FEE700BF001000E076890020A088002031
:10548000508A002064890020608900205089002013
:105490006CB20008C1540008548900207CB2000896
:1054A000F9540008588900208CB200084D550008B6
:1054B0005C8900209CB20008B5550008B0B2000815
:1054C00080B584B000AF7860094BFB60094B186869
:1054D00007F10C0100234FF0FF32FDF797FB4FF06F
:1054E000FF33002200210020FFF7DAF9EEE700BFCA
:1054F000080000206489002090B585B000AF786076
:105500000023FB600E4B1B6807F10C014FF0FF32CC
:105510001846FDF751FDFC68FB681846FAF796FE41
:1055200003469AB24FF0FF332146064803F05CF879
:10553000054B1868002300220021FDF767FBE1E717
:1055400064890020A0880020508A002080B584B0A3
:1055500000AF78600023FB730023BB604FF0FF3384
:10556000002200210020FFF79BF90B20FCF788FDAB
:105570000346BB60FDF7AEF80C4800F0D1F90346D6
:10558000FB73BB68FA7B1A70BB680133184600F0E6
:10559000D5F9FDF7CFF8064B186807F1080100238D
:1055A0004FF0FF32FDF732FBD8E700BF6C890020D7
:1055B0006089002080B59EB000AF786000233B6713
:1055C0000023FB6007F1100360220021184605F05C
:1055D00043F84FF4FA737B67234B1B6807F17001A4
:1055E0004FF0FF321846FDF7E7FC3B6F1B78012BAD
:1055F00002D100F0ADF9EFE73B6F1B78022B02D12F
:1056000000F0B2F9E8E73B6F1B78032B03D1786F0A
:1056100000F0B6F9E0E73B6F1B78042B02D100F0F5
:10562000FDF9D9E73B6F1B78052B05D107F10C037A
:10563000184600F005FACFE73B6F1B78062B05D123
:1056400007F10C03184600F01DFAC5E73B6F1B7805
:10565000002B02D100F08EFABEE707F10C031846CA
:1056600000F06EFAB8E700BF6089002080B400AF98
:10567000FEE7000080B586B002AF78600023FB60D3
:105680007B681B68224A93423DD1224B1B781A4605
:10569000214B1978214B99541F4B1B780D2B1CD192
:1056A0001C4B00221A701E4B186807F10C03009364
:1056B000002300220021FFF757F91A4B186807F161
:1056C0000C030093002300220021FFF74DF9012273
:1056D0001149154803F020F80AE00E4B1B780133FE
:1056E000DAB20C4B1A7001220B490F4803F014F880
:1056F000FB68002B07D00D4B4FF080521A60BFF3B0
:105700004F8FBFF36F8F00BF1037BD4680BD00BF06
:105710000080004077890020768900206C89002075
:105720005889002050890020A088002004ED00E066
:1057300080B582B000AF78607B681B68B3F1804FA2
:1057400001D100F093FB00BF0837BD4680BD80B596
:1057500000AF00F073FB00F06BF800F085F800F08C
:1057600005F800F033F800BF80BD000080B588B0B8
:1057700000AF144BDB6C134A43F04003D364114B6E
:10578000DB6C03F04003BB60BB680E4BDB6C0D4A67
:1057900043F00203D3640B4BDB6C03F002037B602A
:1057A0007B688023FB6001233B6100237B6107F161
:1057B0000C031946044800F0EBFC00BF2037BD463F
:1057C00080BD00BF001002400004004880B500AF5B
:1057D000154B164A1A60144B4FF416525A60124B6E
:1057E00000229A60104B0022DA600F4B00221A61EF
:1057F0000D4B0C225A610C4B00229A610A4B00227D
:105800001A62094B00225A62074B00229A62064B29
:1058100000225A66044802F097FE0346002B01D08E
:10582000FFF724FF00BF80BDA0880020008000405B
:1058300080B592B000AF3B1D44220021184604F011
:105840000BFF0123FB6004237B600123FB623B1DF4
:10585000184600F0A9FE0346002B01D0FFF706FF13
:1058600000BF4837BD4680BD80B586B000AF3B1D48
:1058700000221A605A609A60DA601A6100233B6065
:10588000254B264A1A60244B7F229A60224BFF2226
:10589000DA60214B40225A601F4B00221A611E4BD6
:1058A0004FF480129A611C4B0022DA611A4B0022DD
:1058B0005A61194802F0CEF80346002B01D0FFF7D9
:1058C000D5FE1223BB7006237B7002233B70182386
:1058D000FB703B46012219460F4802F02FFA03469F
:1058E000002B01D0FFF7C2FE0C233B710B237B7111
:1058F0000A23BB710123FB713B1D00221946064898
:1059000002F023F90346002B01D0FFF7AFFE00BFE2
:105910001837BD4680BD00BF2C89002000280040FC
:1059200080B483B000AF78607B681B78303BDBB21B
:1059300018460C37BD465DF8047B704780B483B0D1
:1059400000AF786000BF0C37BD465DF8047B704740
:1059500080B500AF01228021024800F0C3FD00BFE6
:1059600080BD00BF0004004880B500AF0022802148
:10597000024800F0B7FD00BF80BD00BF0004004832
:1059800090B585B002AF7860164B1B68002B18D11C
:10599000154B00930023012279681448FFF780F922
:1059A0000346104A13600F4B1C68FEF70DFA0246BF
:1059B0004FF0FF330093002301212046FFF7CCF97D
:1059C0000CE0084B1C68FEF7FFF902464FF0FF336E
:1059D0000093002301212046FFF7BEF900BF0C37DA
:1059E000BD4690BD68890020F1590008C8B2000882
:1059F00080B582B000AF7860064B1B687A689A4227
:105A000003D18021044800F085FD00BF0837BD4662
:105A100080BD00BF688900200004004880B582B0C6
:105A200002AF064B18684FF0FF33009300230022AB
:105A30000321FFF791F900BFBD4680BD68890020B2
:105A400090B583B000AF78607C6880210A4800F090
:105A500031FD03461A460949204604F06FFE084B03
:105A60001868391D00234FF0FF32FDF7CFF800BF53
:105A70000C37BD4690BD00BF00040048D4B20008FA
:105A80006489002080B58AB002AF786007F10C030A
:105A900000221A605A609A60DA601A610023BB60C3
:105AA00007F10C0300221946204802F0EBF807F139
:105AB0000803002219461D4802F0C7F91C4B1B6859
:105AC0004FF0FF311846FDF787FB78683B7B1A469D
:105AD0007B7B1946BB7B00930B46164904F02EFED8
