:020000040800F2
:1000000000000A20C102000811030008792D000831
:100010007F2D0008852D00088B2D000800000000B2
:10002000000000000000000000000000111F000898
:10003000110300080000000081210008E9210008E8
:100040001103000811030008110300081103000840
:100050001103000811030008110300081103000830
:100060001103000811030008110300081103000820
:100070001103000811030008110300081103000810
:100080001103000811030008110300081103000800
:1000900011030008110300081103000811030008F0
:1000A00011030008110300081103000811030008E0
:1000B000912D000811030008110300081103000826
:1000C00011030008110300081103000811030008C0
:1000D00011030008110300081103000811030008B0
:1000E000A52D0008110300081103000811030008E2
:1000F00011030008110300081103000800000000AC
:10010000110300081103000811030008110300087F
:10011000110300081103000811030008110300086F
:10012000110300081103000811030008110300085F
:10013000110300081103000811030008110300084F
:10014000110300081103000811030008110300083F
:10015000110300081103000811030008110300082F
:10016000110300081103000811030008110300081F
:100170001103000811030008000000000000000047
:1001800011030008110300081103000811030008FF
:100190001103000811030008000000000000000027
:1001A0000000000000000000110300081103000817
:1001B00011030008110300081103000800000000EB
:1001C000F0B400EB4003DFF8800000EBC30000F167
:1001D00018063069F768756887422ED3B368DC1B50
:1001E000631E934212D37D19D01900BF11F8013B51
:1001F00005F8013B013A05D011F8013B05F8013B38
:10020000013AF3D1F0600120F0BC7047C018904271
:1002100017D37819121B11F8013B00F8013B013C80
:10022000F9D1141C05D011F8013B05F8013B013A46
:10023000F9D1F4600120F0BC7047C01B0138904236
:10024000D1D20020F0BC7047C487002053B94AB90E
:10025000002908BF00281CBF4FF0FF314FF0FF30CE
:1002600000F00CB8ADF1080C6DE904CE05F07AF998
:10027000DDF804E0DDE9022304B07047704700BFF9
:1002800010B5054C237833B9044B13B10448AFF3D0
:1002900000800123237010BD10000020000000002A
:1002A0002458000808B5034B1BB103490348AFF3BA
:1002B000008008BD00000000140000202458000841
:1002C000DFF834D0002103E00C4B5B58435004317D
:1002D0000B480C4B42189A42F6D30B4A02E000231B
:1002E00042F8043B094B9A42F9D302F049FF05F06A
:1002F000E9F802F063FDFEE700000A20A0590008BB
:10030000000000201000002010000020B088002015
:10031000FEE7000080B582B000AF1F4B7B607B68BA
:1003200003221A617B6803225A617B681B4A9A6127
:100330007B681B4ADA617B684FF480621A627B68D3
:1003400000229A627B6800225A627B680022DA628D
:100350007B68124A1A667B68124A5A667B681022CA
:100360009A667B6800221A677B680022DA667B68DF
:1003700000225A677B6807330B49184605F0EAF8F4
:100380007B680A49184605F0E5F87B6820229A71D7
:1003900000BF0837BD4680BDC48700204058000814
:1003A0002C0000202C0400204C5800085058000855
:1003B00080B58AB000AFF860B9607A603C4B93F9C1
:1003C0000030002B01D1FFF7A5FFFA6813465B0050
:1003D0001344DB006033364A1344BB61BB68FB61E6
:1003E000BB691B693B62BB69DB687B6100237B6285
:1003F0003A6A7B699A422AD9BB699A683B6AD31ADE
:100400003B613A697B68934228BF13463B61BB69F5
:100410005A683B6A13443A691946F86905F084F84A
:100420007A6A3B6913447B62FA693B691344FB6156
:100430007A683B69D31A7B603A6A3B6913443B6232
:10044000BB699B683A6A9A4201D100233B627A6990
:100450003B6AD31A3B613A697B68934228BF1346D3
:100460003B613B69002B18D0BB695A683B6A134457
:100470003A691946F86905F057F87A6A3B691344F6
:100480007B62FA693B691344FB617A683B69D31A62
:100490007B603A6A3B6913443B627B6A002B02D063
:1004A000BB693A6A1A617B6A18462837BD4680BD27
:1004B000C487002080B586B000AFF860B9607A606C
:1004C0003B60314B93F90030002B01D1FFF722FF45
:1004D0002D4B1B691A46FB6893424CD2EFF31183F4
:1004E0004FF0200181F311883B61FB68002B32D073
:1004F0002549FB685A1C13465B001344DB000B4480
:10050000BA681A602049FB685A1C13465B00134402
:10051000DB000B4404337A681A601B49FA681346FF
:100520005B001344DB000B4420333A681A60164921
:10053000FA6813465B001344DB000B4428330022A7
:100540001A601149FA6813465B001344DB000B4440
:10055000243300221A600C49FA6813465B001344E6
:10056000DB000B442C333A6A1A603B6983F3118831
:1005700000237B6102E04FF0FF337B617B6918460B
:100580001837BD4680BD00BFC487002080B586B047
:1005900000AFF860B9607A603B60304B93F900308F
:1005A000002B01D1FFF7B6FE2C4B5B691A46FB68A6
:1005B00093424BD2EFF311834FF0200181F3118866
:1005C0003B61FB68002B31D02449FA6813465B007D
:1005D0001344DB000B446033BA681A601F49FA68A1
:1005E00013465B001344DB000B4464337A681A60E3
:1005F0001A49FA6813465B001344DB000B44683366
:100600003A681A601549FA6813465B001344DB0028
:100610000B44703300221A601049FA6813465B00DD
:100620001344DB000B446C3300221A600B49FA6858
:1006300013465B001344DB000B4474333A6A1A60C0
:100640003B6983F3118800237B6102E04FF0FF33A5
:100650007B617B6918461837BD4680BDC487002082
:1006600080B487B000AFF860B9607A6000233B6166
:1006700002E03B6901333B61BA683B69134493F97B
:100680000030002BF5D13A697B689A4201D97B682A
:100690003B613B69FE2B06D8FB685A1CFA603A693D
:1006A000D2B21A7011E0FB685A1CFA60FF221A706D
:1006B000FB685A1CFA603A69D2B21A703B69190A8F
:1006C000FB685A1CFA60CAB21A7000237B610CE006
:1006D000BB685A1CBA6093F90010FB685A1CFA6098
:1006E000CAB21A707B6901337B617A693B699A42AD
:1006F000EED3FB6818461C37BD465DF8047B704797
:1007000080B483B000AF78607B68043318460C3740
:10071000BD465DF8047B704780B582B000AFFB1C1E
:10072000012219460120FFF743FE03467B607B68E8
:10073000002B4CDDFB78072B16DC002B3CDD013B4E
:10074000062B39D801A252F823F000BF6F0700082A
:10075000750700087B070008810700088707000865
:100760008D07000893070008802B15D024E000F0C7
:100770007DFA31E000F032FB2EE000F00DFD2BE0C1
:1007800000F0D2FC28E000F04FFB25E000F036FF3F
:1007900022E000F015FF1FE0FB1C0122194601209A
:1007A000FFF706FE03467B607B68002B11DDFB78BC
:1007B000184600F085FE0CE0FB785BB2002B0ADAED
:1007C000FB1C012219460120FFF7F2FD03E000BFE8
:1007D00002E000BF00E000BF00BF0837BD4680BD9B
:1007E00080B58CB000AF01233B713B1D0133FB6131
:1007F000FB69FB62304B5B69BB620BE0BB6ADAB240
:10080000FB6A591CF96262F07F02D2B21A70BB6AAD
:10081000DB09BB62BB6A7F2BF0D8FB6A5A1CFA6209
:10082000BA6AD2B21A70FB6AFB61244B1B68BB61C7
:10083000214BDB68BA69D31A7B61FB697B627B69F8
:100840003B620BE03B6ADAB27B6A591C796262F068
:100850007F02D2B21A703B6ADB093B623B6A7F2B94
:10086000F0D87B6A5A1C7A623A6AD2B21A707B6AF2
:10087000FB613B1DFA69D31A1A463B1D194601203C
:10088000FFF79EFC03463B613B69002B09D00A4AF7
:10089000BB69D360084B1B78013BDAB2064B1A7078
:1008A00004E0054B5B690133034A53613B69184619
:1008B0003037BD4680BD00BF44440020041000E036
:1008C00080B58AB000AFF860B9607A60634B1B787E
:1008D000012B10D0614B1B78002B00F0A1805F4BE7
:1008E0001B78022B09D1FFF77BFF5C4B1B78012B98
:1008F00040F0988001E000BF00E000BF7B681F2B44
:1009000009D8564BDA697B6822FA03F303F0010336
:10091000002B40F089807B68172B07D8FB68013BD0
:10092000FB607B68DAB2FB681A703DE0BA68FB686E
:10093000D31AFB61FB697F2B12D9FB69DA09FB68CB
:10094000013BFB60D2B2FB681A70FB69DBB2FA684C
:10095000013AFA6063F07F03DAB2FB681A7006E0CE
:10096000FB68013BFB60FB69DAB2FB681A707B68CD
:100970007F2B12D97B68DA09FB68013BFB60D2B29E
:10098000FB681A707B68DBB2FA68013AFA6063F0C0
:100990007F03DAB2FB681A7006E0FB68013BFB607C
:1009A0007B68DAB2FB681A702D4B1B68BB612B4B5E
:1009B000DB68BA69D31A7B61BB687B627B693B6287
:1009C0000BE03B6ADAB27B6A591C796262F07F0203
:1009D000D2B21A703B6ADB093B623B6A7F2BF0D8CC
:1009E0007B6A5A1C7A623A6AD2B21A707B6ABB601E
:1009F000BA68FB68D31A1A46F9680120FFF7E0FBD2
:100A000003463B613B69002B03D0144ABB69D360AA
:100A10000BE0124B1B780133DAB2104B1A7004E072
:100A200000BF02E000BF00E000BF0E4BD3F88420FF
:100A30000C4BD3F888309A420BD0084B9B78002B94
:100A400007D1064B01229A70FFF766FE034B002286
:100A50009A7000BF2837BD4680BD00BF44440020C7
:100A6000041000E0C487002080B586B002AFF860B3
:100A7000B9607A603B60002300934FF48043144ACE
:100A800014490120FFF716FD002300930823124AA2
:100A900010490120FFF77AFD104B4FF080521A6188
:100AA0000F4B1B680D4AD3600C4A7B6813620B4ADC
:100AB000FB685360094ABB689360084A3B6853620D
:100AC000064B00221A7000BF1037BD4680BD00BF24
:100AD0003C040020585800083C44002044440020B6
:100AE000041000E080B483B000AF7860044A7B68F3
:100AF000136100BF0C37BD465DF8047B704700BF33
:100B00004444002080B584B000AF7860EFF31183D7
:100B10004FF0200181F31188FB600848FFF7F0FDDA
:100B2000B8607A68B968B868FFF7CAFEFB6883F3F3
:100B3000118800BF1037BD4680BD00BF744400203F
:100B400080B588B000AF78603960EFF311834FF063
:100B5000200181F311887B611648FFF7D1FD3861D0
:100B60003B69FB60FB68FB613B68BB610BE0BB69F9
:100B7000DAB2FB69591CF96162F07F02D2B21A70D5
:100B8000BB69DB09BB61BB697F2BF0D8FB695A1CD1
:100B9000FA61BA69D2B21A70FB69FB607A68F968C7
:100BA0003869FFF78DFE7B6983F3118800BF20371A
:100BB000BD4680BD7444002080B58CB000AFF860A5
:100BC000B9607A60EFF311834FF0200181F311884F
:100BD000FB612548FFF794FDB861BB697B617B69C8
:100BE000FB62BB68BB620BE0BB6ADAB2FB6A591CF2
:100BF000F96262F07F02D2B21A70BB6ADB09BB6293
:100C0000BB6A7F2BF0D8FB6A5A1CFA62BA6AD2B26E
:100C10001A70FB6A7B617B697B627B683B620BE0DD
:100C20003B6ADAB27B6A591C796262F07F02D2B207
:100C30001A703B6ADB093B623B6A7F2BF0D87B6A08
:100C40005A1C7A623A6AD2B21A707B6A7B61FA687D
:100C50007969B869FFF734FEFB6983F3118800BF37
:100C60003037BD4680BD00BF7444002080B58CB0D5
:100C700000AF574B01221A70EFF311834FF02001A0
:100C800081F31188FB600A2252490120FFF798FA8C
:100C9000FB6883F311880A20FFF734FFEFF3118319
:100CA0004FF0200181F31188BB604B48FFF728FD0E
:100CB00078607B683B603B68FB62454B5B68BB626E
:100CC0000BE0BB6ADAB2FB6A591CF96262F07F0280
:100CD000D2B21A70BB6ADB09BB62BB6A7F2BF0D849
:100CE000FB6A5A1CFA62BA6AD2B21A70FB6A3B609B
:100CF0003B687B62364B9B683B620BE03B6ADAB237
:100D00007B6A591C796262F07F02D2B21A703B6A28
:100D1000DB093B623B6A7F2BF0D87B6A5A1C7A6204
:100D20003A6AD2B21A707B6A3B603B68FB61284B1F
:100D30001B69BB610BE0BB69DAB2FB69591CF96145
:100D400062F07F02D2B21A70BB69DB09BB61BB697A
:100D50007F2BF0D8FB695A1CFA61BA69D2B21A70BB
:100D6000FB693B603B687B6102233B610BE03B69B5
:100D7000DAB27B69591C796162F07F02D2B21A70D3
:100D80003B69DB093B613B697F2BF0D87B695A1CCF
:100D90007A613A69D2B21A707B693B60182239686D
:100DA0007868FFF78DFDBB6883F31188084B5B6A99
:100DB000002B02D0064B5B6A984700F0EDF900F07B
:100DC000B3F900F01BFC00BF3037BD4680BD00BF4B
:100DD000444400203C5900087444002080B582B08F
:100DE00000AFEFF311834FF0200181F311887B6096
:100DF0000B48FFF785FC38600A4B1B78002B07D0A7
:100E00000B2239683868FFF75BFD064B00221A7029
:100E10007B6883F3118800BF0837BD4680BD00BFE3
:100E2000744400204444002080B58CB000AFEFF340
:100E300011834FF0200181F31188FB604548FFF7D3
:100E40005FFCB860BB687B607B68FB62424B5B68A1
:100E5000BB620BE0BB6ADAB2FB6A591CF96262F052
:100E60007F02D2B21A70BB6ADB09BB62BB6A7F2BFE
:100E7000F0D8FB6A5A1CFA62BA6AD2B21A70FB6ADC
:100E80007B607B687B62344B9B683B620BE03B6A18
:100E9000DAB27B6A591C796262F07F02D2B21A70B0
:100EA0003B6ADB093B623B6A7F2BF0D87B6A5A1CAA
:100EB0007A623A6AD2B21A707B6A7B607B68FB61A5
:100EC000254B1B69BB610BE0BB69DAB2FB69591C9E
:100ED000F96162F07F02D2B21A70BB69DB09BB61B3
:100EE000BB697F2BF0D8FB695A1CFA61BA69D2B290
:100EF0001A70FB697B607B687B6102233B610BE0BE
:100F00003B69DAB27B69591C796162F07F02D2B227
:100F10001A703B69DB093B613B697F2BF0D87B6929
:100F20005A1C7A613A69D2B21A707B697B601822C6
:100F30007968B868FFF7C4FCFB6883F31188064B37
:100F40005B6A002B02D0044B5B6A984700BF3037C6
:100F5000BD4680BD744400204444002080B592B05A
:100F600000AF7860EFF311834FF0200181F3118817
:100F70007B616B48FFF7C4FB38613B69FB60FB6832
:100F80007B647B681A68674B1B69D31A9B083B64B8
:100F90000BE03B6CDAB27B6C591C796462F07F0227
:100FA000D2B21A703B6CDB093B643B6C7F2BF0D8F0
:100FB0007B6C5A1C7A643A6CD2B21A707B6CFB6000
:100FC000FB68FB637B689B68BB630BE0BB6BDAB2BF
:100FD000FB6B591CF96362F07F02D2B21A70BB6BD3
:100FE000DB09BB63BB6B7F2BF0D8FB6B5A1CFA632E
:100FF000BA6BD2B21A70FB6BFB607B685B68202215
:101000001946F868FFF72CFBF8600922F96838697F
:10101000FFF756FC3B69FB60FB687B637B681A68E3
:10102000404B1B69D31A9B083B630BE03B6BDAB266
:101030007B6B591C796362F07F02D2B21A703B6BF2
:10104000DB093B633B6B7F2BF0D87B6B5A1C7A63CD
:101050003A6BD2B21A707B6BFB60FB68FB627B68F9
:10106000DB68BB620BE0BB6ADAB2FB6A591CF9624F
:1010700062F07F02D2B21A70BB6ADB09BB62BB6A44
:101080007F2BF0D8FB6A5A1CFA62BA6AD2B21A7085
:10109000FB6AFB60FB687B627B681B693B620BE061
:1010A0003B6ADAB27B6A591C796262F07F02D2B283
:1010B0001A703B6ADB093B623B6A7F2BF0D87B6A84
:1010C0005A1C7A623A6AD2B21A707B6AFB60FB6879
:1010D000FB610023BB610BE0BB69DAB2FB69591C01
:1010E000F96162F07F02D2B21A70BB69DB09BB61A1
:1010F000BB697F2BF0D8FB695A1CFA61BA69D2B27E
:101100001A70FB69FB601522F9683869FFF7D8FB94
:101110007B6983F3118800BF4837BD4680BD00BF9F
:10112000744400204444002080B500AF074B1B6A84
:10113000002B08D0054B1B6A5B68002B03D0034BC8
:101140001B6A5B68984700BF80BD00BF4444002015
:1011500080B586B000AF7860EFF311834FF02001C7
:1011600081F311887B610B48FFF7CAFA386180224E
:1011700079683869FFF774FAF8600E22F9683869FF
:10118000FFF79EFB7B6983F3118800BF1837BD46CC
:1011900080BD00BF7444002090B583B000AF154BF4
:1011A0001B6A002B1AD0134B1B6A1B68002B15D02F
:1011B000104B1B6A1B689847C7E900013C68D7E9D8
:1011C00000014FF000024FF000030A000023134615
:1011D0001A4621460D20FFF7EFFC06E0064B1B6880
:1011E00019460C20FFF7ACFC00BF00BF0C37BD4612
:1011F00090BD00BF44440020041000E080B586B0DC
:1012000000AFEFF311834FF0200181F31188FB60F1
:101210001948FFF775FAB860BB687B60174B1B680D
:10122000C3F308033B607B687B613B683B610BE079
:101230003B69DAB27B69591C796162F07F02D2B2F4
:101240001A703B69DB093B613B697F2BF0D87B69F6
:101250005A1C7A613A69D2B21A707B697B600222A9
:101260007968B868FFF72CFBFB6883F3118800BF2F
:101270001837BD4680BD00BF7444002004ED00E077
:1012800080B582B000AFEFF311834FF0200181F3FE
:1012900011887B600748FFF733FA3860032239680A
:1012A0003868FFF70DFB7B6883F3118800BF0837B0
:1012B000BD4680BD7444002080B582B000AFEFF31E
:1012C00011834FF0200181F311887B600748FFF7FD
:1012D00017FA3860122239683868FFF7F1FA7B682C
:1012E00083F3118800BF0837BD4680BD74440020D9
:1012F00080B582B000AFEFF311834FF0200181F38E
:1013000011887B600748FFF7FBF9386011223968C4
:101310003868FFF7D5FA7B6883F3118800BF083778
:10132000BD4680BD7444002080B588B000AF7860B1
:10133000EFF311834FF0200181F311887B611A488C
:10134000FFF7DEF938613B69FB60184B1B697A686F
:10135000D31A9B087B60FB68FB617B68BB610BE079
:10136000BB69DAB2FB69591CF96162F07F02D2B243
:101370001A70BB69DB09BB61BB697F2BF0D8FB69C5
:101380005A1CFA61BA69D2B21A70FB69FB60082272
:10139000F9683869FFF794FA7B6983F3118800BF15
:1013A0002037BD4680BD00BF744400204444002067
:1013B00080B588B000AF7860EFF311834FF0200163
:1013C00081F311887B611A48FFF79AF938613B690C
:1013D000FB60184B1B697A68D31A9B087B60FB681B
:1013E000FB617B68BB610BE0BB69DAB2FB69591C2E
:1013F000F96162F07F02D2B21A70BB69DB09BB618E
:10140000BB697F2BF0D8FB695A1CFA61BA69D2B26A
:101410001A70FB69FB600422F9683869FFF750FA1B
:101420007B6983F3118800BF2037BD4680BD00BFB4
:10143000744400204444002080B588B000AF786038
:10144000EFF311834FF0200181F311887B611A487B
:10145000FFF756F938613B69FB60184B1B697A68E6
:10146000D31A9B087B60FB68FB617B68BB610BE068
:10147000BB69DAB2FB69591CF96162F07F02D2B232
:101480001A70BB69DB09BB61BB697F2BF0D8FB69B4
:101490005A1CFA61BA69D2B21A70FB69FB60062263
:1014A000F9683869FFF70CFA7B6983F3118800BF8C
:1014B0002037BD4680BD00BF744400204444002056
:1014C00080B58CB000AF0346FB713B4B1B68002B13
:1014D0006DD0394B1B68FB620023BB6208E0FB6ADE
:1014E0001B69FB62FB6A002B07D0BB6A0133BB623E
:1014F000FB79BA6A9A42F2D300E000BFFB6A002B84
:1015000055D0EFF311834FF0200181F311887B61F7
:101510002A48FFF7F5F838613B69FB60FB687B629E
:10152000FB793B620BE03B6ADAB27B6A591C796259
:1015300062F07F02D2B21A703B6ADB093B623B6AFF
:101540007F2BF0D87B6A5A1C7A623A6AD2B21A7040
:101550007B6AFB60FB68FB61FB6A9B68BB610BE01D
:10156000BB69DAB2FB69591CF96162F07F02D2B241
:101570001A70BB69DB09BB61BB697F2BF0D8FB69C3
:101580005A1CFA61BA69D2B21A70FB69FB60FB6A35
:101590001B6880221946F868FFF762F8F860162287
:1015A000F9683869FFF78CF97B6983F3118800BF0C
:1015B0003037BD4680BD00BF6C440020744400201D
:1015C00080B582B000AF0C4B1B68002B0FD00A4BCC
:1015D0001B687B607B68DB68002B02D07B68DB6864
:1015E00098477B681B697B607B68002BF2D100BF4A
:1015F0000837BD4680BD00BF6C44002080B586B072
:1016000000AFEFF311834FF0200181F31188FB60ED
:101610001748FFF775F8B860BB687B607B687B6133
:10162000144B1B783B610BE03B69DAB27B69591CB8
:10163000796162F07F02D2B21A703B69DB093B61CB
:101640003B697F2BF0D87B695A1C7A613A69D2B228
:101650001A707B697B601B227968B868FFF730F9E4
:10166000FB6883F3118800BF1837BD4680BD00BFFB
:10167000744400207044002080B58AB000AF7860C8
:10168000EFF311834FF0200181F311887B6127482C
:10169000FFF736F83861802279683869FEF7E0FF95
:1016A000F860FB687B6200233B620BE03B6ADAB2C6
:1016B0007B6A591C796262F07F02D2B21A703B6A6F
:1016C000DB093B623B6A7F2BF0D87B6A5A1C7A624B
:1016D0003A6AD2B21A707B6AFB60FB68FB61002336
:1016E000BB610BE0BB69DAB2FB69591CF96162F0BE
:1016F0007F02D2B21A70BB69DB09BB61BB697F2B69
:10170000F0D8FB695A1CFA61BA69D2B21A70FB6947
:10171000FB601A22F9683869FFF7D2F87B6983F316
:10172000118800BF2837BD4680BD00BF744400202B
:1017300080B58AB000AF7860EFF311834FF02001DD
:1017400081F311887B612748FEF7DAFF3861802238
:1017500079683869FEF784FFF860FB687B620123D3
:101760003B620BE03B6ADAB27B6A591C796262F039
:101770007F02D2B21A703B6ADB093B623B6A7F2B65
:10178000F0D87B6A5A1C7A623A6AD2B21A707B6AC3
:10179000FB60FB68FB610023BB610BE0BB69DAB255
:1017A000FB69591CF96162F07F02D2B21A70BB6901
:1017B000DB09BB61BB697F2BF0D8FB695A1CFA615E
:1017C000BA69D2B21A70FB69FB601A22F9683869EB
:1017D000FFF776F87B6983F3118800BF2837BD4691
:1017E00080BD00BF74440020F0B585B002AF002377
:1017F0007B6048E029497A6813469B0013449B00AC
:101800000B441B68184601F06BFA014623487A68BE
:1018100013469B0013449B000344103319601F4977
:101820007A6813469B0013449B000B4418681B49BD
:101830007A6813469B0013449B000B4404331968D9
:10184000164C7A6813469B0013449B0023440833CC
:101850001C68124D7A6813469B0013449B002B446E
:101860000C331D680D4E7A6813469B0013449B0091
:10187000334410331B6800932B46224600F0B6F821
:101880007B6801337B60064B1B687A689A42B1D350
:1018900000BF00BF0C37BD46F0BD00BF584500205B
:1018A000F8450020B0B582B000AF01F025F803463E
:1018B0001A464FF00003C7E90023D7E900010246AA
:1018C0000B464FF000044FF000055D0145EAD2657C
:1018D000540122462B46121A63EB01034FF0000419
:1018E0004FF000059D0045EA9275940022462B4674
:1018F000121841EB03034FF000004FF00001D90034
:1019000041EA5271D00002460B46C7E90023D7E9ED
:101910000023104619460837BD46B0BD80B586B0D5
:1019200002AFF860B9607A603B6005222B49B86865
:1019300003F0ECFD0346002B4BD0294B1B68072B13
:1019400003D92848FFF7F4FE44E0254B1A682649DE
:1019500013469B0013449B000B44FA681A60204B0B
:101960001A68214913469B0013449B000B4404331F
:10197000BA681A601A4B1A681B4913469B00134435
:101980009B000B4408337A681A60154B1A68164995
:1019900013469B0013449B000B440C333A681A60B7
:1019A0000F4B1A68104913469B0013449B000B44CD
:1019B0001033BA691A600A4B1B680133084A136076
:1019C000BB6900933B687A68B968F86800F00EF864
:1019D00000E000BF1037BD4680BD00BF6058000862
:1019E000F8450020685800085845002080B58AB0A6
:1019F00000AFF860B9607A603B6007F1140314220D
:101A00000021184603F09EFDFB687B61BB68BB614B
:101A10007B68FB613B683B623B6B7B6207F11403B5
:101A20001846FFF79BFA00BF2837BD4680BD00006F
:101A300080B500AF0348FFF78BFB0348FFF788FB37
:101A400000BF80BDB8580008FC58000880B500AF42
:101A5000054B064A06490648FFF706F84FF00050C6
:101A6000FFF740F800BF80BD311A00084859000850
:101A700000093D0080B58AB000AF78600023FB61AB
:101A800000F08CFE5B4B1B68002B01D100F020F9AD
:101A9000594B1A687B681340002B40F093807B6899
:101AA000002B1DD008227B6813447B607B6803F009
:101AB0000703002B14D07B6823F0070308337B60F7
:101AC0007B6803F00703002B0AD04FF0500383F329
:101AD0001188BFF36F8FBFF34F8F7B6100BFFEE7AD
:101AE0007B68002B6ED0454B1B687A689A4269D898
:101AF000434B3B62424B1B687B6204E07B6A3B6268
:101B00007B6A1B687B627B6A5B687A689A4203D94E
:101B10007B6A1B68002BF1D1364B1B687A6A9A42AC
:101B200050D03B6A1B6808221344FB617B6A1A6829
:101B30003B6A1A607B6A5A687B68D21A08235B008A
:101B40009A421FD97A6A7B681344BB61BB6903F070
:101B50000703002B0AD04FF0500383F31188BFF323
:101B60006F8FBFF34F8F3B6100BFFEE77B6A5A6800
:101B70007B68D21ABB695A607B6A7A685A60B86916
:101B800000F008F91D4B1A687B6A5B68D31A1B4A80
:101B900013601A4B1A681B4B1B689A4203D2174BEF
:101BA0001B68184A13607B6A5A68134B1B681A43F8
:101BB0007B6A5A607B6A00221A60134B1B680133F0
:101BC000114A136000F0F8FDFB6903F00703002BD6
:101BD0000AD04FF0500383F31188BFF36F8FBFF328
:101BE0004F8FFB6000BFFEE7FB6918462837BD46F4
:101BF00080BD00BF048600201886002008860020D3
:101C0000FC8500200C8600201086002080B586B060
:101C100000AF78607B687B617B68002B4DD0082328
:101C20005B427A6913447B617B693B613B695A681B
:101C3000244B1B681340002B0AD14FF0500383F351
:101C40001188BFF36F8FBFF34F8FFB6000BFFEE7BC
:101C50003B691B68002B0AD04FF0500383F31188B7
:101C6000BFF36F8FBFF34F8FBB6000BFFEE73B69D1
:101C70005A68144B1B681340002B1ED03B691B682D
:101C8000002B1AD13B695A680E4B1B68DB431A4084
:101C90003B695A6000F082FD3B695A680A4B1B6839
:101CA0001344094A1360386900F074F8074B1B6845
:101CB0000133064A136000F07FFD00BF1837BD46B0
:101CC00080BD00BF188600200886002014860020F2
:101CD00080B485B000AF4FF48043BB60274BFB60FE
:101CE000FB6803F00703002B0CD0FB680733FB6095
:101CF000FB6823F00703FB60BA68FB68D31A1F4A2E
:101D00001344BB60FB687B601D4A7B6813601C4BFF
:101D100000225A607B68BA681344FB600822FB68A3
:101D20009B1AFB60FB6823F00703FB60FB68154A06
:101D30001360144B1B6800225A60124B1B68002270
:101D40001A607B683B603B68FA68D21A3B685A604D
:101D50000C4B1A683B681A603B685B680A4A136060
:101D60003B685B68094A1360094B4FF000421A60F8
:101D700000BF1437BD465DF8047B7047FC4500206A
:101D8000FC850020048600200C86002008860020A8
:101D90001886002080B485B000AF7860284BFB60C7
:101DA00002E0FB681B68FB60FB681B687A689A426C
:101DB000F7D8FB68BB60FB685B68BA6813447A6855
:101DC0009A4208D1FB685A687B685B681A44FB68D2
:101DD0005A60FB687B607B68BB607B685B68BA6845
:101DE0001A44FB681B689A4218D1FB681A68154BA5
:101DF0001B689A420DD07B685A68FB681B685B6859
:101E00001A447B685A60FB681B681A687B681A6012
:101E100008E00C4B1A687B681A6003E0FB681A68DC
:101E20007B681A60FA687B689A4202D0FB687A681D
:101E30001A6000BF1437BD465DF8047B704700BFD1
:101E4000FC8500200486002080B485B000AFF860D7
:101E5000B9607A60FB68043BFB60FB684FF08072FE
:101E60001A60FB68043BFB60BB6823F00102FB685F
:101E70001A60FB68043BFB600C4AFB681A60FB6855
:101E8000143BFB607A68FB681A60FB68043BFB60EC
:101E9000FB686FF002021A60FB68203BFB60FB6886
:101EA00018461437BD465DF8047B7047B11E000824
:101EB00080B485B000AF00237B60124B1B68B3F188
:101EC000FF3F0AD04FF0500383F31188BFF36F8FA9
:101ED000BFF34F8FFB6000BFFEE74FF0500383F36B
:101EE0001188BFF36F8FBFF34F8FBB6000BF00BF80
:101EF0007B68002BFCD000BF00BF1437BD465DF8E7
:101F0000047B70470000002000000000000000007B
:101F1000074B19680868B0E8F04F80F30988BFF3F1
:101F20006F8F4FF0000080F311887047AFF300808F
:101F30002486002000BF00BF08480068006880F3C6
:101F400008884FF0000080F3148862B661B6BFF3D2
:101F50004F8FBFF36F8F00DF00BF00BF08ED00E0C1
:101F600080B588B000AF4E4B1B684E4A93420AD1F1
:101F70004FF0500383F31188BFF36F8FBFF34F8F80
:101F8000BB6100BFFEE7464B1B68474A93420AD13C
:101F90004FF0500383F31188BFF36F8FBFF34F8F60
:101FA0007B6100BFFEE7414BFB61FB691B78DBB245
:101FB000BB60FB69FF221A70FB691B78DBB2FB7107
:101FC000FB79DBB203F05003DAB2394B1A70394BAC
:101FD00007221A6009E0374B1B68013B354A136042
:101FE000FB79DBB25B00DBB2FB71FB79DBB203F0A8
:101FF0008003802BEFD02F4B1B68C3F10703042B0A
:102000000AD04FF0500383F31188BFF36F8FBFF3F3
:102010004F8F3B6100BFFEE7264B1B68C3F10703F0
:10202000042B0AD04FF0500383F31188BFF36F8F56
:10203000BFF34F8FFB6000BFFEE71E4B1B681B0208
:102040001C4A13601B4B1B6803F4E063194A1360BE
:10205000BB68DAB2FB691A70174B1B68164A43F467
:1020600070031360144B1B68134A43F070431360F2
:1020700000F0E4F8114B00221A6000F0F9F8104B60
:102080001B680F4A43F040431360FFF755FF00F011
:1020900001FDFFF70DFF002318462037BD4680BD28
:1020A00000ED00E071C20F4170C20F4100E400E09A
:1020B0001C8600202086002020ED00E0000000208B
:1020C00034EF00E080B483B000AF4FF0500383F3EF
:1020D0001188BFF36F8FBFF34F8F7B6000BF0F4B33
:1020E0001B6801330D4A13600C4B1B68012B0FD189
:1020F0000B4B1B68DBB2002B0AD04FF0500383F36D
:102100001188BFF36F8FBFF34F8F3B6000BFFEE7B7
:1021100000BF0C37BD465DF8047B7047000000200F
:1021200004ED00E080B483B000AF124B1B68002BBD
:102130000AD14FF0500383F31188BFF36F8FBFF3C1
:102140004F8F7B6000BFFEE70A4B1B68013B094ACB
:102150001360084B1B68002B05D100233B603B68D4
:1021600083F3118800BF00BF0C37BD465DF8047BC8
:10217000704700BF000000200000000000000000C9
:10218000EFF30980BFF36F8F154B1A681EF0100F25
:1021900008BF20ED108A20E9F04F10602DE90900FA
:1021A0004FF0500080F31188BFF34F8FBFF36F8F54
:1021B00000F070FC4FF0000080F3118809BC196832
:1021C0000868B0E8F04F1EF0100F08BFB0EC108A9E
:1021D00080F30988BFF36F8F704700BFAFF30080B3
:1021E0002486002000BF00BF80B582B000AF4FF052
:1021F000500383F31188BFF36F8FBFF34F8F7B6062
:1022000000BFFEF7FBFF00F089FB0346002B06D062
:10221000FFF752F8084B4FF080521A6001E0FFF7C9
:102220002FF800233B603B6883F3118800BF00BF99
:102230000837BD4680BD00BF04ED00E080B400AFAC
:10224000084B00221A60084B00221A60074B40F628
:102250009F721A60034B07221A6000BFBD465DF8EB
:10226000047B704710E000E018E000E014E000E0BC
:10227000DFF80C00016841F470010160704700BF95
:1022800088ED00E080B485B000AFEFF30583FB601C
:10229000FB680F2B14D9174AFB6813441B78FB7299
:1022A000154B1B78FA7A9A420AD24FF0500383F307
:1022B0001188BFF36F8FBFF34F8F7B6000BFFEE7C6
:1022C0000E4B1B6803F4E0620D4B1B689A420AD95F
:1022D0004FF0500383F31188BFF36F8FBFF34F8F1D
:1022E0003B6000BFFEE700BF1437BD465DF8047BCE
:1022F000704700BFF0E300E01C8600200CED00E01A
:102300002086002080B483B000AF78607B6803F142
:1023100008027B685A607B684FF0FF329A607B68E6
:1023200003F108027B68DA607B6803F108027B68CE
:102330001A617B6800221A6000BF0C37BD465DF849
:10234000047B704780B483B000AF78607B68002264
:102350001A6100BF0C37BD465DF8047B704780B43E
:1023600085B000AF786039607B685B68FB603B6874
:10237000FA685A60FB689A683B689A60FB689B68D9
:102380003A685A60FB683A689A603B687A681A61F2
:102390007B681B685A1C7B681A6000BF1437BD46F7
:1023A0005DF8047B704780B485B000AF78607B68CF
:1023B0001B69FB607B685B687A6892689A607B68DF
:1023C0009B687A6852685A60FB685B687A689A42D0
:1023D00003D17B689A68FB685A607B6800221A61A7
:1023E000FB681B685A1EFB681A60FB681B6818466E
:1023F0001437BD465DF8047B704780B58CB004AFE0
:10240000F860B9603B601346FB80FB889B00184670
:10241000FFF730FB78617B69002B0ED06820FFF757
:1024200029FBF861FB69002B03D0FB697A691A6309
:1024300005E07869FFF7EAFB01E00023FB61FB6937
:10244000002B13D0FA8800230393FB690293FB6AE5
:102450000193BB6A00933B68B968F86800F00EF816
:10246000F86900F0B7F80123BB6102E04FF0FF33D9
:10247000BB61BB6918462037BD4680BD80B588B0BA
:1024800000AFF860B9607A603B603B6B186B7B68AB
:102490009B001A46A52103F055F83B6B1A6B7B682D
:1024A00003F18043013B9B001344BB61BB6923F0F4
:1024B0000703BB61BB6903F00703002B0AD04FF091
:1024C000500383F31188BFF36F8FBFF34F8F7B618E
:1024D00000BFFEE7BB68002B21D00023FB6114E0A6
:1024E000BA68FB69134493F900103A6BFB69134413
:1024F00034330A461A70BA68FB69134493F9003002
:10250000002B06D0FB690133FB61FB69092BE7D97E
:1025100000E000BF3B6B002283F83D2003E03B6BF3
:10252000002283F83420BB6A042B01D90423BB6248
:102530003B6BBA6ADA623B6BBA6A9A643B6B002205
:10254000DA643B6B04331846FFF7FCFE3B6B183331
:102550001846FFF7F7FE3B6B3A6B1A61BB6AC3F193
:1025600005023B6B9A613B6B3A6B5A623B6B0022F4
:102570001A653B6B0022DA650023FB6109E03A6BC8
:10258000FB6914339B00134400225A60FB6901333A
:10259000FB61FB69012BF2D93B6B00221A663B6B96
:1025A000002283F864203B6B002283F865203A68A0
:1025B000F968B869FFF748FC02463B6B1A60FB6A92
:1025C000002B02D0FB6A3A6B1A6000BF2037BD4671
:1025D00080BD0000B0B584B002AF7860FFF772FD37
:1025E0003B4B1B6801333A4A13603A4B1B68002B84
:1025F00009D1384A7B681360354B1B68012B10D119
:1026000000F0E4FA0DE0344B1B68002B09D1314B8C
:102610001B68DA6A7B68DB6A9A4202D82D4A7B68BB
:1026200013602E4B1B6801332C4A13602B4B1A6826
:102630007B681A647B68002B16D07B681846FEF70F
:1026400073FE78687B6803F134017B68DA6A7B6823
:102650001B6B1D467B681B681C467B681B6BE31A63
:1026600000932B46FFF75AF97B681846FEF7E4FE05
:102670007B68DB6A01229A40194B1B681343184A96
:1026800013607B68DA6A13469B0013449B00154A6B
:102690001A447B68043319461046FFF760FEFFF7C3
:1026A00041FD0D4B1B68002B0ED00A4B1B68DA6AEC
:1026B0007B68DB6A9A4207D20B4B4FF080521A605C
:1026C000BFF34F8FBFF36F8F00BF0837BD46B0BD5C
:1026D000FC86002024860020088700201887002020
:1026E000048700202886002004ED00E080B586B035
:1026F00002AF234B01930023009300234FF4807219
:1027000020492148FFF779FEF860FB68012B24D1AE
:102710004FF0500383F31188BFF36F8FBFF34F8FD8
:10272000BB6000BF194B4FF0FF321A60184B0122FB
:102730001A60184B00221A60174B1A68104B1B685E
:102740009A4202D1FEF7D4FD04E0134B1B681846F1
:10275000FEF72EFEFFF704FC0EE0FB68B3F1FF3F2F
:102760000AD14FF0500383F31188BFF36F8FBFF38B
:102770004F8F7B6000BFFEE700BF1037BD4680BDB6
:10278000208700200C5900089D2B00081C87002082
:1027900008870020008700202486002080B400AF36
:1027A000044B1B680133034A136000BFBD465DF84C
:1027B000047B70472487002080B584B000AF0023DD
:1027C000FB600023BB60434B1B68002B0AD14FF01A
:1027D000500383F31188BFF36F8FBFF34F8F3B60BC
:1027E00000BFFEE7FFF76EFC3A4B1B68013B394A1E
:1027F0001360384B1B68002B65D1374B1B68002BCF
:1028000061D032E0354BDB68DB68FB60FB68183376
:102810001846FFF7C8FDFB6804331846FFF7C3FDF1
:10282000FB681846FEF708FEFB68DB6A01229A4047
:102830002B4B1B6813432A4A1360FB68DA6A134662
:102840009B0013449B00274A1A44FB680433194633
:102850001046FFF784FDFB68DA6A234B1B68DB6ACE
:102860009A4202D3214B01221A601C4B1B68002B99
:10287000C8D1FB68002B01D000F05EFA1C4B1B682E
:102880007B607B68002B10D000F048F80346002BDB
:1028900002D0164B01221A607B68013B7B607B688B
:1028A000002BF1D1124B00221A60104B1B68002B39
:1028B00009D00123BB600F4B4FF080521A60BFF369
:1028C0004F8FBFF36F8FFFF72DFCBB681846103793
:1028D000BD4680BD24870020FC860020BC860020E9
:1028E00004870020288600202486002010870020EE
:1028F0000C87002004ED00E080B582B000AFFFF748
:10290000C1FC00237B60044B1B683B603B6818469E
:102910000837BD4680BD00BF0087002080B586B067
:1029200000AF00237B61504B1B68002B40F092806E
:102930004E4B1B6801333B614C4A3B6913603B695A
:10294000002B20D14A4B1B681B68002B0AD04FF08C
:10295000500383F31188BFF36F8FBFF34F8F3B603A
:1029600000BFFEE7424B1B68FB60424B1B68404ABE
:102970001360404AFB6813603F4B1B6801333E4ABB
:10298000136000F0D9F93D4B1B683A699A424CD369
:10299000374B1B681B68002B04D1384B4FF0FF32BC
:1029A0001A6042E0324B1B68DB68DB68BB60BB68C7
:1029B0005B687B603A697B689A4203D22F4A7B68E6
:1029C000136032E0BB6804331846FFF7ECFCBB68C9
:1029D0009B6A002B04D0BB6818331846FFF7E3FC52
:1029E000BB681846FEF728FDBB68DB6A01229A40E7
:1029F000234B1B681343224A1360BB68DA6A1346F1
:102A00009B0013449B001F4A1A44BB6804331946B9
:102A10001046FFF7A4FCBB68DA6A1B4B1B68DB6A35
:102A20009A42B5D301237B61B2E7174B1B68DA6A80
:102A3000144913469B0013449B000B441B68012B55
:102A400001D901237B61114B1B68002B07D00123A7
:102A50007B6104E00E4B1B6801330D4A13607B69F8
:102A600018461837BD4680BD248700200087002007
:102A7000B4860020B8860020148700201C87002020
:102A8000048700202886002024860020108700204C
:102A90000C87002080B586B000AF384B1B68002B38
:102AA00003D0374B01221A6064E0354B00221A60D4
:102AB000344B00221A60334B1A68334B1B689A421E
:102AC00009D9324B1B68D96D2E4A10682E4A1268FC
:102AD000821A0A44DA652B4B1B682B4A13602C4B75
:102AE0001B68FB60FB68B3FA83F3FB72FB7AC3F1EC
:102AF0001F037B6127497A6913469B0013449B009F
:102B00000B441B68002B0AD14FF0500383F311884C
:102B1000BFF36F8FBFF34F8F7B6000BFFEE77A6913
:102B200013469B0013449B001A4A13443B613B69C4
:102B30005B685A683B695A603B695A683B6908336D
:102B40009A4204D13B695B685A683B695A603B69A9
:102B50005B68DB680D4A13600C4B1A680E4B1B68F0
:102B60009A4202D1FEF7C4FB04E0084B1B681846EA
:102B7000FEF71EFC00BF1837BD4680BD248700202D
:102B8000108700202C870020288700202486002022
:102B900004870020288600202087002080B582B08E
:102BA00000AF786000F052F8064B1B68012BF9D992
:102BB000054B4FF080521A60BFF34F8FBFF36F8FFA
:102BC000F0E700BF2886002004ED00E080B582B069
:102BD00000AF00237B600CE07A6813469B0013442F
:102BE0009B00124A13441846FFF78CFB7B680133A5
:102BF0007B607B68042BEFD90D48FFF783FB0D4802
:102C0000FFF780FB0C48FFF77DFB0C48FFF77AFBD2
:102C10000B48FFF777FB0B4B054A1A600A4B054A36
:102C20001A6000BF0837BD4680BD00BF288600205F
:102C30008C860020A0860020BC860020D086002044
:102C4000E8860020B4860020B886002080B582B0D7
:102C500000AF19E0FFF736FA104BDB68DB687B60EA
:102C60007B6804331846FFF79EFB0D4B1B68013B46
:102C70000B4A13600B4B1B68013B0A4A1360FFF7BA
:102C800051FA786800F048F8064B1B68002BE1D138
:102C900000BF00BF0837BD4680BD00BFD086002002
:102CA000FC860020E486002080B485B000AF786008
:102CB0000023FB6005E07B6801337B60FB68013328
:102CC000FB607B681B78A52BF5D0FB689B08FB603D
:102CD000FB689BB218461437BD465DF8047B70470D
:102CE00080B586B000AF78607B68002B02D1094BBD
:102CF0001B6800E07B687B617B691B6B3B6138690B
:102D0000FFF7D2FF0346FB60FB6818461837BD4645
:102D100080BD00BF2486002080B582B000AF7860FF
:102D20007B681B6B1846FEF771FF7868FEF76EFF35
:102D300000BF0837BD4680BD80B483B000AF0C4BE8
:102D40001B681B68002B04D10A4B4FF0FF321A603E
:102D500008E0074B1B68DB68DB687B607B685B68AF
:102D6000044A136000BF0C37BD465DF8047B704712
:102D7000B48600201C87002080B400AFFEE780B43A
:102D800000AFFEE780B400AFFEE780B400AFFEE71F
:102D900080B500AF024800F069FE00BF80BD00BFF3
:102DA0006C88002080B500AFFEF728FA4FF4005081
:102DB00000F0DEFCFEF722FA00BF80BD80B582B0D5
:102DC00002AF0D4B1B680C4A43F001031360FEF782
:102DD0003DFEFDF74BFF00F046F8084B0193022340
:102DE000009300234FF4807205490648FFF705FB66
:102DF000FFF77CFCFEE700BF001000E0C08700206A
:102E000014590008092E000880B582B000AF786020
:102E10000E4B1B78012B08D10D48FEF72DFC01222B
:102E200080210C4800F08CFC07E00B48FEF724FCE6
:102E300000228021074800F083FC084B4FF08052AD
:102E40001A60BFF34F8FBFF36F8FE1E7BC8700209D
:102E500020590008000400482C59000804ED00E047
:102E600080B400AFFEE780B500AF00F0BFF900F01E
:102E70002FF800F081F800BF80BD80B582B000AFB0
:102E800078607B681B68B3F1804F01D100F0C6F910
:102E900000BF0837BD4680BD80B483B000AF034695
:102EA000FB80FB88B3F5005F09D1084B1B78002B32
:102EB0000CBF01230023DBB21A46044B1A7000BF7B
:102EC0000C37BD465DF8047B704700BFBC8700200F
:102ED00080B58EB000AF244BDB6C234A43F0400337
:102EE000D364214BDB6C03F04003FB60FB681E4B9B
:102EF000DB6C1D4A43F00403D3641B4BDB6C03F013
:102F00000403BB60BB68184BDB6C174A43F0020339
:102F1000D364154BDB6C03F002037B607B684FF4DA
:102F200000537B62114BBB620023FB6207F1240359
:102F300019460F4800F072FA282000F061FA0022CA
:102F40000F21282000F040FA80233B6101237B61A0
:102F50000023BB6107F110031946064800F05EFA32
:102F600000BF3837BD4680BD001002400000211070
:102F7000000800480004004880B500AF154B164A11
:102F80001A60144B154A5A60124B00229A60114B7A
:102F90000022DA600F4B00221A610E4B0C225A619C
:102FA0000C4B00229A610B4B00221A62094B002243
:102FB0005A62084B00229A62064B00225A66054864
:102FC00000F054FF0346002B01D0FFF749FF00BF7C
:102FD00080BD00BF30870020008000402433030004
:102FE00080B500AF032000F0E4F90D4B5B6A0C4A9A
:102FF00043F4E0235362002200216FF00B0000F045
:10300000E3F9002200216FF00A0000F0DDF9002250
:1030100000216FF0090000F0D7F900BF80BD00BFAC
:1030200000ED00E080B58AB000AF78607B681B6877
:10303000244A934242D1244B9B6D234A43F0805350
:103040009365214B9B6D03F080533B613B6900F01E
:10305000A7FB1D4BDB6D1C4A43F00103D3651A4BE4
:10306000DB6D03F00103FB60FB68174BDB6C164A5A
:1030700043F04003D364144BDB6C03F04003BB60AC
:10308000BB684FF4C0737B610223BB6103233B62C7
:1030900008237B6207F1140319460C4800F0BEF9BF
:1030A00007F114031946094800F0B8F9462000F06A
:1030B000A7F900220F21462000F086F900BF28372B
:1030C000BD4680BD0080004000100240001800484E
:1030D00080B58CB000AF78600023FB620023BB6238
:1030E000002279681C2000F06FF91C2000F088F99C
:1030F000204B9B6D1F4A43F0010393651D4B9B6D55
:1031000003F00103FB60FB6807F1100207F11403F1
:103110001146184600F018FC00F0EAFB03465B007D
:10312000FB62FB6A144AA2FB03239B0C013BBB62BC
:10313000124B4FF080421A60104B40F2E732DA60D7
:103140000E4ABB6A53600D4B00221A610B4B0022E2
:103150009A600A4800F02AFC0346002B04D1074875
:1031600000F05AFC034600E0012318463037BD4604
:1031700080BD00BF0010024083DE1B436C8800202E
:1031800080B400AF174BD3F88830164A43F470036D
:10319000C2F88830144B1B68134A43F001031360D4
:1031A000114B00229A60104B1B680F4A23F0A85362
:1031B00023F4102313600C4B4FF48052DA600A4B57
:1031C0001B68094A23F480231360074B00229A618D
:1031D000044B4FF000629A6000BFBD465DF8047B6F
:1031E000704700BF00ED00E00010024080B582B0E3
:1031F00000AF0023FB71032000F0DBF80020FFF795
:1032000067FF0346002B02D00123FB7101E0FFF7AB
:10321000E7FEFB7918460837BD4680BD80B400AF95
:10322000054B1A68054B1B681344034A136000BF23
:10323000BD465DF8047B7047AC8800200800002084
:1032400080B400AF034B1B681846BD465DF8047B95
:10325000704700BFAC88002080B485B000AF7860B4
:103260007B6803F00703FB600C4BDB68BB60BA684C
:103270004FF6FF031340BB60FB681A02BB681343A1
:1032800043F0BF6343F40033BB60044ABB68D360C0
:1032900000BF1437BD465DF8047B704700ED00E0C9
:1032A00080B400AF044BDB681B0A03F00703184629
:1032B000BD465DF8047B704700ED00E080B483B04C
:1032C00000AF0346FB7197F90730002B0BDBFB794E
:1032D00003F01F02074997F907305B09012000FA44
:1032E00002F241F8232000BF0C37BD465DF8047B95
:1032F000704700BF00E100E080B483B000AF034638
:103300003960FB7197F90730002B0ADB3B68DAB2B2
:103310000C4997F907301201D2B20B4483F800230D
:103320000AE03B68DAB20849FB7903F00F03043B7B
:103330001201D2B20B441A7600BF0C37BD465DF8BD
:10334000047B704700E100E000ED00E080B489B04C
:1033500000AFF860B9607A60FB6803F00703FB61B7
:10336000FB69C3F10703042B28BF0423BB61FB697E
:103370000433062B02D9FB69033B00E000237B6189
:103380004FF0FF32BB6902FA03F3DA43BB681A401D
:103390007B699A404FF0FF317B6901FA03F3D9430F
:1033A0007B680B40134318462437BD465DF8047B09
:1033B000704780B582B000AF78607868FFF74CFF47
:1033C00000BF0837BD4680BD80B586B000AF03465C
:1033D000B9607A60FB7300237B61FFF761FF78615E
:1033E0007A68B9687869FFF7B1FF024697F90F303C
:1033F00011461846FFF780FF00BF1837BD4680BD55
:1034000080B582B000AF0346FB7197F907301846CC
:10341000FFF754FF00BF0837BD4680BD80B487B0BA
:1034200000AF7860396000237B6166E13B681A6811
:1034300001217B6901FA03F31340FB60FB68002B59
:1034400000F058813B685B68022B03D03B685B68E7
:10345000122B23D17B69DA087B68083253F82230BB
:103460003B617B6903F007039B000F2202FA03F321
:10347000DB433A6913403B613B681A697B6903F09F
:1034800007039B0002FA03F33A6913433B617B692C
:10349000DA087B680832396943F822107B681B68B8
:1034A0003B617B695B00032202FA03F3DB433A6969
:1034B00013403B613B685B6803F003027B695B0080
:1034C00002FA03F33A6913433B617B683A691A6075
:1034D0003B685B68012B0BD03B685B68022B07D015
:1034E0003B685B68112B03D03B685B68122B30D1C3
:1034F0007B689B683B617B695B00032202FA03F3F4
:10350000DB433A6913403B613B68DA687B695B00E7
:1035100002FA03F33A6913433B617B683A699A60A4
:103520007B685B683B6101227B6902FA03F3DB4342
:103530003A6913403B613B685B681B0903F0010279
:103540007B6902FA03F33A6913433B617B683A698A
:103550005A607B68DB683B617B695B00032202FA8F
:1035600003F3DB433A6913403B613B689A687B692C
:103570005B0002FA03F33A6913433B617B683A69E3
:10358000DA603B685B6803F08053002B00F0B28088
:10359000614B1B6E604A43F0010313665E4B1B6E6A
:1035A00003F00103BB60BB685C4A7B699B08023384
:1035B00052F823303B617B6903F003039B000F2229
:1035C00002FA03F3DB433A6913403B617B68B3F1D2
:1035D000904F2BD07B68524A934225D07B68514A4A
:1035E00093421FD07B68504A934219D07B684F4A60
:1035F000934213D07B684E4A93420DD07B684D4A6C
:10360000934207D07B684C4A934201D107230EE0D6
:1036100008230CE006230AE0052308E0042306E063
:10362000032304E0022302E0012300E000237A697F
:1036300002F00302920093403A6913433B61374919
:103640007B699B0802333A6941F823203B4B1B6896
:103650003B61FB68DB433A6913403B613B685B6855
:1036600003F48033002B03D03A69FB6813433B61BA
:10367000324A3B691360314B5B683B61FB68DB435B
:103680003A6913403B613B685B6803F40033002BED
:1036900003D03A69FB6813433B61284A3B69536096
:1036A000264B9B683B61FB68DB433A6913403B61F7
:1036B0003B685B6803F48013002B03D03A69FB6816
:1036C00013433B611D4A3B6993601C4BDB683B61C4
:1036D000FB68DB433A6913403B613B685B6803F47A
:1036E0000013002B03D03A69FB6813433B61134A74
:1036F0003B69D3607B6901337B613B681A687B69F6
:1037000022FA03F3002B7FF491AE00BF00BF1C37F9
:10371000BD465DF8047B7047001002400000014088
:103720000004004800080048000C00480010004851
:103730000014004800180048001C00480004014024
:1037400080B483B000AF78600B467B8013467B70FB
:103750007B78002B03D07A887B689A6102E07A88B4
:103760007B689A6200BF0C37BD465DF8047B7047EA
:1037700080B582B000AF0346FB80084B5A69FB88D6
:103780001340002B06D0054AFB885361FB8818467E
:10379000FFF782FB00BF0837BD4680BD0004014033
:1037A00080B400AF054B5B68044A43F40073536078
:1037B00000BFBD465DF8047B704700BF007000404D
:1037C00080B489B000AF0023FB610023BB613E4B96
:1037D0009B6803F00C033B613B4BDB6803F0030386
:1037E000FB603B69002B05D03B690C2B21D1FB68AA
:1037F000012B1ED1344B1B6803F00803002B07D1AB
:10380000314BD3F894301B0A03F00F03FB6105E042
:103810002D4B1B681B0903F00F03FB612B4AFB694F
:1038200052F82330FB613B69002B0DD1FB69BB6172
:103830000AE03B69042B02D1254BBB6104E03B69E4
:10384000082B01D1234BBB613B690C2B34D11E4BA0
:10385000DB6803F00303BB60BB68022B03D0BB68CB
:10386000032B03D005E01A4B7B6105E0194B7B610C
:1038700002E0FB697B6100BF134BDB681B0903F0AF
:103880000F0301337B60104BDB681B0A03F07F03DF
:103890007A6902FB03F27B68B2FBF3F37B610A4BAC
:1038A000DB685B0E03F0030301335B003B607A6966
:1038B0003B68B2FBF3F3BB61BB6918462437BD46D6
:1038C0005DF8047B704700BF0010024058590008A3
:1038D0000024F40000127A0080B400AF034B1B6890
:1038E0001846BD465DF8047B704700BF0400002009
:1038F00080B500AFFFF7F0FF0246064B9B681B0A3E
:1039000003F007030449CB5C03F01F0322FA03F31F
:10391000184680BD001002405059000880B500AF25
:10392000FFF7DAFF0246064B9B68DB0A03F007034A
:103930000449CB5C03F01F0322FA03F3184680BD51
:10394000001002405059000880B483B000AF786086
:1039500039607B680F221A60124B9B6803F00302E8
:103960007B685A600F4B9B6803F0F0027B689A609B
:103970000C4B9B6803F4E0627B68DA60094B9B6840
:10398000DB0803F4E0627B681A61074B1B6803F0F5
:103990000F023B681A6000BF0C37BD465DF8047B20
:1039A000704700BF001002400020024080B582B086
:1039B00000AF78607B68002B01D101231DE07B689C
:1039C00093F83D30DBB2002B06D17B68002283F8F0
:1039D0003C20786800F015F87B68022283F83D20CF
:1039E0007B681A687B6804331946104600F086F934
:1039F0007B68012283F83D20002318460837BD4626
:103A000080BD80B483B000AF786000BF0C37BD4686
:103A10005DF8047B7047000080B485B000AF78602B
:103A20007B681B68DA687B681B6842F00102DA6019
:103A30007B681B689A680C4B1340FB60FB68062B85
:103A40000BD0FB68B3F5803F07D07B681B681A6812
:103A50007B681B6842F001021A6000231846143785
:103A6000BD465DF8047B70470700010080B582B059
:103A700000AF78607B681B681B6903F00203022BB0
:103A800022D17B681B68DB6803F00203022B1BD189
:103A90007B681B686FF002021A617B6801221A774B
:103AA0007B681B689B6903F00303002B03D07868D5
:103AB00000F005F905E0786800F0F7F8786800F0A4
:103AC00008F97B6800221A777B681B681B6903F082
:103AD0000403042B22D17B681B68DB6803F004031A
:103AE000042B1BD17B681B686FF004021A617B6892
:103AF00002221A777B681B689B6903F44073002BD2
:103B000003D0786800F0DBF805E0786800F0CDF8C5
:103B1000786800F0DEF87B6800221A777B681B6803
:103B20001B6903F00803082B22D17B681B68DB6844
:103B300003F00803082B1BD17B681B686FF0080299
:103B40001A617B6804221A777B681B68DB6903F0C3
:103B50000303002B03D0786800F0B1F805E0786823
:103B600000F0A3F8786800F0B4F87B6800221A77B8
:103B70007B681B681B6903F01003102B22D17B6844
:103B80001B68DB6803F01003102B1BD17B681B68DC
:103B90006FF010021A617B6808221A777B681B6835
:103BA000DB6903F44073002B03D0786800F087F8DA
:103BB00005E0786800F079F8786800F08AF87B68AA
:103BC00000221A777B681B681B6903F00103012B35
:103BD0000ED17B681B68DB6803F00103012B07D162
:103BE0007B681B686FF001021A617868FFF745F97E
:103BF0007B681B681B6903F08003802B0ED17B68F8
:103C00001B68DB6803F08003802B07D17B681B688F
:103C10006FF080021A61786800F014F97B681B6805
:103C20001B6903F48073B3F5807F0ED17B681B683A
:103C3000DB6803F08003802B07D17B681B686FF47F
:103C400080721A61786800F007F97B681B681B694D
:103C500003F04003402B0ED17B681B68DB6803F048
:103C60004003402B07D17B681B686FF040021A614C
:103C7000786800F038F87B681B681B6903F0200344
:103C8000202B0ED17B681B68DB6803F02003202B00
:103C900007D17B681B686FF020021A61786800F01A
:103CA000C7F800BF0837BD4680BD80B483B000AF01
:103CB000786000BF0C37BD465DF8047B704780B468
:103CC00083B000AF786000BF0C37BD465DF8047B61
:103CD000704780B483B000AF786000BF0C37BD463A
:103CE0005DF8047B704780B483B000AF786000BF9C
:103CF0000C37BD465DF8047B7047000080B485B08A
:103D000000AF786039607B681B68FB607B68404A65
:103D1000934213D07B68B3F1804F0FD07B683D4A4C
:103D200093420BD07B683C4A934207D07B683B4A66
:103D3000934203D07B683A4A934208D1FB6823F050
:103D40007003FB603B685B68FA681343FB607B6849
:103D50002F4A93421FD07B68B3F1804F1BD07B6802
:103D60002C4A934217D07B682B4A934213D07B682E
:103D70002A4A93420FD07B68294A93420BD07B6832
:103D8000284A934207D07B68274A934203D07B6836
:103D9000264A934208D1FB6823F44073FB603B68DA
:103DA000DB68FA681343FB60FB6823F080023B6822
:103DB0005B691343FB607B68FA681A603B689A682A
:103DC0007B68DA623B681A687B689A627B68104A93
:103DD00093420FD07B68124A93420BD07B68114A02
:103DE000934207D07B68104A934203D07B680F4A06
:103DF000934203D13B681A697B681A637B6801228E
:103E00005A6100BF1437BD465DF8047B704700BFA0
:103E1000002C01400004004000080040000C00405D
:103E2000003401400040014000440140004801408E
:103E300080B483B000AF786000BF0C37BD465DF83A
:103E4000047B704780B483B000AF786000BF0C374C
:103E5000BD465DF8047B704780B483B000AF7860E6
:103E600000BF0C37BD465DF8047B704780B582B05B
:103E700000AF78607B68002B01D1012342E07B68B2
:103E8000D3F88030002B06D17B68002283F87C2099
:103E90007868FFF7C7F87B682422C3F880207B6826
:103EA0001B681A687B681B6822F001021A60786838
:103EB00000F02CF80346012B01D1012322E07B689E
:103EC0009B6A002B02D0786801F0C8F97B681B68F8
:103ED0005A687B681B6822F490425A607B681B68B2
:103EE0009A687B681B6822F02A029A607B681B68CC
:103EF0001A687B681B6842F001021A60786801F05A
:103F00004FFA034618460837BD4680BD2DE9B04F2D
:103F10008AB000AFF8600023FB610023FB7600232A
:103F20007B61FB689A68FB681B691A43FB685B69E5
:103F30001A43FB68DB6913437B62FB685B6E7A6A3A
:103F400013437B62FB681B681A68AA4B1340FA682C
:103F50001268796A0B431360FB681B685B6823F483
:103F60004051FB68DA68FB681B680A435A60FB68CB
:103F70009B697B62FB681B689F4A934204D0FB6885
:103F80001B6A7A6A13437B62FB681B689B6823F099
:103F90006E4323F43063FA681268796A0B439360C6
:103FA000FB681B68DB6A23F00F01FB685A6AFB6839
:103FB0001B680A43DA62FB681B68904A934225D16A
:103FC0008F4BD3F8883003F00303032B1AD801A2D8
:103FD00052F823F0E53F0008F53F0008ED3F0008E8
:103FE000FD3F0008012387F8233016E1022387F8FC
:103FF000233012E1042387F823300EE1082387F8E9
:1040000023300AE1102387F8233006E1FB681B68A0
:104010007C4A934238D17A4BD3F8883003F00C03B2
:104020000C2B2DD801A252F823F000BF61400008EC
:10403000814000088140000881400008714000086C
:104040008140000881400008814000086940000864
:104050008140000881400008814000087940000844
:10406000002387F82330D8E0022387F82330D4E0F8
:10407000042387F82330D0E0082387F82330CCE0EE
:10408000102387F82330C8E0FB681B685E4A934220
:1040900025D15B4BD3F8883003F03003302B16D09A
:1040A000302B18D8202B0AD0202B14D8002B02D06C
:1040B000102B08D00FE0002387F82330ADE0022357
:1040C00087F82330A9E0042387F82330A5E00823EC
:1040D00087F82330A1E0102387F823309DE0FB68A8
:1040E0001B684A4A934225D1454BD3F8883003F0E8
:1040F000C003C02B16D0C02B18D8802B0AD0802B21
:1041000014D8002B02D0402B08D00FE0002387F8F2
:10411000233082E0022387F823307EE0042387F8EF
:1041200023307AE0082387F8233076E0102387F8DD
:10413000233072E0FB681B68354A93422AD1304B2A
:10414000D3F8883003F44073B3F5407F1AD0B3F549
:10415000407F1BD8B3F5007F0CD0B3F5007F15D896
:10416000002B03D0B3F5807F08D00FE0002387F841
:10417000233052E0022387F823304EE0042387F8EF
:1041800023304AE0082387F8233046E0102387F8DD
:10419000233042E0FB681B68174A93423AD1184B20
:1041A000D3F8883003F44063B3F5406F1AD0B3F509
:1041B000406F1BD8B3F5006F0CD0B3F5006F15D866
:1041C000002B03D0B3F5806F08D00FE0002387F8F1
:1041D000233022E0022387F823301EE0042387F8EF
:1041E00023301AE0082387F8233016E0102387F8DD
:1041F000233012E0F369FFCF008000400038014017
:10420000001002400044004000480040004C0040C4
:1042100000500040102387F82330FB681B68884A51
:10422000934240F0158497F82330082B00F25C810C
:1042300001A252F823F000BF5D420008E9440008E3
:10424000FF420008E94400089D430008E9440008D3
:10425000E9440008E944000849440008FFF748FB26
:104260000246FB685B6A002B44D0FB685B6A012B4B
:104270003ED0FB685B6A022B38D0FB685B6A032B7D
:1042800032D0FB685B6A042B2CD0FB685B6A052B81
:1042900026D0FB685B6A062B20D0FB685B6A072B85
:1042A0001AD0FB685B6A082B14D0FB685B6A092B89
:1042B0000ED0FB685B6A0A2B08D0FB685B6A0B2B8D
:1042C00002D14FF4807316E0012314E0802312E042
:1042D000402310E020230EE010230CE00C230AE022
:1042E0000A2308E0082306E0062304E0042302E092
:1042F000022300E00123B2FBF3F37B61F7E0FB68EC
:104300005B6A002B44D0FB685B6A012B3ED0FB68E4
:104310005B6A022B38D0FB685B6A032B32D0FB68E8
:104320005B6A042B2CD0FB685B6A052B26D0FB68EC
:104330005B6A062B20D0FB685B6A072B1AD0FB68F0
:104340005B6A082B14D0FB685B6A092B0ED0FB68F4
:104350005B6A0A2B08D0FB685B6A0B2B02D14FF417
:10436000807316E0012314E0802312E0402310E064
:1043700020230EE010230CE00C230AE00A2308E0BF
:10438000082306E0062304E0042302E0022300E001
:1043900001232C4AB2FBF3F37B61A8E0FFF710FA8C
:1043A0000246FB685B6A002B44D0FB685B6A012B0A
:1043B0003ED0FB685B6A022B38D0FB685B6A032B3C
:1043C00032D0FB685B6A042B2CD0FB685B6A052B40
:1043D00026D0FB685B6A062B20D0FB685B6A072B44
:1043E0001AD0FB685B6A082B14D0FB685B6A092B48
:1043F0000ED0FB685B6A0A2B08D0FB685B6A0B2B4C
:1044000002D14FF4807316E0012314E0802312E000
:10441000402310E020230EE010230CE00C230AE0E0
:104420000A2308E0082306E0062304E0042302E050
:10443000022300E00123B2FBF3F37B6157E000BFEE
:10444000008000400024F400FB685B6A002B44D02D
:10445000FB685B6A012B3ED0FB685B6A022B38D09D
:10446000FB685B6A032B32D0FB685B6A042B2CD0A1
:10447000FB685B6A052B26D0FB685B6A062B20D0A5
:10448000FB685B6A072B1AD0FB685B6A082B14D0A9
:10449000FB685B6A092B0ED0FB685B6A0A2B08D0AD
:1044A000FB685B6A0B2B02D14FF4807316E001238B
:1044B00014E0802312E0402310E020230EE01023BC
:1044C0000CE00C230AE00A2308E0082306E0062398
:1044D00004E0042302E0022300E001234FF4004241
:1044E000B2FBF3F37B6102E00123FB7600BF7B6943
:1044F000002B00F09D86FB685A6813465B0013444E
:104500007A699A4205D3FB685B681B037A699A4211
:1045100003D90123FB7600F08BBE97F82330082BDC
:1045200000F2808201A252F823F000BF514500083A
:10453000254A000889460008254A0008BB470008AC
:10454000254A0008254A0008254A0008F3480008C3
:10455000FFF7CEF9034618464FF00001FB685B6A8F
:10456000002B67D0FB685B6A012B5ED0FB685B6A3F
:10457000022B55D0FB685B6A032B4CD0FB685B6A4F
:10458000042B43D0FB685B6A052B3AD0FB685B6A5F
:10459000062B31D0FB685B6A072B28D0FB685B6A6F
:1045A000082B1FD0FB685B6A092B16D0FB685B6A7F
:1045B0000A2B0DD0FB685B6A0B2B04D14FF4807281
:1045C0004FF000033AE04FF001024FF0000335E0F6
:1045D0004FF080024FF0000330E04FF040024FF008
:1045E00000032BE04FF020024FF0000326E04FF0D5
:1045F00010024FF0000321E04FF00C024FF00003D7
:104600001CE04FF00A024FF0000317E04FF00802E1
:104610004FF0000312E04FF006024FF000030DE0F0
:104620004FF004024FF0000308E04FF002024FF099
:10463000000303E04FF001024FF00003FBF706FE1A
:1046400002460B46104619464FF000024FF0000399
:104650000B0243EA10630202F968496849080846F8
:104660004FF0000114183C604B417B60FB685B68B5
:104670001A464FF00003D7E90001FBF7E7FD0246B9
:104680000B461346FB61D0E1FB685B6A002B67D0E9
:10469000FB685B6A012B5ED0FB685B6A022B55D01E
:1046A000FB685B6A032B4CD0FB685B6A042B43D02E
:1046B000FB685B6A052B3AD0FB685B6A062B31D03E
:1046C000FB685B6A072B28D0FB685B6A082B1FD04E
:1046D000FB685B6A092B16D0FB685B6A0A2B0DD05E
:1046E000FB685B6A0B2B04D14FF480724FF0000320
:1046F0003AE04FF001024FF0000335E04FF0800246
:104700004FF0000330E04FF040024FF000032BE089
:104710004FF020024FF0000326E04FF010024FF060
:10472000000321E04FF00C024FF000031CE04FF0BB
:104730000A024FF0000317E04FF008024FF00003A9
:1047400012E04FF006024FF000030DE04FF00402BC
:104750004FF0000308E04FF002024FF0000303E0C7
:104760004FF001024FF00003B8484FF00001FBF793
:104770006DFD02460B46104619464FF000024FF001
:1047800000030B0243EA10630202F9684968490812
:1047900008464FF0000112EB000A43EB010BFB68E7
:1047A0005B681A464FF0000350465946FBF74EFD32
:1047B00002460B461346FB6137E1FFF701F803465B
:1047C00018464FF00001FB685B6A002B67D0FB685E
:1047D0005B6A012B5ED0FB685B6A022B55D0FB68DD
:1047E0005B6A032B4CD0FB685B6A042B43D0FB68ED
:1047F0005B6A052B3AD0FB685B6A062B31D0FB68FD
:104800005B6A072B28D0FB685B6A082B1FD0FB680C
:104810005B6A092B16D0FB685B6A0A2B0DD0FB681C
:104820005B6A0B2B04D14FF480724FF000033AE027
:104830004FF001024FF0000335E04FF080024FF0DF
:10484000000330E04FF040024FF000032BE04FF048
:1048500020024FF0000326E04FF010024FF000035B
:1048600021E04FF00C024FF000031CE04FF00A0271
:104870004FF0000317E04FF008024FF0000312E082
:104880004FF006024FF000030DE04FF004024FF02E
:10489000000308E04FF002024FF0000303E04FF086
:1048A00001024FF00003FBF7D1FC02460B46104615
:1048B00019464FF000024FF000030B0243EA106369
:1048C0000202F9684968490808464FF0000112EBF6
:1048D000000843EB0109FB685B681A464FF00003D0
:1048E00040464946FBF7B2FC02460B461346FB61C5
:1048F0009BE0FB685B6A002B67D0FB685B6A012B5F
:104900005ED0FB685B6A022B55D0FB685B6A032BA9
:104910004CD0FB685B6A042B43D0FB685B6A052BB9
:104920003AD0FB685B6A062B31D0FB685B6A072BC9
:1049300028D0FB685B6A082B1FD0FB685B6A092BD9
:1049400016D0FB685B6A0A2B0DD0FB685B6A0B2BE9
:1049500004D14FF480724FF000033AE04FF00102AF
:104960004FF0000335E04FF080024FF0000330E0DD
:104970004FF040024FF000032BE04FF020024FF0C9
:10498000000326E04FF010024FF0000321E04FF04B
:104990000C024FF000031CE04FF00A024FF000033E
:1049A00017E04FF008024FF0000312E04FF006024C
:1049B0004FF000030DE04FF004024FF0000308E059
:1049C0004FF002024FF0000303E04FF001024FF0FE
:1049D00000034FF400404FF00001FBF737FC0246A4
:1049E0000B46104619464FF000024FF000030B0231
:1049F00043EA10630202F9684968490808464FF023
:104A00000001141843EB0105FB685B681A464FF080
:104A1000000320462946FBF719FC02460B461346C5
:104A2000FB6102E00123FB7600BFFB69B3F5407F29
:104A300008D3FB69B3F5801F04D2FB681B68FA69D1
:104A4000DA60F5E30123FB76F2E300BF0024F40013
:104A5000FB68DB69B3F5004F40F0FE8197F8233027
:104A6000082B00F2D98101A252F823F0914A0008E4
:104A7000474B0008FD4B0008194E0008AF4C0008DA
:104A8000194E0008194E0008194E0008654D00081F
:104A9000FEF72EFF0246FB685B6A002B44D0FB68E2
:104AA0005B6A012B3ED0FB685B6A022B38D0FB6847
:104AB0005B6A032B32D0FB685B6A042B2CD0FB684B
:104AC0005B6A052B26D0FB685B6A062B20D0FB684F
:104AD0005B6A072B1AD0FB685B6A082B14D0FB6853
:104AE0005B6A092B0ED0FB685B6A0A2B08D0FB6857
:104AF0005B6A0B2B02D14FF4807316E0012314E0A4
:104B0000802312E0402310E020230EE010230CE06D
:104B10000C230AE00A2308E0082306E0062304E049
:104B2000042302E0022300E00123B2FBF3F35A0066
:104B3000FB685B685B081A44FB685B68B2FBF3F3D5
:104B40009BB2FB616BE1FEF7E9FE0246FB685B6A24
:104B5000002B44D0FB685B6A012B3ED0FB685B6A8C
:104B6000022B38D0FB685B6A032B32D0FB685B6A90
:104B7000042B2CD0FB685B6A052B26D0FB685B6A94
:104B8000062B20D0FB685B6A072B1AD0FB685B6A98
:104B9000082B14D0FB685B6A092B0ED0FB685B6A9C
:104BA0000A2B08D0FB685B6A0B2B02D14FF4807391
:104BB00016E0012314E0802312E0402310E02023BC
:104BC0000EE010230CE00C230AE00A2308E008237F
:104BD00006E0062304E0042302E0022300E00123B0
:104BE000B2FBF3F35A00FB685B685B081A44FB688E
:104BF0005B68B2FBF3F39BB2FB6110E1FB685B6A9D
:104C0000002B44D0FB685B6A012B3ED0FB685B6ADB
:104C1000022B38D0FB685B6A032B32D0FB685B6ADF
:104C2000042B2CD0FB685B6A052B26D0FB685B6AE3
:104C3000062B20D0FB685B6A072B1AD0FB685B6AE7
:104C4000082B14D0FB685B6A092B0ED0FB685B6AEB
:104C50000A2B08D0FB685B6A0B2B02D14FF48073E0
:104C600016E0012314E0802312E0402310E020230B
:104C70000EE010230CE00C230AE00A2308E00823CE
:104C800006E0062304E0042302E0022300E00123FF
:104C9000A14AB2FBF3F35A00FB685B685B081A4455
:104CA000FB685B68B2FBF3F39BB2FB61B7E0FEF716
:104CB00087FD0246FB685B6A002B44D0FB685B6A99
:104CC000012B3ED0FB685B6A022B38D0FB685B6A25
:104CD000032B32D0FB685B6A042B2CD0FB685B6A29
:104CE000052B26D0FB685B6A062B20D0FB685B6A2D
:104CF000072B1AD0FB685B6A082B14D0FB685B6A31
:104D0000092B0ED0FB685B6A0A2B08D0FB685B6A34
:104D10000B2B02D14FF4807316E0012314E08023A3
:104D200012E0402310E020230EE010230CE00C23BF
:104D30000AE00A2308E0082306E0062304E004232F
:104D400002E0022300E00123B2FBF3F35A00FB6808
:104D50005B685B081A44FB685B68B2FBF3F39BB2C9
:104D6000FB615CE0FB685B6A002B44D0FB685B6A1C
:104D7000012B3ED0FB685B6A022B38D0FB685B6A74
:104D8000032B32D0FB685B6A042B2CD0FB685B6A78
:104D9000052B26D0FB685B6A062B20D0FB685B6A7C
:104DA000072B1AD0FB685B6A082B14D0FB685B6A80
:104DB000092B0ED0FB685B6A0A2B08D0FB685B6A84
:104DC0000B2B02D14FF4807316E0012314E08023F3
:104DD00012E0402310E020230EE010230CE00C230F
:104DE0000AE00A2308E0082306E0062304E004237F
:104DF00002E0022300E001234FF40042B2FBF3F390
:104E00005A00FB685B685B081A44FB685B68B2FB8E
:104E1000F3F39BB2FB6102E00123FB7600BFFB6969
:104E20000F2B16D9FB69B3F5803F12D2FB699BB2F9
:104E300023F00F037B82FB695B089BB203F007033F
:104E40009AB27B8A13437B82FB681B687A8ADA609A
:104E5000EEE10123FB76EBE197F82330082B00F21B
:104E6000D68101A252F823F08D4E0008454F00086C
:104E7000F94F00080F520008A95000080F5200080F
:104E80000F5200080F5200085D510008FEF730FD78
:104E90000246FB685B6A002B46D0FB685B6A012B0D
:104EA00040D0FB685B6A022B3AD0FB685B6A032B3D
:104EB00034D0FB685B6A042B2CD0FB685B6A052B43
:104EC00026D0FB685B6A062B20D0FB685B6A072B49
:104ED0001AD0FB685B6A082B14D0FB685B6A092B4D
:104EE0000ED0FB685B6A0A2B08D0FB685B6A0B2B51
:104EF00002D14FF4807318E0012316E0802314E000
:104F0000402312E0202310E010230EE00C230CE0DD
:104F10000A230AE0082308E00024F400062304E042
:104F2000042302E0022300E00123B2FBF3F2FB685A
:104F30005B685B081A44FB685B68B2FBF3F39BB2E7
:104F4000FB6167E1FEF7EAFC0246FB685B6A002B47
:104F500044D0FB685B6A012B3ED0FB685B6A022B86
:104F600038D0FB685B6A032B32D0FB685B6A042B8A
:104F70002CD0FB685B6A052B26D0FB685B6A062B8E
:104F800020D0FB685B6A072B1AD0FB685B6A082B92
:104F900014D0FB685B6A092B0ED0FB685B6A0A2B96
:104FA00008D0FB685B6A0B2B02D14FF4807316E0CC
:104FB000012314E0802312E0402310E020230EE0C0
:104FC00010230CE00C230AE00A2308E0082306E083
:104FD000062304E0042302E0022300E00123B2FBE5
:104FE000F3F2FB685B685B081A44FB685B68B2FB22
:104FF000F3F39BB2FB610DE1FB685B6A002B44D0CD
:10500000FB685B6A012B3ED0FB685B6A022B38D0E1
:10501000FB685B6A032B32D0FB685B6A042B2CD0E5
:10502000FB685B6A052B26D0FB685B6A062B20D0E9
:10503000FB685B6A072B1AD0FB685B6A082B14D0ED
:10504000FB685B6A092B0ED0FB685B6A0A2B08D0F1
:10505000FB685B6A0B2B02D14FF4807316E00123CF
:1050600014E0802312E0402310E020230EE0102300
:105070000CE00C230AE00A2308E0082306E00623DC
:1050800004E0042302E0022300E00123724AB2FBA1
:10509000F3F2FB685B685B081A44FB685B68B2FB71
:1050A000F3F39BB2FB61B5E0FEF78AFB0246FB68B7
:1050B0005B6A002B44D0FB685B6A012B3ED0FB6827
:1050C0005B6A022B38D0FB685B6A032B32D0FB682B
:1050D0005B6A042B2CD0FB685B6A052B26D0FB682F
:1050E0005B6A062B20D0FB685B6A072B1AD0FB6833
:1050F0005B6A082B14D0FB685B6A092B0ED0FB6837
:105100005B6A0A2B08D0FB685B6A0B2B02D14FF459
:10511000807316E0012314E0802312E0402310E0A6
:1051200020230EE010230CE00C230AE00A2308E001
:10513000082306E0062304E0042302E0022300E043
:105140000123B2FBF3F2FB685B685B081A44FB685F
:105150005B68B2FBF3F39BB2FB615BE0FB685B6AED
:10516000002B44D0FB685B6A012B3ED0FB685B6A76
:10517000022B38D0FB685B6A032B32D0FB685B6A7A
:10518000042B2CD0FB685B6A052B26D0FB685B6A7E
:10519000062B20D0FB685B6A072B1AD0FB685B6A82
:1051A000082B14D0FB685B6A092B0ED0FB685B6A86
:1051B0000A2B08D0FB685B6A0B2B02D14FF480737B
:1051C00016E0012314E0802312E0402310E02023A6
:1051D0000EE010230CE00C230AE00A2308E0082369
:1051E00006E0062304E0042302E0022300E001239A
:1051F0004FF40042B2FBF3F2FB685B685B081A44B1
:10520000FB685B68B2FBF3F39BB2FB6102E0012336
:10521000FB7600BFFB690F2B08D9FB69B3F5803F14
:1052200004D2FB681B68FA69DA6001E00123FB76AF
:10523000FB680122A3F86A20FB680122A3F868201A
:10524000FB680022DA66FB6800221A67FB7E1846BC
:105250002837BD46BDE8B08F0024F40080B483B089
:1052600000AF78607B689B6A03F00103002B0AD0D3
:105270007B681B685B6823F400317B68DA6A7B68B3
:105280001B680A435A607B689B6A03F00203002B89
:105290000AD07B681B685B6823F480317B681A6BDB
:1052A0007B681B680A435A607B689B6A03F00403AF
:1052B000002B0AD07B681B685B6823F480217B6825
:1052C0005A6B7B681B680A435A607B689B6A03F0D1
:1052D0000803002B0AD07B681B685B6823F400413D
:1052E0007B689A6B7B681B680A435A607B689B6A81
:1052F00003F01003002B0AD07B681B689B6823F423
:1053000080517B68DA6B7B681B680A439A607B6814
:105310009B6A03F02003002B0AD07B681B689B6804
:1053200023F400517B681A6C7B681B680A439A60FF
:105330007B689B6A03F04003002B1AD07B681B68D4
:105340005B6823F480117B685A6C7B681B680A4396
:105350005A607B685B6CB3F5801F0AD17B681B6861
:105360005B6823F4C0017B689A6C7B681B680A4306
:105370005A607B689B6A03F08003002B0AD07B682D
:105380001B685B6823F400217B68DA6C7B681B6810
:105390000A435A6000BF0C37BD465DF8047B704776
:1053A00080B586B002AF78607B680022C3F88820A1
:1053B000FDF746FFF8607B681B681B6803F0080375
:1053C000082B0ED16FF07E430093FB6800224FF450
:1053D0000011786800F02CF80346002B01D003235D
:1053E00022E07B681B681B6803F00403042B0ED1CA
:1053F0006FF07E430093FB6800224FF480017868D1
:1054000000F016F80346002B01D003230CE07B6864
:105410002022C3F880207B682022C3F884207B6888
:10542000002283F87C20002318461037BD4680BD3B
:1054300080B584B000AFF860B9603B601346FB7183
:105440002CE0BB69B3F1FF3F28D0FDF7F9FE02461F
:105450003B68D31ABA699A4202D3BB69002B1DD1AB
:10546000FB681B681A68FB681B6822F4D0721A601C
:10547000FB681B689A68FB681B6822F001029A604F
:10548000FB682022C3F88020FB682022C3F8842018
:10549000FB68002283F87C2003230FE0FB681B6875
:1054A000DA69BB681340BA689A420CBF0123002333
:1054B000DBB21A46FB799A42C3D000231846103754
:1054C000BD4680BD70B50D4D0D4C641BA41000266B
:1054D000A64209D10B4D0C4C00F0A4F9641BA4109A
:1054E0000026A64205D170BD55F8043B9847013609
:1054F000EEE755F8043B98470136F2E7905900086B
:1055000090590008905900089459000830B50139A5
:105510000024A24201D1002005E0035D01340D5DAD
:10552000AB42F6D0581B30BD0A44914200F1FF3324
:1055300000D1704710B511F8014B03F8014F9142AB
:10554000F9D110BD02440346934200D1704703F8DD
:10555000011BF9E7034611F8012B03F8012B002A80
:10556000F9D170472DE9F047089E0D4604468E4656
:10557000002B40F082808A42174646D9B2FA82F266
:105580004AB1C2F1200105FA02F320FA01F1974075
:1055900041EA030E94404FEA1748230CBEFBF8FC87
:1055A000B9B208FB1CEE43EA0E430CFB01F0984233
:1055B0000AD9FB180CF1FF3580F01681984240F2B1
:1055C0001381ACF1020C3B441B1AA4B2B3FBF8F0FC
:1055D00008FB103344EA034400FB01F1A14209D95E
:1055E0003C1900F1FF3380F00181A14240F2FE80BE
:1055F00002383C44641A40EA0C4000211EB1D440F9
:105600000023C6E90043BDE8F08702B9FFDEB2FA25
:1056100082F2002A4FD1CB1B4FEA174E1FFA87F8B0
:105620000121B3FBFEFC250C0EFB1C3345EA0345B0
:1056300008FB0CF3AB4207D97D190CF1FF3002D205
:10564000AB4200F2E7808446ED1AA3B2B5FBFEF050
:105650000EFB105543EA054408FB00F8A04507D9A6
:105660003C1900F1FF3302D2A04500F2D780184662
:10567000A4EB080440EA0C40C0E78B4208D9002E96
:1056800000F0AF800021C6E900050846BDE8F087BC
:10569000B3FA83F100294BD1AB4202D3824200F22C
:1056A000B780841A65EB030301209E46002EAAD022
:1056B000C6E9004EA7E7C2F1200C01FA02F39740B9
:1056C00020FA0CF04FEA174E21FA0CFC1843BCFBF1
:1056D000FEF1050C0EFB11CC1FFA87F845EA0C45CC
:1056E00001FB08F3AB4204FA02F409D97D1901F178
:1056F000FF3C80F08B80AB4240F2888002393D4411
:10570000EB1A85B2B3FBFEF00EFB103345EA0345FE
:1057100000FB08F3AB4207D97D1900F1FF3C71D2C1
:10572000AB426FD902383D44EB1A40EA014178E7B9
:10573000C1F1200C8B4022FA0CF71F4320FA0CF425
:1057400005FA01F34FEA174E25FA0CF51C43230C1A
:10575000B5FBFEF91FFA87F80EFB195543EA05451C
:1057600009FB08FAAA4502FA01F200FA01F308D986
:105770007D1909F1FF3047D2AA4545D9A9F102099F
:105780003D44A5EB0A05A4B2B5FBFEF00EFB105597
:1057900044EA054400FB08F8A04507D93C1900F18C
:1057A000FF352DD2A0452BD902383C4440EA0940B0
:1057B000A4EB0804A0FB02894C45C6464D4619D30C
:1057C00016D05EB1B3EB0E0264EB050404FA0CFCD8
:1057D000CA404CEA0202CC40C6E900240021BDE8E0
:1057E000F087314630460EE7AC46EDE6184601E755
:1057F0004345E6D2B8EB020E69EB07050138E0E756
:105800002846D3E760468FE78146BAE7614677E7E7
:1058100008464BE7ACF1020C3D4415E702383C4426
:1058200026E700BFF8B500BFF8BC08BC9E4670472D
:10583000F8B500BFF8BC08BC9E46704700000000E9
:105840005465726D696E616C000000005254540022
:1058500053454747455200005379735669657700B1
:1058600049444C450000000053595354454D564996
:1058700045573A20436F756C64206E6F74207265D3
:10588000636F7264207461736B20696E666F726DF2
:105890006174696F6E2E204D6178696D756D206E33
:1058A000756D626572206F66207461736B73207210
:1058B0006561636865642E004E3D467265655254AD
:1058C0004F532048656C6C6F2D576F726C6420537A
:1058D0005953564945572C443D53544D33324C345B
:1058E00052355A49202D204E75636C656F2C4F3D03
:1058F0004672656552544F5300000000492331350C
:105900003D5379735469636B0000000049444C4572
:10591000000000004C44322D7461736B00000000E5
:105920005455524E204F4E204C4432005455524E46
:10593000204F4646204C443200000000000000008A
:105940000000000000000000A5180008E91700088A
:105950000000000001020304A0860100400D0300C6
:10596000801A060000350C0040420F0080841E00A3
:1059700000093D0000127A000024F40000366E0198
:085980000048E801006CDC02A4
:08598800DCFBFF7F01000000C1
:08599000A50200080000000060
:0859980081020008000000007C
:1059A000AAAAAAAA00093D00010000000000000008
:04000005080002C12C
:00000001FF
