:020000040800F2
:1000000000000A204D0200089D0200089D02000821
:100010009D0200089D0200089D02000800000000EB
:100020000000000000000000000000009D02000829
:100030009D020008000000009D0200089F020008C9
:100040009D0200089D0200089D0200089D02000814
:100050009D0200089D0200089D0200089D02000804
:100060009D0200089D0200089D0200089D020008F4
:100070009D0200089D0200089D0200089D020008E4
:100080009D0200089D0200089D0200089D020008D4
:100090009D0200089D0200089D0200089D020008C4
:1000A0009D0200089D0200089D0200089D020008B4
:1000B0009D0200089D0200089D0200089D020008A4
:1000C0009D0200089D0200089D0200089D02000894
:1000D0009D0200089D0200089D0200089D02000884
:1000E0009D0200089D0200089D0200089D02000874
:1000F0009D0200089D0200089D020008000000000B
:100100009D0200089D0200089D0200089D02000853
:100110009D0200089D020008B10200089D0200082F
:100120009D0200089D0200089D0200089D02000833
:100130009D0200089D0200089D0200089D02000823
:100140009D0200089D0200089D0200089D02000813
:100150009D0200089D0200089D0200089D02000803
:100160009D0200089D0200089D0200089D020008F3
:100170009D0200089D020008000000000000000031
:100180009D0200089D0200089D0200089D020008D3
:100190009D0200089D020008000000000000000011
:1001A00000000000000000009D0200089D02000801
:1001B0009D0200089D0200089D020008000000004A
:1001C0000348044B834202D0034B03B118477047E6
:1001D0001000002010000020000000000548064923
:1001E000091A891001EBD171491002D0034B03B1F8
:1001F0001847704710000020100000200000000089
:1002000010B5064C237843B9FFF7DAFF044B13B15E
:100210000448AFF300800123237010BD10000020BC
:1002200000000000BC1E000808B5054B1BB10549C5
:100230000548AFF30080BDE80840FFF7CFBF00BF1F
:100240000000000014000020BC1E0008DFF834D0BD
:10025000002103E00C4B5B58435004310B480C4B1E
:1002600042189A42F6D30B4A02E0002342F8043BBC
:10027000094B9A42F9D300F069F901F0F3FD00F05F
:1002800021F8FEE700000A20281F000800000020D7
:100290001000002010000020FC000020FEE780B5C8
:1002A00000AF00F0D1F900F015FB00BF80BD0000E9
:1002B00080B500AF024801F0DDFB00BF80BD00BF8C
:1002C000B800002080B500AF00F06CF9322000F0DB
:1002D0000BF800F0ADF800F0C5F8024801F0A0FB03
:1002E000FEE700BFB800002080B59AB000AF03461B
:1002F000FB71002387F8673007F1200344220021B7
:10030000184601F0D3FD07F10C0314220021184612
:1003100001F0CCFD02233B624FF48073FB6240236B
:100320003B630223BB640223FB64FB79542B1CD088
:10033000782B34D0322B4CD104233B6532237B65A0
:1003400004233B660223FB650223BB650F23FB608E
:1003500003233B6100237B614FF48063BB61002377
:10036000FB61022387F8673034E004233B652A23CE
:100370007B6502233B660223FB650223BB650F23DB
:10038000FB6003233B6100237B614FF48063BB610F
:100390004FF48063FB61042387F867301AE004237D
:1003A0003B653C237B6502233B660223FB650223FE
:1003B000BB650F23FB6003233B6100237B614FF48C
:1003C000A063BB614FF48063FB61052387F867304E
:1003D00000E000BF07F12003184600F04DFC034683
:1003E000002B01D000F020F897F8672007F10C03EC
:1003F0001146184601F066F80346002B01D000F0C4
:1004000013F801F015FA0246064BA3FB02239B09E1
:10041000184600F036FA042000F040FA00BF6837B2
:10042000BD4680BDD34D621080B400AFFEE7000032
:1004300080B500AF094B0A4A1A60084B00225A6087
:10044000064B40F2F312DA60044801F0BDFA0346AD
:10045000002B01D0FFF7E8FF00BF80BDB8000020EF
:100460000010004080B586B000AF0E4BDB6C0D4A2B
:1004700043F00203D3640B4BDB6C03F002033B60DD
:100480003B684FF480437B600123BB600023FB602B
:100490003B1D1946044800F029FA00BF1837BD4635
:1004A00080BD00BF001002400004004880B582B04B
:1004B00000AF78604FF48041034800F0A7FB00BF15
:1004C0000837BD4680BD00BF0004004880B500AFBE
:1004D000032000F0A1F90D4B5B6A0C4A43F4E023C2
:1004E0005362002200216FF00B0000F0A0F90022FF
:1004F00000216FF00A0000F09AF9002200216FF04D
:10050000090000F094F900BF80BD00BF00ED00E0DD
:1005100080B584B000AF78600B4B9B6D0A4A43F006
:1005200010039365084B9B6D03F01003FB60FB68A1
:10053000362000F098F900220F21362000F077F9DC
:1005400000BF1037BD4680BD0010024080B400AF30
:10055000124B1B68114A43F0010313600F4B00223A
:100560009A600E4B1B680D4A23F0A85323F4102306
:1005700013600A4B4FF48052DA60084B1B68074A3D
:1005800023F480231360054B00229A61044B4FF043
:1005900000629A6000BFBD4680BC704700100240F8
:1005A00000ED00E080B582B000AF0023FB710320B6
:1005B00000F032F9002000F00DF80346002B02D0C5
:1005C0000123FB7101E0FFF781FFFB791846083733
:1005D000BD4680BD80B584B000AF78600023FB735A
:1005E000164B1B68002B22D0154B1A68134B1B6847
:1005F0004FF47A71B1FBF3F3B2FBF3F3184600F05A
:1006000040F90346002B0FD17B680F2B09D800223D
:1006100079684FF0FF3000F00AF90A4A7B681360EE
:1006200007E00123FB7304E00123FB7301E00123D6
:10063000FB73FB7B18461037BD4680BD08000020C9
:10064000000000200400002080B400AF054B1A68B1
:10065000054B1B681344034A136000BFBD4680BCB2
:10066000704700BFF80000200800002080B400AFF1
:10067000024B1B681846BD4680BC7047F80000203E
:1006800080B485B000AF78607B6803F00703FB603F
:100690000C4BDB68BB60BA684FF6FF031340BB60CE
:1006A000FB681A02BB68134343F0BF6343F4003393
:1006B000BB60044ABB68D36000BF1437BD4680BC32
:1006C000704700BF00ED00E080B400AF044BDB6872
:1006D0001B0A03F007031846BD4680BC704700BFE5
:1006E00000ED00E080B483B000AF0346FB7197F9E2
:1006F0000730002B0BDBFB7903F01F02064997F94B
:1007000007305B09012000FA02F241F8232000BF04
:100710000C37BD4680BC704700E100E080B483B078
:1007200000AF03463960FB7197F90730002B0ADBF5
:100730003B68DAB20C4997F907301201D2B20B4488
:1007400083F800230AE03B68DAB20849FB7903F03A
:100750000F03043B1201D2B20B441A7600BF0C37D0
:10076000BD4680BC704700BF00E100E000ED00E046
:1007700080B489B000AFF860B9607A60FB6803F0BC
:100780000703FB61FB69C3F10703042B28BF0423A4
:10079000BB61FB690433062B02D9FB69033B00E014
:1007A00000237B614FF0FF32BB6902FA03F3DA43A7
:1007B000BB681A407B699A404FF0FF317B6901FAB0
:1007C00003F3D9437B680B40134318462437BD46D7
:1007D00080BC704780B582B000AF78607B68013B19
:1007E000B3F1807F01D301230FE00A4A7B68013B0C
:1007F00053600F214FF0FF30FFF790FF054B0022B1
:100800009A60044B07221A60002318460837BD4639
:1008100080BD00BF10E000E080B582B000AF78601E
:100820007868FFF72DFF00BF0837BD4680BD80B553
:1008300086B000AF0346B9607A60FB7300237B612A
:10084000FFF742FF78617A68B9687869FFF790FF2F
:10085000024697F90F3011461846FFF75FFF00BFB9
:100860001837BD4680BD80B582B000AF0346FB712E
:1008700097F907301846FFF735FF00BF0837BD4628
:1008800080BD80B582B000AF78607868FFF7A2FFC6
:10089000034618460837BD4680BD000080B483B0CB
:1008A00000AF78607B68042B06D1094B1B68084AAF
:1008B00043F00403136005E0054B1B68044A23F072
:1008C0000403136000BF0C37BD4680BC704700BFF7
:1008D00010E000E080B500AF00F002F800BF80BD7E
:1008E00080B400AF00BFBD4680BC704780B487B005
:1008F00000AF7860396000237B6166E13B681A686D
:1009000001217B6901FA03F31340FB60FB68002BB4
:1009100000F058813B685B68012B0BD03B685B683B
:10092000022B07D03B685B68112B03D03B685B68E8
:10093000122B30D17B689B683B617B695B00032293
:1009400002FA03F3DB433A6913403B613B68DA6820
:100950007B695B0002FA03F33A6913433B617B68EE
:100960003A699A607B685B683B6101227B6902FAA5
:1009700003F3DB433A6913403B613B685B681B0947
:1009800003F001027B6902FA03F33A6913433B6106
:100990007B683A695A607B68DB683B617B695B0016
:1009A000032202FA03F3DB433A6913403B613B68DD
:1009B0009A687B695B0002FA03F33A6913433B616F
:1009C0007B683A69DA603B685B68022B03D03B685E
:1009D0005B68122B23D17B69DA087B68083253F8F5
:1009E00022303B617B6903F007039B000F2202FA70
:1009F00003F3DB433A6913403B613B681A697B6947
:100A000003F007039B0002FA03F33A6913433B61C7
:100A10007B69DA087B680832396943F822107B6801
:100A20001B683B617B695B00032202FA03F3DB4333
:100A30003A6913403B613B685B6803F003027B69E2
:100A40005B0002FA03F33A6913433B617B683A693E
:100A50001A603B685B6803F08053002B00F0B280A3
:100A6000604B1B6E5F4A43F0010313665D4B1B6EC8
:100A700003F00103BB60BB685B4A7B699B080233E0
:100A800052F823303B617B6903F003039B000F2284
:100A900002FA03F3DB433A6913403B617B68B3F12D
:100AA000904F2BD07B68514A934225D07B68504AA7
:100AB00093421FD07B684F4A934219D07B684E4ABD
:100AC000934213D07B684D4A93420DD07B684C4AC9
:100AD000934207D07B684B4A934201D107230EE033
:100AE00008230CE006230AE0052308E0042306E0BF
:100AF000032304E0022302E0012300E000237A69DB
:100B000002F00302920093403A6913433B61364975
:100B10007B699B0802333A6941F823203A4B1B68F2
:100B20003B61FB68DB433A6913403B613B685B68B0
:100B300003F48033002B03D03A69FB6813433B6115
:100B4000314A3B691360304B5B683B61FB68DB43B8
:100B50003A6913403B613B685B6803F40033002B48
:100B600003D03A69FB6813433B61274A3B695360F2
:100B7000254B9B683B61FB68DB433A6913403B6153
:100B80003B685B6803F48013002B03D03A69FB6871
:100B900013433B611C4A3B6993601B4BDB683B6121
:100BA000FB68DB433A6913403B613B685B6803F4D5
:100BB0000013002B03D03A69FB6813433B61124AD0
:100BC0003B69D3607B6901337B613B681A687B6951
:100BD00022FA03F3002B7FF491AE00BF1C37BD4611
:100BE00080BC704700100240000001400004004833
:100BF00000080048000C004800100048001400489D
:100C000000180048001C00480004014080B483B074
:100C100000AF78600B467B807B685A697B88134005
:100C2000002B03D07A887B689A6202E07A887B681E
:100C30009A6100BF0C37BD4680BC704780B400AFDE
:100C40000C4B1B6803F4C063B3F5806F02D14FF403
:100C500080630BE0074BD3F8803003F48073B3F567
:100C6000807F02D14FF4007300E000231846BD4698
:100C700080BC70470070004080B588B000AF7860DD
:100C80007B68002B02D1012300F016BCA04B9B68AF
:100C900003F00C03BB619E4BDB6803F003037B6135
:100CA0007B681B6803F01003002B00F0E480BB6935
:100CB000002B07D0BB690C2B40F08B807B69012B8C
:100CC00040F08780924B1B6803F00203002B05D095
:100CD0007B689B69002B01D10123EDE37B681A6AD5
:100CE0008B4B1B6803F00803002B04D0884B1B6858
:100CF00003F0F00305E0864BD3F894301B0903F0B2
:100D0000F003934223D27B681B6A184600F09AFDD9
:100D10000346002B01D00123CEE37D4B1B687C4AA8
:100D200043F0080313607A4B1B6823F0F0027B68E2
:100D30001B6A774913430B60754B5B6823F47F4252
:100D40007B68DB691B02724913434B6025E0704BE3
:100D50001B686F4A43F0080313606D4B1B6823F058
:100D6000F0027B681B6A6A4913430B60684B5B683F
:100D700023F47F427B68DB691B02654913434B60A8
:100D8000BB69002B09D17B681B6A184600F05AFD2D
:100D90000346002B01D001238EE300F0BFFC014687
:100DA0005B4B9B681B0903F00F035A4AD35C03F0AB
:100DB0001F0321FA03F3584A1360584B1B68184667
:100DC000FFF708FC0346FB73FB7B002B52D0FB7B39
:100DD00072E37B689B69002B32D04D4B1B684C4AF9
:100DE00043F001031360FFF741FC386108E0FFF7AF
:100DF0003DFC02463B69D31A022B01D903235BE376
:100E0000434B1B6803F00203002BF0D0404B1B68E0
:100E10003F4A43F0080313603D4B1B6823F0F00288
:100E20007B681B6A3A4913430B60394B5B6823F4B8
:100E30007F427B68DB691B02354913434B601AE034
:100E4000334B1B68324A23F001031360FFF70EFC9B
:100E5000386108E0FFF70AFC02463B69D31A022B0F
:100E600001D9032328E32A4B1B6803F00203002B5C
:100E7000F0D100E000BF7B681B6803F00103002B8A
:100E800073D0BB69082B05D0BB690C2B0ED17B69D5
:100E9000032B0BD11E4B1B6803F40033002B63D0D4
:100EA0007B685B68002B5FD1012305E37B685B688F
:100EB000B3F5803F06D1164B1B68154A43F48033C7
:100EC00013601DE07B685B68B3F5A02F0CD1104B5D
:100ED0001B680F4A43F4802313600D4B1B680C4AB8
:100EE00043F4803313600BE0094B1B68084A23F47A
:100EF00080331360064B1B68054A23F4802313607C
:100F00007B685B68002B1BD0FFF7B0FB386110E0FB
:100F100000100240D81E000800000020040000203D
:100F2000FFF7A4FB02463B69D31A642B01D90323C4
:100F3000C2E2AF4B1B6803F40033002BF0D014E087
:100F4000FFF794FB386108E0FFF790FB02463B692E
:100F5000D31A642B01D90323AEE2A54B1B6803F41B
:100F60000033002BF0D100E000BF7B681B6803F06A
:100F70000203002B60D0BB69042B05D0BB690C2B8E
:100F800019D17B69022B16D1994B1B6803F480633E
:100F9000002B05D07B68DB68002B01D101238BE29D
:100FA000934B5B6823F0FE427B681B691B069049EC
:100FB00013434B6040E07B68DB68002B23D08C4BF5
:100FC0001B688B4A43F480731360FFF74FFB386153
:100FD00008E0FFF74BFB02463B69D31A022B01D90D
:100FE000032369E2824B1B6803F48063002BF0D07B
:100FF0007F4B5B6823F0FE427B681B691B067C49C4
:1010000013434B6018E07A4B1B68794A23F48073D2
:101010001360FFF72BFB386108E0FFF727FB024660
:101020003B69D31A022B01D9032345E2704B1B689D
:1010300003F48063002BF0D17B681B6803F0080386
:10104000002B3CD07B685B69002B1CD0684BD3F82D
:101050009430674A43F00103C2F89430FFF706FB6F
:10106000386108E0FFF702FB02463B69D31A022B06
:1010700001D9032320E25E4BD3F8943003F002033E
:10108000002BEFD01BE05A4BD3F89430584A23F092
:101090000103C2F89430FFF7E9FA386108E0FFF77E
:1010A000E5FA02463B69D31A022B01D9032303E276
:1010B0004F4BD3F8943003F00203002BEFD17B6841
:1010C0001B6803F00403002B00F0A6800023FB77CD
:1010D000474B9B6D03F08053002B0DD1444B9B6D10
:1010E000434A43F080539365414B9B6D03F080531B
:1010F000BB60BB680123FB773E4B1B6803F4807326
:10110000002B18D13B4B1B683A4A43F480731360A1
:10111000FFF7ACFA386108E0FFF7A8FA02463B692E
:10112000D31A022B01D90323C6E1324B1B6803F407
:101130008073002BF0D07B689B68012B08D12C4B6F
:10114000D3F890302A4A43F00103C2F8903024E0EB
:101150007B689B68052B10D1254BD3F89030244A2F
:1011600043F00403C2F89030214BD3F89030204A6A
:1011700043F00103C2F890300FE01D4BD3F89030DC
:101180001B4A23F00103C2F89030194BD3F890307A
:10119000174A23F00403C2F890307B689B68002B49
:1011A00016D0FFF763FA38610AE0FFF75FFA0246EC
:1011B0003B69D31A41F28832934201D903237BE180
:1011C0000B4BD3F8903003F00203002BEDD01AE064
:1011D000FFF74CFA38610FE0FFF748FA02463B6927
:1011E000D31A41F28832934206D9032364E100BF47
:1011F0000010024000700040A84BD3F8903003F07C
:101200000203002BE8D1FB7F012B05D1A34B9B6D83
:10121000A24A23F0805393657B681B6803F0200388
:10122000002B3CD07B685B6A002B1CD09B4BD3F817
:1012300098309A4A43F00103C2F89830FFF716FA43
:10124000386108E0FFF712FA02463B69D31A022B15
:1012500001D9032330E1914BD3F8983003F0020316
:10126000002BEFD01BE08D4BD3F898308B4A23F046
:101270000103C2F89830FFF7F9F9386108E0FFF789
:10128000F5F902463B69D31A022B01D9032313E176
:10129000824BD3F8983003F00203002BEFD17B6828
:1012A0009B6A002B00F007817B689B6A022B40F051
:1012B000CB807A4BDB687B617B6903F003027B6840
:1012C000DB6A9A422CD17B6903F0F0027B681B6BCE
:1012D000013B1B019A4223D17B6903F4FE427B68E8
:1012E0005B6B1B029A421BD17B6903F078427B68DF
:1012F0009B6BDB069A4213D17B6903F4C0027B68C7
:10130000DB6B5B08013B5B059A4209D17B6903F00B
:10131000C0627B681B6C5B08013B5B069A426DD028
:10132000BB690C2B68D05D4B1B6803F08063002BFE
:1013300005D15A4B1B6803F08053002B01D00123C9
:10134000BAE0564B1B68554A23F080731360FFF7D1
:101350008DF9386108E0FFF789F902463B69D31A35
:10136000022B01D90323A7E04C4B1B6803F0007349
:10137000002BF0D1494BDA68494B13407A68D16AA7
:101380007A68126B013A120111437A68526B1202A9
:1013900011437A68D26B5208013A520511437A68B8
:1013A000126C5208013A520611437A68926BD206C7
:1013B0000A433A491343CB60384B1B68374A43F022
:1013C00080731360354BDB68344A43F08073D3601D
:1013D000FFF74CF9386108E0FFF748F902463B692E
:1013E000D31A022B01D9032366E02C4B1B6803F0B0
:1013F0000073002BF0D05EE001235DE0274B1B68FB
:1014000003F00073002B56D1244B1B68234A43F092
:1014100080731360214BDB68204A43F08073D360F4
:10142000FFF724F9386108E0FFF720F902463B692D
:10143000D31A022B01D903233EE0184B1B6803F09B
:101440000073002BF0D036E0BB690C2B31D0134B6E
:101450001B68124A23F080731360104B1B6803F063
:101460002053002B05D10D4BDB680C4A23F00303FE
:10147000D3600A4BDB68094A23F0887323F4803376
:10148000D360FFF7F3F838610CE0FFF7EFF802469E
:101490003B69D31A022B05D903230DE0001002404B
:1014A0000C809D01064B1B6803F00073002BECD1F0
:1014B00001E0012300E0002318462037BD4680BD2F
:1014C0000010024080B586B000AF7860396000231C
:1014D0007B617B68002B01D101230FE1894B1B68E5
:1014E00003F00F033A689A4210D9864B1B6823F029
:1014F0000F0284493B6813430B60824B1B6803F067
:101500000F033A689A4201D00123F7E07B681B6819
:1015100003F00103002B00F089807B685B68032BDC
:1015200033D1794B1B6803F00073002B01D10123E9
:10153000E4E000F0E1F90246744B9A4255D9724B4F
:101540009B6803F0F003002B0AD16F4B9B6823F0DC
:10155000F0036D4A43F08003936080237B6144E095
:101560007B681B6803F00203002B3ED07B689B68FE
:10157000002B3AD1644B9B6823F0F003624A43F09E
:101580008003936080237B612FE07B685B68022B84
:1015900007D15D4B1B6803F40033002B15D10123E9
:1015A000ACE07B685B68002B07D1574B1B6803F0EE
:1015B0000203002B09D10123A0E0534B1B6803F465
:1015C0008063002B01D1012398E000F0A7F80246C8
:1015D0004E4B9A4209D94C4B9B6823F0F0034A4A80
:1015E00043F08003936080237B61474B9B6823F02B
:1015F00003027B685B68444913438B60FFF736F84E
:1016000038610AE0FFF732F802463B69D31A41F22B
:101610008832934201D9032370E03B4B9B6803F06F
:101620000C027B685B689B009A42EBD17B681B686D
:1016300003F00203002B09D0334B9B6823F0F00228
:101640007B689B68304913438B6008E07B69802B83
:1016500005D12D4B9B682C4A23F0F0039360294B56
:101660001B6803F00F033A689A4210D2254B1B689F
:1016700023F00F0223493B6813430B60214B1B6887
:1016800003F00F033A689A4201D0012336E07B68E9
:101690001B6803F00403002B08D01B4B9B6823F44A
:1016A000E0627B68DB68184913438B607B681B68CA
:1016B00003F00803002B09D0134B9B6823F46052FE
:1016C0007B681B69DB00104913438B6000F026F830
:1016D00001460D4B9B681B0903F00F030C4AD35CBA
:1016E00003F01F0321FA03F30A4A13600A4B1B6835
:1016F0001846FEF76FFF0346FB73FB7B184618374F
:10170000BD4680BD002002400010024000B4C40469
:10171000D81E0008000000200400002080B489B01A
:1017200000AF0023FB610023BB613D4B9B6803F0CE
:101730000C033B613A4BDB6803F00303FB603B693E
:10174000002B05D03B690C2B21D1FB68012B1ED14E
:10175000334B1B6803F00803002B07D1304BD3F841
:1017600094301B0A03F00F03FB6105E02C4B1B6850
:101770001B0903F00F03FB612A4AFB6952F823306F
:10178000FB613B69002B0DD1FB69BB610AE03B6942
:10179000042B02D1244BBB6104E03B69082B01D12F
:1017A000224BBB613B690C2B34D11D4BDB6803F032
:1017B0000303BB60BB68022B03D0BB68032B03D0C1
:1017C00005E0194B7B6105E0184B7B6102E0FB698A
:1017D0007B6100BF124BDB681B0903F00F03013371
:1017E0007B600F4BDB681B0A03F07F037A6902FB07
:1017F00003F27B68B2FBF3F37B61094BDB685B0EA2
:1018000003F0030301335B003B607A693B68B2FB82
:10181000F3F3BB61BB6918462437BD4680BC7047F3
:1018200000100240E81E00080024F40000127A00B4
:1018300080B400AF024B1B681846BD4680BC7047A1
:101840000000002080B586B000AF786000233B61C7
:10185000274B9B6D03F08053002B03D0FFF7EEF96D
:10186000786114E0224B9B6D214A43F080539365CD
:101870001F4B9B6D03F08053FB60FB68FFF7DEF9A5
:1018800078611B4B9B6D1A4A23F0805393657B69EB
:10189000B3F5007F0BD17B68802B13D97B68A02B1D
:1018A00002D902233B610DE001233B610AE07B6822
:1018B0007F2B02D902233B6104E07B68702B01D1AE
:1018C00001233B610B4B1B6823F00F0209493B6965
:1018D00013430B60074B1B6803F00F033A699A42EE
:1018E00001D0012300E0002318461837BD4680BD13
:1018F000001002400020024080B487B000AF0023F7
:101900007B612D4BDB6803F00303012B18D12A4BBD
:101910001B6803F00803002B07D1274BD3F8943042
:101920001B0A03F00F037B6105E0234B1B681B09B7
:1019300003F00F037B61214A7B6952F823307B61FE
:101940001D4BDB6803F00303FB60FB68022B03D035
:10195000FB68032B03D005E0194B3B6105E0194BF5
:101960003B6102E07B693B6100BF134BDB681B09F5
:1019700003F00F030133BB600F4BDB681B0A03F05E
:101980007F033A6902FB03F2BB68B2FBF3F33B61EE
:10199000094BDB685B0E03F0030301335B007B60E4
:1019A0003A697B68B2FBF3F33B603B6818461C372F
:1019B000BD4680BC704700BF00100240E81E000812
:1019C0000024F40000127A0080B582B000AF786085
:1019D0007B68002B01D101231DE07B6893F83D302B
:1019E000DBB2002B06D17B68002283F83C207868AC
:1019F000FEF78EFD7B68022283F83D207B681A6823
:101A00007B6804331946104600F078F97B680122A0
:101A100083F83D20002318460837BD4680BD0000EE
:101A200080B485B000AF78607B681B68DA687B683B
:101A30001B6842F00102DA607B681B689A680C4BF5
:101A40001340FB60FB68062B0BD0FB68B3F5803FAF
:101A500007D07B681B681A687B681B6842F001022C
:101A60001A60002318461437BD4680BC704700BF7B
:101A70000700010080B582B000AF78607B681B680A
:101A80001B6903F00203022B22D17B681B68DB6811
:101A900003F00203022B1BD17B681B686FF002026C
:101AA0001A617B6801221A777B681B689B6903F0C7
:101AB0000303002B03D0786800F004F905E0786890
:101AC00000F0F7F8786800F006F97B6800221A77D2
:101AD0007B681B681B6903F00403042B22D17B681D
:101AE0001B68DB6803F00403042B1BD17B681B68B5
:101AF0006FF004021A617B6802221A777B681B6808
:101B00009B6903F44073002B03D0786800F0DAF887
:101B100005E0786800F0CDF8786800F0DCF87B68C4
:101B200000221A777B681B681B6903F00803082BE7
:101B300022D17B681B68DB6803F00803082B1BD1EC
:101B40007B681B686FF008021A617B6804221A77B1
:101B50007B681B68DB6903F00303002B03D0786804
:101B600000F0B0F805E0786800F0A3F8786800F0BD
:101B7000B2F87B6800221A777B681B681B6903F048
:101B80001003102B22D17B681B68DB6803F0100365
:101B9000102B1BD17B681B686FF010021A617B68E9
:101BA00008221A777B681B68DB6903F44073002BFB
:101BB00003D0786800F086F805E0786800F079F8DE
:101BC000786800F088F87B6800221A777B681B68C9
:101BD0001B6903F00103012B0ED17B681B68DB68D6
:101BE00003F00103012B07D17B681B686FF0010232
:101BF0001A617868FEF75AFC7B681B681B6903F062
:101C00008003802B0ED17B681B68DB6803F08003A8
:101C1000802B07D17B681B686FF080021A6178689F
:101C200000F00DF97B681B681B6903F48073B3F542
:101C3000807F0ED17B681B68DB6803F08003802BFC
:101C400007D17B681B686FF480721A61786800F0B6
:101C5000FFF87B681B681B6903F04003402B0ED123
:101C60007B681B68DB6803F04003402B07D17B686F
:101C70001B686FF040021A61786800F035F87B68E5
:101C80001B681B6903F02003202B0ED17B681B68A7
:101C9000DB6803F02003202B07D17B681B686FF003
:101CA00020021A61786800F0C1F800BF0837BD460D
:101CB00080BD80B483B000AF786000BF0C37BD46F4
:101CC00080BC704780B483B000AF786000BF0C3731
:101CD000BD4680BC704780B483B000AF786000BF61
:101CE0000C37BD4680BC704780B483B000AF7860CD
:101CF00000BF0C37BD4680BC7047000080B485B083
:101D000000AF786039607B681B68FB607B683F4A86
:101D1000934213D07B68B3F1804F0FD07B683C4A6D
:101D200093420BD07B683B4A934207D07B683A4A88
:101D3000934203D07B68394A934208D1FB6823F071
:101D40007003FB603B685B68FA681343FB607B6869
:101D50002E4A93421FD07B68B3F1804F1BD07B6823
:101D60002B4A934217D07B682A4A934213D07B6850
:101D7000294A93420FD07B68284A93420BD07B6854
:101D8000274A934207D07B68264A934203D07B6858
:101D9000254A934208D1FB6823F44073FB603B68FB
:101DA000DB68FA681343FB60FB6823F080023B6842
:101DB0005B691343FB607B68FA681A603B689A684A
:101DC0007B68DA623B681A687B689A627B680F4AB4
:101DD00093420FD07B68114A93420BD07B68104A24
:101DE000934207D07B680F4A934203D07B680E4A28
:101DF000934203D13B681A697B681A637B680122AE
:101E00005A6100BF1437BD4680BC7047002C0140AA
:101E10000004004000080040000C00400034014075
:101E200000400140004401400048014080B483B0BC
:101E300000AF786000BF0C37BD4680BC704780B4EF
:101E400083B000AF786000BF0C37BD4680BC7047E0
:101E500080B483B000AF786000BF0C37BD4680BC53
:101E60007047000070B50D4D0D4C641BA41000268A
:101E7000A64209D10B4D0C4C00F020F8641BA410B5
:101E80000026A64205D170BD55F8043B984701369F
:101E9000EEE755F8043B98470136F2E7181F0008B3
:101EA000181F0008181F00081C1F000802440346E2
:101EB000934200D1704703F8011BF9E7F8B500BF62
:101EC000F8BC08BC9E467047F8B500BFF8BC08BC1B
:081ED0009E467047000000006F
:101ED80000000000000000000102030406070809D2
:101EE800A0860100400D0300801A060000350C0092
:101EF80040420F0080841E0000093D0000127A0055
:101F08000024F40000366E010048E801006CDC0291
:081F180029020008000000008E
:081F20000102000800000000AE
:101F280000093D0010000000010000000000000052
:040000050800024DA0
:00000001FF
