:020000040800F2
:1000000000000A2045020008950200089502000839
:100010009502000895020008950200080000000003
:100020000000000000000000000000009502000831
:1000300095020008000000009502000897020008E1
:100040009502000895020008950200089502000834
:100050009502000895020008950200089502000824
:10006000950200089502000895020008A902000800
:100070009502000895020008950200089502000804
:1000800095020008950200089502000895020008F4
:1000900095020008950200089502000895020008E4
:1000A00095020008950200089502000895020008D4
:1000B00095020008950200089502000895020008C4
:1000C00095020008950200089502000895020008B4
:1000D00095020008950200089502000895020008A4
:1000E0009502000895020008950200089502000894
:1000F0009502000895020008950200080000000023
:100100009502000895020008950200089502000873
:100110009502000895020008950200089502000863
:100120009502000895020008950200089502000853
:100130009502000895020008950200089502000843
:100140009502000895020008950200089502000833
:100150009502000895020008BD02000895020008FB
:100160009502000895020008950200089502000813
:100170009502000895020008000000000000000041
:1001800095020008950200089502000895020008F3
:100190009502000895020008000000000000000021
:1001A0000000000000000000950200089502000811
:1001B0009502000895020008950200080000000062
:1001C00053B94AB9002908BF00281CBF4FF0FF31BE
:1001D0004FF0FF3000F00CB8ADF1080C6DE904CE23
:1001E00003F002FFDDF804E0DDE9022304B070470C
:1001F000704700BF034613F8012B002AFBD1181AE1
:100200000138704710B5054C237833B9044B13B14E
:100210000448AFF300800123237010BD20000020AC
:10022000000000000043000808B5034B1BB1034960
:100230000348AFF3008008BD000000002400002048
:1002400000430008DFF834D0002103E00C4B5B587A
:10025000435004310B480C4B42189A42F6D30B4AD8
:1002600002E0002342F8043B094B9A42F9D300F024
:1002700069FA04F019F800F02BF8FEE700000A20F4
:1002800088430008000000202000002020000020FB
:100290002C010020FEE780B500AF00F0D1FA00F09D
:1002A00015FC00BF80BD000080B500AF024800F023
:1002B0009BFD00BF80BD00BFC800002080B500AF1F
:1002C000024802F0D9F800BF80BD00BF3C0000200A
:1002D00080B500AF00F062FA102000F011F800F0D5
:1002E000CBF800F00DF900F03BF914220249034865
:1002F00002F042F8FEE700BF000000203C000020B2
:1003000080B59AB000AF0346FB71002387F86730D1
:1003100007F1200344220021184603F0E9FF07F10A
:100320000C0314220021184603F0E2FF02233B6273
:100330004FF48073FB6240233B630223BB640223C0
:10034000FB64FB79782B4ED0782B66DC542B30D0B5
:10035000542B62DC102B02D0322B10D05DE0012335
:10036000BB640F23FB6001233B6100237B610023FF
:10037000BB610023FB61002387F867304EE0042354
:100380003B6532237B6504233B660223FB65022326
:10039000BB650F23FB6003233B6100237B614FF4AC
:1003A0008063BB614FF48063FB61022387F8673091
:1003B00034E004233B652A237B6502233B6602234A
:1003C000FB650223BB650F23FB6003233B61002316
:1003D0007B614FF48063BB614FF48063FB61042356
:1003E00087F867301AE004233B653C237B650223D2
:1003F0003B660223FB650223BB650F23FB600323DF
:100400003B6100237B614FF4A063BB614FF48063C9
:10041000FB61052387F8673000E000BF07F1200388
:10042000184600F0EDFF0346002B01D000F020F845
:1004300097F8672007F10C031146184601F006FCF7
:100440000346002B01D000F013F801F0B5FD034680
:10045000064AA2FB03239B09184600F00EFB04206A
:1004600000F018FB00BF6837BD4680BDD34D621059
:1004700080B400AFFEE7000080B588B000AF1C4B31
:10048000DB6C1B4A43F00403D364194BDB6C03F0B1
:100490000403BB60BB68164BDB6C154A43F00203D8
:1004A000D364134BDB6C03F002037B607B684FF477
:1004B0000053FB600F4B3B6100237B610023BB615A
:1004C00007F10C0319460C4800F0DCFD8023FB60AB
:1004D00001233B6100237B610023BB6107F10C0317
:1004E0001946064800F0CEFD00BF2037BD4680BD4E
:1004F00000100240000022100008004800040048DC
:1005000080B500AF144B154A1A60134B4FF41652C6
:100510005A60114B00229A610F4B00225A620E4B17
:100520000C225A610C4B00229A600B4B0022DA60BD
:10053000094B00221A61084B0022DA61064B0022A7
:100540001A62054801F030FE0346002B01D0FFF788
:100550008FFF00BF80BD00BF3C0000200080004036
:1005600080B582B000AF234B9B6C224A43F004035A
:100570009364204B9B6C03F004037B607B681D4BF2
:100580009B6C1C4A43F0010393641A4B9B6C03F071
:1005900001033B603B68184B184A1A60164B102247
:1005A0009A60154B0022DA60134B80221A61124BBD
:1005B00000225A61104B00229A610F4B0022DA612F
:1005C0000D4B00221A620C4B23225A600A4800F09D
:1005D00089FA0346002B01D0FFF74AFF0B2000F0F9
:1005E0003EFA00220F210B2000F01DFA00BF083751
:1005F000BD4680BD00100240C80000200800024037
:1006000080B582B000AF78607B681B68084A93426F
:100610000AD10848FFF7EEFD03469AB24FF0FF33C8
:100620000449054801F010FE00BF0837BD4680BDF3
:1006300000800040184300083C00002080B500AF57
:10064000032000F0E5F90D4B5B6A0C4A43F4E0230C
:100650005362002200216FF00B0000F0E4F9002249
:1006600000216FF00A0000F0DEF9002200216FF097
:10067000090000F0D8F900BF80BD00BF00ED00E028
:1006800080B58AB000AF78607B681B68294A9342C6
:100690004CD1294B9B6D284A43F080539365264BE0
:1006A0009B6D03F080533B613B6900F09BFE224B46
:1006B000DB6D214A43F00103D3651F4BDB6D03F073
:1006C0000103FB60FB681C4BDB6C1B4A43F04003DF
:1006D000D364194BDB6C03F04003BB60BB6807F1CC
:1006E000140300221A605A609A60DA601A614FF4AB
:1006F000C0737B610223BB610023FB6100233B626B
:1007000008237B6207F1140319460C4800F0BAFC79
:100710007B680B4A5A670A4A7B689362462000F05E
:100720009EF900220F21462000F07DF900BF2837F6
:10073000BD4680BD00800040001002400018004807
:10074000C800002080B400AF124B1B68114A43F070
:10075000010313600F4B00229A600E4B1B680D4A79
:1007600023F0A85323F4102313600A4B4FF4805254
:10077000DA60084B1B68074A23F480231360054B9B
:1007800000229A61044B4FF000629A6000BFBD46A0
:1007900080BC70470010024000ED00E080B582B0E0
:1007A00000AF0023FB71032000F032F9002000F0BD
:1007B0000DF80346002B02D00123FB7101E0FFF787
:1007C0003DFFFB7918460837BD4680BD80B584B033
:1007D00000AF78600023FB73164B1B68002B22D000
:1007E000154B1A68134B1B684FF47A71B1FBF3F386
:1007F000B2FBF3F3184600F040F90346002B0FD18B
:100800007B680F2B09D8002279684FF0FF3000F089
:100810000AF90A4A7B68136007E00123FB7304E0CE
:100820000123FB7301E00123FB73FB7B18461037A8
:10083000BD4680BD1C0000201400002018000020D0
:1008400080B400AF054B1A68054B1B681344034A7C
:10085000136000BFBD4680BC704700BF2801002068
:100860001C00002080B400AF024B1B681846BD4638
:1008700080BC70472801002080B485B000AF78604C
:100880007B6803F00703FB600C4BDB68BB60BA6856
:100890004FF6FF031340BB60FB681A02BB681343AB
:1008A00043F0BF6343F40033BB60044ABB68D360CA
:1008B00000BF1437BD4680BC704700BF00ED00E0AC
:1008C00080B400AF044BDB681B0A03F00703184633
:1008D000BD4680BC704700BF00ED00E080B483B02F
:1008E00000AF0346FB7197F90730002B0BDBFB7958
:1008F00003F01F02064997F907305B09012000FA4F
:1009000002F241F8232000BF0C37BD4680BC70477F
:1009100000E100E080B483B000AF03463960FB71B2
:1009200097F90730002B0ADB3B68DAB20C4997F9DC
:1009300007301201D2B20B4483F800230AE03B686F
:10094000DAB20849FB7903F00F03043B1201D2B27B
:100950000B441A7600BF0C37BD4680BC704700BF01
:1009600000E100E000ED00E080B489B000AFF86085
:10097000B9607A60FB6803F00703FB61FB69C3F1B0
:100980000703042B28BF0423BB61FB690433062B38
:1009900002D9FB69033B00E000237B614FF0FF328B
:1009A000BB6902FA03F3DA43BB681A407B699A40D9
:1009B0004FF0FF317B6901FA03F3D9437B680B40A9
:1009C000134318462437BD4680BC704780B582B0BB
:1009D00000AF78607B68013BB3F1807F01D30123D6
:1009E0000FE00A4A7B68013B53600F214FF0FF3054
:1009F000FFF790FF054B00229A60044B07221A6014
:100A0000002318460837BD4680BD00BF10E000E057
:100A100080B582B000AF78607868FFF72DFF00BF27
:100A20000837BD4680BD80B586B000AF0346B960CB
:100A30007A60FB7300237B61FFF742FF78617A687D
:100A4000B9687869FFF790FF024697F90F301146B1
:100A50001846FFF75FFF00BF1837BD4680BD80B561
:100A600082B000AF0346FB7197F907301846FFF7D5
:100A700035FF00BF0837BD4680BD80B582B000AFEE
:100A800078607868FFF7A2FF034618460837BD462E
:100A900080BD000080B483B000AF78607B68042B19
:100AA00006D1094B1B68084A43F00403136005E0B4
:100AB000054B1B68044A23F00403136000BF0C3786
:100AC000BD4680BC704700BF10E000E080B500AFBD
:100AD00000F002F800BF80BD80B400AF00BFBD468B
:100AE00080BC704780B584B000AF78607B68002B15
:100AF00001D101238DE07B681B681A46474B9A425F
:100B00000FD87B681B681A46454B1344454AA2FB25
:100B100003231B099A007B685A647B68424A1A6463
:100B20000EE07B681B681A46404B13443D4AA2FB0B
:100B300003231B099A007B685A647B683C4A1A6449
:100B40007B68022283F825207B681B681B68FB609A
:100B5000FB6823F4FF4323F07003FB607B689A6813
:100B60007B68DB681A437B681B691A437B685B6997
:100B70001A437B689B691A437B68DB691A437B686D
:100B80001B6A1343FA681343FB607B681B68FA68AF
:100B90001A60786800F014FA7B689B68B3F5804FA0
:100BA00002D17B6800225A607B685A687B689B6C24
:100BB000D2B21A607B68DB6C7A68126D5A607B680F
:100BC0005B68002B10D07B685B68042B0CD87868BE
:100BD00000F034FA7B685B6D00221A607B689B6DC5
:100BE0007A68D26D5A6008E07B6800225A657B689B
:100BF00000229A657B680022DA657B680022DA634E
:100C00007B68012283F825207B68002283F824205A
:100C1000002318461037BD4680BD00BF07040240C0
:100C2000F8FFFDBFCDCCCCCC00000240F8FBFDBFEF
:100C30000004024080B586B000AFF860B9607A6009
:100C40003B600023FB75FB6893F82430012B01D136
:100C5000022366E0FB68012283F82420FB6893F8F6
:100C60002530DBB2012B55D1FB68022283F8252009
:100C7000FB680022DA63FB681B681A68FB681B6864
:100C800022F001021A603B687A68B968F86800F0DF
:100C90005AF9FB681B6B002B08D0FB681B681A68AD
:100CA000FB681B6842F00E021A600FE0FB681B68CD
:100CB0001A68FB681B6822F004021A60FB681B6854
:100CC0001A68FB681B6842F00A021A60FB689B6C9A
:100CD0001B6803F48033002B07D0FB689B6C1A68F9
:100CE000FB689B6C42F480721A60FB685B6D002BA2
:100CF00007D0FB685B6D1A68FB685B6D42F480721D
:100D00001A60FB681B681A68FB681B6842F00102E6
:100D10001A6005E0FB68002283F824200223FB759B
:100D2000FB7D18461837BD4680BD80B584B000AF46
:100D300078600023FB737B6893F82530DBB2022BCD
:100D400005D07B680422DA630123FB7347E07B68EC
:100D50001B681A687B681B6822F00E021A607B68A9
:100D60001B681A687B681B6822F001021A607B68A6
:100D70009B6C1A687B689B6C22F480721A607B689B
:100D80005B6C03F01C027B681B6C012101FA02F210
:100D90005A607B68DB6C7A68126D5A607B685B6DA9
:100DA000002B0CD07B685B6D1A687B685B6D22F44E
:100DB00080721A607B689B6D7A68D26D5A607B681E
:100DC000012283F825207B68002283F824207B6899
:100DD0009B6B002B03D07B689B6B78689847FB7BF1
:100DE00018461037BD4680BD80B584B000AF78602E
:100DF0007B681B6C1B68FB607B681B681B68BB60A7
:100E00007B685B6C03F01C0304229A40FB68134070
:100E1000002B26D0BB6803F00403002B21D07B6895
:100E20001B681B6803F02003002B07D17B681B683D
:100E30001A687B681B6822F004021A607B685B6C8E
:100E400003F01C027B681B6C042101FA02F25A6059
:100E50007B681B6B002B71D07B681B6B7868984795
:100E60006CE07B685B6C03F01C0302229A40FB6819
:100E70001340002B2ED0BB6803F00203002B29D0B7
:100E80007B681B681B6803F02003002B0BD17B6879
:100E90001B681A687B681B6822F00A021A607B686C
:100EA000012283F825207B685B6C03F01C027B68C1
:100EB0001B6C022101FA02F25A607B68002283F85F
:100EC00024207B68DB6A002B38D07B68DB6A78687B
:100ED000984733E07B685B6C03F01C0308229A4060
:100EE000FB681340002B2AD0BB6803F00803002BDB
:100EF00025D07B681B681A687B681B6822F00E028D
:100F00001A607B685B6C03F01C027B681B6C012120
:100F100001FA02F25A607B680122DA637B680122DF
:100F200083F825207B68002283F824207B685B6B94
:100F3000002B04D07B685B6B7868984700BF00BFCC
:100F40001037BD4680BD80B485B000AFF860B96091
:100F50007A603B60FB68DB6CFA68126D5A60FB6874
:100F60005B6D002B04D0FB689B6DFA68D26D5A60F4
:100F7000FB685B6C03F01C02FB681B6C012101FA2F
:100F800002F25A60FB681B683A685A60FB689B680B
:100F9000102B08D1FB681B687A689A60FB681B6895
:100FA000BA68DA6007E0FB681B68BA689A60FB6899
:100FB0001B687A68DA6000BF1437BD4680BC704792
:100FC00080B485B000AF78607B681B681A46174B09
:100FD0009A420AD87B685B6C9B089B0003F18043B4
:100FE00003F502337A68936407E07B685B6C9B08C7
:100FF0009A000F4B13447A6893647B681B68DBB2DA
:10100000083B0C4AA2FB03231B09FB607B680A4ACE
:10101000DA64FB6803F01F0301229A407B681A65BB
:1010200000BF1437BD4680BC704700BF07040240B4
:101030001C080240CDCCCCCC8008024080B485B0E6
:1010400000AF78607B685B68DBB2FB60FA680B4BD3
:1010500013449B001A467B685A657B68084A9A6568
:10106000FB68013B03F0030301229A407B68DA65C9
:1010700000BF1437BD4680BC704700BF3F820010E0
:101080004009024080B487B000AF78603960002327
:101090007B6166E13B681A6801217B6901FA03F311
:1010A0001340FB60FB68002B00F058813B685B68D5
:1010B000012B0BD03B685B68022B07D03B685B6859
:1010C000112B03D03B685B68122B30D17B689B6887
:1010D0003B617B695B00032202FA03F3DB433A695D
:1010E00013403B613B68DA687B695B0002FA03F3FB
:1010F0003A6913433B617B683A699A607B685B6835
:101100003B6101227B6902FA03F3DB433A69134036
:101110003B613B685B681B0903F001027B6902FAD3
:1011200003F33A6913433B617B683A695A607B6811
:10113000DB683B617B695B00032202FA03F3DB435C
:101140003A6913403B613B689A687B695B0002FA2D
:1011500003F33A6913433B617B683A69DA603B68A1
:101160005B68022B03D03B685B68122B23D17B6941
:10117000DA087B68083253F822303B617B6903F060
:1011800007039B000F2202FA03F3DB433A69134083
:101190003B613B681A697B6903F007039B0002FA15
:1011A00003F33A6913433B617B69DA087B680832D1
:1011B000396943F822107B681B683B617B695B00DF
:1011C000032202FA03F3DB433A6913403B613B68B5
:1011D0005B6803F003027B695B0002FA03F33A6980
:1011E00013433B617B683A691A603B685B6803F0B4
:1011F0008053002B00F0B280614B1B6E604A43F0BD
:10120000010313665E4B1B6E03F00103BB60BB68FA
:101210005C4A7B699B08023352F823303B617B694F
:1012200003F003039B000F2202FA03F3DB433A6946
:1012300013403B617B68B3F1904F2BD07B68524ADF
:10124000934225D07B68514A93421FD07B68504A15
:10125000934219D07B684F4A934213D07B684E4A21
:1012600093420DD07B684D4A934207D07B684C4A2D
:10127000934201D107230EE008230CE006230AE085
:10128000052308E0042306E0032304E0022302E030
:10129000012300E000237A6902F0030292009340E8
:1012A0003A6913433B6137497B699B0802333A69CA
:1012B00041F823203B4B1B683B61FB68DB433A69E9
:1012C00013403B613B685B6803F48033002B03D021
:1012D0003A69FB6813433B61324A3B691360314B07
:1012E0005B683B61FB68DB433A6913403B613B68E9
:1012F0005B6803F40033002B03D03A69FB681343A7
:101300003B61284A3B695360264B9B683B61FB6805
:10131000DB433A6913403B613B685B6803F480132D
:10132000002B03D03A69FB6813433B611D4A3B69BC
:1013300093601C4BDB683B61FB68DB433A691340FD
:101340003B613B685B6803F40013002B03D03A69F0
:10135000FB6813433B61134A3B69D3607B690133EC
:101360007B613B681A687B6922FA03F3002B7FF4E8
:1013700091AE00BF00BF1C37BD4680BC704700BFA8
:10138000001002400000014000040048000800482E
:10139000000C0048001000480014004800180048E5
:1013A000001C00480004014080B400AF0C4B1B68D7
:1013B00003F4C063B3F5806F02D14FF480630BE098
:1013C000074BD3F8803003F48073B3F5807F02D1EC
:1013D0004FF4007300E000231846BD4680BC704700
:1013E0000070004080B400AF044B5B68034A43F4D4
:1013F0000073536000BFBD4680BC70470070004062
:1014000080B588B000AF78607B68002B02D10123E3
:1014100000F016BCA04B9B6803F00C03BB619E4B15
:10142000DB6803F003037B617B681B6803F0100338
:10143000002B00F0E480BB69002B07D0BB690C2BAC
:1014400040F08B807B69012B40F08780924B1B68BA
:1014500003F00203002B05D07B689B69002B01D1B0
:101460000123EDE37B681A6A8B4B1B6803F00803CA
:10147000002B04D0884B1B6803F0F00305E0864B7B
:10148000D3F894301B0903F0F003934223D27B6816
:101490001B6A184600F0C6FD0346002B01D001234D
:1014A000CEE37D4B1B687C4A43F0080313607A4B04
:1014B0001B6823F0F0027B681B6A774913430B60BB
:1014C000754B5B6823F47F427B68DB691B027249C2
:1014D00013434B6025E0704B1B686F4A43F00803D1
:1014E00013606D4B1B6823F0F0027B681B6A6A492E
:1014F00013430B60684B5B6823F47F427B68DB69B6
:101500001B02654913434B60BB69002B09D17B6803
:101510001B6A184600F086FD0346002B01D001230C
:101520008EE300F0BFFC02465B4B9B681B0903F097
:101530000F035A49CB5C03F01F0322FA03F3584A06
:101540001360584B1B681846FFF740F90346FB73BE
:10155000FB7B002B52D0FB7B72E37B689B69002BEB
:1015600032D04D4B1B684C4A43F001031360FFF728
:1015700079F9386108E0FFF775F902463B69D31A3B
:10158000022B01D903235BE3434B1B6803F00203E7
:10159000002BF0D0404B1B683F4A43F00803136018
:1015A0003D4B1B6823F0F0027B681B6A3A491343EA
:1015B0000B60394B5B6823F47F427B68DB691B025D
:1015C000354913434B601AE0334B1B68324A23F012
:1015D00001031360FFF746F9386108E0FFF742F9AD
:1015E00002463B69D31A022B01D9032328E32A4B75
:1015F0001B6803F00203002BF0D100E000BF7B6802
:101600001B6803F00103002B73D0BB69082B05D0C6
:10161000BB690C2B0ED17B69032B0BD11E4B1B68B6
:1016200003F40033002B63D07B685B68002B5FD131
:10163000012305E37B685B68B3F5803F06D1164B59
:101640001B68154A43F4803313601DE07B685B68B8
:10165000B3F5A02F0CD1104B1B680F4A43F4802325
:1016600013600D4B1B680C4A43F4803313600BE08E
:10167000094B1B68084A23F480331360064B1B6830
:10168000054A23F4802313607B685B68002B1BD022
:10169000FFF7E8F8386110E0001002402843000826
:1016A0001400002018000020FFF7DCF802463B6918
:1016B000D31A642B01D90323C2E2AF4B1B6803F496
:1016C0000033002BF0D014E0FFF7CCF8386108E0CD
:1016D000FFF7C8F802463B69D31A642B01D90323EC
:1016E000AEE2A54B1B6803F40033002BF0D100E001
:1016F00000BF7B681B6803F00203002B60D0BB694E
:10170000042B05D0BB690C2B19D17B69022B16D198
:10171000994B1B6803F48063002B05D07B68DB6862
:10172000002B01D101238BE2934B5B6823F0FE4237
:101730007B681B691B06904913434B6040E07B6844
:10174000DB68002B23D08C4B1B688B4A43F48073DF
:101750001360FFF787F8386108E0FFF783F8024667
:101760003B69D31A022B01D9032369E2824B1B6820
:1017700003F48063002BF0D07F4B5B6823F0FE42C4
:101780007B681B691B067C4913434B6018E07A4B4E
:101790001B68794A23F480731360FFF763F838619C
:1017A00008E0FFF75FF802463B69D31A022B01D924
:1017B000032345E2704B1B6803F48063002BF0D1D8
:1017C0007B681B6803F00803002B3CD07B685B69D7
:1017D000002B1CD0684BD3F89430674A43F00103C8
:1017E000C2F89430FFF73EF8386108E0FFF73AF8A6
:1017F00002463B69D31A022B01D9032320E25E4B38
:10180000D3F8943003F00203002BEFD01BE05A4BC7
:10181000D3F89430584A23F00103C2F89430FFF70C
:1018200021F8386108E0FFF71DF802463B69D31A3A
:10183000022B01D9032303E24F4BD3F8943003F07A
:101840000203002BEFD17B681B6803F00403002B1D
:1018500000F0A6800023FB77474B9B6D03F080537D
:10186000002B0DD1444B9B6D434A43F0805393654D
:10187000414B9B6D03F08053BB60BB680123FB773A
:101880003E4B1B6803F48073002B18D13B4B1B6845
:101890003A4A43F480731360FEF7E4FF386108E0CE
:1018A000FEF7E0FF02463B69D31A022B01D903235E
:1018B000C6E1324B1B6803F48073002BF0D07B68C9
:1018C0009B68012B08D12C4BD3F890302A4A43F067
:1018D0000103C2F8903024E07B689B68052B10D18F
:1018E000254BD3F89030244A43F00403C2F89030DB
:1018F000214BD3F89030204A43F00103C2F89030D6
:101900000FE01D4BD3F890301B4A23F00103C2F8BF
:101910009030194BD3F89030174A23F00403C2F8E3
:1019200090307B689B68002B16D0FEF79BFF3861D8
:101930000AE0FEF797FF02463B69D31A41F288326C
:10194000934201D903237BE10B4BD3F8903003F092
:101950000203002BEDD01AE0FEF784FF38610FE0A0
:10196000FEF780FF02463B69D31A41F28832934268
:1019700006D9032364E100BF00100240007000405C
:10198000A84BD3F8903003F00203002BE8D1FB7F83
:10199000012B05D1A34B9B6DA24A23F08053936585
:1019A0007B681B6803F02003002B3CD07B685B6ADC
:1019B000002B1CD09B4BD3F898309A4A43F001037C
:1019C000C2F89830FEF74EFF386108E0FEF74AFF94
:1019D00002463B69D31A022B01D9032330E1914B14
:1019E000D3F8983003F00203002BEFD01BE08D4BAF
:1019F000D3F898308B4A23F00103C2F89830FEF7F1
:101A000031FF386108E0FEF72DFF02463B69D31A2B
:101A1000022B01D9032313E1824BD3F8983003F052
:101A20000203002BEFD17B689B6A002B00F007813B
:101A30007B689B6A022B40F0CB807A4BDB687B6132
:101A40007B6903F003027B68DB6A9A422CD17B69D5
:101A500003F0F0027B681B6B013B1B019A4223D110
:101A60007B6903F4FE427B685B6B1B029A421BD1CD
:101A70007B6903F078427B689B6BDB069A4213D14B
:101A80007B6903F4C0027B68DB6B5B08013B5B0591
:101A90009A4209D17B6903F0C0627B681B6C5B08CA
:101AA000013B5B069A426DD0BB690C2B68D05D4B45
:101AB0001B6803F08063002B05D15A4B1B6803F0B1
:101AC0008053002B01D00123BAE0564B1B68554AC6
:101AD00023F080731360FEF7C5FE386108E0FEF75F
:101AE000C1FE02463B69D31A022B01D90323A7E0AA
:101AF0004C4B1B6803F00073002BF0D1494BDA68A4
:101B0000494B13407A68D16A7A68126B013A120124
:101B100011437A68526B120211437A68D26B5208F1
:101B2000013A520511437A68126C5208013A520682
:101B300011437A68926BD2060A433A491343CB6049
:101B4000384B1B68374A43F080731360354BDB68B2
:101B5000344A43F08073D360FEF784FE386108E0B6
:101B6000FEF780FE02463B69D31A022B01D90323FC
:101B700066E02C4B1B6803F00073002BF0D05EE096
:101B800001235DE0274B1B6803F00073002B56D147
:101B9000244B1B68234A43F080731360214BDB689E
:101BA000204A43F08073D360FEF75CFE386108E0A2
:101BB000FEF758FE02463B69D31A022B01D90323D4
:101BC0003EE0184B1B6803F00073002BF0D036E0AA
:101BD000BB690C2B31D0134B1B68124A23F0807366
:101BE0001360104B1B6803F02053002B05D10D4BE5
:101BF000DB680C4A23F00303D3600A4BDB68094A15
:101C000023F0887323F48033D360FEF72BFE386112
:101C10000CE0FEF727FE02463B69D31A022B05D9DA
:101C200003230DE0001002400C809D01064B1B6851
:101C300003F00073002BECD101E0012300E000234E
:101C400018462037BD4680BD0010024080B586B0E2
:101C500000AF7860396000237B617B68002B01D185
:101C600001230FE1894B1B6803F00F033A689A4286
:101C700010D9864B1B6823F00F0284493B6813433D
:101C80000B60824B1B6803F00F033A689A4201D045
:101C90000123F7E07B681B6803F00103002B00F0D1
:101CA00089807B685B68032B33D1794B1B6803F019
:101CB0000073002B01D10123E4E000F00DFA03468C
:101CC000744A934255D9724B9B6803F0F003002B82
:101CD0000AD16F4B9B6823F0F0036D4A43F08003F9
:101CE000936080237B6144E07B681B6803F0020300
:101CF000002B3ED07B689B68002B3AD1644B9B68DD
:101D000023F0F003624A43F08003936080237B61F9
:101D10002FE07B685B68022B07D15D4B1B6803F4E7
:101D20000033002B15D10123ACE07B685B68002BEE
:101D300007D1574B1B6803F00203002B09D1012385
:101D4000A0E0534B1B6803F48063002B01D10123F7
:101D500098E000F0A7F803464E4A934209D94C4B4D
:101D60009B6823F0F0034A4A43F08003936080238A
:101D70007B61474B9B6823F003027B685B684449A7
:101D800013438B60FEF76EFD38610AE0FEF76AFDD3
:101D900002463B69D31A41F28832934201D90323A8
:101DA00070E03B4B9B6803F00C027B685B689B0018
:101DB0009A42EBD17B681B6803F00203002B09D029
:101DC000334B9B6823F0F0027B689B6830491343D8
:101DD0008B6008E07B69802B05D12D4B9B682C4ADA
:101DE00023F0F0039360294B1B6803F00F033A685C
:101DF0009A4210D2254B1B6823F00F0223493B68FF
:101E000013430B60214B1B6803F00F033A689A429F
:101E100001D0012336E07B681B6803F00403002B2C
:101E200008D01B4B9B6823F4E0627B68DB68184991
:101E300013438B607B681B6803F00803002B09D0F9
:101E4000134B9B6823F460527B681B69DB001049CD
:101E500013438B6000F026F802460D4B9B681B096C
:101E600003F00F030C49CB5C03F01F0322FA03F3CA
:101E70000A4A13600A4B1B681846FEF7A7FC034684
:101E8000FB73FB7B18461837BD4680BD002002401F
:101E90000010024000B4C4042843000814000020CD
:101EA0001800002080B489B000AF0023FB6100233C
:101EB000BB613D4B9B6803F00C033B613A4BDB6815
:101EC00003F00303FB603B69002B05D03B690C2B3F
:101ED00021D1FB68012B1ED1334B1B6803F0080393
:101EE000002B07D1304BD3F894301B0A03F00F03BB
:101EF000FB6105E02C4B1B681B0903F00F03FB6122
:101F00002A4AFB6952F82330FB613B69002B0DD153
:101F1000FB69BB610AE03B69042B02D1244BBB6126
:101F200004E03B69082B01D1224BBB613B690C2BC0
:101F300034D11D4BDB6803F00303BB60BB68022B8D
:101F400003D0BB68032B03D005E0194B7B6105E090
:101F5000184B7B6102E0FB697B6100BF124BDB68C1
:101F60001B0903F00F0301337B600F4BDB681B0A77
:101F700003F07F037A6902FB03F27B68B2FBF3F3A1
:101F80007B61094BDB685B0E03F0030301335B00ED
:101F90003B607A693B68B2FBF3F3BB61BB691846EF
:101FA0002437BD4680BC7047001002404043000803
:101FB0000024F40000127A0080B400AF024B1B68CA
:101FC0001846BD4680BC70471400002080B500AFA5
:101FD000FFF7F2FF0246064B9B681B0A03F007035C
:101FE0000449CB5C03F01F0322FA03F3184680BDBB
:101FF000001002403843000880B500AFFFF7DCFF57
:102000000246064B9B68DB0A03F007030449CB5CDE
:1020100003F01F0322FA03F3184680BD00100240AC
:102020003843000880B586B000AF786000233B617C
:10203000274B9B6D03F08053002B03D0FFF7B4F9BF
:10204000786114E0224B9B6D214A43F080539365E5
:102050001F4B9B6D03F08053FB60FB68FFF7A4F9F7
:1020600078611B4B9B6D1A4A23F0805393657B6903
:10207000B3F5007F0BD17B68802B13D97B68A02B35
:1020800002D902233B610DE001233B610AE07B683A
:102090007F2B02D902233B6104E07B68702B01D1C6
:1020A00001233B610B4B1B6823F00F0209493B697D
:1020B00013430B60074B1B6803F00F033A699A4206
:1020C00001D0012300E0002318461837BD4680BD2B
:1020D000001002400020024080B487B000AF00230F
:1020E0007B612D4BDB6803F00303012B18D12A4BD6
:1020F0001B6803F00803002B07D1274BD3F894305B
:102100001B0A03F00F037B6105E0234B1B681B09CF
:1021100003F00F037B61214A7B6952F823307B6116
:102120001D4BDB6803F00303FB60FB68022B03D04D
:10213000FB68032B03D005E0194B3B6105E0194B0D
:102140003B6102E07B693B6100BF134BDB681B090D
:1021500003F00F030133BB600F4BDB681B0A03F076
:102160007F033A6902FB03F2BB68B2FBF3F33B6106
:10217000094BDB685B0E03F0030301335B007B60FC
:102180003A697B68B2FBF3F33B603B6818461C3747
:10219000BD4680BC704700BF0010024040430008AD
:1021A0000024F40000127A0080B582B000AF78609D
:1021B0007B68002B01D1012342E07B68D3F880309B
:1021C000002B06D17B68002283F87C207868FEF71C
:1021D00057FA7B682422C3F880207B681B681A6842
:1021E0007B681B6822F001021A60786800F0D4FA5C
:1021F0000346012B01D1012322E07B689B6A002B5F
:1022000002D0786801F084FC7B681B685A687B68A0
:102210001B6822F490425A607B681B689A687B684E
:102220001B6822F02A029A607B681B681A687B6828
:102230001B6842F001021A60786801F00AFD03464B
:1022400018460837BD4680BD80B58AB002AFF86039
:10225000B9603B601346FB80FB68D3F88030202BCD
:1022600040F08480BB68002B02D0FB88002B01D19A
:1022700001237CE0FB6893F87C30012B01D1022321
:1022800075E0FB68012283F87C20FB680022C3F81C
:102290008820FB682122C3F88020FEF7E3FA7861EA
:1022A000FB68FA88A3F85420FB68FA88A3F8562044
:1022B000FB689B68B3F5805F08D1FB681B69002B46
:1022C00004D10023FB61BB68BB6103E0BB68FB6119
:1022D0000023BB61FB68002283F87C202DE03B6873
:1022E00000937B6900228021F86801F0FAFC034624
:1022F000002B01D003233AE0FB69002B0BD1BB6913
:102300001A88FB681B68C2F3080292B21A85BB697F
:102310000233BB6108E0FB691A78FB681B6892B264
:102320001A85FB690133FB61FB68B3F856309BB239
:10233000013B9AB2FB68A3F85620FB68B3F856300D
:102340009BB2002BCBD13B6800937B6900224021DC
:10235000F86801F0C6FC0346002B01D0032306E019
:10236000FB682022C3F88020002300E002231846E7
:102370002037BD4680BD000080B584B000AFF86056
:10238000B9601346FB80FB68D3F88030202B68D1FE
:10239000BB68002B02D0FB88002B01D1012361E038
:1023A000FB6893F87C30012B01D102235AE0FB68D3
:1023B000012283F87C20FB68BA681A65FB68FA88FA
:1023C000A3F85420FB68FA88A3F85620FB68002283
:1023D000C3F88820FB682122C3F88020FB685B6F6C
:1023E000002B2CD0FB685B6F204ADA62FB685B6FC6
:1023F0001F4A1A63FB685B6F1E4A5A63FB685B6F78
:1024000000229A63FB68586FFB681B6D1946FB68D6
:102410001B6828331A46FB88FEF70CFC0346002B8A
:102420000DD0FB681022C3F88820FB68002283F8D7
:102430007C20FB682022C3F88020012312E0FB6887
:102440001B6840221A62FB68002283F87C20FB682C
:102450001B689A68FB681B6842F080029A60002340
:1024600000E0022318461037BD4680BD613E0008DB
:10247000B53E0008D13E000880B588B000AF786056
:102480007B681B68DB69FB617B681B681B68BB6141
:102490007B681B689B687B61FA6940F60F031340F9
:1024A0003B613B69002B18D1FB6903F02003002B33
:1024B00013D0BB6903F02003002B04D17B6903F028
:1024C0008053002B09D07B68DB6E002B00F0448129
:1024D0007B68DB6E786898473EE13B69002B00F033
:1024E000E8807A69A04B1340002B05D1BA699F4B55
:1024F0001340002B00F0DD80FB6903F00103002B8B
:1025000010D0BB6903F48073002B0BD07B681B6871
:1025100001221A627B68D3F8883043F001027B689D
:10252000C3F88820FB6903F00203002B10D07B69FD
:1025300003F00103002B0BD07B681B6802221A6298
:102540007B68D3F8883043F004027B68C3F88820A6
:10255000FB6903F00403002B10D07B6903F0010337
:10256000002B0BD07B681B6804221A627B68D3F8AF
:10257000883043F002027B68C3F88820FB6903F0CF
:102580000803002B15D0BB6903F02003002B04D1F6
:102590007A69754B1340002B0BD07B681B680822AF
:1025A0001A627B68D3F8883043F008027B68C3F86E
:1025B0008820FB6903F40063002B11D0BB6903F092
:1025C0008063002B0CD07B681B684FF400621A629A
:1025D0007B68D3F8883043F020027B68C3F88820FA
:1025E0007B68D3F88830002B00F0B880FB6903F0DB
:1025F0002003002B11D0BB6903F02003002B04D172
:102600007B6903F08053002B07D07B68DB6E002BC7
:1026100003D07B68DB6E786898477B68D3F8883096
:10262000FB607B681B689B6803F04003402B04D071
:10263000FB6803F02803002B31D0786801F0EEFB33
:102640007B681B689B6803F04003402B23D17B68A9
:102650001B689A687B681B6822F040029A607B685E
:102660009B6F002B13D07B689B6F414A9A637B68FA
:102670009B6F1846FEF759FB0346002B17D07B686B
:102680009B6F9B6B7A68926F104698470FE0786853
:1026900000F079F80BE0786800F075F807E07868EA
:1026A00000F071F87B680022C3F8882056E000BF74
:1026B00054E0FB6903F48013002B0DD07B6903F415
:1026C0008003002B08D07B681B684FF480121A62CD
:1026D000786801F06DFC44E0FB6903F08003002B97
:1026E00012D0BB6903F08003002B04D17B6903F493
:1026F0000003002B08D07B681B6F002B30D07B6859
:102700001B6F786898472BE0FB6903F04003002BB0
:1027100008D0BB6903F04003002B03D0786801F0B8
:102720002DFC1EE0FB6903F40003002B08D0BB69FD
:1027300003F08043002B03D0786801F04BFC10E0DD
:10274000FB6903F08073002B0BD0BB69002B08DA08
:10275000786801F036FC04E000BF02E000BF00E052
:1027600000BF2037BD4680BD0100001020010004DD
:10277000513F000880B483B000AF786000BF0C37D1
:10278000BD4680BC704780B483B000AF786000BFA6
:102790000C37BD4680BC70472DE9B04F8CB000AF00
:1027A000F86000237B62002387F823300023FB615D
:1027B000FB689A68FB681B691A43FB685B691A43EC
:1027C000FB68DB691343FB62FB685B6EFA6A1343C9
:1027D000FB62FB681B681A68AA4B1340FA68126810
:1027E000F96A0B431360FB681B685B6823F4405174
:1027F000FB68DA68FB681B680A435A60FB689B69E0
:10280000FB62FB681B68A04A934204D0FB681B6A0A
:10281000FA6A1343FB62FB681B689B6823F06E43F4
:1028200023F43063FA681268F96A0B439360FB681B
:102830001B68DB6A23F00F01FB685A6AFB681B68A0
:102840000A43DA62FB681B68904A934226D1904B98
:10285000D3F8883003F00303032B1BD801A252F8EE
:1028600023F000BF75280008852800087D2800088F
:102870008D280008012387F82B3016E1022387F802
:102880002B3012E1042387F82B300EE1082387F860
:102890002B300AE1102387F82B3006E1FB681B6818
:1028A0007C4A934238D17A4BD3F8883003F00C033A
:1028B0000C2B2DD801A252F823F000BFF1280008FC
:1028C0001129000811290008112900080129000810
:1028D000112900081129000811290008F928000809
:1028E00011290008112900081129000809290008E8
:1028F000002387F82B30D8E0022387F82B30D4E070
:10290000042387F82B30D0E0082387F82B30CCE065
:10291000102387F82B30C8E0FB681B685E4A93429F
:1029200025D15B4BD3F8883003F03003302B16D021
:10293000302B18D8202B0AD0202B14D8002B02D0F3
:10294000102B08D00FE0002387F82B30ADE00223D6
:1029500087F82B30A9E0042387F82B30A5E0082363
:1029600087F82B30A1E0102387F82B309DE0FB681F
:102970001B684A4A934225D1454BD3F8883003F06F
:10298000C003C02B16D0C02B18D8802B0AD0802BA8
:1029900014D8002B02D0402B08D00FE0002387F87A
:1029A0002B3082E0022387F82B307EE0042387F867
:1029B0002B307AE0082387F82B3076E0102387F855
:1029C0002B3072E0FB681B68354A93422AD1304BAA
:1029D000D3F8883003F44073B3F5407F1AD0B3F5D1
:1029E000407F1BD8B3F5007F0CD0B3F5007F15D81E
:1029F000002B03D0B3F5807F08D00FE0002387F8C9
:102A00002B3052E0022387F82B304EE0042387F866
:102A10002B304AE0082387F82B3046E0102387F854
:102A20002B3042E0FB681B68174A93423AD1184B9F
:102A3000D3F8883003F44063B3F5406F1AD0B3F590
:102A4000406F1BD8B3F5006F0CD0B3F5006F15D8ED
:102A5000002B03D0B3F5806F08D00FE0002387F878
:102A60002B3022E0022387F82B301EE0042387F866
:102A70002B301AE0082387F82B3016E0102387F854
:102A80002B3012E0F369FFCF008000400038014096
:102A9000001002400044004000480040004C00404C
:102AA00000500040102387F82B30FB681B68884AD1
:102AB000934240F01B8497F82B30082B00F25C8186
:102AC00001A252F823F000BFED2A0008792D00087A
:102AD0008F2B0008792D00082D2C0008792D000877
:102AE000792D0008792D0008D92C0008FFF76EFA1F
:102AF0000246FB685B6A002B44D0FB685B6A012BD3
:102B00003ED0FB685B6A022B38D0FB685B6A032B04
:102B100032D0FB685B6A042B2CD0FB685B6A052B08
:102B200026D0FB685B6A062B20D0FB685B6A072B0C
:102B30001AD0FB685B6A082B14D0FB685B6A092B10
:102B40000ED0FB685B6A0A2B08D0FB685B6A0B2B14
:102B500002D14FF4807316E0012314E0802312E0C9
:102B6000402310E020230EE010230CE00C230AE0A9
:102B70000A2308E0082306E0062304E0042302E019
:102B8000022300E00123B2FBF3F3FB61F8E0FB68F2
:102B90005B6A002B44D0FB685B6A012B3ED0FB686C
:102BA0005B6A022B38D0FB685B6A032B32D0FB6870
:102BB0005B6A042B2CD0FB685B6A052B26D0FB6874
:102BC0005B6A062B20D0FB685B6A072B1AD0FB6878
:102BD0005B6A082B14D0FB685B6A092B0ED0FB687C
:102BE0005B6A0A2B08D0FB685B6A0B2B02D14FF49F
:102BF000807316E0012314E0802312E0402310E0EC
:102C000020230EE010230CE00C230AE00A2308E046
:102C1000082306E0062304E0042302E0022300E088
:102C200001232C4AB2FBF3F3FB61A9E0FFF73AF969
:102C30000246FB685B6A002B44D0FB685B6A012B91
:102C40003ED0FB685B6A022B38D0FB685B6A032BC3
:102C500032D0FB685B6A042B2CD0FB685B6A052BC7
:102C600026D0FB685B6A062B20D0FB685B6A072BCB
:102C70001AD0FB685B6A082B14D0FB685B6A092BCF
:102C80000ED0FB685B6A0A2B08D0FB685B6A0B2BD3
:102C900002D14FF4807316E0012314E0802312E088
:102CA000402310E020230EE010230CE00C230AE068
:102CB0000A2308E0082306E0062304E0042302E0D8
:102CC000022300E00123B2FBF3F3FB6158E000BFF5
:102CD000008000400024F400FB685B6A002B44D0B5
:102CE000FB685B6A012B3ED0FB685B6A022B38D025
:102CF000FB685B6A032B32D0FB685B6A042B2CD029
:102D0000FB685B6A052B26D0FB685B6A062B20D02C
:102D1000FB685B6A072B1AD0FB685B6A082B14D030
:102D2000FB685B6A092B0ED0FB685B6A0A2B08D034
:102D3000FB685B6A0B2B02D14FF4807316E0012312
:102D400014E0802312E0402310E020230EE0102343
:102D50000CE00C230AE00A2308E0082306E006231F
:102D600004E0042302E0022300E001234FF40042C8
:102D7000B2FBF3F3FB6103E0012387F8233000BFCC
:102D8000FB69002B00F0AD86FB685A6813465B00B8
:102D90001344FA699A4205D3FB685B681B03FA691E
:102DA0009A4204D9012387F8233000F09ABE97F89D
:102DB0002B30082B00F2828201A252F823F000BFD0
:102DC000E52D0008BD3200081F2F0008BD320008A5
:102DD00051300008BD320008BD320008BD32000885
:102DE0008B310008FFF7F2F8B861BB6918464FF065
:102DF0000001FB685B6A002B67D0FB685B6A012BF4
:102E00005ED0FB685B6A022B55D0FB685B6A032BC4
:102E10004CD0FB685B6A042B43D0FB685B6A052BD4
:102E20003AD0FB685B6A062B31D0FB685B6A072BE4
:102E300028D0FB685B6A082B1FD0FB685B6A092BF4
:102E400016D0FB685B6A0A2B0DD0FB685B6A0B2B04
:102E500004D14FF480724FF000033AE04FF00102CA
:102E60004FF0000335E04FF080024FF0000330E0F8
:102E70004FF040024FF000032BE04FF020024FF0E4
:102E8000000326E04FF010024FF0000321E04FF066
:102E90000C024FF000031CE04FF00A024FF0000359
:102EA00017E04FF008024FF0000312E04FF0060267
:102EB0004FF000030DE04FF004024FF0000308E074
:102EC0004FF002024FF0000303E04FF001024FF019
:102ED0000003FDF775F902460B46104619464FF000
:102EE00000024FF000030B0243EA10630202F9688C
:102EF0004968490808464FF0000114183C604B41EE
:102F00007B60FB685B681A464FF00003D7E900015D
:102F1000FDF756F902460B4613467B62D2E1FB6889
:102F20005B6A002B67D0FB685B6A012B5ED0FB6895
:102F30005B6A022B55D0FB685B6A032B4CD0FB68A5
:102F40005B6A042B43D0FB685B6A052B3AD0FB68B5
:102F50005B6A062B31D0FB685B6A072B28D0FB68C5
:102F60005B6A082B1FD0FB685B6A092B16D0FB68D5
:102F70005B6A0A2B0DD0FB685B6A0B2B04D14FF404
:102F800080724FF000033AE04FF001024FF000036F
:102F900035E04FF080024FF0000330E04FF0400288
:102FA0004FF000032BE04FF020024FF0000326E02B
:102FB0004FF010024FF0000321E04FF00C024FF0F1
:102FC00000031CE04FF00A024FF0000317E04FF03F
:102FD00008024FF0000312E04FF006024FF000032A
:102FE0000DE04FF004024FF0000308E04FF0020242
:102FF0004FF0000303E04FF001024FF00003BA4826
:103000004FF00001FDF7DCF802460B46104619466A
:103010004FF000024FF000030B0243EA106302027C
:10302000F9684968490808464FF0000112EB000AA8
:1030300043EB010BFB685B681A464FF000035046F8
:103040005946FDF7BDF802460B4613467B6239E14F
:10305000FEF728FFB861BB6918464FF00001FB6816
:103060005B6A002B67D0FB685B6A012B5ED0FB6854
:103070005B6A022B55D0FB685B6A032B4CD0FB6864
:103080005B6A042B43D0FB685B6A052B3AD0FB6874
:103090005B6A062B31D0FB685B6A072B28D0FB6884
:1030A0005B6A082B1FD0FB685B6A092B16D0FB6894
:1030B0005B6A0A2B0DD0FB685B6A0B2B04D14FF4C3
:1030C00080724FF000033AE04FF001024FF000032E
:1030D00035E04FF080024FF0000330E04FF0400247
:1030E0004FF000032BE04FF020024FF0000326E0EA
:1030F0004FF010024FF0000321E04FF00C024FF0B0
:1031000000031CE04FF00A024FF0000317E04FF0FD
:1031100008024FF0000312E04FF006024FF00003E8
:103120000DE04FF004024FF0000308E04FF0020200
:103130004FF0000303E04FF001024FF00003FDF7F2
:103140003FF802460B46104619464FF000024FF07A
:1031500000030B0243EA10630202F9684968490858
:1031600008464FF0000112EB000843EB0109FB6831
:103170005B681A464FF0000340464946FDF720F8C9
:1031800002460B4613467B629CE0FB685B6A002BA1
:1031900067D0FB685B6A012B5ED0FB685B6A022B21
:1031A00055D0FB685B6A032B4CD0FB685B6A042B31
:1031B00043D0FB685B6A052B3AD0FB685B6A062B41
:1031C00031D0FB685B6A072B28D0FB685B6A082B51
:1031D0001FD0FB685B6A092B16D0FB685B6A0A2B61
:1031E0000DD0FB685B6A0B2B04D14FF480724FF05B
:1031F00000033AE04FF001024FF0000335E04FF0DA
:1032000080024FF0000330E04FF040024FF0000327
:103210002BE04FF020024FF0000326E04FF01002A9
:103220004FF0000321E04FF00C024FF000031CE0D0
:103230004FF00A024FF0000317E04FF008024FF082
:10324000000312E04FF006024FF000030DE04FF0D4
:1032500004024FF0000308E04FF002024FF00003B9
:1032600003E04FF001024FF000034FF400404FF035
:103270000001FCF7A5FF02460B46104619464FF029
:1032800000024FF000030B0243EA10630202F968E8
:103290004968490808464FF00001141843EB01053E
:1032A000FB685B681A464FF0000320462946FCF78E
:1032B00087FF02460B4613467B6203E0012387F833
:1032C000233000BF7B6AB3F5407F09D37B6AB3F537
:1032D000801F05D2FB681B687A6ADA6000F001BCC7
:1032E000012387F82330FCE30024F400FB68DB694A
:1032F000B3F5004F40F0038297F82B30082B00F213
:10330000DC8101A252F823F02D330008E5330008D8
:103310009D340008BB3600084F350008BB36000856
:10332000BB360008BB36000807360008FEF74EFE25
:10333000B861FB685B6A002B44D0FB685B6A012BB9
:103340003ED0FB685B6A022B38D0FB685B6A032BBC
:1033500032D0FB685B6A042B2CD0FB685B6A052BC0
:1033600026D0FB685B6A062B20D0FB685B6A072BC4
:103370001AD0FB685B6A082B14D0FB685B6A092BC8
:103380000ED0FB685B6A0A2B08D0FB685B6A0B2BCC
:1033900002D14FF4807316E0012314E0802312E081
:1033A000402310E020230EE010230CE00C230AE061
:1033B0000A2308E0082306E0062304E0042302E0D1
:1033C000022300E00123BA69B2FBF3F35A00FB6861
:1033D0005B685B081A44FB685B68B2FBF3F39BB263
:1033E0007B626EE1FEF708FEB861FB685B6A002B4A
:1033F00044D0FB685B6A012B3ED0FB685B6A022B02
:1034000038D0FB685B6A032B32D0FB685B6A042B05
:103410002CD0FB685B6A052B26D0FB685B6A062B09
:1034200020D0FB685B6A072B1AD0FB685B6A082B0D
:1034300014D0FB685B6A092B0ED0FB685B6A0A2B11
:1034400008D0FB685B6A0B2B02D14FF4807316E047
:10345000012314E0802312E0402310E020230EE03B
:1034600010230CE00C230AE00A2308E0082306E0FE
:10347000062304E0042302E0022300E00123BA69EA
:10348000B2FBF3F35A00FB685B685B081A44FB6805
:103490005B68B2FBF3F39BB27B6212E1FB685B6A91
:1034A000002B44D0FB685B6A012B3ED0FB685B6A53
:1034B000022B38D0FB685B6A032B32D0FB685B6A57
:1034C000042B2CD0FB685B6A052B26D0FB685B6A5B
:1034D000062B20D0FB685B6A072B1AD0FB685B6A5F
:1034E000082B14D0FB685B6A092B0ED0FB685B6A63
:1034F0000A2B08D0FB685B6A0B2B02D14FF4807358
:1035000016E0012314E0802312E0402310E0202382
:103510000EE010230CE00C230AE00A2308E0082345
:1035200006E0062304E0042302E0022300E0012376
:10353000A14AB2FBF3F35A00FB685B685B081A44CC
:10354000FB685B68B2FBF3F39BB27B62B9E0FEF70A
:10355000A9FCB861FB685B6A002B44D0FB685B6A1E
:10356000012B3ED0FB685B6A022B38D0FB685B6A9C
:10357000032B32D0FB685B6A042B2CD0FB685B6AA0
:10358000052B26D0FB685B6A062B20D0FB685B6AA4
:10359000072B1AD0FB685B6A082B14D0FB685B6AA8
:1035A000092B0ED0FB685B6A0A2B08D0FB685B6AAC
:1035B0000B2B02D14FF4807316E0012314E080231B
:1035C00012E0402310E020230EE010230CE00C2337
:1035D0000AE00A2308E0082306E0062304E00423A7
:1035E00002E0022300E00123BA69B2FBF3F35A00C0
:1035F000FB685B685B081A44FB685B68B2FBF3F32B
:103600009BB27B625DE0FB685B6A002B44D0FB6889
:103610005B6A012B3ED0FB685B6A022B38D0FB68EB
:103620005B6A032B32D0FB685B6A042B2CD0FB68EF
:103630005B6A052B26D0FB685B6A062B20D0FB68F3
:103640005B6A072B1AD0FB685B6A082B14D0FB68F7
:103650005B6A092B0ED0FB685B6A0A2B08D0FB68FB
:103660005B6A0B2B02D14FF4807316E0012314E048
:10367000802312E0402310E020230EE010230CE012
:103680000C230AE00A2308E0082306E0062304E0EE
:10369000042302E0022300E001234FF40042B2FBC6
:1036A000F3F35A00FB685B685B081A44FB685B68CD
:1036B000B2FBF3F39BB27B6203E0012387F8233074
:1036C00000BF7B6A0F2B16D97B6AB3F5803F12D2FD
:1036D0007B6A9BB223F00F03FB827B6A5B089BB281
:1036E00003F007039AB2FB8A1343FB82FB681B6853
:1036F000FA8ADA60F5E1012387F82330F1E197F8DF
:103700002B30082B00F2DA8101A252F823F000BF1F
:1037100035370008EF370008A5380008BD3A000823
:1037200055390008BD3A0008BD3A0008BD3A000806
:103730000B3A0008FEF74AFCB861FB685B6A002B95
:1037400046D0FB685B6A012B40D0FB685B6A022BAA
:103750003AD0FB685B6A032B34D0FB685B6A042BAE
:103760002ED0FB685B6A052B28D0FB685B6A062BB2
:1037700020D0FB685B6A072B1AD0FB685B6A082BBA
:1037800014D0FB685B6A092B0ED0FB685B6A0A2BBE
:1037900008D0FB685B6A0B2B02D14FF4807318E0F2
:1037A000012316E0802314E0402312E0202310E0E0
:1037B00010230EE00C230CE00024F4000A2308E0A0
:1037C000082306E0062304E0042302E0022300E0CD
:1037D0000123BA69B2FBF3F2FB685B685B081A4429
:1037E000FB685B68B2FBF3F39BB27B626AE1FEF7B6
:1037F00003FCB861FB685B6A002B44D0FB685B6A22
:10380000012B3ED0FB685B6A022B38D0FB685B6AF9
:10381000032B32D0FB685B6A042B2CD0FB685B6AFD
:10382000052B26D0FB685B6A062B20D0FB685B6A01
:10383000072B1AD0FB685B6A082B14D0FB685B6A05
:10384000092B0ED0FB685B6A0A2B08D0FB685B6A09
:103850000B2B02D14FF4807316E0012314E0802378
:1038600012E0402310E020230EE010230CE00C2394
:103870000AE00A2308E0082306E0062304E0042304
:1038800002E0022300E00123BA69B2FBF3F2FB6815
:103890005B685B081A44FB685B68B2FBF3F39BB29E
:1038A0007B620FE1FB685B6A002B44D0FB685B6ABC
:1038B000012B3ED0FB685B6A022B38D0FB685B6A49
:1038C000032B32D0FB685B6A042B2CD0FB685B6A4D
:1038D000052B26D0FB685B6A062B20D0FB685B6A51
:1038E000072B1AD0FB685B6A082B14D0FB685B6A55
:1038F000092B0ED0FB685B6A0A2B08D0FB685B6A59
:103900000B2B02D14FF4807316E0012314E08023C7
:1039100012E0402310E020230EE010230CE00C23E3
:103920000AE00A2308E0082306E0062304E0042353
:1039300002E0022300E00123744AB2FBF3F2FB68C9
:103940005B685B081A44FB685B68B2FBF3F39BB2ED
:103950007B62B7E0FEF7A6FAB861FB685B6A002BF2
:1039600044D0FB685B6A012B3ED0FB685B6A022B8C
:1039700038D0FB685B6A032B32D0FB685B6A042B90
:103980002CD0FB685B6A052B26D0FB685B6A062B94
:1039900020D0FB685B6A072B1AD0FB685B6A082B98
:1039A00014D0FB685B6A092B0ED0FB685B6A0A2B9C
:1039B00008D0FB685B6A0B2B02D14FF4807316E0D2
:1039C000012314E0802312E0402310E020230EE0C6
:1039D00010230CE00C230AE00A2308E0082306E089
:1039E000062304E0042302E0022300E00123BA6975
:1039F000B2FBF3F2FB685B685B081A44FB685B6828
:103A0000B2FBF3F39BB27B625CE0FB685B6A002B6A
:103A100044D0FB685B6A012B3ED0FB685B6A022BDB
:103A200038D0FB685B6A032B32D0FB685B6A042BDF
:103A30002CD0FB685B6A052B26D0FB685B6A062BE3
:103A400020D0FB685B6A072B1AD0FB685B6A082BE7
:103A500014D0FB685B6A092B0ED0FB685B6A0A2BEB
:103A600008D0FB685B6A0B2B02D14FF4807316E021
:103A7000012314E0802312E0402310E020230EE015
:103A800010230CE00C230AE00A2308E0082306E0D8
:103A9000062304E0042302E0022300E001234FF4A4
:103AA0000042B2FBF3F2FB685B685B081A44FB68F8
:103AB0005B68B2FBF3F39BB27B6203E0012387F800
:103AC000233000BF7B6A0F2B08D97B6AB3F5803F98
:103AD00004D2FB681B687A6ADA6002E0012387F887
:103AE0002330FB680122A3F86A20FB680122A3F8B7
:103AF0006820FB680022DA66FB6800221A6797F8E4
:103B0000233018463037BD46BDE8B08F0024F4009E
:103B100080B483B000AF78607B689B6A03F00103D8
:103B2000002B0AD07B681B685B6823F400317B683C
:103B3000DA6A7B681B680A435A607B689B6A03F0F9
:103B40000203002B0AD07B681B685B6823F480317A
:103B50007B681A6B7B681B680A435A607B689B6AA8
:103B600003F00403002B0AD07B681B685B6823F416
:103B700080217B685A6B7B681B680A435A607B68AC
:103B80009B6A03F00803002B0AD07B681B685B6804
:103B900023F400417B689A6B7B681B680A435A6078
:103BA0007B689B6A03F01003002B0AD07B681B68BC
:103BB0009B6823F480517B68DA6B7B681B680A433F
:103BC0009A607B689B6A03F02003002B0AD07B6815
:103BD0001B689B6823F400517B681A6C7B681B6828
:103BE0000A439A607B689B6A03F04003002B1AD05B
:103BF0007B681B685B6823F480117B685A6C7B6868
:103C00001B680A435A607B685B6CB3F5801F0AD15E
:103C10007B681B685B6823F4C0017B689A6C7B68D7
:103C20001B680A435A607B689B6A03F08003002B81
:103C30000AD07B681B685B6823F400217B68DA6C20
:103C40007B681B680A435A6000BF0C37BD4680BCC6
:103C5000704780B586B002AF78607B680022C3F8F9
:103C60008820FCF7FFFDF8607B681B681B6803F089
:103C70000803082B0ED16FF07E430093FB680022EF
:103C80004FF40011786800F02CF80346002B01D0A7
:103C9000032322E07B681B681B6803F00403042BEA
:103CA0000ED16FF07E430093FB6800224FF4800139
:103CB000786800F016F80346002B01D003230CE0CF
:103CC0007B682022C3F880207B682022C3F88420F0
:103CD0007B68002283F87C20002318461037BD46FD
:103CE00080BD80B584B000AFF860B9603B6013461A
:103CF000FB7162E0BB69B3F1FF3F5ED0FCF7B2FD40
:103D000002463B68D31ABA699A4202D3BB69002BB8
:103D10001DD1FB681B681A68FB681B6822F4D0720F
:103D20001A60FB681B689A68FB681B6822F0010236
:103D30009A60FB682022C3F88020FB682022C3F829
:103D40008420FB68002283F87C20032345E0FB6885
:103D50001B681B6803F00403002B2ED0FB681B6854
:103D6000DB6903F40063B3F5006F26D1FB681B68C1
:103D70004FF400621A62FB681B681A68FB681B68D4
:103D800022F4D0721A60FB681B689A68FB681B6893
:103D900022F001029A60FB682022C3F88020FB68B1
:103DA0002022C3F88420FB682022C3F88820FB6807
:103DB000002283F87C2003230FE0FB681B68DA698C
:103DC000BB681340BA689A420CBF01230023DBB2E0
:103DD0001A46FB799A428DD0002318461037BD460B
:103DE00080BD80B483B000AF78607B681B681A68C0
:103DF0007B681B6822F0C0021A607B681B689A68A7
:103E00007B681B6822F400029A607B682022C3F85A
:103E1000802000BF0C37BD4680BC704780B483B0A3
:103E200000AF78607B681B681A687B681B6822F4A7
:103E300090721A607B681B689B687A68126823F02E
:103E4000805323F0010393607B682022C3F8842011
:103E50007B680022DA6600BF0C37BD4680BC704725
:103E600080B584B000AF78607B689B6AFB607B683C
:103E70001B681B6803F02003002B14D1FB68002291
:103E8000A3F85620FB681B689A68FB681B6822F041
:103E900080029A60FB681B681A68FB681B6842F026
:103EA00040021A6002E0F868FCF7AAFB00BF103776
:103EB000BD4680BD80B584B000AF78607B689B6AEA
:103EC000FB60F868FEF756FC00BF1037BD4680BDAA
:103ED00080B586B000AF78607B689B6A7B617B6948
:103EE000D3F880303B617B69D3F88430FB607B6919
:103EF0001B689B6803F08003802B09D13B69212B51
:103F000006D17B690022A3F856207869FFF769FF84
:103F10007B691B689B6803F04003402B09D1FB6859
:103F2000222B06D17B690022A3F85E207869FFF777
:103F300075FF7B69D3F8883043F010027B69C3F8C2
:103F400088207869FEF71FFC00BF1837BD4680BD8A
:103F500080B584B000AF78607B689B6AFB60FB68CB
:103F60000022A3F85E20FB680022A3F85620F86820
:103F7000FEF709FC00BF1037BD4680BD80B582B09A
:103F800000AF78607B681B681A687B681B6822F04A
:103F900040021A607B682022C3F880207B680022E0
:103FA0001A677868FCF72CFB00BF0837BD4680BD58
:103FB00080B483B000AF786000BF0C37BD4680BCD2
:103FC000704780B483B000AF786000BF0C37BD4647
:103FD00080BC704780B483B000AF786000BF0C37FE
:103FE000BD4680BC704700002DE9F047089E0D4695
:103FF00004468E46002B40F082808A42174646D9FE
:10400000B2FA82F24AB1C2F1200105FA02F320FAB3
:1040100001F1974041EA030E94404FEA1748230C00
:10402000BEFBF8FCB9B208FB1CEE43EA0E430CFBE6
:1040300001F098420AD9FB180CF1FF3580F0168187
:10404000984240F21381ACF1020C3B441B1AA4B21B
:10405000B3FBF8F008FB103344EA034400FB01F122
:10406000A14209D93C1900F1FF3380F00181A1423E
:1040700040F2FE8002383C44641A40EA0C400021C1
:104080001EB1D4400023C6E90043BDE8F08702B961
:10409000FFDEB2FA82F2002A4FD1CB1B4FEA174E55
:1040A0001FFA87F80121B3FBFEFC250C0EFB1C3325
:1040B00045EA034508FB0CF3AB4207D97D190CF127
:1040C000FF3002D2AB4200F2E7808446ED1AA3B281
:1040D000B5FBFEF00EFB105543EA054408FB00F863
:1040E000A04507D93C1900F1FF3302D2A04500F2E8
:1040F000D7801846A4EB080440EA0C40C0E78B4286
:1041000008D9002E00F0AF800021C6E9000508465E
:10411000BDE8F087B3FA83F100294BD1AB4202D35B
:10412000824200F2B780841A65EB030301209E46A9
:10413000002EAAD0C6E9004EA7E7C2F1200C01FA72
:1041400002F3974020FA0CF04FEA174E21FA0CFCCC
:104150001843BCFBFEF1050C0EFB11CC1FFA87F8CF
:1041600045EA0C4501FB08F3AB4204FA02F409D915
:104170007D1901F1FF3C80F08B80AB4240F28880DA
:1041800002393D44EB1A85B2B3FBFEF00EFB10334F
:1041900045EA034500FB08F3AB4207D97D1900F15E
:1041A000FF3C71D2AB426FD902383D44EB1A40EA72
:1041B000014178E7C1F1200C8B4022FA0CF71F4334
:1041C00020FA0CF405FA01F34FEA174E25FA0CF524
:1041D0001C43230CB5FBFEF91FFA87F80EFB19559B
:1041E00043EA054509FB08FAAA4502FA01F200FA7A
:1041F00001F308D97D1909F1FF3047D2AA4545D905
:10420000A9F102093D44A5EB0A05A4B2B5FBFEF0F5
:104210000EFB105544EA054400FB08F8A04507D9F9
:104220003C1900F1FF352DD2A0452BD902383C4472
:1042300040EA0940A4EB0804A0FB02894C45C646AD
:104240004D4619D316D05EB1B3EB0E0264EB0504F4
:1042500004FA0CFCCA404CEA0202CC40C6E9002435
:104260000021BDE8F087314630460EE7AC46EDE66A
:10427000184601E74345E6D2B8EB020E69EB0705A5
:104280000138E0E72846D3E760468FE78146BAE782
:10429000614677E708464BE7ACF1020C3D4415E771
:1042A00002383C4426E700BF70B50D4D0D4C641B31
:1042B000A4100026A64209D10B4D0C4C00F020F8AA
:1042C000641BA4100026A64205D170BD55F8043B1E
:1042D00098470136EEE755F8043B98470136F2E778
:1042E0007843000878430008784300087C430008BE
:1042F00002440346934200D1704703F8011BF9E7DB
:10430000F8B500BFF8BC08BC9E467047F8B500BFC2
:08431000F8BC08BC9E46704792
:10431800545820636F6D706C65746564200D0A00D5
:10432800000000000000000001020304060708095D
:104338000000000001020304A0860100400D0300F4
:10434800801A060000350C0040420F0080841E00D1
:1043580000093D0000127A000024F40000366E01C6
:084368000048E801006CDC02D2
:0843700078FCFF7F0100000052
:0843780029020008000000000A
:08438000050200080000000026
:1043880068656C6C6F20776F726C6421200D0A0071
:104398000000000000093D001000000001000000BE
:0400000508000245A8
:00000001FF
