:020000040800F2
:1000000000000A2091020008E1020008E102000855
:10001000E1020008E1020008E1020008000000001F
:10002000000000000000000000000000E1020008E5
:10003000E102000800000000E1020008E3020008FD
:10004000E1020008E1020008E1020008E102000804
:10005000E1020008E1020008E1020008E1020008F4
:10006000E1020008E1020008E1020008E1020008E4
:10007000E1020008E1020008E1020008E1020008D4
:10008000E1020008E1020008E1020008E1020008C4
:10009000E1020008E1020008E1020008E1020008B4
:1000A000E1020008E1020008E1020008E1020008A4
:1000B000E1020008E1020008E1020008E102000894
:1000C000E1020008E1020008E1020008E102000884
:1000D000E1020008E1020008E1020008F502000860
:1000E000E1020008E1020008E1020008E102000864
:1000F000E1020008E1020008E1020008000000003F
:10010000E1020008E1020008E1020008E102000843
:10011000E1020008E1020008E1020008E102000833
:10012000E1020008E1020008E1020008E102000823
:10013000E1020008E1020008E1020008E102000813
:10014000E1020008E1020008E1020008E102000803
:10015000E1020008E1020008E1020008E1020008F3
:10016000E1020008E1020008E1020008E1020008E3
:10017000E1020008E10200080000000000000000A9
:10018000E1020008E1020008E1020008E1020008C3
:10019000E1020008E1020008000000000000000089
:1001A0000000000000000000E1020008E102000879
:1001B000E1020008E1020008E1020008000000007E
:1001C00053B94AB9002908BF00281CBF4FF0FF31BE
:1001D0004FF0FF3000F00CB8ADF1080C6DE904CE23
:1001E00001F0DCFEDDF804E0DDE9022304B0704735
:1001F000704700BF034613F8012B002AFBD1181AE1
:10020000013870470348044B834202D0034B03B1CB
:100210001847704710000020100000200000000068
:1002200005480649091A891001EBD171491002D01D
:10023000034B03B118477047100000201000002046
:100240000000000010B5064C237843B9FFF7DAFF31
:10025000044B13B10448AFF300800123237010BD99
:100260001000002000000000B422000808B5054B73
:100270001BB105490548AFF30080BDE80840FFF712
:10028000CFBF00BF0000000014000020B42200080F
:10029000DFF834D0002103E00C4B5B5843500431AD
:1002A0000B480C4B42189A42F6D30B4A02E000234B
:1002B00042F8043B094B9A42F9D300F025F901F0CA
:1002C000D5FF00F021F8FEE700000A2040230008D7
:1002D0000000002010000020100000202801002055
:1002E000FEE780B500AF00F065F900F0E0F900BF6F
:1002F00080BD000080B500AF024800F03BFD00BFAC
:1003000080BD00BF3000002080B582B000AF00F09B
:1003100041F900F01DF800F021F80A4B1B6818465F
:10032000FFF768FF0346FB80064B1968FA884FF019
:10033000FF33054801F053FD01220449024800F053
:1003400065FBFEE70000002030000020BC0000201C
:1003500080B400AF00BFBD4680BC704780B500AF21
:100360000F4B104A1A600E4B4FF4E1325A600C4B9F
:1003700000229A600A4B0022DA60094B00221A61BF
:10038000074B00229A61064B0C225A61044801F087
:10039000CFFD0346002B01D000F006F800BF80BD62
:1003A000300000200048004080B400AF00BFBD46D0
:1003B00080BC704780B582B000AF78601A4B1B7864
:1003C0001A461A4B19781A4B9954184B1B780D2B57
:1003D00016D1184B01221A70134B1B785A1CD1B23C
:1003E000114A11701A46124B0D2199540E4B1B786D
:1003F0009AB24FF0FF330E490F4801F0F0FC05E0D0
:10040000094B1B780133DAB2074B1A70094B1B7882
:10041000012B04D001220549074800F0F7FA00BF7C
:100420000837BD4680BD00BF2D000020BC00002065
:10043000C00000202C0000203000002080B500AF5C
:10044000032000F0C9F80D4B5B6A0C4A43F4E0232B
:100450005362002200216FF00B0000F0CFF8002261
:1004600000216FF00A0000F0C9F8002200216FF0AF
:10047000090000F0C3F800BF80BD00BF00ED00E040
:1004800080B58AB000AF78601D4B9B6D1C4A43F469
:10049000802393651A4B9B6D03F480233B613B697A
:1004A000174BDB6C164A43F00803D364144BDB6C28
:1004B00003F00803FB60FB684FF480737B61022349
:1004C000BB6100233B6207237B6207F114031946DB
:1004D0000C4800F029F94FF400737B6107F1140315
:1004E0001946084800F020F9272000F0BBF8002248
:1004F0000F21272000F082F800BF2837BD4680BDBD
:1005000000100240000C00480C4B1A6842F0010237
:100510001A60002199601A6822F0A85222F4102271
:100520001A604FF48052DA601A6822F480221A604E
:100530009961034B4FF000629A60704700100240CF
:1005400000ED00E0104B1B680BB90120704710B59F
:1005500004464FF47A70B0FBF3F30C4A1068B0FB1A
:10056000F3F000F08DF868B90F2C01D901200AE0F2
:10057000002221464FF0FF3000F040F8044B1C6091
:10058000002000E0012010BD080000200400002031
:100590000C00002010B5032000F01EF80020FFF72B
:1005A000D1FF10B10124204610BD0446FFF746FFDD
:1005B000F9E70000034A1368034909680B44136014
:1005C000704700BF2401002008000020014B18687C
:1005D000704700BF24010020074AD36823F4E0637A
:1005E0001B041B0C000200F4E060184340F0BF60E5
:1005F00040F40030D060704700ED00E030B4174B9D
:10060000DB68C3F30223C3F10704042C28BF0424CE
:100610001D1D062D01D9033B00E000234FF0FF35DF
:1006200005FA04F421EA0401994005FA03F322EAE9
:1006300003031943002809DB0901C9B200F1604036
:1006400000F5614080F8001330BC704700F00F00E7
:100650000901C9B2024B1954F6E700BF00ED00E0F2
:1006600014ED00E0002807DB00F01F024009012321
:100670009340024A42F82030704700BF00E100E09A
:100680000138B0F1807F0AD2064B5860064AF0214B
:1006900082F823100020986007221A60704701201A
:1006A000704700BF10E000E000ED00E0704708B5C3
:1006B000FFF7FCFF08BD08B590F82530DBB2022B30
:1006C00003D00423C363012008BD0268136823F02C
:1006D0000E0313600268136823F001031360826C39
:1006E000136823F480731360436C03F01C02016CE5
:1006F000012393404B60C36C026D5A60436D33B16C
:100700001A6822F480721A60836DC26D5A600123E8
:1007100080F82530002380F82430836B13B198478C
:100720000020D1E70020CFE7F0B482B0002336E00C
:10073000072400E00024B4403C430235644E46F8F0
:100740002540644C2568D44304EA05064F6817F435
:10075000803F01D042EA05065E4D2E606D6804EAD6
:1007600005064F6817F4003F01D042EA0506594DCF
:100770006E60AD6804EA05064F6817F4801F01D06B
:1007800042EA0506534DAE60ED682C404E6816F403
:10079000001F01D042EA05044E4AD46001330A68C2
:1007A00032FA03F400F0918001249C402240F5D0FD
:1007B0004D68022D01D0122D10D1DE08083650F8F8
:1007C00026C003F00705AF000F25BD402CEA050C3D
:1007D0000D69BD4045EA0C0540F8265006685F00EB
:1007E0000325BD40ED4305EA060C4E6806F00306FE
:1007F000BE4046EA0C0606604E6806F1FF3CBCF1BE
:10080000010F03D9112E01D0122E10D1866805EAEE
:10081000060CCE68BE4046EA0C068660466826EAAC
:1008200004044E68C6F300169E4026434660C46822
:1008300025408C68BC402C43C4604C6814F0805F39
:10084000ACD0254C256E45F001052566246E04F0DC
:1008500001040194019C9D08AE1C1D4C54F82670A7
:1008600003F00304A6000F24B44027EA0407B0F104
:10087000904F3FF45FAF194CA0421AD004F580644A
:10088000A04218D004F58064A04216D004F580641C
:10089000A04214D004F58064A04212D004F5806414
:1008A000A04210D004F58064A0423FF441AF082478
:1008B00041E701243FE702243DE703243BE704240A
:1008C00039E7052437E7062435E702B0F0BC704766
:1008D00000000140000401400010024000040048F4
:1008E000284A9368D26802F0030213F00C030AD07E
:1008F0000C2B06D0042B1FD0082B20D00020024642
:1009000010E0012AF6D11F4A126812F0080F0CD12C
:100910001C4AD2F89420C2F303221B4951F822202A
:1009200043B100200C2B0DD07047164A1268C2F359
:100930000312F2E71046F5E714480022F2E71448E4
:100940000022EFE70F4BDB6803F00303022B15D007
:10095000032B15D00B4BD868C0F303100130D968B6
:10096000C1F3062102FB01F2B2FBF0F2D868C0F33A
:10097000416001304000B2FBF0F0D5E7034AE9E7FF
:10098000034AE7E700100240F42200080024F400C4
:1009900000127A00014B1868704700BF0400002065
:1009A00008B5FFF7F7FF054B9B68C3F30223044A22
:1009B000D35C03F01F03D84008BD00BF0010024005
:1009C000EC22000808B5FFF7E5FF054B9B68C3F371
:1009D000C223044AD35C03F01F03D84008BD00BF04
:1009E00000100240EC2200080268136823F49073A0
:1009F00013600268936823F0805323F0010393602F
:100A00002023C0F884300023C3667047D0F88430B8
:100A1000202B7ED100297ED0002A7ED090F87C3019
:100A2000012B7CD0012380F87C308165A0F85C200C
:100A3000A0F85E200023C3668368B3F5805F06D00C
:100A4000A3B9036973B9FF23A0F8603014E0036908
:100A500023B940F2FF13A0F860300DE0FF23A0F8A7
:100A6000603009E07F23A0F8603005E0B3F1805FDB
:100A700021D00023A0F860300023C0F88830222362
:100A8000C0F8843001688B6843F001038B60436ECB
:100A9000B3F1005F19D08368B3F5805F33D0214B89
:100AA000C366002380F87C300268136843F49073B7
:100AB00013600020704703691BB97F23A0F86030E2
:100AC000DAE73F23A0F86030D6E7B0F86830934209
:100AD000E1D88368B3F5805F0FD0134BC366002362
:100AE00080F87C300268136843F4807313600268F6
:100AF000936843F080539360DBE70369002BECD1EC
:100B00000A4BC366EBE70369002BC8D1084BC366E9
:100B1000C7E702207047012070470120704702207C
:100B2000704700BF530B00081D0C0008C90C0008DB
:100B3000B90B0008704708B501680A6822F0400246
:100B40000A602022C0F8802000220267FFF7F2FF2F
:100B500008BD08B5B0F86030D0F88420222A05D04E
:100B60000268138B43F00803138308BD0268918C5D
:100B7000DBB2826D0B401370836D01338365B0F877
:100B80005E30013B9BB2A0F85E30B0F85E309BB2A5
:100B9000002BEAD10268136823F490731360026893
:100BA000936823F0010393602023C0F8843000236E
:100BB000C366FFF7FFFBD8E708B5B0F86030D0F8A0
:100BC0008420222A05D00268138B43F00803138384
:100BD00008BD0268918C826D0B401380836D0233D7
:100BE0008365B0F85E30013B9BB2A0F85E30B0F890
:100BF0005E309BB2002BEBD10268136823F4907334
:100C000013600268936823F0010393602023C0F807
:100C100084300023C366FFF7CDFBD9E770B5B0F889
:100C20006050D0F88430222B05D00268138B43F03B
:100C30000803138370BD0446B0F8686015E02268AD
:100C4000136823F4807313602268936823F0805341
:100C500023F0010393602023C4F884300023E3666B
:100C60002046FFF7A7FB013EB6B2A6B12368998CD8
:100C7000EBB2A26D0B401370A36D0133A365B4F802
:100C80005E30013B9BB2A4F85E30B4F85E309BB29C
:100C9000002BE8D1D3E7B4F85E309BB2002BC9D06B
:100CA000B4F868209A42C5D92268936823F080532B
:100CB0009360044BE3662268136843F020031360DB
:100CC000B8E700BF530B000870B5B0F86060D0F80B
:100CD0008430222B05D00268138B43F00803138362
:100CE00070BD0446B0F8685015E02268136823F41C
:100CF000807313602268936823F0805323F001030C
:100D000093602023C4F884300023E3662046FFF775
:100D100051FB013DADB29DB123689B8CA26D334068
:100D20001380A36D0233A365B4F85E30013B9BB220
:100D3000A4F85E30B4F85E309BB2002BE9D1D4E762
:100D4000B4F85E309BB2002BCAD0B4F868209A4247
:100D5000C6D92268936823F080539360034BE366FF
:100D60002268136843F020031360B9E7B90B000849
:100D70007047000070B504460268D3691068916836
:100D800013F00F0508D113F0200F05D010F0200F3D
:100D900030D111F0805F2DD12DB1654D0D402FD197
:100DA00010F4907F2CD113F4801F03D011F4800F26
:100DB00040F0A38013F0800F07D010F0800F40F0B8
:100DC000A38011F4000F40F09F8013F0400F03D078
:100DD00010F0400F40F09F8013F4000F03D010F08C
:100DE000804F40F09C8013F0807F02D00028C0F23A
:100DF0009A8070BDE36E002BFBD020469847F8E741
:100E000013F0010F09D010F4807F06D0012616627E
:100E1000D4F888203243C4F8882013F0020F0BD096
:100E200011F0010F08D0226802261662D4F888203B
:100E300042F00402C4F8882013F0040F0BD011F024
:100E4000010F08D0226804261662D4F8882042F0E8
:100E50000202C4F8882013F0080F0BD010F0200F06
:100E600000D13DB1226808251562D4F888202A43B4
:100E7000C4F88820D4F88820002ABAD013F0200FB4
:100E800009D010F0200F02D111F0805F03D0E36E83
:100E90000BB120469847D4F8882023689B6813F04C
:100EA000400F02D112F0080F20D02046FFF79CFD22
:100EB00023689A6812F0400F14D09A6822F040021A
:100EC0009A60A36F53B11B4A9A63A06FFFF7F3FBBD
:100ED00000288ED0A06F836B98478AE72046FFF7E3
:100EE00047FF86E72046FFF743FF82E72046FFF7EC
:100EF0003FFF0023C4F888307BE74FF48013136270
:100F0000204601F048F874E7236F002B3FF471AFDF
:100F1000204698476DE72046FFF70DFE69E720461B
:100F200001F03BF865E7204601F036F861E700BFC5
:100F300001000010390F000808B5806A0023A0F8EE
:100F40005E30A0F85630FFF713FF08BD0000000028
:100F50002DE9F04804460168836802691343426939
:100F60001343C2691343426E134308689D4A02400B
:100F70001A430A602268536823F44053E1680B4324
:100F80005360A1692268984B9A4201D0236A1943A1
:100F9000936823F06E4323F430630B43936022681D
:100FA000D36A23F00F03616A0B43D36223688F4A2D
:100FB000934211D08E4A934222D08E4A934238D027
:100FC0008D4A934260D08D4A934273D0864A9342B1
:100FD00000F0898010253FE002F55842D2F88820C1
:100FE00002F00302032A09D8DFE802F002049606A1
:100FF000012531E004252FE008252DE010252BE008
:1010000002F5E632D2F8882002F00C020C2A0ED843
:10101000DFE802F0070D0D0D090D0D0D840D0D0D0E
:101020000B00002518E0042516E0082514E0102523
:1010300012E002F5E432D2F8882002F03002102AE1
:101040006ED005D9202A6DD0302A1BD1082503E0A7
:101050000AB9002500E01025634A934270D0E36985
:10106000B3F5004F00F03883082D00F2FA85DFE871
:1010700015F08F04DF041D05F8057505F805F80562
:10108000F805B3051025E7E702F5E232D2F888202B
:1010900002F0C002402A47D005D9802A46D0C02A93
:1010A00006D10825D8E70AB90025D5E71025D3E7EA
:1010B0001025D1E702F5E032D2F8882002F4407220
:1010C000B2F5807F34D007D9B2F5007F32D0B2F5C7
:1010D000407F06D10825BFE70AB90025BCE71025E7
:1010E000BAE71025B8E702F5C832D2F8882002F432
:1010F0004062B2F5806F1FD007D9B2F5006F1DD0E6
:10110000B2F5406F06D10825A6E70AB90025A3E786
:101110001025A1E710259FE702259DE702259BE703
:10112000042599E7022597E7042595E7022593E72B
:10113000042591E702258FE704258DE702258BE73B
:10114000082D00F29185DFE815F009008F05690090
:101150008F0587008F058F058F05BE00FFF720FCE8
:10116000636AD3B1012B36D0022B36D0032B36D095
:10117000042B45D0052B45D0062B45D0072B45D059
:10118000082B45D0092B45D00A2B45D00B2B01D07D
:10119000012303E04FF4807300E00123B0FBF3F080
:1011A000002800F06385626802EB4203834200F28C
:1011B0005F85B0EB023F00F25D85082D00F2898269
:1011C000DFE815F0D500870234018702CC018702E1
:1011D0008702870223020223E0E70423DEE70623D7
:1011E000DCE700BFF369FFCF00800040003801401A
:1011F0000044004000480040004C004000500040C7
:101200000823CBE70A23C9E70C23C7E71023C5E768
:101210002023C3E74023C1E78023BFE7636A002B95
:101220006ED0012B6ED0022B6ED0032B6ED0042B10
:101230006ED0052B6ED0062B6ED0072B6ED0082BF0
:101240006ED0092B6ED00A2B6ED00B2B01D0AE487E
:10125000A6E74FF22440A3E7FFF742FB636AD3B14E
:10126000012B1CD0022B1CD0032B1CD0042B1CD018
:10127000052B1CD0062B1CD0072B1CD0082B1CD0F8
:10128000092B1CD00A2B1CD00B2B01D0012303E00F
:101290004FF4807300E00123B0FBF3F080E70223FA
:1012A000FAE70423F8E70623F6E70823F4E70A231E
:1012B000F2E70C23F0E71023EEE72023ECE74023CE
:1012C000EAE78023E8E7636A83B3012B31D0022B7E
:1012D00032D0032B33D0042B34D0052B35D0062B42
:1012E00036D0072B37D0082B38D0092B39D00A2B12
:1012F0003AD00B2B02D04FF4004051E780204FE74B
:1013000081484DE781484BE7814849E7814847E7F5
:10131000814845E7814843E7814841E781483FE705
:1013200081483DE781483BE7814839E74FF4004079
:1013300036E74FF4804033E74FF4005030E741F296
:1013400055502DE74FF480502AE740F6CC4027E770
:1013500040F6AA2024E74FF4006021E74FF48060B4
:101360001EE74FF400701BE74FF4807018E7FFF79B
:1013700017FB636AE3B1012B3AD0022B3BD0032B5E
:101380003CD0042B3DD0052B3ED0062B3FD0072B65
:1013900040D0082B41D0092B42D00A2B43D00B2B35
:1013A00002D00122002305E04FF48072002301E007
:1013B000012200230021FEF703FF0F0247EA106716
:1013C00006026268500800252B4616EB000B47F119
:1013D000000C58466146FEF7F3FE03462846A3F587
:1013E0004071544A914200F247842268D36001E37D
:1013F00002220023DEE704220023DBE7062200238B
:10140000D8E708220023D5E70A220023D2E70C22DE
:101410000023CFE710220023CCE720220023C9E7D6
:1014200040220023C6E780220023C3E7636AFBB1A2
:10143000012B2DD0022B30D0032B33D0042B36D0F0
:10144000052B39D0062B3CD0072B3FD0082B42D0A0
:10145000092B45D00A2B48D00B2B04D0DFF8D8B08D
:101460004FF0000C08E0DFF8A0B04FF0000C03E0F4
:10147000DFF8C4B04FF0000C560800252B461BEBDC
:1014800006004CF10001FEF79BFE03462846A6E746
:10149000DFF8A8B04FF0000CEEE7DFF8A4B04FF093
:1014A000000CE9E70FF2500CDCE900BCE4E7DFF8E0
:1014B00094B04FF0000CDFE7DFF88CB04FF0000C79
:1014C000DAE70FF23C0CDCE900BCD5E7DFF87CB0D2
:1014D0004FF0000CD0E7DFF878B04FF0000CCBE70E
:1014E000DFF870B04FF0000CC6E7DFF86CB04FF0DB
:1014F000000CC1E7AFF3008000AAB0280000000094
:1015000000555814000000000024F40000127A0076
:1015100000093D00AAB0280080841E00006A18005F
:101520005558140040420F0020A1070090D003003E
:1015300048E80100FFFC0F00000024F40000127ACC
:101540000000093D0080841E00006A180040420F20
:101550000020A1070090D0030048E801FFF7C0F980
:10156000636AE3B1012B32D0022B33D0032B34D08A
:10157000042B35D0052B36D0062B37D0072B38D08F
:10158000082B39D0092B3AD00A2B3BD00B2B02D099
:101590000122002305E04FF48072002301E00122C4
:1015A00000230021FEF70CFE0F0247EA1067060237
:1015B0006268500800252B4616EB000B47F1000C23
:1015C00058466146FEF7FCFD0346284607E702221F
:1015D0000023E6E704220023E3E706220023E0E7F6
:1015E00008220023DDE70A220023DAE70C22002389
:1015F000D7E710220023D4E720220023D1E740229E
:101600000023CEE780220023CBE7636AFBB1012BE6
:101610002DD0022B30D0032B33D0042B36D0052B0A
:1016200039D0062B3CD0072B3FD0082B42D0092BBA
:1016300045D00A2B48D00B2B04D04FF4000B4FF0B1
:10164000000C08E04FF4004B4FF0000C03E04FF4A7
:10165000000B4FF0000C560800252B461BEB060034
:101660004CF10001FEF7ACFD03462846B7E64FF407
:10167000800B4FF0000CEEE74FF4001B4FF0000C16
:10168000E9E7DFF88CB44FF0000CE4E74FF4801B7F
:101690004FF0000CDFE7DFF87CB44FF0000CDAE726
:1016A000DFF874B44FF0000CD5E74FF4002B4FF087
:1016B000000CD0E74FF4802B4FF0000CCBE74FF439
:1016C000003B4FF0000CC6E74FF4803B4FF0000C9E
:1016D000C1E70120002382E6082D00F25681DFE8F1
:1016E00015F00900570096005401CF005401540131
:1016F00054010E01FFF754F9636AD3B1012B33D0C3
:10170000022B33D0032B33D0042B33D0052B33D013
:10171000062B33D0072B33D0082B33D0092B33D0F3
:101720000A2B33D00B2B01D0012303E04FF480733D
:1017300000E00123B0FBF3F06268530803EB4003C1
:10174000B3FBF2F39BB20020A3F110014FF6EF724E
:10175000914200F293829AB222F00F02C3F3420345
:1017600013432268D36045E10223E3E70423E1E762
:101770000623DFE70823DDE70A23DBE70C23D9E7AD
:101780001023D7E72023D5E74023D3E78023D1E7F1
:10179000FFF718F9636AD3B1012B24D0022B24D0B0
:1017A000032B24D0042B24D0052B24D0062B24D0AB
:1017B000072B24D0082B24D0092B24D00A2B24D08B
:1017C0000B2B01D0012303E04FF4807300E00123D1
:1017D000B0FBF3F06268530803EB4003B3FBF2F392
:1017E0009BB20020B0E70223F2E70423F0E70623D0
:1017F000EEE70823ECE70A23EAE70C23E8E71023E7
:10180000E6E72023E4E74023E2E78023E0E7636A9A
:10181000CBB1012B20D0022B20D0032B20D0042BC6
:1018200020D0052B20D0062B20D0072B20D0082B32
:1018300020D0092B20D00A2B20D00B2B01D0A84B75
:1018400002E0A84B00E0A64B626803EB5203B3FB37
:10185000F2F39BB2002077E7A34BF5E7A34BF3E746
:10186000A34BF1E7A34BEFE7A34BEDE7A34BEBE76C
:10187000A34BE9E7A34BE7E7A34BE5E7A34BE3E77C
:10188000FFF72EF8636AD3B1012B24D0022B24D0AA
:10189000032B24D0042B24D0052B24D0062B24D0BA
:1018A000072B24D0082B24D0092B24D00A2B24D09A
:1018B0000B2B01D0012303E04FF4807300E00123E0
:1018C000B0FBF3F06268530803EB4003B3FBF2F3A1
:1018D0009BB2002038E70223F2E70423F0E7062357
:1018E000EEE70823ECE70A23EAE70C23E8E71023F6
:1018F000E6E72023E4E74023E2E78023E0E7636AAA
:10190000DBB1012B23D0022B24D0032B25D0042BB9
:1019100026D0052B27D0062B28D0072B29D0082B23
:101920002AD0092B2BD00A2B2CD00B2B02D04FF412
:10193000803304E04FF4807301E04FF48033626839
:1019400003EB5203B3FBF2F39BB20020FCE64FF42F
:101950000043F4E74FF48043F1E742F6AA23EEE7B1
:101960004FF40053EBE741F69813E8E741F2545384
:10197000E5E74FF48053E2E74FF40063DFE74FF40D
:101980008063DCE74FF40073D9E701200023DBE636
:10199000FFF706F8636AD3B1012B35D0022B35D09F
:1019A000032B35D0042B35D0052B35D0062B35D065
:1019B000072B35D0082B35D0092B35D00A2B35D045
:1019C0000B2B01D0012203E04FF4807200E00122D2
:1019D000B0FBF2F2636802EB5302B2FBF3F292B295
:1019E0000020A2F110014FF6EF73994200F24881F6
:1019F0002368DA600122A4F86A20A4F86820002293
:101A0000E2662267BDE8F0880222E1E70422DFE710
:101A10000622DDE70822DBE70A22D9E70C22D7E716
:101A20001022D5E72022D3E74022D1E78022CFE75A
:101A3000FEF7C8FF636AD3B1012B23D0022B23D05A
:101A4000032B23D0042B23D0052B23D0062B23D00C
:101A5000072B23D0082B23D0092B23D00A2B23D0EC
:101A60000B2B01D0012203E04FF4807200E0012231
:101A7000B0FBF2F2636802EB5302B2FBF3F292B2F4
:101A80000020AEE70222F3E70422F1E70622EFE7A7
:101A90000822EDE70A22EBE70C22E9E71022E7E74C
:101AA0002022E5E74022E3E78022E1E7636AC3B34F
:101AB000012B3FD0022B3FD0032B3FD0042B3FD034
:101AC000052B3FD0062B3FD0072B3FD0082B3FD014
:101AD000092B3FD00A2B3FD00B2B1FD0024A21E00D
:101AE0000048E80148E801000024F40000127A00F0
:101AF0005461510000093D0000D43000AAB0280014
:101B000080841E0040420F0020A1070090D00300F7
:101B10000055150000CC0C0000AA0A004FF2244228
:101B200000E0584A636802EB5302B2FBF3F292B250
:101B3000002056E7544AF5E7544AF3E7544AF1E7E0
:101B4000544AEFE7544AEDE7544AEBE7544AE9E7D1
:101B5000544AE7E7544AE5E7544AE3E7FEF7C0FE94
:101B6000636AD3B1012B23D0022B23D0032B23D0C4
:101B7000042B23D0052B23D0062B23D0072B23D0D7
:101B8000082B23D0092B23D00A2B23D00B2B01D0D9
:101B9000012203E04FF4807200E00122B0FBF2F278
:101BA000636802EB5302B2FBF3F292B2002018E733
:101BB0000222F3E70422F1E70622EFE70822EDE72D
:101BC0000A22EBE70C22E9E71022E7E72022E5E70B
:101BD0004022E3E78022E1E7636AD3B1012B22D000
:101BE000022B23D0032B24D0042B25D0052B26D069
:101BF000062B27D0072B28D0082B29D0092B2AD039
:101C00000A2B2BD00B2B02D04FF4004203E0802292
:101C100001E04FF40042636802EB5302B2FBF3F2BF
:101C200092B20020DDE64FF48042F4E74FF4005218
:101C3000F1E741F25552EEE74FF48052EBE740F600
:101C4000CC42E8E740F6AA22E5E74FF40062E2E77B
:101C50004FF48062DFE74FF40072DCE74FF48072EC
:101C6000D9E701200022BCE60120C3E60020C1E63E
:101C70000120BFE60120BDE60120BBE60120B9E658
:101C80000120B7E60024F40000127A0000093D00AC
:101C9000AAB0280080841E00006A1800555814005D
:101CA00040420F0020A1070090D0030048E8010047
:101CB000836A13F0010F06D00268536823F40033DF
:101CC000C16A0B435360836A13F0020F06D00268A7
:101CD000536823F48033016B0B435360836A13F022
:101CE000040F06D00268536823F48023416B0B4332
:101CF0005360836A13F0080F06D00268536823F418
:101D00000043816B0B435360836A13F0100F06D0BE
:101D10000268936823F48053C16B0B439360836A1A
:101D200013F0200F06D00268936823F40053016C6F
:101D30000B439360836A13F0400F0AD00268536824
:101D400023F48013416C0B435360436CB3F5801F45
:101D50000BD0836A13F0800F06D00268536823F417
:101D60000023C16C0B43536070470268536823F42F
:101D7000C003816C0B435360EBE72DE9F04105464E
:101D80000F4616469846069C2B68DB6937EA030324
:101D90000CBF01230023B3421ED1B4F1FF3FF3D0A7
:101DA000FEF714FCA0EB0800A04201D8002CEBD1F8
:101DB0002A68136823F4D07313602A68936823F0A9
:101DC000010393602023C5F88030C5F884300023D8
:101DD00085F87C30032000E00020BDE8F0812DE98B
:101DE000F04182B01E46D0F88030202B58D10446F6
:101DF0000D469046002958D0002A58D090F87C30E3
:101E0000012B56D0012380F87C300023C0F88830A5
:101E10002123C0F88030FEF7D9FB0746A4F8548090
:101E2000A4F85680A368B3F5805F02D04FF0000895
:101E300013E0236913B14FF000080EE0A846002517
:101E40000BE038F8023B2268C3F308031385B4F8AB
:101E50005630013B9BB2A4F85630B4F856309BB2D2
:101E600073B100963B46002280212046FFF785FF94
:101E700008BB002DE5D0236815F8012B1A85E6E78D
:101E800000963B46002240212046FFF776FF03469E
:101E900098B92022C4F88020002284F87C2000E039
:101EA0000223184602B0BDE8F0810123F9E70123BF
:101EB000F7E70223F5E70323F3E70323F1E730B560
:101EC00083B004460023C0F88830FEF77FFB054648
:101ED00023681B6813F0080F0ED123681B6813F0EA
:101EE000040F17D12023C4F88030C4F884300020B8
:101EF00084F87C0003B030BD6FF07E43009303464E
:101F000000224FF400112046FFF737FF0028E4D0ED
:101F10000320EFE76FF07E4300932B4600224FF43F
:101F200080012046FFF729FF0028DBD00320E1E7EE
:101F300078B310B50446D0F880300BB32423C4F82E
:101F400080302268136823F0010313602046FEF7F7
:101F5000FFFF012813D0A36ABBB92268536823F49A
:101F6000904353602268936823F02A0393602268A9
:101F7000136843F0010313602046FFF7A0FF10BD74
:101F800080F87C30FEF77CFAD8E72046FFF790FE19
:101F9000E3E7012070477047704770472DE9F0472D
:101FA000089E04468846002B40F085808A421546EC
:101FB00048D9B2FA82F24AB1C2F1200701FA02F31B
:101FC00020FA07F7954047EA030894404FEA154E78
:101FD000230CB8FBFEF71FFA85FC0EFB178843EABB
:101FE000084307FB0CF1994209D9EB1807F1FF30C0
:101FF00080F0E380994240F2E080023F2B445B1A7C
:10200000A4B2B3FBFEF00EFB103344EA034400FB22
:102010000CFCA44509D92C1900F1FF3380F0CB80CA
:10202000A44540F2C88002382C4440EA0740A4EBA3
:102030000C0400271EB1D4400023C6E900433946F2
:10204000BDE8F087002A53D0B2FA82F2002A40F0AD
:10205000B680491B4FEA154E1FFA85F80127B1FBE0
:10206000FEFC230C0EFB1C1143EA014308FB0CF1A0
:10207000994207D9EB180CF1FF3002D2994200F2D5
:10208000EC808446591AA3B2B1FBFEF00EFB10148B
:1020900043EA044408FB00F8A04507D92C1900F1D5
:1020A000FF3302D2A04500F2DC801846A4EB0804FE
:1020B00040EA0C40BEE78B4208D9002E78D00027BA
:1020C000C6E9000138463946BDE8F087B3FA83F720
:1020D0007FB98B4202D3824200F2BD80841A61EB49
:1020E000030301209846002EA9D0C6E90048A6E7C0
:1020F000FFDEC7F12005BB4022FA05FC4CEA030CC9
:1021000001FA07F420FA05F821FA05F34FEA1C4E0C
:1021100048EA0404B3FBFEF9210C0EFB19331FFA45
:102120008CF841EA034309FB08FA9A4502FA07F2E0
:1021300000FA07F10BD91CEB030309F1FF3080F023
:1021400088809A4540F28580A9F102096344A3EB97
:102150000A03A4B2B3FBFEF00EFB103344EA0344BF
:1021600000FB08F8A04508D91CEB040400F1FF337C
:102170006BD2A04569D90238644440EA0940A4EB17
:102180000804A0FB02894C45C6464B4654D351D0A7
:10219000002E69D0B1EB0E0264EB030404FA05F5DE
:1021A00022FA07F3FC401D43C6E90054002746E726
:1021B0003746304643E7184637E707461FE7C2F180
:1021C000200320FA03F7954001FA02F021FA03F305
:1021D0004FEA154E3843010CB3FBFEF71FFA85F8A2
:1021E0000EFB173341EA034107FB08F38B4204FA65
:1021F00002F407D9691807F1FF3C28D28B4226D98F
:10220000023F2944CB1A81B2B3FBFEF00EFB103320
:1022100041EA034100FB08F38B4207D9691800F13A
:10222000FF3C10D28B420ED902382944C91A40EA29
:10223000074714E74145ABD2B8EB020E69EB0C023D
:1022400001381346A4E76046F0E7184695E767466D
:10225000D8E781467BE7384645E7ACF1020C2B44D2
:1022600010E702382C4421E73746E8E670B50D4DFB
:102270000D4C641BA4100026A64209D10B4D0C4C3A
:1022800000F018F8641BA4100026A64205D170BD0A
:1022900055F8043B98470136EEE755F8043B98475C
:1022A0000136F2E73023000830230008302300080D
:1022B00034230008F8B500BFF8BC08BC9E46704740
:1022C000F8B500BFF8BC08BC9E467047000000008F
:1022D00074686520736F6674776172652069732016
:1022E00072756E6E696E67200A00000000000000C3
:1022F00001020304A0860100400D0300801A0600BD
:1023000000350C0040420F0080841E0000093D0093
:1023100000127A000024F40000366E010048E80143
:08232000006CDC02000000006B
:0823280074FCFF7F01000000BE
:082330006D020008000000002E
:0823380045020008000000004E
:10234000D022000800093D0001000000100000003C
:04000005080002915C
:00000001FF
