:020000040800F2
:1000000000000A202D0300087D030008512B000882
:10001000572B00085D2B0008632B00080000000030
:10002000000000000000000000000000210800089F
:10003000692B000800000000910A0008F90A000876
:100040007D0300087D0300087D0300087D03000890
:100050007D0300087D0300087D0300087D03000880
:100060007D0300087D0300087D0300087D03000870
:100070007D0300087D0300087D0300087D03000860
:100080007D0300087D0300087D0300087D03000850
:100090007D0300087D0300087D0300087D03000840
:1000A0007D0300087D0300087D0300087D03000830
:1000B000792B00087D0300087D0300087D030008FC
:1000C0007D0300087D0300087D0300087D03000810
:1000D0007D0300087D0300087D0300087D03000800
:1000E0007D0300087D0300087D0300087D030008F0
:1000F0007D0300087D0300087D0300080000000068
:100100007D0300087D0300087D0300087D030008CF
:100110007D0300087D0300087D0300087D030008BF
:100120007D0300087D0300087D0300087D030008AF
:100130007D0300087D0300087D0300087D0300089F
:100140007D0300087D0300087D0300087D0300088F
:100150007D0300087D0300087D0300087D0300087F
:100160007D0300087D0300087D0300087D0300086F
:100170007D0300087D03000800000000000000006F
:100180007D0300087D0300087D0300087D0300084F
:100190007D0300087D03000800000000000000004F
:1001A00000000000000000007D0300087D0300083F
:1001B0007D0300087D0300087D03000800000000A7
:1001C000034613F8012B002AFBD1181A0138704797
:1001D00001F0FF01102A2BDB10F0070F08D010F8F8
:1001E000013B013A8B422DD010F0070F42B3F6D1FC
:1001F000F0B441EA012141EA014122F007047FF015
:1002000000070023F0E80256083C85EA010586EA6B
:10021000010685FA47F5A3FA87F586FA47F6A5FAA7
:1002200087F68EB9EED1F0BC01F0FF0102F00702B3
:1002300032B110F8013B013A83EA010313B1F8D15E
:100240000020704701387047002D06BF354603383F
:10025000073815F0010F07D1013015F4807F02BF78
:10026000013015F4C03F0130F0BC0138704700BFC9
:1002700053B94AB9002908BF00281CBF4FF0FF310D
:100280004FF0FF3000F00CB8ADF1080C6DE904CE72
:1002900005F08CFCDDF804E0DDE9022304B07047D2
:1002A000704700BF10B5054C237833B9044B13B128
:1002B0000448AFF300800123237010BD78000020B4
:1002C000000000006C5E000808B5034B1BB1034939
:1002D0000348AFF3008008BD000000007C00002050
:1002E0006C5E00080D4A116810B5034609B90C4947
:1002F00011601068694603448B4206D809490A4CCC
:100300000968A14208D08B4206D904F0F1FF0C2302
:1003100003604FF0FF3010BD1360FCE79400002035
:100320008843002000000020ADDEFECADFF834D094
:10033000002103E00C4B5B58435004310B480C4B3D
:1003400042189A42F6D30B4A02E0002342F8043BDB
:10035000094B9A42F9D302F0C1FD04F0CFFF02F03D
:1003600015FCFEE700000A200860000800000020DD
:10037000780000207800002084430020FEE7000081
:1003800080B58AB000AF78600023FB6101F0DCFB30
:100390005B4B1B68002B01D100F020F9594B1A6808
:1003A0007B681340002B40F093807B68002B1DD0AE
:1003B00008227B6813447B607B6803F00703002BF3
:1003C00014D07B6823F0070308337B607B6803F05D
:1003D0000703002B0AD04FF0500383F31188BFF3BB
:1003E0006F8FBFF34F8F7B6100BFFEE77B68002BF1
:1003F0006ED0454B1B687A689A4269D8434B3B6282
:10040000424B1B687B6204E07B6A3B627B6A1B6831
:100410007B627B6A5B687A689A4203D97B6A1B6855
:10042000002BF1D1364B1B687A6A9A4250D03B6A56
:100430001B6808221344FB617B6A1A683B6A1A60D6
:100440007B6A5A687B68D21A08235B009A421FD9DC
:100450007A6A7B681344BB61BB6903F00703002B16
:100460000AD04FF0500383F31188BFF36F8FBFF3AF
:100470004F8F3B6100BFFEE77B6A5A687B68D21AE8
:10048000BB695A607B6A7A685A60B86900F008F9FB
:100490001D4B1A687B6A5B68D31A1B4A13601A4BA0
:1004A0001A681B4B1B689A4203D2174B1B68184AE9
:1004B00013607B6A5A68134B1B681A437B6A5A6045
:1004C0007B6A00221A60134B1B680133114A1360C8
:1004D00001F048FBFB6903F00703002B0AD04FF043
:1004E000500383F31188BFF36F8FBFF34F8FFB600F
:1004F00000BFFEE7FB6918462837BD4680BD00BF38
:10050000A0400020B4400020A440002098400020DB
:10051000A8400020AC40002080B586B000AF7860D5
:100520007B687B617B68002B4DD008235B427A6936
:1005300013447B617B693B613B695A68244B1B68B0
:100540001340002B0AD14FF0500383F31188BFF3FF
:100550006F8FBFF34F8FFB6000BFFEE73B691B68E7
:10056000002B0AD04FF0500383F31188BFF36F8F35
:10057000BFF34F8FBB6000BFFEE73B695A68144B67
:100580001B681340002B1ED03B691B68002B1AD13F
:100590003B695A680E4B1B68DB431A403B695A6043
:1005A00001F0D2FA3B695A680A4B1B681344094AA6
:1005B0001360386900F074F8074B1B680133064A72
:1005C000136001F0CFFA00BF1837BD4680BD00BFF1
:1005D000B4400020A4400020B040002080B485B08A
:1005E00000AF4FF48043BB60274BFB60FB6803F018
:1005F0000703002B0CD0FB680733FB60FB6823F07C
:100600000703FB60BA68FB68D31A1F4A1344BB6038
:10061000FB687B601D4A7B6813601C4B00225A609C
:100620007B68BA681344FB600822FB689B1AFB6076
:10063000FB6823F00703FB60FB68154A1360144B4B
:100640001B6800225A60124B1B6800221A607B68EC
:100650003B603B68FA68D21A3B685A600C4B1A68D8
:100660003B681A603B685B680A4A13603B685B68DA
:10067000094A1360094B4FF000421A6000BF14375B
:10068000BD465DF8047B704798000020984000202C
:10069000A0400020A8400020A4400020B44000203A
:1006A00080B485B000AF7860284BFB6002E0FB6847
:1006B0001B68FB60FB681B687A689A42F7D8FB6886
:1006C000BB60FB685B68BA6813447A689A4208D1D9
:1006D000FB685A687B685B681A44FB685A60FB6871
:1006E0007B607B68BB607B685B68BA681A44FB68A8
:1006F0001B689A4218D1FB681A68154B1B689A420E
:100700000DD07B685A68FB681B685B681A447B687D
:100710005A60FB681B681A687B681A6008E00C4B1B
:100720001A687B681A6003E0FB681A687B681A60C5
:10073000FA687B689A4202D0FB687A681A6000BF48
:100740001437BD465DF8047B704700BF9840002019
:10075000A040002080B485B000AFF860B9607A6036
:10076000FB68043BFB60FB684FF080721A60FB681B
:10077000043BFB60BB6823F00102FB681A60FB6866
:10078000043BFB600C4AFB681A60FB68143BFB608F
:100790007A68FB681A60FB68043BFB60FB686FF0DB
:1007A00002021A60FB68203BFB60FB6818461437A6
:1007B000BD465DF8047B7047BD07000880B485B076
:1007C00000AF00237B60124B1B68B3F1FF3F0AD0E0
:1007D0004FF0500383F31188BFF36F8FBFF34F8F38
:1007E000FB6000BFFEE74FF0500383F31188BFF3B7
:1007F0006F8FBFF34F8FBB6000BF00BF7B68002BC4
:10080000FCD000BF00BF1437BD465DF8047B7047C5
:1008100004000020000000000000000000000000B4
:10082000074B19680868B0E8F04F80F30988BFF3F8
:100830006F8F4FF0000080F311887047AFF3008096
:10084000C040002000BF00BF08480068006880F377
:1008500008884FF0000080F3148862B661B6BFF3D9
:100860004F8FBFF36F8F00DF00BF00BF08ED00E0C8
:1008700080B588B000AF4E4B1B684E4A93420AD1F8
:100880004FF0500383F31188BFF36F8FBFF34F8F87
:10089000BB6100BFFEE7464B1B68474A93420AD143
:1008A0004FF0500383F31188BFF36F8FBFF34F8F67
:1008B0007B6100BFFEE7414BFB61FB691B78DBB24C
:1008C000BB60FB69FF221A70FB691B78DBB2FB710E
:1008D000FB79DBB203F05003DAB2394B1A70394BB3
:1008E00007221A6009E0374B1B68013B354A136049
:1008F000FB79DBB25B00DBB2FB71FB79DBB203F0AF
:100900008003802BEFD02F4B1B68C3F10703042B10
:100910000AD04FF0500383F31188BFF36F8FBFF3FA
:100920004F8F3B6100BFFEE7264B1B68C3F10703F7
:10093000042B0AD04FF0500383F31188BFF36F8F5D
:10094000BFF34F8FFB6000BFFEE71E4B1B681B020F
:100950001C4A13601B4B1B6803F4E063194A1360C5
:10096000BB68DAB2FB691A70174B1B68164A43F46E
:1009700070031360144B1B68134A43F070431360F9
:1009800000F0DCF8114B00221A6000F0F1F8104B77
:100990001B680F4A43F040431360FFF755FF01F017
:1009A00045FAFFF70BFF002318462037BD4680BDF0
:1009B00000ED00E071C20F4170C20F4100E400E0A1
:1009C000B8400020BC40002020ED00E004000020E2
:1009D00034EF00E080B483B000AF4FF0500383F3F6
:1009E0001188BFF36F8FBFF34F8F7B6000BF0F4B3A
:1009F0001B6801330D4A13600C4B1B68012B0FD190
:100A00000B4B1B68DBB2002B0AD04FF0500383F373
:100A10001188BFF36F8FBFF34F8F3B6000BFFEE7BE
:100A200000BF0C37BD465DF8047B70470400002012
:100A300004ED00E080B483B000AF124B1B68002BC4
:100A40000AD14FF0500383F31188BFF36F8FBFF3C8
:100A50004F8F7B6000BFFEE70A4B1B68013B094AD2
:100A60001360084B1B68002B05D100233B603B68DB
:100A700083F3118800BF00BF0C37BD465DF8047BCF
:100A8000704700BF040000200000000000000000CC
:100A9000EFF30980BFF36F8F154B1A681EF0100F2C
:100AA00008BF20ED108A20E9F04F10602DE9090001
:100AB0004FF0500080F31188BFF34F8FBFF36F8F5B
:100AC00001F0B4F94FF0000080F3118809BC1968F7
:100AD0000868B0E8F04F1EF0100F08BFB0EC108AA5
:100AE00080F30988BFF36F8F704700BFAFF30080BA
:100AF000C040002000BF00BF80B582B000AF4FF003
:100B0000500383F31188BFF36F8FBFF34F8F7B6068
:100B100000BF01F0D3F80346002B03D0064B4FF083
:100B200080521A6000233B603B6883F3118800BF4A
:100B300000BF0837BD4680BD04ED00E080B400AFC3
:100B4000084B00221A60084B00221A60074B40F63F
:100B50009F721A60034B07221A6000BFBD465DF802
:100B6000047B704710E000E018E000E014E000E0D3
:100B7000DFF80C00016841F470010160704700BFAC
:100B800088ED00E080B485B000AFEFF30583FB6033
:100B9000FB680F2B14D9174AFB6813441B78FB72B0
:100BA000154B1B78FA7A9A420AD24FF0500383F31E
:100BB0001188BFF36F8FBFF34F8F7B6000BFFEE7DD
:100BC0000E4B1B6803F4E0620D4B1B689A420AD976
:100BD0004FF0500383F31188BFF36F8FBFF34F8F34
:100BE0003B6000BFFEE700BF1437BD465DF8047BE5
:100BF000704700BFF0E300E0B84000200CED00E0DB
:100C0000BC40002080B483B000AF78607B6803F103
:100C100008027B685A607B684FF0FF329A607B68FD
:100C200003F108027B68DA607B6803F108027B68E5
:100C30001A617B6800221A6000BF0C37BD465DF860
:100C4000047B704780B483B000AF78607B6800227B
:100C50001A6100BF0C37BD465DF8047B704780B455
:100C600085B000AF786039607B685B68FB603B688B
:100C7000FA685A60FB689A683B689A60FB689B68F0
:100C80003A685A60FB683A689A603B687A681A6109
:100C90007B681B685A1C7B681A6000BF1437BD460E
:100CA0005DF8047B704780B485B000AF7860396030
:100CB0003B681B68BB60BB68B3F1FF3F03D17B6837
:100CC0001B69FB600CE07B680833FB6002E0FB689B
:100CD0005B68FB60FB685B681B68BA689A42F6D287
:100CE000FB685A683B685A603B685B683A689A6080
:100CF0003B68FA689A60FB683A685A603B687A68B1
:100D00001A617B681B685A1C7B681A6000BF143725
:100D1000BD465DF8047B704780B485B000AF786055
:100D20007B681B69FB607B685B687A6892689A6085
:100D30007B689B687A6852685A60FB685B687A686F
:100D40009A4203D17B689A68FB685A607B680022EC
:100D50001A61FB681B685A1EFB681A60FB681B68F7
:100D600018461437BD465DF8047B704780B584B0E3
:100D700000AF786039607B68FB60FB68002B0AD1AC
:100D80004FF0500383F31188BFF36F8FBFF34F8F82
:100D9000BB6000BFFEE7FFF71DFEFB681A68FB683B
:100DA000DB6BF968096C01FB03F31A44FB689A607A
:100DB000FB6800229A63FB681A68FB685A60FB684C
:100DC0001A68FB68DB6B013BF968096C01FB03F3F4
:100DD0001A44FB68DA60FB68FF2283F84420FB6852
:100DE000FF2283F845203B68002B14D1FB681B6968
:100DF000002B1AD0FB681033184601F0DDF80346CB
:100E0000002B12D00C4B4FF080521A60BFF34F8F63
:100E1000BFF36F8F09E0FB6810331846FFF7F2FE4F
:100E2000FB6824331846FFF7EDFEFFF703FE0123AE
:100E300018461037BD4680BD04ED00E080B58AB08D
:100E400002AFF860B9601346FB71FB68002B0AD152
:100E50004FF0500383F31188BFF36F8FBFF34F8FB1
:100E60003B6100BFFEE7FB68BA6802FB03F3FB616E
:100E7000FB6954331846FFF783FAB861BB69002B4E
:100E80000DD0BB697B617B6954337B61FA79BB69A7
:100E9000009313467A69B968F86800F005F8BB69F1
:100EA00018462037BD4680BD80B584B000AFF860DD
:100EB000B9607A60FB70BB68002B03D1BB69BA696B
:100EC0001A6002E0BB697A681A60BB69FA68DA6383
:100ED000BB69BA681A640121B869FFF747FFBB69AB
:100EE000FA7883F85020BB6900229A6400BF10375B
:100EF000BD4680BD80B58EB000AFF860B9607A6045
:100F00003B6000237B63FB683B633B6B002B0AD198
:100F10004FF0500383F31188BFF36F8FBFF34F8FF0
:100F20007B6200BFFEE7BB68002B03D13B6B1B6CF1
:100F3000002B01D1012300E00023002B0AD14FF048
:100F4000500383F31188BFF36F8FBFF34F8F3B6262
:100F500000BFFEE73B68022B03D13B6BDB6B012B31
:100F600001D1012300E00023002B0AD14FF05003F0
:100F700083F31188BFF36F8FBFF34F8FFB6100BF07
:100F8000FEE701F0C5F90346002B02D17B68002B78
:100F900001D1012300E00023002B0AD14FF05003C0
:100FA00083F31188BFF36F8FBFF34F8FBB6100BF17
:100FB000FEE7FFF70FFD3B6B9A6B3B6BDB6B9A42D7
:100FC00002D33B68022B45D13B6B9B6BFB623A68BB
:100FD000B968386B00F03AFAB8623B6B9B6C002B37
:100FE00014D03B68022B02D1FB6A002B2ED1386B48
:100FF00000F0A8FB0346002B28D04A4B4FF080524C
:101000001A60BFF34F8FBFF36F8F1FE03B6B5B6ABC
:10101000002B10D03B6B2433184600F0CDFF034665
:10102000002B13D03F4B4FF080521A60BFF34F8F0D
:10103000BFF36F8F0AE0BB6A002B07D0394B4FF02C
:1010400080521A60BFF34F8FBFF36F8FFFF7F2FC30
:10105000012363E07B68002B03D1FFF7EBFC002347
:101060005CE07B6B002B06D107F11003184601F002
:1010700005F801237B63FFF7DDFC00F065FDFFF75A
:10108000A9FC3B6B93F844305BB2B3F1FF3F03D153
:101090003B6B002283F844203B6B93F845305BB2F6
:1010A000B3F1FF3F03D13B6B002283F84520FFF7EC
:1010B000C1FC3A1D07F110031146184600F0F4FF79
:1010C0000346002B24D1386B00F0C5FA0346002BF1
:1010D00018D03B6B10337A681146184600F01CFF9D
:1010E000386B00F043FA00F03DFD0346002B7FF41F
:1010F00060AF0C4B4FF080521A60BFF34F8FBFF3BD
:101100006F8F56E7386B00F031FA00F02BFD50E797
:10111000386B00F02BFA00F025FD00231846383715
:10112000BD4680BD04ED00E080B590B000AFF86032
:10113000B9607A603B60FB68BB63BB6B002B0AD174
:101140004FF0500383F31188BFF36F8FBFF34F8FBE
:10115000BB6200BFFEE7BB68002B03D1BB6B1B6CFF
:10116000002B01D1012300E00023002B0AD14FF016
:10117000500383F31188BFF36F8FBFF34F8F7B62F0
:1011800000BFFEE73B68022B03D1BB6BDB6B012B7F
:1011900001D1012300E00023002B0AD14FF05003BE
:1011A00083F31188BFF36F8FBFF34F8F3B6200BF94
:1011B000FEE7FFF7E7FCEFF311824FF0500383F3F4
:1011C0001188BFF36F8FBFF34F8FFA61BB61FB696B
:1011D0007B63BB6B9A6BBB6BDB6B9A4202D33B6846
:1011E000022B46D1BB6B93F8453087F83330BB6B8D
:1011F0009B6BFB623A68B968B86B00F027F997F906
:101200003330B3F1FF3F29D1BB6B9B6C002B12D065
:101210003B68022B02D1FB6A002B27D1B86B00F090
:1012200091FA0346002B21D07B68002B1ED07B68EF
:1012300001221A601AE0BB6B5B6A002B16D0BB6BF5
:101240002433184600F0B8FE0346002B0ED07B680E
:10125000002B0BD07B6801221A6007E097F833302F
:101260000133DBB25AB2BB6B83F845200123FB6329
:1012700001E00023FB637B6B7B617B6983F3118857
:1012800000BFFB6B18464037BD4680BD80B58CB0B3
:1012900000AFF860B9607A600023FB62FB68BB6254
:1012A000BB6A002B0AD14FF0500383F31188BFF3C0
:1012B0006F8FBFF34F8F3B6200BFFEE7BB68002B11
:1012C00003D1BB6A1B6C002B01D1012300E000237A
:1012D000002B0AD14FF0500383F31188BFF36F8FB7
:1012E000BFF34F8FFB6100BFFEE701F011F803462B
:1012F000002B02D17B68002B01D1012300E00023E9
:10130000002B0AD14FF0500383F31188BFF36F8F86
:10131000BFF34F8FBB6100BFFEE7FFF75BFBBB6A0C
:101320009B6B7B627B6A002B1FD0B968B86A00F0A8
:10133000F7F87B6A5A1EBB6A9A63BB6A1B69002B6B
:101340000FD0BB6A1033184600F036FE0346002B60
:1013500007D03D4B4FF080521A60BFF34F8FBFF361
:101360006F8FFFF767FB012369E07B68002B03D1D8
:10137000FFF760FB002362E0FB6A002B06D107F158
:101380001003184600F07AFE0123FB62FFF752FBC0
:1013900000F0DAFBFFF71EFBBB6A93F844305BB248
:1013A000B3F1FF3F03D1BB6A002283F84420BB6A3C
:1013B00093F845305BB2B3F1FF3F03D1BB6A002223
:1013C00083F84520FFF736FB3A1D07F1100311465D
:1013D000184600F069FE0346002B23D1B86A00F0DE
:1013E00024F90346002B17D0BB6A24337A681146D0
:1013F000184600F091FDB86A00F0B8F800F0B2FBB2
:101400000346002B89D1104B4FF080521A60BFF376
:101410004F8FBFF36F8F80E7B86A00F0A7F800F036
:10142000A1FB7AE7B86A00F0A1F800F09BFBB86A6C
:1014300000F0FBF80346002B3FF46FAF0023184683
:101440003037BD4680BD00BF04ED00E080B586B0FA
:1014500000AFF860B9607A6000237B61FB689B6B2A
:101460003B61FB681B6C002B0DD1FB681B68002BDC
:101470004DD1FB689B68184600F068FF7861FB68F7
:1014800000229A6043E07B68002B19D1FB68586802
:10149000FB681B6C1A46B96803F056FFFB685A6874
:1014A000FB681B6C1A44FB685A60FB685A68FB684F
:1014B0009B689A422BD3FB681A68FB685A6026E047
:1014C000FB68D868FB681B6C1A46B96803F03CFFE0
:1014D000FB68DA68FB681B6C5B421A44FB68DA60E5
:1014E000FB68DA68FB681B689A4207D2FB689A6857
:1014F000FB681B6C5B421A44FB68DA607B68022B5A
:1015000005D13B69002B02D03B69013B3B613B6944
:101510005A1CFB689A637B6918461837BD4680BD24
:1015200080B582B000AF786039607B681B6C002B9F
:1015300018D07B68DA687B681B6C1A447B68DA60B9
:101540007B68DA687B689B689A4203D37B681A6879
:101550007B68DA607B68D9687B681B6C1A463868E0
:1015600003F0F2FE00BF0837BD4680BD80B584B0F1
:1015700000AF7860FFF72EFA7B6893F84530FB7375
:101580001EE07B689B6C002B08D0786800F0DAF8CE
:101590000346002B10D000F0F9FD0DE07B685B6A7C
:1015A000002B12D07B682433184600F005FD03465B
:1015B000002B01D000F0EAFDFB7B013BDBB2FB73AB
:1015C00097F90F30002BDCDC00E000BF7B68FF22C6
:1015D00083F84520FFF72EFAFFF7FCF97B6893F8B4
:1015E0004430BB7311E07B681B69002B12D07B6811
:1015F0001033184600F0E0FC0346002B01D000F049
:10160000C5FDBB7B013BDBB2BB7397F90E30002BF2
:10161000E9DC00E000BF7B68FF2283F84420FFF78D
:1016200009FA00BF1037BD4680BD80B584B000AF59
:101630007860FFF7CFF97B689B6B002B02D1012309
:10164000FB6001E00023FB60FFF7F4F9FB6818463C
:101650001037BD4680BD80B584B000AF7860FFF71D
:10166000B9F97B689A6B7B68DB6B9A4202D10123E4
:10167000FB6001E00023FB60FFF7DCF9FB68184624
:101680001037BD4680BD000080B485B000AF7860E3
:1016900039600023FB6014E00F4AFB6852F83330D6
:1016A000002B0BD10C49FB683A6841F833200A4AF9
:1016B000FB68DB0013447A685A6006E0FB6801337C
:1016C000FB60FB68042BE7D900BF00BF1437BD46A1
:1016D0005DF8047B704700BF0843002080B586B0EA
:1016E00000AFF860B9607A60FB687B61FFF772F960
:1016F0007B6993F844305BB2B3F1FF3F03D17B6960
:10170000002283F844207B6993F845305BB2B3F143
:10171000FF3F03D17B69002283F84520FFF78AF958
:101720007B699B6B002B06D17B6924337A68B9688F
:10173000184600F015FC7869FFF718FF00BF18374E
:10174000BD4680BD80B588B000AF78607B689B6C7B
:10175000BB610023FB61BB69002B0AD14FF0500332
:1017600083F31188BFF36F8FBFF34F8F3B6100BFCF
:10177000FEE7BB699A6BBB69DB6B9A420AD34FF0F9
:10178000500383F31188BFF36F8FBFF34F8FFB605C
:1017900000BFFEE7BB699A6BBB69DB6B9A4225D23F
:1017A000BB6993F84530FB753B1D00221946B869AB
:1017B000FFF74CFEF86197F91730B3F1FF3F0ED1F8
:1017C000BB695B6A002B11D0BB692433184600F05B
:1017D000F3FB0346002B09D00123FB6106E0FB7DF0
:1017E0000133DBB25AB2BB6983F84520FB69184666
:1017F0002037BD4680BD80B58CB004AFF860B960BD
:101800003B601346FB80FB889B001846FEF7B8FD43
:1018100078617B69002B0ED06820FEF7B1FDF8617E
:10182000FB69002B03D0FB697A691A6305E07869CC
:10183000FEF772FE01E00023FB61FB69002B13D071
:10184000FA8800230393FB690293FB6A0193BB6A46
:1018500000933B68B968F86800F00EF8F86900F08A
:10186000B7F80123BB6102E04FF0FF33BB61BB69F6
:1018700018462037BD4680BD80B588B000AFF860FF
:10188000B9607A603B603B6B186B7B689B001A46C3
:10189000A52103F067FD3B6B1A6B7B6803F1804366
:1018A000013B9B001344BB61BB6923F00703BB6191
:1018B000BB6903F00703002B0AD04FF0500383F3FA
:1018C0001188BFF36F8FBFF34F8F7B6100BFFEE7BF
:1018D000BB68002B21D00023FB6114E0BA68FB69D0
:1018E000134493F900103A6BFB69134434330A46EE
:1018F0001A70BA68FB69134493F90030002B06D0C4
:10190000FB690133FB61FB69092BE7D900E000BFEC
:101910003B6B002283F83D2003E03B6B002283F801
:101920003420BB6A042B01D90423BB623B6BBA6A27
:10193000DA623B6BBA6A9A643B6B0022DA643B6BF7
:1019400004331846FFF77EF93B6B18331846FFF750
:1019500079F93B6B3A6B1A61BB6AC3F105023B6BC9
:101960009A613B6B3A6B5A623B6B00221A653B6B88
:101970000022DA650023FB6109E03A6BFB6914334E
:101980009B00134400225A60FB690133FB61FB6931
:10199000012BF2D93B6B00221A663B6B002283F8C5
:1019A00064203B6B002283F865203A68F968B869C7
:1019B000FEF7D0FE02463B6B1A60FB6A002B02D09A
:1019C000FB6A3A6B1A6000BF2037BD4680BD00003D
:1019D00080B582B000AF7860FEF7FCFF2C4B1B682F
:1019E00001332B4A13602B4B1B68002B09D1294A6A
:1019F0007B681360264B1B68012B10D100F0EAFBBB
:101A00000DE0254B1B68002B09D1224B1B68DA6ABD
:101A10007B68DB6A9A4202D81E4A7B6813601F4BC0
:101A20001B6801331D4A13601C4B1A687B681A64DB
:101A30007B68DB6A01229A40194B1B681343184AE2
:101A400013607B68DA6A13469B0013449B00154AB7
:101A50001A447B68043319461046FFF700F9FEF775
:101A6000E9FF0D4B1B68002B0ED00A4B1B68DA6A8E
:101A70007B68DB6A9A4207D20B4B4FF080521A60A8
:101A8000BFF34F8FBFF36F8F00BF0837BD4680BDD8
:101A900098410020C0400020A4410020B441002013
:101AA000A0410020C440002004ED00E080B586B0D5
:101AB00002AF1F4B01930023009300234FF4807269
:101AC0001C491D48FFF797FEF860FB68012B02D107
:101AD00000F02CFDF860FB68012B16D14FF050038D
:101AE00083F31188BFF36F8FBFF34F8FBB6000BFCD
:101AF000124B4FF0FF321A60114B01221A60114B4A
:101B000000221A60FEF7B4FE0EE0FB68B3F1FF3F5F
:101B10000AD14FF0500383F31188BFF36F8FBFF3E7
:101B20004F8F7B6000BFFEE700BF1037BD4680BD12
:101B3000BC410020885E0008A5210008B8410020B3
:101B4000A44100209C41002080B400AF044B1B68DE
:101B50000133034A136000BFBD465DF8047B704744
:101B6000C041002080B584B000AF0023FB6000239B
:101B7000BB60414B1B68002B0AD14FF0500383F32D
:101B80001188BFF36F8FBFF34F8F3B6000BFFEE73D
:101B9000FEF720FF384B1B68013B374A1360364B7A
:101BA0001B68002B61D1354B1B68002B5DD02EE0EC
:101BB000334BDB68DB68FB60FB6818331846FFF7C4
:101BC000ABF8FB6804331846FFF7A6F8FB68DB6A3E
:101BD00001229A402B4B1B6813432A4A1360FB686F
:101BE000DA6A13469B0013449B00274A1A44FB6899
:101BF000043319461046FFF732F8FB68DA6A234BC4
:101C00001B68DB6A9A4202D3214B01221A601C4BEB
:101C10001B68002BCCD1FB68002B01D000F058FBD7
:101C20001C4B1B687B607B68002B10D000F046F8D3
:101C30000346002B02D0164B01221A607B68013B41
:101C40007B607B68002BF1D1124B00221A60104B95
:101C50001B68002B09D00123BB600F4B4FF0805253
:101C60001A60BFF34F8FBFF36F8FFEF7E3FEBB68C1
:101C700018461037BD4680BDC04100209841002065
:101C800058410020A0410020C4400020C040002056
:101C9000AC410020A841002004ED00E080B483B0F6
:101CA00000AF054B1B687B607B6818460C37BD4650
:101CB0005DF8047B704700BF9C41002080B586B072
:101CC00000AF00237B614E4B1B68002B40F08E80E1
:101CD0004C4B1B6801333B614A4A3B6913603B69CB
:101CE000002B20D1484B1B681B68002B0AD04FF0FB
:101CF000500383F31188BFF36F8FBFF34F8F3B60A7
:101D000000BFFEE7404B1B68FB60404B1B683E4A30
:101D100013603E4AFB6813603D4B1B6801333C4A2D
:101D2000136000F0D5FA3B4B1B683A699A4248D3DE
:101D3000354B1B681B68002B04D1364B4FF0FF322C
:101D40001A603EE0304B1B68DB68DB68BB60BB6839
:101D50005B687B603A697B689A4203D22D4A7B6854
:101D600013602EE0BB6804331846FEF7D5FFBB684E
:101D70009B6A002B04D0BB6818331846FEF7CCFFD3
:101D8000BB68DB6A01229A40234B1B681343224A3B
:101D90001360BB68DA6A13469B0013449B001F4A1A
:101DA0001A44BB68043319461046FEF758FFBB6857
:101DB000DA6A1B4B1B68DB6A9A42B9D301237B6149
:101DC000B6E7174B1B68DA6A144913469B001344A5
:101DD0009B000B441B68012B01D901237B61114B34
:101DE0001B68002B07D001237B6104E00E4B1B68AE
:101DF00001330D4A13607B6918461837BD4680BD14
:101E0000C04100209C41002050410020544100204E
:101E1000B0410020B8410020A0410020C440002073
:101E2000C0400020AC410020A841002080B487B011
:101E300000AF324B1B68002B03D0314B01221A60DC
:101E400056E02F4B00221A602E4B00221A602D4BB9
:101E50001A682D4B1B689A4209D92C4B1B68D96D07
:101E6000284A1068284A1268821A0A44DA65254B03
:101E70001B68254A1360264B1B68FB60FB68B3FA9E
:101E800083F3FB72FB7AC3F11F037B6121497A69FB
:101E900013469B0013449B000B441B68002B0AD184
:101EA0004FF0500383F31188BFF36F8FBFF34F8F51
:101EB0007B6000BFFEE77A6913469B0013449B00DA
:101EC000144A13443B613B695B685A683B695A603A
:101ED0003B695A683B6908339A4204D13B695B68A5
:101EE0005A683B695A603B695B68DB68074A136064
:101EF00000BF1C37BD465DF8047B7047C041002021
:101F0000AC410020C8410020C4410020C040002056
:101F1000A0410020C440002080B584B000AF7860AC
:101F200039607B68002B0AD14FF0500383F311888E
:101F3000BFF36F8FBFF34F8FFB6000BFFEE7074B10
:101F40001B68183319467868FEF7ADFE0121386822
:101F500000F082FA00BF1037BD4680BDC0400020AF
:101F600080B586B000AFF860B9607A60FB68002B7E
:101F70000AD14FF0500383F31188BFF36F8FBFF383
:101F80004F8F7B6100BFFEE70A4B1B681833194671
:101F9000F868FEF764FE7B68002B02D04FF0FF3339
:101FA000BB607968B86800F057FA00BF1837BD46C3
:101FB00080BD00BFC040002080B586B000AF786013
:101FC0007B68DB68DB683B613B69002B0AD14FF023
:101FD000500383F31188BFF36F8FBFF34F8FFB6004
:101FE00000BFFEE73B6918331846FEF795FE1D4B10
:101FF0001B68002B1CD13B6904331846FEF78CFE8E
:102000003B69DB6A01229A40174B1B681343164A4F
:1020100013603B69DA6A13469B0013449B00134A22
:102020001A443B69043319461046FEF718FE05E0D2
:102030003B69183319460E48FEF711FE3B69DA6A10
:102040000C4B1B68DB6A9A4205D901237B610A4B62
:1020500001221A6001E000237B617B691846183772
:10206000BD4680BDC0410020A0410020C4400020EA
:1020700058410020C0400020AC41002080B483B013
:1020800000AF7860064B1A687B681A60054B1A68C7
:102090007B685A6000BF0C37BD465DF8047B704713
:1020A000B04100209C41002080B588B000AF78602E
:1020B00039607B68002B0AD14FF0500383F31188FD
:1020C000BFF36F8FBFF34F8F3B6100BFFEE73B68ED
:1020D000002B0AD14FF0500383F31188BFF36F8FA9
:1020E000BFF34F8FFB6000BFFEE7FEF773FC244B8E
:1020F0001B68BB617B685B68BA69D31A7B61214B43
:102100001B6893F86530002B07D01E4B1B6800221C
:1021100083F865200123FB612BE03B681B68B3F16A
:10212000FF3F02D10023FB6123E07B681A68164B56
:102130001B689A4207D07B685B68BA699A4202D3EF
:102140000123FB6115E03B681B687A699A420BD258
:102150003B681A687B69D21A3B681A607868FFF797
:102160008DFF0023FB6104E03B6800221A6001231D
:10217000FB61FEF75FFCFB6918462037BD4680BD5A
:102180009C410020C0400020B041002080B400AF3E
:10219000034B01221A6000BFBD465DF8047B704707
:1021A000AC41002080B582B000AF786000F052F8FA
:1021B000064B1B68012BF9D9054B4FF080521A6072
:1021C000BFF34F8FBFF36F8FF0E700BFC440002015
:1021D00004ED00E080B582B000AF00237B600CE02E
:1021E0007A6813469B0013449B00124A1344184616
:1021F000FEF708FD7B6801337B607B68042BEFD919
:102200000D48FEF7FFFC0D48FEF7FCFC0C48FEF7FE
:10221000F9FC0C48FEF7F6FC0B48FEF7F3FC0B4B01
:10222000054A1A600A4B054A1A6000BF0837BD46C6
:1022300080BD00BFC4400020284100203C41002058
:10224000584100206C410020844100205041002072
:102250005441002080B582B000AF19E0FEF7BAFB10
:10226000104BDB68DB687B607B6804331846FEF745
:1022700053FD0D4B1B68013B0B4A13600B4B1B6856
:10228000013B0A4A1360FEF7D5FB786800F010F8AE
:10229000064B1B68002BE1D100BF00BF0837BD46CD
:1022A00080BD00BF6C41002098410020804100208B
:1022B00080B582B000AF78607B681B6B1846FEF774
:1022C0002BF97868FEF728F900BF0837BD4680BDB6
:1022D00080B483B000AF0C4B1B681B68002B04D18B
:1022E0000A4B4FF0FF321A6008E0074B1B68DB68AF
:1022F000DB687B607B685B68044A136000BF0C3757
:10230000BD465DF8047B704750410020B841002075
:1023100080B483B000AF0B4B1B68002B02D10123AC
:102320007B6008E0084B1B68002B02D102237B6016
:1023300001E000237B607B6818460C37BD465DF8E2
:10234000047B7047A4410020C041002080B586B0C6
:1023500000AF78607B683B6100237B617B68002B6A
:102360006ED03A4B1B683A699A420AD04FF050033C
:1023700083F31188BFF36F8FBFF34F8FFB6000BFF4
:10238000FEE73B69DB6C002B0AD14FF0500383F36F
:102390001188BFF36F8FBFF34F8FBB6000BFFEE7A5
:1023A0003B69DB6C5A1E3B69DA643B69DA6A3B695C
:1023B0009B6C9A4244D03B69DB6C002B40D13B695B
:1023C00004331846FEF7A8FC0346002B15D13B69E1
:1023D000DA6A1F4913469B0013449B000B441B6899
:1023E000002B0AD13B69DB6A012202FA03F3DA43CC
:1023F000184B1B681340174A13603B699A6C3B6982
:10240000DA623B69DB6AC3F105023B699A613B69A9
:10241000DB6A01229A400F4B1B6813430D4A13607D
:102420003B69DA6A13469B0013449B00084A1A442E
:102430003B69043319461046FEF711FC01237B610A
:102440007B6918461837BD4680BD00BFC0400020DC
:10245000C4400020A041002080B584B000AF786067
:1024600039602B4B1B68FB602A4B1B68002283F8EA
:102470006520284B1B6804331846FEF74DFC0346C5
:10248000002B0BD1234B1B68DB6A012202FA03F3FA
:10249000DA43214B1B6813401F4A13607B68B3F17A
:1024A000FF3F0AD13B68002B07D01A4B1B6804334F
:1024B00019461A48FEF7D3FB26E0FA687B681344F6
:1024C000BB60144B1B68BA685A60BA68FB689A42D2
:1024D00009D2134B1A680F4B1B6804331946104678
:1024E000FEF7E1FB10E00F4B1A680A4B1B68043340
:1024F00019461046FEF7D7FB0B4B1B68BA689A4289
:1025000002D2094ABB68136000BF1037BD4680BDC8
:102510009C410020C0400020A041002084410020B8
:102520005441002050410020B841002080B584B0C3
:1025300002AF00237B6000F0D5FA114B1B68002B23
:102540000BD0104B01930223009300234FF48072B1
:102550000D490E48FFF74FF978607B68002B0AD1D0
:102560004FF0500383F31188BFF36F8FBFF34F8F8A
:102570003B6000BFFEE77B6818460837BD4680BD5C
:10258000FC41002000420020905E0008C5260008A3
:1025900080B58AB000AFF860B9607A603B60002314
:1025A0007B62FB68002B0AD14FF0500383F3118844
:1025B000BFF36F8FBFF34F8F3B6200BFFEE71A4B35
:1025C0001B68002B2AD0BB687B617B68BB61FB6802
:1025D000FB61BB68052B18DCFFF79AFE0346022B54
:1025E00009D1114B186807F1140100233A6BFEF76B
:1025F00081FC786212E00C4B186807F1140100238B
:102600000022FEF777FC786208E0074B186807F1B4
:10261000140100233A68FEF787FD78627B6A18464A
:102620002837BD4680BD00BFFC41002080B588B082
:1026300002AF78603960224B1B68DB68DB687B6126
:102640007B6904331846FEF767FB7B6993F82830F3
:1026500003F00403002B22D07B699A697B68D118B0
:102660007B683A68786900F0D1F80346002B1FD0E8
:102670000023009300237A6800217869FFF788FF20
:1026800038613B69002B13D14FF0500383F311885D
:10269000BFF36F8FBFF34F8FFB6000BFFEE77B6917
:1026A00093F8283023F00103DAB27B6983F82820FD
:1026B0007B691B6A7869984700BF1837BD4680BDA3
:1026C000F441002080B584B000AF786007F10803C2
:1026D000184600F057F8F860BB681946F86800F033
:1026E00003F800F0D5F8F1E780B584B000AF78606A
:1026F0003960FFF729FA07F10803184600F066F879
:10270000F860BB68002B30D13B68002B0AD17A6897
:10271000FB689A4206D8FFF725FAF9687868FFF750
:1027200085FF24E03B68002B08D0134B1B681B6817
:10273000002B01D1012300E000233B600F4B186800
:102740007A68FB68D31A3A681946FEF7C7FFFFF7A5
:1027500009FA0346002B0AD1094B4FF080521A6048
:10276000BFF34F8FBFF36F8F01E0FFF7FBF900BF9F
:102770001037BD4680BD00BFF8410020FC4100205D
:1027800004ED00E080B485B000AF78600E4B1B68AC
:102790001B68002B01D1012200E000227B681A6037
:1027A0007B681B68002B05D1074B1B68DB681B6827
:1027B000FB6001E00023FB60FB6818461437BD4650
:1027C0005DF8047B704700BFF441002080B584B001
:1027D00000AF7860FFF762FAF8600B4B1B68FA688D
:1027E0009A4205D200F01AF97B6801221A6002E0D1
:1027F0007B6800221A60044AFB681360FB68184675
:102800001037BD4680BD00BF0442002080B586B0B1
:1028100000AFF860B9607A603B6000237B61FB68C1
:10282000BA685A60FB68FA681A61BA687B689A42AB
:1028300012D87A683B68D21AFB689B699A4202D325
:1028400001237B611BE0104B1A68FB6804331946B7
:102850001046FEF728FA12E07A683B689A4206D2E0
:10286000BA683B689A4202D301237B6107E0074BB9
:102870001A68FB68043319461046FEF714FA7B69A0
:1028800018461837BD4680BDF8410020F4410020AD
:1028900080B58CB002AFAEE0BB68002BC0F2AA805E
:1028A0003B697B627B6A5B69002B04D07B6A0433E3
:1028B0001846FEF731FA3B1D1846FFF787FF3862CE
:1028C000BB68092B00F2978001A252F823F000BFE9
:1028D000F9280008F9280008F92800086D290008DF
:1028E00081290008CB290008F9280008F9280008E8
:1028F0006D290008812900087B6A93F8283043F08D
:102900000103DAB27B6A83F82820FA687B6A9B6944
:10291000D118FB683A6A786AFFF778FF0346002B04
:1029200069D07B6A1B6A786A98477B6A93F828307B
:1029300003F00403002B5ED0FA687B6A9B691A449B
:102940000023009300230021786AFFF721FEF8613D
:10295000FB69002B4FD14FF0500383F31188BFF375
:102960006F8FBFF34F8FBB6100BFFEE77B6A93F8A9
:10297000283023F00103DAB27B6A83F828203AE09A
:102980007B6A93F8283043F00103DAB27B6A83F85C
:102990002820FA687B6A9A617B6A9B69002B0AD1BE
:1029A0004FF0500383F31188BFF36F8FBFF34F8F46
:1029B0007B6100BFFEE77B6A9A693B6AD1183B6A7C
:1029C0003A6A786AFFF722FF15E07B6A93F82830AD
:1029D00003F00203002B03D1786AFDF79DFD0AE0A6
:1029E0007B6A93F8283023F00103DAB27B6A83F81C
:1029F000282000E000BF084B1B6807F108010022F7
:102A00001846FEF743FC0346002B7FF445AF00BF9A
:102A100000BF2837BD4680BDFC41002080B588B08E
:102A200002AF48E02D4B1B68DB681B683B612B4BFA
:102A30001B68DB68DB68FB60FB6804331846FEF745
:102A40006BF9FB681B6AF8689847FB6893F82830B5
:102A500003F00403002B2ED0FB689B693A691344F2
:102A6000BB60BA683B699A420ED9FB68BA685A6083
:102A7000FB68FA681A61194B1A68FB680433194637
:102A80001046FEF710F916E00023009300233A6980
:102A90000021F868FFF77CFD78607B68002B0AD185
:102AA0004FF0500383F31188BFF36F8FBFF34F8F45
:102AB0003B6000BFFEE7094B1B681B68002BB1D1D0
:102AC000064B1B687B61064B1B68044A1360044A73
:102AD0007B69136000BF1837BD4680BDF4410020FC
:102AE000F841002080B500AFFDF774FF124B1B6862
:102AF000002B1DD11148FEF785F81148FEF782F82A
:102B0000104B0E4A1A60104B0D4A1A6000220C211D
:102B10000520FEF793F90346074A1360064B1B682E
:102B2000002B05D0044B1B6808491846FEF7ACFD86
:102B3000FDF780FF00BF80BDFC410020CC4100209C
:102B4000E0410020F4410020F8410020985E000898
:102B500080B400AFFEE780B400AFFEE780B400AF02
:102B6000FEE780B400AFFEE780B400AF00BFBD4613
:102B70005DF8047B7047000080B500AF024800F0AC
:102B8000F3FD00BF80BD00BF3043002080B582B0A0
:102B900002AF00F07CF81449144802F055FC1348C9
:102BA000FDF70EFB03469AB24FF0FF330F49104872
:102BB00001F02AF80F4B01930223009300234FF4F6
:102BC00080720D490D48FEF716FE0D4B019302234E
:102BD000009300234FF480720A490B48FEF70BFE66
:102BE000FEF764FFFEE700BFA05E000894420020ED
:102BF00008420020F8420020B85E00080D2C0008B2
:102C0000FC420020C05E0008552C000880B582B050
:102C100000AF78600B490C4802F016FC0A48FDF73B
:102C2000CFFA03469AB24FF0FF330749074800F046
:102C3000EBFF074B4FF080521A60BFF34F8FBFF38B
:102C40006F8FE7E7C85E000894420020084200202A
:102C500004ED00E080B582B000AF78600749084815
:102C600002F0F2FB0648FDF7ABFA03469AB24FF0CA
:102C7000FF330349034800F0C7FFEFE7F45E0008A5
:102C8000944200200842002080B400AFFEE780B5E7
:102C900000AF00F059F900F011F800BF80BD80B519
:102CA00082B000AF78607B681B68B3F1804F01D1C0
:102CB00000F062F900BF0837BD4680BD80B500AFA7
:102CC000154B164A1A60144B154A5A60124B0022D3
:102CD0009A60114B0022DA600F4B00221A610E4BF2
:102CE0000C225A610C4B00229A610B4B00221A6293
:102CF000094B00225A62084B00229A62064B0022BE
:102D00005A66054800F030FF0346002B01D0FFF75C
:102D1000BBFF00BF80BD00BF084200200080004014
:102D20002433030080B500AF032000F0F0F90D4B11
:102D30005B6A0C4A43F4E0235362002200216FF0E7
:102D40000B0000F0EFF9002200216FF00A0000F004
:102D5000E9F9002200216FF0090000F0E3F900BF5B
:102D600080BD00BF00ED00E080B58CB000AF7860A2
:102D70007B681B682A4A93424ED12A4BDB6C294A56
:102D800043F04003D364274BDB6C03F04003BB618B
:102D9000BB69244B9B6D234A43F080539365214BC1
:102DA0009B6D03F080537B617B6900F077FB1D4BCB
:102DB000DB6D1C4A43F00103D3651A4BDB6D03F056
:102DC00001033B613B69174BDB6C164A43F0400340
:102DD000D364144BDB6C03F04003FB60FB684FF4DF
:102DE000C073FB6102233B620323BB620823FB62C7
:102DF00007F11C0319460C4800F0BEF907F11C034B
:102E00001946094800F0B8F9462000F0A7F9002259
:102E10000F21462000F086F900BF3037BD4680BD47
:102E200000800040001002400018004880B58CB0BF
:102E300000AF78600023FB620023BB620022796848
:102E40001C2000F06FF91C2000F088F9204B9B6DCE
:102E50001F4A43F0010393651D4B9B6D03F0010373
:102E6000FB60FB6807F1100207F1140311461846D6
:102E700000F0E8FB00F0BAFB03465B00FB62FB6A74
:102E8000144AA2FB03239B0C013BBB62124B4FF085
:102E900080421A60104B40F2E732DA600E4ABB6A99
:102EA00053600D4B00221A610B4B00229A600A48B6
:102EB00000F0FAFB0346002B04D1074800F02AFC7F
:102EC000034600E0012318463037BD4680BD00BFF1
:102ED0000010024083DE1B433043002080B400AF6B
:102EE000174BD3F88830164A43F47003C2F8883081
:102EF000144B1B68134A43F001031360114B00226B
:102F00009A60104B1B680F4A23F0A85323F4102338
:102F100013600C4B4FF48052DA600A4B1B68094A6D
:102F200023F480231360074B00229A61044B4FF077
:102F300000629A6000BFBD465DF8047B704700BF29
:102F400000ED00E00010024080B582B000AF002329
:102F5000FB71032000F0DBF80020FFF767FF03465A
:102F6000002B02D00123FB7101E0FFF7DBFEFB79B0
:102F700018460837BD4680BD80B400AF054B1A68BF
:102F8000054B1B681344034A136000BFBD465DF840
:102F9000047B7047704300200C00002080B400AF19
:102FA000034B1B681846BD465DF8047B704700BFA5
:102FB0007043002080B485B000AF78607B6803F078
:102FC0000703FB600C4BDB68BB60BA684FF6FF037E
:102FD0001340BB60FB681A02BB68134343F0BF6336
:102FE00043F40033BB60044ABB68D36000BF1437AE
:102FF000BD465DF8047B704700ED00E080B400AF93
:10300000044BDB681B0A03F007031846BD465DF856
:10301000047B704700ED00E080B483B000AF03464E
:10302000FB7197F90730002B0BDBFB7903F01F02D4
:10303000074997F907305B09012000FA02F241F8CD
:10304000232000BF0C37BD465DF8047B704700BFEE
:1030500000E100E080B483B000AF03463960FB714B
:1030600097F90730002B0ADB3B68DAB20C4997F975
:1030700007301201D2B20B4483F800230AE03B6808
:10308000DAB20849FB7903F00F03043B1201D2B214
:103090000B441A7600BF0C37BD465DF8047B7047C1
:1030A00000E100E000ED00E080B489B000AFF8601E
:1030B000B9607A60FB6803F00703FB61FB69C3F149
:1030C0000703042B28BF0423BB61FB690433062BD1
:1030D00002D9FB69033B00E000237B614FF0FF3224
:1030E000BB6902FA03F3DA43BB681A407B699A4072
:1030F0004FF0FF317B6901FA03F3D9437B680B4042
:10310000134318462437BD465DF8047B704780B5ED
:1031100082B000AF78607868FFF74CFF00BF0837D7
:10312000BD4680BD80B586B000AF0346B9607A6009
:10313000FB7300237B61FFF761FF78617A68B968F0
:103140007869FFF7B1FF024697F90F30114618462C
:10315000FFF780FF00BF1837BD4680BD80B582B045
:1031600000AF0346FB7197F907301846FFF754FF8D
:1031700000BF0837BD4680BD80B487B000AF78601F
:10318000396000237B6166E13B681A6801217B6935
:1031900001FA03F31340FB60FB68002B00F0588139
:1031A0003B685B68022B03D03B685B68122B23D122
:1031B0007B69DA087B68083253F822303B617B690F
:1031C00003F007039B000F2202FA03F3DB433A6983
:1031D00013403B613B681A697B6903F007039B005E
:1031E00002FA03F33A6913433B617B69DA087B68AF
:1031F0000832396943F822107B681B683B617B69A0
:103200005B00032202FA03F3DB433A6913403B619C
:103210003B685B6803F003027B695B0002FA03F31F
:103220003A6913433B617B683A691A603B685B68A3
:10323000012B0BD03B685B68022B07D03B685B68B7
:10324000112B03D03B685B68122B30D17B689B68E5
:103250003B617B695B00032202FA03F3DB433A69BB
:1032600013403B613B68DA687B695B0002FA03F359
:103270003A6913433B617B683A699A607B685B6893
:103280003B6101227B6902FA03F3DB433A69134095
:103290003B613B685B681B0903F001027B6902FA32
:1032A00003F33A6913433B617B683A695A607B6870
:1032B000DB683B617B695B00032202FA03F3DB43BB
:1032C0003A6913403B613B689A687B695B0002FA8C
:1032D00003F33A6913433B617B683A69DA603B6800
:1032E0005B6803F08053002B00F0B280614B1B6ED3
:1032F000604A43F0010313665E4B1B6E03F001034B
:10330000BB60BB685C4A7B699B08023352F8233080
:103310003B617B6903F003039B000F2202FA03F376
:10332000DB433A6913403B617B68B3F1904F2BD08C
:103330007B68524A934225D07B68514A93421FD002
:103340007B68504A934219D07B684F4A934213D00E
:103350007B684E4A93420DD07B684D4A934207D01A
:103360007B684C4A934201D107230EE008230CE00E
:1033700006230AE0052308E0042306E0032304E013
:10338000022302E0012300E000237A6902F0030235
:10339000920093403A6913433B6137497B699B082C
:1033A00002333A6941F823203B4B1B683B61FB68C1
:1033B000DB433A6913403B613B685B6803F480334D
:1033C000002B03D03A69FB6813433B61324A3B69E7
:1033D0001360314B5B683B61FB68DB433A69134028
:1033E0003B613B685B6803F40033002B03D03A6910
:1033F000FB6813433B61284A3B695360264B9B683B
:103400003B61FB68DB433A6913403B613B685B68A7
:1034100003F48013002B03D03A69FB6813433B612C
:103420001D4A3B6993601C4BDB683B61FB68DB43D7
:103430003A6913403B613B685B6803F40013002B5F
:1034400003D03A69FB6813433B61134A3B69D3607D
:103450007B6901337B613B681A687B6922FA03F35D
:10346000002B7FF491AE00BF00BF1C37BD465DF856
:10347000047B704700100240000001400004004837
:1034800000080048000C00480010004800140048E4
:1034900000180048001C00480004014080B400AF40
:1034A000054B5B68044A43F40073536000BFBD469C
:1034B0005DF8047B704700BF0070004080B489B0A5
:1034C00000AF0023FB610023BB613E4B9B6803F010
:1034D0000C033B613B4BDB6803F00303FB603B6980
:1034E000002B05D03B690C2B21D1FB68012B1ED191
:1034F000344B1B6803F00803002B07D1314BD3F882
:1035000094301B0A03F00F03FB6105E02D4B1B6891
:103510001B0903F00F03FB612B4AFB6952F82330B0
:10352000FB613B69002B0DD1FB69BB610AE03B6984
:10353000042B02D1254BBB6104E03B69082B01D170
:10354000234BBB613B690C2B34D11E4BDB6803F072
:103550000303BB60BB68022B03D0BB68032B03D003
:1035600005E01A4B7B6105E0194B7B6102E0FB69CA
:103570007B6100BF134BDB681B0903F00F030133B2
:103580007B60104BDB681B0A03F07F037A6902FB48
:1035900003F27B68B2FBF3F37B610A4BDB685B0EE3
:1035A00003F0030301335B003B607A693B68B2FBC5
:1035B000F3F3BB61BB6918462437BD465DF8047B55
:1035C000704700BF00100240285F00080024F4008C
:1035D00000127A0080B400AF034B1B681846BD464A
:1035E0005DF8047B704700BF0800002080B500AF85
:1035F000FFF7F0FF0246064B9B681B0A03F0070328
:103600000449CB5C03F01F0322FA03F3184680BD84
:1036100000100240205F000880B500AFFFF7DAFF1E
:103620000246064B9B68DB0A03F007030449CB5CA8
:1036300003F01F0322FA03F3184680BD0010024076
:10364000205F000880B483B000AF786039607B6889
:103650000F221A60124B9B6803F003027B685A60CA
:103660000F4B9B6803F0F0027B689A600C4B9B68E1
:1036700003F4E0627B68DA60094B9B68DB0803F4C3
:10368000E0627B681A61074B1B6803F00F023B681E
:103690001A6000BF0C37BD465DF8047B704700BF61
:1036A000001002400020024080B582B000AF786078
:1036B0007B68002B01D101231DE07B6893F83D302E
:1036C000DBB2002B06D17B68002283F83C207868AF
:1036D00000F015F87B68022283F83D207B681A68A9
:1036E0007B6804331946104600F086F97B68012296
:1036F00083F83D20002318460837BD4680BD80B4BE
:1037000083B000AF786000BF0C37BD465DF8047B26
:103710007047000080B485B000AF78607B681B689C
:10372000DA687B681B6842F00102DA607B681B681C
:103730009A680C4B1340FB60FB68062B0BD0FB68B0
:10374000B3F5803F07D07B681B681A687B681B68ED
:1037500042F001021A60002318461437BD465DF896
:10376000047B70470700010080B582B000AF78602D
:103770007B681B681B6903F00203022B22D17B6864
:103780001B68DB6803F00203022B1BD17B681B68FC
:103790006FF002021A617B6801221A777B681B684E
:1037A0009B6903F00303002B03D0786800F005F950
:1037B00005E0786800F0F7F8786800F008F97B68B1
:1037C00000221A777B681B681B6903F00403042B33
:1037D00022D17B681B68DB6803F00403042B1BD138
:1037E0007B681B686FF004021A617B6802221A77FB
:1037F0007B681B689B6903F44073002B03D07868D7
:1038000000F0DBF805E0786800F0CDF8786800F0AB
:10381000DEF87B6800221A777B681B681B6903F05F
:103820000803082B22D17B681B68DB6803F00803C0
:10383000082B1BD17B681B686FF008021A617B683C
:1038400004221A777B681B68DB6903F00303002BF3
:1038500003D0786800F0B1F805E0786800F0A3F8CC
:10386000786800F0B4F87B6800221A777B681B68E0
:103870001B6903F01003102B22D17B681B68DB68E7
:1038800003F01003102B1BD17B681B686FF0100234
:103890001A617B6808221A777B681B68DB6903F46E
:1038A0004073002B03D0786800F087F805E0786853
:1038B00000F079F8786800F08AF87B6800221A77BF
:1038C0007B681B681B6903F00103012B0ED17B6829
:1038D0001B68DB6803F00103012B07D17B681B68C1
:1038E0006FF001021A617868FFF7D9F97B681B68ED
:1038F0001B6903F08003802B0ED17B681B68DB689B
:1039000003F08003802B07D17B681B686FF0800277
:103910001A61786800F014F97B681B681B6903F46E
:103920008073B3F5807F0ED17B681B68DB6803F082
:103930008003802B07D17B681B686FF480721A614B
:10394000786800F007F97B681B681B6903F0400387
:10395000402B0ED17B681B68DB6803F04003402BD3
:1039600007D17B681B686FF040021A61786800F02D
:1039700038F87B681B681B6903F02003202B0ED1ED
:103980007B681B68DB6803F02003202B07D17B6872
:103990001B686FF020021A61786800F0C7F800BF5A
:1039A0000837BD4680BD80B483B000AF786000BFEB
:1039B0000C37BD465DF8047B704780B483B000AF20
:1039C000786000BF0C37BD465DF8047B704780B45B
:1039D00083B000AF786000BF0C37BD465DF8047B54
:1039E000704780B483B000AF786000BF0C37BD462D
:1039F0005DF8047B7047000080B485B000AF78604C
:103A000039607B681B68FB607B68404A934213D037
:103A10007B68B3F1804F0FD07B683D4A93420BD057
:103A20007B683C4A934207D07B683B4A934203D071
:103A30007B683A4A934208D1FB6823F07003FB602D
:103A40003B685B68FA681343FB607B682F4A9342CC
:103A50001FD07B68B3F1804F1BD07B682C4A934208
:103A600017D07B682B4A934213D07B682A4A934233
:103A70000FD07B68294A93420BD07B68284A934237
:103A800007D07B68274A934203D07B68264A93423B
:103A900008D1FB6823F44073FB603B68DB68FA687D
:103AA0001343FB60FB6823F080023B685B691343B0
:103AB000FB607B68FA681A603B689A687B68DA6228
:103AC0003B681A687B689A627B68104A93420FD001
:103AD0007B68124A93420BD07B68114A934207D00D
:103AE0007B68104A934203D07B680F4A934203D10C
:103AF0003B681A697B681A637B6801225A6100BFC0
:103B00001437BD465DF8047B704700BF002C0140B0
:103B10000004004000080040000C00400034014058
:103B200000400140004401400048014080B483B09F
:103B300000AF786000BF0C37BD465DF8047B70476E
:103B400080B483B000AF786000BF0C37BD465DF82D
:103B5000047B704780B483B000AF786000BF0C373F
:103B6000BD465DF8047B704780B582B000AF7860D9
:103B70007B68002B01D1012342E07B68D3F88030C1
:103B8000002B06D17B68002283F87C207868FFF741
:103B9000EBF87B682422C3F880207B681B681A68D6
:103BA0007B681B6822F001021A60786800F0C4F894
:103BB0000346012B01D1012322E07B689B6A002B85
:103BC00002D0786801F060FA7B681B685A687B68ED
:103BD0001B6822F490425A607B681B689A687B6875
:103BE0001B6822F02A029A607B681B681A687B684F
:103BF0001B6842F001021A60786801F0E7FA034698
:103C000018460837BD4680BD80B58AB002AFF8605F
:103C1000B9603B601346FB80FB68D3F88030202BF3
:103C200040F08480BB68002B02D0FB88002B01D1C0
:103C300001237CE0FB6893F87C30012B01D1022347
:103C400075E0FB68012283F87C20FB680022C3F842
:103C50008820FB682122C3F88020FFF79FF9786154
:103C6000FB68FA88A3F85420FB68FA88A3F856206A
:103C7000FB689B68B3F5805F08D1FB681B69002B6C
:103C800004D10023FB61BB68BB6103E0BB68FB613F
:103C90000023BB612DE03B6800937B6900228021FB
:103CA000F86801F0DBFA0346002B01D003233EE065
:103CB000FB69002B0BD1BB691A88FB681B68C2F338
:103CC000080292B21A85BB690233BB6108E0FB6946
:103CD0001A78FB681B6892B21A85FB690133FB6195
:103CE000FB68B3F856309BB2013B9AB2FB68A3F86D
:103CF0005620FB68B3F856309BB2002BCBD13B6803
:103D000000937B6900224021F86801F0A7FA03467E
:103D1000002B01D003230AE0FB682022C3F8802097
:103D2000FB68002283F87C20002300E00223184671
:103D30002037BD4680BD00002DE9B04F8AB000AFEE
:103D4000F8600023FB610023FB7600237B61FB68A6
:103D50009A68FB681B691A43FB685B691A43FB6836
:103D6000DB6913437B62FB685B6E7A6A13437B6299
:103D7000FB681B681A68AA4B1340FA681268796AD4
:103D80000B431360FB681B685B6823F44051FB68BE
:103D9000DA68FB681B680A435A60FB689B697B62B0
:103DA000FB681B689F4A934204D0FB681B6A7A6ACF
:103DB00013437B62FB681B689B6823F06E4323F40C
:103DC0003063FA681268796A0B439360FB681B687A
:103DD000DB6A23F00F01FB685A6AFB681B680A4321
:103DE000DA62FB681B68904A934225D18F4BD3F867
:103DF000883003F00303032B1AD801A252F823F0F2
:103E0000113E0008213E0008193E0008293E000826
:103E1000012387F8233016E1022387F8233012E1CB
:103E2000042387F823300EE1082387F823300AE1C2
:103E3000102387F8233006E1FB681B687C4A934215
:103E400038D17A4BD3F8883003F00C030C2B2DD8E3
:103E500001A252F823F000BF8D3E0008AD3E0008DD
:103E6000AD3E0008AD3E00089D3E0008AD3E000896
:103E7000AD3E0008AD3E0008953E0008AD3E00088E
:103E8000AD3E0008AD3E0008A53E0008002387F8BF
:103E90002330D8E0022387F82330D4E0042387F8C6
:103EA0002330D0E0082387F82330CCE0102387F8B4
:103EB0002330C8E0FB681B685E4A934225D15B4B08
:103EC000D3F8883003F03003302B16D0302B18D8BD
:103ED000202B0AD0202B14D8002B02D0102B08D076
:103EE0000FE0002387F82330ADE0022387F823306A
:103EF000A9E0042387F82330A5E0082387F82330BE
:103F0000A1E0102387F823309DE0FB681B684A4A34
:103F1000934225D1454BD3F8883003F0C003C02B22
:103F200016D0C02B18D8802B0AD0802B14D8002B89
:103F300002D0402B08D00FE0002387F8233082E026
:103F4000022387F823307EE0042387F823307AE0C9
:103F5000082387F8233076E0102387F8233072E0B7
:103F6000FB681B68354A93422AD1304BD3F888301E
:103F700003F44073B3F5407F1AD0B3F5407F1BD8EC
:103F8000B3F5007F0CD0B3F5007F15D8002B03D01C
:103F9000B3F5807F08D00FE0002387F8233052E08C
:103FA000022387F823304EE0042387F823304AE0C9
:103FB000082387F8233046E0102387F8233042E0B7
:103FC000FB681B68174A93423AD1184BD3F88830E4
:103FD00003F44063B3F5406F1AD0B3F5406F1BD8BC
:103FE000B3F5006F0CD0B3F5006F15D8002B03D0DC
:103FF000B3F5806F08D00FE0002387F8233022E06C
:10400000022387F823301EE0042387F823301AE0C8
:10401000082387F8233016E0102387F8233012E0B6
:10402000F369FFCF008000400038014000100240DB
:104030000044004000480040004C00400050004058
:10404000102387F82330FB681B68884A934240F0AE
:10405000158497F82330082B00F25C8101A252F8F6
:1040600023F000BF89400008154300082B410008D9
:1040700015430008C941000815430008154300080E
:104080001543000875420008FFF7B0FA0246FB68C6
:104090005B6A002B44D0FB685B6A012B3ED0FB6857
:1040A0005B6A022B38D0FB685B6A032B32D0FB685B
:1040B0005B6A042B2CD0FB685B6A052B26D0FB685F
:1040C0005B6A062B20D0FB685B6A072B1AD0FB6863
:1040D0005B6A082B14D0FB685B6A092B0ED0FB6867
:1040E0005B6A0A2B08D0FB685B6A0B2B02D14FF48A
:1040F000807316E0012314E0802312E0402310E0D7
:1041000020230EE010230CE00C230AE00A2308E031
:10411000082306E0062304E0042302E0022300E073
:104120000123B2FBF3F37B61F7E0FB685B6A002BD2
:1041300044D0FB685B6A012B3ED0FB685B6A022BB4
:1041400038D0FB685B6A032B32D0FB685B6A042BB8
:104150002CD0FB685B6A052B26D0FB685B6A062BBC
:1041600020D0FB685B6A072B1AD0FB685B6A082BC0
:1041700014D0FB685B6A092B0ED0FB685B6A0A2BC4
:1041800008D0FB685B6A0B2B02D14FF4807316E0FA
:10419000012314E0802312E0402310E020230EE0EE
:1041A00010230CE00C230AE00A2308E0082306E0B1
:1041B000062304E0042302E0022300E001232C4A4A
:1041C000B2FBF3F37B61A8E0FFF778F90246FB68E6
:1041D0005B6A002B44D0FB685B6A012B3ED0FB6816
:1041E0005B6A022B38D0FB685B6A032B32D0FB681A
:1041F0005B6A042B2CD0FB685B6A052B26D0FB681E
:104200005B6A062B20D0FB685B6A072B1AD0FB6821
:104210005B6A082B14D0FB685B6A092B0ED0FB6825
:104220005B6A0A2B08D0FB685B6A0B2B02D14FF448
:10423000807316E0012314E0802312E0402310E095
:1042400020230EE010230CE00C230AE00A2308E0F0
:10425000082306E0062304E0042302E0022300E032
:104260000123B2FBF3F37B6157E000BF0080004005
:104270000024F400FB685B6A002B44D0FB685B6A97
:10428000012B3ED0FB685B6A022B38D0FB685B6A6F
:10429000032B32D0FB685B6A042B2CD0FB685B6A73
:1042A000052B26D0FB685B6A062B20D0FB685B6A77
:1042B000072B1AD0FB685B6A082B14D0FB685B6A7B
:1042C000092B0ED0FB685B6A0A2B08D0FB685B6A7F
:1042D0000B2B02D14FF4807316E0012314E08023EE
:1042E00012E0402310E020230EE010230CE00C230A
:1042F0000AE00A2308E0082306E0062304E004237A
:1043000002E0022300E001234FF40042B2FBF3F38A
:104310007B6102E00123FB7600BF7B69002B00F08C
:104320009D86FB685A6813465B0013447A699A427B
:1043300005D3FB685B681B037A699A4203D90123A2
:10434000FB7600F08BBE97F82330082B00F28082BA
:1043500001A252F823F000BF7D4300085148000835
:10436000B544000851480008E745000851480008D6
:1043700051480008514800081F470008FFF736F968
:10438000034618464FF00001FB685B6A002B67D0BC
:10439000FB685B6A012B5ED0FB685B6A022B55D021
:1043A000FB685B6A032B4CD0FB685B6A042B43D031
:1043B000FB685B6A052B3AD0FB685B6A062B31D041
:1043C000FB685B6A072B28D0FB685B6A082B1FD051
:1043D000FB685B6A092B16D0FB685B6A0A2B0DD061
:1043E000FB685B6A0B2B04D14FF480724FF0000323
:1043F0003AE04FF001024FF0000335E04FF0800249
:104400004FF0000330E04FF040024FF000032BE08C
:104410004FF020024FF0000326E04FF010024FF063
:10442000000321E04FF00C024FF000031CE04FF0BE
:104430000A024FF0000317E04FF008024FF00003AC
:1044400012E04FF006024FF000030DE04FF00402BF
:104450004FF0000308E04FF002024FF0000303E0CA
:104460004FF001024FF00003FBF702FF02460B463C
:10447000104619464FF000024FF000030B0243EACA
:1044800010630202F9684968490808464FF00001C4
:1044900014183C604B417B60FB685B681A464FF028
:1044A0000003D7E90001FBF7E3FE02460B46134683
:1044B000FB61D0E1FB685B6A002B67D0FB685B6A3D
:1044C000012B5ED0FB685B6A022B55D0FB685B6AF0
:1044D000032B4CD0FB685B6A042B43D0FB685B6A00
:1044E000052B3AD0FB685B6A062B31D0FB685B6A10
:1044F000072B28D0FB685B6A082B1FD0FB685B6A20
:10450000092B16D0FB685B6A0A2B0DD0FB685B6A2F
:104510000B2B04D14FF480724FF000033AE04FF0C0
:1045200001024FF0000335E04FF080024FF000032E
:1045300030E04FF040024FF000032BE04FF020023C
:104540004FF0000326E04FF010024FF0000321E08F
:104550004FF00C024FF000031CE04FF00A024FF046
:10456000000317E04FF008024FF0000312E04FF095
:1045700006024FF000030DE04FF004024FF000037D
:1045800008E04FF002024FF0000303E04FF0010299
:104590004FF00003B8484FF00001FBF769FE0246F8
:1045A0000B46104619464FF000024FF000030B0275
:1045B00043EA10630202F9684968490808464FF067
:1045C000000112EB000A43EB010BFB685B681A4623
:1045D0004FF0000350465946FBF74AFE02460B4691
:1045E0001346FB6137E1FEF769FF034618464FF0BB
:1045F0000001FB685B6A002B67D0FB685B6A012BDC
:104600005ED0FB685B6A022B55D0FB685B6A032BAC
:104610004CD0FB685B6A042B43D0FB685B6A052BBC
:104620003AD0FB685B6A062B31D0FB685B6A072BCC
:1046300028D0FB685B6A082B1FD0FB685B6A092BDC
:1046400016D0FB685B6A0A2B0DD0FB685B6A0B2BEC
:1046500004D14FF480724FF000033AE04FF00102B2
:104660004FF0000335E04FF080024FF0000330E0E0
:104670004FF040024FF000032BE04FF020024FF0CC
:10468000000326E04FF010024FF0000321E04FF04E
:104690000C024FF000031CE04FF00A024FF0000341
:1046A00017E04FF008024FF0000312E04FF006024F
:1046B0004FF000030DE04FF004024FF0000308E05C
:1046C0004FF002024FF0000303E04FF001024FF001
:1046D0000003FBF7CDFD02460B46104619464FF08E
:1046E00000024FF000030B0243EA10630202F96874
:1046F0004968490808464FF0000112EB000843EBF7
:104700000109FB685B681A464FF0000340464946C2
:10471000FBF7AEFD02460B461346FB619BE0FB68D0
:104720005B6A002B67D0FB685B6A012B5ED0FB687D
:104730005B6A022B55D0FB685B6A032B4CD0FB688D
:104740005B6A042B43D0FB685B6A052B3AD0FB689D
:104750005B6A062B31D0FB685B6A072B28D0FB68AD
:104760005B6A082B1FD0FB685B6A092B16D0FB68BD
:104770005B6A0A2B0DD0FB685B6A0B2B04D14FF4EC
:1047800080724FF000033AE04FF001024FF0000357
:1047900035E04FF080024FF0000330E04FF0400270
:1047A0004FF000032BE04FF020024FF0000326E013
:1047B0004FF010024FF0000321E04FF00C024FF0D9
:1047C00000031CE04FF00A024FF0000317E04FF027
:1047D00008024FF0000312E04FF006024FF0000312
:1047E0000DE04FF004024FF0000308E04FF002022A
:1047F0004FF0000303E04FF001024FF000034FF4CD
:1048000000404FF00001FBF733FD02460B46104617
:1048100019464FF000024FF000030B0243EA106309
:104820000202F9684968490808464FF00001141867
:1048300043EB0105FB685B681A464FF00003204616
:104840002946FBF715FD02460B461346FB6102E0C5
:104850000123FB7600BFFB69B3F5407F08D3FB69FA
:10486000B3F5801F04D2FB681B68FA69DA60F5E3D0
:104870000123FB76F2E300BF0024F400FB68DB6950
:10488000B3F5004F40F0FE8197F82330082B00F27B
:10489000D98101A252F823F0BD48000873490008ED
:1048A000294A0008454C0008DB4A0008454C00082E
:1048B000454C0008454C0008914B0008FEF796FE59
:1048C0000246FB685B6A002B44D0FB685B6A012BE5
:1048D0003ED0FB685B6A022B38D0FB685B6A032B17
:1048E00032D0FB685B6A042B2CD0FB685B6A052B1B
:1048F00026D0FB685B6A062B20D0FB685B6A072B1F
:104900001AD0FB685B6A082B14D0FB685B6A092B22
:104910000ED0FB685B6A0A2B08D0FB685B6A0B2B26
:1049200002D14FF4807316E0012314E0802312E0DB
:10493000402310E020230EE010230CE00C230AE0BB
:104940000A2308E0082306E0062304E0042302E02B
:10495000022300E00123B2FBF3F35A00FB685B681B
:104960005B081A44FB685B68B2FBF3F39BB2FB6124
:104970006BE1FEF751FE0246FB685B6A002B44D0F8
:10498000FB685B6A012B3ED0FB685B6A022B38D068
:10499000FB685B6A032B32D0FB685B6A042B2CD06C
:1049A000FB685B6A052B26D0FB685B6A062B20D070
:1049B000FB685B6A072B1AD0FB685B6A082B14D074
:1049C000FB685B6A092B0ED0FB685B6A0A2B08D078
:1049D000FB685B6A0B2B02D14FF4807316E0012356
:1049E00014E0802312E0402310E020230EE0102387
:1049F0000CE00C230AE00A2308E0082306E0062363
:104A000004E0042302E0022300E00123B2FBF3F3FD
:104A10005A00FB685B685B081A44FB685B68B2FB82
:104A2000F3F39BB2FB6110E1FB685B6A002B44D09F
:104A3000FB685B6A012B3ED0FB685B6A022B38D0B7
:104A4000FB685B6A032B32D0FB685B6A042B2CD0BB
:104A5000FB685B6A052B26D0FB685B6A062B20D0BF
:104A6000FB685B6A072B1AD0FB685B6A082B14D0C3
:104A7000FB685B6A092B0ED0FB685B6A0A2B08D0C7
:104A8000FB685B6A0B2B02D14FF4807316E00123A5
:104A900014E0802312E0402310E020230EE01023D6
:104AA0000CE00C230AE00A2308E0082306E00623B2
:104AB00004E0042302E0022300E00123A14AB2FB48
:104AC000F3F35A00FB685B685B081A44FB685B6899
:104AD000B2FBF3F39BB2FB61B7E0FEF7EFFC0246DB
:104AE000FB685B6A002B44D0FB685B6A012B3ED0FD
:104AF000FB685B6A022B38D0FB685B6A032B32D001
:104B0000FB685B6A042B2CD0FB685B6A052B26D004
:104B1000FB685B6A062B20D0FB685B6A072B1AD008
:104B2000FB685B6A082B14D0FB685B6A092B0ED00C
:104B3000FB685B6A0A2B08D0FB685B6A0B2B02D10F
:104B40004FF4807316E0012314E0802312E0402329
:104B500010E020230EE010230CE00C230AE00A23CF
:104B600008E0082306E0062304E0042302E0022311
:104B700000E00123B2FBF3F35A00FB685B685B08BB
:104B80001A44FB685B68B2FBF3F39BB2FB615CE029
:104B9000FB685B6A002B44D0FB685B6A012B3ED04C
:104BA000FB685B6A022B38D0FB685B6A032B32D050
:104BB000FB685B6A042B2CD0FB685B6A052B26D054
:104BC000FB685B6A062B20D0FB685B6A072B1AD058
:104BD000FB685B6A082B14D0FB685B6A092B0ED05C
:104BE000FB685B6A0A2B08D0FB685B6A0B2B02D15F
:104BF0004FF4807316E0012314E0802312E0402379
:104C000010E020230EE010230CE00C230AE00A231E
:104C100008E0082306E0062304E0042302E0022360
:104C200000E001234FF40042B2FBF3F35A00FB68AB
:104C30005B685B081A44FB685B68B2FBF3F39BB2EA
:104C4000FB6102E00123FB7600BFFB690F2B16D945
:104C5000FB69B3F5803F12D2FB699BB223F00F03CF
:104C60007B82FB695B089BB203F007039AB27B8AE5
:104C700013437B82FB681B687A8ADA60EEE10123CA
:104C8000FB76EBE197F82330082B00F2D68101A2E6
:104C900052F823F0B94C0008714D0008254E000869
:104CA0003B500008D54E00083B5000083B50000820
:104CB0003B500008894F0008FEF798FC0246FB684D
:104CC0005B6A002B46D0FB685B6A012B40D0FB6817
:104CD0005B6A022B3AD0FB685B6A032B34D0FB681B
:104CE0005B6A042B2CD0FB685B6A052B26D0FB6823
:104CF0005B6A062B20D0FB685B6A072B1AD0FB6827
:104D00005B6A082B14D0FB685B6A092B0ED0FB682A
:104D10005B6A0A2B08D0FB685B6A0B2B02D14FF44D
:104D2000807318E0012316E0802314E0402312E092
:104D3000202310E010230EE00C230CE00A230AE0ED
:104D4000082308E00024F400062304E0042302E022
:104D5000022300E00123B2FBF3F2FB685B685B080F
:104D60001A44FB685B68B2FBF3F39BB2FB6167E13B
:104D7000FEF752FC0246FB685B6A002B44D0FB68DE
:104D80005B6A012B3ED0FB685B6A022B38D0FB6864
:104D90005B6A032B32D0FB685B6A042B2CD0FB6868
:104DA0005B6A052B26D0FB685B6A062B20D0FB686C
:104DB0005B6A072B1AD0FB685B6A082B14D0FB6870
:104DC0005B6A092B0ED0FB685B6A0A2B08D0FB6874
:104DD0005B6A0B2B02D14FF4807316E0012314E0C1
:104DE000802312E0402310E020230EE010230CE08B
:104DF0000C230AE00A2308E0082306E0062304E067
:104E0000042302E0022300E00123B2FBF3F2FB687B
:104E10005B685B081A44FB685B68B2FBF3F39BB208
:104E2000FB610DE1FB685B6A002B44D0FB685B6AA9
:104E3000012B3ED0FB685B6A022B38D0FB685B6AB3
:104E4000032B32D0FB685B6A042B2CD0FB685B6AB7
:104E5000052B26D0FB685B6A062B20D0FB685B6ABB
:104E6000072B1AD0FB685B6A082B14D0FB685B6ABF
:104E7000092B0ED0FB685B6A0A2B08D0FB685B6AC3
:104E80000B2B02D14FF4807316E0012314E0802332
:104E900012E0402310E020230EE010230CE00C234E
:104EA0000AE00A2308E0082306E0062304E00423BE
:104EB00002E0022300E00123724AB2FBF3F2FB6836
:104EC0005B685B081A44FB685B68B2FBF3F39BB258
:104ED000FB61B5E0FEF7F2FA0246FB685B6A002B65
:104EE00044D0FB685B6A012B3ED0FB685B6A022BF7
:104EF00038D0FB685B6A032B32D0FB685B6A042BFB
:104F00002CD0FB685B6A052B26D0FB685B6A062BFE
:104F100020D0FB685B6A072B1AD0FB685B6A082B02
:104F200014D0FB685B6A092B0ED0FB685B6A0A2B06
:104F300008D0FB685B6A0B2B02D14FF4807316E03C
:104F4000012314E0802312E0402310E020230EE030
:104F500010230CE00C230AE00A2308E0082306E0F3
:104F6000062304E0042302E0022300E00123B2FB55
:104F7000F3F2FB685B685B081A44FB685B68B2FB92
:104F8000F3F39BB2FB615BE0FB685B6A002B44D0F0
:104F9000FB685B6A012B3ED0FB685B6A022B38D052
:104FA000FB685B6A032B32D0FB685B6A042B2CD056
:104FB000FB685B6A052B26D0FB685B6A062B20D05A
:104FC000FB685B6A072B1AD0FB685B6A082B14D05E
:104FD000FB685B6A092B0ED0FB685B6A0A2B08D062
:104FE000FB685B6A0B2B02D14FF4807316E0012340
:104FF00014E0802312E0402310E020230EE0102371
:105000000CE00C230AE00A2308E0082306E006234C
:1050100004E0042302E0022300E001234FF40042F5
:10502000B2FBF3F2FB685B685B081A44FB685B68E1
:10503000B2FBF3F39BB2FB6102E00123FB7600BFFE
:10504000FB690F2B08D9FB69B3F5803F04D2FB68DD
:105050001B68FA69DA6001E00123FB76FB68012234
:10506000A3F86A20FB680122A3F86820FB680022ED
:10507000DA66FB6800221A67FB7E18462837BD46B1
:10508000BDE8B08F0024F40080B483B000AF786036
:105090007B689B6A03F00103002B0AD07B681B68C6
:1050A0005B6823F400317B68DA6A7B681B680A431B
:1050B0005A607B689B6A03F00203002B0AD07B686E
:1050C0001B685B6823F480317B681A6B7B681B6804
:1050D0000A435A607B689B6A03F00403002B0AD0E2
:1050E0007B681B685B6823F480217B685A6B7B6854
:1050F0001B680A435A607B689B6A03F00803002B15
:105100000AD07B681B685B6823F400417B689A6B5C
:105110007B681B680A435A607B689B6A03F0100334
:10512000002B0AD07B681B689B6823F480517B6846
:10513000DA6B7B681B680A439A607B689B6A03F0A2
:105140002003002B0AD07B681B689B6823F4005166
:105150007B681A6C7B681B680A439A607B689B6A51
:1051600003F04003002B1AD07B681B685B6823F4B4
:1051700080117B685A6C7B681B680A435A607B68A5
:105180005B6CB3F5801F0AD17B681B685B6823F4F6
:10519000C0017B689A6C7B681B680A435A607B6815
:1051A0009B6A03F08003002B0AD07B681B685B6856
:1051B00023F400217B68DA6C7B681B680A435A6021
:1051C00000BF0C37BD465DF8047B704780B586B0E4
:1051D00002AF78607B680022C3F88820FDF7DEFE0E
:1051E000F8607B681B681B6803F00803082B0ED16E
:1051F0006FF07E430093FB6800224FF40011786843
:1052000000F02CF80346002B01D0032322E07B683A
:105210001B681B6803F00403042B0ED16FF07E4360
:105220000093FB6800224FF48001786800F016F8C4
:105230000346002B01D003230CE07B682022C3F837
:1052400080207B682022C3F884207B68002283F8BA
:105250007C20002318461037BD4680BD80B584B041
:1052600000AFF860B9603B601346FB712CE0BB698E
:10527000B3F1FF3F28D0FDF791FE02463B68D31AF9
:10528000BA699A4202D3BB69002B1DD1FB681B6827
:105290001A68FB681B6822F4D0721A60FB681B68EE
:1052A0009A68FB681B6822F001029A60FB68202262
:1052B000C3F88020FB682022C3F88420FB6800220A
:1052C00083F87C2003230FE0FB681B68DA69BB6866
:1052D0001340BA689A420CBF01230023DBB21A467E
:1052E000FB799A42C3D0002318461037BD4680BDD3
:1052F000014B1868704700BF1000002070B50D4DBD
:105300000D4C641BA4100026A64209D10B4D0C4C79
:1053100000F0ACFD641BA4100026A64205D170BDB0
:1053200055F8043B98470136EEE755F8043B98479B
:105330000136F2E7F85F0008F85F0008F85F000840
:10534000FC5F0008704770470A44914200F1FF3348
:1053500000D1704710B511F8014B03F8014F91428D
:10536000F9D110BD02440346934200D1704703F8BF
:10537000011BF9E7F8B5CD1C25F0030508350C2D08
:1053800038BF0C25002D064601DBA94203D90C23AA
:1053900033600020F8BD00F077F821490A68144610
:1053A0009CB9204F3B6823B92146304600F03CF8B9
:1053B00038602946304600F037F8431C23D10C23CF
:1053C0003360304600F066F8E3E723685B1B17D4D0
:1053D0000B2B03D923601C44256004E06368A242C0
:1053E0000CBF0B605360304600F054F804F10B0022
:1053F000231D20F00700C21ACCD01B1AA350C9E706
:1054000022466468CCE7C41C24F00304A042E3D025
:10541000211A304600F008F80130DDD1CFE700BF97
:10542000004300200443002038B5064D0023044605
:1054300008462B60FAF756FF431C02D12B6803B1D4
:10544000236038BD804300200EB400B59CB01DAB76
:10545000029006906FF000410948079104910949B4
:1054600053F8042B05910068019302A900F0C2F8DB
:10547000029B00221A701CB05DF804EB03B0704769
:10548000100000200802FFFF0148FFF75BBF00BFCC
:10549000784300200148FFF756BF00BF7843002043
:1054A00038B50546002945D051F8043C0C1F002BA7
:1054B000B8BFE418FFF7E8FF1F4A1368104633B976
:1054C000636014602846BDE83840FFF7E3BFA3429D
:1054D0000BD921686218934204BF1A685B68636045
:1054E00004BF521822600460ECE71A465B680BB1F7
:1054F000A342FAD911685018A0420BD12068014488
:10550000501883421160DDD118685B685360014414
:105510001160D7E702D90C232B60D3E7206821184C
:105520008B4204BF19685B68636004BF091821607F
:105530005460C7E738BD00BF004300202DE9F047A5
:105540008E689E4282460C4690461F4638D88A890D
:1055500012F4906F32D025680969A5EB01096569DD
:1055600005EB450505EBD57501334B446D109D42A8
:1055700038BF1D46530531D52946FFF7FBFE0646C9
:1055800050B90C23CAF80030A38943F04003A3812B
:105590004FF0FF30BDE8F08721694A46FFF7D4FE9F
:1055A000A38923F4906343F08003A381266165619E
:1055B0004E44A5EB09052660A5603E46BE4200D9D3
:1055C0003E4632462068414600F0A8FAA3682268A9
:1055D0009B1B3244A36022600020DBE72A4600F0D8
:1055E000B7FA06460028E1D121695046FFF758FF77
:1055F000C7E700002DE9F04F98468B891B069DB048
:1056000007460D4614460ED50B6963B94021FFF7D6
:10561000B1FE2860286120B90C233B604FF0FF30B9
:10562000D1E040236B610023099320238DF82930BA
:10563000CDF80C803023DFF8A8818DF82A304FF0A8
:10564000010923469A4613F8012B0AB1252AF9D1FC
:10565000BAEB040B0BD05B46224629463846FFF7CF
:105660006DFF013000F0AA80099A5A4409929AF815
:105670000030002B00F0A28000234FF0FF32CDE974
:1056800005230AF1010A049307938DF853301A9306
:105690005446052214F8011B5148FAF799FD049A63
:1056A000D8B9D00644BF20238DF85330110744BF2A
:1056B0002B238DF853309AF800302A2B15D0079AF7
:1056C000544600204FF00A0C214611F8013B303BB4
:1056D000092B4ED9B0B1079214E0A0EB080309FAE8
:1056E00003F313430493A246D2E7039B191D1B68DF
:1056F0000391002BBBBF5B4242F00202079307936A
:10570000B8BF049223782E2B0CD163782A2B35D185
:10571000039B1A1D1B680392002BB8BF4FF0FF3389
:1057200002340593DFF8C8A0217803225046FAF727
:105730004FFD40B14023A0EB0A0003FA00F0049BA8
:1057400003430134049314F8011B26488DF82810F4
:105750000622FAF73DFD002838D0234B1BBB039BE4
:10576000073323F0070308330393099B334409935A
:1057700067E70CFB02320C460120A5E70023013449
:10578000059319464FF00A0C204610F8012B303AC9
:10579000092A03D9002BC5D00591C3E70CFB0121D1
:1057A00004460123F0E703AB00932A460F4B04A9FC
:1057B0003846AFF30080421C0646D6D1AB895B0663
:1057C0003FF52CAF09981DB0BDE8F08F03AB0093F7
:1057D0002A46064B04A9384600F07AF8EBE700BFEA
:1057E000B85F0008C25F0008000000003D550008D7
:1057F000BE5F00082DE9F047164699468A680B6996
:10580000DDF820809342B8BF1346336091F84320FF
:1058100007460C460AB1013333602368990642BF3C
:10582000336802333360256815F0060506D104F1AC
:10583000190AE36832689B1AAB4226DC94F84320CD
:10584000131E226818BF012392062BD404F14302D1
:1058500049463846C04701301ED02368E5683268A3
:1058600003F00603042B08BFAD1AA36822690CBF1E
:1058700025EAE57500259342C4BF9B1AED18002662
:105880001A34B5421AD1002008E001235246494695
:105890003846C047013003D14FF0FF30BDE8F087F4
:1058A0000135C6E7E1185A1C302081F84300224434
:1058B00094F8451082F843100233C7E701232246CB
:1058C00049463846C0470130E6D00136D9E70000E6
:1058D0002DE9FF470C469146277E0C99782F80468C
:1058E0009A4604F1430207D8622F0AD8002F00F02D
:1058F000D880582F00F0A38004F1420684F842704B
:105900003AE0A7F16303152BF6D801A050F823F075
:10591000695900087D590008F9580008F95800082D
:10592000F9580008F95800087D590008F95800088E
:10593000F9580008F9580008F9580008895A000871
:10594000AD5900086B5A0008F9580008F9580008CA
:10595000AB5A0008F9580008AD590008F95800087A
:10596000F9580008735A00080B681A1D1B680A6072
:1059700004F1420684F842300123A3E02568086858
:105980002E0600F104030AD505680B60002D03DA2A
:105990002D236D4284F843305E480A2319E015F048
:1059A000400F05680B6018BF2DB2EFE70B68256844
:1059B000181D0860280601D51D6802E06906FBD5A0
:1059C0001D8854486F2F0CBF08230A23002184F838
:1059D00043106668A660002EA2BF216821F0040172
:1059E00021600DB9002E4DD01646B5FBF3F103FB37
:1059F0001157C75D06F8017D2F46BB420D46F4D90D
:105A0000082B0BD12368DF0708D523696168994209
:105A1000DEBF302306F8013C06F1FF36921B2261FF
:105A2000CDF800A04B4603AA21464046FFF7E2FE10
:105A300001304CD14FF0FF3004B0BDE8F08735485D
:105A400084F8457023680E681F0656F8045B0E60E4
:105A500014D5D90744BF43F0200323601DB9236840
:105A600023F0200323601023B0E7236843F02003D2
:105A700023607823284884F84530E3E75E0648BF72
:105A8000ADB2E6E71646BBE70B68266860691D1DE8
:105A90000D6035061B6801D5186002E07106FBD564
:105AA0001880002323611646BAE70B681A1D0A60A6
:105AB0001E68626800213046FAF78AFB08B1801B35
:105AC000606063682361002384F84330A8E723699A
:105AD000324649464046D0470130ABD023689B0749
