:020000040800F2
:1000000000000A2091020008E1020008E102000855
:10001000E1020008E1020008E1020008000000001F
:10002000000000000000000000000000E1020008E5
:10003000E102000800000000E1020008E3020008FD
:10004000E1020008E1020008E1020008E102000804
:10005000E1020008E1020008E1020008E1020008F4
:10006000E1020008E1020008E1020008E1020008E4
:10007000E1020008E1020008E1020008E1020008D4
:10008000E1020008E1020008E1020008090300089B
:10009000E1020008E1020008E1020008E1020008B4
:1000A000E1020008E1020008E1020008E1020008A4
:1000B000E1020008E1020008E1020008E102000894
:1000C000E1020008E1020008E1020008E102000884
:1000D000E1020008E1020008E1020008F502000860
:1000E000E1020008E1020008E1020008E102000864
:1000F000E1020008E1020008E1020008000000003F
:10010000E1020008E1020008E1020008E102000843
:10011000E1020008E1020008E1020008E102000833
:10012000E1020008E1020008E1020008E102000823
:10013000E1020008E1020008E1020008E102000813
:10014000E1020008E1020008E1020008E102000803
:10015000E1020008E1020008E1020008E1020008F3
:10016000E1020008E1020008E1020008E1020008E3
:10017000E1020008E10200080000000000000000A9
:10018000E1020008E1020008E1020008E1020008C3
:10019000E1020008E1020008000000000000000089
:1001A0000000000000000000E1020008E102000879
:1001B000E1020008E1020008E1020008000000007E
:1001C00053B94AB9002908BF00281CBF4FF0FF31BE
:1001D0004FF0FF3000F00CB8ADF1080C6DE904CE23
:1001E00003F0C6FFDDF804E0DDE9022304B0704748
:1001F000704700BF034613F8012B002AFBD1181AE1
:10020000013870470348044B834202D0034B03B1CB
:100210001847704720000020200000200000000048
:1002200005480649091A891001EBD171491002D01D
:10023000034B03B118477047200000202000002026
:100240000000000010B5064C237843B9FFF7DAFF31
:10025000044B13B10448AFF300800123237010BD99
:1002600020000020000000009844000808B5054B5D
:100270001BB105490548AFF30080BDE80840FFF712
:10028000CFBF00BF000000002400002098440008F9
:10029000DFF834D0002103E00C4B5B5843500431AD
:1002A0000B480C4B42189A42F6D30B4A02E000234B
:1002B00042F8043B094B9A42F9D300F0FFF904F0ED
:1002C000BFF800F02BF8FEE700000A2010450008F8
:1002D000000000202000002020000020500100200D
:1002E000FEE780B500AF00F067FA01F00DF800BF3F
:1002F00080BD000080B500AF024802F0DBF900BF0E
:1003000080BD00BF5400002080B500AF024800F05F
:10031000ABFC00BF80BD00BF2401002080B500AF52
:1003200000F0F8F900F020F800F080F800F084F810
:1003300000F0AEF8074800F056FB074B1B68194663
:10034000064800F0DBF814220021044804F09CF871
:10035000FEE700BF24010020500000200000002024
:1003600080B400AFFEE7000080B500AF442200215A
:100370002B4804F089F82A4B02221A60284B4FF4CC
:100380008072DA60264B40221A61254B02229A6263
:10039000234B0222DA62224B04221A63204B3222C0
:1003A0005A631F4B04221A641D4B0222DA631C4B52
:1003B00002229A631A4801F0C1F90346002B01D0CA
:1003C000FFF7CEFF14220021164804F05DF8154B0C
:1003D0000F221A60134B03225A60124B00229A60BC
:1003E000104B4FF48062DA600E4B00221A6102213A
:1003F0000C4801F0C9FD0346002B01D0FFF7B0FF08
:1004000001F078FF0246084BA3FB02239B09184624
:1004100000F051FF042000F05BFF00BF80BD00BF73
:10042000E00000203C000020D34D621080B400AFFB
:1004300000BFBD4680BC704780B500AF8C22002154
:10044000114804F021F8104B104A1A600E4B4FF47B
:10045000E1325A600C4B00229A600B4B0022DA60AA
:10046000094B00221A61084B0C225A61064B0022EC
:100470009A61054802F036F80346002B01D0FFF7D9
:100480006FFF00BF80BD00BF540000200048004047
:1004900080B500AF174B184A1A60164B00225A76E7
:1004A000144B0122DA76134B00229A76114B00226C
:1004B0001A77104B00221A760E4B00225A770D4BFA
:1004C00005225A600B4B4FF080429A60094B002284
:1004D000DA60084B4FF4E0221A61064B00225A61A1
:1004E000044800F085F90346002B01D0FFF738FFE0
:1004F00000BF80BD240100200064004080B588B0AA
:1005000000AF7860396040F25D63BB6000233B61FF
:1005100000237B610523BB613B4607F108017A6834
:10052000124800F0A4FA0346002B01D0FFF718FF91
:1005300000BF3B6819460D4800F073FB0346002BD3
:10054000F7D17868FFF756FE03469AB24FF0FF33B3
:100550007968074802F016F80346002B01D0FFF730
:10056000FFFE00BF2037BD4680BD00BF2401002034
:100570005400002080B500AF032000F067FE0D4B53
:100580005B6A0C4A43F4E0235362002200216FF0BF
:100590000A0000F066FE002200216FF00B0000F060
:1005A00060FE002200216FF0090000F05AFE00BF3B
:1005B00080BD00BF00ED00E080B58AB000AF78607C
:1005C0001E4B9B6D1D4A43F4802393651B4B9B6D13
:1005D00003F480233B613B69184BDB6C174A43F003
:1005E0000803D364154BDB6C03F00803FB60FB6866
:1005F0004FF480737B610223BB610023FB61002306
:100600003B6207237B6207F1140319460C4800F094
:10061000E7FE4FF400737B6107F1140319460848A5
:1006200000F0DEFE272000F038FE00220F212720F8
:1006300000F017FE00BF2837BD4680BD0010024005
:10064000000C004880B58AB000AF7860194B9B6DF4
:10065000184A43F000739365164B9B6D03F00073CB
:100660003B613B69134BDB6C124A43F00803D364D4
:10067000104BDB6C03F00803FB60FB6803237B611A
:100680000223BB6109237B620023FB6102233B62DF
:1006900007F114031946084800F0A2FE132000F0E9
:1006A000FCFD00220F21132000F0DBFD00BF2837E6
:1006B000BD4680BD00100240000C004880B400AF71
:1006C000124B1B68114A43F0010313600F4B0022C9
:1006D0009A600E4B1B680D4A23F0A85323F4102395
:1006E00013600A4B4FF48052DA60084B1B68074ACC
:1006F00023F480231360054B00229A61044B4FF0D2
:1007000000629A6000BFBD4680BC70470010024086
:1007100000ED00E080B582B000AF0023FB71032044
:1007200000F094FD002000F00DF80346002B02D0ED
:100730000123FB7101E0FFF71DFFFB791846083725
:10074000BD4680BD80B584B000AF78600023FB73E8
:10075000164B1B68002B22D0154B1A68134B1B68D5
:100760004FF47A71B1FBF3F3B2FBF3F3184600F0E8
:10077000A2FD0346002B0FD17B680F2B09D8002266
:1007800079684FF0FF3000F06CFD0A4A7B68136017
:1007900007E00123FB7304E00123FB7301E0012365
:1007A000FB73FB7B18461037BD4680BD1C00002044
:1007B000140000201800002080B400AF054B1A6818
:1007C000054B1B681344034A136000BFBD4680BC41
:1007D000704700BF4C0100201C00002080B400AF17
:1007E000024B1B681846BD4680BC70474C01002078
:1007F00080B584B000AF78607B68002B01D1012305
:10080000EDE07B6893F82030DBB2002B02D17868F2
:10081000FFF718FF7B681B681A687B681B6822F06B
:1008200002021A60FFF7DAFFF86012E0FFF7D6FF66
:100830000246FB68D31A0A2B0BD97B685B6A43F428
:1008400000327B685A627B68052283F820200123EE
:10085000C5E07B681B685B6803F00203002BE5D1F1
:100860007B681B681A687B681B6842F001021A608B
:10087000FFF7B4FFF86012E0FFF7B0FF0246FB6835
:10088000D31A0A2B0BD97B685B6A43F400327B686E
:100890005A627B68052283F8202001239FE07B6851
:1008A0001B685B6803F00103002BE5D07B681B7EAF
:1008B000012B08D17B681B681A687B681B6842F0B3
:1008C00080021A6007E07B681B681A687B681B68F7
:1008D00022F080021A607B685B7E012B08D17B6866
:1008E0001B681A687B681B6842F040021A6007E0C8
:1008F0007B681B681A687B681B6822F040021A60DC
:100900007B689B7E012B08D17B681B681A687B681B
:100910001B6842F020021A6007E07B681B681A68B7
:100920007B681B6822F020021A607B68DB7E012B4B
:1009300008D17B681B681A687B681B6822F010026C
:100940001A6007E07B681B681A687B681B6842F0C6
:1009500010021A607B681B7F012B08D17B681B6823
:100960001A687B681B6842F008021A6007E07B681F
:100970001B681A687B681B6822F008021A607B6893
:100980005B7F012B08D17B681B681A687B681B683A
:1009900042F004021A6007E07B681B681A687B68F3
:1009A0001B6822F004021A607B689A687B68DB6827
:1009B0001A437B681B691A437B685B6942EA03013F
:1009C0007B685B685A1E7B681B680A43DA617B6838
:1009D00000225A627B68012283F8202000231846F7
:1009E0001037BD4680BD80B584B000AF78607B68AD
:1009F00093F82030DBB2012B2ED17B68022283F8E2
:100A000020207B681B681A687B681B6822F0010243
:100A10001A60FFF7E3FEF86012E0FFF7DFFE024620
:100A2000FB68D31A0A2B0BD97B685B6A43F400324C
:100A30007B685A627B68052283F82020012312E03C
:100A40007B681B685B6803F00103002BE5D17B68C2
:100A500000225A62002306E07B685B6A43F40022AE
:100A60007B685A62012318461037BD4680BD80B4AA
:100A700089B000AFF860B9607A603B60FB6893F8BA
:100A80002030FB77FB681B689B68BB61FB7F012BF9
:100A900003D0FB7F022B40F0B880BB6903F080637A
:100AA000002B0AD1BB6903F00063002B05D1BB69A1
:100AB00003F08053002B00F0A080BB691B0E03F0F5
:100AC00003037B617B69022B07D9FB685B6A43F4F4
:100AD0000002FB685A6201239EE001227B699A4072
:100AE0003B681A60BB689B68002B0DD1BB681B6814
:100AF0005A05BB68DB68F96809681A437B691833D3
:100B00001B010B441A600FE0BB685B68DA00BB682E
:100B10009B681A43BB68DB68F96809681A437B69FC
:100B200018331B010B441A60FB681968BB681A690B
:100B30007B6918331B010B4404331A60BB681B7DAF
:100B4000012B11D1FB681A687B6918331B01134410
:100B500004331B68FA68116843F480727B691833A8
:100B60001B010B4404331A607B6807331B781A0699
:100B70007B6806331B781B041A437B6805331B789C
:100B80001B0213437A68043212781046FA6811681F
:100B900043EA00027B691B010B4403F5C6731A602C
:100BA0007B6803331B781A067B6802331B781B04AF
:100BB0001A437B6801331B781B0213437A6812784F
:100BC0001046FA68116843EA00027B691B010B4476
:100BD00003F5C4731A60FB681A687B6918331B013C
:100BE00013441B68FA68116843F001027B691833EB
:100BF0001B010B441A6000230EE0FB685B6A43F4A0
:100C00000012FB685A62012306E0FB685B6A43F44A
:100C10008022FB685A62012318462437BD4680BCF7
:100C2000704780B485B000AF786039600023FB6006
:100C30007B6893F82030FB72FB7A012B02D0FB7AA1
:100C4000022B0BD17B681B689A683B689B061A4095
:100C50003B689B069A4201D00123FB60FB68184663
:100C60001437BD4680BC704780B58AB000AF78604D
:100C700000237B627B681B685B693B627B681B6847
:100C80005B68FB617B681B689B68BB617B681B685A
:100C9000DB687B617B681B681B693B617B681B6849
:100CA0009B69FB603B6A03F00103002B7CD0BB69AE
:100CB00003F00103002B23D07B681B6801229A609C
:100CC000BB6903F00203002B03D0786800F07DF9C4
:100CD00016E0BB6903F00403002B04D07B6A43F4E5
:100CE00000637B620CE0BB6903F00803002B04D0B7
:100CF0007B6A43F480537B6202E0786800F080F9FD
:100D0000BB6903F48073002B24D07B681B684FF40D
:100D100080729A60BB6903F40073002B03D078687B
:100D200000F05CF916E0BB6903F48063002B04D08B
:100D30007B6A43F400537B620CE0BB6903F40063FD
:100D4000002B04D07B6A43F480437B6202E0786826
:100D500000F05FF9BB6903F48033002B24D07B687B
:100D60001B684FF480329A60BB6903F40033002B98
:100D700003D0786800F03BF916E0BB6903F48023E8
:100D8000002B04D07B6A43F400437B620CE0BB6918
:100D900003F40023002B04D07B6A43F480337B628E
:100DA00002E0786800F03EF93B6A03F00803002B8C
:100DB0000CD07B6903F01003002B07D07B6A43F44F
:100DC00000737B627B681B681022DA603B6A03F069
:100DD0000403002B0BD07B6903F00803002B06D023
:100DE0007B681B680822DA60786800F02DF93B6A9E
:100DF00003F00203002B09D07B681B68DB6803F05B
:100E00000303002B02D0786800F015F93B6A03F069
:100E10004003002B0CD03B6903F01003002B07D0DC
:100E20007B6A43F480637B627B681B6810221A61D3
:100E30003B6A03F02003002B0BD03B6903F008034F
:100E4000002B06D07B681B6808221A61786800F0C6
:100E50000DF93B6A03F01003002B09D07B681B6877
:100E60001B6903F00303002B02D0786800F0F5F84B
:100E70003B6A03F40033002B0BD0FB6903F0100333
:100E8000002B06D07B681B6810225A60786800F03F
:100E9000F6F83B6A03F48033002B0BD0FB6903F0B8
:100EA0000803002B06D07B681B6808225A6078680C
:100EB00000F0EEF83B6A03F40043002B75D0FB69A9
:100EC00003F00403002B6CD03B6A03F48073002B07
:100ED00008D0FB6803F00103002B03D07B6A43F0CA
:100EE00001037B623B6A03F40073002B08D0FB68AC
:100EF00003F00203002B03D07B6A43F002037B6202
:100F00003B6A03F48063002B08D0FB6803F0040302
:100F1000002B03D07B6A43F004037B623B6A03F43B
:100F20000063002B3DD0FB6803F07003002B38D02A
:100F3000FB6803F07003302B17D0302B04D8102B34
:100F400009D0202B0CD024E0502B18D0602B1BD0C4
:100F5000402B0FD01DE07B6A43F008037B6218E052
:100F60007B6A43F010037B6213E07B6A43F020034B
:100F70007B620EE07B6A43F040037B6209E07B6AA0
:100F800043F080037B6204E07B6A43F480737B62FE
:100F900000BF7B681B689A697B681B6822F070023F
:100FA0009A617B681B6804225A607B6A002B08D018
:100FB0007B685A6A7B6A1A437B685A62786800F0D9
:100FC00070F800BF2837BD4680BD80B483B000AF45
:100FD000786000BF0C37BD4680BC704780B483B0DA
:100FE00000AF786000BF0C37BD4680BC704780B44E
:100FF00083B000AF786000BF0C37BD4680BC70473F
:1010000080B483B000AF786000BF0C37BD4680BCB1
:10101000704780B483B000AF786000BF0C37BD4626
:1010200080BC704780B483B000AF786000BF0C37DD
:10103000BD4680BC704780B483B000AF786000BF0D
:101040000C37BD4680BC704780B483B000AF786079
:1010500000BF0C37BD4680BC704780B483B000AF82
:10106000786000BF0C37BD4680BC704780B483B049
:1010700000AF786000BF0C37BD4680BC704780B4BD
:1010800083B000AF786000BF0C37BD4680BC7047AE
:1010900080B483B000AF786000BF0C37BD4680BC21
:1010A000704780B483B000AF786000BF0C37BD4696
:1010B00080BC704780B485B000AF78607B6803F077
:1010C0000703FB600C4BDB68BB60BA684FF6FF039D
:1010D0001340BB60FB681A02BB68134343F0BF6355
:1010E00043F40033BB60044ABB68D36000BF1437CD
:1010F000BD4680BC704700BF00ED00E080B400AF8B
:10110000044BDB681B0A03F007031846BD4680BC8E
:10111000704700BF00ED00E080B483B000AF03462D
:10112000FB7197F90730002B0BDBFB7903F01F02F3
:10113000064997F907305B09012000FA02F241F8ED
:10114000232000BF0C37BD4680BC704700E100E0A3
:1011500080B483B000AF03463960FB7197F9073064
:10116000002B0ADB3B68DAB20C4997F90730120111
:10117000D2B20B4483F800230AE03B68DAB2084994
:10118000FB7903F00F03043B1201D2B20B441A7631
:1011900000BF0C37BD4680BC704700BF00E100E0D7
:1011A00000ED00E080B489B000AFF860B9607A600B
:1011B000FB6803F00703FB61FB69C3F10703042B22
:1011C00028BF0423BB61FB690433062B02D9FB69EA
:1011D000033B00E000237B614FF0FF32BB6902FA62
:1011E00003F3DA43BB681A407B699A404FF0FF3142
:1011F0007B6901FA03F3D9437B680B40134318461C
:101200002437BD4680BC704780B582B000AF78609F
:101210007B68013BB3F1807F01D301230FE00A4AD1
:101220007B68013B53600F214FF0FF30FFF790FFC9
:10123000054B00229A60044B07221A6000231846CF
:101240000837BD4680BD00BF10E000E080B582B029
:1012500000AF78607868FFF72DFF00BF0837BD4604
:1012600080BD80B586B000AF0346B9607A60FB737D
:1012700000237B61FFF742FF78617A68B96878697B
:10128000FFF790FF024697F90F3011461846FFF717
:101290005FFF00BF1837BD4680BD80B582B000AF8C
:1012A0000346FB7197F907301846FFF735FF00BF7B
:1012B0000837BD4680BD80B582B000AF78607868E1
:1012C000FFF7A2FF034618460837BD4680BD000061
:1012D00080B483B000AF78607B68042B06D1094BE3
:1012E0001B68084A43F00403136005E0054B1B68C4
:1012F000044A23F00403136000BF0C37BD4680BCD2
:10130000704700BF10E000E080B500AF00F002F8C9
:1013100000BF80BD80B400AF00BFBD4680BC704739
:1013200080B584B000AF78600023FB737B6893F8CE
:101330002530DBB2022B05D07B680422DA6301235F
:10134000FB7347E07B681B681A687B681B6822F0A8
:101350000E021A607B681B681A687B681B6822F0A3
:1013600001021A607B689B6C1A687B689B6C22F494
:1013700080721A607B685B6C03F01C027B681B6CDC
:10138000012101FA02F25A607B68DB6C7A68126D07
:101390005A607B685B6D002B0CD07B685B6D1A68B4
:1013A0007B685B6D22F480721A607B689B6D7A6843
:1013B000D26D5A607B68012283F825207B68002269
:1013C00083F824207B689B6B002B03D07B689B6B8E
:1013D00078689847FB7B18461037BD4680BD0000F3
:1013E00080B487B000AF7860396000237B6166E12C
:1013F0003B681A6801217B6901FA03F31340FB6023
:10140000FB68002B00F058813B685B68012B0BD018
:101410003B685B68022B07D03B685B68112B03D0ED
:101420003B685B68122B30D17B689B683B617B69B2
:101430005B00032202FA03F3DB433A6913403B618A
:101440003B68DA687B695B0002FA03F33A6913438D
:101450003B617B683A699A607B685B683B6101220B
:101460007B6902FA03F3DB433A6913403B613B6853
:101470005B681B0903F001027B6902FA03F33A6916
:1014800013433B617B683A695A607B68DB683B6168
:101490007B695B00032202FA03F3DB433A691340E2
:1014A0003B613B689A687B695B0002FA03F33A6927
:1014B00013433B617B683A69DA603B685B68022BE7
:1014C00003D03B685B68122B23D17B69DA087B6809
:1014D000083253F822303B617B6903F007039B001D
:1014E0000F2202FA03F3DB433A6913403B613B6886
:1014F0001A697B6903F007039B0002FA03F33A6958
:1015000013433B617B69DA087B680832396943F829
:1015100022107B681B683B617B695B00032202FA37
:1015200003F3DB433A6913403B613B685B6803F0BC
:1015300003027B695B0002FA03F33A6913433B61E0
:101540007B683A691A603B685B6803F08053002B44
:1015500000F0B280604B1B6E5F4A43F001031366DC
:101560005D4B1B6E03F00103BB60BB685B4A7B698C
:101570009B08023352F823303B617B6903F003037D
:101580009B000F2202FA03F3DB433A6913403B61ED
:101590007B68B3F1904F2BD07B68514A934225D0A2
:1015A0007B68504A93421FD07B684F4A934219D0C0
:1015B0007B684E4A934213D07B684D4A93420DD0CC
:1015C0007B684C4A934207D07B684B4A934201D1D7
:1015D00007230EE008230CE006230AE0052308E0B9
:1015E000042306E0032304E0022302E0012300E0D9
:1015F00000237A6902F00302920093403A69134390
:101600003B6136497B699B0802333A6941F82320E4
:101610003A4B1B683B61FB68DB433A6913403B6113
:101620003B685B6803F48033002B03D03A69FB68A6
:1016300013433B61314A3B691360304B5B683B614C
:10164000FB68DB433A6913403B613B685B6803F42A
:101650000033002B03D03A69FB6813433B61274AF0
:101660003B695360254B9B683B61FB68DB433A69F0
:1016700013403B613B685B6803F48013002B03D08D
:101680003A69FB6813433B611C4A3B6993601B4BFF
:10169000DB683B61FB68DB433A6913403B613B68B5
:1016A0005B6803F40013002B03D03A69FB68134313
:1016B0003B61124A3B69D3607B6901337B613B68C4
:1016C0001A687B6922FA03F3002B7FF491AE00BF06
:1016D0001C37BD4680BC704700100240000001402E
:1016E0000004004800080048000C004800100048B2
:1016F0000014004800180048001C00480004014085
:1017000080B400AF0C4B1B6803F4C063B3F5806F6B
:1017100002D14FF480630BE0074BD3F8803003F421
:101720008073B3F5807F02D14FF4007300E0002393
:101730001846BD4680BC70470070004080B588B038
:1017400000AF78607B68002B02D1012300F016BC4B
:10175000A04B9B6803F00C03BB619E4BDB6803F05E
:1017600003037B617B681B6803F01003002B00F010
:10177000E480BB69002B07D0BB690C2B40F08B8049
:101780007B69012B40F08780924B1B6803F00203BA
:10179000002B05D07B689B69002B01D10123EDE371
:1017A0007B681A6A8B4B1B6803F00803002B04D07C
:1017B000884B1B6803F0F00305E0864BD3F89430A8
:1017C0001B0903F0F003934223D27B681B6A18467F
:1017D00000F0C6FD0346002B01D00123CEE37D4B74
:1017E0001B687C4A43F0080313607A4B1B6823F0A4
:1017F000F0027B681B6A774913430B60754B5B688B
:1018000023F47F427B68DB691B02724913434B6000
:1018100025E0704B1B686F4A43F0080313606D4B63
:101820001B6823F0F0027B681B6A6A4913430B6054
:10183000684B5B6823F47F427B68DB691B02654968
:1018400013434B60BB69002B09D17B681B6A1846A8
:1018500000F086FD0346002B01D001238EE300F04B
:10186000BFFC01465B4B9B681B0903F00F035A4A00
:10187000D35C03F01F0321FA03F3584A1360584B5B
:101880001B681846FEF75EFF0346FB73FB7B002BCD
:1018900052D0FB7B72E37B689B69002B32D04D4BAF
:1018A0001B684C4A43F001031360FEF797FF386151
:1018B00008E0FEF793FF02463B69D31A022B01D9D9
:1018C00003235BE3434B1B6803F00203002BF0D0C0
:1018D000404B1B683F4A43F0080313603D4B1B68B5
:1018E00023F0F0027B681B6A3A4913430B60394BC3
:1018F0005B6823F47F427B68DB691B023549134335
:101900004B601AE0334B1B68324A23F0010313602B
:10191000FEF764FF386108E0FEF760FF02463B69AE
:10192000D31A022B01D9032328E32A4B1B6803F0A7
:101930000203002BF0D100E000BF7B681B6803F0BE
:101940000103002B73D0BB69082B05D0BB690C2B9E
:101950000ED17B69032B0BD11E4B1B6803F40033A4
:10196000002B63D07B685B68002B5FD1012305E30C
:101970007B685B68B3F5803F06D1164B1B68154A40
:1019800043F4803313601DE07B685B68B3F5A02FE0
:101990000CD1104B1B680F4A43F4802313600D4B8E
:1019A0001B680C4A43F4803313600BE0094B1B683F
:1019B000084A23F480331360064B1B68054A23F45E
:1019C000802313607B685B68002B1BD0FEF706FF4B
:1019D000386110E000100240B044000814000020FC
:1019E00018000020FEF7FAFE02463B69D31A642B6A
:1019F00001D90323C2E2AF4B1B6803F40033002B71
:101A0000F0D014E0FEF7EAFE386108E0FEF7E6FEEB
:101A100002463B69D31A642B01D90323AEE2A54BDE
:101A20001B6803F40033002BF0D100E000BF7B689B
:101A30001B6803F00203002B60D0BB69042B05D0A8
:101A4000BB690C2B19D17B69022B16D1994B1B68F2
:101A500003F48063002B05D07B68DB68002B01D189
:101A600001238BE2934B5B6823F0FE427B681B698A
:101A70001B06904913434B6040E07B68DB68002BFA
:101A800023D08C4B1B688B4A43F480731360FEF7A2
:101A9000A5FE386108E0FEF7A1FE02463B69D31AB5
:101AA000022B01D9032369E2824B1B6803F4806394
:101AB000002BF0D07F4B5B6823F0FE427B681B69F4
:101AC0001B067C4913434B6018E07A4B1B68794A2C
:101AD00023F480731360FEF781FE386108E0FEF79F
:101AE0007DFE02463B69D31A022B01D9032345E24E
:101AF000704B1B6803F48063002BF0D17B681B687C
:101B000003F00803002B3CD07B685B69002B1CD0E2
:101B1000684BD3F89430674A43F00103C2F894301D
:101B2000FEF75CFE386108E0FEF758FE02463B69AE
:101B3000D31A022B01D9032320E25E4BD3F8943051
:101B400003F00203002BEFD01BE05A4BD3F8943084
:101B5000584A23F00103C2F89430FEF73FFE386183
:101B600008E0FEF73BFE02463B69D31A022B01D97F
:101B7000032303E24F4BD3F8943003F00203002B0E
:101B8000EFD17B681B6803F00403002B00F0A680F4
:101B90000023FB77474B9B6D03F08053002B0DD147
:101BA000444B9B6D434A43F080539365414B9B6D7F
:101BB00003F08053BB60BB680123FB773E4B1B687F
:101BC00003F48073002B18D13B4B1B683A4A43F453
:101BD00080731360FEF702FE386108E0FEF7FEFD39
:101BE00002463B69D31A022B01D90323C6E1324BCB
:101BF0001B6803F48073002BF0D07B689B68012B7B
:101C000008D12C4BD3F890302A4A43F00103C2F894
:101C1000903024E07B689B68052B10D1254BD3F8CE
:101C20009030244A43F00403C2F89030214BD3F89B
:101C30009030204A43F00103C2F890300FE01D4B72
:101C4000D3F890301B4A23F00103C2F89030194BAF
:101C5000D3F89030174A23F00403C2F890307B6821
:101C60009B68002B16D0FEF7B9FD38610AE0FEF73D
:101C7000B5FD02463B69D31A41F28832934201D93D
:101C800003237BE10B4BD3F8903003F00203002BCE
:101C9000EDD01AE0FEF7A2FD38610FE0FEF79EFDE1
:101CA00002463B69D31A41F28832934206D9032394
:101CB00064E100BF0010024000700040A84BD3F860
:101CC000903003F00203002BE8D1FB7F012B05D1FC
:101CD000A34B9B6DA24A23F0805393657B681B68DE
:101CE00003F02003002B3CD07B685B6A002B1CD0E8
:101CF0009B4BD3F898309A4A43F00103C2F89830CE
:101D0000FEF76CFD386108E0FEF768FD02463B69AE
:101D1000D31A022B01D9032330E1914BD3F8983029
:101D200003F00203002BEFD01BE08D4BD3F898306B
:101D30008B4A23F00103C2F89830FEF74FFD38615B
:101D400008E0FEF74BFD02463B69D31A022B01D98E
:101D5000032313E1824BD3F8983003F00203002BE6
:101D6000EFD17B689B6A002B00F007817B689B6A40
:101D7000022B40F0CB807A4BDB687B617B6903F000
:101D800003027B68DB6A9A422CD17B6903F0F00284
:101D90007B681B6B013B1B019A4223D17B6903F4D7
:101DA000FE427B685B6B1B029A421BD17B6903F08E
:101DB00078427B689B6BDB069A4213D17B6903F404
:101DC000C0027B68DB6B5B08013B5B059A4209D173
:101DD0007B6903F0C0627B681B6C5B08013B5B06A0
:101DE0009A426DD0BB690C2B68D05D4B1B6803F029
:101DF0008063002B05D15A4B1B6803F08053002BE6
:101E000001D00123BAE0564B1B68554A23F080737A
:101E10001360FEF7E3FC386108E0FEF7DFFC0246E2
:101E20003B69D31A022B01D90323A7E04C4B1B6853
:101E300003F00073002BF0D1494BDA68494B134093
:101E40007A68D16A7A68126B013A120111437A6892
:101E5000526B120211437A68D26B5208013A520552
:101E600011437A68126C5208013A520611437A689B
:101E7000926BD2060A433A491343CB60384B1B6836
:101E8000374A43F080731360354BDB68344A43F0C4
:101E90008073D360FEF7A2FC386108E0FEF79EFC79
:101EA00002463B69D31A022B01D9032366E02C4B6F
:101EB0001B6803F00073002BF0D05EE001235DE0AF
:101EC000274B1B6803F00073002B56D1244B1B6873
:101ED000234A43F080731360214BDB68204A43F0B0
:101EE0008073D360FEF77AFC386108E0FEF776FC79
:101EF00002463B69D31A022B01D903233EE0184B5B
:101F00001B6803F00073002BF0D036E0BB690C2B8C
:101F100031D0134B1B68124A23F080731360104BAF
:101F20001B6803F02053002B05D10D4BDB680C4AD6
:101F300023F00303D3600A4BDB68094A23F088735C
:101F400023F48033D360FEF749FC38610CE0FEF7E0
:101F500045FC02463B69D31A022B05D903230DE049
:101F6000001002400C809D01064B1B6803F00073BB
:101F7000002BECD101E0012300E0002318462037BC
:101F8000BD4680BD0010024080B586B000AF7860CD
:101F9000396000237B617B68002B01D101230FE1B5
:101FA000894B1B6803F00F033A689A4210D9864B9D
:101FB0001B6823F00F0284493B6813430B60824B7C
:101FC0001B6803F00F033A689A4201D00123F7E03F
:101FD0007B681B6803F00103002B00F089807B689D
:101FE0005B68032B33D1794B1B6803F00073002B24
:101FF00001D10123E4E000F00DFA0246744B9A424D
:1020000055D9724B9B6803F0F003002B0AD16F4B3C
:102010009B6823F0F0036D4A43F0800393608023B4
:102020007B6144E07B681B6803F00203002B3ED019
:102030007B689B68002B3AD1644B9B6823F0F003CC
:10204000624A43F08003936080237B612FE07B68CA
:102050005B68022B07D15D4B1B6803F40033002B38
:1020600015D10123ACE07B685B68002B07D1574B8F
:102070001B6803F00203002B09D10123A0E0534B9E
:102080001B6803F48063002B01D1012398E000F06A
:10209000A7F802464E4B9A4209D94C4B9B6823F055
:1020A000F0034A4A43F08003936080237B61474BEF
:1020B0009B6823F003027B685B68444913438B6091
:1020C000FEF78CFB38610AE0FEF788FB02463B69AD
:1020D000D31A41F28832934201D9032370E03B4B7B
:1020E0009B6803F00C027B685B689B009A42EBD113
:1020F0007B681B6803F00203002B09D0334B9B68FD
:1021000023F0F0027B689B68304913438B6008E042
:102110007B69802B05D12D4B9B682C4A23F0F00363
:102120009360294B1B6803F00F033A689A4210D260
:10213000254B1B6823F00F0223493B6813430B60B8
:10214000214B1B6803F00F033A689A4201D0012328
:1021500036E07B681B6803F00403002B08D01B4BA0
:102160009B6823F4E0627B68DB68184913438B604B
:102170007B681B6803F00803002B09D0134B9B6896
:1021800023F460527B681B69DB00104913438B60AA
:1021900000F026F801460D4B9B681B0903F00F0366
:1021A0000C4AD35C03F01F0321FA03F30A4A1360BD
:1021B0000A4B1B681846FEF7C5FA0346FB73FB7B08
:1021C00018461837BD4680BD00200240001002406E
:1021D00000B4C404B044000814000020180000201B
:1021E00080B489B000AF0023FB610023BB613D4B8D
:1021F0009B6803F00C033B613A4BDB6803F003037D
:10220000FB603B69002B05D03B690C2B21D1FB689F
:10221000012B1ED1334B1B6803F00803002B07D1A1
:10222000304BD3F894301B0A03F00F03FB6105E039
:102230002C4B1B681B0903F00F03FB612A4AFB6947
:1022400052F82330FB613B69002B0DD1FB69BB6168
:102250000AE03B69042B02D1244BBB6104E03B69DB
:10226000082B01D1224BBB613B690C2B34D11D4B98
:10227000DB6803F00303BB60BB68022B03D0BB68C1
:10228000032B03D005E0194B7B6105E0184B7B6104
:1022900002E0FB697B6100BF124BDB681B0903F0A6
:1022A0000F0301337B600F4BDB681B0A03F07F03D6
:1022B0007A6902FB03F27B68B2FBF3F37B61094BA3
:1022C000DB685B0E03F0030301335B003B607A695C
:1022D0003B68B2FBF3F3BB61BB6918462437BD46CC
:1022E00080BC704700100240C84400080024F4007D
:1022F00000127A0080B400AF024B1B681846BD463E
:1023000080BC70471400002080B500AFFFF7F2FFDB
:102310000146064B9B681B0A03F00703044AD35C83
:1023200003F01F0321FA03F3184680BD001002409A
:10233000C044000880B500AFFFF7DCFF0146064B44
:102340009B68DB0A03F00703044AD35C03F01F0316
:1023500021FA03F3184680BD00100240C044000873
:1023600080B586B000AF786000233B61274B9B6D42
:1023700003F08053002B03D0FFF7C2F9786114E01B
:10238000224B9B6D214A43F0805393651F4B9B6DFD
:1023900003F08053FB60FB68FFF7B2F978611B4BD9
:1023A0009B6D1A4A23F0805393657B69B3F5007FD8
:1023B0000BD17B68802B13D97B68A02B02D9022319
:1023C0003B610DE001233B610AE07B687F2B02D972
:1023D00002233B6104E07B68702B01D101233B6148
:1023E0000B4B1B6823F00F0209493B6913430B6039
:1023F000074B1B6803F00F033A699A4201D001238F
:1024000000E0002318461837BD4680BD001002408A
:102410000020024080B487B000AF00237B612D4BC9
:10242000DB6803F00303012B18D12A4B1B6803F070
:102430000803002B07D1274BD3F894301B0A03F075
:102440000F037B6105E0234B1B681B0903F00F039F
:102450007B61214A7B6952F823307B611D4BDB682D
:1024600003F00303FB60FB68022B03D0FB68032B24
:1024700003D005E0194B3B6105E0194B3B6102E0DD
:102480007B693B6100BF134BDB681B0903F00F0343
:102490000133BB600F4BDB681B0A03F07F033A6913
:1024A00002FB03F2BB68B2FBF3F33B61094BDB6851
:1024B0005B0E03F0030301335B007B603A697B68CA
:1024C000B2FBF3F33B603B6818461C37BD4680BC4B
:1024D000704700BF00100240C84400080024F40008
:1024E00000127A0080B582B000AF78607B68002B64
:1024F00001D1012342E07B68D3F88030002B06D164
:102500007B68002283F87C207868FEF755F87B68AA
:102510002422C3F880207B681B681A687B681B68CC
:1025200022F001021A60786800F056FA0346012B87
:1025300001D1012322E07B689B6A002B02D07868DE
:1025400001F040FC7B681B685A687B681B6822F4BA
:1025500090425A607B681B689A687B681B6822F00F
:102560002A029A607B681B681A687B681B6842F0C5
:1025700001021A60786801F0C6FC03461846083765
:10258000BD4680BD80B58AB002AFF860B9603B60DF
:102590001346FB80FB68D3F88030202B40F084800A
:1025A000BB68002B02D0FB88002B01D101237CE00B
:1025B000FB6893F87C30012B01D1022375E0FB68A6
:1025C000012283F87C20FB680022C3F88820FB6886
:1025D0002122C3F88020FEF701F97861FB68FA88B0
:1025E000A3F85420FB68FA88A3F85620FB689B6880
:1025F000B3F5805F08D1FB681B69002B04D1002371
:10260000FB61BB68BB6103E0BB68FB610023BB618E
:10261000FB68002283F87C202DE03B6800937B69F7
:1026200000228021F86801F0B6FC0346002B01D09F
:1026300003233AE0FB69002B0BD1BB691A88FB68C6
:102640001B68C2F3080292B21A85BB690233BB61F0
:1026500008E0FB691A78FB681B6892B21A85FB696F
:102660000133FB61FB68B3F856309BB2013B9AB271
:10267000FB68A3F85620FB68B3F856309BB2002BDA
:10268000CBD13B6800937B6900224021F86801F0C0
:1026900082FC0346002B01D0032306E0FB682022C6
:1026A000C3F88020002300E0022318462037BD46EF
:1026B00080BD000080B588B000AF78607B681B6883
:1026C000DB69FB617B681B681B68BB617B681B68FF
:1026D0009B687B61FA6940F60F0313403B613B69DD
:1026E000002B18D1FB6903F02003002B13D0BB692A
:1026F00003F02003002B04D17B6903F08053002BEF
:1027000009D07B68DB6E002B00F045817B68DB6EB7
:10271000786898473FE13B69002B00F0E8807A69D0
:10272000A14B1340002B05D1BA69A04B1340002BDD
:1027300000F0DD80FB6903F00103002B10D0BB69C2
:1027400003F48073002B0BD07B681B6801221A6294
:102750007B68D3F8883043F001027B68C3F8882097
:10276000FB6903F00203002B10D07B6903F0010327
:10277000002B0BD07B681B6802221A627B68D3F89F
:10278000883043F004027B68C3F88820FB6903F0BB
:102790000403002B10D07B6903F00103002B0BD046
:1027A0007B681B6804221A627B68D3F8883043F088
:1027B00002027B68C3F88820FB6903F00803002B42
:1027C00015D0BB6903F02003002B04D17A69764B46
:1027D0001340002B0BD07B681B6808221A627B68B1
:1027E000D3F8883043F008027B68C3F88820FB697F
:1027F00003F40063002B11D0BB6903F08063002B4E
:102800000CD07B681B684FF400621A627B68D3F8B7
:10281000883043F020027B68C3F888207B68D3F8B7
:102820008830002B00F0B980FB6903F02003002BF7
:1028300011D0BB6903F02003002B04D17B6903F0A6
:102840008053002B07D07B68DB6E002B03D07B68A6
:10285000DB6E786898477B68D3F88830FB607B68CC
:102860001B689B6803F04003402B04D0FB6803F017
:102870002803002B31D0786801F00DFC7B681B68C1
:102880009B6803F04003402B23D17B681B689A6848
:102890007B681B6822F040029A607B689B6F002B6C
:1028A00013D07B689B6F424A9A637B689B6F184684
:1028B000FEF736FD0346002B17D07B689B6F9B6BA2
:1028C0007A68926F104698470FE0786800F07BF8BE
:1028D0000BE0786800F077F807E0786800F073F8AC
:1028E0007B680022C3F8882057E000BF55E0FB69F1
:1028F00003F48013002B0DD07B6903F48003002BBD
:1029000008D07B681B684FF480121A62786801F067
:1029100014FC45E0FB6903F08003002B12D0BB6977
:1029200003F08003002B04D17B6903F40003002B28
:1029300008D07B681B6F002B31D07B681B6F7868D9
:1029400098472CE0FB6903F04003002B08D0BB69DB
:1029500003F04003002B03D0786801F0D4FB1FE0A4
:10296000FB6903F40003002B08D0BB6903F080432C
:10297000002B03D0786801F0F2FB11E0FB6903F053
:102980008073002B0CD0BB69002B09DA786801F04A
:10299000DDFB00BF04E000BF02E000BF00E000BFBD
:1029A0002037BD4680BD00BF01000010200100049B
:1029B000DB40000880B483B000AF786000BF0C3704
:1029C000BD4680BC704780B483B000AF786000BF64
:1029D0000C37BD4680BC70472DE9F04F8DB000AF7D
:1029E000F86000237B62002387F823300023FB611B
:1029F000FB689A68FB681B691A43FB685B691A43AA
:102A0000FB68DB691343FB62FB685B6EFA6A134386
:102A1000FB62FB681B681A68AA4B1340FA681268CD
:102A2000F96A0B431360FB681B685B6823F4405131
:102A3000FB68DA68FB681B680A435A60FB689B699D
:102A4000FB62FB681B68A04A934204D0FB681B6AC8
:102A5000FA6A1343FB62FB681B689B6823F06E43B2
:102A600023F43063FA681268F96A0B439360FB68D9
:102A70001B68DB6A23F00F01FB685A6AFB681B685E
:102A80000A43DA62FB681B68904A934227D1904B55
:102A9000D3F8883003F00303032B1BD801A252F8AC
:102AA00023F000BFB52A0008C52A0008BD2A000887
:102AB000CD2A0008012387F82B3016E1022387F87E
:102AC0002B3012E1042387F82B300EE1082387F81E
:102AD0002B300AE1102387F82B3000BF05E1FB689B
:102AE0001B687C4A934238D1794BD3F8883003F085
:102AF0000C030C2B2CD801A252F823F0312B000828
:102B0000512B0008512B0008512B0008412B0008C5
:102B1000512B0008512B0008512B0008392B0008BD
:102B2000512B0008512B0008512B0008492B00089D
:102B3000002387F82B30D8E0022387F82B30D4E02D
:102B4000042387F82B30D0E0082387F82B30CCE023
:102B5000102387F82B3000BFC7E0FB681B685E4A74
:102B6000934225D15A4BD3F8883003F03003102B11
:102B700011D0102B02D8002B05D014E0202B06D04A
:102B8000302B0CD00FE0002387F82B30ADE0022370
:102B900087F82B30A9E0042387F82B30A5E0082321
:102BA00087F82B30A1E0102387F82B3000BF9CE082
:102BB000FB681B68494A934225D1454BD3F88830BE
:102BC00003F0C003402B11D0402B02D8002B05D0BE
:102BD00014E0802B06D0C02B0CD00FE0002387F828
:102BE0002B3082E0022387F82B307EE0042387F825
:102BF0002B307AE0082387F82B3076E0102387F813
:102C00002B3000BF71E0FB681B68354A934229D125
:102C10002F4BD3F8883003F44073B3F5807F14D082
:102C2000B3F5807F02D8002B07D016E0B3F5007F04
:102C300007D0B3F5407F0CD00FE0002387F82B308E
:102C400053E0022387F82B304FE0042387F82B3022
:102C50004BE0082387F82B3047E0102387F82B3010
:102C600000BF42E0FB681B68174A93423AD1184BF9
:102C7000D3F8883003F44063B3F5806F14D0B3F514
:102C8000806F02D8002B07D016E0B3F5006F07D095
:102C9000B3F5406F0CD00FE0002387F82B3024E011
:102CA000022387F82B3020E0042387F82B301CE028
:102CB000082387F82B3018E0102387F82B3000BF4B
:102CC00013E000BFF369FFCF0080004000380140EF
:102CD000001002400044004000480040004C00400A
:102CE00000500040102387F82B30FB681B68864A91
:102CF000934240F0258497F82B30082B00F2738123
:102D000001A252F823F000BF2D2D0008E72F000884
:102D1000CF2D0008E72F0008672E0008E72F0008D6
:102D2000E72F0008E72F0008392F0008FFF7ECFA1B
:102D30000246FB685B6A002B44D0FB685B6A012B90
:102D40003ED0FB685B6A022B38D0FB685B6A032BC2
:102D500032D0FB685B6A042B2CD0FB685B6A052BC6
:102D600026D0FB685B6A062B20D0FB685B6A072BCA
:102D70001AD0FB685B6A082B14D0FB685B6A092BCE
:102D80000ED0FB685B6A0A2B08D0FB685B6A0B2BD2
:102D900002D14FF4807316E0012314E0802312E087
:102DA000402310E020230EE010230CE00C230AE067
:102DB0000A2308E0082306E0062304E0042302E0D7
:102DC000022300E00123B2FBF3F3FB610FE1FB6898
:102DD0005B6A002B44D0FB685B6A012B3ED0FB682A
:102DE0005B6A022B38D0FB685B6A032B32D0FB682E
:102DF0005B6A042B2CD0FB685B6A052B26D0FB6832
:102E00005B6A062B20D0FB685B6A072B1AD0FB6835
:102E10005B6A082B14D0FB685B6A092B0ED0FB6839
:102E20005B6A0A2B08D0FB685B6A0B2B02D14FF25E
:102E3000244316E0354B14E0354B12E0354B10E0DF
:102E4000354B0EE0354B0CE0354B0AE0354B08E0D6
:102E5000354B06E0354B04E0354B02E0354B00E0E6
:102E60002A4BFB61C3E0FFF7BBF90246FB685B6AD4
:102E7000002B44D0FB685B6A012B3ED0FB685B6A89
:102E8000022B38D0FB685B6A032B32D0FB685B6A8D
:102E9000042B2CD0FB685B6A052B26D0FB685B6A91
:102EA000062B20D0FB685B6A072B1AD0FB685B6A95
:102EB000082B14D0FB685B6A092B0ED0FB685B6A99
:102EC0000A2B08D0FB685B6A0B2B02D14FF480738E
:102ED00016E0012314E0802312E0402310E02023B9
:102EE0000EE010230CE00C230AE00A2308E008237C
:102EF00006E0062304E0042302E0022300E00123AD
:102F0000B2FBF3F3FB6172E0008000400024F400A8
:102F100048E8010090D0030020A1070040420F00C4
:102F200055581400006A180080841E00AAB02800BA
:102F300000093D0000127A00FB685B6A002B4ED04E
:102F4000FB685B6A012B47D0FB685B6A022B40D0B1
:102F5000FB685B6A032B39D0FB685B6A042B32D0B9
:102F6000FB685B6A052B2BD0FB685B6A062B24D0C1
:102F7000FB685B6A072B1DD0FB685B6A082B16D0C9
:102F8000FB685B6A092B0FD0FB685B6A0A2B08D0D1
:102F9000FB685B6A0B2B01D1802322E04FF40043D6
:102FA0001FE04FF480731CE04FF4007319E04FF4FE
:102FB000806316E04FF4006313E040F6AA2310E0AC
:102FC00040F6CC430DE04FF480530AE041F25553F4
:102FD00007E04FF4005304E04FF4804301E04FF466
:102FE0000043FB6103E0012387F8233000BFFB6946
:102FF000002B00F0BC86FB685A6813465B00134444
:10300000FA699A4205D3FB685B681B03FA699A4226
:1030100004D9012387F8233000F0A9BE97F82B309C
:10302000082B00F2768201A252F823F051300008FA
:103030001335000891310008133500088732000865
:10304000133500081335000813350008C533000890
:10305000FFF75AF9B861BB6918464FF00001FB68E9
:103060005B6A002B67D0FB685B6A012B5ED0FB6854
:103070005B6A022B55D0FB685B6A032B4CD0FB6864
:103080005B6A042B43D0FB685B6A052B3AD0FB6874
:103090005B6A062B31D0FB685B6A072B28D0FB6884
:1030A0005B6A082B1FD0FB685B6A092B16D0FB6894
:1030B0005B6A0A2B0DD0FB685B6A0B2B04D14FF4C3
:1030C00080734FF000043AE04FF001034FF000042A
:1030D00035E04FF080034FF0000430E04FF0400344
:1030E0004FF000042BE04FF020034FF0000426E0E7
:1030F0004FF010034FF0000421E04FF00C034FF0AD
:1031000000041CE04FF00A034FF0000417E04FF0FA
:1031100008034FF0000412E04FF006034FF00004E4
:103120000DE04FF004034FF0000408E04FF00203FD
:103130004FF0000403E04FF001034FF000041A4683
:103140002346FDF73DF803460C46194622464FF04C
:1031500000034FF00004140244EA11640B02FA6801
:103160005268520811464FF000025818386044EB7C
:1031700002037B60FB685B684FF000041A4623463D
:10318000D7E90001FDF71CF803460C467B62C4E159
:10319000FB685B6A002B5BD0FB685B6A012B53D03A
:1031A000FB685B6A022B4BD0FB685B6A032B43D046
:1031B000FB685B6A042B3BD0FB685B6A052B33D052
:1031C000FB685B6A062B2BD0FB685B6A072B23D05E
:1031D000FB685B6A082B1BD0FB685B6A092B13D06A
:1031E000FB685B6A0A2B0BD0FB685B6A0B2B03D175
:1031F000AD4B4FF000042EE0AC4B4FF000042AE042
:10320000AB4B4FF0000426E0AA4B4FF0000422E045
:10321000A94B4FF000041EE0A84B4FF000041AE049
:103220009DA4D4E9003416E0A54B4FF0000412E051
:10323000A44B4FF000040EE099A4D4E900340AE056
:10324000A14B4FF0000406E0A04B4FF0000402E059
:10325000964B4FF00004FA685268520811464FF03E
:10326000000213EB010A44EB020BFB685B684FF0B2
:1032700000041A46234650465946FCF7A1FF034670
:103280000C467B6249E1FEF7ABFFB861BB691846AB
:103290004FF00001FB685B6A002B67D0FB685B6A3C
:1032A000012B5ED0FB685B6A022B55D0FB685B6A22
:1032B000032B4CD0FB685B6A042B43D0FB685B6A32
:1032C000052B3AD0FB685B6A062B31D0FB685B6A42
:1032D000072B28D0FB685B6A082B1FD0FB685B6A52
:1032E000092B16D0FB685B6A0A2B0DD0FB685B6A62
:1032F0000B2B04D14FF480734FF000043AE04FF0F1
:1033000001034FF0000435E04FF080034FF000045C
:1033100030E04FF040034FF000042BE04FF020036B
:103320004FF0000426E04FF010034FF0000421E0BE
:103330004FF00C034FF000041CE04FF00A034FF075
:10334000000417E04FF008034FF0000412E04FF0C4
:1033500006034FF000040DE04FF004034FF00004AB
:1033600008E04FF002034FF0000403E04FF00103C8
:103370004FF000041A462346FCF722FF03460C4692
:10338000194622464FF000034FF00004140244EAAD
:1033900011640B02FA685268520811464FF000029D
:1033A00013EB010844EB0209FB685B684FF0000473
:1033B0001A46234640464946FCF702FF03460C46A0
:1033C0007B62AAE0FB685B6A002B00F08780FB68E9
:1033D0005B6A012B5BD0FB685B6A022B52D0FB68F7
:1033E0005B6A032B4AD0FB685B6A042B41D0FB6805
:1033F0005B6A052B39D0FB685B6A062B31D0FB6812
:103400005B6A072B28D0FB685B6A082B1FD0FB6820
:103410005B6A092B16D0FB685B6A0A2B0DD0FB6830
:103420005B6A0B2B04D14FF400434FF0000459E0CA
:103430004FF400034FF0000454E04FF480334FF09A
:1034400000044FE04FF400334FF000044AE04FF423
:1034500080234FF0000445E04FF400234FF00004B8
:1034600040E01B4B4FF000043CE01A4B4FF00004CF
:1034700038E04FF480134FF0000433E0164B4FF068
:1034800000042FE04FF400134FF000042AE04FF443
:1034900080034FF0000425E00055581400000000A0
:1034A00000AAB028000000000024F400000024F46A
:1034B0000048E8010090D0030020A1070040420F1F
:1034C00000006A180080841E0000093D0000127A86
:1034D00000AA0A0000CC0C00005515004FF40003B0
:1034E0004FF00004FA685268520811464FF000028B
:1034F0005D1844EB0206FB685B684FF000041A4657
:10350000234628463146FCF75BFE03460C467B62A9
:1035100003E0012387F8233000BF7B6AB3F5407FC7
:1035200009D37B6AB3F5801F05D2FB681B687A6AF2
:10353000DA6000F01CBC012387F8233000F017BCD0
:10354000FB68DB69B3F5004F40F0058297F82B303C
:10355000082B00F2DE8101A252F823F08135000829
:1035600039360008F1360008133900089937000889
:1035700013390008133900081339000851380008BE
:10358000FEF7C2FEB861FB685B6A002B44D0FB68A3
:103590005B6A012B3ED0FB685B6A022B38D0FB686C
:1035A0005B6A032B32D0FB685B6A042B2CD0FB6870
:1035B0005B6A052B26D0FB685B6A062B20D0FB6874
:1035C0005B6A072B1AD0FB685B6A082B14D0FB6878
:1035D0005B6A092B0ED0FB685B6A0A2B08D0FB687C
:1035E0005B6A0B2B02D14FF4807316E0012314E0C9
:1035F000802312E0402310E020230EE010230CE093
:103600000C230AE00A2308E0082306E0062304E06E
:10361000042302E0022300E00123BA69B2FBF3F3C2
:103620005A00FB685B685B081A44FB685B68B2FB86
:10363000F3F39BB27B6270E1FEF77CFEB861FB683E
:103640005B6A002B44D0FB685B6A012B3ED0FB68B1
:103650005B6A022B38D0FB685B6A032B32D0FB68B5
:103660005B6A042B2CD0FB685B6A052B26D0FB68B9
:103670005B6A062B20D0FB685B6A072B1AD0FB68BD
:103680005B6A082B14D0FB685B6A092B0ED0FB68C1
:103690005B6A0A2B08D0FB685B6A0B2B02D14FF4E4
:1036A000807316E0012314E0802312E0402310E031
:1036B00020230EE010230CE00C230AE00A2308E08C
:1036C000082306E0062304E0042302E0022300E0CE
:1036D0000123BA69B2FBF3F35A00FB685B685B082D
:1036E0001A44FB685B68B2FBF3F39BB27B6214E1A4
:1036F000FB685B6A002B43D0FB685B6A012B3DD003
:10370000FB685B6A022B37D0FB685B6A032B31D006
:10371000FB685B6A042B2BD0FB685B6A052B25D00A
:10372000FB685B6A062B1FD0FB685B6A072B19D00E
:10373000FB685B6A082B13D0FB685B6A092B0DD012
:10374000FB685B6A0A2B07D0FB685B6A0B2B01D115
:103750008E4B16E08E4B14E08E4B12E08E4B10E039
:103760008E4B0EE08E4B0CE08E4B0AE08E4B08E049
:103770008E4B06E08E4B04E08E4B02E08E4B00E059
:10378000834BFA68526852081A44FB685B68B2FBC4
:10379000F3F39BB27B62C0E0FEF722FDB861FB68E9
:1037A0005B6A002B44D0FB685B6A012B3ED0FB6850
:1037B0005B6A022B38D0FB685B6A032B32D0FB6854
:1037C0005B6A042B2CD0FB685B6A052B26D0FB6858
:1037D0005B6A062B20D0FB685B6A072B1AD0FB685C
:1037E0005B6A082B14D0FB685B6A092B0ED0FB6860
:1037F0005B6A0A2B08D0FB685B6A0B2B02D14FF483
:10380000807316E0012314E0802312E0402310E0CF
:1038100020230EE010230CE00C230AE00A2308E02A
:10382000082306E0062304E0042302E0022300E06C
:103830000123BA69B2FBF3F35A00FB685B685B08CB
:103840001A44FB685B68B2FBF3F39BB27B6264E0F3
:10385000FB685B6A002B4FD0FB685B6A012B48D08A
:10386000FB685B6A022B41D0FB685B6A032B3AD092
:10387000FB685B6A042B33D0FB685B6A052B2CD09A
:10388000FB685B6A062B25D0FB685B6A072B1ED0A2
:10389000FB685B6A082B17D0FB685B6A092B10D0AA
:1038A000FB685B6A0A2B09D0FB685B6A0B2B02D1B1
:1038B0004FF4807322E04FF480331FE04FF4007325
:1038C0001CE04FF4806319E04FF4006316E04FF4FE
:1038D000805313E041F2545310E041F698130DE089
:1038E0004FF400530AE042F6AA2307E04FF4804366
:1038F00004E04FF4004301E04FF48033FA6852686B
:1039000052081A44FB685B68B2FBF3F39BB27B621C
:1039100003E0012387F8233000BF7B6A0F2B16D901
:103920007B6AB3F5803F12D27B6A9BB223F00F0310
:10393000FB827B6A5B089BB203F007039AB2FB8AA7
:103940001343FB82FB681B68FA8ADA600FE20123EB
:1039500087F823300BE297F82B30082B00F2F48124
:1039600001A252F823F000BFBD390008733A0008E5
:10397000293B0008493D0008D33B0008493D0008A9
:10398000493D0008493D0008893C000848E801001D
:103990000048E80190D0030020A1070040420F003A
:1039A00080841E00AAB0280000D4300000093D0029
:1039B0005461510000127A000024F400FEF7A4FCC8
:1039C000B861FB685B6A002B44D0FB685B6A012B23
:1039D0003ED0FB685B6A022B38D0FB685B6A032B26
:1039E00032D0FB685B6A042B2CD0FB685B6A052B2A
:1039F00026D0FB685B6A062B20D0FB685B6A072B2E
:103A00001AD0FB685B6A082B14D0FB685B6A092B31
:103A10000ED0FB685B6A0A2B08D0FB685B6A0B2B35
:103A200002D14FF4807316E0012314E0802312E0EA
:103A3000402310E020230EE010230CE00C230AE0CA
:103A40000A2308E0082306E0062304E0042302E03A
:103A5000022300E00123BA69B2FBF3F2FB685B6862
:103A60005B081A44FB685B68B2FBF3F39BB27B62B2
:103A70006EE1FEF75FFCB861FB685B6A002B44D027
:103A8000FB685B6A012B3ED0FB685B6A022B38D077
:103A9000FB685B6A032B32D0FB685B6A042B2CD07B
:103AA000FB685B6A052B26D0FB685B6A062B20D07F
:103AB000FB685B6A072B1AD0FB685B6A082B14D083
:103AC000FB685B6A092B0ED0FB685B6A0A2B08D087
:103AD000FB685B6A0B2B02D14FF4807316E0012365
:103AE00014E0802312E0402310E020230EE0102396
:103AF0000CE00C230AE00A2308E0082306E0062372
:103B000004E0042302E0022300E00123BA69B2FBCF
:103B1000F3F2FB685B685B081A44FB685B68B2FB06
:103B2000F3F39BB27B6213E1FB685B6A002B44D02A
:103B3000FB685B6A012B3ED0FB685B6A022B38D0C6
:103B4000FB685B6A032B32D0FB685B6A042B2CD0CA
:103B5000FB685B6A052B26D0FB685B6A062B20D0CE
:103B6000FB685B6A072B1AD0FB685B6A082B14D0D2
:103B7000FB685B6A092B0ED0FB685B6A0A2B08D0D6
:103B8000FB685B6A0B2B02D14FF2244316E0824B99
:103B900014E0824B12E0824B10E0824B0EE0824B2D
:103BA0000CE0824B0AE0824B08E0824B06E0824B3D
:103BB00004E0824B02E0824B00E0774BFA685268E7
:103BC00052081A44FB685B68B2FBF3F39BB27B625A
:103BD000BEE0FEF705FBB861FB685B6A002B44D0D2
:103BE000FB685B6A012B3ED0FB685B6A022B38D016
:103BF000FB685B6A032B32D0FB685B6A042B2CD01A
:103C0000FB685B6A052B26D0FB685B6A062B20D01D
:103C1000FB685B6A072B1AD0FB685B6A082B14D021
:103C2000FB685B6A092B0ED0FB685B6A0A2B08D025
:103C3000FB685B6A0B2B02D14FF4807316E0012303
:103C400014E0802312E0402310E020230EE0102334
:103C50000CE00C230AE00A2308E0082306E0062310
:103C600004E0042302E0022300E00123BA69B2FB6E
:103C7000F3F2FB685B685B081A44FB685B68B2FBA5
:103C8000F3F39BB27B6263E0FB685B6A002B4ED070
:103C9000FB685B6A012B47D0FB685B6A022B40D054
:103CA000FB685B6A032B39D0FB685B6A042B32D05C
:103CB000FB685B6A052B2BD0FB685B6A062B24D064
:103CC000FB685B6A072B1DD0FB685B6A082B16D06C
:103CD000FB685B6A092B0FD0FB685B6A0A2B08D074
:103CE000FB685B6A0B2B01D1802322E04FF4004379
:103CF0001FE04FF480731CE04FF4007319E04FF4A1
:103D0000806316E04FF4006313E040F6AA2310E04E
:103D100040F6CC430DE04FF480530AE041F2555396
:103D200007E04FF4005304E04FF4804301E04FF408
:103D30000043FA68526852081A44FB685B68B2FB99
:103D4000F3F39BB27B6203E0012387F8233000BFCB
:103D50007B6A0F2B08D97B6AB3F5803F04D2FB68DE
:103D60001B687A6ADA6002E0012387F82330FB6877
:103D70000122A3F86A20FB680122A3F86820FB68EF
:103D80000022DA66FB6800221A6797F8233018468B
:103D90003437BD46BDE8F08F0024F40048E8010048
:103DA00090D0030020A1070040420F005558140096
:103DB000006A180080841E00AAB0280000093D0097
:103DC00000127A0080B483B000AF78607B689B6A91
:103DD00003F00103002B0AD07B681B685B6823F4A7
:103DE00000317B68DA6A7B681B680A435A607B682B
:103DF0009B6A03F00203002B0AD07B681B685B6898
:103E000023F480317B681A6B7B681B680A435A6015
:103E10007B689B6A03F00403002B0AD07B681B6855
:103E20005B6823F480217B685A6B7B681B680A43BC
:103E30005A607B689B6A03F00803002B0AD07B68FA
:103E40001B685B6823F400417B689A6B7B681B6886
:103E50000A435A607B689B6A03F01003002B0AD068
:103E60007B681B689B6823F480517B68DA6B7B68F6
:103E70001B680A439A607B689B6A03F02003002B4F
:103E80000AD07B681B689B6823F400517B681A6C1E
:103E90007B681B680A439A607B689B6A03F0400357
:103EA000002B1AD07B681B685B6823F480117B6849
:103EB0005A6C7B681B680A435A607B685B6CB3F57D
:103EC000801F0AD17B681B685B6823F4C0017B6894
:103ED0009A6C7B681B680A435A607B689B6A03F094
:103EE0008003002B0AD07B681B685B6823F40021E9
:103EF0007B68DA6C7B681B680A435A6000BF0C372A
:103F0000BD4680BC704780B586B002AF78607B68E4
:103F10000022C3F88820FCF761FCF8607B681B680E
:103F20001B6803F00803082B0ED16FF07E4300934B
:103F3000FB6800224FF40011786800F02CF803466B
:103F4000002B01D0032322E07B681B681B6803F071
:103F50000403042B0ED16FF07E430093FB68002214
:103F60004FF48001786800F016F80346002B01D06A
:103F700003230CE07B682022C3F880207B6820228A
:103F8000C3F884207B68002283F87C200023184635
:103F90001037BD4680BD80B584B000AFF860B96011
:103FA0003B601346FB7162E0BB69B3F1FF3F5ED03B
:103FB000FCF714FC02463B68D31ABA699A4202D352
:103FC000BB69002B1DD1FB681B681A68FB681B6866
:103FD00022F4D0721A60FB681B689A68FB681B6841
:103FE00022F001029A60FB682022C3F88020FB685F
:103FF0002022C3F88420FB68002283F87C2003235E
:1040000045E0FB681B681B6803F00403002B2ED0FF
:10401000FB681B68DB6903F40063B3F5006F26D10E
:10402000FB681B684FF400621A62FB681B681A6821
:10403000FB681B6822F4D0721A60FB681B689A68E0
:10404000FB681B6822F001029A60FB682022C3F81B
:104050008020FB682022C3F88420FB682022C3F85C
:104060008820FB68002283F87C2003230FE0FB6894
:104070001B68DA69BB681340BA689A420CBF012317
:104080000023DBB21A46FB799A428DD000231846F2
:104090001037BD4680BD80B483B000AF78607B68C8
:1040A0001B681A687B681B6822F490721A607B6830
:1040B0001B689B687A68126823F0805323F0010321
:1040C00093607B682022C3F884207B680022DA6634
:1040D00000BF0C37BD4680BC704780B584B000AFD0
:1040E00078607B689B6AFB60FB680022A3F85E2017
:1040F000FB680022A3F85620F868FEF764FC00BFB6
:104100001037BD4680BD80B582B000AF78607B6857
:104110001B681A687B681B6822F040021A607B6883
:104120002022C3F880207B6800221A677868FEF797
:1041300041FC00BF0837BD4680BD80B483B000AFEE
:10414000786000BF0C37BD4680BC704780B483B038
:1041500000AF786000BF0C37BD4680BC704780B4AC
:1041600083B000AF786000BF0C37BD4680BC70479D
:104170002DE9F047089E04468846002B40F08580D4
:104180008A42154648D9B2FA82F24AB1C2F12007F2
:1041900001FA02F320FA07F7954047EA0308944032
:1041A0004FEA154E230CB8FBFEF71FFA85FC0EFBF9
:1041B000178843EA084307FB0CF1994209D9EB1829
:1041C00007F1FF3080F0E380994240F2E080023F47
:1041D0002B445B1AA4B2B3FBFEF00EFB103344EA8F
:1041E000034400FB0CFCA44509D92C1900F1FF3352
:1041F00080F0CB80A44540F2C88002382C4440EACD
:104200000740A4EB0C0400271EB1D4400023C6E9EC
:1042100000433946BDE8F087002A53D0B2FA82F253
:10422000002A40F0B680491B4FEA154E1FFA85F868
:104230000127B1FBFEFC230C0EFB1C1143EA0143DA
:1042400008FB0CF1994207D9EB180CF1FF3002D2B0
:10425000994200F2EC808446591AA3B2B1FBFEF0F9
:104260000EFB101443EA044408FB00F8A04507D9EC
:104270002C1900F1FF3302D2A04500F2DC80184671
:10428000A4EB080440EA0C40BEE78B4208D9002E9C
:1042900078D00027C6E9000138463946BDE8F087E6
:1042A000B3FA83F77FB98B4202D3824200F2BD801A
:1042B000841A61EB030301209846002EA9D0C6E9B9
:1042C0000048A6E7FFDEC7F12005BB4022FA05FC47
:1042D0004CEA030C01FA07F420FA05F821FA05F379
:1042E0004FEA1C4E48EA0404B3FBFEF9210C0EFB16
:1042F00019331FFA8CF841EA034309FB08FA9A457F
:1043000002FA07F200FA07F10BD91CEB030309F1DB
:10431000FF3080F088809A4540F28580A9F102093B
:104320006344A3EB0A03A4B2B3FBFEF00EFB10330D
:1043300044EA034400FB08F8A04508D91CEB040438
:1043400000F1FF336BD2A04569D90238644440EADA
:104350000940A4EB0804A0FB02894C45C6464B4625
:1043600054D351D0002E69D0B1EB0E0264EB03049C
:1043700004FA05F522FA07F3FC401D43C6E9005490
:10438000002746E73746304643E7184637E70746F3
:104390001FE7C2F1200320FA03F7954001FA02F06B
:1043A00021FA03F34FEA154E3843010CB3FBFEF735
:1043B0001FFA85F80EFB173341EA034107FB08F3A8
:1043C0008B4204FA02F407D9691807F1FF3C28D29E
:1043D0008B4226D9023F2944CB1A81B2B3FBFEF0AF
:1043E0000EFB103341EA034100FB08F38B4207D96F
:1043F000691800F1FF3C10D28B420ED902382944D3
:10440000C91A40EA074714E74145ABD2B8EB020EA0
:1044100069EB0C0201381346A4E76046F0E7184642
:1044200095E76746D8E781467BE7384645E7ACF134
:10443000020C2B4410E702382C4421E73746E8E60B
:1044400070B50D4D0D4C641BA4100026A64209D179
:104450000B4D0C4C00F020F8641BA4100026A64263
:1044600005D170BD55F8043B98470136EEE755F885
:10447000043B98470136F2E7004500080045000874
:10448000004500080445000802440346934200D159
:10449000704703F8011BF9E7F8B500BFF8BC08BC8A
:1044A0009E467047F8B500BFF8BC08BC9E467047F2
:1044B00000000000000000000102030406070809D4
:1044C0000000000001020304A0860100400D03006B
:1044D000801A060000350C0040420F0080841E0048
:1044E00000093D0000127A000024F40000366E013D
:0844F0000048E801006CDC0249
:0844F80078FCFF7F01000000C9
:084500006D020008000000003C
:0845080045020008000000005C
:1045100048656C6C6F0000000000000000000000A7
:104520000000000000093D00100000000100000034
:04000005080002915C
:00000001FF
