:020000040800F2
:1000000000000A203D0300088D0300088D0300084E
:100010008D0300088D0300088D0300080000000018
:100020000000000000000000000000008D03000838
:100030008D030008000000008D0300088F030008F6
:100040008D0300088D0300088D0300088D03000850
:100050008D0300088D0300088D0300088D03000840
:100060008D0300088D0300088D0300088D03000830
:100070008D0300088D0300088D0300088D03000820
:100080008D0300088D0300088D030008B5030008E8
:100090008D0300088D0300088D0300088D03000800
:1000A0008D0300088D0300088D0300088D030008F0
:1000B0008D0300088D0300088D0300088D030008E0
:1000C0008D0300088D0300088D0300088D030008D0
:1000D0008D0300088D0300088D030008A1030008AC
:1000E0008D0300088D0300088D0300088D030008B0
:1000F0008D0300088D0300088D0300080000000038
:100100008D0300088D0300088D0300088D0300088F
:100110008D0300088D0300088D0300088D0300087F
:100120008D0300088D0300088D0300088D0300086F
:100130008D0300088D0300088D0300088D0300085F
:100140008D0300088D0300088D0300088D0300084F
:100150008D0300088D0300088D0300088D0300083F
:100160008D0300088D0300088D0300088D0300082F
:100170008D0300088D03000800000000000000004F
:100180008D0300088D0300088D0300088D0300080F
:100190008D0300088D03000800000000000000002F
:1001A00000000000000000008D0300088D0300081F
:1001B0008D0300088D0300088D0300080000000077
:1001C00053B94AB9002908BF00281CBF4FF0FF31BE
:1001D0004FF0FF3000F00CB8ADF1080C6DE904CE23
:1001E00004F0AAFADDF804E0DDE9022304B0704768
:1001F000704700BF034613F8012B002AFBD1181AE1
:1002000001387047000000000000000000000000FE
:1002100001F0FF01102A2BDB10F0070F08D010F8B7
:10022000013B013A8B422DD010F0070F42B3F6D1BB
:10023000F0B441EA012141EA014122F007047FF0D4
:1002400000070023F0E80256083C85EA010586EA2B
:10025000010685FA47F5A3FA87F586FA47F6A5FA67
:1002600087F68EB9EED1F0BC01F0FF0102F0070273
:1002700032B110F8013B013A83EA010313B1F8D11E
:100280000020704701387047002D06BF35460338FF
:10029000073815F0010F07D1013015F4807F02BF38
:1002A000013015F4C03F0130F0BC0138704700BF89
:1002B0000348044B834202D0034B03B118477047F5
:1002C0008800002088000020000000000548064942
:1002D000091A891001EBD171491002D0034B03B107
:1002E00018477047880000208800002000000000A8
:1002F00010B5064C237843B9FFF7DAFF044B13B16E
:100300000448AFF300800123237010BD8800002053
:1003100000000000A052000808B5054B1BB10549BC
:100320000548AFF30080BDE80840FFF7CFBF00BF2E
:10033000000000008C000020A0520008DFF834D03C
:10034000002103E00C4B5B58435004310B480C4B2D
:1003500042189A42F6D30B4A02E0002342F8043BCB
:10036000094B9A42F9D300F08BFA04F053FB00F0EA
:100370002BF8FEE700000A20705300080000002060
:100380008800002088000020D4010020FEE780B50E
:1003900000AF00F0F3FA01F09BFA00BF80BD00004F
:1003A00080B500AF024802F069FC00BF80BD00BF0D
:1003B000C800002080B500AF024800F039FF00BF40
:1003C00080BD00BF9801002080B500AF00F084FA26
:1003D00000F022F800F082F800F0ACF800F05AF9D2
:1003E000084800F0ABFC084B1B681946074800F0B2
:1003F000D7F800F017F914220021044804F02EFB6E
:10040000FEE700BF98010020C4000020000000208B
:1004100080B400AFFEE7000080B500AF44220021A9
:100420002B4804F01BFB2A4B02221A60284B4FF486
:100430008072DA60264B40221A61254B02229A62B2
:10044000234B0222DA62224B04221A63204B32220F
:100450005A631F4B04221A641D4B0222DA631C4BA1
:1004600002229A631A4801F04DFC0346002B01D08A
:10047000FFF7CEFF14220021164804F0EFFA154BC7
:100480000F221A60134B03225A60124B00229A600B
:10049000104B4FF48062DA600E4B00221A61022189
:1004A0000C4802F055F80346002B01D0FFF7B0FFCF
:1004B00002F004FA0246084BA3FB02239B091846EC
:1004C00001F0DDF9042001F0E7F900BF80BD00BFB5
:1004D00054010020B0000020D34D621080B500AF61
:1004E0008C220021114804F0B9FA104B104A1A600E
:1004F0000E4B4FF4E1325A600C4B00229A600B4BCA
:100500000022DA60094B00221A61084B0C225A6162
:10051000064B00229A61054802F0C8FA0346002BF8
:1005200001D0FFF775FF00BF80BD00BFC8000020ED
:100530000048004080B500AF174B184A1A60164BB0
:1005400000225A76144B0122DA76134B00229A7657
:10055000114B00221A77104B00221A760E4B002204
:100560005A770D4B05225A600B4B4FF080429A6030
:10057000094B0022DA60084B4FF4E0221A61064B67
:1005800000225A61044800F015FA0346002B01D0FE
:10059000FFF73EFF00BF80BD9801002000640040CF
:1005A00080B588B000AF7860396040F25D63BB60B1
:1005B00000233B6100237B610523BB613B4607F1C0
:1005C00008017A68144800F0FDFB0346002B01D0B7
:1005D000FFF71EFF00BF3B6819460F4800F0CCFC38
:1005E0000346002BF7D10D49786804F03FFA78688C
:1005F000FFF700FE03469AB24FF0FF3379680848D0
:1006000002F0A4FA0346002B01D0FFF701FF00BF60
:100610002037BD4680BD00BF98010020B8520008B9
:10062000C800002080B58AB000AF00BF0021154887
:1006300000F0D7FD0346002BF8D03B1D07F10C025C
:100640000021104800F0BBFC0346002B01D0FFF74F
:10065000DFFE0D490D4804F009FA0C48FFF7CAFD0A
:1006600003469AB24FF0FF330849094802F06EFA88
:100670000346002B01D0FFF7CBFE00BF2837BD4655
:1006800080BD00BF98010020CC520008000000206F
:10069000C800002080B58AB000AF01233B62002370
:1006A0007B6100233B6100233B6000237B600023D0
:1006B000BB600023FB600023BB610123FB613B4661
:1006C0001946064800F071FA0346002B01D0FFF7E7
:1006D0009FFE00BF2837BD4680BD00BF98010020A7
:1006E00080B500AF032001F095F80D4B5B6A0C4A12
:1006F00043F4E0235362002200216FF00A0001F06E
:1007000094F8002200216FF00B0001F08EF8002217
:1007100000216FF0090001F088F800BF80BD00BF24
:1007200000ED00E080B58AB000AF78601E4B9B6D95
:100730001D4A43F4802393651B4B9B6D03F4802378
:100740003B613B69184BDB6C174A43F00803D364E9
:10075000154BDB6C03F00803FB60FB684FF4807300
:100760007B610223BB610023FB6100233B62072303
:100770007B6207F1140319460C4801F015F94FF498
:1007800000737B6107F114031946084801F00CF966
:10079000272001F066F800220F21272001F045F8FC
:1007A00000BF2837BD4680BD00100240000C004845
:1007B00080B58AB000AF7860194B9B6D184A43F042
:1007C00000739365164B9B6D03F000733B613B69AF
:1007D000134BDB6C124A43F00803D364104BDB6C01
:1007E00003F00803FB60FB6803237B610223BB610A
:1007F00009237B620023FB6102233B6207F11403A0
:100800001946084801F0D0F8132001F02AF8002218
:100810000F21132001F009F800BF2837BD4680BD25
:1008200000100240000C004880B584B000AF786032
:10083000114B1B68002B02D10F4B104A1A600E4B54
:100840001B68FB600C4B1A687B6813446A46934232
:1008500007D904F0D9F802460C2313604FF0FF3398
:1008600006E0054B1A687B681344034A1360FB6873
:1008700018461037BD4680BDA4000020D8010020D6
:1008800080B400AF124B1B68114A43F001031360A0
:100890000F4B00229A600E4B1B680D4A23F0A853A1
:1008A00023F4102313600A4B4FF48052DA60084B94
:1008B0001B68074A23F480231360054B00229A61CA
:1008C000044B4FF000629A6000BFBD4680BC704789
:1008D0000010024000ED00E080B582B000AF0023C0
:1008E000FB71032000F096FF002000F00DF8034696
:1008F000002B02D00123FB7101E0FFF7F1FEFB7931
:1009000018460837BD4680BD80B584B000AF78601A
:100910000023FB73164B1B68002B22D0154B1A6863
:10092000134B1B684FF47A71B1FBF3F3B2FBF3F393
:10093000184600F0A4FF0346002B0FD17B680F2B55
:1009400009D8002279684FF0FF3000F06EFF0A4AA4
:100950007B68136007E00123FB7304E00123FB7352
:1009600001E00123FB73FB7B18461037BD4680BDB9
:100970001C000020140000201800002080B400AFEC
:10098000054B1A68054B1B681344034A136000BFEC
:10099000BD4680BC704700BFC00100201C00002085
:1009A00080B400AF024B1B681846BD4680BC704740
:1009B000C001002080B584B000AF78607B68002B58
:1009C00001D10123EDE07B6893F82030DBB2002BEE
:1009D00002D17868FFF7ECFE7B681B681A687B68B9
:1009E0001B6822F002021A60FFF7DAFFF86012E0DB
:1009F000FFF7D6FF0246FB68D31A0A2B0BD97B6898
:100A00005B6A43F400327B685A627B68052283F894
:100A100020200123C5E07B681B685B6803F00203AC
:100A2000002BE5D17B681B681A687B681B6842F065
:100A300001021A60FFF7B4FFF86012E0FFF7B0FFA1
:100A40000246FB68D31A0A2B0BD97B685B6A43F416
:100A500000327B685A627B68052283F820200123DC
:100A60009FE07B681B685B6803F00103002BE5D007
:100A70007B681B7E012B08D17B681B681A687B682A
:100A80001B6842F080021A6007E07B681B681A68E6
:100A90007B681B6822F080021A607B685B7E012BFA
:100AA00008D17B681B681A687B681B6842F04002AB
:100AB0001A6007E07B681B681A687B681B6822F075
:100AC00040021A607B689B7E012B08D17B681B6803
:100AD0001A687B681B6842F020021A6007E07B6896
:100AE0001B681A687B681B6822F020021A607B680A
:100AF000DB7E012B08D17B681B681A687B681B684A
:100B000022F010021A6007E07B681B681A687B6895
:100B10001B6842F010021A607B681B7F012B08D112
:100B20007B681B681A687B681B6842F008021A60C1
:100B300007E07B681B681A687B681B6822F0080264
:100B40001A607B685B7F012B08D17B681B681A6881
:100B50007B681B6842F004021A6007E07B681B6830
:100B60001A687B681B6822F004021A607B689A6826
:100B70007B68DB681A437B681B691A437B685B6987
:100B800042EA03017B685B685A1E7B681B680A4364
:100B9000DA617B6800225A627B68012283F8202098
:100BA000002318461037BD4680BD80B487B000AF23
:100BB000786039607B681B687B617B6893F82030C4
:100BC000FB74FB7C012B03D0FB7C022B40F0AA8042
:100BD0007B69D3F8003243F001027B69C3F800223D
:100BE0003B685B6903F01F03012202FA03F3FB6019
:100BF0007B69D3F81C22FB68DB431A407B69C3F88E
:100C00001C223B68DB69002B23D17B69D3F80C22C3
:100C1000FB68DB431A407B69C3F80C223B68DB6846
:100C200019043B685B689BB23A68526919437B6957
:100C3000483243F832103B689B6819043B681B68D4
:100C40009AB23B685B690A4379694833DB000B441D
:100C50005A603B68DB69012B22D17B69D3F80C22F7
:100C6000FB681A437B69C3F80C223B681B681904B4
:100C70003B685B689BB23A68526919437B694832AA
:100C800043F832103B689B6819043B68DB689AB2F2
:100C90003B685B690A4379694833DB000B445A605F
:100CA0003B689B69002B09D17B69D3F80422FB6860
:100CB000DB431A407B69C3F8042207E07B69D3F861
:100CC0000422FB681A437B69C3F804223B681B6952
:100CD000002B09D17B69D3F81422FB68DB431A404F
:100CE0007B69C3F8142207E07B69D3F81422FB6800
:100CF0001A437B69C3F814223B681B6A012B07D196
:100D00007B69D3F81C22FB681A437B69C3F81C2259
:100D10007B69D3F8003223F001027B69C3F800221B
:100D2000002306E07B685B6A43F480227B685A629A
:100D3000012318461C37BD4680BC704780B584B07F
:100D400000AF78607B6893F82030DBB2012B2ED1A6
:100D50007B68022283F820207B681B681A687B6806
:100D60001B6822F001021A60FFF71AFEF86012E019
:100D7000FFF716FE0246FB68D31A0A2B0BD97B68D5
:100D80005B6A43F400327B685A627B68052283F811
:100D90002020012312E07B681B685B6803F00103DD
:100DA000002BE5D17B6800225A62002306E07B68B5
:100DB0005B6A43F400227B685A62012318461037AD
:100DC000BD4680BD80B489B000AFF860B9607A607C
:100DD0003B60FB6893F82030FB77FB681B689B68DF
:100DE000BB61FB7F012B03D0FB7F022B40F0B8805F
:100DF000BB6903F08063002B0AD1BB6903F0006379
:100E0000002B05D1BB6903F08053002B00F0A080BC
:100E1000BB691B0E03F003037B617B69022B07D9BF
:100E2000FB685B6A43F40002FB685A6201239EE0A0
:100E300001227B699A403B681A60BB689B68002B63
:100E40000DD1BB681B685A05BB68DB68F968096887
:100E50001A437B6918331B010B441A600FE0BB680F
:100E60005B68DA00BB689B681A43BB68DB68F9689B
:100E700009681A437B6918331B010B441A60FB682D
:100E80001968BB681A697B6918331B010B4404336A
:100E90001A60BB681B7D012B11D1FB681A687B6946
:100EA00018331B01134404331B68FA68116843F4B8
:100EB00080727B6918331B010B4404331A607B6812
:100EC00007331B781A067B6806331B781B041A430A
:100ED0007B6805331B781B0213437A68043212784F
:100EE0001046FA68116843EA00027B691B010B4453
:100EF00003F5C6731A607B6803331B781A067B6898
:100F000002331B781B041A437B6801331B781B02D6
:100F100013437A6812781046FA68116843EA0002AF
:100F20007B691B010B4403F5C4731A60FB681A68E4
:100F30007B6918331B0113441B68FA68116843F07E
:100F400001027B6918331B010B441A6000230EE079
:100F5000FB685B6A43F40012FB685A62012306E0F7
:100F6000FB685B6A43F48022FB685A6201231846DF
:100F70002437BD4680BC704780B485B000AF786030
:100F800039600023FB607B6893F82030FB72FB7AAA
:100F9000012B02D0FB7A022B0BD17B681B689A686D
:100FA0003B689B061A403B689B069A4201D001238E
:100FB000FB60FB6818461437BD4680BC704780B4A0
:100FC00087B000AFF860B9607A603B60FB6893F867
:100FD0002030FB75FB7D012B03D0FB7D022B40F005
:100FE000F480BB68002B0ED1FB681B68DB6803F044
:100FF0000303002B16D1FB685B6A43F40012FB6805
:101000005A620123E8E0FB681B681B6903F00303D5
:10101000002B07D1FB685B6A43F40012FB685A623D
:101020000123D9E0FB681A68BB681B331B0113441A
:101030001B6803F004027B689A607B689B68002B46
:101040000CD1FB681A68BB681B331B0113441B6877
:101050005B0DC3F30A027B681A600BE0FB681A6839
:10106000BB681B331B0113441B68DB0823F0604281
:101070007B685A60FB681A68BB681B331B0113440A
:101080001B685B0803F001027B68DA60FB681A6882
:10109000BB681B331B01134404331B6803F00F02AE
:1010A0007B681A61FB681A68BB681B331B01134419
:1010B00004331B681B0ADAB27B689A61FB681A6802
:1010C000BB681B331B01134404331B681B0C9AB20F
:1010D0007B685A61FB681A68BB681B01134403F5FF
:1010E000DC731B68DAB23B681A70FB681A68BB686D
:1010F0001B01134403F5DC731B681A0A3B680133B8
:10110000D2B21A70FB681A68BB681B01134403F55E
:10111000DC731B681A0C3B680233D2B21A70FB688E
:101120001A68BB681B01134403F5DC731B681A0EB5
:101130003B680333D2B21A70FB681A68BB681B01A4
:10114000134403F5DE731A683B680433D2B21A7095
:10115000FB681A68BB681B01134403F5DE731B6848
:101160001A0A3B680533D2B21A70FB681A68BB686A
:101170001B01134403F5DE731B681A0C3B6806332E
:10118000D2B21A70FB681A68BB681B01134403F5DE
:10119000DE731B681A0E3B680733D2B21A70BB6845
:1011A000002B08D1FB681B68DA68FB681B6842F0FB
:1011B0002002DA6007E0FB681B681A69FB681B689D
:1011C00042F020021A61002306E0FB685B6A43F4E8
:1011D0008022FB685A62012318461C37BD4680BC3A
:1011E000704780B485B000AF786039600023FB6041
:1011F0007B6893F82030FB72FB7A012B02D0FB7ADC
:10120000022B0FD13B68002B06D17B681B68DB6883
:1012100003F00303FB6005E07B681B681B6903F0B8
:101220000303FB60FB6818461437BD4680BC70475B
:1012300080B58AB000AF786000237B627B681B6852
:101240005B693B627B681B685B68FB617B681B6852
:101250009B68BB617B681B68DB687B617B681B6884
:101260001B693B617B681B689B69FB603B6A03F001
:101270000103002B7CD0BB6903F00103002B23D0BA
:101280007B681B6801229A60BB6903F00203002B94
:1012900003D0786800F07DF916E0BB6903F0040321
:1012A000002B04D07B6A43F400637B620CE0BB69D3
:1012B00003F00803002B04D07B6A43F480537B6265
:1012C00002E0786800F080F9BB6903F48073002BBA
:1012D00024D07B681B684FF480729A60BB6903F46A
:1012E0000073002B03D0786800F05CF916E0BB694E
:1012F00003F48063002B04D07B6A43F400537B62C9
:101300000CE0BB6903F40063002B04D07B6A43F458
:1013100080437B6202E0786800F05FF9BB6903F408
:101320008033002B24D07B681B684FF480329A6096
:10133000BB6903F40033002B03D0786800F03BF95D
:1013400016E0BB6903F48023002B04D07B6A43F4CE
:1013500000437B620CE0BB6903F40023002B04D044
:101360007B6A43F480337B6202E0786800F03EF9E8
:101370003B6A03F00803002B0CD07B6903F01003D9
:10138000002B07D07B6A43F400737B627B681B6889
:101390001022DA603B6A03F00403002B0BD07B6958
:1013A00003F00803002B06D07B681B680822DA6074
:1013B000786800F02DF93B6A03F00203002B09D096
:1013C0007B681B68DB6803F00303002B02D078689E
:1013D00000F015F93B6A03F04003002B0CD03B6989
:1013E00003F01003002B07D07B6A43F480637B6219
:1013F0007B681B6810221A613B6A03F02003002BF4
:101400000BD03B6903F00803002B06D07B681B68F8
:1014100008221A61786800F00DF93B6A03F01003A6
:10142000002B09D07B681B681B6903F00303002BAA
:1014300002D0786800F0F5F83B6A03F40033002B23
:101440000BD0FB6903F01003002B06D07B681B68F0
:1014500010225A60786800F0F6F83B6A03F4803393
:10146000002B0BD0FB6903F00803002B06D07B6830
:101470001B6808225A60786800F0EEF83B6A03F4B3
:101480000043002B75D0FB6903F00403002B6CD0E4
:101490003B6A03F48073002B08D0FB6803F0010360
:1014A000002B03D07B6A43F001037B623B6A03F4A9
:1014B0000073002B08D0FB6803F00203002B03D05D
:1014C0007B6A43F002037B623B6A03F48063002B78
:1014D00008D0FB6803F00403002B03D07B6A43F0C1
:1014E00004037B623B6A03F40063002B3DD0FB687E
:1014F00003F07003002B38D0FB6803F07003302B2F
:1015000017D0302B04D8102B09D0202B0CD024E07E
:10151000502B18D0602B1BD0402B0FD01DE07B6AC6
:1015200043F008037B6218E07B6A43F010037B62A0
:1015300013E07B6A43F020037B620EE07B6A43F09A
:1015400040037B6209E07B6A43F080037B6204E036
:101550007B6A43F480737B6200BF7B681B689A6977
:101560007B681B6822F070029A617B681B6804220A
:101570005A607B6A002B08D07B685A6A7B6A1A43E0
:101580007B685A62786800F070F800BF2837BD4663
:1015900080BD80B483B000AF786000BF0C37BD461B
:1015A00080BC704780B483B000AF786000BF0C3758
:1015B000BD4680BC704780B483B000AF786000BF88
:1015C0000C37BD4680BC704780B483B000AF7860F4
:1015D00000BF0C37BD4680BC704780B483B000AFFD
:1015E000786000BF0C37BD4680BC704780B483B0C4
:1015F00000AF786000BF0C37BD4680BC704780B438
:1016000083B000AF786000BF0C37BD4680BC704728
:1016100080B483B000AF786000BF0C37BD4680BC9B
:10162000704780B483B000AF786000BF0C37BD4610
:1016300080BC704780B483B000AF786000BF0C37C7
:10164000BD4680BC704780B483B000AF786000BFF7
:101650000C37BD4680BC704780B483B000AF786063
:1016600000BF0C37BD4680BC704780B483B000AF6C
:10167000786000BF0C37BD4680BC704780B485B031
:1016800000AF78607B6803F00703FB600C4BDB68FE
:10169000BB60BA684FF6FF031340BB60FB681A02D9
:1016A000BB68134343F0BF6343F40033BB60044A99
:1016B000BB68D36000BF1437BD4680BC704700BF15
:1016C00000ED00E080B400AF044BDB681B0A03F0C0
:1016D00007031846BD4680BC704700BF00ED00E020
:1016E00080B483B000AF0346FB7197F90730002B3D
:1016F0000BDBFB7903F01F02064997F907305B0902
:10170000012000FA02F241F8232000BF0C37BD4649
:1017100080BC704700E100E080B483B000AF0346B6
:101720003960FB7197F90730002B0ADB3B68DAB2AE
:101730000C4997F907301201D2B20B4483F8002309
:101740000AE03B68DAB20849FB7903F00F03043B77
:101750001201D2B20B441A7600BF0C37BD4680BCD2
:10176000704700BF00E100E000ED00E080B489B008
:1017700000AFF860B9607A60FB6803F00703FB61B3
:10178000FB69C3F10703042B28BF0423BB61FB697A
:101790000433062B02D9FB69033B00E000237B6185
:1017A0004FF0FF32BB6902FA03F3DA43BB681A4019
:1017B0007B699A404FF0FF317B6901FA03F3D9430B
:1017C0007B680B40134318462437BD4680BC7047E6
:1017D00080B582B000AF78607B68013BB3F1807F59
:1017E00001D301230FE00A4A7B68013B53600F21BC
:1017F0004FF0FF30FFF790FF054B00229A60044B3B
:1018000007221A60002318460837BD4680BD00BF76
:1018100010E000E080B582B000AF78607868FFF734
:101820002DFF00BF0837BD4680BD80B586B000AF34
:101830000346B9607A60FB7300237B61FFF742FFC8
:1018400078617A68B9687869FFF790FF024697F97E
:101850000F3011461846FFF75FFF00BF1837BD462F
:1018600080BD80B582B000AF0346FB7197F90730A9
:101870001846FFF735FF00BF0837BD4680BD80B56D
:1018800082B000AF78607868FFF7A2FF0346184681
:101890000837BD4680BD000080B483B000AF7860DB
:1018A0007B68042B06D1094B1B68084A43F00403EC
:1018B000136005E0054B1B68044A23F00403136022
:1018C00000BF0C37BD4680BC704700BF10E000E091
:1018D00080B500AF00F002F800BF80BD80B400AF5B
:1018E00000BFBD4680BC704780B584B000AF786053
:1018F0000023FB737B6893F82530DBB2022B05D005
:101900007B680422DA630123FB7347E07B681B6872
:101910001A687B681B6822F00E021A607B681B68DD
:101920001A687B681B6822F001021A607B689B6C56
:101930001A687B689B6C22F480721A607B685B6C0F
:1019400003F01C027B681B6C012101FA02F25A6051
:101950007B68DB6C7A68126D5A607B685B6D002B6C
:101960000CD07B685B6D1A687B685B6D22F48072BB
:101970001A607B689B6D7A68D26D5A607B68012221
:1019800083F825207B68002283F824207B689B6BEA
:10199000002B03D07B689B6B78689847FB7B1846CD
:1019A0001037BD4680BD000080B487B000AF7860BE
:1019B000396000237B6166E13B681A6801217B691D
:1019C00001FA03F31340FB60FB68002B00F0588121
:1019D0003B685B68012B0BD03B685B68022B07D030
:1019E0003B685B68112B03D03B685B68122B30D1DE
:1019F0007B689B683B617B695B00032202FA03F30F
:101A0000DB433A6913403B613B68DA687B695B0002
:101A100002FA03F33A6913433B617B683A699A60BF
:101A20007B685B683B6101227B6902FA03F3DB435D
:101A30003A6913403B613B685B681B0903F0010294
:101A40007B6902FA03F33A6913433B617B683A69A5
:101A50005A607B68DB683B617B695B00032202FAAA
:101A600003F3DB433A6913403B613B689A687B6947
:101A70005B0002FA03F33A6913433B617B683A69FE
:101A8000DA603B685B68022B03D03B685B68122B13
:101A900023D17B69DA087B68083253F822303B6136
:101AA0007B6903F007039B000F2202FA03F3DB4379
:101AB0003A6913403B613B681A697B6903F007038D
:101AC0009B0002FA03F33A6913433B617B69DA082E
:101AD0007B680832396943F822107B681B683B61D8
:101AE0007B695B00032202FA03F3DB433A6913408C
:101AF0003B613B685B6803F003027B695B0002FAB1
:101B000003F33A6913433B617B683A691A603B68A7
:101B10005B6803F08053002B00F0B280604B1B6EBB
:101B20005F4A43F0010313665D4B1B6E03F0010334
:101B3000BB60BB685B4A7B699B08023352F8233069
:101B40003B617B6903F003039B000F2202FA03F35E
:101B5000DB433A6913403B617B68B3F1904F2BD074
:101B60007B68514A934225D07B68504A93421FD0EC
:101B70007B684F4A934219D07B684E4A934213D0F8
:101B80007B684D4A93420DD07B684C4A934207D004
:101B90007B684B4A934201D107230EE008230CE0F7
:101BA00006230AE0052308E0042306E0032304E0FB
:101BB000022302E0012300E000237A6902F003021D
:101BC000920093403A6913433B6136497B699B0815
:101BD00002333A6941F823203A4B1B683B61FB68AA
:101BE000DB433A6913403B613B685B6803F4803335
:101BF000002B03D03A69FB6813433B61314A3B69D0
:101C00001360304B5B683B61FB68DB433A69134010
:101C10003B613B685B6803F40033002B03D03A69F7
:101C2000FB6813433B61274A3B695360254B9B6824
:101C30003B61FB68DB433A6913403B613B685B688F
:101C400003F48013002B03D03A69FB6813433B6114
:101C50001C4A3B6993601B4BDB683B61FB68DB43C1
:101C60003A6913403B613B685B6803F40013002B47
:101C700003D03A69FB6813433B61124A3B69D36066
:101C80007B6901337B613B681A687B6922FA03F345
:101C9000002B7FF491AE00BF1C37BD4680BC70475F
:101CA0000010024000000140000400480008004805
:101CB000000C0048001000480014004800180048BC
:101CC000001C00480004014080B400AF0C4B1B68AE
:101CD00003F4C063B3F5806F02D14FF480630BE06F
:101CE000074BD3F8803003F48073B3F5807F02D1C3
:101CF0004FF4007300E000231846BD4680BC7047D7
:101D00000070004080B588B000AF78607B68002B21
:101D100002D1012300F016BCA04B9B6803F00C031A
:101D2000BB619E4BDB6803F003037B617B681B6830
:101D300003F01003002B00F0E480BB69002B07D0F8
:101D4000BB690C2B40F08B807B69012B40F08780B6
:101D5000924B1B6803F00203002B05D07B689B6944
:101D6000002B01D10123EDE37B681A6A8B4B1B68C2
:101D700003F00803002B04D0884B1B6803F0F0032A
:101D800005E0864BD3F894301B0903F0F00393422F
:101D900023D27B681B6A184600F0C6FD0346002B61
:101DA00001D00123CEE37D4B1B687C4A43F008033E
:101DB00013607A4B1B6823F0F0027B681B6A77493B
:101DC00013430B60754B5B6823F47F427B68DB69D0
:101DD0001B02724913434B6025E0704B1B686F4A2E
:101DE00043F0080313606D4B1B6823F0F0027B681F
:101DF0001B6A6A4913430B60684B5B6823F47F429C
:101E00007B68DB691B02654913434B60BB69002B90
:101E100009D17B681B6A184600F086FD0346002B3B
:101E200001D001238EE300F0BFFC01465B4B9B68B1
:101E30001B0903F00F035A4AD35C03F01F0321FA76
:101E400003F3584A1360584B1B681846FEF75CFDB5
:101E50000346FB73FB7B002B52D0FB7B72E37B685A
:101E60009B69002B32D04D4B1B684C4A43F0010359
:101E70001360FEF795FD386108E0FEF791FD02461C
:101E80003B69D31A022B01D903235BE3434B1B6845
:101E900003F00203002BF0D0404B1B683F4A43F095
:101EA000080313603D4B1B6823F0F0027B681B6A3C
:101EB0003A4913430B60394B5B6823F47F427B68DC
:101EC000DB691B02354913434B601AE0334B1B6837
:101ED000324A23F001031360FEF762FD386108E027
:101EE000FEF75EFD02463B69D31A022B01D903239C
:101EF00028E32A4B1B6803F00203002BF0D100E01B
:101F000000BF7B681B6803F00103002B73D0BB6923
:101F1000082B05D0BB690C2B0ED17B69032B0BD191
:101F20001E4B1B6803F40033002B63D07B685B6897
:101F3000002B5FD1012305E37B685B68B3F5803F2D
:101F400006D1164B1B68154A43F4803313601DE01D
:101F50007B685B68B3F5A02F0CD1104B1B680F4A50
:101F600043F4802313600D4B1B680C4A43F4803309
:101F700013600BE0094B1B68084A23F4803313609D
:101F8000064B1B68054A23F4802313607B685B685B
:101F9000002B1BD0FEF704FD386110E0001002405A
:101FA000DC5200081400002018000020FEF7F8FCA6
:101FB00002463B69D31A642B01D90323C2E2AF4B1B
:101FC0001B6803F40033002BF0D014E0FEF7E8FCAC
:101FD000386108E0FEF7E4FC02463B69D31A642B43
:101FE00001D90323AEE2A54B1B6803F40033002B99
:101FF000F0D100E000BF7B681B6803F00203002BF8
:1020000060D0BB69042B05D0BB690C2B19D17B694F
:10201000022B16D1994B1B6803F48063002B05D06B
:102020007B68DB68002B01D101238BE2934B5B685B
:1020300023F0FE427B681B691B06904913434B60EB
:1020400040E07B68DB68002B23D08C4B1B688B4AFD
:1020500043F480731360FEF7A3FC386108E0FEF7D9
:102060009FFC02463B69D31A022B01D9032369E284
:10207000824B1B6803F48063002BF0D07F4B5B68BE
:1020800023F0FE427B681B691B067C4913434B60AF
:1020900018E07A4B1B68794A23F480731360FEF7CB
:1020A0007FFC386108E0FEF77BFC02463B69D31AEF
:1020B000022B01D9032345E2704B1B6803F48063B4
:1020C000002BF0D17B681B6803F00803002B3CD089
:1020D0007B685B69002B1CD0684BD3F89430674A4F
:1020E00043F00103C2F89430FEF75AFC386108E06F
:1020F000FEF756FC02463B69D31A022B01D9032393
:1021000020E25E4BD3F8943003F00203002BEFD0B3
:102110001BE05A4BD3F89430584A23F00103C2F81D
:102120009430FEF73DFC386108E0FEF739FC0246CA
:102130003B69D31A022B01D9032303E24F4BD3F897
:10214000943003F00203002BEFD17B681B6803F08F
:102150000403002B00F0A6800023FB77474B9B6D08
:1021600003F08053002B0DD1444B9B6D434A43F049
:1021700080539365414B9B6D03F08053BB60BB68FC
:102180000123FB773E4B1B6803F48073002B18D1AF
:102190003B4B1B683A4A43F480731360FEF700FC24
:1021A000386108E0FEF7FCFB02463B69D31A022BBC
:1021B00001D90323C6E1324B1B6803F48073002B63
:1021C000F0D07B689B68012B08D12C4BD3F8903062
:1021D0002A4A43F00103C2F8903024E07B689B68F0
:1021E000052B10D1254BD3F89030244A43F004033B
:1021F000C2F89030214BD3F89030204A43F00103CD
:10220000C2F890300FE01D4BD3F890301B4A23F0FA
:102210000103C2F89030194BD3F89030174A23F0DD
:102220000403C2F890307B689B68002B16D0FEF741
:10223000B7FB38610AE0FEF7B3FB02463B69D31AED
:1022400041F28832934201D903237BE10B4BD3F84F
:10225000903003F00203002BEDD01AE0FEF7A0FB54
:1022600038610FE0FEF79CFB02463B69D31A41F24E
:102270008832934206D9032364E100BF0010024074
:1022800000700040A84BD3F8903003F00203002BFD
:10229000E8D1FB7F012B05D1A34B9B6DA24A23F014
:1022A000805393657B681B6803F02003002B3CD0B0
:1022B0007B685B6A002B1CD09B4BD3F898309A4A02
:1022C00043F00103C2F89830FEF76AFB386108E07A
:1022D000FEF766FB02463B69D31A022B01D90323A2
:1022E00030E1914BD3F8983003F00203002BEFD08C
:1022F0001BE08D4BD3F898308B4A23F00103C2F8D2
:102300009830FEF74DFB386108E0FEF749FB0246C6
:102310003B69D31A022B01D9032313E1824BD3F873
:10232000983003F00203002BEFD17B689B6A002BEF
:1023300000F007817B689B6A022B40F0CB807A4BD0
:10234000DB687B617B6903F003027B68DB6A9A428E
:102350002CD17B6903F0F0027B681B6B013B1B01F6
:102360009A4223D17B6903F4FE427B685B6B1B02BC
:102370009A421BD17B6903F078427B689B6BDB063A
:102380009A4213D17B6903F4C0027B68DB6B5B0864
:10239000013B5B059A4209D17B6903F0C0627B680F
:1023A0001B6C5B08013B5B069A426DD0BB690C2B32
:1023B00068D05D4B1B6803F08063002B05D15A4B3E
:1023C0001B6803F08053002B01D00123BAE0564B69
:1023D0001B68554A23F080731360FEF7E1FA3861F9
:1023E00008E0FEF7DDFA02463B69D31A022B01D959
:1023F0000323A7E04C4B1B6803F00073002BF0D1C4
:10240000494BDA68494B13407A68D16A7A68126B93
:10241000013A120111437A68526B120211437A6831
:10242000D26B5208013A520511437A68126C520875
:10243000013A520611437A68926BD2060A433A492E
:102440001343CB60384B1B68374A43F080731360EB
:10245000354BDB68344A43F08073D360FEF7A0FA53
:10246000386108E0FEF79CFA02463B69D31A022B5A
:1024700001D9032366E02C4B1B6803F00073002B8B
:10248000F0D05EE001235DE0274B1B6803F0007392
:10249000002B56D1244B1B68234A43F080731360F2
:1024A000214BDB68204A43F08073D360FEF778FA53
:1024B000386108E0FEF774FA02463B69D31A022B32
:1024C00001D903233EE0184B1B6803F00073002B77
:1024D000F0D036E0BB690C2B31D0134B1B68124A8D
:1024E00023F080731360104B1B6803F02053002B04
:1024F00005D10D4BDB680C4A23F00303D3600A4B74
:10250000DB68094A23F0887323F48033D360FEF735
:1025100047FA38610CE0FEF743FA02463B69D31AEA
:10252000022B05D903230DE0001002400C809D0111
:10253000064B1B6803F00073002BECD101E0012374
:1025400000E0002318462037BD4680BD0010024041
:1025500080B586B000AF7860396000237B617B680E
:10256000002B01D101230FE1894B1B6803F00F03FE
:102570003A689A4210D9864B1B6823F00F028449AF
:102580003B6813430B60824B1B6803F00F033A68F0
:102590009A4201D00123F7E07B681B6803F0010336
:1025A000002B00F089807B685B68032B33D1794B6B
:1025B0001B6803F00073002B01D10123E4E000F05D
:1025C0000DFA0246744B9A4255D9724B9B6803F040
:1025D000F003002B0AD16F4B9B6823F0F0036D4A88
:1025E00043F08003936080237B6144E07B681B6839
:1025F00003F00203002B3ED07B689B68002B3AD18E
:10260000644B9B6823F0F003624A43F080039360BD
:1026100080237B612FE07B685B68022B07D15D4BD9
:102620001B6803F40033002B15D10123ACE07B6859
:102630005B68002B07D1574B1B6803F00203002B8C
:1026400009D10123A0E0534B1B6803F48063002BE6
:1026500001D1012398E000F0A7F802464E4B9A42C0
:1026600009D94C4B9B6823F0F0034A4A43F080039E
:10267000936080237B61474B9B6823F003027B6858
:102680005B68444913438B60FEF78AF938610AE0BE
:10269000FEF786F902463B69D31A41F2883293422B
:1026A00001D9032370E03B4B9B6803F00C027B686D
:1026B0005B689B009A42EBD17B681B6803F00203C6
:1026C000002B09D0334B9B6823F0F0027B689B689A
:1026D000304913438B6008E07B69802B05D12D4B7B
:1026E0009B682C4A23F0F0039360294B1B6803F08E
:1026F0000F033A689A4210D2254B1B6823F00F0251
:1027000023493B6813430B60214B1B6803F00F0305
:102710003A689A4201D0012336E07B681B6803F0D7
:102720000403002B08D01B4B9B6823F4E0627B68FA
:10273000DB68184913438B607B681B6803F0080350
:10274000002B09D0134B9B6823F460527B681B69F4
:10275000DB00104913438B6000F026F801460D4B57
:102760009B681B0903F00F030C4AD35C03F01F03A3
:1027700021FA03F30A4A13600A4B1B681846FEF756
:10278000C3F80346FB73FB7B18461837BD4680BD74
:10279000002002400010024000B4C404DC520008D3
:1027A000140000201800002080B489B000AF00237E
:1027B000FB610023BB613D4B9B6803F00C033B6155
:1027C0003A4BDB6803F00303FB603B69002B05D049
:1027D0003B690C2B21D1FB68012B1ED1334B1B68AD
:1027E00003F00803002B07D1304BD3F894301B0AB9
:1027F00003F00F03FB6105E02C4B1B681B0903F082
:102800000F03FB612A4AFB6952F82330FB613B69E5
:10281000002B0DD1FB69BB610AE03B69042B02D19F
:10282000244BBB6104E03B69082B01D1224BBB6107
:102830003B690C2B34D11D4BDB6803F00303BB60F9
:10284000BB68022B03D0BB68032B03D005E0194BF8
:102850007B6105E0184B7B6102E0FB697B6100BF97
:10286000124BDB681B0903F00F0301337B600F4B36
:10287000DB681B0A03F07F037A6902FB03F27B68C3
:10288000B2FBF3F37B61094BDB685B0E03F00303E0
:1028900001335B003B607A693B68B2FBF3F3BB61D9
:1028A000BB6918462437BD4680BC70470010024003
:1028B000F45200080024F40000127A0080B400AF43
:1028C000024B1B681846BD4680BC704714000020B0
:1028D00080B500AFFFF7F2FF0146064B9B681B0A6D
:1028E00003F00703044AD35C03F01F0321FA03F348
:1028F000184680BD00100240EC52000880B500AFC1
:10290000FFF7DCFF0146064B9B68DB0A03F0070379
:10291000044AD35C03F01F0321FA03F3184680BD79
:1029200000100240EC52000880B586B000AF78601D
:1029300000233B61274B9B6D03F08053002B03D09A
:10294000FFF7C2F9786114E0224B9B6D214A43F0F6
:10295000805393651F4B9B6D03F08053FB60FB68B6
:10296000FFF7B2F978611B4B9B6D1A4A23F0805335
:1029700093657B69B3F5007F0BD17B68802B13D9FE
:102980007B68A02B02D902233B610DE001233B6150
:102990000AE07B687F2B02D902233B6104E07B685D
:1029A000702B01D101233B610B4B1B6823F00F02FD
:1029B00009493B6913430B60074B1B6803F00F0386
:1029C0003A699A4201D0012300E0002318461837E3
:1029D000BD4680BD001002400020024080B487B098
:1029E00000AF00237B612D4BDB6803F00303012B59
:1029F00018D12A4B1B6803F00803002B07D1274B83
:102A0000D3F894301B0A03F00F037B6105E0234BDE
:102A10001B681B0903F00F037B61214A7B6952F895
:102A200023307B611D4BDB6803F00303FB60FB6815
:102A3000022B03D0FB68032B03D005E0194B3B614D
:102A400005E0194B3B6102E07B693B6100BF134B22
:102A5000DB681B0903F00F030133BB600F4BDB681E
:102A60001B0A03F07F033A6902FB03F2BB68B2FB67
:102A7000F3F33B61094BDB685B0E03F003030133A7
:102A80005B007B603A697B68B2FBF3F33B603B68B9
:102A900018461C37BD4680BC704700BF001002407E
:102AA000F45200080024F40000127A0080B582B0CD
:102AB00000AF78607B68002B01D1012342E07B6886
:102AC000D3F88030002B06D17B68002283F87C206D
:102AD0007868FDF727FE7B682422C3F880207B6896
:102AE0001B681A687B681B6822F001021A6078680C
:102AF00000F056FA0346012B01D1012322E07B6846
:102B00009B6A002B02D0786801F040FC7B681B6850
:102B10005A687B681B6822F490425A607B681B6885
:102B20009A687B681B6822F02A029A607B681B689F
:102B30001A687B681B6842F001021A60786801F02D
:102B4000C6FC034618460837BD4680BD80B58AB02E
:102B500002AFF860B9603B601346FB80FB68D3F8B6
:102B60008030202B40F08480BB68002B02D0FB8893
:102B7000002B01D101237CE0FB6893F87C30012B12
:102B800001D1022375E0FB68012283F87C20FB68F9
:102B90000022C3F88820FB682122C3F88020FDF7BB
:102BA000FFFE7861FB68FA88A3F85420FB68FA8876
:102BB000A3F85620FB689B68B3F5805F08D1FB68DB
:102BC0001B69002B04D10023FB61BB68BB6103E0E0
:102BD000BB68FB610023BB61FB68002283F87C209B
:102BE0002DE03B6800937B6900228021F86801F0AA
:102BF000B6FC0346002B01D003233AE0FB69002B0F
:102C00000BD1BB691A88FB681B68C2F3080292B239
:102C10001A85BB690233BB6108E0FB691A78FB685F
:102C20001B6892B21A85FB690133FB61FB68B3F83C
:102C300056309BB2013B9AB2FB68A3F85620FB6862
:102C4000B3F856309BB2002BCBD13B6800937B6925
:102C500000224021F86801F082FC0346002B01D0DD
:102C6000032306E0FB682022C3F88020002300E055
:102C7000022318462037BD4680BD000080B588B0CD
:102C800000AF78607B681B68DB69FB617B681B6851
:102C90001B68BB617B681B689B687B61FA6940F6B7
:102CA0000F0313403B613B69002B18D1FB6903F014
:102CB0002003002B13D0BB6903F02003002B04D1A9
:102CC0007B6903F08053002B09D07B68DB6E002BFF
:102CD00000F045817B68DB6E786898473FE13B698F
:102CE000002B00F0E8807A69A14B1340002B05D13E
:102CF000BA69A04B1340002B00F0DD80FB6903F0A4
:102D00000103002B10D0BB6903F48073002B0BD0A0
:102D10007B681B6801221A627B68D3F8883043F015
:102D200001027B68C3F88820FB6903F00203002BD3
:102D300010D07B6903F00103002B0BD07B681B686C
:102D400002221A627B68D3F8883043F004027B6861
:102D5000C3F88820FB6903F00403002B10D07B69C3
:102D600003F00103002B0BD07B681B6804221A625E
:102D70007B68D3F8883043F002027B68C3F8882070
:102D8000FB6903F00803002B15D0BB6903F0200397
:102D9000002B04D17A69764B1340002B0BD07B6853
:102DA0001B6808221A627B68D3F8883043F0080257
:102DB0007B68C3F88820FB6903F40063002B11D003
:102DC000BB6903F08063002B0CD07B681B684FF459
:102DD00000621A627B68D3F8883043F020027B6877
:102DE000C3F888207B68D3F88830002B00F0B980C6
:102DF000FB6903F02003002B11D0BB6903F0200313
:102E0000002B04D17B6903F08053002B07D07B6833
:102E1000DB6E002B03D07B68DB6E786898477B689D
:102E2000D3F88830FB607B681B689B6803F0400325
:102E3000402B04D0FB6803F02803002B31D07868C6
:102E400001F00DFC7B681B689B6803F04003402B7E
:102E500023D17B681B689A687B681B6822F040025C
:102E60009A607B689B6F002B13D07B689B6F424AF4
:102E70009A637B689B6F1846FEF736FD0346002B6E
:102E800017D07B689B6F9B6B7A68926F1046984750
:102E90000FE0786800F07BF80BE0786800F077F8D6
:102EA00007E0786800F073F87B680022C3F8882098
:102EB00057E000BF55E0FB6903F48013002B0DD0F1
:102EC0007B6903F48003002B08D07B681B684FF4F8
:102ED00080121A62786801F014FC45E0FB6903F087
:102EE0008003002B12D0BB6903F08003002B04D1B8
:102EF0007B6903F40003002B08D07B681B6F002B59
:102F000031D07B681B6F786898472CE0FB6903F031
:102F10004003002B08D0BB6903F04003002B03D013
:102F2000786801F0D4FB1FE0FB6903F40003002B79
:102F300008D0BB6903F08043002B03D0786801F010
:102F4000F2FB11E0FB6903F08073002B0CD0BB692E
:102F5000002B09DA786801F0DDFB00BF04E000BF58
:102F600002E000BF00E000BF2037BD4680BD00BFCB
:102F70000100001020010004A346000880B483B0C3
:102F800000AF786000BF0C37BD4680BC704780B48E
:102F900083B000AF786000BF0C37BD4680BC70477F
:102FA0002DE9F04F8DB000AFF86000237B62002365
:102FB00087F823300023FB61FB689A68FB681B6974
:102FC0001A43FB685B691A43FB68DB691343FB62C6
:102FD000FB685B6EFA6A1343FB62FB681B681A6846
:102FE000AA4B1340FA681268F96A0B431360FB6836
:102FF0001B685B6823F44051FB68DA68FB681B6858
:103000000A435A60FB689B69FB62FB681B68A04A25
:10301000934204D0FB681B6AFA6A1343FB62FB68A5
:103020001B689B6823F06E4323F43063FA681268D0
:10303000F96A0B439360FB681B68DB6A23F00F019E
:10304000FB685A6AFB681B680A43DA62FB681B6804
:10305000904A934227D1904BD3F8883003F0030372
:10306000032B1BD801A252F823F000BF7D300008CB
:103070008D3000088530000895300008012387F85E
:103080002B3016E1022387F82B3012E1042387F856
:103090002B300EE1082387F82B300AE1102387F844
:1030A0002B3000BF05E1FB681B687C4A934238D196
:1030B000794BD3F8883003F00C030C2B2CD801A2E9
:1030C00052F823F0F93000081931000819310008CE
:1030D00019310008093100081931000819310008B8
:1030E00019310008013100081931000819310008B0
:1030F0001931000811310008002387F82B30D8E07F
:10310000022387F82B30D4E0042387F82B30D0E05B
:10311000082387F82B30CCE0102387F82B3000BF32
:10312000C7E0FB681B685E4A934225D15A4BD3F82F
:10313000883003F03003102B11D0102B02D8002B55
:1031400005D014E0202B06D0302B0CD00FE000234C
:1031500087F82B30ADE0022387F82B30A9E0042359
:1031600087F82B30A5E0082387F82B30A1E0102347
:1031700087F82B3000BF9CE0FB681B68494A9342EC
:1031800025D1454BD3F8883003F0C003402B11D034
:10319000402B02D8002B05D014E0802B06D0C02B8A
:1031A0000CD00FE0002387F82B3082E0022387F851
:1031B0002B307EE0042387F82B307AE0082387F851
:1031C0002B3076E0102387F82B3000BF71E0FB68CE
:1031D0001B68354A934229D12F4BD3F8883003F42A
:1031E0004073B3F5807F14D0B3F5807F02D8002BF5
:1031F00007D016E0B3F5007F07D0B3F5407F0CD0C1
:103200000FE0002387F82B3053E0022387F82B30A0
:103210004FE0042387F82B304BE0082387F82B304E
:1032200047E0102387F82B3000BF42E0FB681B68A3
:10323000174A93423AD1184BD3F8883003F44063CD
:10324000B3F5806F14D0B3F5806F02D8002B07D090
:1032500016E0B3F5006F07D0B3F5406F0CD00FE068
:10326000002387F82B3024E0022387F82B3020E05E
:10327000042387F82B301CE0082387F82B3018E054
:10328000102387F82B3000BF13E000BFF369FFCF96
:10329000008000400038014000100240004400401F
:1032A00000480040004C004000500040102387F8C8
:1032B0002B30FB681B68864A934240F0258497F8C0
:1032C0002B30082B00F2738101A252F823F000BFCB
:1032D000F5320008AF35000897330008AF35000815
:1032E0002F340008AF350008AF350008AF350008AF
:1032F00001350008FFF7ECFA0246FB685B6A002B19
:1033000044D0FB685B6A012B3ED0FB685B6A022BF2
:1033100038D0FB685B6A032B32D0FB685B6A042BF6
:103320002CD0FB685B6A052B26D0FB685B6A062BFA
:1033300020D0FB685B6A072B1AD0FB685B6A082BFE
:1033400014D0FB685B6A092B0ED0FB685B6A0A2B02
:1033500008D0FB685B6A0B2B02D14FF4807316E038
:10336000012314E0802312E0402310E020230EE02C
:1033700010230CE00C230AE00A2308E0082306E0EF
:10338000062304E0042302E0022300E00123B2FB51
:10339000F3F3FB610FE1FB685B6A002B44D0FB6831
:1033A0005B6A012B3ED0FB685B6A022B38D0FB685E
:1033B0005B6A032B32D0FB685B6A042B2CD0FB6862
:1033C0005B6A052B26D0FB685B6A062B20D0FB6866
:1033D0005B6A072B1AD0FB685B6A082B14D0FB686A
:1033E0005B6A092B0ED0FB685B6A0A2B08D0FB686E
:1033F0005B6A0B2B02D14FF2244316E0354B14E0ED
:10340000354B12E0354B10E0354B0EE0354B0CE000
:10341000354B0AE0354B08E0354B06E0354B04E010
:10342000354B02E0354B00E02A4BFB61C3E0FFF770
:10343000BBF90246FB685B6A002B44D0FB685B6A01
:10344000012B3ED0FB685B6A022B38D0FB685B6ABD
:10345000032B32D0FB685B6A042B2CD0FB685B6AC1
:10346000052B26D0FB685B6A062B20D0FB685B6AC5
:10347000072B1AD0FB685B6A082B14D0FB685B6AC9
:10348000092B0ED0FB685B6A0A2B08D0FB685B6ACD
:103490000B2B02D14FF4807316E0012314E080233C
:1034A00012E0402310E020230EE010230CE00C2358
:1034B0000AE00A2308E0082306E0062304E00423C8
:1034C00002E0022300E00123B2FBF3F3FB6172E0B0
:1034D000008000400024F40048E8010090D0030080
:1034E00020A1070040420F0055581400006A180040
:1034F00080841E00AAB0280000093D0000127A0056
:10350000FB685B6A002B4ED0FB685B6A012B47D0DF
:10351000FB685B6A022B40D0FB685B6A032B39D0E7
:10352000FB685B6A042B32D0FB685B6A052B2BD0EF
:10353000FB685B6A062B24D0FB685B6A072B1DD0F7
:10354000FB685B6A082B16D0FB685B6A092B0FD0FF
:10355000FB685B6A0A2B08D0FB685B6A0B2B01D106
:10356000802322E04FF400431FE04FF480731CE0FF
:103570004FF4007319E04FF4806316E04FF40063DA
:1035800013E040F6AA2310E040F6CC430DE04FF4E0
:1035900080530AE041F2555307E04FF4005304E032
:1035A0004FF4804301E04FF40043FB6103E001234B
:1035B00087F8233000BFFB69002B00F0BC86FB6856
:1035C0005A6813465B001344FA699A4205D3FB68B4
:1035D0005B681B03FA699A4204D9012387F82330F8
:1035E00000F0A9BE97F82B30082B00F2768201A2DA
:1035F00052F823F019360008DB3A00085937000862
:10360000DB3A00084F380008DB3A0008DB3A0008D4
:10361000DB3A00088D390008FFF75AF9B861BB6939
:1036200018464FF00001FB685B6A002B67D0FB680F
:103630005B6A012B5ED0FB685B6A022B55D0FB688E
:103640005B6A032B4CD0FB685B6A042B43D0FB689E
:103650005B6A052B3AD0FB685B6A062B31D0FB68AE
:103660005B6A072B28D0FB685B6A082B1FD0FB68BE
:103670005B6A092B16D0FB685B6A0A2B0DD0FB68CE
:103680005B6A0B2B04D14FF480734FF000043AE0D7
:103690004FF001034FF0000435E04FF080034FF08E
:1036A000000430E04FF040034FF000042BE04FF0F7
:1036B00020034FF0000426E04FF010034FF0000409
:1036C00021E04FF00C034FF000041CE04FF00A0320
:1036D0004FF0000417E04FF008034FF0000412E031
:1036E0004FF006034FF000040DE04FF004034FF0DD
:1036F000000408E04FF002034FF0000403E04FF035
:1037000001034FF000041A462346FCF759FD034617
:103710000C46194622464FF000034FF000041402F5
:1037200044EA11640B02FA685268520811464FF0DD
:1037300000025818386044EB02037B60FB685B684A
:103740004FF000041A462346D7E90001FCF738FD84
:1037500003460C467B62C4E1FB685B6A002B5BD0CE
:10376000FB685B6A012B53D0FB685B6A022B4BD072
:10377000FB685B6A032B43D0FB685B6A042B3BD07E
:10378000FB685B6A052B33D0FB685B6A062B2BD08A
:10379000FB685B6A072B23D0FB685B6A082B1BD096
:1037A000FB685B6A092B13D0FB685B6A0A2B0BD0A2
:1037B000FB685B6A0B2B03D1AD4B4FF000042EE08E
:1037C000AC4B4FF000042AE0AB4B4FF0000426E076
:1037D000AA4B4FF0000422E0A94B4FF000041EE07A
:1037E000A84B4FF000041AE09DA4D4E9003416E081
:1037F000A54B4FF0000412E0A44B4FF000040EE084
:1038000099A4D4E900340AE0A14B4FF0000406E08B
:10381000A04B4FF0000402E0964B4FF00004FA6812
:103820005268520811464FF0000213EB010A44EBB4
:10383000020BFB685B684FF000041A4623465046B3
:103840005946FCF7BDFC03460C467B6249E1FEF796
:10385000ABFFB861BB6918464FF00001FB685B6ABB
:10386000002B67D0FB685B6A012B5ED0FB685B6A4C
:10387000022B55D0FB685B6A032B4CD0FB685B6A5C
:10388000042B43D0FB685B6A052B3AD0FB685B6A6C
:10389000062B31D0FB685B6A072B28D0FB685B6A7C
:1038A000082B1FD0FB685B6A092B16D0FB685B6A8C
:1038B0000A2B0DD0FB685B6A0B2B04D14FF480738D
:1038C0004FF000043AE04FF001034FF0000435E000
:1038D0004FF080034FF0000430E04FF040034FF012
:1038E00000042BE04FF020034FF0000426E04FF0DF
:1038F00010034FF0000421E04FF00C034FF00004E0
:103900001CE04FF00A034FF0000417E04FF00803EB
:103910004FF0000412E04FF006034FF000040DE0FA
:103920004FF004034FF0000408E04FF002034FF0A3
:10393000000403E04FF001034FF000041A46234651
:10394000FCF73EFC03460C46194622464FF00003A6
:103950004FF00004140244EA11640B02FA68526842
:10396000520811464FF0000213EB010844EB020924
:10397000FB685B684FF000041A4623464046494600
:10398000FCF71EFC03460C467B62AAE0FB685B6A00
:10399000002B00F08780FB685B6A012B5BD0FB6823
:1039A0005B6A022B52D0FB685B6A032B4AD0FB6830
:1039B0005B6A042B41D0FB685B6A052B39D0FB683E
:1039C0005B6A062B31D0FB685B6A072B28D0FB684B
:1039D0005B6A082B1FD0FB685B6A092B16D0FB685B
:1039E0005B6A0A2B0DD0FB685B6A0B2B04D14FF48A
:1039F00000434FF0000459E04FF400034FF000047F
:103A000054E04FF480334FF000044FE04FF40033A4
:103A10004FF000044AE04FF480234FF0000445E0EB
:103A20004FF400234FF0000440E01B4B4FF0000424
:103A30003CE01A4B4FF0000438E04FF480134FF095
:103A4000000433E0164B4FF000042FE04FF4001356
:103A50004FF000042AE04FF480034FF0000425E00B
:103A6000005558140000000000AAB0280000000013
:103A70000024F400000024F40048E8010090D00382
:103A80000020A1070040420F00006A180080841E39
:103A90000000093D0000127A00AA0A0000CC0C00C8
:103AA000005515004FF400034FF00004FA68526807
:103AB000520811464FF000025D1844EB0206FB6805
:103AC0005B684FF000041A46234628463146FCF74F
:103AD00077FB03460C467B6203E0012387F8233023
:103AE00000BF7B6AB3F5407F09D37B6AB3F5801FC3
:103AF00005D2FB681B687A6ADA6000F01CBC0123FF
:103B000087F8233000F017BCFB68DB69B3F5004F82
:103B100040F0058297F82B30082B00F2DE8101A2DD
:103B200052F823F0493B0008013C0008B93C00086A
:103B3000DB3E0008613D0008DB3E0008DB3E00087C
:103B4000DB3E0008193E0008FEF7C2FEB861FB68C4
:103B50005B6A002B44D0FB685B6A012B3ED0FB689C
:103B60005B6A022B38D0FB685B6A032B32D0FB68A0
:103B70005B6A042B2CD0FB685B6A052B26D0FB68A4
:103B80005B6A062B20D0FB685B6A072B1AD0FB68A8
:103B90005B6A082B14D0FB685B6A092B0ED0FB68AC
:103BA0005B6A0A2B08D0FB685B6A0B2B02D14FF4CF
:103BB000807316E0012314E0802312E0402310E01C
:103BC00020230EE010230CE00C230AE00A2308E077
:103BD000082306E0062304E0042302E0022300E0B9
:103BE0000123BA69B2FBF3F35A00FB685B685B0818
:103BF0001A44FB685B68B2FBF3F39BB27B6270E133
:103C0000FEF77CFEB861FB685B6A002B44D0FB6862
:103C10005B6A012B3ED0FB685B6A022B38D0FB68E5
:103C20005B6A032B32D0FB685B6A042B2CD0FB68E9
:103C30005B6A052B26D0FB685B6A062B20D0FB68ED
:103C40005B6A072B1AD0FB685B6A082B14D0FB68F1
:103C50005B6A092B0ED0FB685B6A0A2B08D0FB68F5
:103C60005B6A0B2B02D14FF4807316E0012314E042
:103C7000802312E0402310E020230EE010230CE00C
:103C80000C230AE00A2308E0082306E0062304E0E8
:103C9000042302E0022300E00123BA69B2FBF3F33C
:103CA0005A00FB685B685B081A44FB685B68B2FB00
:103CB000F3F39BB27B6214E1FB685B6A002B43D099
:103CC000FB685B6A012B3DD0FB685B6A022B37D037
:103CD000FB685B6A032B31D0FB685B6A042B2BD03B
:103CE000FB685B6A052B25D0FB685B6A062B1FD03F
:103CF000FB685B6A072B19D0FB685B6A082B13D043
:103D0000FB685B6A092B0DD0FB685B6A0A2B07D046
:103D1000FB685B6A0B2B01D18E4B16E08E4B14E0D7
:103D20008E4B12E08E4B10E08E4B0EE08E4B0CE073
:103D30008E4B0AE08E4B08E08E4B06E08E4B04E083
:103D40008E4B02E08E4B00E0834BFA6852685208BB
:103D50001A44FB685B68B2FBF3F39BB27B62C0E082
:103D6000FEF722FDB861FB685B6A002B44D0FB685C
:103D70005B6A012B3ED0FB685B6A022B38D0FB6884
:103D80005B6A032B32D0FB685B6A042B2CD0FB6888
:103D90005B6A052B26D0FB685B6A062B20D0FB688C
:103DA0005B6A072B1AD0FB685B6A082B14D0FB6890
:103DB0005B6A092B0ED0FB685B6A0A2B08D0FB6894
:103DC0005B6A0B2B02D14FF4807316E0012314E0E1
:103DD000802312E0402310E020230EE010230CE0AB
:103DE0000C230AE00A2308E0082306E0062304E087
:103DF000042302E0022300E00123BA69B2FBF3F3DB
:103E00005A00FB685B685B081A44FB685B68B2FB9E
:103E1000F3F39BB27B6264E0FB685B6A002B4FD0DC
:103E2000FB685B6A012B48D0FB685B6A022B41D0C0
:103E3000FB685B6A032B3AD0FB685B6A042B33D0C8
:103E4000FB685B6A052B2CD0FB685B6A062B25D0D0
:103E5000FB685B6A072B1ED0FB685B6A082B17D0D8
:103E6000FB685B6A092B10D0FB685B6A0A2B09D0E0
:103E7000FB685B6A0B2B02D14FF4807322E04FF496
:103E800080331FE04FF400731CE04FF4806319E0AF
:103E90004FF4006316E04FF4805313E041F25453A3
:103EA00010E041F698130DE04FF400530AE042F69B
:103EB000AA2307E04FF4804304E04FF4004301E0FD
:103EC0004FF48033FA68526852081A44FB685B6802
:103ED000B2FBF3F39BB27B6203E0012387F823304C
:103EE00000BF7B6A0F2B16D97B6AB3F5803F12D2D5
:103EF0007B6A9BB223F00F03FB827B6A5B089BB259
:103F000003F007039AB2FB8A1343FB82FB681B682A
:103F1000FA8ADA600FE2012387F823300BE297F880
:103F20002B30082B00F2F48101A252F823F000BFDD
:103F3000853F00083B400008F1400008114300089D
:103F40009B41000811430008114300081143000879
:103F50005142000848E801000048E80190D0030001
:103F600020A1070040420F0080841E00AAB0280054
:103F700000D4300000093D005461510000127A0065
:103F80000024F400FEF7A4FCB861FB685B6A002B18
:103F900044D0FB685B6A012B3ED0FB685B6A022B56
:103FA00038D0FB685B6A032B32D0FB685B6A042B5A
:103FB0002CD0FB685B6A052B26D0FB685B6A062B5E
:103FC00020D0FB685B6A072B1AD0FB685B6A082B62
:103FD00014D0FB685B6A092B0ED0FB685B6A0A2B66
:103FE00008D0FB685B6A0B2B02D14FF4807316E09C
:103FF000012314E0802312E0402310E020230EE090
:1040000010230CE00C230AE00A2308E0082306E052
:10401000062304E0042302E0022300E00123BA693E
:10402000B2FBF3F2FB685B685B081A44FB685B68F1
:10403000B2FBF3F39BB27B626EE1FEF75FFCB8610B
:10404000FB685B6A002B44D0FB685B6A012B3ED0A7
:10405000FB685B6A022B38D0FB685B6A032B32D0AB
:10406000FB685B6A042B2CD0FB685B6A052B26D0AF
:10407000FB685B6A062B20D0FB685B6A072B1AD0B3
:10408000FB685B6A082B14D0FB685B6A092B0ED0B7
:10409000FB685B6A0A2B08D0FB685B6A0B2B02D1BA
:1040A0004FF4807316E0012314E0802312E04023D4
:1040B00010E020230EE010230CE00C230AE00A237A
:1040C00008E0082306E0062304E0042302E00223BC
:1040D00000E00123BA69B2FBF3F2FB685B685B089E
:1040E0001A44FB685B68B2FBF3F39BB27B6213E19B
:1040F000FB685B6A002B44D0FB685B6A012B3ED0F7
:10410000FB685B6A022B38D0FB685B6A032B32D0FA
:10411000FB685B6A042B2CD0FB685B6A052B26D0FE
:10412000FB685B6A062B20D0FB685B6A072B1AD002
:10413000FB685B6A082B14D0FB685B6A092B0ED006
:10414000FB685B6A0A2B08D0FB685B6A0B2B02D109
:104150004FF2244316E0824B14E0824B12E0824B74
:1041600010E0824B0EE0824B0CE0824B0AE0824B67
:1041700008E0824B06E0824B04E0824B02E0824B77
:1041800000E0774BFA68526852081A44FB685B6893
:10419000B2FBF3F39BB27B62BEE0FEF705FBB861B6
:1041A000FB685B6A002B44D0FB685B6A012B3ED046
:1041B000FB685B6A022B38D0FB685B6A032B32D04A
:1041C000FB685B6A042B2CD0FB685B6A052B26D04E
:1041D000FB685B6A062B20D0FB685B6A072B1AD052
:1041E000FB685B6A082B14D0FB685B6A092B0ED056
:1041F000FB685B6A0A2B08D0FB685B6A0B2B02D159
:104200004FF4807316E0012314E0802312E0402372
:1042100010E020230EE010230CE00C230AE00A2318
:1042200008E0082306E0062304E0042302E002235A
:1042300000E00123BA69B2FBF3F2FB685B685B083C
:104240001A44FB685B68B2FBF3F39BB27B6263E0EA
:10425000FB685B6A002B4ED0FB685B6A012B47D082
:10426000FB685B6A022B40D0FB685B6A032B39D08A
:10427000FB685B6A042B32D0FB685B6A052B2BD092
:10428000FB685B6A062B24D0FB685B6A072B1DD09A
:10429000FB685B6A082B16D0FB685B6A092B0FD0A2
:1042A000FB685B6A0A2B08D0FB685B6A0B2B01D1A9
:1042B000802322E04FF400431FE04FF480731CE0A2
:1042C0004FF4007319E04FF4806316E04FF400637D
:1042D00013E040F6AA2310E040F6CC430DE04FF483
:1042E00080530AE041F2555307E04FF4005304E0D5
:1042F0004FF4804301E04FF40043FA6852685208DB
:104300001A44FB685B68B2FBF3F39BB27B6203E089
:10431000012387F8233000BF7B6A0F2B08D97B6A03
:10432000B3F5803F04D2FB681B687A6ADA6002E06A
:10433000012387F82330FB680122A3F86A20FB6879
:104340000122A3F86820FB680022DA66FB680022DD
:104350001A6797F8233018463437BD46BDE8F08F0A
:104360000024F40048E8010090D0030020A10700D9
:1043700040420F0055581400006A180080841E0047
:10438000AAB0280000093D0000127A0080B483B072
:1043900000AF78607B689B6A03F00103002B0AD0B2
:1043A0007B681B685B6823F400317B68DA6A7B6892
:1043B0001B680A435A607B689B6A03F00203002B68
:1043C0000AD07B681B685B6823F480317B681A6BBA
:1043D0007B681B680A435A607B689B6A03F004038E
:1043E000002B0AD07B681B685B6823F480217B6804
:1043F0005A6B7B681B680A435A607B689B6A03F0B0
:104400000803002B0AD07B681B685B6823F400411B
:104410007B689A6B7B681B680A435A607B689B6A5F
:1044200003F01003002B0AD07B681B689B6823F401
:1044300080517B68DA6B7B681B680A439A607B68F3
:104440009B6A03F02003002B0AD07B681B689B68E3
:1044500023F400517B681A6C7B681B680A439A60DE
:104460007B689B6A03F04003002B1AD07B681B68B3
:104470005B6823F480117B685A6C7B681B680A4375
:104480005A607B685B6CB3F5801F0AD17B681B6840
:104490005B6823F4C0017B689A6C7B681B680A43E5
:1044A0005A607B689B6A03F08003002B0AD07B680C
:1044B0001B685B6823F400217B68DA6C7B681B68EF
:1044C0000A435A6000BF0C37BD4680BC704780B5B8
:1044D00086B002AF78607B680022C3F88820FCF7C2
:1044E0005FFAF8607B681B681B6803F00803082B01
:1044F0000ED16FF07E430093FB6800224FF4001151
:10450000786800F02CF80346002B01D0032322E04A
:104510007B681B681B6803F00403042B0ED16FF04B
:104520007E430093FB6800224FF48001786800F01E
:1045300016F80346002B01D003230CE07B682022F1
:10454000C3F880207B682022C3F884207B68002287
:1045500083F87C20002318461037BD4680BD80B507
:1045600084B000AFF860B9603B601346FB7162E055
:10457000BB69B3F1FF3F5ED0FCF712FA02463B681D
:10458000D31ABA699A4202D3BB69002B1DD1FB68CA
:104590001B681A68FB681B6822F4D0721A60FB68FB
:1045A0001B689A68FB681B6822F001029A60FB682E
:1045B0002022C3F88020FB682022C3F88420FB68F7
:1045C000002283F87C20032345E0FB681B681B68FE
:1045D00003F00403002B2ED0FB681B68DB6903F497
:1045E0000063B3F5006F26D1FB681B684FF40062CF
:1045F0001A62FB681B681A68FB681B6822F4D07299
:104600001A60FB681B689A68FB681B6822F001024D
:104610009A60FB682022C3F88020FB682022C3F840
:104620008420FB682022C3F88820FB68002283F8DE
:104630007C2003230FE0FB681B68DA69BB6813402A
:10464000BA689A420CBF01230023DBB21A46FB79F9
:104650009A428DD0002318461037BD4680BD80B4E5
:1046600083B000AF78607B681B681A687B681B6842
:1046700022F490721A607B681B689B687A681268E3
:1046800023F0805323F0010393607B682022C3F85A
:1046900084207B680022DA6600BF0C37BD4680BCF0
:1046A000704780B584B000AF78607B689B6AFB6020
:1046B000FB680022A3F85E20FB680022A3F85620C6
:1046C000F868FEF764FC00BF1037BD4680BD80B5BA
:1046D00082B000AF78607B681B681A687B681B68D3
:1046E00022F040021A607B682022C3F880207B6899
:1046F00000221A677868FEF741FC00BF0837BD4604
:1047000080BD80B483B000AF786000BF0C37BD4679
:1047100080BC704780B483B000AF786000BF0C37B6
:10472000BD4680BC704780B483B000AF786000BFE6
:104730000C37BD4680BC70472DE9F047089E044603
:104740008846002B40F085808A42154648D9B2FA47
:1047500082F24AB1C2F1200701FA02F320FA07F708
:10476000954047EA030894404FEA154E230CB8FBE6
:10477000FEF71FFA85FC0EFB178843EA084307FB88
:104780000CF1994209D9EB1807F1FF3080F0E38072
:10479000994240F2E080023F2B445B1AA4B2B3FB83
:1047A000FEF00EFB103344EA034400FB0CFCA4456E
:1047B00009D92C1900F1FF3380F0CB80A44540F2D9
:1047C000C88002382C4440EA0740A4EB0C040027C0
:1047D0001EB1D4400023C6E900433946BDE8F08746
:1047E000002A53D0B2FA82F2002A40F0B680491B68
:1047F0004FEA154E1FFA85F80127B1FBFEFC230C8A
:104800000EFB1C1143EA014308FB0CF1994207D946
:10481000EB180CF1FF3002D2994200F2EC80844692
:10482000591AA3B2B1FBFEF00EFB101443EA044484
:1048300008FB00F8A04507D92C1900F1FF3302D27C
:10484000A04500F2DC801846A4EB080440EA0C40C6
:10485000BEE78B4208D9002E78D00027C6E90001B8
:1048600038463946BDE8F087B3FA83F77FB98B4203
:1048700002D3824200F2BD80841A61EB030301205F
:104880009846002EA9D0C6E90048A6E7FFDEC7F18A
:104890002005BB4022FA05FC4CEA030C01FA07F4A0
:1048A00020FA05F821FA05F34FEA1C4E48EA040401
:1048B000B3FBFEF9210C0EFB19331FFA8CF841EA09
:1048C000034309FB08FA9A4502FA07F200FA07F1D6
:1048D0000BD91CEB030309F1FF3080F088809A4567
:1048E00040F28580A9F102096344A3EB0A03A4B254
:1048F000B3FBFEF00EFB103344EA034400FB08F860
:10490000A04508D91CEB040400F1FF336BD2A0458D
:1049100069D90238644440EA0940A4EB0804A0FBCA
:1049200002894C45C6464B4654D351D0002E69D01F
:10493000B1EB0E0264EB030404FA05F522FA07F367
:10494000FC401D43C6E90054002746E73746304681
:1049500043E7184637E707461FE7C2F1200320FA6E
:1049600003F7954001FA02F021FA03F34FEA154EDE
:104970003843010CB3FBFEF71FFA85F80EFB173323
:1049800041EA034107FB08F38B4204FA02F407D91A
:10499000691807F1FF3C28D28B4226D9023F2944EF
:1049A000CB1A81B2B3FBFEF00EFB103341EA034198
:1049B00000FB08F38B4207D9691800F1FF3C10D2C5
:1049C0008B420ED902382944C91A40EA074714E736
:1049D0004145ABD2B8EB020E69EB0C02013813462D
:1049E000A4E76046F0E7184695E76746D8E78146B2
:1049F0007BE7384645E7ACF1020C2B4410E7023860
:104A00002C4421E73746E8E6014B1868704700BFA1
:104A10002000002070B50D4D0D4C641BA410002625
:104A2000A64209D10B4D0C4C00F03AFC641BA410BB
:104A30000026A64205D170BD55F8043B98470136C3
:104A4000EEE755F8043B98470136F2E7605300085B
:104A50006053000860530008645300080244034692
:104A6000934200D1704703F8011BF9E70EB400B57B
:104A70009CB01DAB029006906FF000410948079171
:104A80000491094953F8042B05910068019302A988
:104A900000F068F8029B00221A701CB05DF804EB6D
:104AA00003B07047200000200802FFFF2DE9F04707
:104AB0008E689E4282460C469146984638D8B1F898
:104AC0000CC01CF4906F31D062692568096902EB53
:104AD00042026F1A02EBD272013355103B449D42E1
:104AE00038BF1D461CF4806F30D0294600F032FBE1
:104AF000064650B90C23CAF80030A38943F040039E
:104B0000A3814FF0FF30BDE8F0873A46216900F0FD
:104B1000ABFAA38923F4906343F08003A381266159
:104B200065613E44ED1B2660A5604646464500D9BA
:104B3000464632464946206800F0A4FAA3689B1B0B
:104B4000A36023681E4426600020DCE72A4600F0AC
:104B50005BFB06460028E2D12169504600F0ACFA22
:104B6000C8E700002DE9F04F1E468B891B069DB05B
:104B700007460D4614460ED50B6963B9402100F077
:104B8000E9FA2860286120B90C233B604FF0FF3020
:104B9000C9E040236B610023099320238DF829305D
:104BA000DFF89C91039630238DF82A304FF0010AEC
:104BB00023461E4613F8012B0AB1252AF9D1B6EB7C
:104BC000040B0BD05B46224629463846FFF76EFFA2
:104BD000013000F0A380099B5B4409933378002BDC
:104BE00000F09C8000234FF0FF32CDE90523013611
:104BF000049307938DF853301A933446052214F822
:104C0000011B4F48FBF704FB049BC0B9D90644BF06
:104C100020228DF853201A0744BF2B228DF85320F1
:104C200032782A2A13D0079A344600200A262146D1
:104C300011F8013B303B092B4BD970B914E0A0EBC4
:104C400009000AFA00F0184304902646D5E7039AB3
:104C5000111D12680391002A01DB079204E0524201
:104C600043F002030792049323782E2B0CD1637830
:104C70002A2B33D1039B1A1D1B680392002BB8BF4C
:104C80004FF0FF33023405932E4E21780322304635
:104C9000FBF7BEFA38B14023801B03FA00F0049BF7
:104CA00003430134049314F8011B27488DF828109E
:104CB0000622FBF7ADFA002838D0244B13BB039B28
:104CC000073323F0070308330393099B43440993F5
:104CD0006EE706FB023201200C46A8E700230134F0
:104CE000059319460A26204610F8012B303A092A66
:104CF00003D9002BC8D00591C6E706FB012101238B
:104D00000446F0E703AB00932A46114B04A938464A
:104D1000AFF30080B0F1FF3F8046D6D1AB895B0690
:104D20003FF534AF09981DB0BDE8F08F03AB009399
:104D30002A46074B04A9384600F082F8EAE700BF8C
:104D4000245300082A5300082E53000800000000D6
:104D5000AD4A00082DE9F04791461F468A680B6965
:104D6000DDF820809342B8BF1346C9F8003091F8AF
:104D7000432006460C4612B10133C9F800302368BF
:104D8000990642BFD9F800300233C9F800302568CF
:104D900015F0060507D104F1190AE368D9F80020D7
:104DA0009B1AAB4228DC94F843302268003318BFCA
:104DB000012392062DD404F1430239463046C04700
:104DC000013020D02368E568D9F8002003F00603FD
:104DD000042B08BFAD1AA36822690CBF25EAE5754C
:104DE00000259342C4BF9B1AED184FF000091A34F6
:104DF0004D451AD1002008E001235246394630467D
:104E0000C047013003D14FF0FF30BDE8F0870135D6
:104E1000C3E7E1185A1C302081F84300224494F87B
:104E2000451082F843100233C5E701232246394674
:104E30003046C0470130E6D009F10109D8E700004B
:104E40002DE9F04306460C4601F14300097E85B08A
:104E50006E29984617460C9B00F0BA8024D8632927
:104E600039D00AD8002900F0C380582900F0918079
:104E700004F1420584F8421035E0642901D0692923
:104E8000F6D125681A6815F0800F02F104012CD0C4
:104E900012681960002A03DA2D23524284F8433045
:104EA000DFF8BCC10A233FE0732900F0A58008D8D1
:104EB0006F2921D07029DBD1226842F020022260C4
:104EC00003E0752918D07829D2D1782284F84520BA
:104ED000DFF890C161E01A68111D1960136884F849
:104EE000423004F14205012393E01268196015F085
:104EF000400F18BF12B2CDE7D4F800C01A681CF0FA
:104F0000800F02F104051D6001D0126803E01CF05F
:104F1000400FFAD01288DFF848C16F290CBF082370
:104F20000A23002184F843106568A560002DA2BF04
:104F3000216821F0040121600AB9002D46D0054600
:104F4000B2FBF3F103FB112E93421CF80EE005F8BF
:104F500001ED39D9082B0BD12368DA0708D523696D
:104F600062689A42DEBF302305F8013C05F1FF3547
:104F7000401B2061CDF800803B4603AA2146304605
:104F8000FFF7E8FE013049D14FF0FF3005B0BDE832
:104F9000F083DFF8CCC084F845101D68216855F80F
:104FA000042B1D600D060BD5CD0744BF41F0200139
:104FB00021601AB9236823F0200323601023B0E78F
:104FC0004B0648BF92B2EFE70A46B9E70546C1E78C
:104FD0001A68D4F800C06169151D1D601CF0800FAF
:104FE000136801D0196003E01CF0400FFAD019805B
:104FF000002323610546BDE71A68111D1960156875
:10500000626800212846FBF703F908B1401B606085
:1050100063682361002384F84330ABE723692A46A1
:1050200039463046C0470130AED023689B0713D4C1
:10503000E068039B9842B8BF1846A7E701234A4699
:1050400039463046C04701309ED00135E368039AA7
:105050009B1AAB42F2DCEBE7002504F11909F5E7F6
:1050600035530008465300080A44914200F1FF33CB
:1050700000D1704710B511F8014B03F8014F914270
:10508000F9D110BD884210B501EB020302D9834269
:105090001C4607D8421E994208D011F8014B02F86D
:1050A000014FF8E783189A1A9A4200D110BD14F8FC
:1050B000011D03F8011DF7E738B50546002945D065
:1050C00051F8043C0C1F002BB8BFE41800F0D2F8D4
:1050D0001F4A1368104633B9636014602846BDE860
:1050E000384000F0CDB8A3420CD921686218934231
:1050F00004BF1A685B68636004BF521822600460D2
:10510000ECE713465A680AB1A242FAD9196858184E
:10511000A0420BD120680144581882421960DDD1A9
:10512000106852685A6001441960D7E702D90C230D
:105130002B60D3E7206821188A4204BF11685268A7
:10514000626004BF091821605C60C7E738BD00BF1A
:10515000A8000020F8B5CD1C25F0030508350C2D5E
:1051600038BF0C25002D064601DBA94203D90C23CC
:1051700033600020F8BD00F07DF821490A6814462C
:105180009CB9204F3B6823B92146304600F062F8B5
:1051900038602946304600F05DF8431C23D10C23CB
:1051A0003360304600F06CF8E3E723685B1B17D4EC
:1051B0000B2B03D923601C44256004E06368A242E2
:1051C0000CBF0B605360304600F05AF804F10B003E
:1051D000231D20F00700C21ACCD01B1AA350C9E728
:1051E00022466468CCE7C41C24F00304A042E3D048
:1051F000211A304600F02EF80130DDD1CFE700BF94
:10520000A8000020AC000020F8B5074614460E4662
:1052100021B91146BDE8F840FFF79CBF22B9FFF75E
:105220004BFF25462846F8BD00F030F8A0420FD2CB
:1052300021463846FFF78EFF05460028F2D031465A
:105240002246FFF711FF31463846FFF735FFE9E701
:105250003546E7E738B5064C002305460846236087
:10526000FBF7E2FA431C02D1236803B12B6038BD7F
:10527000C4010020014800F011B800BFCC0100209B
:10528000014800F00CB800BFCC01002051F8043CEC
:10529000181F002BBCBF0B58C018704770477047D1
:1052A000F8B500BFF8BC08BC9E467047F8B500BF13
:0852B000F8BC08BC9E467047E3
:1052B80043414E207472616E736D69747465642025
:1052C8000D0A000043414E20726563656976656486
:1052D800200D0A0000000000000000000102030485
:1052E800060708090000000001020304A086010067
:1052F800400D0300801A060000350C0040420F00E4
:1053080080841E0000093D0000127A000024F40089
:1053180000366E010048E801006CDC02232D302BBA
:105328002000686C4C00656667454647003031329E
:1053380033343536373839414243444546003031F5
:105348003233343536373839616263646566000054
:08535800E0F3FF7F01000000FB
:08536000190300080000000021
:08536800F10200080000000042
:1053700048656C6C6F000000000000000000000039
:105380000000000000093D001000000001000000C6
:1053900024000020000000000000000000000000C9
:1053A00000000000000000000000000000000000FD
:1053B00000000000000000000000000000000000ED
:1053C00000000000000000000000000000000000DD
:1053D00000000000000000000000000000000000CD
:1053E00000000000000000000000000000000000BD
:0853F0000000000000000000B5
:040000050800033DAF
:00000001FF
