:020000040800F2
:1000000000000A203D0300088D0300088D0300084E
:100010008D0300088D0300088D0300080000000018
:100020000000000000000000000000008D03000838
:100030008D030008000000008D0300088F030008F6
:100040008D0300088D0300088D0300088D03000850
:100050008D0300088D0300088D0300088D03000840
:100060008D0300088D0300088D0300088D03000830
:100070008D0300088D0300088D0300088D03000820
:100080008D0300088D0300088D0300088D03000810
:100090008D0300088D0300088D0300088D03000800
:1000A0008D0300088D0300088D0300088D030008F0
:1000B0008D0300088D0300088D0300088D030008E0
:1000C0008D0300088D0300088D0300088D030008D0
:1000D0008D0300088D0300088D0300088D030008C0
:1000E0008D0300088D0300088D0300088D030008B0
:1000F0008D0300088D0300088D0300080000000038
:100100008D0300088D0300088D0300088D0300088F
:100110008D0300088D0300088D0300088D0300087F
:100120008D0300088D0300088D0300088D0300086F
:100130008D0300088D0300088D0300088D0300085F
:100140008D0300088D0300088D0300088D0300084F
:100150008D0300088D0300088D0300088D0300083F
:100160008D0300088D0300088D0300088D0300082F
:100170008D0300088D03000800000000000000004F
:100180008D0300088D0300088D0300088D0300080F
:100190008D0300088D03000800000000000000002F
:1001A00000000000000000008D0300088D0300081F
:1001B0008D0300088D0300088D0300080000000077
:1001C00053B94AB9002908BF00281CBF4FF0FF31BE
:1001D0004FF0FF3000F00CB8ADF1080C6DE904CE23
:1001E00003F0AAF8DDF804E0DDE9022304B070476B
:1001F000704700BF034613F8012B002AFBD1181AE1
:1002000001387047000000000000000000000000FE
:1002100001F0FF01102A2BDB10F0070F08D010F8B7
:10022000013B013A8B422DD010F0070F42B3F6D1BB
:10023000F0B441EA012141EA014122F007047FF0D4
:1002400000070023F0E80256083C85EA010586EA2B
:10025000010685FA47F5A3FA87F586FA47F6A5FA67
:1002600087F68EB9EED1F0BC01F0FF0102F0070273
:1002700032B110F8013B013A83EA010313B1F8D11E
:100280000020704701387047002D06BF35460338FF
:10029000073815F0010F07D1013015F4807F02BF38
:1002A000013015F4C03F0130F0BC0138704700BF89
:1002B0000348044B834202D0034B03B118477047F5
:1002C0007000002070000020000000000548064972
:1002D000091A891001EBD171491002D0034B03B107
:1002E00018477047700000207000002000000000D8
:1002F00010B5064C237843B9FFF7DAFF044B13B16E
:100300000448AFF300800123237010BD700000206B
:1003100000000000A03E000808B5054B1BB10549D0
:100320000548AFF30080BDE80840FFF7CFBF00BF2E
:100330000000000074000020A03E0008DFF834D068
:10034000002103E00C4B5B58435004310B480C4B2D
:1003500042189A42F6D30B4A02E0002342F8043BCB
:10036000094B9A42F9D300F0A9F903F053F900F0D0
:1003700017F8FEE700000A20903F00080000002068
:10038000700000207000002038010020FEE780B5DA
:1003900000AF00F011FA00F077FB00BF80BD000055
:1003A00080B59CB000AF00F0B5F907F12C034422F2
:1003B0000021184603F052F90223FB624FF48073C8
:1003C000BB634023FB6300237B6507F12C031846C6
:1003D00000F014FD0346002B01D000F0D9F807F11E
:1003E000180314220021184603F038F90F23BB61CB
:1003F0000123FB6190233B624FF480637B624FF4E7
:100400008063BB6207F118030021184601F0E4F88D
:100410000346002B01D000F0BBF801F093FA02462E
:10042000424BA3FB02239B09184600F004FB042067
:1004300000F00EFB00F086F83B1D1122002118464B
:1004400003F00CF901F0F4F902463B1D3849184657
:1004500003F00CF93B1D1846FFF7CCFE03469AB299
:10046000391D4FF0FF33334801F0B4FB3B1D11221F
:100470000021184603F0F2F801F064FA02463B1D31
:100480002D49184603F0F2F83B1D1846FFF7B2FE5F
:1004900003469AB2391D4FF0FF33264801F09AFB0C
:1004A0003B1D11220021184603F0D8F801F054FA40
:1004B00002463B1D2149184603F0D8F83B1D18465B
:1004C000FFF798FE03469AB2391D4FF0FF331948E3
:1004D00001F080FB3B1D11220021184603F0BEF8FD
:1004E00001F050FA02463B1D1549184603F0BEF8CC
:1004F0003B1D1846FFF77EFE03469AB2391D4FF0AA
:10050000FF330C4801F066FB4FF4FA7000F070F90D
:100510003B1D1846FFF76EFE03469AB2391D4FF099
:10052000FF33044801F056FBEEE700BFD34D6210E5
:10053000B83E000898000020C83E0008D83E0008D9
:10054000E83E000880B500AF0F4B104A1A600E4B12
:100550004FF4E1325A600C4B00229A600A4B0022A1
:10056000DA60094B00221A61074B00229A61064BA0
:100570000C225A61044801F0DDFA0346002B01D039
:1005800000F006F800BF80BD980000200048004041
:1005900080B400AFFEE7000080B500AF032000F09C
:1005A00015FA0D4B5B6A0C4A43F4E02353620022B8
:1005B00000216FF00B0000F014FA002200216FF010
:1005C0000A0000F00EFA002200216FF0090000F08E
:1005D00008FA00BF80BD00BF00ED00E080B58AB022
:1005E00000AF78601D4B9B6D1C4A43F480239365DC
:1005F0001A4B9B6D03F480233B613B69174BDB6C0B
:10060000164A43F00803D364144BDB6C03F0080371
:10061000FB60FB684FF480737B610223BB610023A6
:100620003B6207237B6207F1140319460C4800F074
:1006300037FA4FF400737B6107F114031946084839
:1006400000F02EFA272000F0E8F900220F212720E1
:1006500000F0C7F900BF2837BD4680BD001002403A
:10066000000C004880B584B000AF7860114B1B6867
:10067000002B02D10F4B104A1A600E4B1B68FB6017
:100680000C4B1A687B6813446A46934207D902F000
:10069000BBFF02460C2313604FF0FF3306E0054B0F
:1006A0001A687B681344034A1360FB6818461037C6
:1006B000BD4680BD8C0000203801002080B400AF12
:1006C000124B1B68114A43F0010313600F4B0022C9
:1006D0009A600E4B1B680D4A23F0A85323F4102395
:1006E00013600A4B4FF48052DA60084B1B68074ACC
:1006F00023F480231360054B00229A61044B4FF0D2
:1007000000629A6000BFBD4680BC70470010024086
:1007100000ED00E080B582B000AF0023FB71032044
:1007200000F054F9002000F00DF80346002B02D031
:100730000123FB7101E0FFF72FFFFB791846083713
:10074000BD4680BD80B584B000AF78600023FB73E8
:10075000164B1B68002B22D0154B1A68134B1B68D5
:100760004FF47A71B1FBF3F3B2FBF3F3184600F0E8
:1007700062F90346002B0FD17B680F2B09D80022AA
:1007800079684FF0FF3000F02CF90A4A7B6813605B
:1007900007E00123FB7304E00123FB7301E0012365
:1007A000FB73FB7B18461037BD4680BD0800002058
:1007B000000000200400002080B400AF054B1A6840
:1007C000054B1B681344034A136000BFBD4680BC41
:1007D000704700BF240100200800002080B400AF53
:1007E000024B1B681846BD4680BC704724010020A0
:1007F00080B584B000AF7860FFF7F0FFB8607B6829
:10080000FB60FB68B3F1FF3F04D0094B1B68FA683B
:100810001344FB6000BFFFF7E1FF0246BB68D31A39
:10082000FA689A42F7D800BF1037BD4680BD00BFB6
:100830000800002080B485B000AF78607B6803F0CA
:100840000703FB600C4BDB68BB60BA684FF6FF0325
:100850001340BB60FB681A02BB68134343F0BF63DD
:1008600043F40033BB60044ABB68D36000BF143755
:10087000BD4680BC704700BF00ED00E080B400AF13
:10088000044BDB681B0A03F007031846BD4680BC17
:10089000704700BF00ED00E080B483B000AF0346B6
:1008A000FB7197F90730002B0BDBFB7903F01F027C
:1008B000064997F907305B09012000FA02F241F876
:1008C000232000BF0C37BD4680BC704700E100E02C
:1008D00080B483B000AF03463960FB7197F90730ED
:1008E000002B0ADB3B68DAB20C4997F9073012019A
:1008F000D2B20B4483F800230AE03B68DAB208491D
:10090000FB7903F00F03043B1201D2B20B441A76B9
:1009100000BF0C37BD4680BC704700BF00E100E05F
:1009200000ED00E080B489B000AFF860B9607A6093
:10093000FB6803F00703FB61FB69C3F10703042BAA
:1009400028BF0423BB61FB690433062B02D9FB6972
:10095000033B00E000237B614FF0FF32BB6902FAEA
:1009600003F3DA43BB681A407B699A404FF0FF31CA
:100970007B6901FA03F3D9437B680B4013431846A4
:100980002437BD4680BC704780B582B000AF786028
:100990007B68013BB3F1807F01D301230FE00A4A5A
:1009A0007B68013B53600F214FF0FF30FFF790FF52
:1009B000054B00229A60044B07221A600023184658
:1009C0000837BD4680BD00BF10E000E080B582B0B2
:1009D00000AF78607868FFF72DFF00BF0837BD468D
:1009E00080BD80B586B000AF0346B9607A60FB7306
:1009F00000237B61FFF742FF78617A68B968786904
:100A0000FFF790FF024697F90F3011461846FFF79F
:100A10005FFF00BF1837BD4680BD80B582B000AF14
:100A20000346FB7197F907301846FFF735FF00BF03
:100A30000837BD4680BD80B582B000AF7860786869
:100A4000FFF7A2FF034618460837BD4680BD0000E9
:100A500080B483B000AF78607B68042B06D1094B6B
:100A60001B68084A43F00403136005E0054B1B684C
:100A7000044A23F00403136000BF0C37BD4680BC5A
:100A8000704700BF10E000E080B500AF00F002F852
:100A900000BF80BD80B400AF00BFBD4680BC7047C2
:100AA00080B487B000AF7860396000237B6166E175
:100AB0003B681A6801217B6901FA03F31340FB606C
:100AC000FB68002B00F058813B685B68022B03D069
:100AD0003B685B68122B23D17B69DA087B6808329C
:100AE00053F822303B617B6903F007039B000F2220
:100AF00002FA03F3DB433A6913403B613B681A692E
:100B00007B6903F007039B0002FA03F33A6913437E
:100B10003B617B69DA087B680832396943F8221047
:100B20007B681B683B617B695B00032202FA03F36D
:100B3000DB433A6913403B613B685B6803F00302A7
:100B40007B695B0002FA03F33A6913433B617B68FC
:100B50003A691A603B685B68012B0BD03B685B68A5
:100B6000022B07D03B685B68112B03D03B685B68A6
:100B7000122B30D17B689B683B617B695B00032251
:100B800002FA03F3DB433A6913403B613B68DA68DE
:100B90007B695B0002FA03F33A6913433B617B68AC
:100BA0003A699A607B685B683B6101227B6902FA63
:100BB00003F3DB433A6913403B613B685B681B0905
:100BC00003F001027B6902FA03F33A6913433B61C4
:100BD0007B683A695A607B68DB683B617B695B00D4
:100BE000032202FA03F3DB433A6913403B613B689B
:100BF0009A687B695B0002FA03F33A6913433B612D
:100C00007B683A69DA603B685B6803F08053002BCD
:100C100000F0B280604B1B6E5F4A43F00103136625
:100C20005D4B1B6E03F00103BB60BB685B4A7B69D5
:100C30009B08023352F823303B617B6903F00303C6
:100C40009B000F2202FA03F3DB433A6913403B6136
:100C50007B68B3F1904F2BD07B68514A934225D0EB
:100C60007B68504A93421FD07B684F4A934219D009
:100C70007B684E4A934213D07B684D4A93420DD015
:100C80007B684C4A934207D07B684B4A934201D120
:100C900007230EE008230CE006230AE0052308E002
:100CA000042306E0032304E0022302E0012300E022
:100CB00000237A6902F00302920093403A691343D9
:100CC0003B6136497B699B0802333A6941F823202E
:100CD0003A4B1B683B61FB68DB433A6913403B615D
:100CE0003B685B6803F48033002B03D03A69FB68F0
:100CF00013433B61314A3B691360304B5B683B6196
:100D0000FB68DB433A6913403B613B685B6803F473
:100D10000033002B03D03A69FB6813433B61274A39
:100D20003B695360254B9B683B61FB68DB433A6939
:100D300013403B613B685B6803F48013002B03D0D6
:100D40003A69FB6813433B611C4A3B6993601B4B48
:100D5000DB683B61FB68DB433A6913403B613B68FE
:100D60005B6803F40013002B03D03A69FB6813435C
:100D70003B61124A3B69D3607B6901337B613B680D
:100D80001A687B6922FA03F3002B7FF491AE00BF4F
:100D90001C37BD4680BC7047001002400000014077
:100DA0000004004800080048000C004800100048FB
:100DB0000014004800180048001C004800040140CE
:100DC00080B400AF0C4B1B6803F4C063B3F5806FB5
:100DD00002D14FF480630BE0074BD3F8803003F46B
:100DE0008073B3F5807F02D14FF4007300E00023DD
:100DF0001846BD4680BC70470070004080B588B082
:100E000000AF78607B68002B01D10123DBE3A44BAA
:100E10009B6803F00C03BB61A14BDB6803F0030389
:100E20007B617B681B6803F01003002B00F0E180FE
:100E3000BB69002B07D0BB690C2B40F088807B6915
:100E4000012B40F08480964B1B6803F00203002BBB
:100E500005D07B689B69002B01D10123B3E37B683C
:100E60001A6A8F4B1B6803F00803002B04D08C4BCD
:100E70001B6803F0F00305E0894BD3F894301B099D
:100E800003F0F003934223D27B681B6A184600F0FC
:100E90008FFD0346002B01D0012394E3804B1B6898
:100EA0007F4A43F0080313607D4B1B6823F0F00278
:100EB0007B681B6A7A4913430B60794B5B6823F4A8
:100EC0007F427B68DB691B02754913434B6022E05C
:100ED000734B1B68724A43F008031360704B1B6826
:100EE00023F0F0027B681B6A6D4913430B606C4B67
:100EF0005B6823F47F427B68DB691B02684913430C
:100F00004B607B681B6A184600F052FD0346002BBD
:100F100001D0012357E300F08BFC0146604B9B6836
:100F20001B0903F00F035F4AD35C03F01F0321FA90
:100F300003F35D4A13605D4B1B681846FFF702FC24
:100F40000346FB73FB7B002B52D0FB7B3BE37B68B0
:100F50009B69002B32D0524B1B68514A43F001036E
:100F60001360FFF73BFC386108E0FFF737FC0246EF
:100F70003B69D31A022B01D9032324E3484B1B6896
:100F800003F00203002BF0D0454B1B68444A43F0AA
:100F900008031360424B1B6823F0F0027B681B6A56
:100FA0003F4913430B603E4B5B6823F47F427B68F1
:100FB000DB691B023A4913434B601AE0384B1B684C
:100FC000374A23F001031360FFF708FC386108E09B
:100FD000FFF704FC02463B69D31A022B01D9032315
:100FE000F1E22F4B1B6803F00203002BF0D100E06D
:100FF00000BF7B681B6803F00103002B74D0BB6942
:10100000082B05D0BB690C2B0ED17B69032B0BD1B0
:10101000234B1B6803F40033002B64D07B685B68B0
:10102000002B60D10123CEE27B685B68B3F5803F83
:1010300006D11B4B1B681A4A43F4803313601DE032
:101040007B685B68B3F5A02F0CD1154B1B68144A65
:1010500043F480231360124B1B68114A43F480331E
:1010600013600BE00E4B1B680D4A23F480331360B2
:101070000B4B1B680A4A23F4802313607B685B6870
:10108000002B1CD0FFF7AAFB386111E0FFF7A6FB8D
:1010900002463B69D31A642B0AD9032393E200BFAB
:1010A00000100240F83E000800000020040000206C
:1010B000AE4B1B6803F40033002BE7D014E0FFF7BE
:1010C0008DFB386108E0FFF789FB02463B69D31AC4
:1010D000642B01D9032376E2A44B1B6803F400338D
:1010E000002BF0D100E000BF7B681B6803F0020317
:1010F000002B60D0BB69042B05D0BB690C2B19D128
:101100007B69022B16D1994B1B6803F48063002B7B
:1011100005D07B68DB68002B01D1012353E2934BA0
:101120005B6823F0FE427B681B691B068F491343F3
:101130004B6040E07B68DB68002B23D08B4B1B6847
:101140008A4A43F480731360FFF748FB386108E074
:10115000FFF744FB02463B69D31A022B01D9032354
:1011600031E2824B1B6803F48063002BF0D07F4B8D
:101170005B6823F0FE427B681B691B067B491343B7
:101180004B6018E0794B1B68784A23F48073136036
:10119000FFF724FB386108E0FFF720FB02463B69BC
:1011A000D31A022B01D903230DE2704B1B6803F401
:1011B0008063002BF0D17B681B6803F00803002BD1
:1011C0003CD07B685B69002B1CD0684BD3F8943013
:1011D000664A43F00103C2F89430FFF7FFFA386122
:1011E00008E0FFF7FBFA02463B69D31A022B01D94C
:1011F0000323E8E15D4BD3F8943003F00203002BA6
:10120000EFD01BE0594BD3F89430584A23F0010338
:10121000C2F89430FFF7E2FA386108E0FFF7DEFA2F
:1012200002463B69D31A022B01D90323CBE14F4B72
:10123000D3F8943003F00203002BEFD17B681B68D6
:1012400003F00403002B00F0A5800023FB77474B3D
:101250009B6D03F08053002B0DD1444B9B6D434A93
:1012600043F080539365414B9B6D03F08053BB600B
:10127000BB680123FB773E4B1B6803F48073002B94
:1012800018D13B4B1B683A4A43F480731360FFF755
:10129000A5FA386108E0FFF7A1FA02463B69D31AC4
:1012A000022B01D903238EE1314B1B6803F48073B9
:1012B000002BF0D07B689B68012B08D12B4BD3F817
:1012C00090302A4A43F00103C2F8903024E07B6852
:1012D0009B68052B10D1254BD3F89030234A43F05F
:1012E0000403C2F89030214BD3F890301F4A43F0EA
:1012F0000103C2F890300FE01C4BD3F890301B4A2A
:1013000023F00103C2F89030184BD3F89030174AFD
:1013100023F00403C2F890307B689B68002B16D042
:10132000FFF75CFA38610AE0FFF758FA02463B69BA
:10133000D31A41F28832934201D9032343E10B4B84
:10134000D3F8903003F00203002BEDD019E0FFF743
:1013500045FA38610EE0FFF741FA02463B69D31ABD
:1013600041F28832934205D903232CE10010024058
:1013700000700040964BD3F8903003F00203002B2E
:10138000E9D1FB7F012B05D1914B9B6D904A23F056
:10139000805393657B681B6803F02003002B3CD0CF
:1013A0007B685B6A002B1CD0894BD3F89830884A45
:1013B00043F00103C2F89830FFF710FA386108E0F3
:1013C000FFF70CFA02463B69D31A022B01D903231B
:1013D000F9E07F4BD3F8983003F00203002BEFD0F5
:1013E0001BE07B4BD3F89830794A23F00103C2F815
:1013F0009830FFF7F3F9386108E0FFF7EFF902469C
:101400003B69D31A022B01D90323DCE0704BD3F8DC
:10141000983003F00203002BEFD17B689B6A002B0E
:1014200000F0D080BB690C2B00F08D807B689B6A3C
:10143000022B5AD1664B1B68654A23F080731360F8
:10144000FFF7CCF9386108E0FFF7C8F902463B69BD
:10145000D31A022B01D90323B5E05D4B1B6803F0BF
:101460000073002BF0D15A4BDA685A4B13407A685C
:10147000D16A7A68126B013A120111437A68526B91
:10148000120211437A68D26B5208013A5205114395
:101490007A68126C5208013A520611437A68926BCC
:1014A000D2060A434A491343CB60494B1B68484A5A
:1014B00043F080731360464BDB68454A43F080730A
:1014C000D360FFF78BF9386108E0FFF787F9024630
:1014D0003B69D31A022B01D9032374E03C4B1B68F0
:1014E00003F00073002BF0D06CE0394B1B68384AD6
:1014F00023F080731360364B1B6803F02053002BDE
:1015000005D1334BDB68324A23F00303D360304B01
:10151000DB682F4A23F0887323F48033D360FFF70E
:101520005DF9386108E0FFF759F902463B69D31AC3
:10153000022B01D9032346E0254B1B6803F00073FF
:10154000002BF0D13EE07B689B6A012B01D1012387
:1015500039E01F4BDB687B617B6903F003027B682A
:10156000DB6A9A422CD17B6903F0F0027B681B6B2B
:10157000013B1B019A4223D17B6903F4FE427B6845
:101580005B6B1B029A421BD17B6903F078427B683C
:101590009B6BDB069A4213D17B6903F4C0027B6824
:1015A000DB6B5B08013B5B059A4209D17B6903F069
:1015B000C0627B681B6C5B08013B5B069A4201D0F2
:1015C000012300E0002318462037BD4680BD00BF40
:1015D000001002400C809D0180B586B000AF78609D
:1015E000396000237B617B68002B01D101230FE16F
:1015F000894B1B6803F00F033A689A4210D9864B57
:101600001B6823F00F0284493B6813430B60824B35
:101610001B6803F00F033A689A4201D00123F7E0F8
:101620007B681B6803F00103002B00F089807B6856
:101630005B68032B33D1794B1B6803F00073002BDD
:1016400001D10123E4E000F00DFA0246744B9A4206
:1016500055D9724B9B6803F0F003002B0AD16F4BF6
:101660009B6823F0F0036D4A43F08003936080236E
:101670007B6144E07B681B6803F00203002B3ED0D3
:101680007B689B68002B3AD1644B9B6823F0F00386
:10169000624A43F08003936080237B612FE07B6884
:1016A0005B68022B07D15D4B1B6803F40033002BF2
:1016B00015D10123ACE07B685B68002B07D1574B49
:1016C0001B6803F00203002B09D10123A0E0534B58
:1016D0001B6803F48063002B01D1012398E000F024
:1016E000A7F802464E4B9A4209D94C4B9B6823F00F
:1016F000F0034A4A43F08003936080237B61474BA9
:101700009B6823F003027B685B68444913438B604A
:10171000FFF764F838610AE0FFF760F802463B69BA
:10172000D31A41F28832934201D9032370E03B4B34
:101730009B6803F00C027B685B689B009A42EBD1CC
:101740007B681B6803F00203002B09D0334B9B68B6
:1017500023F0F0027B689B68304913438B6008E0FC
:101760007B69802B05D12D4B9B682C4A23F0F0031D
:101770009360294B1B6803F00F033A689A4210D21A
:10178000254B1B6823F00F0223493B6813430B6072
:10179000214B1B6803F00F033A689A4201D00123E2
:1017A00036E07B681B6803F00403002B08D01B4B5A
:1017B0009B6823F4E0627B68DB68184913438B6005
:1017C0007B681B6803F00803002B09D0134B9B6850
:1017D00023F460527B681B69DB00104913438B6064
:1017E00000F026F801460D4B9B681B0903F00F0320
:1017F0000C4AD35C03F01F0321FA03F30A4A136077
:101800000A4B1B681846FEF79DFF0346FB73FB7BE4
:1018100018461837BD4680BD002002400010024027
:1018200000B4C404F83E00080000002004000020BA
:1018300080B489B000AF0023FB610023BB613D4B46
:101840009B6803F00C033B613A4BDB6803F0030336
:10185000FB603B69002B05D03B690C2B21D1FB6859
:10186000012B1ED1334B1B6803F00803002B07D15B
:10187000304BD3F894301B0A03F00F03FB6105E0F3
:101880002C4B1B681B0903F00F03FB612A4AFB6901
:1018900052F82330FB613B69002B0DD1FB69BB6122
:1018A0000AE03B69042B02D1244BBB6104E03B6995
:1018B000082B01D1224BBB613B690C2B34D11D4B52
:1018C000DB6803F00303BB60BB68022B03D0BB687B
:1018D000032B03D005E0194B7B6105E0184B7B61BE
:1018E00002E0FB697B6100BF124BDB681B0903F060
:1018F0000F0301337B600F4BDB681B0A03F07F0390
:101900007A6902FB03F27B68B2FBF3F37B61094B5C
:10191000DB685B0E03F0030301335B003B607A6915
:101920003B68B2FBF3F3BB61BB6918462437BD4685
:1019300080BC704700100240103F00080024F400F3
:1019400000127A0080B400AF024B1B681846BD46F7
:1019500080BC70470000002080B500AFFFF7F2FFA9
:101960000146064B9B681B0A03F00703044AD35C3D
:1019700003F01F0321FA03F3184680BD0010024054
:10198000083F000880B500AFFFF7DCFF0146064BBB
:101990009B68DB0A03F00703044AD35C03F01F03D0
:1019A00021FA03F3184680BD00100240083F0008EA
:1019B00080B586B000AF786000233B61274B9B6DFC
:1019C00003F08053002B03D0FFF7FAF9786114E09D
:1019D000224B9B6D214A43F0805393651F4B9B6DB7
:1019E00003F08053FB60FB68FFF7EAF978611B4B5B
:1019F0009B6D1A4A23F0805393657B69B3F5007F92
:101A00000BD17B68802B13D97B68A02B02D90223D2
:101A10003B610DE001233B610AE07B687F2B02D92B
:101A200002233B6104E07B68702B01D101233B6101
:101A30000B4B1B6823F00F0209493B6913430B60F2
:101A4000074B1B6803F00F033A699A4201D0012348
:101A500000E0002318461837BD4680BD0010024044
:101A60000020024080B487B000AF00237B612D4B83
:101A7000DB6803F00303012B18D12A4B1B6803F02A
:101A80000803002B07D1274BD3F894301B0A03F02F
:101A90000F037B6105E0234B1B681B0903F00F0359
:101AA0007B61214A7B6952F823307B611D4BDB68E7
:101AB00003F00303FB60FB68022B03D0FB68032BDE
:101AC00003D005E0194B3B6105E0194B3B6102E097
:101AD0007B693B6100BF134BDB681B0903F00F03FD
:101AE0000133BB600F4BDB681B0A03F07F033A69CD
:101AF00002FB03F2BB68B2FBF3F33B61094BDB680B
:101B00005B0E03F0030301335B007B603A697B6883
:101B1000B2FBF3F33B603B6818461C37BD4680BC04
:101B2000704700BF00100240103F00080024F4007E
:101B300000127A0080B582B000AF78607B68002B1D
:101B400001D1012342E07B68D3F88030002B06D11D
:101B50007B68002283F87C207868FEF73FFD7B6875
:101B60002422C3F880207B681B681A687B681B6886
:101B700022F001021A60786800F0C6F80346012BD3
:101B800001D1012322E07B689B6A002B02D0786898
:101B900001F09EFA7B681B685A687B681B6822F418
:101BA00090425A607B681B689A687B681B6822F0C9
:101BB0002A029A607B681B681A687B681B6842F07F
:101BC00001021A60786801F024FB034618460837C2
:101BD000BD4680BD80B58AB002AFF860B9603B6099
:101BE0001346FB80FB68D3F88030202B40F08480C4
:101BF000BB68002B02D0FB88002B01D101237CE0C5
:101C0000FB6893F87C30012B01D1022375E0FB685F
:101C1000012283F87C20FB680022C3F88820FB683F
:101C20002122C3F88020FEF7D9FD7861FB68FA888D
:101C3000A3F85420FB68FA88A3F85620FB689B6839
:101C4000B3F5805F08D1FB681B69002B04D100232A
:101C5000FB61BB68BB6103E0BB68FB610023BB6148
:101C60002DE03B6800937B6900228021F86801F039
:101C700018FB0346002B01D003233EE0FB69002B39
:101C80000BD1BB691A88FB681B68C2F3080292B2C9
:101C90001A85BB690233BB6108E0FB691A78FB68EF
:101CA0001B6892B21A85FB690133FB61FB68B3F8CC
:101CB00056309BB2013B9AB2FB68A3F85620FB68F2
:101CC000B3F856309BB2002BCBD13B6800937B69B5
:101CD00000224021F86801F0E4FA0346002B01D00D
:101CE00003230AE0FB682022C3F88020FB6800225F
:101CF00083F87C20002300E0022318462037BD46ED
:101D000080BD0000000000002DE9F04F8BB000AF57
:101D1000F8600023FB610023FB7600237B61FB68F6
:101D20009A68FB681B691A43FB685B691A43FB6886
:101D3000DB6913437B62FB685B6E7A6A13437B62E9
:101D4000FB681B681A68AA4B1340FA681268796A24
:101D50000B431360FB681B685B6823F44051FB680E
:101D6000DA68FB681B680A435A60FB689B697B6200
:101D7000FB681B689F4A934204D0FB681B6A7A6A1F
:101D800013437B62FB681B689B6823F06E4323F45C
:101D90003063FA681268796A0B439360FB681B68CA
:101DA000DB6A23F00F01FB685A6AFB681B680A4371
:101DB000DA62FB681B68904A934226D18F4BD3F8B6
:101DC000883003F00303032B1AD801A252F823F042
:101DD000E11D0008F11D0008E91D0008F91D0008BB
:101DE000012387F8233016E1022387F8233012E11C
:101DF000042387F823300EE1082387F823300AE113
:101E0000102387F8233000BF05E1FB681B687C4A7C
:101E1000934238D1794BD3F8883003F00C030C2B64
:101E20002CD801A252F823F05D1E00087D1E000888
:101E30007D1E00087D1E00086D1E00087D1E000826
:101E40007D1E00087D1E0008651E00087D1E00081E
:101E50007D1E00087D1E0008751E0008002387F8FF
:101E60002330D8E0022387F82330D4E0042387F816
:101E70002330D0E0082387F82330CCE0102387F804
:101E8000233000BFC7E0FB681B685E4A934225D140
:101E90005A4BD3F8883003F03003102B11D0102B9D
:101EA00002D8002B05D014E0202B06D0302B0CD00C
:101EB0000FE0002387F82330ADE0022387F82330BA
:101EC000A9E0042387F82330A5E0082387F823300E
:101ED000A1E0102387F8233000BF9CE0FB681B685B
:101EE000494A934225D1454BD3F8883003F0C003CB
:101EF000402B11D0402B02D8002B05D014E0802BB2
:101F000006D0C02B0CD00FE0002387F8233082E0EE
:101F1000022387F823307EE0042387F823307AE019
:101F2000082387F8233076E0102387F8233000BF9A
:101F300071E0FB681B68354A934229D12F4BD3F8D7
:101F4000883003F44073B3F5807F14D0B3F5807FFD
:101F500002D8002B07D016E0B3F5007F07D0B3F509
:101F6000407F0CD00FE0002387F8233053E002239A
:101F700087F823304FE0042387F823304BE0082311
:101F800087F8233047E0102387F8233000BF42E072
:101F9000FB681B68174A93423AD1184BD3F8883034
:101FA00003F44063B3F5806F14D0B3F5806F02D8AB
:101FB000002B07D016E0B3F5006F07D0B3F5406FE4
:101FC0000CD00FE0002387F8233024E0022387F8A9
:101FD000233020E0042387F823301CE0082387F80F
:101FE000233018E0102387F8233000BF13E000BF30
:101FF000F369FFCF0080004000380140001002402C
:102000000044004000480040004C004000500040A8
:10201000102387F82330FB681B68864A934240F000
:10202000218497F82330082B00F2738101A252F823
:1020300023F000BF5920000813230008FB200008EC
:10204000132300089321000813230008132300081A
:102050001323000865220008FFF77EFC0246FB6898
:102060005B6A002B44D0FB685B6A012B3ED0FB68A7
:102070005B6A022B38D0FB685B6A032B32D0FB68AB
:102080005B6A042B2CD0FB685B6A052B26D0FB68AF
:102090005B6A062B20D0FB685B6A072B1AD0FB68B3
:1020A0005B6A082B14D0FB685B6A092B0ED0FB68B7
:1020B0005B6A0A2B08D0FB685B6A0B2B02D14FF4DA
:1020C000807316E0012314E0802312E0402310E027
:1020D00020230EE010230CE00C230AE00A2308E082
:1020E000082306E0062304E0042302E0022300E0C4
:1020F0000123B2FBF3F37B610EE1FB685B6A002B0B
:1021000044D0FB685B6A012B3ED0FB685B6A022B04
:1021100038D0FB685B6A032B32D0FB685B6A042B08
:102120002CD0FB685B6A052B26D0FB685B6A062B0C
:1021300020D0FB685B6A072B1AD0FB685B6A082B10
:1021400014D0FB685B6A092B0ED0FB685B6A0A2B14
:1021500008D0FB685B6A0B2B02D14FF2244316E0D8
:10216000354B14E0354B12E0354B10E0354B0EE0AB
:10217000354B0CE0354B0AE0354B08E0354B06E0BB
:10218000354B04E0354B02E0354B00E02A4B7B61D8
:10219000C2E0FFF74DFB0246FB685B6A002B44D0B0
:1021A000FB685B6A012B3ED0FB685B6A022B38D070
:1021B000FB685B6A032B32D0FB685B6A042B2CD074
:1021C000FB685B6A052B26D0FB685B6A062B20D078
:1021D000FB685B6A072B1AD0FB685B6A082B14D07C
:1021E000FB685B6A092B0ED0FB685B6A0A2B08D080
:1021F000FB685B6A0B2B02D14FF4807316E001235E
:1022000014E0802312E0402310E020230EE010238E
:102210000CE00C230AE00A2308E0082306E006236A
:1022200004E0042302E0022300E00123B2FBF3F305
:102230007B6171E0008000400024F40048E8010068
:1022400090D0030020A1070040420F005558140011
:10225000006A180080841E00AAB0280000093D0012
:1022600000127A00FB685B6A002B4ED0FB685B6A49
:10227000012B47D0FB685B6A022B40D0FB685B6A8E
:10228000032B39D0FB685B6A042B32D0FB685B6A96
:10229000052B2BD0FB685B6A062B24D0FB685B6A9E
:1022A000072B1DD0FB685B6A082B16D0FB685B6AA6
:1022B000092B0FD0FB685B6A0A2B08D0FB685B6AAE
:1022C0000B2B01D1802322E04FF400431FE04FF499
:1022D00080731CE04FF4007319E04FF4806316E044
:1022E0004FF4006313E040F6AA2310E040F6CC431D
:1022F0000DE04FF480530AE041F2555307E04FF4EC
:10230000005304E04FF4804301E04FF400437B614D
:1023100002E00123FB7600BF7B69002B00F0AE8654
:10232000FB685A6813465B0013447A699A4205D3E6
:10233000FB685B681B037A699A4203D90123FB7629
:1023400000F09CBE97F82330082B00F2768201A2A1
:1023500052F823F0792300083B280008B72400082E
:102360003B280008AD2500083B2800083B28000852
:102370003B280008E9260008FFF7EEFA0346184656
:102380004FF00001FB685B6A002B67D0FB685B6A5B
:10239000012B5ED0FB685B6A022B55D0FB685B6A41
:1023A000032B4CD0FB685B6A042B43D0FB685B6A51
:1023B000052B3AD0FB685B6A062B31D0FB685B6A61
:1023C000072B28D0FB685B6A082B1FD0FB685B6A71
:1023D000092B16D0FB685B6A0A2B0DD0FB685B6A81
:1023E0000B2B04D14FF480734FF000043AE04FF010
:1023F00001034FF0000435E04FF080034FF000047C
:1024000030E04FF040034FF000042BE04FF020038A
:102410004FF0000426E04FF010034FF0000421E0DD
:102420004FF00C034FF000041CE04FF00A034FF094
:10243000000417E04FF008034FF0000412E04FF0E3
:1024400006034FF000040DE04FF004034FF00004CA
:1024500008E04FF002034FF0000403E04FF00103E7
:102460004FF000041A462346FDF7AAFE03460C4629
:10247000194622464FF000034FF00004140244EACC
:1024800011640B02FA685268520811464FF00002BC
:102490005818386044EB02037B60FB685B684FF0C0
:1024A00000041A462346D7E90001FDF789FE0346DA
:1024B0000C46FB61C4E1FB685B6A002B5BD0FB68E8
:1024C0005B6A012B53D0FB685B6A022B4BD0FB6825
:1024D0005B6A032B43D0FB685B6A042B3BD0FB6831
:1024E0005B6A052B33D0FB685B6A062B2BD0FB683D
:1024F0005B6A072B23D0FB685B6A082B1BD0FB6849
:102500005B6A092B13D0FB685B6A0A2B0BD0FB6854
:102510005B6A0B2B03D1AE4B4FF000042EE0AD4BAA
:102520004FF000042AE0AC4B4FF0000426E0AB4B28
:102530004FF0000422E0AA4B4FF000041EE0A94B2C
:102540004FF000041AE09EA4D4E9003416E0A64B34
:102550004FF0000412E0A54B4FF000040EE09AA4E7
:10256000D4E900340AE0A24B4FF0000406E0A14B8E
:102570004FF0000402E0974B4FF00004FA685268F5
:10258000520811464FF0000213EB010A44EB020B14
:10259000FB685B684FF000041A46234650465946D4
:1025A000FDF70EFE03460C46FB6149E1FFF740F9DB
:1025B000034618464FF00001FB685B6A002B67D0AA
:1025C000FB685B6A012B5ED0FB685B6A022B55D00F
:1025D000FB685B6A032B4CD0FB685B6A042B43D01F
:1025E000FB685B6A052B3AD0FB685B6A062B31D02F
:1025F000FB685B6A072B28D0FB685B6A082B1FD03F
:10260000FB685B6A092B16D0FB685B6A0A2B0DD04E
:10261000FB685B6A0B2B04D14FF480734FF000040E
:102620003AE04FF001034FF0000435E04FF0800333
:102630004FF0000430E04FF040034FF000042BE077
:102640004FF020034FF0000426E04FF010034FF04E
:10265000000421E04FF00C034FF000041CE04FF0A9
:102660000A034FF0000417E04FF008034FF0000496
:1026700012E04FF006034FF000040DE04FF00403AA
:102680004FF0000408E04FF002034FF0000403E0B5
:102690004FF001034FF000041A462346FDF790FD6A
:1026A00003460C46194622464FF000034FF0000443
:1026B000140244EA11640B02FA6852685208114687
:1026C0004FF0000213EB010844EB0209FB685B6862
:1026D0004FF000041A46234640464946FDF770FD78
:1026E00003460C46FB61ABE0FB685B6A002B00F025
:1026F0008980FB685B6A012B5BD0FB685B6A022BFD
:1027000052D0FB685B6A032B4AD0FB685B6A042BE0
:1027100041D0FB685B6A052B39D0FB685B6A062BEE
:1027200031D0FB685B6A072B28D0FB685B6A082BFB
:102730001FD0FB685B6A092B16D0FB685B6A0A2B0B
:102740000DD0FB685B6A0B2B04D14FF400434FF0B4
:1027500000045BE04FF400034FF0000456E04FF438
:1027600080334FF0000451E04FF400334FF0000489
:102770004CE04FF480234FF0000447E04FF4002377
:102780004FF0000442E01C4B4FF000043EE01B4BB6
:102790004FF000043AE04FF480134FF0000435E0AE
:1027A000174B4FF0000431E04FF400134FF00004DA
:1027B0002CE04FF480034FF0000427E0AFF30080DB
:1027C000005558140000000000AAB02800000000C6
:1027D0000024F400000024F40048E8010090D00335
:1027E0000020A1070040420F00006A180080841EEC
:1027F0000000093D0000127A00AA0A0000CC0C007B
:10280000005515004FF400034FF00004FA685268B9
:10281000520811464FF000025D1844EB0206FB68B7
:102820005B684FF000041A46234628463146FDF700
:10283000C7FC03460C46FB6102E00123FB7600BFA8
:10284000FB69B3F5407F09D3FB69B3F5801F05D25F
:10285000FB681B68FA69DA6000F010BC0123FB76A4
:1028600000F00CBCFB68DB69B3F5004F40F0008260
:1028700097F82330082B00F2DB8101A252F823F0F5
:10288000A52800085B290008112A0008312C00083F
:10289000B92A0008312C0008312C0008312C00081E
:1028A0006F2B0008FFF758F80246FB685B6A002BA5
:1028B00044D0FB685B6A012B3ED0FB685B6A022B4D
:1028C00038D0FB685B6A032B32D0FB685B6A042B51
:1028D0002CD0FB685B6A052B26D0FB685B6A062B55
:1028E00020D0FB685B6A072B1AD0FB685B6A082B59
:1028F00014D0FB685B6A092B0ED0FB685B6A0A2B5D
:1029000008D0FB685B6A0B2B02D14FF4807316E092
:10291000012314E0802312E0402310E020230EE086
:1029200010230CE00C230AE00A2308E0082306E049
:10293000062304E0042302E0022300E00123B2FBAB
:10294000F3F35A00FB685B685B081A44FB685B683A
:10295000B2FBF3F39BB2FB616DE1FFF713F80246A4
:10296000FB685B6A002B44D0FB685B6A012B3ED09E
:10297000FB685B6A022B38D0FB685B6A032B32D0A2
:10298000FB685B6A042B2CD0FB685B6A052B26D0A6
:10299000FB685B6A062B20D0FB685B6A072B1AD0AA
:1029A000FB685B6A082B14D0FB685B6A092B0ED0AE
:1029B000FB685B6A0A2B08D0FB685B6A0B2B02D1B1
:1029C0004FF4807316E0012314E0802312E04023CB
:1029D00010E020230EE010230CE00C230AE00A2371
:1029E00008E0082306E0062304E0042302E00223B3
:1029F00000E00123B2FBF3F35A00FB685B685B085D
:102A00001A44FB685B68B2FBF3F39BB2FB6112E113
:102A1000FB685B6A002B43D0FB685B6A012B3DD0EF
:102A2000FB685B6A022B37D0FB685B6A032B31D0F3
:102A3000FB685B6A042B2BD0FB685B6A052B25D0F7
:102A4000FB685B6A062B1FD0FB685B6A072B19D0FB
:102A5000FB685B6A082B13D0FB685B6A092B0DD0FF
:102A6000FB685B6A0A2B07D0FB685B6A0B2B01D102
:102A70008C4B16E08C4B14E08C4B12E08C4B10E02E
:102A80008C4B0EE08C4B0CE08C4B0AE08C4B08E03E
:102A90008C4B06E08C4B04E08C4B02E08C4B00E04E
:102AA000814BFA68526852081A44FB685B68B2FBB3
:102AB000F3F39BB2FB61BEE0FEF7BAFE0246FB6891
:102AC0005B6A002B44D0FB685B6A012B3ED0FB683D
:102AD0005B6A022B38D0FB685B6A032B32D0FB6841
:102AE0005B6A042B2CD0FB685B6A052B26D0FB6845
:102AF0005B6A062B20D0FB685B6A072B1AD0FB6849
:102B00005B6A082B14D0FB685B6A092B0ED0FB684C
:102B10005B6A0A2B08D0FB685B6A0B2B02D14FF46F
:102B2000807316E0012314E0802312E0402310E0BC
:102B300020230EE010230CE00C230AE00A2308E017
:102B4000082306E0062304E0042302E0022300E059
:102B50000123B2FBF3F35A00FB685B685B081A447D
:102B6000FB685B68B2FBF3F39BB2FB6163E0FB685D
:102B70005B6A002B4FD0FB685B6A012B48D0FB6877
:102B80005B6A022B41D0FB685B6A032B3AD0FB687F
:102B90005B6A042B33D0FB685B6A052B2CD0FB6887
:102BA0005B6A062B25D0FB685B6A072B1ED0FB688F
:102BB0005B6A082B17D0FB685B6A092B10D0FB6897
:102BC0005B6A0A2B09D0FB685B6A0B2B02D14FF4BE
:102BD000807322E04FF480331FE04FF400731CE059
:102BE0004FF4806319E04FF4006316E04FF4805314
:102BF00013E041F2545310E041F698130DE04FF406
:102C000000530AE042F6AA2307E04FF4804304E0B1
:102C10004FF4004301E04FF48033FA6852685208E1
:102C20001A44FB685B68B2FBF3F39BB2FB6102E002
:102C30000123FB7600BFFB690F2B16D9FB69B3F5A7
:102C4000803F12D2FB699BB223F00F037B82FB69AA
:102C50005B089BB203F007039AB27B8A13437B8223
:102C6000FB681B687A8ADA6008E20123FB7605E2DA
:102C700097F82330082B00F2F08101A252F823F0DC
:102C8000D52C0008892D00083D2E00085B30000877
:102C9000E72E00085B3000085B3000085B3000085E
:102CA0009B2F000848E801000048E80190D003008D
:102CB00020A1070040420F0080841E00AAB0280017
:102CC00000D4300000093D005461510000127A0028
:102CD0000024F400FEF740FE0246FB685B6A002B0E
:102CE00044D0FB685B6A012B3ED0FB685B6A022B19
:102CF00038D0FB685B6A032B32D0FB685B6A042B1D
:102D00002CD0FB685B6A052B26D0FB685B6A062B20
:102D100020D0FB685B6A072B1AD0FB685B6A082B24
:102D200014D0FB685B6A092B0ED0FB685B6A0A2B28
:102D300008D0FB685B6A0B2B02D14FF4807316E05E
:102D4000012314E0802312E0402310E020230EE052
:102D500010230CE00C230AE00A2308E0082306E015
:102D6000062304E0042302E0022300E00123B2FB77
:102D7000F3F2FB685B685B081A44FB685B68B2FBB4
:102D8000F3F39BB2FB616BE1FEF7FCFD0246FB68CF
:102D90005B6A002B44D0FB685B6A012B3ED0FB686A
:102DA0005B6A022B38D0FB685B6A032B32D0FB686E
:102DB0005B6A042B2CD0FB685B6A052B26D0FB6872
:102DC0005B6A062B20D0FB685B6A072B1AD0FB6876
:102DD0005B6A082B14D0FB685B6A092B0ED0FB687A
:102DE0005B6A0A2B08D0FB685B6A0B2B02D14FF49D
:102DF000807316E0012314E0802312E0402310E0EA
:102E000020230EE010230CE00C230AE00A2308E044
:102E1000082306E0062304E0042302E0022300E086
:102E20000123B2FBF3F2FB685B685B081A44FB68A2
:102E30005B68B2FBF3F39BB2FB6111E1FB685B6A79
:102E4000002B44D0FB685B6A012B3ED0FB685B6AB9
:102E5000022B38D0FB685B6A032B32D0FB685B6ABD
:102E6000042B2CD0FB685B6A052B26D0FB685B6AC1
:102E7000062B20D0FB685B6A072B1AD0FB685B6AC5
:102E8000082B14D0FB685B6A092B0ED0FB685B6AC9
:102E90000A2B08D0FB685B6A0B2B02D14FF224434C
:102EA00016E0804B14E0804B12E0804B10E0804B2A
:102EB0000EE0804B0CE0804B0AE0804B08E0804B3A
:102EC00006E0804B04E0804B02E0804B00E0754B55
:102ED000FA68526852081A44FB685B68B2FBF3F365
:102EE0009BB2FB61BCE0FEF7A3FC0246FB685B6A99
:102EF000002B44D0FB685B6A012B3ED0FB685B6A09
:102F0000022B38D0FB685B6A032B32D0FB685B6A0C
:102F1000042B2CD0FB685B6A052B26D0FB685B6A10
:102F2000062B20D0FB685B6A072B1AD0FB685B6A14
:102F3000082B14D0FB685B6A092B0ED0FB685B6A18
:102F40000A2B08D0FB685B6A0B2B02D14FF480730D
:102F500016E0012314E0802312E0402310E0202338
:102F60000EE010230CE00C230AE00A2308E00823FB
:102F700006E0062304E0042302E0022300E001232C
:102F8000B2FBF3F2FB685B685B081A44FB685B68A2
:102F9000B2FBF3F39BB2FB6162E0FB685B6A002B60
:102FA0004ED0FB685B6A012B47D0FB685B6A022B43
:102FB00040D0FB685B6A032B39D0FB685B6A042B4B
:102FC00032D0FB685B6A052B2BD0FB685B6A062B53
:102FD00024D0FB685B6A072B1DD0FB685B6A082B5B
:102FE00016D0FB685B6A092B0FD0FB685B6A0A2B63
:102FF00008D0FB685B6A0B2B01D1802322E04FF4E1
:1030000000431FE04FF480731CE04FF4007319E09D
:103010004FF4806316E04FF4006313E040F6AA23F8
:1030200010E040F6CC430DE04FF480530AE041F24B
:10303000555307E04FF4005304E04FF4804301E0A0
:103040004FF40043FA68526852081A44FB685B6800
:10305000B2FBF3F39BB2FB6102E00123FB7600BFFE
:10306000FB690F2B08D9FB69B3F5803F04D2FB68DD
:103070001B68FA69DA6001E00123FB76FB68012234
:10308000A3F86A20FB680122A3F86820FB680022ED
:10309000DA66FB6800221A67FB7E18462C37BD46AD
:1030A000BDE8F08F0024F40048E8010090D0030050
:1030B00020A1070040420F0055581400006A180074
:1030C00080841E00AAB0280000093D0000127A008A
:1030D00080B483B000AF78607B689B6A03F0010323
:1030E000002B0AD07B681B685B6823F400317B6887
:1030F000DA6A7B681B680A435A607B689B6A03F044
:103100000203002B0AD07B681B685B6823F48031C4
:103110007B681A6B7B681B680A435A607B689B6AF2
:1031200003F00403002B0AD07B681B685B6823F460
:1031300080217B685A6B7B681B680A435A607B68F6
:103140009B6A03F00803002B0AD07B681B685B684E
:1031500023F400417B689A6B7B681B680A435A60C2
:103160007B689B6A03F01003002B0AD07B681B6806
:103170009B6823F480517B68DA6B7B681B680A4389
:103180009A607B689B6A03F02003002B0AD07B685F
:103190001B689B6823F400517B681A6C7B681B6872
:1031A0000A439A607B689B6A03F04003002B1AD0A5
:1031B0007B681B685B6823F480117B685A6C7B68B2
:1031C0001B680A435A607B685B6CB3F5801F0AD1A9
:1031D0007B681B685B6823F4C0017B689A6C7B6822
:1031E0001B680A435A607B689B6A03F08003002BCC
:1031F0000AD07B681B685B6823F400217B68DA6C6B
:103200007B681B680A435A6000BF0C37BD4680BC10
:10321000704780B586B002AF78607B680022C3F843
:103220008820FDF7DBFAF8607B681B681B6803F0F9
:103230000803082B0ED16FF07E430093FB68002239
:103240004FF40011786800F02CF80346002B01D0F1
:10325000032322E07B681B681B6803F00403042B34
:103260000ED16FF07E430093FB6800224FF4800183
:10327000786800F016F80346002B01D003230CE019
:103280007B682022C3F880207B682022C3F884203A
:103290007B68002283F87C20002318461037BD4647
:1032A00080BD80B584B000AFF860B9603B60134664
:1032B000FB712CE0BB69B3F1FF3F28D0FDF78EFA1C
:1032C00002463B68D31ABA699A4202D3BB69002B03
:1032D0001DD1FB681B681A68FB681B6822F4D0725A
:1032E0001A60FB681B689A68FB681B6822F0010281
:1032F0009A60FB682022C3F88020FB682022C3F874
:103300008420FB68002283F87C2003230FE0FB6805
:103310001B68DA69BB681340BA689A420CBF012384
:103320000023DBB21A46FB799A42C3D00023184629
:103330001037BD4680BD00002DE9F047089E0446C9
:103340008846002B40F085808A42154648D9B2FA5B
:1033500082F24AB1C2F1200701FA02F320FA07F71C
:10336000954047EA030894404FEA154E230CB8FBFA
:10337000FEF71FFA85FC0EFB178843EA084307FB9C
:103380000CF1994209D9EB1807F1FF3080F0E38086
:10339000994240F2E080023F2B445B1AA4B2B3FB97
:1033A000FEF00EFB103344EA034400FB0CFCA44582
:1033B00009D92C1900F1FF3380F0CB80A44540F2ED
:1033C000C88002382C4440EA0740A4EB0C040027D4
:1033D0001EB1D4400023C6E900433946BDE8F0875A
:1033E000002A53D0B2FA82F2002A40F0B680491B7C
:1033F0004FEA154E1FFA85F80127B1FBFEFC230C9E
:103400000EFB1C1143EA014308FB0CF1994207D95A
:10341000EB180CF1FF3002D2994200F2EC808446A6
:10342000591AA3B2B1FBFEF00EFB101443EA044498
:1034300008FB00F8A04507D92C1900F1FF3302D290
:10344000A04500F2DC801846A4EB080440EA0C40DA
:10345000BEE78B4208D9002E78D00027C6E90001CC
:1034600038463946BDE8F087B3FA83F77FB98B4217
:1034700002D3824200F2BD80841A61EB0303012073
:103480009846002EA9D0C6E90048A6E7FFDEC7F19E
:103490002005BB4022FA05FC4CEA030C01FA07F4B4
:1034A00020FA05F821FA05F34FEA1C4E48EA040415
:1034B000B3FBFEF9210C0EFB19331FFA8CF841EA1D
:1034C000034309FB08FA9A4502FA07F200FA07F1EA
:1034D0000BD91CEB030309F1FF3080F088809A457B
:1034E00040F28580A9F102096344A3EB0A03A4B268
:1034F000B3FBFEF00EFB103344EA034400FB08F874
:10350000A04508D91CEB040400F1FF336BD2A045A1
:1035100069D90238644440EA0940A4EB0804A0FBDE
:1035200002894C45C6464B4654D351D0002E69D033
:10353000B1EB0E0264EB030404FA05F522FA07F37B
:10354000FC401D43C6E90054002746E73746304695
:1035500043E7184637E707461FE7C2F1200320FA82
:1035600003F7954001FA02F021FA03F34FEA154EF2
:103570003843010CB3FBFEF71FFA85F80EFB173337
:1035800041EA034107FB08F38B4204FA02F407D92E
:10359000691807F1FF3C28D28B4226D9023F294403
:1035A000CB1A81B2B3FBFEF00EFB103341EA0341AC
:1035B00000FB08F38B4207D9691800F1FF3C10D2D9
:1035C0008B420ED902382944C91A40EA074714E74A
:1035D0004145ABD2B8EB020E69EB0C020138134641
:1035E000A4E76046F0E7184695E76746D8E78146C6
:1035F0007BE7384645E7ACF1020C2B4410E7023874
:103600002C4421E73746E8E6014B1868704700BFB5
:103610000C00002070B50D4D0D4C641BA41000264D
:10362000A64209D10B4D0C4C00F03AFC641BA410CF
:103630000026A64205D170BD55F8043B98470136D7
:10364000EEE755F8043B98470136F2E7803F000863
:10365000803F0008803F0008843F00080244034682
:10366000934200D1704703F8011BF9E70EB400B58F
:103670009CB01DAB029006906FF000410948079185
:103680000491094953F8042B05910068019302A99C
:1036900000F068F8029B00221A701CB05DF804EB81
:1036A00003B070470C0000200802FFFF2DE9F0472F
:1036B0008E689E4282460C469146984638D8B1F8AC
:1036C0000CC01CF4906F31D062692568096902EB67
:1036D00042026F1A02EBD272013355103B449D42F5
:1036E00038BF1D461CF4806F30D0294600F032FBF5
:1036F000064650B90C23CAF80030A38943F04003B2
:10370000A3814FF0FF30BDE8F0873A46216900F011
:10371000ABFAA38923F4906343F08003A38126616D
:1037200065613E44ED1B2660A5604646464500D9CE
:10373000464632464946206800F0A4FAA3689B1B1F
:10374000A36023681E4426600020DCE72A4600F0C0
:103750005BFB06460028E2D12169504600F0ACFA36
:10376000C8E700002DE9F04F1E468B891B069DB06F
:1037700007460D4614460ED50B6963B9402100F08B
:10378000E9FA2860286120B90C233B604FF0FF3034
:10379000C9E040236B610023099320238DF8293071
:1037A000DFF89C91039630238DF82A304FF0010A00
:1037B00023461E4613F8012B0AB1252AF9D1B6EB90
:1037C000040B0BD05B46224629463846FFF76EFFB6
:1037D000013000F0A380099B5B4409933378002BF0
:1037E00000F09C8000234FF0FF32CDE90523013625
:1037F000049307938DF853301A933446052214F836
:10380000011B4F48FCF704FD049BC0B9D90644BF17
:1038100020228DF853201A0744BF2B228DF8532005
:1038200032782A2A13D0079A344600200A262146E5
:1038300011F8013B303B092B4BD970B914E0A0EBD8
:1038400009000AFA00F0184304902646D5E7039AC7
:10385000111D12680391002A01DB079204E0524215
:1038600043F002030792049323782E2B0CD1637844
:103870002A2B33D1039B1A1D1B680392002BB8BF60
:103880004FF0FF33023405932E4E21780322304649
:10389000FCF7BEFC38B14023801B03FA00F0049B08
:1038A00003430134049314F8011B27488DF82810B2
:1038B0000622FCF7ADFC002838D0244B13BB039B39
:1038C000073323F0070308330393099B4344099309
:1038D0006EE706FB023201200C46A8E70023013404
:1038E000059319460A26204610F8012B303A092A7A
:1038F00003D9002BC8D00591C6E706FB012101239F
:103900000446F0E703AB00932A46114B04A938465E
:10391000AFF30080B0F1FF3F8046D6D1AB895B06A4
:103920003FF534AF09981DB0BDE8F08F03AB0093AD
:103930002A46074B04A9384600F082F8EAE700BFA0
:10394000403F0008463F00084A3F000800000000D2
:10395000AD3600082DE9F04791461F468A680B698D
:10396000DDF820809342B8BF1346C9F8003091F8C3
:10397000432006460C4612B10133C9F800302368D3
:10398000990642BFD9F800300233C9F800302568E3
:1039900015F0060507D104F1190AE368D9F80020EB
:1039A0009B1AAB4228DC94F843302268003318BFDE
:1039B000012392062DD404F1430239463046C04714
:1039C000013020D02368E568D9F8002003F0060311
:1039D000042B08BFAD1AA36822690CBF25EAE57560
:1039E00000259342C4BF9B1AED184FF000091A340A
:1039F0004D451AD1002008E0012352463946304691
:103A0000C047013003D14FF0FF30BDE8F0870135EA
:103A1000C3E7E1185A1C302081F84300224494F88F
:103A2000451082F843100233C5E701232246394688
:103A30003046C0470130E6D009F10109D8E700005F
:103A40002DE9F04306460C4601F14300097E85B09E
:103A50006E29984617460C9B00F0BA8024D863293B
:103A600039D00AD8002900F0C380582900F091808D
:103A700004F1420584F8421035E0642901D0692937
:103A8000F6D125681A6815F0800F02F104012CD0D8
:103A900012681960002A03DA2D23524284F8433059
:103AA000DFF8BCC10A233FE0732900F0A58008D8E5
:103AB0006F2921D07029DBD1226842F020022260D8
:103AC00003E0752918D07829D2D1782284F84520CE
:103AD000DFF890C161E01A68111D1960136884F85D
:103AE000423004F14205012393E01268196015F099
:103AF000400F18BF12B2CDE7D4F800C01A681CF00E
:103B0000800F02F104051D6001D0126803E01CF073
:103B1000400FFAD01288DFF848C16F290CBF082384
:103B20000A23002184F843106568A560002DA2BF18
:103B3000216821F0040121600AB9002D46D0054614
:103B4000B2FBF3F103FB112E93421CF80EE005F8D3
:103B500001ED39D9082B0BD12368DA0708D5236981
:103B600062689A42DEBF302305F8013C05F1FF355B
:103B7000401B2061CDF800803B4603AA2146304619
:103B8000FFF7E8FE013049D14FF0FF3005B0BDE846
:103B9000F083DFF8CCC084F845101D68216855F823
:103BA000042B1D600D060BD5CD0744BF41F020014D
:103BB00021601AB9236823F0200323601023B0E7A3
:103BC0004B0648BF92B2EFE70A46B9E70546C1E7A0
:103BD0001A68D4F800C06169151D1D601CF0800FC3
:103BE000136801D0196003E01CF0400FFAD019806F
:103BF000002323610546BDE71A68111D1960156889
:103C0000626800212846FCF703FB08B1401B606096
:103C100063682361002384F84330ABE723692A46B5
:103C200039463046C0470130AED023689B0713D4D5
:103C3000E068039B9842B8BF1846A7E701234A46AD
:103C400039463046C04701309ED00135E368039ABB
:103C50009B1AAB42F2DCEBE7002504F11909F5E70A
:103C6000513F0008623F00080A44914200F1FF33CF
:103C700000D1704710B511F8014B03F8014F914284
:103C8000F9D110BD884210B501EB020302D983427D
:103C90001C4607D8421E994208D011F8014B02F881
:103CA000014FF8E783189A1A9A4200D110BD14F810
:103CB000011D03F8011DF7E738B50546002945D079
:103CC00051F8043C0C1F002BB8BFE41800F0D2F8E8
:103CD0001F4A1368104633B9636014602846BDE874
:103CE000384000F0CDB8A3420CD921686218934245
:103CF00004BF1A685B68636004BF521822600460E6
:103D0000ECE713465A680AB1A242FAD91968581862
:103D1000A0420BD120680144581882421960DDD1BD
:103D2000106852685A6001441960D7E702D90C2321
:103D30002B60D3E7206821188A4204BF11685268BB
:103D4000626004BF091821605C60C7E738BD00BF2E
:103D500090000020F8B5CD1C25F0030508350C2D8A
:103D600038BF0C25002D064601DBA94203D90C23E0
:103D700033600020F8BD00F07DF821490A68144640
:103D80009CB9204F3B6823B92146304600F062F8C9
:103D900038602946304600F05DF8431C23D10C23DF
:103DA0003360304600F06CF8E3E723685B1B17D400
:103DB0000B2B03D923601C44256004E06368A242F6
:103DC0000CBF0B605360304600F05AF804F10B0052
:103DD000231D20F00700C21ACCD01B1AA350C9E73C
:103DE00022466468CCE7C41C24F00304A042E3D05C
:103DF000211A304600F02EF80130DDD1CFE700BFA8
:103E00009000002094000020F8B5074614460E46A6
:103E100021B91146BDE8F840FFF79CBF22B9FFF772
:103E20004BFF25462846F8BD00F030F8A0420FD2DF
:103E300021463846FFF78EFF05460028F2D031466E
:103E40002246FFF711FF31463846FFF735FFE9E715
:103E50003546E7E738B5064C00230546084623609B
:103E6000FCF700FC431C02D1236803B12B6038BD72
:103E700028010020014800F011B800BF30010020E7
:103E8000014800F00CB800BF3001002051F8043C9C
:103E9000181F002BBCBF0B58C018704770477047E5
:103EA000F8B500BFF8BC08BC9E467047F8B500BF27
:083EB000F8BC08BC9E467047F7
:103EB800535953434C4B3A20256C75200D0A00008A
:103EC80048434C4B3A20256C75200D0A0000000031
:103ED80050434C4B313A20256C75200D0A000000E8
:103EE80050434C4B323A20256C75200D0A000000D7
:103EF8000000000000000000010203040607080992
:103F08000000000001020304A0860100400D030028
:103F1800801A060000350C0040420F0080841E0005
:103F280000093D0000127A000024F40000366E01FA
:103F38000048E801006CDC02232D302B2000686C5F
:103F48004C006566674546470030313233343536B4
:103F580037383941424344454600303132333435ED
:103F68003637383961626364656600000000000016
:083F7800C0F3FF7F010000000F
:083F8000190300080000000015
:083F8800F10200080000000036
:103F900000093D001000000001000000100000209A
:103FA0000000000000000000000000000000000011
:103FB0000000000000000000000000000000000001
:103FC00000000000000000000000000000000000F1
:103FD00000000000000000000000000000000000E1
:103FE00000000000000000000000000000000000D1
:103FF00000000000000000000000000000000000C1
:040000050800033DAF
:00000001FF
