:020000040800F2
:1000000000000A2001020008510200085102000805
:1000100051020008510200085102000800000000CF
:100020000000000000000000000000005102000875
:1000300051020008000000005102000853020008AD
:100040005102000851020008510200085102000844
:100050005102000851020008510200085102000834
:100060005102000851020008510200086502000810
:100070005102000851020008510200085102000814
:100080005102000851020008510200085102000804
:1000900051020008510200085102000851020008F4
:1000A00051020008510200085102000851020008E4
:1000B00051020008510200085102000851020008D4
:1000C00051020008510200085102000851020008C4
:1000D00051020008510200085102000851020008B4
:1000E00051020008510200085102000851020008A4
:1000F00051020008510200085102000800000000EF
:100100005102000851020008510200085102000883
:100110005102000851020008510200085102000873
:100120005102000851020008510200085102000863
:100130005102000851020008510200085102000853
:100140005102000851020008510200085102000843
:100150005102000851020008510200085102000833
:100160005102000851020008510200085102000823
:1001700051020008510200080000000000000000C9
:100180005102000851020008510200085102000803
:1001900051020008510200080000000000000000A9
:1001A0000000000000000000510200085102000899
:1001B000510200085102000851020008000000002E
:1001C00010B5054C237833B9044B13B10448AFF391
:1001D00000800123237010BD1000002000000000EB
:1001E000EC20000808B5034B1BB103490348AFF3EB
:1001F000008008BD0000000014000020EC20000872
:10020000DFF834D0002103E00C4B5B58435004313D
:100210000B480C4B42189A42F6D30B4A02E00023DB
:1002200042F8043B094B9A42F9D300F0D7F901F0A8
:1002300031FF00F021F8FEE700000A2058210008F5
:10024000000000201000002010000020900000207E
:10025000FEE780B500AF00F03FFA00F0A5FB00BF5D
:1002600080BD000080B500AF024800F06DFD00BF0A
:1002700080BD00BF2C00002080B500AF00F0DAF98F
:10028000102000F037F800F0F1F800F033F91549CC
:100290000123154A154800F03BFC0346002B01D012
:1002A00000F0E0F84FF0FF320021104800F073FC3E
:1002B0004FF47A7000F02CFA0D4901230A4A0B48DA
:1002C00000F026FC0346002B01D000F0CBF84FF0E5
:1002D000FF320021054800F05EFC4FF47A7000F018
:1002E00017FAD4E700000020140400482C00002076
:1002F0000100002080B59AB000AF0346FB710023D7
:1003000087F8673007F1200344220021184601F0E6
:10031000E5FE07F10C0314220021184601F0DEFE71
:1003200002233B624FF48073FB6240233B63022352
:10033000BB640223FB64FB79782B4ED0782B66DC00
:10034000542B30D0542B62DC102B02D0322B10D027
:100350005DE00123BB640F23FB6001233B610023AD
:100360007B610023BB610023FB61002387F86730BA
:100370004EE004233B6532237B6504233B66022366
:10038000FB650223BB650F23FB6003233B61002356
:100390007B614FF48063BB614FF48063FB61022398
:1003A00087F8673034E004233B652A237B6502230A
:1003B0003B660223FB650223BB650F23FB6003231F
:1003C0003B6100237B614FF48063BB614FF480632A
:1003D000FB61042387F867301AE004233B653C2364
:1003E0007B6502233B660223FB650223BB650F236B
:1003F000FB6003233B6100237B614FF4A063BB617F
:100400004FF48063FB61052387F8673000E000BF8D
:1004100007F12003184600F095FF0346002B01D09A
:1004200000F020F897F8672007F10C0311461846F2
:1004300001F0AEFB0346002B01D000F013F801F0F1
:100440005DFD0346064AA2FB03239B09184600F004
:1004500082FA042000F08CFA00BF6837BD4680BDE8
:10046000D34D621080B400AFFEE7000080B588B0C5
:1004700000AF1C4BDB6C1B4A43F00403D364194BE5
:10048000DB6C03F00403BB60BB68164BDB6C154AE6
:1004900043F00203D364134BDB6C03F002037B6075
:1004A0007B684FF40053FB600F4B3B6100237B6183
:1004B0000023BB6107F10C0319460C4800F092FDC4
:1004C0008023FB6001233B6100237B610023BB6130
:1004D00007F10C031946064800F084FD00BF2037E1
:1004E000BD4680BD001002400000221000080048F8
:1004F0000004004880B582B000AF244B9B6C234AB7
:1005000043F004039364214B9B6C03F004037B6072
:100510007B681E4B9B6C1D4A43F0010393641B4B8D
:100520009B6C03F001033B603B68194B194A1A604E
:10053000174B4FF480429A60154B0022DA60144B3F
:1005400000221A61124B00225A61114B00229A615B
:100550000F4B0022DA610E4B00221A620C4B002274
:100560005A600B4800F02CFA0346002B01D0FFF72D
:1005700079FF0B2000F0E1F900220F210B2000F0A1
:10058000C0F900BF0837BD4680BD00BF0010024063
:100590002C0000200800024080B500AF032000F0CE
:1005A000A5F90D4B5B6A0C4A43F4E0235362002229
:1005B00000216FF00B0000F0A4F9002200216FF081
:1005C0000A0000F09EF9002200216FF0090000F0FF
:1005D00098F900BF80BD00BF00ED00E080B400AF1F
:1005E000124B1B68114A43F0010313600F4B0022AA
:1005F0009A600E4B1B680D4A23F0A85323F4102376
:1006000013600A4B4FF48052DA60084B1B68074AAC
:1006100023F480231360054B00229A61044B4FF0B2
:1006200000629A6000BFBD4680BC70470010024067
:1006300000ED00E080B582B000AF0023FB71032025
:1006400000F054F9002000F00DF80346002B02D012
:100650000123FB7101E0FFF79FFFFB791846083784
:10066000BD4680BD80B584B000AF78600023FB73C9
:10067000164B1B68002B22D0154B1A68134B1B68B6
:100680004FF47A71B1FBF3F3B2FBF3F3184600F0C9
:1006900062F90346002B0FD17B680F2B09D800228B
:1006A00079684FF0FF3000F02CF90A4A7B6813603C
:1006B00007E00123FB7304E00123FB7301E0012346
:1006C000FB73FB7B18461037BD4680BD0C00002035
:1006D000040000200800002080B400AF054B1A6819
:1006E000054B1B681344034A136000BFBD4680BC22
:1006F000704700BF8C0000200C00002080B400AFC9
:10070000024B1B681846BD4680BC70478C00002019
:1007100080B584B000AF7860FFF7F0FFB8607B6809
:10072000FB60FB68B3F1FF3F04D0094B1B68FA681C
:100730001344FB6000BFFFF7E1FF0246BB68D31A1A
:10074000FA689A42F7D800BF00BF1037BD4680BD97
:100750000C00002080B485B000AF78607B6803F0A7
:100760000703FB600C4BDB68BB60BA684FF6FF0306
:100770001340BB60FB681A02BB68134343F0BF63BE
:1007800043F40033BB60044ABB68D36000BF143736
:10079000BD4680BC704700BF00ED00E080B400AFF4
:1007A000044BDB681B0A03F007031846BD4680BCF8
:1007B000704700BF00ED00E080B483B000AF034697
:1007C000FB7197F90730002B0BDBFB7903F01F025D
:1007D000064997F907305B09012000FA02F241F857
:1007E000232000BF0C37BD4680BC704700E100E00D
:1007F00080B483B000AF03463960FB7197F90730CE
:10080000002B0ADB3B68DAB20C4997F9073012017A
:10081000D2B20B4483F800230AE03B68DAB20849FD
:10082000FB7903F00F03043B1201D2B20B441A769A
:1008300000BF0C37BD4680BC704700BF00E100E040
:1008400000ED00E080B489B000AFF860B9607A6074
:10085000FB6803F00703FB61FB69C3F10703042B8B
:1008600028BF0423BB61FB690433062B02D9FB6953
:10087000033B00E000237B614FF0FF32BB6902FACB
:1008800003F3DA43BB681A407B699A404FF0FF31AB
:100890007B6901FA03F3D9437B680B401343184685
:1008A0002437BD4680BC704780B582B000AF786009
:1008B0007B68013BB3F1807F01D301230FE00A4A3B
:1008C0007B68013B53600F214FF0FF30FFF790FF33
:1008D000054B00229A60044B07221A600023184639
:1008E0000837BD4680BD00BF10E000E080B582B093
:1008F00000AF78607868FFF72DFF00BF0837BD466E
:1009000080BD80B586B000AF0346B9607A60FB73E6
:1009100000237B61FFF742FF78617A68B9687869E4
:10092000FFF790FF024697F90F3011461846FFF780
:100930005FFF00BF1837BD4680BD80B582B000AFF5
:100940000346FB7197F907301846FFF735FF00BFE4
:100950000837BD4680BD80B582B000AF786078684A
:10096000FFF7A2FF034618460837BD4680BD0000CA
:1009700080B483B000AF78607B68042B06D1094B4C
:100980001B68084A43F00403136005E0054B1B682D
:10099000044A23F00403136000BF0C37BD4680BC3B
:1009A000704700BF10E000E080B500AF00F002F833
:1009B00000BF80BD80B400AF00BFBD4680BC7047A3
:1009C00080B584B000AF78607B68002B01D1012333
:1009D0008DE07B681B681A46474B9A420FD87B68AC
:1009E0001B681A46454B1344454AA2FB03231B09C7
:1009F0009A007B685A647B68424A1A640EE07B68FE
:100A00001B681A46404B13443D4AA2FB03231B09B3
:100A10009A007B685A647B683C4A1A647B680222AD
:100A200083F825207B681B681B68FB60FB6823F448
:100A3000FF4323F07003FB607B689A687B68DB6888
:100A40001A437B681B691A437B685B691A437B689E
:100A50009B691A437B68DB691A437B681B6A1343F3
:100A6000FA681343FB607B681B68FA681A60786851
:100A700000F056FA7B689B68B3F5804F02D17B6823
:100A800000225A607B685A687B689B6CD2B21A60FD
:100A90007B68DB6C7A68126D5A607B685B68002B40
:100AA00010D07B685B68042B0CD8786800F076FA6D
:100AB0007B685B6D00221A607B689B6D7A68D26DE3
:100AC0005A6008E07B6800225A657B6800229A65BC
:100AD0007B680022DA657B680022DA637B6801228A
:100AE00083F825207B68002283F824200023184601
:100AF0001037BD4680BD00BF07040240F8FFFDBFB0
:100B0000CDCCCCCC00000240F8FBFDBF000402407D
:100B100080B586B000AFF860B9607A603B600023B2
:100B2000FB75FB6893F82430012B01D102232EE0E2
:100B3000FB68012283F82420FB6893F82530DBB2A0
:100B4000012B1DD1FB68022283F82520FB680022BF
:100B5000DA63FB681B681A68FB681B6822F00102F5
:100B60001A603B687A68B968F86800F09CF9FB681D
:100B70001B681A68FB681B6842F001021A6005E0F6
:100B8000FB68002283F824200223FB75FB7D1846B6
:100B90001837BD4680BD80B586B000AFF8600B4603
:100BA0007A60FB72FB6893F82530DBB2022B08D029
:100BB000FB680422DA63FB68002283F82420012307
:100BC000BEE0FB681B681B6803F02003002B05D008
:100BD000FB684FF48072DA630123B1E0FB7A002BEB
:100BE00008D1FB685B6C03F01C03022202FA03F3DA
:100BF0007B6107E0FB685B6C03F01C03042202FAD4
:100C000003F37B61FFF77AFD38613FE0FB681B6C03
:100C10001A68FB685B6C03F01C03082101FA03F3FC
:100C20001340002B16D0FB685B6C03F01C02FB68C2
:100C30001B6C012101FA02F25A60FB680122DA639F
:100C4000FB68012283F82520FB68002283F824201A
:100C5000012375E07B68B3F1FF3F17D0FFF74EFD2E
:100C600002463B69D31A7A689A4202D37B68002B0A
:100C70000CD1FB682022DA63FB68012283F825206F
:100C8000FB68002283F82420012359E0FB681B6CD9
:100C90001A687B691340002BB8D0FB685B6D002B92
:100CA0001AD0FB689B6D1A68FB68DB6D1340002B44
:100CB00012D0FB685B6D1A68FB685B6D42F4807252
:100CC0001A60FB689B6DFA68D26D5A60FB68DB6B3B
:100CD00043F48062FB68DA63FB68DB6C1A68FB68CC
:100CE0001B6D1340002B0AD0FB68DB6CFA68126D99
:100CF0005A60FB68DB6B43F40072FB68DA63FB7AD3
:100D0000002B0ED1FB685B6C03F01C02FB681B6CB4
:100D1000022101FA02F25A60FB68012283F82520C1
:100D200009E0FB685B6C03F01C02FB681B6C042190
:100D300001FA02F25A60FB68002283F824200023A3
:100D400018461837BD4680BD80B584B000AF7860C6
:100D50007B681B6C1B68FB607B681B681B68BB6047
:100D60007B685B6C03F01C0304229A40FB68134011
:100D7000002B26D0BB6803F00403002B21D07B6836
:100D80001B681B6803F02003002B07D17B681B68DE
:100D90001A687B681B6822F004021A607B685B6C2F
:100DA00003F01C027B681B6C042101FA02F25A60FA
:100DB0007B681B6B002B71D07B681B6B7868984736
:100DC0006CE07B685B6C03F01C0302229A40FB68BA
:100DD0001340002B2ED0BB6803F00203002B29D058
:100DE0007B681B681B6803F02003002B0BD17B681A
:100DF0001B681A687B681B6822F00A021A607B680D
:100E0000012283F825207B685B6C03F01C027B6861
:100E10001B6C022101FA02F25A607B68002283F8FF
:100E200024207B68DB6A002B38D07B68DB6A78681B
:100E3000984733E07B685B6C03F01C0308229A4000
:100E4000FB681340002B2AD0BB6803F00803002B7B
:100E500025D07B681B681A687B681B6822F00E022D
:100E60001A607B685B6C03F01C027B681B6C0121C1
:100E700001FA02F25A607B680122DA637B68012280
:100E800083F825207B68002283F824207B685B6B35
:100E9000002B04D07B685B6B7868984700BF00BF6D
:100EA0001037BD4680BD80B485B000AFF860B96032
:100EB0007A603B60FB68DB6CFA68126D5A60FB6815
:100EC0005B6D002B04D0FB689B6DFA68D26D5A6095
:100ED000FB685B6C03F01C02FB681B6C012101FAD0
:100EE00002F25A60FB681B683A685A60FB689B68AC
:100EF000102B08D1FB681B687A689A60FB681B6836
:100F0000BA68DA6007E0FB681B68BA689A60FB6839
:100F10001B687A68DA6000BF1437BD4680BC704732
:100F200080B485B000AF78607B681B681A46174BA9
:100F30009A420AD87B685B6C9B089B0003F1804354
:100F400003F502337A68936407E07B685B6C9B0867
:100F50009A000F4B13447A6893647B681B68DBB27A
:100F6000083B0C4AA2FB03231B09FB607B680A4A6F
:100F7000DA64FB6803F01F0301229A407B681A655C
:100F800000BF1437BD4680BC704700BF0704024055
:100F90001C080240CDCCCCCC8008024080B485B087
:100FA00000AF78607B685B68DBB2FB60FA680B4B74
:100FB00013449B001A467B685A657B68084A9A6509
:100FC000FB68013B03F0030301229A407B68DA656A
:100FD00000BF1437BD4680BC704700BF3F82001081
:100FE0004009024080B487B000AF786039600023C8
:100FF0007B6166E13B681A6801217B6901FA03F3B2
:101000001340FB60FB68002B00F058813B685B6875
:10101000012B0BD03B685B68022B07D03B685B68F9
:10102000112B03D03B685B68122B30D17B689B6827
:101030003B617B695B00032202FA03F3DB433A69FD
:1010400013403B613B68DA687B695B0002FA03F39B
:101050003A6913433B617B683A699A607B685B68D5
:101060003B6101227B6902FA03F3DB433A691340D7
:101070003B613B685B681B0903F001027B6902FA74
:1010800003F33A6913433B617B683A695A607B68B2
:10109000DB683B617B695B00032202FA03F3DB43FD
:1010A0003A6913403B613B689A687B695B0002FACE
:1010B00003F33A6913433B617B683A69DA603B6842
:1010C0005B68022B03D03B685B68122B23D17B69E2
:1010D000DA087B68083253F822303B617B6903F001
:1010E00007039B000F2202FA03F3DB433A69134024
:1010F0003B613B681A697B6903F007039B0002FAB6
:1011000003F33A6913433B617B69DA087B68083271
:10111000396943F822107B681B683B617B695B007F
:10112000032202FA03F3DB433A6913403B613B6855
:101130005B6803F003027B695B0002FA03F33A6920
:1011400013433B617B683A691A603B685B6803F054
:101150008053002B00F0B280614B1B6E604A43F05D
:10116000010313665E4B1B6E03F00103BB60BB689B
:101170005C4A7B699B08023352F823303B617B69F0
:1011800003F003039B000F2202FA03F3DB433A69E7
:1011900013403B617B68B3F1904F2BD07B68524A80
:1011A000934225D07B68514A93421FD07B68504AB6
:1011B000934219D07B684F4A934213D07B684E4AC2
:1011C00093420DD07B684D4A934207D07B684C4ACE
:1011D000934201D107230EE008230CE006230AE026
:1011E000052308E0042306E0032304E0022302E0D1
:1011F000012300E000237A6902F003029200934089
:101200003A6913433B6137497B699B0802333A696A
:1012100041F823203B4B1B683B61FB68DB433A6989
:1012200013403B613B685B6803F48033002B03D0C1
:101230003A69FB6813433B61324A3B691360314BA7
:101240005B683B61FB68DB433A6913403B613B6889
:101250005B6803F40033002B03D03A69FB68134347
:101260003B61284A3B695360264B9B683B61FB68A6
:10127000DB433A6913403B613B685B6803F48013CE
:10128000002B03D03A69FB6813433B611D4A3B695D
:1012900093601C4BDB683B61FB68DB433A6913409E
:1012A0003B613B685B6803F40013002B03D03A6991
:1012B000FB6813433B61134A3B69D3607B6901338D
:1012C0007B613B681A687B6922FA03F3002B7FF489
:1012D00091AE00BF00BF1C37BD4680BC704700BF49
:1012E00000100240000001400004004800080048CF
:1012F000000C004800100048001400480018004886
:10130000001C00480004014080B400AF0C4B1B6877
:1013100003F4C063B3F5806F02D14FF480630BE038
:10132000074BD3F8803003F48073B3F5807F02D18C
:101330004FF4007300E000231846BD4680BC7047A0
:101340000070004080B588B000AF78607B68002BEB
:1013500002D1012300F016BCA04B9B6803F00C03E4
:10136000BB619E4BDB6803F003037B617B681B68FA
:1013700003F01003002B00F0E480BB69002B07D0C2
:10138000BB690C2B40F08B807B69012B40F0878080
:10139000924B1B6803F00203002B05D07B689B690E
:1013A000002B01D10123EDE37B681A6A8B4B1B688C
:1013B00003F00803002B04D0884B1B6803F0F003F4
:1013C00005E0864BD3F894301B0903F0F0039342F9
:1013D00023D27B681B6A184600F09AFD0346002B57
:1013E00001D00123CEE37D4B1B687C4A43F0080308
:1013F00013607A4B1B6823F0F0027B681B6A774905
:1014000013430B60754B5B6823F47F427B68DB6999
:101410001B02724913434B6025E0704B1B686F4AF7
:1014200043F0080313606D4B1B6823F0F0027B68E8
:101430001B6A6A4913430B60684B5B6823F47F4265
:101440007B68DB691B02654913434B60BB69002B5A
:1014500009D17B681B6A184600F05AFD0346002B31
:1014600001D001238EE300F0BFFC02465B4B9B687A
:101470001B0903F00F035A49CB5C03F01F0322FA48
:1014800003F3584A1360584B1B681846FFF7EAF8F5
:101490000346FB73FB7B002B52D0FB7B72E37B6824
:1014A0009B69002B32D04D4B1B684C4A43F0010323
:1014B0001360FFF723F9386108E0FFF71FF90246D0
:1014C0003B69D31A022B01D903235BE3434B1B680F
:1014D00003F00203002BF0D0404B1B683F4A43F05F
:1014E000080313603D4B1B6823F0F0027B681B6A06
:1014F0003A4913430B60394B5B6823F47F427B68A6
:10150000DB691B02354913434B601AE0334B1B6800
:10151000324A23F001031360FFF7F0F8386108E066
:10152000FFF7ECF802463B69D31A022B01D90323DB
:1015300028E32A4B1B6803F00203002BF0D100E0E4
:1015400000BF7B681B6803F00103002B73D0BB69ED
:10155000082B05D0BB690C2B0ED17B69032B0BD15B
:101560001E4B1B6803F40033002B63D07B685B6861
:10157000002B5FD1012305E37B685B68B3F5803FF7
:1015800006D1164B1B68154A43F4803313601DE0E7
:101590007B685B68B3F5A02F0CD1104B1B680F4A1A
:1015A00043F4802313600D4B1B680C4A43F48033D3
:1015B00013600BE0094B1B68084A23F48033136067
:1015C000064B1B68054A23F4802313607B685B6825
:1015D000002B1BD0FFF792F8386110E0001002409A
:1015E000082100080400002008000020FFF786F80A
:1015F00002463B69D31A642B01D90323C2E2AF4BE5
:101600001B6803F40033002BF0D014E0FFF776F8EA
:10161000386108E0FFF772F802463B69D31A642B81
:1016200001D90323AEE2A54B1B6803F40033002B62
:10163000F0D100E000BF7B681B6803F00203002BC1
:1016400060D0BB69042B05D0BB690C2B19D17B6919
:10165000022B16D1994B1B6803F48063002B05D035
:101660007B68DB68002B01D101238BE2934B5B6825
:1016700023F0FE427B681B691B06904913434B60B5
:1016800040E07B68DB68002B23D08C4B1B688B4AC7
:1016900043F480731360FFF731F8386108E0FFF717
:1016A0002DF802463B69D31A022B01D9032369E2C4
:1016B000824B1B6803F48063002BF0D07F4B5B6888
:1016C00023F0FE427B681B691B067C4913434B6079
:1016D00018E07A4B1B68794A23F480731360FFF794
:1016E0000DF8386108E0FFF709F802463B69D31AA4
:1016F000022B01D9032345E2704B1B6803F480637E
:10170000002BF0D17B681B6803F00803002B3CD052
:101710007B685B69002B1CD0684BD3F89430674A18
:1017200043F00103C2F89430FEF7E8FF386108E0A7
:10173000FEF7E4FF02463B69D31A022B01D90323CB
:1017400020E25E4BD3F8943003F00203002BEFD07D
:101750001BE05A4BD3F89430584A23F00103C2F8E7
:101760009430FEF7CBFF386108E0FEF7C7FF024672
:101770003B69D31A022B01D9032303E24F4BD3F861
:10178000943003F00203002BEFD17B681B6803F059
:101790000403002B00F0A6800023FB77474B9B6DD2
:1017A00003F08053002B0DD1444B9B6D434A43F013
:1017B00080539365414B9B6D03F08053BB60BB68C6
:1017C0000123FB773E4B1B6803F48073002B18D179
:1017D0003B4B1B683A4A43F480731360FEF78EFF5D
:1017E000386108E0FEF78AFF02463B69D31A022BF4
:1017F00001D90323C6E1324B1B6803F48073002B2D
:10180000F0D07B689B68012B08D12C4BD3F890302B
:101810002A4A43F00103C2F8903024E07B689B68B9
:10182000052B10D1254BD3F89030244A43F0040304
:10183000C2F89030214BD3F89030204A43F0010396
:10184000C2F890300FE01D4BD3F890301B4A23F0C4
:101850000103C2F89030194BD3F89030174A23F0A7
:101860000403C2F890307B689B68002B16D0FEF70B
:1018700045FF38610AE0FEF741FF02463B69D31A93
:1018800041F28832934201D903237BE10B4BD3F819
:10189000903003F00203002BEDD01AE0FEF72EFF8C
:1018A00038610FE0FEF72AFF02463B69D31A41F286
:1018B0008832934206D9032364E100BF001002403E
:1018C00000700040A84BD3F8903003F00203002BC7
:1018D000E8D1FB7F012B05D1A34B9B6DA24A23F0DE
:1018E000805393657B681B6803F02003002B3CD07A
:1018F0007B685B6A002B1CD09B4BD3F898309A4ACC
:1019000043F00103C2F89830FEF7F8FE386108E0B2
:10191000FEF7F4FE02463B69D31A022B01D90323DA
:1019200030E1914BD3F8983003F00203002BEFD055
:101930001BE08D4BD3F898308B4A23F00103C2F89B
:101940009830FEF7DBFE386108E0FEF7D7FE02466E
:101950003B69D31A022B01D9032313E1824BD3F83D
:10196000983003F00203002BEFD17B689B6A002BB9
:1019700000F007817B689B6A022B40F0CB807A4B9A
:10198000DB687B617B6903F003027B68DB6A9A4258
:101990002CD17B6903F0F0027B681B6B013B1B01C0
:1019A0009A4223D17B6903F4FE427B685B6B1B0286
:1019B0009A421BD17B6903F078427B689B6BDB0604
:1019C0009A4213D17B6903F4C0027B68DB6B5B082E
:1019D000013B5B059A4209D17B6903F0C0627B68D9
:1019E0001B6C5B08013B5B069A426DD0BB690C2BFC
:1019F00068D05D4B1B6803F08063002B05D15A4B08
:101A00001B6803F08053002B01D00123BAE0564B32
:101A10001B68554A23F080731360FEF76FFE386130
:101A200008E0FEF76BFE02463B69D31A022B01D990
:101A30000323A7E04C4B1B6803F00073002BF0D18D
:101A4000494BDA68494B13407A68D16A7A68126B5D
:101A5000013A120111437A68526B120211437A68FB
:101A6000D26B5208013A520511437A68126C52083F
:101A7000013A520611437A68926BD2060A433A49F8
:101A80001343CB60384B1B68374A43F080731360B5
:101A9000354BDB68344A43F08073D360FEF72EFE8B
:101AA000386108E0FEF72AFE02463B69D31A022B92
:101AB00001D9032366E02C4B1B6803F00073002B55
:101AC000F0D05EE001235DE0274B1B6803F000735C
:101AD000002B56D1244B1B68234A43F080731360BC
:101AE000214BDB68204A43F08073D360FEF706FE8B
:101AF000386108E0FEF702FE02463B69D31A022B6A
:101B000001D903233EE0184B1B6803F00073002B40
:101B1000F0D036E0BB690C2B31D0134B1B68124A56
:101B200023F080731360104B1B6803F02053002BCD
:101B300005D10D4BDB680C4A23F00303D3600A4B3D
:101B4000DB68094A23F0887323F48033D360FEF7FF
:101B5000D5FD38610CE0FEF7D1FD02463B69D31A92
:101B6000022B05D903230DE0001002400C809D01DB
:101B7000064B1B6803F00073002BECD101E001233E
:101B800000E0002318462037BD4680BD001002400B
:101B900080B586B000AF7860396000237B617B68D8
:101BA000002B01D101230FE1894B1B6803F00F03C8
:101BB0003A689A4210D9864B1B6823F00F02844979
:101BC0003B6813430B60824B1B6803F00F033A68BA
:101BD0009A4201D00123F7E07B681B6803F0010300
:101BE000002B00F089807B685B68032B33D1794B35
:101BF0001B6803F00073002B01D10123E4E000F027
:101C0000E1F90346744A934255D9724B9B6803F03D
:101C1000F003002B0AD16F4B9B6823F0F0036D4A51
:101C200043F08003936080237B6144E07B681B6802
:101C300003F00203002B3ED07B689B68002B3AD157
:101C4000644B9B6823F0F003624A43F08003936087
:101C500080237B612FE07B685B68022B07D15D4BA3
:101C60001B6803F40033002B15D10123ACE07B6823
:101C70005B68002B07D1574B1B6803F00203002B56
:101C800009D10123A0E0534B1B6803F48063002BB0
:101C900001D1012398E000F0A7F803464E4A934291
:101CA00009D94C4B9B6823F0F0034A4A43F0800368
:101CB000936080237B61474B9B6823F003027B6822
:101CC0005B68444913438B60FEF718FD38610AE0F6
:101CD000FEF714FD02463B69D31A41F28832934263
:101CE00001D9032370E03B4B9B6803F00C027B6837
:101CF0005B689B009A42EBD17B681B6803F0020390
:101D0000002B09D0334B9B6823F0F0027B689B6863
:101D1000304913438B6008E07B69802B05D12D4B44
:101D20009B682C4A23F0F0039360294B1B6803F057
:101D30000F033A689A4210D2254B1B6823F00F021A
:101D400023493B6813430B60214B1B6803F00F03CF
:101D50003A689A4201D0012336E07B681B6803F0A1
:101D60000403002B08D01B4B9B6823F4E0627B68C4
:101D7000DB68184913438B607B681B6803F008031A
:101D8000002B09D0134B9B6823F460527B681B69BE
:101D9000DB00104913438B6000F026F802460D4B20
:101DA0009B681B0903F00F030C49CB5C03F01F0376
:101DB00022FA03F30A4A13600A4B1B681846FEF71F
:101DC00051FC0346FB73FB7B18461837BD4680BDAC
:101DD000002002400010024000B4C40408210008A2
:101DE000040000200800002080B489B000AF002368
:101DF000FB610023BB613D4B9B6803F00C033B611F
:101E00003A4BDB6803F00303FB603B69002B05D012
:101E10003B690C2B21D1FB68012B1ED1334B1B6876
:101E200003F00803002B07D1304BD3F894301B0A82
:101E300003F00F03FB6105E02C4B1B681B0903F04B
:101E40000F03FB612A4AFB6952F82330FB613B69AF
:101E5000002B0DD1FB69BB610AE03B69042B02D169
:101E6000244BBB6104E03B69082B01D1224BBB61D1
:101E70003B690C2B34D11D4BDB6803F00303BB60C3
:101E8000BB68022B03D0BB68032B03D005E0194BC2
:101E90007B6105E0184B7B6102E0FB697B6100BF61
:101EA000124BDB681B0903F00F0301337B600F4B00
:101EB000DB681B0A03F07F037A6902FB03F27B688D
:101EC000B2FBF3F37B61094BDB685B0E03F00303AA
:101ED00001335B003B607A693B68B2FBF3F3BB61A3
:101EE000BB6918462437BD4680BC704700100240CD
:101EF000182100080024F40000127A0080B400AF1A
:101F0000024B1B681846BD4680BC70470400002089
:101F100080B586B000AF786000233B61274B9B6D96
:101F200003F08053002B03D0FFF7EEF9786114E043
:101F3000224B9B6D214A43F0805393651F4B9B6D51
:101F400003F08053FB60FB68FFF7DEF978611B4B01
:101F50009B6D1A4A23F0805393657B69B3F5007F2C
:101F60000BD17B68802B13D97B68A02B02D902236D
:101F70003B610DE001233B610AE07B687F2B02D9C6
:101F800002233B6104E07B68702B01D101233B619C
:101F90000B4B1B6823F00F0209493B6913430B608D
:101FA000074B1B6803F00F033A699A4201D00123E3
:101FB00000E0002318461837BD4680BD00100240DF
:101FC0000020024080B487B000AF00237B612D4B1E
:101FD000DB6803F00303012B18D12A4B1B6803F0C5
:101FE0000803002B07D1274BD3F894301B0A03F0CA
:101FF0000F037B6105E0234B1B681B0903F00F03F4
:102000007B61214A7B6952F823307B611D4BDB6881
:1020100003F00303FB60FB68022B03D0FB68032B78
:1020200003D005E0194B3B6105E0194B3B6102E031
:102030007B693B6100BF134BDB681B0903F00F0397
:102040000133BB600F4BDB681B0A03F07F033A6967
:1020500002FB03F2BB68B2FBF3F33B61094BDB68A5
:102060005B0E03F0030301335B007B603A697B681E
:10207000B2FBF3F33B603B6818461C37BD4680BC9F
:10208000704700BF00100240182100080024F4002F
:1020900000127A0070B50D4D0D4C641BA410002683
:1020A000A64209D10B4D0C4C00F020F8641BA41083
:1020B0000026A64205D170BD55F8043B984701366D
:1020C000EEE755F8043B98470136F2E7482100084F
:1020D00048210008482100084C210008024403461A
:1020E000934200D1704703F8011BF9E7F8B500BF30
:1020F000F8BC08BC9E467047F8B500BFF8BC08BCE9
:082100009E467047000000003C
:10210800000000000000000001020304060708099F
:10211800A0860100400D0300801A060000350C005F
:1021280040420F0080841E0000093D0000127A0022
:102138000024F40000366E010048E801006CDC025F
:08214800E501000800000000A1
:08215000C101000800000000BD
:1021580000FF000000093D00100000000100000021
:0400000508000201EC
:00000001FF
